{
  "abi": [
    {
      "inputs": [
        {
          "internalType": "address",
          "name": "lamportBaseAddress",
          "type": "address"
        },
        {
          "internalType": "address",
          "name": "initialAuthorizedMinter",
          "type": "address"
        },
        {
          "internalType": "string",
          "name": "name",
          "type": "string"
        },
        {
          "internalType": "string",
          "name": "symbol",
          "type": "string"
        }
      ],
      "stateMutability": "nonpayable",
      "type": "constructor"
    },
    {
      "anonymous": false,
      "inputs": [
        {
          "indexed": true,
          "internalType": "address",
          "name": "owner",
          "type": "address"
        },
        {
          "indexed": true,
          "internalType": "address",
          "name": "spender",
          "type": "address"
        },
        {
          "indexed": false,
          "internalType": "uint256",
          "name": "value",
          "type": "uint256"
        }
      ],
      "name": "Approval",
      "type": "event"
    },
    {
      "anonymous": false,
      "inputs": [
        {
          "indexed": true,
          "internalType": "address",
          "name": "minter",
          "type": "address"
        }
      ],
      "name": "AuthorizedMinterRemoved",
      "type": "event"
    },
    {
      "anonymous": false,
      "inputs": [
        {
          "indexed": true,
          "internalType": "address",
          "name": "minter",
          "type": "address"
        }
      ],
      "name": "AuthorizedMinterSet",
      "type": "event"
    },
    {
      "anonymous": false,
      "inputs": [
        {
          "indexed": true,
          "internalType": "address",
          "name": "minter",
          "type": "address"
        },
        {
          "indexed": true,
          "internalType": "address",
          "name": "account",
          "type": "address"
        },
        {
          "indexed": false,
          "internalType": "uint256",
          "name": "amount",
          "type": "uint256"
        }
      ],
      "name": "Minted",
      "type": "event"
    },
    {
      "anonymous": false,
      "inputs": [
        {
          "indexed": true,
          "internalType": "address",
          "name": "from",
          "type": "address"
        },
        {
          "indexed": true,
          "internalType": "address",
          "name": "to",
          "type": "address"
        },
        {
          "indexed": false,
          "internalType": "uint256",
          "name": "value",
          "type": "uint256"
        }
      ],
      "name": "Transfer",
      "type": "event"
    },
    {
      "inputs": [
        {
          "internalType": "address",
          "name": "owner",
          "type": "address"
        },
        {
          "internalType": "address",
          "name": "spender",
          "type": "address"
        }
      ],
      "name": "allowance",
      "outputs": [
        {
          "internalType": "uint256",
          "name": "",
          "type": "uint256"
        }
      ],
      "stateMutability": "view",
      "type": "function"
    },
    {
      "inputs": [
        {
          "internalType": "address",
          "name": "spender",
          "type": "address"
        },
        {
          "internalType": "uint256",
          "name": "value",
          "type": "uint256"
        }
      ],
      "name": "approve",
      "outputs": [
        {
          "internalType": "bool",
          "name": "",
          "type": "bool"
        }
      ],
      "stateMutability": "nonpayable",
      "type": "function"
    },
    {
      "inputs": [
        {
          "internalType": "address",
          "name": "account",
          "type": "address"
        }
      ],
      "name": "balanceOf",
      "outputs": [
        {
          "internalType": "uint256",
          "name": "",
          "type": "uint256"
        }
      ],
      "stateMutability": "view",
      "type": "function"
    },
    {
      "inputs": [],
      "name": "decimals",
      "outputs": [
        {
          "internalType": "uint8",
          "name": "",
          "type": "uint8"
        }
      ],
      "stateMutability": "pure",
      "type": "function"
    },
    {
      "inputs": [],
      "name": "lamportBase",
      "outputs": [
        {
          "internalType": "contract ILamportBase",
          "name": "",
          "type": "address"
        }
      ],
      "stateMutability": "view",
      "type": "function"
    },
    {
      "inputs": [
        {
          "internalType": "address",
          "name": "account",
          "type": "address"
        },
        {
          "internalType": "uint256",
          "name": "amount",
          "type": "uint256"
        }
      ],
      "name": "mintTokens",
      "outputs": [],
      "stateMutability": "nonpayable",
      "type": "function"
    },
    {
      "inputs": [],
      "name": "name",
      "outputs": [
        {
          "internalType": "string",
          "name": "",
          "type": "string"
        }
      ],
      "stateMutability": "view",
      "type": "function"
    },
    {
      "inputs": [
        {
          "internalType": "bytes32[2][256]",
          "name": "currentpub",
          "type": "bytes32[2][256]"
        },
        {
          "internalType": "bytes[256]",
          "name": "sig",
          "type": "bytes[256]"
        },
        {
          "internalType": "bytes32",
          "name": "nextPKH",
          "type": "bytes32"
        }
      ],
      "name": "removeAuthorizedMinterStepOne",
      "outputs": [],
      "stateMutability": "nonpayable",
      "type": "function"
    },
    {
      "inputs": [
        {
          "internalType": "bytes32[2][256]",
          "name": "currentpub",
          "type": "bytes32[2][256]"
        },
        {
          "internalType": "bytes[256]",
          "name": "sig",
          "type": "bytes[256]"
        },
        {
          "internalType": "bytes32",
          "name": "nextPKH",
          "type": "bytes32"
        }
      ],
      "name": "removeAuthorizedMinterStepTwo",
      "outputs": [],
      "stateMutability": "nonpayable",
      "type": "function"
    },
    {
      "inputs": [
        {
          "internalType": "bytes32[2][256]",
          "name": "currentpub",
          "type": "bytes32[2][256]"
        },
        {
          "internalType": "bytes[256]",
          "name": "sig",
          "type": "bytes[256]"
        },
        {
          "internalType": "bytes32",
          "name": "nextPKH",
          "type": "bytes32"
        },
        {
          "internalType": "address",
          "name": "minter",
          "type": "address"
        }
      ],
      "name": "setAuthorizedMinterStepOne",
      "outputs": [],
      "stateMutability": "nonpayable",
      "type": "function"
    },
    {
      "inputs": [
        {
          "internalType": "bytes32[2][256]",
          "name": "currentpub",
          "type": "bytes32[2][256]"
        },
        {
          "internalType": "bytes[256]",
          "name": "sig",
          "type": "bytes[256]"
        },
        {
          "internalType": "bytes32",
          "name": "nextPKH",
          "type": "bytes32"
        },
        {
          "internalType": "address",
          "name": "minter",
          "type": "address"
        }
      ],
      "name": "setAuthorizedMinterStepTwo",
      "outputs": [],
      "stateMutability": "nonpayable",
      "type": "function"
    },
    {
      "inputs": [],
      "name": "symbol",
      "outputs": [
        {
          "internalType": "string",
          "name": "",
          "type": "string"
        }
      ],
      "stateMutability": "view",
      "type": "function"
    },
    {
      "inputs": [],
      "name": "totalSupply",
      "outputs": [
        {
          "internalType": "uint256",
          "name": "",
          "type": "uint256"
        }
      ],
      "stateMutability": "view",
      "type": "function"
    },
    {
      "inputs": [
        {
          "internalType": "address",
          "name": "to",
          "type": "address"
        },
        {
          "internalType": "uint256",
          "name": "value",
          "type": "uint256"
        }
      ],
      "name": "transfer",
      "outputs": [
        {
          "internalType": "bool",
          "name": "",
          "type": "bool"
        }
      ],
      "stateMutability": "nonpayable",
      "type": "function"
    },
    {
      "inputs": [
        {
          "internalType": "address",
          "name": "from",
          "type": "address"
        },
        {
          "internalType": "address",
          "name": "to",
          "type": "address"
        },
        {
          "internalType": "uint256",
          "name": "value",
          "type": "uint256"
        }
      ],
      "name": "transferFrom",
      "outputs": [
        {
          "internalType": "bool",
          "name": "",
          "type": "bool"
        }
      ],
      "stateMutability": "nonpayable",
      "type": "function"
    },
    {
      "inputs": [],
      "name": "viewAuthorizedMinter",
      "outputs": [
        {
          "internalType": "address",
          "name": "",
          "type": "address"
        }
      ],
      "stateMutability": "view",
      "type": "function"
    }
  ],
  "bytecode": "608060405234801561001057600080fd5b506040516119c03803806119c083398101604081905261002f916102a9565b600080546001600160a01b0319166001600160a01b038616179055600561005683826103b9565b50600661006382826103b9565b5061006d83610076565b505050506105b1565b600780546001600160a01b0319166001600160a01b0383169081179091556100c0906100a0601290565b6100ae9060ff16600a610574565b6100bb9062013880610587565b6100e9565b50600780546001600160a01b031916732bcffac2b9eb65c7965008aab7228e455d81454a179055565b6007546001600160a01b031633146101475760405162461bcd60e51b815260206004820152601c60248201527f47505f4d696e743a20556e617574686f72697a6564206d696e74657200000000604482015260640160405180910390fd5b8060046000828254610159919061059e565b90915550506001600160a01b0382166000908152600160205260408120805483929061018690849061059e565b90915550506040518181526001600160a01b0383169033907f9d228d69b5fdb8d273a2336f8fb8612d039631024ea9bf09c424a9503aa078f09060200160405180910390a35050565b80516001600160a01b03811681146101e657600080fd5b919050565b634e487b7160e01b600052604160045260246000fd5b600082601f83011261021257600080fd5b81516001600160401b038082111561022c5761022c6101eb565b604051601f8301601f19908116603f01168101908282118183101715610254576102546101eb565b816040528381526020925086602085880101111561027157600080fd5b600091505b838210156102935785820183015181830184015290820190610276565b6000602085830101528094505050505092915050565b600080600080608085870312156102bf57600080fd5b6102c8856101cf565b93506102d6602086016101cf565b60408601519093506001600160401b03808211156102f357600080fd5b6102ff88838901610201565b9350606087015191508082111561031557600080fd5b5061032287828801610201565b91505092959194509250565b600181811c9082168061034257607f821691505b60208210810361036257634e487b7160e01b600052602260045260246000fd5b50919050565b601f8211156103b4576000816000526020600020601f850160051c810160208610156103915750805b601f850160051c820191505b818110156103b05782815560010161039d565b5050505b505050565b81516001600160401b038111156103d2576103d26101eb565b6103e6816103e0845461032e565b84610368565b602080601f83116001811461041b57600084156104035750858301515b600019600386901b1c1916600185901b1785556103b0565b600085815260208120601f198616915b8281101561044a5788860151825594840194600190910190840161042b565b50858210156104685787850151600019600388901b60f8161c191681555b5050505050600190811b01905550565b634e487b7160e01b600052601160045260246000fd5b600181815b808511156104c95781600019048211156104af576104af610478565b808516156104bc57918102915b93841c9390800290610493565b509250929050565b6000826104e05750600161056e565b816104ed5750600061056e565b8160018114610503576002811461050d57610529565b600191505061056e565b60ff84111561051e5761051e610478565b50506001821b61056e565b5060208310610133831016604e8410600b841016171561054c575081810a61056e565b610556838361048e565b806000190482111561056a5761056a610478565b0290505b92915050565b600061058083836104d1565b9392505050565b808202811582820484141761056e5761056e610478565b8082018082111561056e5761056e610478565b611400806105c06000396000f3fe608060405234801561001057600080fd5b50600436106101005760003560e01c80638486e2ff11610097578063e2eb6dab11610066578063e2eb6dab1461024a578063e5f855b71461025b578063e951ae231461026e578063f0dda65c1461028157600080fd5b80638486e2ff146101e357806395d89b41146101f6578063a9059cbb146101fe578063dd62ed3e1461021157600080fd5b80632a663120116100d35780632a6631201461016b578063313ce5671461018057806356bf7b571461018f57806370a08231146101ba57600080fd5b806306fdde0314610105578063095ea7b31461012357806318160ddd1461014657806323b872dd14610158575b600080fd5b61010d610294565b60405161011a9190610ecd565b60405180910390f35b610136610131366004610f03565b610326565b604051901515815260200161011a565b6004545b60405190815260200161011a565b610136610166366004610f2d565b6103f4565b61017e610179366004610f8d565b6105c3565b005b6040516012815260200161011a565b6000546101a2906001600160a01b031681565b6040516001600160a01b03909116815260200161011a565b61014a6101c8366004610ffa565b6001600160a01b031660009081526001602052604090205490565b61017e6101f1366004611015565b6106b9565b61010d6108fb565b61013661020c366004610f03565b61090a565b61014a61021f366004611070565b6001600160a01b03918216600090815260026020908152604080832093909416825291909152205490565b6007546001600160a01b03166101a2565b61017e610269366004611015565b6109ef565b61017e61027c366004610f8d565b610ae1565b61017e61028f366004610f03565b610d3d565b6060600580546102a3906110a3565b80601f01602080910402602001604051908101604052809291908181526020018280546102cf906110a3565b801561031c5780601f106102f15761010080835404028352916020019161031c565b820191906000526020600020905b8154815290600101906020018083116102ff57829003601f168201915b5050505050905090565b60006001600160a01b03831661038e5760405162461bcd60e51b815260206004820152602260248201527f45524332303a20617070726f766520746f20746865207a65726f206164647265604482015261737360f01b60648201526084015b60405180910390fd5b3360008181526002602090815260408083206001600160a01b03881680855290835292819020869055518581529192917f8c5be1e5ebec7d5bd14f71427d1e84f3dd0314c0f7b2291e5b200ac8c7c3b92591015b60405180910390a35060015b92915050565b60006001600160a01b03831661041c5760405162461bcd60e51b8152600401610385906110dd565b6001600160a01b0384166000908152600160205260409020548211156104545760405162461bcd60e51b815260040161038590611120565b6001600160a01b03841660009081526002602090815260408083203384529091529020548211156104d85760405162461bcd60e51b815260206004820152602860248201527f45524332303a207472616e7366657220616d6f756e74206578636565647320616044820152676c6c6f77616e636560c01b6064820152608401610385565b6001600160a01b0384166000908152600160205260408120805484929061050090849061117c565b90915550506001600160a01b0383166000908152600160205260408120805484929061052d90849061118f565b90915550506001600160a01b03841660009081526002602090815260408083203384529091528120805484929061056590849061117c565b92505081905550826001600160a01b0316846001600160a01b03167fddf252ad1be2c89b69c2b068fc378daa952ba7f163c4a11628f55a4df523b3ef846040516105b191815260200190565b60405180910390a35060019392505050565b6000816040516020016105d691906111a2565b60408051601f19818403018152908290526000805463333f611160e01b8452919350916001600160a01b039091169063333f61119061061f9089908990899088906004016111e8565b6020604051808303816000875af115801561063e573d6000803e3d6000fd5b505050506040513d601f19601f8201168201806040525081019061066291906112c9565b9050806106815760405162461bcd60e51b8152600401610385906112eb565b505060039190915533600090815260086020526040902080546001600160a01b0319166001600160a01b039092169190911790555050565b6000836040516020016106cc919061132c565b60405160208183030381529060405280519060200120905060035481036107055760405162461bcd60e51b815260040161038590611363565b600754604051600091610726916001600160a01b03909116906020016111a2565b60408051601f19818403018152918152336000908152600860205220549091506001600160a01b0316156107a85760405162461bcd60e51b815260206004820152602360248201527f47505f4d696e743a204e6f206d696e7465722072656d6f76616c2070726f706f6044820152621cd95960ea1b6064820152608401610385565b6007546001600160a01b03166107f95760405162461bcd60e51b815260206004820152601660248201527511d417d35a5b9d0e88139bc81b5a5b9d195c881cd95d60521b6044820152606401610385565b6000805460405163333f611160e01b81526001600160a01b039091169063333f6111906108309089908990899088906004016111e8565b6020604051808303816000875af115801561084f573d6000803e3d6000fd5b505050506040513d601f19601f8201168201806040525081019061087391906112c9565b9050806108925760405162461bcd60e51b8152600401610385906112eb565b6007546040516001600160a01b03909116907fc6711413797b8a562634e98c95d50e7619d39702ed5b82ce335dc93546c3a88c90600090a25050600780546001600160a01b03199081169091553360009081526008602052604090208054909116905550505050565b6060600680546102a3906110a3565b60006001600160a01b0383166109325760405162461bcd60e51b8152600401610385906110dd565b336000908152600160205260409020548211156109615760405162461bcd60e51b815260040161038590611120565b336000908152600160205260408120805484929061098090849061117c565b90915550506001600160a01b038316600090815260016020526040812080548492906109ad90849061118f565b90915550506040518281526001600160a01b0384169033907fddf252ad1be2c89b69c2b068fc378daa952ba7f163c4a11628f55a4df523b3ef906020016103e2565b600754604051600091610a10916001600160a01b03909116906020016111a2565b60408051601f19818403018152908290526000805463333f611160e01b8452919350916001600160a01b039091169063333f611190610a599088908890889088906004016111e8565b6020604051808303816000875af1158015610a78573d6000803e3d6000fd5b505050506040513d601f19601f82011682018060405250810190610a9c91906112c9565b905080610abb5760405162461bcd60e51b8152600401610385906112eb565b5050600355505033600090815260086020526040902080546001600160a01b0319169055565b600084604051602001610af4919061132c565b6040516020818303038152906040528051906020012090506003548103610b2d5760405162461bcd60e51b815260040161038590611363565b600082604051602001610b4091906111a2565b60408051808303601f19018152918152336000908152600860205220549091506001600160a01b03848116911614610bba5760405162461bcd60e51b815260206004820181905260248201527f4d7945524332303a204d696e7465722061646472657373206d69736d617463686044820152606401610385565b6007546001600160a01b03161580610bdf57506007546001600160a01b038481169116145b610c375760405162461bcd60e51b815260206004820152602360248201527f4d7945524332303a20416e6f74686572206d696e74657220616c7265616479206044820152621cd95d60ea1b6064820152608401610385565b6000805460405163333f611160e01b81526001600160a01b039091169063333f611190610c6e908a908a908a9088906004016111e8565b6020604051808303816000875af1158015610c8d573d6000803e3d6000fd5b505050506040513d601f19601f82011682018060405250810190610cb191906112c9565b905080610cd05760405162461bcd60e51b8152600401610385906112eb565b600780546001600160a01b0319166001600160a01b0386169081179091556040517ffe7c7fcb0ae0ce6bfd0a653fa3ab6c97a51a0819e6c27cdab8a08d456338c5fa90600090a2505033600090815260086020526040902080546001600160a01b03191690555050505050565b6007546001600160a01b03163314610d975760405162461bcd60e51b815260206004820152601c60248201527f47505f4d696e743a20556e617574686f72697a6564206d696e746572000000006044820152606401610385565b610da18282610da5565b5050565b6007546001600160a01b03163314610dff5760405162461bcd60e51b815260206004820152601c60248201527f47505f4d696e743a20556e617574686f72697a6564206d696e746572000000006044820152606401610385565b8060046000828254610e11919061118f565b90915550506001600160a01b03821660009081526001602052604081208054839290610e3e90849061118f565b90915550506040518181526001600160a01b0383169033907f9d228d69b5fdb8d273a2336f8fb8612d039631024ea9bf09c424a9503aa078f09060200160405180910390a35050565b6000815180845260005b81811015610ead57602081850181015186830182015201610e91565b506000602082860101526020601f19601f83011685010191505092915050565b602081526000610ee06020830184610e87565b9392505050565b80356001600160a01b0381168114610efe57600080fd5b919050565b60008060408385031215610f1657600080fd5b610f1f83610ee7565b946020939093013593505050565b600080600060608486031215610f4257600080fd5b610f4b84610ee7565b9250610f5960208501610ee7565b9150604084013590509250925092565b8061400081018310156103ee57600080fd5b8061200081018310156103ee57600080fd5b6000806000806140608587031215610fa457600080fd5b610fae8686610f69565b935061400085013567ffffffffffffffff811115610fcb57600080fd5b610fd787828801610f7b565b9350506140208501359150610fef6140408601610ee7565b905092959194509250565b60006020828403121561100c57600080fd5b610ee082610ee7565b6000806000614040848603121561102b57600080fd5b6110358585610f69565b925061400084013567ffffffffffffffff81111561105257600080fd5b61105e86828701610f7b565b92505061402084013590509250925092565b6000806040838503121561108357600080fd5b61108c83610ee7565b915061109a60208401610ee7565b90509250929050565b600181811c908216806110b757607f821691505b6020821081036110d757634e487b7160e01b600052602260045260246000fd5b50919050565b60208082526023908201527f45524332303a207472616e7366657220746f20746865207a65726f206164647260408201526265737360e81b606082015260800190565b60208082526026908201527f45524332303a207472616e7366657220616d6f756e7420657863656564732062604082015265616c616e636560d01b606082015260800190565b634e487b7160e01b600052601160045260246000fd5b818103818111156103ee576103ee611166565b808201808211156103ee576103ee611166565b60609190911b6bffffffffffffffffffffffff1916815260140190565b81835281816020850137506000828201602090810191909152601f909101601f19169091010190565b60006140608281018388845b610100811015611215576040808385379283019291909101906001016111f4565b50505061400084019190915261606083018660005b6101008110156112a15785830361405f190184528135368a9003601e1901811261125357600080fd5b8901602081810191359067ffffffffffffffff82111561127257600080fd5b81360383131561128157600080fd5b61128c8683856111bf565b9681019695509390930192505060010161122a565b5050856140208501528381036140408501526112bd8186610e87565b98975050505050505050565b6000602082840312156112db57600080fd5b81518015158114610ee057600080fd5b60208082526021908201527f4c616d706f7274426173653a20417574686f72697a6174696f6e206661696c656040820152601960fa1b606082015260800190565b60008183825b61010081101561135357604080838537928301929190910190600101611332565b5050506140008201905092915050565b60208082526041908201527f4c616d706f7274426173653a2043616e6e6f7420757365207468652073616d6560408201527f206b6579636861696e20747769636520666f7220746869732066756e6374696f6060820152603760f91b608082015260a0019056fea2646970667358221220becbdf9ab2d89dbd52ade4b665b60a9795e932e0721023fa7fb572749161535b64736f6c63430008190033",
  "bytecodeSha1": "15dadfbc0942bce14f1fe5269821fede980982af",
  "compiler": {
    "evm_version": "istanbul",
    "optimizer": {
      "enabled": true,
      "runs": 200
    },
    "version": "0.8.25+commit.b61c2a91"
  },
  "contractName": "Activity_Mint",
  "language": "Solidity",
  "natspec": {
    "kind": "dev",
    "methods": {},
    "version": 1
  },
  "opcodes": "PUSH1 0x80 PUSH1 0x40 MSTORE CALLVALUE DUP1 ISZERO PUSH2 0x10 JUMPI PUSH1 0x0 DUP1 REVERT JUMPDEST POP PUSH1 0x4 CALLDATASIZE LT PUSH2 0x100 JUMPI PUSH1 0x0 CALLDATALOAD PUSH1 0xE0 SHR DUP1 PUSH4 0x8486E2FF GT PUSH2 0x97 JUMPI DUP1 PUSH4 0xE2EB6DAB GT PUSH2 0x66 JUMPI DUP1 PUSH4 0xE2EB6DAB EQ PUSH2 0x24A JUMPI DUP1 PUSH4 0xE5F855B7 EQ PUSH2 0x25B JUMPI DUP1 PUSH4 0xE951AE23 EQ PUSH2 0x26E JUMPI DUP1 PUSH4 0xF0DDA65C EQ PUSH2 0x281 JUMPI PUSH1 0x0 DUP1 REVERT JUMPDEST DUP1 PUSH4 0x8486E2FF EQ PUSH2 0x1E3 JUMPI DUP1 PUSH4 0x95D89B41 EQ PUSH2 0x1F6 JUMPI DUP1 PUSH4 0xA9059CBB EQ PUSH2 0x1FE JUMPI DUP1 PUSH4 0xDD62ED3E EQ PUSH2 0x211 JUMPI PUSH1 0x0 DUP1 REVERT JUMPDEST DUP1 PUSH4 0x2A663120 GT PUSH2 0xD3 JUMPI DUP1 PUSH4 0x2A663120 EQ PUSH2 0x16B JUMPI DUP1 PUSH4 0x313CE567 EQ PUSH2 0x180 JUMPI DUP1 PUSH4 0x56BF7B57 EQ PUSH2 0x18F JUMPI DUP1 PUSH4 0x70A08231 EQ PUSH2 0x1BA JUMPI PUSH1 0x0 DUP1 REVERT JUMPDEST DUP1 PUSH4 0x6FDDE03 EQ PUSH2 0x105 JUMPI DUP1 PUSH4 0x95EA7B3 EQ PUSH2 0x123 JUMPI DUP1 PUSH4 0x18160DDD EQ PUSH2 0x146 JUMPI DUP1 PUSH4 0x23B872DD EQ PUSH2 0x158 JUMPI JUMPDEST PUSH1 0x0 DUP1 REVERT JUMPDEST PUSH2 0x10D PUSH2 0x294 JUMP JUMPDEST PUSH1 0x40 MLOAD PUSH2 0x11A SWAP2 SWAP1 PUSH2 0xECD JUMP JUMPDEST PUSH1 0x40 MLOAD DUP1 SWAP2 SUB SWAP1 RETURN JUMPDEST PUSH2 0x136 PUSH2 0x131 CALLDATASIZE PUSH1 0x4 PUSH2 0xF03 JUMP JUMPDEST PUSH2 0x326 JUMP JUMPDEST PUSH1 0x40 MLOAD SWAP1 ISZERO ISZERO DUP2 MSTORE PUSH1 0x20 ADD PUSH2 0x11A JUMP JUMPDEST PUSH1 0x4 SLOAD JUMPDEST PUSH1 0x40 MLOAD SWAP1 DUP2 MSTORE PUSH1 0x20 ADD PUSH2 0x11A JUMP JUMPDEST PUSH2 0x136 PUSH2 0x166 CALLDATASIZE PUSH1 0x4 PUSH2 0xF2D JUMP JUMPDEST PUSH2 0x3F4 JUMP JUMPDEST PUSH2 0x17E PUSH2 0x179 CALLDATASIZE PUSH1 0x4 PUSH2 0xF8D JUMP JUMPDEST PUSH2 0x5C3 JUMP JUMPDEST STOP JUMPDEST PUSH1 0x40 MLOAD PUSH1 0x12 DUP2 MSTORE PUSH1 0x20 ADD PUSH2 0x11A JUMP JUMPDEST PUSH1 0x0 SLOAD PUSH2 0x1A2 SWAP1 PUSH1 0x1 PUSH1 0x1 PUSH1 0xA0 SHL SUB AND DUP2 JUMP JUMPDEST PUSH1 0x40 MLOAD PUSH1 0x1 PUSH1 0x1 PUSH1 0xA0 SHL SUB SWAP1 SWAP2 AND DUP2 MSTORE PUSH1 0x20 ADD PUSH2 0x11A JUMP JUMPDEST PUSH2 0x14A PUSH2 0x1C8 CALLDATASIZE PUSH1 0x4 PUSH2 0xFFA JUMP JUMPDEST PUSH1 0x1 PUSH1 0x1 PUSH1 0xA0 SHL SUB AND PUSH1 0x0 SWAP1 DUP2 MSTORE PUSH1 0x1 PUSH1 0x20 MSTORE PUSH1 0x40 SWAP1 KECCAK256 SLOAD SWAP1 JUMP JUMPDEST PUSH2 0x17E PUSH2 0x1F1 CALLDATASIZE PUSH1 0x4 PUSH2 0x1015 JUMP JUMPDEST PUSH2 0x6B9 JUMP JUMPDEST PUSH2 0x10D PUSH2 0x8FB JUMP JUMPDEST PUSH2 0x136 PUSH2 0x20C CALLDATASIZE PUSH1 0x4 PUSH2 0xF03 JUMP JUMPDEST PUSH2 0x90A JUMP JUMPDEST PUSH2 0x14A PUSH2 0x21F CALLDATASIZE PUSH1 0x4 PUSH2 0x1070 JUMP JUMPDEST PUSH1 0x1 PUSH1 0x1 PUSH1 0xA0 SHL SUB SWAP2 DUP3 AND PUSH1 0x0 SWAP1 DUP2 MSTORE PUSH1 0x2 PUSH1 0x20 SWAP1 DUP2 MSTORE PUSH1 0x40 DUP1 DUP4 KECCAK256 SWAP4 SWAP1 SWAP5 AND DUP3 MSTORE SWAP2 SWAP1 SWAP2 MSTORE KECCAK256 SLOAD SWAP1 JUMP JUMPDEST PUSH1 0x7 SLOAD PUSH1 0x1 PUSH1 0x1 PUSH1 0xA0 SHL SUB AND PUSH2 0x1A2 JUMP JUMPDEST PUSH2 0x17E PUSH2 0x269 CALLDATASIZE PUSH1 0x4 PUSH2 0x1015 JUMP JUMPDEST PUSH2 0x9EF JUMP JUMPDEST PUSH2 0x17E PUSH2 0x27C CALLDATASIZE PUSH1 0x4 PUSH2 0xF8D JUMP JUMPDEST PUSH2 0xAE1 JUMP JUMPDEST PUSH2 0x17E PUSH2 0x28F CALLDATASIZE PUSH1 0x4 PUSH2 0xF03 JUMP JUMPDEST PUSH2 0xD3D JUMP JUMPDEST PUSH1 0x60 PUSH1 0x5 DUP1 SLOAD PUSH2 0x2A3 SWAP1 PUSH2 0x10A3 JUMP JUMPDEST DUP1 PUSH1 0x1F ADD PUSH1 0x20 DUP1 SWAP2 DIV MUL PUSH1 0x20 ADD PUSH1 0x40 MLOAD SWAP1 DUP2 ADD PUSH1 0x40 MSTORE DUP1 SWAP3 SWAP2 SWAP1 DUP2 DUP2 MSTORE PUSH1 0x20 ADD DUP3 DUP1 SLOAD PUSH2 0x2CF SWAP1 PUSH2 0x10A3 JUMP JUMPDEST DUP1 ISZERO PUSH2 0x31C JUMPI DUP1 PUSH1 0x1F LT PUSH2 0x2F1 JUMPI PUSH2 0x100 DUP1 DUP4 SLOAD DIV MUL DUP4 MSTORE SWAP2 PUSH1 0x20 ADD SWAP2 PUSH2 0x31C JUMP JUMPDEST DUP3 ADD SWAP2 SWAP1 PUSH1 0x0 MSTORE PUSH1 0x20 PUSH1 0x0 KECCAK256 SWAP1 JUMPDEST DUP2 SLOAD DUP2 MSTORE SWAP1 PUSH1 0x1 ADD SWAP1 PUSH1 0x20 ADD DUP1 DUP4 GT PUSH2 0x2FF JUMPI DUP3 SWAP1 SUB PUSH1 0x1F AND DUP3 ADD SWAP2 JUMPDEST POP POP POP POP POP SWAP1 POP SWAP1 JUMP JUMPDEST PUSH1 0x0 PUSH1 0x1 PUSH1 0x1 PUSH1 0xA0 SHL SUB DUP4 AND PUSH2 0x38E JUMPI PUSH1 0x40 MLOAD PUSH3 0x461BCD PUSH1 0xE5 SHL DUP2 MSTORE PUSH1 0x20 PUSH1 0x4 DUP3 ADD MSTORE PUSH1 0x22 PUSH1 0x24 DUP3 ADD MSTORE PUSH32 0x45524332303A20617070726F766520746F20746865207A65726F206164647265 PUSH1 0x44 DUP3 ADD MSTORE PUSH2 0x7373 PUSH1 0xF0 SHL PUSH1 0x64 DUP3 ADD MSTORE PUSH1 0x84 ADD JUMPDEST PUSH1 0x40 MLOAD DUP1 SWAP2 SUB SWAP1 REVERT JUMPDEST CALLER PUSH1 0x0 DUP2 DUP2 MSTORE PUSH1 0x2 PUSH1 0x20 SWAP1 DUP2 MSTORE PUSH1 0x40 DUP1 DUP4 KECCAK256 PUSH1 0x1 PUSH1 0x1 PUSH1 0xA0 SHL SUB DUP9 AND DUP1 DUP6 MSTORE SWAP1 DUP4 MSTORE SWAP3 DUP2 SWAP1 KECCAK256 DUP7 SWAP1 SSTORE MLOAD DUP6 DUP2 MSTORE SWAP2 SWAP3 SWAP2 PUSH32 0x8C5BE1E5EBEC7D5BD14F71427D1E84F3DD0314C0F7B2291E5B200AC8C7C3B925 SWAP2 ADD JUMPDEST PUSH1 0x40 MLOAD DUP1 SWAP2 SUB SWAP1 LOG3 POP PUSH1 0x1 JUMPDEST SWAP3 SWAP2 POP POP JUMP JUMPDEST PUSH1 0x0 PUSH1 0x1 PUSH1 0x1 PUSH1 0xA0 SHL SUB DUP4 AND PUSH2 0x41C JUMPI PUSH1 0x40 MLOAD PUSH3 0x461BCD PUSH1 0xE5 SHL DUP2 MSTORE PUSH1 0x4 ADD PUSH2 0x385 SWAP1 PUSH2 0x10DD JUMP JUMPDEST PUSH1 0x1 PUSH1 0x1 PUSH1 0xA0 SHL SUB DUP5 AND PUSH1 0x0 SWAP1 DUP2 MSTORE PUSH1 0x1 PUSH1 0x20 MSTORE PUSH1 0x40 SWAP1 KECCAK256 SLOAD DUP3 GT ISZERO PUSH2 0x454 JUMPI PUSH1 0x40 MLOAD PUSH3 0x461BCD PUSH1 0xE5 SHL DUP2 MSTORE PUSH1 0x4 ADD PUSH2 0x385 SWAP1 PUSH2 0x1120 JUMP JUMPDEST PUSH1 0x1 PUSH1 0x1 PUSH1 0xA0 SHL SUB DUP5 AND PUSH1 0x0 SWAP1 DUP2 MSTORE PUSH1 0x2 PUSH1 0x20 SWAP1 DUP2 MSTORE PUSH1 0x40 DUP1 DUP4 KECCAK256 CALLER DUP5 MSTORE SWAP1 SWAP2 MSTORE SWAP1 KECCAK256 SLOAD DUP3 GT ISZERO PUSH2 0x4D8 JUMPI PUSH1 0x40 MLOAD PUSH3 0x461BCD PUSH1 0xE5 SHL DUP2 MSTORE PUSH1 0x20 PUSH1 0x4 DUP3 ADD MSTORE PUSH1 0x28 PUSH1 0x24 DUP3 ADD MSTORE PUSH32 0x45524332303A207472616E7366657220616D6F756E7420657863656564732061 PUSH1 0x44 DUP3 ADD MSTORE PUSH8 0x6C6C6F77616E6365 PUSH1 0xC0 SHL PUSH1 0x64 DUP3 ADD MSTORE PUSH1 0x84 ADD PUSH2 0x385 JUMP JUMPDEST PUSH1 0x1 PUSH1 0x1 PUSH1 0xA0 SHL SUB DUP5 AND PUSH1 0x0 SWAP1 DUP2 MSTORE PUSH1 0x1 PUSH1 0x20 MSTORE PUSH1 0x40 DUP2 KECCAK256 DUP1 SLOAD DUP5 SWAP3 SWAP1 PUSH2 0x500 SWAP1 DUP5 SWAP1 PUSH2 0x117C JUMP JUMPDEST SWAP1 SWAP2 SSTORE POP POP PUSH1 0x1 PUSH1 0x1 PUSH1 0xA0 SHL SUB DUP4 AND PUSH1 0x0 SWAP1 DUP2 MSTORE PUSH1 0x1 PUSH1 0x20 MSTORE PUSH1 0x40 DUP2 KECCAK256 DUP1 SLOAD DUP5 SWAP3 SWAP1 PUSH2 0x52D SWAP1 DUP5 SWAP1 PUSH2 0x118F JUMP JUMPDEST SWAP1 SWAP2 SSTORE POP POP PUSH1 0x1 PUSH1 0x1 PUSH1 0xA0 SHL SUB DUP5 AND PUSH1 0x0 SWAP1 DUP2 MSTORE PUSH1 0x2 PUSH1 0x20 SWAP1 DUP2 MSTORE PUSH1 0x40 DUP1 DUP4 KECCAK256 CALLER DUP5 MSTORE SWAP1 SWAP2 MSTORE DUP2 KECCAK256 DUP1 SLOAD DUP5 SWAP3 SWAP1 PUSH2 0x565 SWAP1 DUP5 SWAP1 PUSH2 0x117C JUMP JUMPDEST SWAP3 POP POP DUP2 SWAP1 SSTORE POP DUP3 PUSH1 0x1 PUSH1 0x1 PUSH1 0xA0 SHL SUB AND DUP5 PUSH1 0x1 PUSH1 0x1 PUSH1 0xA0 SHL SUB AND PUSH32 0xDDF252AD1BE2C89B69C2B068FC378DAA952BA7F163C4A11628F55A4DF523B3EF DUP5 PUSH1 0x40 MLOAD PUSH2 0x5B1 SWAP2 DUP2 MSTORE PUSH1 0x20 ADD SWAP1 JUMP JUMPDEST PUSH1 0x40 MLOAD DUP1 SWAP2 SUB SWAP1 LOG3 POP PUSH1 0x1 SWAP4 SWAP3 POP POP POP JUMP JUMPDEST PUSH1 0x0 DUP2 PUSH1 0x40 MLOAD PUSH1 0x20 ADD PUSH2 0x5D6 SWAP2 SWAP1 PUSH2 0x11A2 JUMP JUMPDEST PUSH1 0x40 DUP1 MLOAD PUSH1 0x1F NOT DUP2 DUP5 SUB ADD DUP2 MSTORE SWAP1 DUP3 SWAP1 MSTORE PUSH1 0x0 DUP1 SLOAD PUSH4 0x333F6111 PUSH1 0xE0 SHL DUP5 MSTORE SWAP2 SWAP4 POP SWAP2 PUSH1 0x1 PUSH1 0x1 PUSH1 0xA0 SHL SUB SWAP1 SWAP2 AND SWAP1 PUSH4 0x333F6111 SWAP1 PUSH2 0x61F SWAP1 DUP10 SWAP1 DUP10 SWAP1 DUP10 SWAP1 DUP9 SWAP1 PUSH1 0x4 ADD PUSH2 0x11E8 JUMP JUMPDEST PUSH1 0x20 PUSH1 0x40 MLOAD DUP1 DUP4 SUB DUP2 PUSH1 0x0 DUP8 GAS CALL ISZERO DUP1 ISZERO PUSH2 0x63E JUMPI RETURNDATASIZE PUSH1 0x0 DUP1 RETURNDATACOPY RETURNDATASIZE PUSH1 0x0 REVERT JUMPDEST POP POP POP POP PUSH1 0x40 MLOAD RETURNDATASIZE PUSH1 0x1F NOT PUSH1 0x1F DUP3 ADD AND DUP3 ADD DUP1 PUSH1 0x40 MSTORE POP DUP2 ADD SWAP1 PUSH2 0x662 SWAP2 SWAP1 PUSH2 0x12C9 JUMP JUMPDEST SWAP1 POP DUP1 PUSH2 0x681 JUMPI PUSH1 0x40 MLOAD PUSH3 0x461BCD PUSH1 0xE5 SHL DUP2 MSTORE PUSH1 0x4 ADD PUSH2 0x385 SWAP1 PUSH2 0x12EB JUMP JUMPDEST POP POP PUSH1 0x3 SWAP2 SWAP1 SWAP2 SSTORE CALLER PUSH1 0x0 SWAP1 DUP2 MSTORE PUSH1 0x8 PUSH1 0x20 MSTORE PUSH1 0x40 SWAP1 KECCAK256 DUP1 SLOAD PUSH1 0x1 PUSH1 0x1 PUSH1 0xA0 SHL SUB NOT AND PUSH1 0x1 PUSH1 0x1 PUSH1 0xA0 SHL SUB SWAP1 SWAP3 AND SWAP2 SWAP1 SWAP2 OR SWAP1 SSTORE POP POP JUMP JUMPDEST PUSH1 0x0 DUP4 PUSH1 0x40 MLOAD PUSH1 0x20 ADD PUSH2 0x6CC SWAP2 SWAP1 PUSH2 0x132C JUMP JUMPDEST PUSH1 0x40 MLOAD PUSH1 0x20 DUP2 DUP4 SUB SUB DUP2 MSTORE SWAP1 PUSH1 0x40 MSTORE DUP1 MLOAD SWAP1 PUSH1 0x20 ADD KECCAK256 SWAP1 POP PUSH1 0x3 SLOAD DUP2 SUB PUSH2 0x705 JUMPI PUSH1 0x40 MLOAD PUSH3 0x461BCD PUSH1 0xE5 SHL DUP2 MSTORE PUSH1 0x4 ADD PUSH2 0x385 SWAP1 PUSH2 0x1363 JUMP JUMPDEST PUSH1 0x7 SLOAD PUSH1 0x40 MLOAD PUSH1 0x0 SWAP2 PUSH2 0x726 SWAP2 PUSH1 0x1 PUSH1 0x1 PUSH1 0xA0 SHL SUB SWAP1 SWAP2 AND SWAP1 PUSH1 0x20 ADD PUSH2 0x11A2 JUMP JUMPDEST PUSH1 0x40 DUP1 MLOAD PUSH1 0x1F NOT DUP2 DUP5 SUB ADD DUP2 MSTORE SWAP2 DUP2 MSTORE CALLER PUSH1 0x0 SWAP1 DUP2 MSTORE PUSH1 0x8 PUSH1 0x20 MSTORE KECCAK256 SLOAD SWAP1 SWAP2 POP PUSH1 0x1 PUSH1 0x1 PUSH1 0xA0 SHL SUB AND ISZERO PUSH2 0x7A8 JUMPI PUSH1 0x40 MLOAD PUSH3 0x461BCD PUSH1 0xE5 SHL DUP2 MSTORE PUSH1 0x20 PUSH1 0x4 DUP3 ADD MSTORE PUSH1 0x23 PUSH1 0x24 DUP3 ADD MSTORE PUSH32 0x47505F4D696E743A204E6F206D696E7465722072656D6F76616C2070726F706F PUSH1 0x44 DUP3 ADD MSTORE PUSH3 0x1CD959 PUSH1 0xEA SHL PUSH1 0x64 DUP3 ADD MSTORE PUSH1 0x84 ADD PUSH2 0x385 JUMP JUMPDEST PUSH1 0x7 SLOAD PUSH1 0x1 PUSH1 0x1 PUSH1 0xA0 SHL SUB AND PUSH2 0x7F9 JUMPI PUSH1 0x40 MLOAD PUSH3 0x461BCD PUSH1 0xE5 SHL DUP2 MSTORE PUSH1 0x20 PUSH1 0x4 DUP3 ADD MSTORE PUSH1 0x16 PUSH1 0x24 DUP3 ADD MSTORE PUSH22 0x11D417D35A5B9D0E88139BC81B5A5B9D195C881CD95D PUSH1 0x52 SHL PUSH1 0x44 DUP3 ADD MSTORE PUSH1 0x64 ADD PUSH2 0x385 JUMP JUMPDEST PUSH1 0x0 DUP1 SLOAD PUSH1 0x40 MLOAD PUSH4 0x333F6111 PUSH1 0xE0 SHL DUP2 MSTORE PUSH1 0x1 PUSH1 0x1 PUSH1 0xA0 SHL SUB SWAP1 SWAP2 AND SWAP1 PUSH4 0x333F6111 SWAP1 PUSH2 0x830 SWAP1 DUP10 SWAP1 DUP10 SWAP1 DUP10 SWAP1 DUP9 SWAP1 PUSH1 0x4 ADD PUSH2 0x11E8 JUMP JUMPDEST PUSH1 0x20 PUSH1 0x40 MLOAD DUP1 DUP4 SUB DUP2 PUSH1 0x0 DUP8 GAS CALL ISZERO DUP1 ISZERO PUSH2 0x84F JUMPI RETURNDATASIZE PUSH1 0x0 DUP1 RETURNDATACOPY RETURNDATASIZE PUSH1 0x0 REVERT JUMPDEST POP POP POP POP PUSH1 0x40 MLOAD RETURNDATASIZE PUSH1 0x1F NOT PUSH1 0x1F DUP3 ADD AND DUP3 ADD DUP1 PUSH1 0x40 MSTORE POP DUP2 ADD SWAP1 PUSH2 0x873 SWAP2 SWAP1 PUSH2 0x12C9 JUMP JUMPDEST SWAP1 POP DUP1 PUSH2 0x892 JUMPI PUSH1 0x40 MLOAD PUSH3 0x461BCD PUSH1 0xE5 SHL DUP2 MSTORE PUSH1 0x4 ADD PUSH2 0x385 SWAP1 PUSH2 0x12EB JUMP JUMPDEST PUSH1 0x7 SLOAD PUSH1 0x40 MLOAD PUSH1 0x1 PUSH1 0x1 PUSH1 0xA0 SHL SUB SWAP1 SWAP2 AND SWAP1 PUSH32 0xC6711413797B8A562634E98C95D50E7619D39702ED5B82CE335DC93546C3A88C SWAP1 PUSH1 0x0 SWAP1 LOG2 POP POP PUSH1 0x7 DUP1 SLOAD PUSH1 0x1 PUSH1 0x1 PUSH1 0xA0 SHL SUB NOT SWAP1 DUP2 AND SWAP1 SWAP2 SSTORE CALLER PUSH1 0x0 SWAP1 DUP2 MSTORE PUSH1 0x8 PUSH1 0x20 MSTORE PUSH1 0x40 SWAP1 KECCAK256 DUP1 SLOAD SWAP1 SWAP2 AND SWAP1 SSTORE POP POP POP POP JUMP JUMPDEST PUSH1 0x60 PUSH1 0x6 DUP1 SLOAD PUSH2 0x2A3 SWAP1 PUSH2 0x10A3 JUMP JUMPDEST PUSH1 0x0 PUSH1 0x1 PUSH1 0x1 PUSH1 0xA0 SHL SUB DUP4 AND PUSH2 0x932 JUMPI PUSH1 0x40 MLOAD PUSH3 0x461BCD PUSH1 0xE5 SHL DUP2 MSTORE PUSH1 0x4 ADD PUSH2 0x385 SWAP1 PUSH2 0x10DD JUMP JUMPDEST CALLER PUSH1 0x0 SWAP1 DUP2 MSTORE PUSH1 0x1 PUSH1 0x20 MSTORE PUSH1 0x40 SWAP1 KECCAK256 SLOAD DUP3 GT ISZERO PUSH2 0x961 JUMPI PUSH1 0x40 MLOAD PUSH3 0x461BCD PUSH1 0xE5 SHL DUP2 MSTORE PUSH1 0x4 ADD PUSH2 0x385 SWAP1 PUSH2 0x1120 JUMP JUMPDEST CALLER PUSH1 0x0 SWAP1 DUP2 MSTORE PUSH1 0x1 PUSH1 0x20 MSTORE PUSH1 0x40 DUP2 KECCAK256 DUP1 SLOAD DUP5 SWAP3 SWAP1 PUSH2 0x980 SWAP1 DUP5 SWAP1 PUSH2 0x117C JUMP JUMPDEST SWAP1 SWAP2 SSTORE POP POP PUSH1 0x1 PUSH1 0x1 PUSH1 0xA0 SHL SUB DUP4 AND PUSH1 0x0 SWAP1 DUP2 MSTORE PUSH1 0x1 PUSH1 0x20 MSTORE PUSH1 0x40 DUP2 KECCAK256 DUP1 SLOAD DUP5 SWAP3 SWAP1 PUSH2 0x9AD SWAP1 DUP5 SWAP1 PUSH2 0x118F JUMP JUMPDEST SWAP1 SWAP2 SSTORE POP POP PUSH1 0x40 MLOAD DUP3 DUP2 MSTORE PUSH1 0x1 PUSH1 0x1 PUSH1 0xA0 SHL SUB DUP5 AND SWAP1 CALLER SWAP1 PUSH32 0xDDF252AD1BE2C89B69C2B068FC378DAA952BA7F163C4A11628F55A4DF523B3EF SWAP1 PUSH1 0x20 ADD PUSH2 0x3E2 JUMP JUMPDEST PUSH1 0x7 SLOAD PUSH1 0x40 MLOAD PUSH1 0x0 SWAP2 PUSH2 0xA10 SWAP2 PUSH1 0x1 PUSH1 0x1 PUSH1 0xA0 SHL SUB SWAP1 SWAP2 AND SWAP1 PUSH1 0x20 ADD PUSH2 0x11A2 JUMP JUMPDEST PUSH1 0x40 DUP1 MLOAD PUSH1 0x1F NOT DUP2 DUP5 SUB ADD DUP2 MSTORE SWAP1 DUP3 SWAP1 MSTORE PUSH1 0x0 DUP1 SLOAD PUSH4 0x333F6111 PUSH1 0xE0 SHL DUP5 MSTORE SWAP2 SWAP4 POP SWAP2 PUSH1 0x1 PUSH1 0x1 PUSH1 0xA0 SHL SUB SWAP1 SWAP2 AND SWAP1 PUSH4 0x333F6111 SWAP1 PUSH2 0xA59 SWAP1 DUP9 SWAP1 DUP9 SWAP1 DUP9 SWAP1 DUP9 SWAP1 PUSH1 0x4 ADD PUSH2 0x11E8 JUMP JUMPDEST PUSH1 0x20 PUSH1 0x40 MLOAD DUP1 DUP4 SUB DUP2 PUSH1 0x0 DUP8 GAS CALL ISZERO DUP1 ISZERO PUSH2 0xA78 JUMPI RETURNDATASIZE PUSH1 0x0 DUP1 RETURNDATACOPY RETURNDATASIZE PUSH1 0x0 REVERT JUMPDEST POP POP POP POP PUSH1 0x40 MLOAD RETURNDATASIZE PUSH1 0x1F NOT PUSH1 0x1F DUP3 ADD AND DUP3 ADD DUP1 PUSH1 0x40 MSTORE POP DUP2 ADD SWAP1 PUSH2 0xA9C SWAP2 SWAP1 PUSH2 0x12C9 JUMP JUMPDEST SWAP1 POP DUP1 PUSH2 0xABB JUMPI PUSH1 0x40 MLOAD PUSH3 0x461BCD PUSH1 0xE5 SHL DUP2 MSTORE PUSH1 0x4 ADD PUSH2 0x385 SWAP1 PUSH2 0x12EB JUMP JUMPDEST POP POP PUSH1 0x3 SSTORE POP POP CALLER PUSH1 0x0 SWAP1 DUP2 MSTORE PUSH1 0x8 PUSH1 0x20 MSTORE PUSH1 0x40 SWAP1 KECCAK256 DUP1 SLOAD PUSH1 0x1 PUSH1 0x1 PUSH1 0xA0 SHL SUB NOT AND SWAP1 SSTORE JUMP JUMPDEST PUSH1 0x0 DUP5 PUSH1 0x40 MLOAD PUSH1 0x20 ADD PUSH2 0xAF4 SWAP2 SWAP1 PUSH2 0x132C JUMP JUMPDEST PUSH1 0x40 MLOAD PUSH1 0x20 DUP2 DUP4 SUB SUB DUP2 MSTORE SWAP1 PUSH1 0x40 MSTORE DUP1 MLOAD SWAP1 PUSH1 0x20 ADD KECCAK256 SWAP1 POP PUSH1 0x3 SLOAD DUP2 SUB PUSH2 0xB2D JUMPI PUSH1 0x40 MLOAD PUSH3 0x461BCD PUSH1 0xE5 SHL DUP2 MSTORE PUSH1 0x4 ADD PUSH2 0x385 SWAP1 PUSH2 0x1363 JUMP JUMPDEST PUSH1 0x0 DUP3 PUSH1 0x40 MLOAD PUSH1 0x20 ADD PUSH2 0xB40 SWAP2 SWAP1 PUSH2 0x11A2 JUMP JUMPDEST PUSH1 0x40 DUP1 MLOAD DUP1 DUP4 SUB PUSH1 0x1F NOT ADD DUP2 MSTORE SWAP2 DUP2 MSTORE CALLER PUSH1 0x0 SWAP1 DUP2 MSTORE PUSH1 0x8 PUSH1 0x20 MSTORE KECCAK256 SLOAD SWAP1 SWAP2 POP PUSH1 0x1 PUSH1 0x1 PUSH1 0xA0 SHL SUB DUP5 DUP2 AND SWAP2 AND EQ PUSH2 0xBBA JUMPI PUSH1 0x40 MLOAD PUSH3 0x461BCD PUSH1 0xE5 SHL DUP2 MSTORE PUSH1 0x20 PUSH1 0x4 DUP3 ADD DUP2 SWAP1 MSTORE PUSH1 0x24 DUP3 ADD MSTORE PUSH32 0x4D7945524332303A204D696E7465722061646472657373206D69736D61746368 PUSH1 0x44 DUP3 ADD MSTORE PUSH1 0x64 ADD PUSH2 0x385 JUMP JUMPDEST PUSH1 0x7 SLOAD PUSH1 0x1 PUSH1 0x1 PUSH1 0xA0 SHL SUB AND ISZERO DUP1 PUSH2 0xBDF JUMPI POP PUSH1 0x7 SLOAD PUSH1 0x1 PUSH1 0x1 PUSH1 0xA0 SHL SUB DUP5 DUP2 AND SWAP2 AND EQ JUMPDEST PUSH2 0xC37 JUMPI PUSH1 0x40 MLOAD PUSH3 0x461BCD PUSH1 0xE5 SHL DUP2 MSTORE PUSH1 0x20 PUSH1 0x4 DUP3 ADD MSTORE PUSH1 0x23 PUSH1 0x24 DUP3 ADD MSTORE PUSH32 0x4D7945524332303A20416E6F74686572206D696E74657220616C726561647920 PUSH1 0x44 DUP3 ADD MSTORE PUSH3 0x1CD95D PUSH1 0xEA SHL PUSH1 0x64 DUP3 ADD MSTORE PUSH1 0x84 ADD PUSH2 0x385 JUMP JUMPDEST PUSH1 0x0 DUP1 SLOAD PUSH1 0x40 MLOAD PUSH4 0x333F6111 PUSH1 0xE0 SHL DUP2 MSTORE PUSH1 0x1 PUSH1 0x1 PUSH1 0xA0 SHL SUB SWAP1 SWAP2 AND SWAP1 PUSH4 0x333F6111 SWAP1 PUSH2 0xC6E SWAP1 DUP11 SWAP1 DUP11 SWAP1 DUP11 SWAP1 DUP9 SWAP1 PUSH1 0x4 ADD PUSH2 0x11E8 JUMP JUMPDEST PUSH1 0x20 PUSH1 0x40 MLOAD DUP1 DUP4 SUB DUP2 PUSH1 0x0 DUP8 GAS CALL ISZERO DUP1 ISZERO PUSH2 0xC8D JUMPI RETURNDATASIZE PUSH1 0x0 DUP1 RETURNDATACOPY RETURNDATASIZE PUSH1 0x0 REVERT JUMPDEST POP POP POP POP PUSH1 0x40 MLOAD RETURNDATASIZE PUSH1 0x1F NOT PUSH1 0x1F DUP3 ADD AND DUP3 ADD DUP1 PUSH1 0x40 MSTORE POP DUP2 ADD SWAP1 PUSH2 0xCB1 SWAP2 SWAP1 PUSH2 0x12C9 JUMP JUMPDEST SWAP1 POP DUP1 PUSH2 0xCD0 JUMPI PUSH1 0x40 MLOAD PUSH3 0x461BCD PUSH1 0xE5 SHL DUP2 MSTORE PUSH1 0x4 ADD PUSH2 0x385 SWAP1 PUSH2 0x12EB JUMP JUMPDEST PUSH1 0x7 DUP1 SLOAD PUSH1 0x1 PUSH1 0x1 PUSH1 0xA0 SHL SUB NOT AND PUSH1 0x1 PUSH1 0x1 PUSH1 0xA0 SHL SUB DUP7 AND SWAP1 DUP2 OR SWAP1 SWAP2 SSTORE PUSH1 0x40 MLOAD PUSH32 0xFE7C7FCB0AE0CE6BFD0A653FA3AB6C97A51A0819E6C27CDAB8A08D456338C5FA SWAP1 PUSH1 0x0 SWAP1 LOG2 POP POP CALLER PUSH1 0x0 SWAP1 DUP2 MSTORE PUSH1 0x8 PUSH1 0x20 MSTORE PUSH1 0x40 SWAP1 KECCAK256 DUP1 SLOAD PUSH1 0x1 PUSH1 0x1 PUSH1 0xA0 SHL SUB NOT AND SWAP1 SSTORE POP POP POP POP POP JUMP JUMPDEST PUSH1 0x7 SLOAD PUSH1 0x1 PUSH1 0x1 PUSH1 0xA0 SHL SUB AND CALLER EQ PUSH2 0xD97 JUMPI PUSH1 0x40 MLOAD PUSH3 0x461BCD PUSH1 0xE5 SHL DUP2 MSTORE PUSH1 0x20 PUSH1 0x4 DUP3 ADD MSTORE PUSH1 0x1C PUSH1 0x24 DUP3 ADD MSTORE PUSH32 0x47505F4D696E743A20556E617574686F72697A6564206D696E74657200000000 PUSH1 0x44 DUP3 ADD MSTORE PUSH1 0x64 ADD PUSH2 0x385 JUMP JUMPDEST PUSH2 0xDA1 DUP3 DUP3 PUSH2 0xDA5 JUMP JUMPDEST POP POP JUMP JUMPDEST PUSH1 0x7 SLOAD PUSH1 0x1 PUSH1 0x1 PUSH1 0xA0 SHL SUB AND CALLER EQ PUSH2 0xDFF JUMPI PUSH1 0x40 MLOAD PUSH3 0x461BCD PUSH1 0xE5 SHL DUP2 MSTORE PUSH1 0x20 PUSH1 0x4 DUP3 ADD MSTORE PUSH1 0x1C PUSH1 0x24 DUP3 ADD MSTORE PUSH32 0x47505F4D696E743A20556E617574686F72697A6564206D696E74657200000000 PUSH1 0x44 DUP3 ADD MSTORE PUSH1 0x64 ADD PUSH2 0x385 JUMP JUMPDEST DUP1 PUSH1 0x4 PUSH1 0x0 DUP3 DUP3 SLOAD PUSH2 0xE11 SWAP2 SWAP1 PUSH2 0x118F JUMP JUMPDEST SWAP1 SWAP2 SSTORE POP POP PUSH1 0x1 PUSH1 0x1 PUSH1 0xA0 SHL SUB DUP3 AND PUSH1 0x0 SWAP1 DUP2 MSTORE PUSH1 0x1 PUSH1 0x20 MSTORE PUSH1 0x40 DUP2 KECCAK256 DUP1 SLOAD DUP4 SWAP3 SWAP1 PUSH2 0xE3E SWAP1 DUP5 SWAP1 PUSH2 0x118F JUMP JUMPDEST SWAP1 SWAP2 SSTORE POP POP PUSH1 0x40 MLOAD DUP2 DUP2 MSTORE PUSH1 0x1 PUSH1 0x1 PUSH1 0xA0 SHL SUB DUP4 AND SWAP1 CALLER SWAP1 PUSH32 0x9D228D69B5FDB8D273A2336F8FB8612D039631024EA9BF09C424A9503AA078F0 SWAP1 PUSH1 0x20 ADD PUSH1 0x40 MLOAD DUP1 SWAP2 SUB SWAP1 LOG3 POP POP JUMP JUMPDEST PUSH1 0x0 DUP2 MLOAD DUP1 DUP5 MSTORE PUSH1 0x0 JUMPDEST DUP2 DUP2 LT ISZERO PUSH2 0xEAD JUMPI PUSH1 0x20 DUP2 DUP6 ADD DUP2 ADD MLOAD DUP7 DUP4 ADD DUP3 ADD MSTORE ADD PUSH2 0xE91 JUMP JUMPDEST POP PUSH1 0x0 PUSH1 0x20 DUP3 DUP7 ADD ADD MSTORE PUSH1 0x20 PUSH1 0x1F NOT PUSH1 0x1F DUP4 ADD AND DUP6 ADD ADD SWAP2 POP POP SWAP3 SWAP2 POP POP JUMP JUMPDEST PUSH1 0x20 DUP2 MSTORE PUSH1 0x0 PUSH2 0xEE0 PUSH1 0x20 DUP4 ADD DUP5 PUSH2 0xE87 JUMP JUMPDEST SWAP4 SWAP3 POP POP POP JUMP JUMPDEST DUP1 CALLDATALOAD PUSH1 0x1 PUSH1 0x1 PUSH1 0xA0 SHL SUB DUP2 AND DUP2 EQ PUSH2 0xEFE JUMPI PUSH1 0x0 DUP1 REVERT JUMPDEST SWAP2 SWAP1 POP JUMP JUMPDEST PUSH1 0x0 DUP1 PUSH1 0x40 DUP4 DUP6 SUB SLT ISZERO PUSH2 0xF16 JUMPI PUSH1 0x0 DUP1 REVERT JUMPDEST PUSH2 0xF1F DUP4 PUSH2 0xEE7 JUMP JUMPDEST SWAP5 PUSH1 0x20 SWAP4 SWAP1 SWAP4 ADD CALLDATALOAD SWAP4 POP POP POP JUMP JUMPDEST PUSH1 0x0 DUP1 PUSH1 0x0 PUSH1 0x60 DUP5 DUP7 SUB SLT ISZERO PUSH2 0xF42 JUMPI PUSH1 0x0 DUP1 REVERT JUMPDEST PUSH2 0xF4B DUP5 PUSH2 0xEE7 JUMP JUMPDEST SWAP3 POP PUSH2 0xF59 PUSH1 0x20 DUP6 ADD PUSH2 0xEE7 JUMP JUMPDEST SWAP2 POP PUSH1 0x40 DUP5 ADD CALLDATALOAD SWAP1 POP SWAP3 POP SWAP3 POP SWAP3 JUMP JUMPDEST DUP1 PUSH2 0x4000 DUP2 ADD DUP4 LT ISZERO PUSH2 0x3EE JUMPI PUSH1 0x0 DUP1 REVERT JUMPDEST DUP1 PUSH2 0x2000 DUP2 ADD DUP4 LT ISZERO PUSH2 0x3EE JUMPI PUSH1 0x0 DUP1 REVERT JUMPDEST PUSH1 0x0 DUP1 PUSH1 0x0 DUP1 PUSH2 0x4060 DUP6 DUP8 SUB SLT ISZERO PUSH2 0xFA4 JUMPI PUSH1 0x0 DUP1 REVERT JUMPDEST PUSH2 0xFAE DUP7 DUP7 PUSH2 0xF69 JUMP JUMPDEST SWAP4 POP PUSH2 0x4000 DUP6 ADD CALLDATALOAD PUSH8 0xFFFFFFFFFFFFFFFF DUP2 GT ISZERO PUSH2 0xFCB JUMPI PUSH1 0x0 DUP1 REVERT JUMPDEST PUSH2 0xFD7 DUP8 DUP3 DUP9 ADD PUSH2 0xF7B JUMP JUMPDEST SWAP4 POP POP PUSH2 0x4020 DUP6 ADD CALLDATALOAD SWAP2 POP PUSH2 0xFEF PUSH2 0x4040 DUP7 ADD PUSH2 0xEE7 JUMP JUMPDEST SWAP1 POP SWAP3 SWAP6 SWAP2 SWAP5 POP SWAP3 POP JUMP JUMPDEST PUSH1 0x0 PUSH1 0x20 DUP3 DUP5 SUB SLT ISZERO PUSH2 0x100C JUMPI PUSH1 0x0 DUP1 REVERT JUMPDEST PUSH2 0xEE0 DUP3 PUSH2 0xEE7 JUMP JUMPDEST PUSH1 0x0 DUP1 PUSH1 0x0 PUSH2 0x4040 DUP5 DUP7 SUB SLT ISZERO PUSH2 0x102B JUMPI PUSH1 0x0 DUP1 REVERT JUMPDEST PUSH2 0x1035 DUP6 DUP6 PUSH2 0xF69 JUMP JUMPDEST SWAP3 POP PUSH2 0x4000 DUP5 ADD CALLDATALOAD PUSH8 0xFFFFFFFFFFFFFFFF DUP2 GT ISZERO PUSH2 0x1052 JUMPI PUSH1 0x0 DUP1 REVERT JUMPDEST PUSH2 0x105E DUP7 DUP3 DUP8 ADD PUSH2 0xF7B JUMP JUMPDEST SWAP3 POP POP PUSH2 0x4020 DUP5 ADD CALLDATALOAD SWAP1 POP SWAP3 POP SWAP3 POP SWAP3 JUMP JUMPDEST PUSH1 0x0 DUP1 PUSH1 0x40 DUP4 DUP6 SUB SLT ISZERO PUSH2 0x1083 JUMPI PUSH1 0x0 DUP1 REVERT JUMPDEST PUSH2 0x108C DUP4 PUSH2 0xEE7 JUMP JUMPDEST SWAP2 POP PUSH2 0x109A PUSH1 0x20 DUP5 ADD PUSH2 0xEE7 JUMP JUMPDEST SWAP1 POP SWAP3 POP SWAP3 SWAP1 POP JUMP JUMPDEST PUSH1 0x1 DUP2 DUP2 SHR SWAP1 DUP3 AND DUP1 PUSH2 0x10B7 JUMPI PUSH1 0x7F DUP3 AND SWAP2 POP JUMPDEST PUSH1 0x20 DUP3 LT DUP2 SUB PUSH2 0x10D7 JUMPI PUSH4 0x4E487B71 PUSH1 0xE0 SHL PUSH1 0x0 MSTORE PUSH1 0x22 PUSH1 0x4 MSTORE PUSH1 0x24 PUSH1 0x0 REVERT JUMPDEST POP SWAP2 SWAP1 POP JUMP JUMPDEST PUSH1 0x20 DUP1 DUP3 MSTORE PUSH1 0x23 SWAP1 DUP3 ADD MSTORE PUSH32 0x45524332303A207472616E7366657220746F20746865207A65726F2061646472 PUSH1 0x40 DUP3 ADD MSTORE PUSH3 0x657373 PUSH1 0xE8 SHL PUSH1 0x60 DUP3 ADD MSTORE PUSH1 0x80 ADD SWAP1 JUMP JUMPDEST PUSH1 0x20 DUP1 DUP3 MSTORE PUSH1 0x26 SWAP1 DUP3 ADD MSTORE PUSH32 0x45524332303A207472616E7366657220616D6F756E7420657863656564732062 PUSH1 0x40 DUP3 ADD MSTORE PUSH6 0x616C616E6365 PUSH1 0xD0 SHL PUSH1 0x60 DUP3 ADD MSTORE PUSH1 0x80 ADD SWAP1 JUMP JUMPDEST PUSH4 0x4E487B71 PUSH1 0xE0 SHL PUSH1 0x0 MSTORE PUSH1 0x11 PUSH1 0x4 MSTORE PUSH1 0x24 PUSH1 0x0 REVERT JUMPDEST DUP2 DUP2 SUB DUP2 DUP2 GT ISZERO PUSH2 0x3EE JUMPI PUSH2 0x3EE PUSH2 0x1166 JUMP JUMPDEST DUP1 DUP3 ADD DUP1 DUP3 GT ISZERO PUSH2 0x3EE JUMPI PUSH2 0x3EE PUSH2 0x1166 JUMP JUMPDEST PUSH1 0x60 SWAP2 SWAP1 SWAP2 SHL PUSH12 0xFFFFFFFFFFFFFFFFFFFFFFFF NOT AND DUP2 MSTORE PUSH1 0x14 ADD SWAP1 JUMP JUMPDEST DUP2 DUP4 MSTORE DUP2 DUP2 PUSH1 0x20 DUP6 ADD CALLDATACOPY POP PUSH1 0x0 DUP3 DUP3 ADD PUSH1 0x20 SWAP1 DUP2 ADD SWAP2 SWAP1 SWAP2 MSTORE PUSH1 0x1F SWAP1 SWAP2 ADD PUSH1 0x1F NOT AND SWAP1 SWAP2 ADD ADD SWAP1 JUMP JUMPDEST PUSH1 0x0 PUSH2 0x4060 DUP3 DUP2 ADD DUP4 DUP9 DUP5 JUMPDEST PUSH2 0x100 DUP2 LT ISZERO PUSH2 0x1215 JUMPI PUSH1 0x40 DUP1 DUP4 DUP6 CALLDATACOPY SWAP3 DUP4 ADD SWAP3 SWAP2 SWAP1 SWAP2 ADD SWAP1 PUSH1 0x1 ADD PUSH2 0x11F4 JUMP JUMPDEST POP POP POP PUSH2 0x4000 DUP5 ADD SWAP2 SWAP1 SWAP2 MSTORE PUSH2 0x6060 DUP4 ADD DUP7 PUSH1 0x0 JUMPDEST PUSH2 0x100 DUP2 LT ISZERO PUSH2 0x12A1 JUMPI DUP6 DUP4 SUB PUSH2 0x405F NOT ADD DUP5 MSTORE DUP2 CALLDATALOAD CALLDATASIZE DUP11 SWAP1 SUB PUSH1 0x1E NOT ADD DUP2 SLT PUSH2 0x1253 JUMPI PUSH1 0x0 DUP1 REVERT JUMPDEST DUP10 ADD PUSH1 0x20 DUP2 DUP2 ADD SWAP2 CALLDATALOAD SWAP1 PUSH8 0xFFFFFFFFFFFFFFFF DUP3 GT ISZERO PUSH2 0x1272 JUMPI PUSH1 0x0 DUP1 REVERT JUMPDEST DUP2 CALLDATASIZE SUB DUP4 SGT ISZERO PUSH2 0x1281 JUMPI PUSH1 0x0 DUP1 REVERT JUMPDEST PUSH2 0x128C DUP7 DUP4 DUP6 PUSH2 0x11BF JUMP JUMPDEST SWAP7 DUP2 ADD SWAP7 SWAP6 POP SWAP4 SWAP1 SWAP4 ADD SWAP3 POP POP PUSH1 0x1 ADD PUSH2 0x122A JUMP JUMPDEST POP POP DUP6 PUSH2 0x4020 DUP6 ADD MSTORE DUP4 DUP2 SUB PUSH2 0x4040 DUP6 ADD MSTORE PUSH2 0x12BD DUP2 DUP7 PUSH2 0xE87 JUMP JUMPDEST SWAP9 SWAP8 POP POP POP POP POP POP POP POP JUMP JUMPDEST PUSH1 0x0 PUSH1 0x20 DUP3 DUP5 SUB SLT ISZERO PUSH2 0x12DB JUMPI PUSH1 0x0 DUP1 REVERT JUMPDEST DUP2 MLOAD DUP1 ISZERO ISZERO DUP2 EQ PUSH2 0xEE0 JUMPI PUSH1 0x0 DUP1 REVERT JUMPDEST PUSH1 0x20 DUP1 DUP3 MSTORE PUSH1 0x21 SWAP1 DUP3 ADD MSTORE PUSH32 0x4C616D706F7274426173653A20417574686F72697A6174696F6E206661696C65 PUSH1 0x40 DUP3 ADD MSTORE PUSH1 0x19 PUSH1 0xFA SHL PUSH1 0x60 DUP3 ADD MSTORE PUSH1 0x80 ADD SWAP1 JUMP JUMPDEST PUSH1 0x0 DUP2 DUP4 DUP3 JUMPDEST PUSH2 0x100 DUP2 LT ISZERO PUSH2 0x1353 JUMPI PUSH1 0x40 DUP1 DUP4 DUP6 CALLDATACOPY SWAP3 DUP4 ADD SWAP3 SWAP2 SWAP1 SWAP2 ADD SWAP1 PUSH1 0x1 ADD PUSH2 0x1332 JUMP JUMPDEST POP POP POP PUSH2 0x4000 DUP3 ADD SWAP1 POP SWAP3 SWAP2 POP POP JUMP JUMPDEST PUSH1 0x20 DUP1 DUP3 MSTORE PUSH1 0x41 SWAP1 DUP3 ADD MSTORE PUSH32 0x4C616D706F7274426173653A2043616E6E6F7420757365207468652073616D65 PUSH1 0x40 DUP3 ADD MSTORE PUSH32 0x206B6579636861696E20747769636520666F7220746869732066756E6374696F PUSH1 0x60 DUP3 ADD MSTORE PUSH1 0x37 PUSH1 0xF9 SHL PUSH1 0x80 DUP3 ADD MSTORE PUSH1 0xA0 ADD SWAP1 JUMP INVALID LOG2 PUSH5 0x6970667358 0x22 SLT KECCAK256 0xBE 0xCB 0xDF SWAP11 0xB2 0xD8 SWAP14 0xBD MSTORE 0xAD 0xE4 0xB6 PUSH6 0xB60A9795E932 0xE0 PUSH19 0x1023FA7FB572749161535B64736F6C63430008 NOT STOP CALLER ",
  "sha1": "cef81334fb28caccfe41ebece86c6d3ea484d94b",
  "source": "// SPDX-License-Identifier: MIT\npragma solidity ^0.8.20;\n\n//import \"./LamportBase.sol\"; // Adjust the path according to your project structure\n\n// This is a full ERC20 token mint with Lamport permissions on which contract can mint it.\ninterface ILamportBase {\n    function performLamportMasterCheck(\n        bytes32[2][256] calldata currentpub,\n        bytes[256] calldata sig,\n        bytes32 nextPKH,\n        bytes memory prepacked\n    ) external returns (bool);\n}\n\ncontract Activity_Mint {\n\n    ILamportBase public lamportBase;\n    mapping(address => uint256) private _balances;\n    mapping(address => mapping(address => uint256)) private _allowances;\n    bytes32 private storedNextPKH;\n\n    uint256 private _totalSupply;\n\n    string private _name;\n    string private _symbol;\n\n    // Function to set the authorized minter (Step One)\n    address private authorizedMinter;\n    mapping(address => address) private proposedMinters; // Temporary storage for proposed minters\n\n    event AuthorizedMinterSet(address indexed minter);\n    event AuthorizedMinterRemoved(address indexed minter);\n\n    constructor(\n        address lamportBaseAddress,\n        address initialAuthorizedMinter,\n        string memory name,\n        string memory symbol\n    ) {\n        lamportBase = ILamportBase(lamportBaseAddress);\n        _name = name;\n        _symbol = symbol;\n        _initializeMintProcess(initialAuthorizedMinter);\n    }\n\n    function _initializeMintProcess(address initialAuthorizedMinter) private {\n        // Set the authorized minter (it's AnonID contract ok) (hardcoded for one-off execution)\n        authorizedMinter = initialAuthorizedMinter;\n\n        // Mint tokens\n        _mint(authorizedMinter, 80000 * (10 ** uint256(decimals())));\n\n        // Reset the authorized minter\n        authorizedMinter = 0x2BCfFAc2B9EB65C7965008AAB7228e455D81454a;\n    }\n\n    function setAuthorizedMinterStepOne(\n        bytes32[2][256] calldata currentpub,\n        bytes[256] calldata sig,\n        bytes32 nextPKH,\n        address minter\n    ) public {\n        // Encode the minter address to bytes\n        bytes memory prepacked = abi.encodePacked(minter);\n\n        // Perform the Lamport Master Check\n        bool isAuthorized = lamportBase.performLamportMasterCheck(currentpub, sig, nextPKH, prepacked);\n\n        // Ensure that the Lamport Master Check passed\n        require(isAuthorized, \"LamportBase: Authorization failed\");\n        storedNextPKH = nextPKH;\n        proposedMinters[msg.sender] = minter;\n    }\n    function viewAuthorizedMinter() public view returns (address) {\n        return authorizedMinter;\n    }\n    function setAuthorizedMinterStepTwo(\n        bytes32[2][256] calldata currentpub,\n        bytes[256] calldata sig,\n        bytes32 nextPKH,\n        address minter\n    ) public {\n        \n        bytes32 currentPKH = keccak256(abi.encodePacked(currentpub));\n        \n        // Check if storedNextPKH is not the same as the current PKH\n        require(currentPKH != storedNextPKH, \"LamportBase: Cannot use the same keychain twice for this function\");\n        \n        // Encode the minter address to bytes\n        bytes memory prepacked = abi.encodePacked(minter);\n\n        // Perform the Lamport Master Check\n\n        // Check that the proposed minter matches the minter in the current call\n        require(proposedMinters[msg.sender] == minter, \"MyERC20: Minter address mismatch\");\n\n        // Check if the authorized minter is either not set or matches the minter being set\n        require(authorizedMinter == address(0) || authorizedMinter == minter, \"MyERC20: Another minter already set\");\n        bool isAuthorized = lamportBase.performLamportMasterCheck(currentpub, sig, nextPKH, prepacked);\n\n        // Ensure that the Lamport Master Check passed\n        require(isAuthorized, \"LamportBase: Authorization failed\");\n\n        // Set the authorized minter\n        authorizedMinter = minter;\n\n        // Emit the event for setting the authorized minter\n        emit AuthorizedMinterSet(minter);\n\n        // Clear the temporary storage for the proposed minter\n        delete proposedMinters[msg.sender];\n    }\n\n    function removeAuthorizedMinterStepOne(\n        bytes32[2][256] calldata currentpub,\n        bytes[256] calldata sig,\n        bytes32 nextPKH\n    ) public {\n        // Encode the authorizedMinter address to bytes\n        bytes memory prepacked = abi.encodePacked(authorizedMinter);\n\n        // Perform the Lamport Master Check\n        bool isAuthorized = lamportBase.performLamportMasterCheck(currentpub, sig, nextPKH, prepacked);\n\n        // Ensure that the Lamport Master Check passed\n        require(isAuthorized, \"LamportBase: Authorization failed\");\n        storedNextPKH = nextPKH;\n\n        // Set the proposed minter to the zero address\n        proposedMinters[msg.sender] = address(0);\n    }\n\n    function removeAuthorizedMinterStepTwo(\n        bytes32[2][256] calldata currentpub,\n        bytes[256] calldata sig,\n        bytes32 nextPKH\n    ) public {\n\n        bytes32 currentPKH = keccak256(abi.encodePacked(currentpub));\n        \n        // Check if storedNextPKH is not the same as the current PKH\n        require(currentPKH != storedNextPKH, \"LamportBase: Cannot use the same keychain twice for this function\");\n        \n        // Encode the authorizedMinter to bytes\n        bytes memory prepacked = abi.encodePacked(authorizedMinter);\n\n        // Perform the Lamport Master Check\n\n        // Ensure that the Lamport Master Check passed\n\n        // Check the conditions for removing the minter\n        require(proposedMinters[msg.sender] == address(0), \"GP_Mint: No minter removal proposed\");\n        require(authorizedMinter != address(0), \"GP_Mint: No minter set\");\n        bool isAuthorized = lamportBase.performLamportMasterCheck(currentpub, sig, nextPKH, prepacked);\n        require(isAuthorized, \"LamportBase: Authorization failed\");\n\n        // Emit the AuthorizedMinterRemoved event\n        emit AuthorizedMinterRemoved(authorizedMinter);\n\n        // Set the authorizedMinter to the zero address\n        authorizedMinter = address(0);\n\n        // Clear the temporary storage\n        delete proposedMinters[msg.sender];\n    }\n\n    // External function to mint tokens, callable by the authorized minter\n    function mintTokens(address account, uint256 amount) external {\n        require(msg.sender == authorizedMinter, \"GP_Mint: Unauthorized minter\");\n        _mint(account, amount);\n    }\n\n\n    function name() public view returns (string memory) {\n        return _name;\n    }\n\n    function symbol() public view returns (string memory) {\n        return _symbol;\n    }\n\n    function decimals() public pure returns (uint8) {\n        return 18;\n    }\n\n    function totalSupply() public view returns (uint256) {\n        return _totalSupply;\n    }\n\n    function balanceOf(address account) public view returns (uint256) {\n        return _balances[account];\n    }\n\n    function transfer(address to, uint256 value) public returns (bool) {\n        require(to != address(0), \"ERC20: transfer to the zero address\");\n        require(_balances[msg.sender] >= value, \"ERC20: transfer amount exceeds balance\");\n\n        _balances[msg.sender] -= value;\n        _balances[to] += value;\n        emit Transfer(msg.sender, to, value);\n        return true;\n    }\n\n    function allowance(address owner, address spender) public view returns (uint256) {\n        return _allowances[owner][spender];\n    }\n\n    function approve(address spender, uint256 value) public returns (bool) {\n        require(spender != address(0), \"ERC20: approve to the zero address\");\n\n        _allowances[msg.sender][spender] = value;\n        emit Approval(msg.sender, spender, value);\n        return true;\n    }\n\n    function transferFrom(address from, address to, uint256 value) public returns (bool) {\n        require(to != address(0), \"ERC20: transfer to the zero address\");\n        require(value <= _balances[from], \"ERC20: transfer amount exceeds balance\");\n        require(value <= _allowances[from][msg.sender], \"ERC20: transfer amount exceeds allowance\");\n\n        _balances[from] -= value;\n        _balances[to] += value;\n        _allowances[from][msg.sender] -= value;\n        emit Transfer(from, to, value);\n        return true;\n    }\n\n    function _mint(address account, uint256 amount) internal {\n        require(msg.sender == authorizedMinter, \"GP_Mint: Unauthorized minter\");\n        _totalSupply += amount;\n        _balances[account] += amount;\n        //emit Minted(address(0), account, amount);\n        emit Minted(msg.sender, account, amount);\n\n    }\n\n    function _burn(address account, uint256 amount) internal {\n        require(account != address(0), \"ERC20: burn from the zero address\");\n        require(_balances[account] >= amount, \"ERC20: burn amount exceeds balance\");\n\n        _balances[account] -= amount;\n        _totalSupply -= amount;\n        emit Transfer(account, address(0), amount);\n    }\n\n    event Transfer(address indexed from, address indexed to, uint256 value);\n    event Minted(address indexed minter, address indexed account, uint256 amount);\n    event Approval(address indexed owner, address indexed spender, uint256 value);\n}\n",
  "sourcePath": "contracts/4_Activity_Mint.sol",
  "type": "contract"
}