{
  "abi": [
    {
      "inputs": [
        {
          "internalType": "address",
          "name": "_lamportBase",
          "type": "address"
        },
        {
          "internalType": "address",
          "name": "__playerDatabaseAddress",
          "type": "address"
        },
        {
          "internalType": "address",
          "name": "__mintContractAddress",
          "type": "address"
        }
      ],
      "stateMutability": "nonpayable",
      "type": "constructor"
    },
    {
      "anonymous": false,
      "inputs": [
        {
          "indexed": false,
          "internalType": "address",
          "name": "mintContractAddress",
          "type": "address"
        }
      ],
      "name": "MintContractUpdated",
      "type": "event"
    },
    {
      "anonymous": false,
      "inputs": [
        {
          "indexed": false,
          "internalType": "address",
          "name": "playerDatabaseAddress",
          "type": "address"
        }
      ],
      "name": "PlayerDatabaseAddressUpdated",
      "type": "event"
    },
    {
      "inputs": [],
      "name": "MAX_MINT_TIME",
      "outputs": [
        {
          "internalType": "uint256",
          "name": "",
          "type": "uint256"
        }
      ],
      "stateMutability": "view",
      "type": "function"
    },
    {
      "inputs": [],
      "name": "MAX_PLAYERS_PER_SUBMISSION",
      "outputs": [
        {
          "internalType": "uint256",
          "name": "",
          "type": "uint256"
        }
      ],
      "stateMutability": "view",
      "type": "function"
    },
    {
      "inputs": [],
      "name": "MINT_INTERVAL",
      "outputs": [
        {
          "internalType": "uint256",
          "name": "",
          "type": "uint256"
        }
      ],
      "stateMutability": "view",
      "type": "function"
    },
    {
      "inputs": [],
      "name": "TOKENS_PER_SECOND",
      "outputs": [
        {
          "internalType": "uint256",
          "name": "",
          "type": "uint256"
        }
      ],
      "stateMutability": "view",
      "type": "function"
    },
    {
      "inputs": [
        {
          "internalType": "string[]",
          "name": "playerNames",
          "type": "string[]"
        }
      ],
      "name": "getValidRewardAddressesByNames",
      "outputs": [
        {
          "internalType": "address[]",
          "name": "",
          "type": "address[]"
        }
      ],
      "stateMutability": "nonpayable",
      "type": "function"
    },
    {
      "inputs": [
        {
          "internalType": "bytes32",
          "name": "",
          "type": "bytes32"
        },
        {
          "internalType": "uint256",
          "name": "",
          "type": "uint256"
        }
      ],
      "name": "hashToPlayerList",
      "outputs": [
        {
          "internalType": "string",
          "name": "",
          "type": "string"
        }
      ],
      "stateMutability": "view",
      "type": "function"
    },
    {
      "inputs": [
        {
          "internalType": "address",
          "name": "_address",
          "type": "address"
        }
      ],
      "name": "isValidator",
      "outputs": [
        {
          "internalType": "bool",
          "name": "",
          "type": "bool"
        }
      ],
      "stateMutability": "view",
      "type": "function"
    },
    {
      "inputs": [],
      "name": "lamportBase",
      "outputs": [
        {
          "internalType": "contract ILamportBase",
          "name": "",
          "type": "address"
        }
      ],
      "stateMutability": "view",
      "type": "function"
    },
    {
      "inputs": [],
      "name": "lastMintTime",
      "outputs": [
        {
          "internalType": "uint256",
          "name": "",
          "type": "uint256"
        }
      ],
      "stateMutability": "view",
      "type": "function"
    },
    {
      "inputs": [],
      "name": "mintContract",
      "outputs": [
        {
          "internalType": "contract IGP_Mint",
          "name": "",
          "type": "address"
        }
      ],
      "stateMutability": "view",
      "type": "function"
    },
    {
      "inputs": [
        {
          "internalType": "string",
          "name": "",
          "type": "string"
        },
        {
          "internalType": "address",
          "name": "",
          "type": "address"
        }
      ],
      "name": "serverSubmissions",
      "outputs": [
        {
          "internalType": "bytes32",
          "name": "playerListHash",
          "type": "bytes32"
        },
        {
          "internalType": "bool",
          "name": "canMint",
          "type": "bool"
        }
      ],
      "stateMutability": "view",
      "type": "function"
    },
    {
      "inputs": [
        {
          "internalType": "bytes32",
          "name": "playerListHash",
          "type": "bytes32"
        },
        {
          "internalType": "bytes32[2][256]",
          "name": "currentpub",
          "type": "bytes32[2][256]"
        },
        {
          "internalType": "bytes[256]",
          "name": "sig",
          "type": "bytes[256]"
        },
        {
          "internalType": "bytes32",
          "name": "nextPKH",
          "type": "bytes32"
        }
      ],
      "name": "submitPlayerListStepOne",
      "outputs": [],
      "stateMutability": "nonpayable",
      "type": "function"
    },
    {
      "inputs": [
        {
          "components": [
            {
              "internalType": "string",
              "name": "serverIP",
              "type": "string"
            },
            {
              "internalType": "string[]",
              "name": "playerNames",
              "type": "string[]"
            }
          ],
          "internalType": "struct GameValidator.ServerPlayers[]",
          "name": "serverPlayerLists",
          "type": "tuple[]"
        },
        {
          "internalType": "address",
          "name": "validatorID",
          "type": "address"
        },
        {
          "internalType": "bool",
          "name": "canMintFlag",
          "type": "bool"
        }
      ],
      "name": "submitPlayerListStepTwo",
      "outputs": [],
      "stateMutability": "nonpayable",
      "type": "function"
    },
    {
      "inputs": [
        {
          "internalType": "bytes32[2][256]",
          "name": "currentpub",
          "type": "bytes32[2][256]"
        },
        {
          "internalType": "bytes[256]",
          "name": "sig",
          "type": "bytes[256]"
        },
        {
          "internalType": "bytes32",
          "name": "nextPKH",
          "type": "bytes32"
        },
        {
          "internalType": "address",
          "name": "mintContractAddress",
          "type": "address"
        }
      ],
      "name": "updateMintContractAddressStepOne",
      "outputs": [],
      "stateMutability": "nonpayable",
      "type": "function"
    },
    {
      "inputs": [
        {
          "internalType": "bytes32[2][256]",
          "name": "currentpub",
          "type": "bytes32[2][256]"
        },
        {
          "internalType": "bytes[256]",
          "name": "sig",
          "type": "bytes[256]"
        },
        {
          "internalType": "bytes32",
          "name": "nextPKH",
          "type": "bytes32"
        },
        {
          "internalType": "address",
          "name": "mintContractAddress",
          "type": "address"
        }
      ],
      "name": "updateMintContractAddressStepTwo",
      "outputs": [],
      "stateMutability": "nonpayable",
      "type": "function"
    },
    {
      "inputs": [
        {
          "internalType": "bytes32[2][256]",
          "name": "currentpub",
          "type": "bytes32[2][256]"
        },
        {
          "internalType": "bytes[256]",
          "name": "sig",
          "type": "bytes[256]"
        },
        {
          "internalType": "bytes32",
          "name": "nextPKH",
          "type": "bytes32"
        },
        {
          "internalType": "address",
          "name": "playerDatabaseAddress",
          "type": "address"
        }
      ],
      "name": "updatePlayerDatabaseAddressStepOne",
      "outputs": [],
      "stateMutability": "nonpayable",
      "type": "function"
    },
    {
      "inputs": [
        {
          "internalType": "bytes32[2][256]",
          "name": "currentpub",
          "type": "bytes32[2][256]"
        },
        {
          "internalType": "bytes[256]",
          "name": "sig",
          "type": "bytes[256]"
        },
        {
          "internalType": "bytes32",
          "name": "nextPKH",
          "type": "bytes32"
        },
        {
          "internalType": "address",
          "name": "playerDatabaseAddress",
          "type": "address"
        }
      ],
      "name": "updatePlayerDatabaseAddressStepTwo",
      "outputs": [],
      "stateMutability": "nonpayable",
      "type": "function"
    }
  ],
  "bytecode": "6080604052600b80546001600160a01b0319908116733b9467de1800bbb6ba6bd3d1cb7e7bebc0efa96f17909155600c805490911673b05d57719694a1c073707906b0e13effa59755041790553480156200005957600080fd5b5060405162002abb38038062002abb8339810160408190526200007c91620000dc565b600080546001600160a01b039485166001600160a01b03199182161790915560018054938516938216939093179092556002805491909316911617905562000126565b80516001600160a01b0381168114620000d757600080fd5b919050565b600080600060608486031215620000f257600080fd5b620000fd84620000bf565b92506200010d60208501620000bf565b91506200011d60408501620000bf565b90509250925092565b61298580620001366000396000f3fe608060405234801561001057600080fd5b506004361061010b5760003560e01c80636f1aab4a116100a2578063bc0e4ade11610071578063bc0e4ade14610252578063d0b6b6db14610265578063f59cc97814610278578063f785eb2a14610281578063facd743b146102a157600080fd5b80636f1aab4a1461022557806384e7e3d31461022d57806395a743e0146102365780639d4635201461024957600080fd5b80635920b407116100de5780635920b407146101925780635c9c3ed2146101a557806361803e75146101ff5780636b4674eb1461021257600080fd5b80631e9ad446146101105780633592696d14610132578063420230601461015257806356bf7b5714610167575b600080fd5b61011f670de0b6b3a764000081565b6040519081526020015b60405180910390f35b610145610140366004611ec0565b6102c4565b6040516101299190611efc565b610165610160366004611f92565b610342565b005b60005461017a906001600160a01b031681565b6040516001600160a01b039091168152602001610129565b6101656101a0366004612000565b61049b565b6101ea6101b3366004612062565b8151602081840181018051600482529282019482019490942091909352909152600090815260409020805460019091015460ff1682565b60408051928352901515602083015201610129565b61016561020d366004611f92565b610712565b610165610220366004611f92565b610983565b61011f604081565b61011f61012c81565b6101656102443660046120cc565b610ae1565b61011f600a5481565b610165610260366004611f92565b610ea2565b60025461017a906001600160a01b031681565b61011f61025881565b61029461028f3660046121f7565b611100565b6040516101299190612269565b6102b46102af366004612283565b6111b9565b6040519015158152602001610129565b600154604051633592696d60e01b81526060916001600160a01b031690633592696d906102f59085906004016122a0565b6000604051808303816000875af1158015610314573d6000803e3d6000fd5b505050506040513d6000823e601f3d908101601f1916820160405261033c9190810190612302565b92915050565b600081604051602001610355919061239b565b60408051601f19818403018152908290526000805463333f611160e01b8452919350916001600160a01b039091169063333f61119061039e9089908990899088906004016123e1565b6020604051808303816000875af11580156103bd573d6000803e3d6000fd5b505050506040513d601f19601f820116820180604052508101906103e191906124c1565b9050806104655760405162461bcd60e51b815260206004820152604160248201527f417574686f72697a6174696f6e206661696c656420666f722070726f706f736560448201527f6420757064617465206f66204d696e7420636f6e7472616374206164647265736064820152607360f81b608482015260a4015b60405180910390fd5b505033600090815260066020526040902080546001600160a01b0319166001600160a01b03929092169190911790556009555050565b6000836040516020016104ae91906124de565b60408051808303601f190181529082905280516020909101206000805463b9d57c5f60e01b845260048401839052919350916001600160a01b039091169063b9d57c5f90602401606060405180830381865afa158015610512573d6000803e3d6000fd5b505050506040513d601f19601f820116820180604052508101906105369190612515565b6001546040516334a88c5b60e01b8152336004820152919450600093508392506001600160a01b0316906334a88c5b906024016040805180830381865afa158015610585573d6000803e3d6000fd5b505050506040513d601f19601f820116820180604052508101906105a99190612550565b91509150818314806105ba57508083145b6106175760405162461bcd60e51b815260206004820152602860248201527f43616c6c65722773206f7261636c65206b657920696e64657820646f6573206e6044820152670dee840dac2e8c6d60c31b606482015260840161045c565b6000546040805160208082018c90528251808303909101815281830192839052634a89d52b60e01b9092526001600160a01b0390921691634a89d52b91610667918b918b918b91906044016123e1565b6020604051808303816000875af1158015610686573d6000803e3d6000fd5b505050506040513d601f19601f820116820180604052508101906106aa91906124c1565b6106f65760405162461bcd60e51b815260206004820152601b60248201527f4c616d706f7274206f7261636c6520636865636b206661696c65640000000000604482015260640161045c565b5050336000908152600860205260409020959095555050505050565b600081604051602001610725919061239b565b60408051808303601f19018152918152336000908152600760205220549091506001600160a01b038381169116146107b75760405162461bcd60e51b815260206004820152602f60248201527f506c61796572446174616261736520636f6e747261637420616464726573732060448201526e0eae0c8c2e8ca40dad2e6dac2e8c6d608b1b606482015260840161045c565b6000856040516020016107ca91906124de565b60405160208183030381529060405280519060200120905080600954036108035760405162461bcd60e51b815260040161045c90612574565b6000805460405163333f611160e01b81526001600160a01b039091169063333f61119061083a908a908a908a9089906004016123e1565b6020604051808303816000875af1158015610859573d6000803e3d6000fd5b505050506040513d601f19601f8201168201806040525081019061087d91906124c1565b9050806109095760405162461bcd60e51b815260206004820152604e60248201527f417574686f72697a6174696f6e206661696c6564206f6e20636f6e6669726d6160448201527f74696f6e206f6620506c61796572446174616261736520636f6e74726163742060648201526d616464726573732075706461746560901b608482015260a40161045c565b600180546001600160a01b0319166001600160a01b0386169081179091556040519081527f6c200b5398af2592ba382dbf2a45376bbb22a24cab265709486fa967a5b4203d9060200160405180910390a1505033600090815260076020526040812080546001600160a01b03191690556009555050505050565b600081604051602001610996919061239b565b60408051601f19818403018152908290526000805463333f611160e01b8452919350916001600160a01b039091169063333f6111906109df9089908990899088906004016123e1565b6020604051808303816000875af11580156109fe573d6000803e3d6000fd5b505050506040513d601f19601f82011682018060405250810190610a2291906124c1565b905080610aab5760405162461bcd60e51b815260206004820152604b60248201527f417574686f72697a6174696f6e206661696c656420666f722070726f706f736560448201527f6420757064617465206f6620506c61796572446174616261736520636f6e747260648201526a616374206164647265737360a81b608482015260a40161045c565b505033600090815260076020526040902080546001600160a01b0319166001600160a01b03929092169190911790556009555050565b610aea826111b9565b610b425760405162461bcd60e51b8152602060048201526024808201527f43616c6c6572206973206e6f74206120726567697374657265642076616c696460448201526330ba37b960e11b606482015260840161045c565b606060005b8451811015610c3a5781858281518110610b6357610b636125db565b602002602001015160000151604051602001610b809291906125f1565b604051602081830303815290604052915060005b858281518110610ba657610ba66125db565b60200260200101516020015151811015610c275782868381518110610bcd57610bcd6125db565b6020026020010151602001518281518110610bea57610bea6125db565b6020026020010151604051602001610c039291906125f1565b60405160208183030381529060405292508080610c1f90612636565b915050610b94565b5080610c3281612636565b915050610b47565b506000805b8551811015610e39576000868281518110610c5c57610c5c6125db565b60200260200101516020015151905060408184610c79919061264f565b1115610c855750610e39565b610c8f818461264f565b9250606060005b888481518110610ca857610ca86125db565b60200260200101516020015151811015610d295781898581518110610ccf57610ccf6125db565b6020026020010151602001518281518110610cec57610cec6125db565b6020026020010151604051602001610d059291906125f1565b60405160208183030381529060405291508080610d2190612636565b915050610c96565b50805160208201208851899085908110610d4557610d456125db565b602002602001015160200151600560008381526020019081526020016000209080519060200190610d77929190611c6b565b50610d9f898581518110610d8d57610d8d6125db565b60200260200101516000015189611228565b604051806040016040528082815260200188151581525060048a8681518110610dca57610dca6125db565b602002602001015160000151604051610de39190612662565b90815260408051602092819003830190206001600160a01b038c16600090815290835220825181559101516001909101805460ff191691151591909117905550829150610e31905081612636565b915050610c3f565b50600a544290600090610e4c908361267e565b90506000610e5c61012c846126a7565b610e689061012c61267e565b905061012c8210158015610e7d575061012c81105b15610e9857610e8a611317565b610e94818461267e565b600a555b5050505050505050565b600081604051602001610eb5919061239b565b60408051808303601f19018152918152336000908152600660205220549091506001600160a01b03838116911614610f3d5760405162461bcd60e51b815260206004820152602560248201527f4d696e7420636f6e7472616374206164647265737320757064617465206d69736044820152640dac2e8c6d60db1b606482015260840161045c565b600085604051602001610f5091906124de565b6040516020818303038152906040528051906020012090508060095403610f895760405162461bcd60e51b815260040161045c90612574565b6000805460405163333f611160e01b81526001600160a01b039091169063333f611190610fc0908a908a908a9089906004016123e1565b6020604051808303816000875af1158015610fdf573d6000803e3d6000fd5b505050506040513d601f19601f8201168201806040525081019061100391906124c1565b9050806110865760405162461bcd60e51b8152602060048201526044602482018190527f417574686f72697a6174696f6e206661696c6564206f6e20636f6e6669726d61908201527f74696f6e206f66204d696e7420636f6e747261637420616464726573732075706064820152636461746560e01b608482015260a40161045c565b600280546001600160a01b0319166001600160a01b0386169081179091556040519081527f7814765089fa4d113b377eb0859fd345095a106617367857878087a128595ec49060200160405180910390a1505033600090815260066020526040812080546001600160a01b03191690556009555050505050565b6005602052816000526040600020818154811061111c57600080fd5b90600052602060002001600091509150508054611138906126bb565b80601f0160208091040260200160405190810160405280929190818152602001828054611164906126bb565b80156111b15780601f10611186576101008083540402835291602001916111b1565b820191906000526020600020905b81548152906001019060200180831161119457829003601f168201915b505050505081565b60015460405163facd743b60e01b81526001600160a01b038381166004830152600092169063facd743b90602401602060405180830381865afa158015611204573d6000803e3d6000fd5b505050506040513d601f19601f8201168201806040525081019061033c91906124c1565b6000805b60038460405161123c9190612662565b908152604051908190036020019020548110156112c157826001600160a01b031660038560405161126d9190612662565b9081526020016040518091039020828154811061128c5761128c6125db565b6000918252602090912001546001600160a01b0316036112af57600191506112c1565b806112b981612636565b91505061122c565b5080611312576003836040516112d79190612662565b90815260405160209181900382019020805460018101825560009182529190200180546001600160a01b0319166001600160a01b0384161790555b505050565b60015460408051633dc0ff7d60e01b815290516000926001600160a01b031691633dc0ff7d91600480830192869291908290030181865afa158015611360573d6000803e3d6000fd5b505050506040513d6000823e601f3d908101601f1916820160405261138891908101906126f5565b905060005b81518110156113e55760008282815181106113aa576113aa6125db565b6020026020010151905060006113bf826113f1565b905080156113d0576113d0816116ab565b505080806113dd90612636565b91505061138d565b506113ee611a7e565b50565b6000806003836040516114049190612662565b908152604080519182900360209081018320805480830285018301909352828452919083018282801561146057602002820191906000526020600020905b81546001600160a01b03168152600190910190602001808311611442575b50505050509050600060648251603c61147991906127e1565b61148391906127f8565b8251909150600090819081906001600160401b038111156114a6576114a6611d28565b6040519080825280602002602001820160405280156114eb57816020015b60408051808201909152600080825260208201528152602001906001900390816114c45790505b50905060005b855181101561168b57600060048960405161150c9190612662565b9081526020016040518091039020600088848151811061152e5761152e6125db565b60200260200101516001600160a01b03166001600160a01b031681526020019081526020016000206000015490506000805b84518110156115d6578285828151811061157c5761157c6125db565b602002602001015160000151036115c45784818151811061159f5761159f6125db565b602002602001015160200180518091906115b890612636565b905250600191506115d6565b806115ce81612636565b915050611560565b50806116105760405180604001604052808381526020016001815250848481518110611604576116046125db565b60200260200101819052505b84848481518110611623576116236125db565b602002602001015160200151111561167657838381518110611647576116476125db565b6020026020010151602001519450838381518110611667576116676125db565b60200260200101516000015195505b5050808061168390612636565b9150506114f1565b5083821061169e57509095945050505050565b5060009695505050505050565b60408051600480825260a08201909252600091816020015b60608152602001906001900390816116c3579050509050604051806040016040528060088152602001676c65676f706f776160c01b8152508160008151811061170e5761170e6125db565b602002602001018190525060405180604001604052806007815260200166506c617965723160c81b8152508160018151811061174c5761174c6125db565b602002602001018190525060405180604001604052806007815260200166283630bcb2b91960c91b8152508160028151811061178a5761178a6125db565b602002602001018190525060405180604001604052806007815260200166506c617965723360c81b815250816003815181106117c8576117c86125db565b602002602001018190525060006117de826102c4565b805190915060006117ed611c31565b90506000600160009054906101000a90046001600160a01b03166001600160a01b031663451b63736040518163ffffffff1660e01b8152600401602060405180830381865afa158015611844573d6000803e3d6000fd5b505050506040513d601f19601f82011682018060405250810190611868919061280c565b90506000612710611879838261267e565b61188390856127e1565b61188d91906127f8565b905060008461271061189f85876127e1565b6118a991906127f8565b6118b391906127e1565b905060005b865181101561199c5760006001600160a01b03168782815181106118de576118de6125db565b60200260200101516001600160a01b03161461198a5760025487516001600160a01b039091169063f0dda65c9089908490811061191d5761191d6125db565b6020026020010151856040518363ffffffff1660e01b81526004016119579291906001600160a01b03929092168252602082015260400190565b600060405180830381600087803b15801561197157600080fd5b505af1158015611985573d6000803e3d6000fd5b505050505b8061199481612636565b9150506118b8565b5060015460408051631d22f0ab60e11b815290516000926001600160a01b031691633a45e1569160048083019260209291908290030181865afa1580156119e7573d6000803e3d6000fd5b505050506040513d601f19601f82011682018060405250810190611a0b9190612825565b600254604051633c37699760e21b81526001600160a01b0380841660048301526024820186905292935091169063f0dda65c90604401600060405180830381600087803b158015611a5b57600080fd5b505af1158015611a6f573d6000803e3d6000fd5b50505050505050505050505050565b60015460408051633dc0ff7d60e01b815290516000926001600160a01b031691633dc0ff7d91600480830192869291908290030181865afa158015611ac7573d6000803e3d6000fd5b505050506040513d6000823e601f3d908101601f19168201604052611aef91908101906126f5565b905060005b8151811015611c2d576000828281518110611b1157611b116125db565b602002602001015190506000600382604051611b2d9190612662565b9081526040805191829003602090810183208054808302850183019093528284529190830182828015611b8957602002820191906000526020600020905b81546001600160a01b03168152600190910190602001808311611b6b575b5050505050905060005b8151811015611c17576000600484604051611bae9190612662565b90815260200160405180910390206000848481518110611bd057611bd06125db565b6020908102919091018101516001600160a01b03168252810191909152604001600020600101805460ff191691151591909117905580611c0f81612636565b915050611b93565b5050508080611c2590612636565b915050611af4565b5050565b600080600a5442611c42919061267e565b9050610258811115611c5357506102585b611c65670de0b6b3a7640000826127e1565b91505090565b828054828255906000526020600020908101928215611cb1579160200282015b82811115611cb15782518290611ca19082612890565b5091602001919060010190611c8b565b50611cbd929150611cc1565b5090565b80821115611cbd576000611cd58282611cde565b50600101611cc1565b508054611cea906126bb565b6000825580601f10611cfa575050565b601f0160209004906000526020600020908101906113ee91905b80821115611cbd5760008155600101611d14565b634e487b7160e01b600052604160045260246000fd5b604080519081016001600160401b0381118282101715611d6057611d60611d28565b60405290565b604051601f8201601f191681016001600160401b0381118282101715611d8e57611d8e611d28565b604052919050565b60006001600160401b03821115611daf57611daf611d28565b5060051b60200190565b60006001600160401b03821115611dd257611dd2611d28565b50601f01601f191660200190565b600082601f830112611df157600080fd5b8135611e04611dff82611db9565b611d66565b818152846020838601011115611e1957600080fd5b816020850160208301376000918101602001919091529392505050565b600082601f830112611e4757600080fd5b81356020611e57611dff83611d96565b82815260059290921b84018101918181019086841115611e7657600080fd5b8286015b84811015611eb55780356001600160401b03811115611e995760008081fd5b611ea78986838b0101611de0565b845250918301918301611e7a565b509695505050505050565b600060208284031215611ed257600080fd5b81356001600160401b03811115611ee857600080fd5b611ef484828501611e36565b949350505050565b6020808252825182820181905260009190848201906040850190845b81811015611f3d5783516001600160a01b031683529284019291840191600101611f18565b50909695505050505050565b80614000810183101561033c57600080fd5b80612000810183101561033c57600080fd5b6001600160a01b03811681146113ee57600080fd5b8035611f8d81611f6d565b919050565b6000806000806140608587031215611fa957600080fd5b611fb38686611f49565b93506140008501356001600160401b03811115611fcf57600080fd5b611fdb87828801611f5b565b9350506140208501359150614040850135611ff581611f6d565b939692955090935050565b600080600080614060858703121561201757600080fd5b843593506120288660208701611f49565b92506140208501356001600160401b0381111561204457600080fd5b61205087828801611f5b565b94979396509394614040013593505050565b6000806040838503121561207557600080fd5b82356001600160401b0381111561208b57600080fd5b61209785828601611de0565b92505060208301356120a881611f6d565b809150509250929050565b80151581146113ee57600080fd5b8035611f8d816120b3565b6000806000606084860312156120e157600080fd5b83356001600160401b03808211156120f857600080fd5b818601915086601f83011261210c57600080fd5b8135602061211c611dff83611d96565b82815260059290921b8401810191818101908a84111561213b57600080fd5b8286015b848110156121cc5780358681111561215657600080fd5b87016040818e03601f1901121561216d5760008081fd5b612175611d3e565b85820135888111156121875760008081fd5b6121958f8883860101611de0565b8252506040820135888111156121ab5760008081fd5b6121b98f8883860101611e36565b828801525084525091830191830161213f565b5097506121dc9050888201611f82565b9550505050506121ee604085016120c1565b90509250925092565b6000806040838503121561220a57600080fd5b50508035926020909101359150565b60005b8381101561223457818101518382015260200161221c565b50506000910152565b60008151808452612255816020860160208601612219565b601f01601f19169290920160200192915050565b60208152600061227c602083018461223d565b9392505050565b60006020828403121561229557600080fd5b813561227c81611f6d565b6000602080830181845280855180835260408601915060408160051b870101925083870160005b828110156122f557603f198886030184526122e385835161223d565b945092850192908501906001016122c7565b5092979650505050505050565b6000602080838503121561231557600080fd5b82516001600160401b0381111561232b57600080fd5b8301601f8101851361233c57600080fd5b805161234a611dff82611d96565b81815260059190911b8201830190838101908783111561236957600080fd5b928401925b8284101561239057835161238181611f6d565b8252928401929084019061236e565b979650505050505050565b60609190911b6bffffffffffffffffffffffff1916815260140190565b81835281816020850137506000828201602090810191909152601f909101601f19169091010190565b60006140608281018388845b61010081101561240e576040808385379283019291909101906001016123ed565b50505061400084019190915261606083018660005b6101008110156124995785830361405f190184528135368a9003601e1901811261244c57600080fd5b890160208181019135906001600160401b0382111561246a57600080fd5b81360383131561247957600080fd5b6124848683856123b8565b96810196955093909301925050600101612423565b5050856140208501528381036140408501526124b5818661223d565b98975050505050505050565b6000602082840312156124d357600080fd5b815161227c816120b3565b60008183825b610100811015612505576040808385379283019291909101906001016124e4565b5050506140008201905092915050565b60008060006060848603121561252a57600080fd5b83516003811061253957600080fd5b602085015160409095015190969495509392505050565b6000806040838503121561256357600080fd5b505080516020909101519092909150565b60208082526041908201527f53616d6520504b48207573656420666f7220626f74682073746570733b20757360408201527f652061207365706172617465206b657920666f7220636f6e6669726d6174696f6060820152603760f91b608082015260a00190565b634e487b7160e01b600052603260045260246000fd5b60008351612603818460208801612219565b835190830190612617818360208801612219565b01949350505050565b634e487b7160e01b600052601160045260246000fd5b60006001820161264857612648612620565b5060010190565b8082018082111561033c5761033c612620565b60008251612674818460208701612219565b9190910192915050565b8181038181111561033c5761033c612620565b634e487b7160e01b600052601260045260246000fd5b6000826126b6576126b6612691565b500690565b600181811c908216806126cf57607f821691505b6020821081036126ef57634e487b7160e01b600052602260045260246000fd5b50919050565b6000602080838503121561270857600080fd5b82516001600160401b038082111561271f57600080fd5b818501915085601f83011261273357600080fd5b8151612741611dff82611d96565b81815260059190911b8301840190848101908883111561276057600080fd5b8585015b838110156127d45780518581111561277c5760008081fd5b8601603f81018b1361278e5760008081fd5b8781015160406127a0611dff83611db9565b8281528d828486010111156127b55760008081fd5b6127c4838c8301848701612219565b8652505050918601918601612764565b5098975050505050505050565b808202811582820484141761033c5761033c612620565b60008261280757612807612691565b500490565b60006020828403121561281e57600080fd5b5051919050565b60006020828403121561283757600080fd5b815161227c81611f6d565b601f82111561131257600081815260208120601f850160051c810160208610156128695750805b601f850160051c820191505b8181101561288857828155600101612875565b505050505050565b81516001600160401b038111156128a9576128a9611d28565b6128bd816128b784546126bb565b84612842565b602080601f8311600181146128f257600084156128da5750858301515b600019600386901b1c1916600185901b178555612888565b600085815260208120601f198616915b8281101561292157888601518255948401946001909101908401612902565b508582101561293f5787850151600019600388901b60f8161c191681555b5050505050600190811b0190555056fea26469706673582212206a602f1e76fb58647a0c90af6d5f9f6f826fcf766b9f0770b988053f896ca20464736f6c63430008140033",
  "bytecodeSha1": "765ee0821d85ee1223abaf001b5e7994bbcebc6d",
  "compiler": {
    "evm_version": "istanbul",
    "optimizer": {
      "enabled": true,
      "runs": 200
    },
    "version": "0.8.20+commit.a1b79de6"
  },
  "contractName": "GameValidator",
  "language": "Solidity",
  "natspec": {
    "kind": "dev",
    "methods": {},
    "version": 1
  },
  "opcodes": "PUSH1 0x80 PUSH1 0x40 MSTORE CALLVALUE DUP1 ISZERO PUSH2 0x10 JUMPI PUSH1 0x0 DUP1 REVERT JUMPDEST POP PUSH1 0x4 CALLDATASIZE LT PUSH2 0x10B JUMPI PUSH1 0x0 CALLDATALOAD PUSH1 0xE0 SHR DUP1 PUSH4 0x6F1AAB4A GT PUSH2 0xA2 JUMPI DUP1 PUSH4 0xBC0E4ADE GT PUSH2 0x71 JUMPI DUP1 PUSH4 0xBC0E4ADE EQ PUSH2 0x252 JUMPI DUP1 PUSH4 0xD0B6B6DB EQ PUSH2 0x265 JUMPI DUP1 PUSH4 0xF59CC978 EQ PUSH2 0x278 JUMPI DUP1 PUSH4 0xF785EB2A EQ PUSH2 0x281 JUMPI DUP1 PUSH4 0xFACD743B EQ PUSH2 0x2A1 JUMPI PUSH1 0x0 DUP1 REVERT JUMPDEST DUP1 PUSH4 0x6F1AAB4A EQ PUSH2 0x225 JUMPI DUP1 PUSH4 0x84E7E3D3 EQ PUSH2 0x22D JUMPI DUP1 PUSH4 0x95A743E0 EQ PUSH2 0x236 JUMPI DUP1 PUSH4 0x9D463520 EQ PUSH2 0x249 JUMPI PUSH1 0x0 DUP1 REVERT JUMPDEST DUP1 PUSH4 0x5920B407 GT PUSH2 0xDE JUMPI DUP1 PUSH4 0x5920B407 EQ PUSH2 0x192 JUMPI DUP1 PUSH4 0x5C9C3ED2 EQ PUSH2 0x1A5 JUMPI DUP1 PUSH4 0x61803E75 EQ PUSH2 0x1FF JUMPI DUP1 PUSH4 0x6B4674EB EQ PUSH2 0x212 JUMPI PUSH1 0x0 DUP1 REVERT JUMPDEST DUP1 PUSH4 0x1E9AD446 EQ PUSH2 0x110 JUMPI DUP1 PUSH4 0x3592696D EQ PUSH2 0x132 JUMPI DUP1 PUSH4 0x42023060 EQ PUSH2 0x152 JUMPI DUP1 PUSH4 0x56BF7B57 EQ PUSH2 0x167 JUMPI JUMPDEST PUSH1 0x0 DUP1 REVERT JUMPDEST PUSH2 0x11F PUSH8 0xDE0B6B3A7640000 DUP2 JUMP JUMPDEST PUSH1 0x40 MLOAD SWAP1 DUP2 MSTORE PUSH1 0x20 ADD JUMPDEST PUSH1 0x40 MLOAD DUP1 SWAP2 SUB SWAP1 RETURN JUMPDEST PUSH2 0x145 PUSH2 0x140 CALLDATASIZE PUSH1 0x4 PUSH2 0x1EC0 JUMP JUMPDEST PUSH2 0x2C4 JUMP JUMPDEST PUSH1 0x40 MLOAD PUSH2 0x129 SWAP2 SWAP1 PUSH2 0x1EFC JUMP JUMPDEST PUSH2 0x165 PUSH2 0x160 CALLDATASIZE PUSH1 0x4 PUSH2 0x1F92 JUMP JUMPDEST PUSH2 0x342 JUMP JUMPDEST STOP JUMPDEST PUSH1 0x0 SLOAD PUSH2 0x17A SWAP1 PUSH1 0x1 PUSH1 0x1 PUSH1 0xA0 SHL SUB AND DUP2 JUMP JUMPDEST PUSH1 0x40 MLOAD PUSH1 0x1 PUSH1 0x1 PUSH1 0xA0 SHL SUB SWAP1 SWAP2 AND DUP2 MSTORE PUSH1 0x20 ADD PUSH2 0x129 JUMP JUMPDEST PUSH2 0x165 PUSH2 0x1A0 CALLDATASIZE PUSH1 0x4 PUSH2 0x2000 JUMP JUMPDEST PUSH2 0x49B JUMP JUMPDEST PUSH2 0x1EA PUSH2 0x1B3 CALLDATASIZE PUSH1 0x4 PUSH2 0x2062 JUMP JUMPDEST DUP2 MLOAD PUSH1 0x20 DUP2 DUP5 ADD DUP2 ADD DUP1 MLOAD PUSH1 0x4 DUP3 MSTORE SWAP3 DUP3 ADD SWAP5 DUP3 ADD SWAP5 SWAP1 SWAP5 KECCAK256 SWAP2 SWAP1 SWAP4 MSTORE SWAP1 SWAP2 MSTORE PUSH1 0x0 SWAP1 DUP2 MSTORE PUSH1 0x40 SWAP1 KECCAK256 DUP1 SLOAD PUSH1 0x1 SWAP1 SWAP2 ADD SLOAD PUSH1 0xFF AND DUP3 JUMP JUMPDEST PUSH1 0x40 DUP1 MLOAD SWAP3 DUP4 MSTORE SWAP1 ISZERO ISZERO PUSH1 0x20 DUP4 ADD MSTORE ADD PUSH2 0x129 JUMP JUMPDEST PUSH2 0x165 PUSH2 0x20D CALLDATASIZE PUSH1 0x4 PUSH2 0x1F92 JUMP JUMPDEST PUSH2 0x712 JUMP JUMPDEST PUSH2 0x165 PUSH2 0x220 CALLDATASIZE PUSH1 0x4 PUSH2 0x1F92 JUMP JUMPDEST PUSH2 0x983 JUMP JUMPDEST PUSH2 0x11F PUSH1 0x40 DUP2 JUMP JUMPDEST PUSH2 0x11F PUSH2 0x12C DUP2 JUMP JUMPDEST PUSH2 0x165 PUSH2 0x244 CALLDATASIZE PUSH1 0x4 PUSH2 0x20CC JUMP JUMPDEST PUSH2 0xAE1 JUMP JUMPDEST PUSH2 0x11F PUSH1 0xA SLOAD DUP2 JUMP JUMPDEST PUSH2 0x165 PUSH2 0x260 CALLDATASIZE PUSH1 0x4 PUSH2 0x1F92 JUMP JUMPDEST PUSH2 0xEA2 JUMP JUMPDEST PUSH1 0x2 SLOAD PUSH2 0x17A SWAP1 PUSH1 0x1 PUSH1 0x1 PUSH1 0xA0 SHL SUB AND DUP2 JUMP JUMPDEST PUSH2 0x11F PUSH2 0x258 DUP2 JUMP JUMPDEST PUSH2 0x294 PUSH2 0x28F CALLDATASIZE PUSH1 0x4 PUSH2 0x21F7 JUMP JUMPDEST PUSH2 0x1100 JUMP JUMPDEST PUSH1 0x40 MLOAD PUSH2 0x129 SWAP2 SWAP1 PUSH2 0x2269 JUMP JUMPDEST PUSH2 0x2B4 PUSH2 0x2AF CALLDATASIZE PUSH1 0x4 PUSH2 0x2283 JUMP JUMPDEST PUSH2 0x11B9 JUMP JUMPDEST PUSH1 0x40 MLOAD SWAP1 ISZERO ISZERO DUP2 MSTORE PUSH1 0x20 ADD PUSH2 0x129 JUMP JUMPDEST PUSH1 0x1 SLOAD PUSH1 0x40 MLOAD PUSH4 0x3592696D PUSH1 0xE0 SHL DUP2 MSTORE PUSH1 0x60 SWAP2 PUSH1 0x1 PUSH1 0x1 PUSH1 0xA0 SHL SUB AND SWAP1 PUSH4 0x3592696D SWAP1 PUSH2 0x2F5 SWAP1 DUP6 SWAP1 PUSH1 0x4 ADD PUSH2 0x22A0 JUMP JUMPDEST PUSH1 0x0 PUSH1 0x40 MLOAD DUP1 DUP4 SUB DUP2 PUSH1 0x0 DUP8 GAS CALL ISZERO DUP1 ISZERO PUSH2 0x314 JUMPI RETURNDATASIZE PUSH1 0x0 DUP1 RETURNDATACOPY RETURNDATASIZE PUSH1 0x0 REVERT JUMPDEST POP POP POP POP PUSH1 0x40 MLOAD RETURNDATASIZE PUSH1 0x0 DUP3 RETURNDATACOPY PUSH1 0x1F RETURNDATASIZE SWAP1 DUP2 ADD PUSH1 0x1F NOT AND DUP3 ADD PUSH1 0x40 MSTORE PUSH2 0x33C SWAP2 SWAP1 DUP2 ADD SWAP1 PUSH2 0x2302 JUMP JUMPDEST SWAP3 SWAP2 POP POP JUMP JUMPDEST PUSH1 0x0 DUP2 PUSH1 0x40 MLOAD PUSH1 0x20 ADD PUSH2 0x355 SWAP2 SWAP1 PUSH2 0x239B JUMP JUMPDEST PUSH1 0x40 DUP1 MLOAD PUSH1 0x1F NOT DUP2 DUP5 SUB ADD DUP2 MSTORE SWAP1 DUP3 SWAP1 MSTORE PUSH1 0x0 DUP1 SLOAD PUSH4 0x333F6111 PUSH1 0xE0 SHL DUP5 MSTORE SWAP2 SWAP4 POP SWAP2 PUSH1 0x1 PUSH1 0x1 PUSH1 0xA0 SHL SUB SWAP1 SWAP2 AND SWAP1 PUSH4 0x333F6111 SWAP1 PUSH2 0x39E SWAP1 DUP10 SWAP1 DUP10 SWAP1 DUP10 SWAP1 DUP9 SWAP1 PUSH1 0x4 ADD PUSH2 0x23E1 JUMP JUMPDEST PUSH1 0x20 PUSH1 0x40 MLOAD DUP1 DUP4 SUB DUP2 PUSH1 0x0 DUP8 GAS CALL ISZERO DUP1 ISZERO PUSH2 0x3BD JUMPI RETURNDATASIZE PUSH1 0x0 DUP1 RETURNDATACOPY RETURNDATASIZE PUSH1 0x0 REVERT JUMPDEST POP POP POP POP PUSH1 0x40 MLOAD RETURNDATASIZE PUSH1 0x1F NOT PUSH1 0x1F DUP3 ADD AND DUP3 ADD DUP1 PUSH1 0x40 MSTORE POP DUP2 ADD SWAP1 PUSH2 0x3E1 SWAP2 SWAP1 PUSH2 0x24C1 JUMP JUMPDEST SWAP1 POP DUP1 PUSH2 0x465 JUMPI PUSH1 0x40 MLOAD PUSH3 0x461BCD PUSH1 0xE5 SHL DUP2 MSTORE PUSH1 0x20 PUSH1 0x4 DUP3 ADD MSTORE PUSH1 0x41 PUSH1 0x24 DUP3 ADD MSTORE PUSH32 0x417574686F72697A6174696F6E206661696C656420666F722070726F706F7365 PUSH1 0x44 DUP3 ADD MSTORE PUSH32 0x6420757064617465206F66204D696E7420636F6E747261637420616464726573 PUSH1 0x64 DUP3 ADD MSTORE PUSH1 0x73 PUSH1 0xF8 SHL PUSH1 0x84 DUP3 ADD MSTORE PUSH1 0xA4 ADD JUMPDEST PUSH1 0x40 MLOAD DUP1 SWAP2 SUB SWAP1 REVERT JUMPDEST POP POP CALLER PUSH1 0x0 SWAP1 DUP2 MSTORE PUSH1 0x6 PUSH1 0x20 MSTORE PUSH1 0x40 SWAP1 KECCAK256 DUP1 SLOAD PUSH1 0x1 PUSH1 0x1 PUSH1 0xA0 SHL SUB NOT AND PUSH1 0x1 PUSH1 0x1 PUSH1 0xA0 SHL SUB SWAP3 SWAP1 SWAP3 AND SWAP2 SWAP1 SWAP2 OR SWAP1 SSTORE PUSH1 0x9 SSTORE POP POP JUMP JUMPDEST PUSH1 0x0 DUP4 PUSH1 0x40 MLOAD PUSH1 0x20 ADD PUSH2 0x4AE SWAP2 SWAP1 PUSH2 0x24DE JUMP JUMPDEST PUSH1 0x40 DUP1 MLOAD DUP1 DUP4 SUB PUSH1 0x1F NOT ADD DUP2 MSTORE SWAP1 DUP3 SWAP1 MSTORE DUP1 MLOAD PUSH1 0x20 SWAP1 SWAP2 ADD KECCAK256 PUSH1 0x0 DUP1 SLOAD PUSH4 0xB9D57C5F PUSH1 0xE0 SHL DUP5 MSTORE PUSH1 0x4 DUP5 ADD DUP4 SWAP1 MSTORE SWAP2 SWAP4 POP SWAP2 PUSH1 0x1 PUSH1 0x1 PUSH1 0xA0 SHL SUB SWAP1 SWAP2 AND SWAP1 PUSH4 0xB9D57C5F SWAP1 PUSH1 0x24 ADD PUSH1 0x60 PUSH1 0x40 MLOAD DUP1 DUP4 SUB DUP2 DUP7 GAS STATICCALL ISZERO DUP1 ISZERO PUSH2 0x512 JUMPI RETURNDATASIZE PUSH1 0x0 DUP1 RETURNDATACOPY RETURNDATASIZE PUSH1 0x0 REVERT JUMPDEST POP POP POP POP PUSH1 0x40 MLOAD RETURNDATASIZE PUSH1 0x1F NOT PUSH1 0x1F DUP3 ADD AND DUP3 ADD DUP1 PUSH1 0x40 MSTORE POP DUP2 ADD SWAP1 PUSH2 0x536 SWAP2 SWAP1 PUSH2 0x2515 JUMP JUMPDEST PUSH1 0x1 SLOAD PUSH1 0x40 MLOAD PUSH4 0x34A88C5B PUSH1 0xE0 SHL DUP2 MSTORE CALLER PUSH1 0x4 DUP3 ADD MSTORE SWAP2 SWAP5 POP PUSH1 0x0 SWAP4 POP DUP4 SWAP3 POP PUSH1 0x1 PUSH1 0x1 PUSH1 0xA0 SHL SUB AND SWAP1 PUSH4 0x34A88C5B SWAP1 PUSH1 0x24 ADD PUSH1 0x40 DUP1 MLOAD DUP1 DUP4 SUB DUP2 DUP7 GAS STATICCALL ISZERO DUP1 ISZERO PUSH2 0x585 JUMPI RETURNDATASIZE PUSH1 0x0 DUP1 RETURNDATACOPY RETURNDATASIZE PUSH1 0x0 REVERT JUMPDEST POP POP POP POP PUSH1 0x40 MLOAD RETURNDATASIZE PUSH1 0x1F NOT PUSH1 0x1F DUP3 ADD AND DUP3 ADD DUP1 PUSH1 0x40 MSTORE POP DUP2 ADD SWAP1 PUSH2 0x5A9 SWAP2 SWAP1 PUSH2 0x2550 JUMP JUMPDEST SWAP2 POP SWAP2 POP DUP2 DUP4 EQ DUP1 PUSH2 0x5BA JUMPI POP DUP1 DUP4 EQ JUMPDEST PUSH2 0x617 JUMPI PUSH1 0x40 MLOAD PUSH3 0x461BCD PUSH1 0xE5 SHL DUP2 MSTORE PUSH1 0x20 PUSH1 0x4 DUP3 ADD MSTORE PUSH1 0x28 PUSH1 0x24 DUP3 ADD MSTORE PUSH32 0x43616C6C65722773206F7261636C65206B657920696E64657820646F6573206E PUSH1 0x44 DUP3 ADD MSTORE PUSH8 0xDEE840DAC2E8C6D PUSH1 0xC3 SHL PUSH1 0x64 DUP3 ADD MSTORE PUSH1 0x84 ADD PUSH2 0x45C JUMP JUMPDEST PUSH1 0x0 SLOAD PUSH1 0x40 DUP1 MLOAD PUSH1 0x20 DUP1 DUP3 ADD DUP13 SWAP1 MSTORE DUP3 MLOAD DUP1 DUP4 SUB SWAP1 SWAP2 ADD DUP2 MSTORE DUP2 DUP4 ADD SWAP3 DUP4 SWAP1 MSTORE PUSH4 0x4A89D52B PUSH1 0xE0 SHL SWAP1 SWAP3 MSTORE PUSH1 0x1 PUSH1 0x1 PUSH1 0xA0 SHL SUB SWAP1 SWAP3 AND SWAP2 PUSH4 0x4A89D52B SWAP2 PUSH2 0x667 SWAP2 DUP12 SWAP2 DUP12 SWAP2 DUP12 SWAP2 SWAP1 PUSH1 0x44 ADD PUSH2 0x23E1 JUMP JUMPDEST PUSH1 0x20 PUSH1 0x40 MLOAD DUP1 DUP4 SUB DUP2 PUSH1 0x0 DUP8 GAS CALL ISZERO DUP1 ISZERO PUSH2 0x686 JUMPI RETURNDATASIZE PUSH1 0x0 DUP1 RETURNDATACOPY RETURNDATASIZE PUSH1 0x0 REVERT JUMPDEST POP POP POP POP PUSH1 0x40 MLOAD RETURNDATASIZE PUSH1 0x1F NOT PUSH1 0x1F DUP3 ADD AND DUP3 ADD DUP1 PUSH1 0x40 MSTORE POP DUP2 ADD SWAP1 PUSH2 0x6AA SWAP2 SWAP1 PUSH2 0x24C1 JUMP JUMPDEST PUSH2 0x6F6 JUMPI PUSH1 0x40 MLOAD PUSH3 0x461BCD PUSH1 0xE5 SHL DUP2 MSTORE PUSH1 0x20 PUSH1 0x4 DUP3 ADD MSTORE PUSH1 0x1B PUSH1 0x24 DUP3 ADD MSTORE PUSH32 0x4C616D706F7274206F7261636C6520636865636B206661696C65640000000000 PUSH1 0x44 DUP3 ADD MSTORE PUSH1 0x64 ADD PUSH2 0x45C JUMP JUMPDEST POP POP CALLER PUSH1 0x0 SWAP1 DUP2 MSTORE PUSH1 0x8 PUSH1 0x20 MSTORE PUSH1 0x40 SWAP1 KECCAK256 SWAP6 SWAP1 SWAP6 SSTORE POP POP POP POP POP JUMP JUMPDEST PUSH1 0x0 DUP2 PUSH1 0x40 MLOAD PUSH1 0x20 ADD PUSH2 0x725 SWAP2 SWAP1 PUSH2 0x239B JUMP JUMPDEST PUSH1 0x40 DUP1 MLOAD DUP1 DUP4 SUB PUSH1 0x1F NOT ADD DUP2 MSTORE SWAP2 DUP2 MSTORE CALLER PUSH1 0x0 SWAP1 DUP2 MSTORE PUSH1 0x7 PUSH1 0x20 MSTORE KECCAK256 SLOAD SWAP1 SWAP2 POP PUSH1 0x1 PUSH1 0x1 PUSH1 0xA0 SHL SUB DUP4 DUP2 AND SWAP2 AND EQ PUSH2 0x7B7 JUMPI PUSH1 0x40 MLOAD PUSH3 0x461BCD PUSH1 0xE5 SHL DUP2 MSTORE PUSH1 0x20 PUSH1 0x4 DUP3 ADD MSTORE PUSH1 0x2F PUSH1 0x24 DUP3 ADD MSTORE PUSH32 0x506C61796572446174616261736520636F6E7472616374206164647265737320 PUSH1 0x44 DUP3 ADD MSTORE PUSH15 0xEAE0C8C2E8CA40DAD2E6DAC2E8C6D PUSH1 0x8B SHL PUSH1 0x64 DUP3 ADD MSTORE PUSH1 0x84 ADD PUSH2 0x45C JUMP JUMPDEST PUSH1 0x0 DUP6 PUSH1 0x40 MLOAD PUSH1 0x20 ADD PUSH2 0x7CA SWAP2 SWAP1 PUSH2 0x24DE JUMP JUMPDEST PUSH1 0x40 MLOAD PUSH1 0x20 DUP2 DUP4 SUB SUB DUP2 MSTORE SWAP1 PUSH1 0x40 MSTORE DUP1 MLOAD SWAP1 PUSH1 0x20 ADD KECCAK256 SWAP1 POP DUP1 PUSH1 0x9 SLOAD SUB PUSH2 0x803 JUMPI PUSH1 0x40 MLOAD PUSH3 0x461BCD PUSH1 0xE5 SHL DUP2 MSTORE PUSH1 0x4 ADD PUSH2 0x45C SWAP1 PUSH2 0x2574 JUMP JUMPDEST PUSH1 0x0 DUP1 SLOAD PUSH1 0x40 MLOAD PUSH4 0x333F6111 PUSH1 0xE0 SHL DUP2 MSTORE PUSH1 0x1 PUSH1 0x1 PUSH1 0xA0 SHL SUB SWAP1 SWAP2 AND SWAP1 PUSH4 0x333F6111 SWAP1 PUSH2 0x83A SWAP1 DUP11 SWAP1 DUP11 SWAP1 DUP11 SWAP1 DUP10 SWAP1 PUSH1 0x4 ADD PUSH2 0x23E1 JUMP JUMPDEST PUSH1 0x20 PUSH1 0x40 MLOAD DUP1 DUP4 SUB DUP2 PUSH1 0x0 DUP8 GAS CALL ISZERO DUP1 ISZERO PUSH2 0x859 JUMPI RETURNDATASIZE PUSH1 0x0 DUP1 RETURNDATACOPY RETURNDATASIZE PUSH1 0x0 REVERT JUMPDEST POP POP POP POP PUSH1 0x40 MLOAD RETURNDATASIZE PUSH1 0x1F NOT PUSH1 0x1F DUP3 ADD AND DUP3 ADD DUP1 PUSH1 0x40 MSTORE POP DUP2 ADD SWAP1 PUSH2 0x87D SWAP2 SWAP1 PUSH2 0x24C1 JUMP JUMPDEST SWAP1 POP DUP1 PUSH2 0x909 JUMPI PUSH1 0x40 MLOAD PUSH3 0x461BCD PUSH1 0xE5 SHL DUP2 MSTORE PUSH1 0x20 PUSH1 0x4 DUP3 ADD MSTORE PUSH1 0x4E PUSH1 0x24 DUP3 ADD MSTORE PUSH32 0x417574686F72697A6174696F6E206661696C6564206F6E20636F6E6669726D61 PUSH1 0x44 DUP3 ADD MSTORE PUSH32 0x74696F6E206F6620506C61796572446174616261736520636F6E747261637420 PUSH1 0x64 DUP3 ADD MSTORE PUSH14 0x6164647265737320757064617465 PUSH1 0x90 SHL PUSH1 0x84 DUP3 ADD MSTORE PUSH1 0xA4 ADD PUSH2 0x45C JUMP JUMPDEST PUSH1 0x1 DUP1 SLOAD PUSH1 0x1 PUSH1 0x1 PUSH1 0xA0 SHL SUB NOT AND PUSH1 0x1 PUSH1 0x1 PUSH1 0xA0 SHL SUB DUP7 AND SWAP1 DUP2 OR SWAP1 SWAP2 SSTORE PUSH1 0x40 MLOAD SWAP1 DUP2 MSTORE PUSH32 0x6C200B5398AF2592BA382DBF2A45376BBB22A24CAB265709486FA967A5B4203D SWAP1 PUSH1 0x20 ADD PUSH1 0x40 MLOAD DUP1 SWAP2 SUB SWAP1 LOG1 POP POP CALLER PUSH1 0x0 SWAP1 DUP2 MSTORE PUSH1 0x7 PUSH1 0x20 MSTORE PUSH1 0x40 DUP2 KECCAK256 DUP1 SLOAD PUSH1 0x1 PUSH1 0x1 PUSH1 0xA0 SHL SUB NOT AND SWAP1 SSTORE PUSH1 0x9 SSTORE POP POP POP POP POP JUMP JUMPDEST PUSH1 0x0 DUP2 PUSH1 0x40 MLOAD PUSH1 0x20 ADD PUSH2 0x996 SWAP2 SWAP1 PUSH2 0x239B JUMP JUMPDEST PUSH1 0x40 DUP1 MLOAD PUSH1 0x1F NOT DUP2 DUP5 SUB ADD DUP2 MSTORE SWAP1 DUP3 SWAP1 MSTORE PUSH1 0x0 DUP1 SLOAD PUSH4 0x333F6111 PUSH1 0xE0 SHL DUP5 MSTORE SWAP2 SWAP4 POP SWAP2 PUSH1 0x1 PUSH1 0x1 PUSH1 0xA0 SHL SUB SWAP1 SWAP2 AND SWAP1 PUSH4 0x333F6111 SWAP1 PUSH2 0x9DF SWAP1 DUP10 SWAP1 DUP10 SWAP1 DUP10 SWAP1 DUP9 SWAP1 PUSH1 0x4 ADD PUSH2 0x23E1 JUMP JUMPDEST PUSH1 0x20 PUSH1 0x40 MLOAD DUP1 DUP4 SUB DUP2 PUSH1 0x0 DUP8 GAS CALL ISZERO DUP1 ISZERO PUSH2 0x9FE JUMPI RETURNDATASIZE PUSH1 0x0 DUP1 RETURNDATACOPY RETURNDATASIZE PUSH1 0x0 REVERT JUMPDEST POP POP POP POP PUSH1 0x40 MLOAD RETURNDATASIZE PUSH1 0x1F NOT PUSH1 0x1F DUP3 ADD AND DUP3 ADD DUP1 PUSH1 0x40 MSTORE POP DUP2 ADD SWAP1 PUSH2 0xA22 SWAP2 SWAP1 PUSH2 0x24C1 JUMP JUMPDEST SWAP1 POP DUP1 PUSH2 0xAAB JUMPI PUSH1 0x40 MLOAD PUSH3 0x461BCD PUSH1 0xE5 SHL DUP2 MSTORE PUSH1 0x20 PUSH1 0x4 DUP3 ADD MSTORE PUSH1 0x4B PUSH1 0x24 DUP3 ADD MSTORE PUSH32 0x417574686F72697A6174696F6E206661696C656420666F722070726F706F7365 PUSH1 0x44 DUP3 ADD MSTORE PUSH32 0x6420757064617465206F6620506C61796572446174616261736520636F6E7472 PUSH1 0x64 DUP3 ADD MSTORE PUSH11 0x6163742061646472657373 PUSH1 0xA8 SHL PUSH1 0x84 DUP3 ADD MSTORE PUSH1 0xA4 ADD PUSH2 0x45C JUMP JUMPDEST POP POP CALLER PUSH1 0x0 SWAP1 DUP2 MSTORE PUSH1 0x7 PUSH1 0x20 MSTORE PUSH1 0x40 SWAP1 KECCAK256 DUP1 SLOAD PUSH1 0x1 PUSH1 0x1 PUSH1 0xA0 SHL SUB NOT AND PUSH1 0x1 PUSH1 0x1 PUSH1 0xA0 SHL SUB SWAP3 SWAP1 SWAP3 AND SWAP2 SWAP1 SWAP2 OR SWAP1 SSTORE PUSH1 0x9 SSTORE POP POP JUMP JUMPDEST PUSH2 0xAEA DUP3 PUSH2 0x11B9 JUMP JUMPDEST PUSH2 0xB42 JUMPI PUSH1 0x40 MLOAD PUSH3 0x461BCD PUSH1 0xE5 SHL DUP2 MSTORE PUSH1 0x20 PUSH1 0x4 DUP3 ADD MSTORE PUSH1 0x24 DUP1 DUP3 ADD MSTORE PUSH32 0x43616C6C6572206973206E6F74206120726567697374657265642076616C6964 PUSH1 0x44 DUP3 ADD MSTORE PUSH4 0x30BA37B9 PUSH1 0xE1 SHL PUSH1 0x64 DUP3 ADD MSTORE PUSH1 0x84 ADD PUSH2 0x45C JUMP JUMPDEST PUSH1 0x60 PUSH1 0x0 JUMPDEST DUP5 MLOAD DUP2 LT ISZERO PUSH2 0xC3A JUMPI DUP2 DUP6 DUP3 DUP2 MLOAD DUP2 LT PUSH2 0xB63 JUMPI PUSH2 0xB63 PUSH2 0x25DB JUMP JUMPDEST PUSH1 0x20 MUL PUSH1 0x20 ADD ADD MLOAD PUSH1 0x0 ADD MLOAD PUSH1 0x40 MLOAD PUSH1 0x20 ADD PUSH2 0xB80 SWAP3 SWAP2 SWAP1 PUSH2 0x25F1 JUMP JUMPDEST PUSH1 0x40 MLOAD PUSH1 0x20 DUP2 DUP4 SUB SUB DUP2 MSTORE SWAP1 PUSH1 0x40 MSTORE SWAP2 POP PUSH1 0x0 JUMPDEST DUP6 DUP3 DUP2 MLOAD DUP2 LT PUSH2 0xBA6 JUMPI PUSH2 0xBA6 PUSH2 0x25DB JUMP JUMPDEST PUSH1 0x20 MUL PUSH1 0x20 ADD ADD MLOAD PUSH1 0x20 ADD MLOAD MLOAD DUP2 LT ISZERO PUSH2 0xC27 JUMPI DUP3 DUP7 DUP4 DUP2 MLOAD DUP2 LT PUSH2 0xBCD JUMPI PUSH2 0xBCD PUSH2 0x25DB JUMP JUMPDEST PUSH1 0x20 MUL PUSH1 0x20 ADD ADD MLOAD PUSH1 0x20 ADD MLOAD DUP3 DUP2 MLOAD DUP2 LT PUSH2 0xBEA JUMPI PUSH2 0xBEA PUSH2 0x25DB JUMP JUMPDEST PUSH1 0x20 MUL PUSH1 0x20 ADD ADD MLOAD PUSH1 0x40 MLOAD PUSH1 0x20 ADD PUSH2 0xC03 SWAP3 SWAP2 SWAP1 PUSH2 0x25F1 JUMP JUMPDEST PUSH1 0x40 MLOAD PUSH1 0x20 DUP2 DUP4 SUB SUB DUP2 MSTORE SWAP1 PUSH1 0x40 MSTORE SWAP3 POP DUP1 DUP1 PUSH2 0xC1F SWAP1 PUSH2 0x2636 JUMP JUMPDEST SWAP2 POP POP PUSH2 0xB94 JUMP JUMPDEST POP DUP1 PUSH2 0xC32 DUP2 PUSH2 0x2636 JUMP JUMPDEST SWAP2 POP POP PUSH2 0xB47 JUMP JUMPDEST POP PUSH1 0x0 DUP1 JUMPDEST DUP6 MLOAD DUP2 LT ISZERO PUSH2 0xE39 JUMPI PUSH1 0x0 DUP7 DUP3 DUP2 MLOAD DUP2 LT PUSH2 0xC5C JUMPI PUSH2 0xC5C PUSH2 0x25DB JUMP JUMPDEST PUSH1 0x20 MUL PUSH1 0x20 ADD ADD MLOAD PUSH1 0x20 ADD MLOAD MLOAD SWAP1 POP PUSH1 0x40 DUP2 DUP5 PUSH2 0xC79 SWAP2 SWAP1 PUSH2 0x264F JUMP JUMPDEST GT ISZERO PUSH2 0xC85 JUMPI POP PUSH2 0xE39 JUMP JUMPDEST PUSH2 0xC8F DUP2 DUP5 PUSH2 0x264F JUMP JUMPDEST SWAP3 POP PUSH1 0x60 PUSH1 0x0 JUMPDEST DUP9 DUP5 DUP2 MLOAD DUP2 LT PUSH2 0xCA8 JUMPI PUSH2 0xCA8 PUSH2 0x25DB JUMP JUMPDEST PUSH1 0x20 MUL PUSH1 0x20 ADD ADD MLOAD PUSH1 0x20 ADD MLOAD MLOAD DUP2 LT ISZERO PUSH2 0xD29 JUMPI DUP2 DUP10 DUP6 DUP2 MLOAD DUP2 LT PUSH2 0xCCF JUMPI PUSH2 0xCCF PUSH2 0x25DB JUMP JUMPDEST PUSH1 0x20 MUL PUSH1 0x20 ADD ADD MLOAD PUSH1 0x20 ADD MLOAD DUP3 DUP2 MLOAD DUP2 LT PUSH2 0xCEC JUMPI PUSH2 0xCEC PUSH2 0x25DB JUMP JUMPDEST PUSH1 0x20 MUL PUSH1 0x20 ADD ADD MLOAD PUSH1 0x40 MLOAD PUSH1 0x20 ADD PUSH2 0xD05 SWAP3 SWAP2 SWAP1 PUSH2 0x25F1 JUMP JUMPDEST PUSH1 0x40 MLOAD PUSH1 0x20 DUP2 DUP4 SUB SUB DUP2 MSTORE SWAP1 PUSH1 0x40 MSTORE SWAP2 POP DUP1 DUP1 PUSH2 0xD21 SWAP1 PUSH2 0x2636 JUMP JUMPDEST SWAP2 POP POP PUSH2 0xC96 JUMP JUMPDEST POP DUP1 MLOAD PUSH1 0x20 DUP3 ADD KECCAK256 DUP9 MLOAD DUP10 SWAP1 DUP6 SWAP1 DUP2 LT PUSH2 0xD45 JUMPI PUSH2 0xD45 PUSH2 0x25DB JUMP JUMPDEST PUSH1 0x20 MUL PUSH1 0x20 ADD ADD MLOAD PUSH1 0x20 ADD MLOAD PUSH1 0x5 PUSH1 0x0 DUP4 DUP2 MSTORE PUSH1 0x20 ADD SWAP1 DUP2 MSTORE PUSH1 0x20 ADD PUSH1 0x0 KECCAK256 SWAP1 DUP1 MLOAD SWAP1 PUSH1 0x20 ADD SWAP1 PUSH2 0xD77 SWAP3 SWAP2 SWAP1 PUSH2 0x1C6B JUMP JUMPDEST POP PUSH2 0xD9F DUP10 DUP6 DUP2 MLOAD DUP2 LT PUSH2 0xD8D JUMPI PUSH2 0xD8D PUSH2 0x25DB JUMP JUMPDEST PUSH1 0x20 MUL PUSH1 0x20 ADD ADD MLOAD PUSH1 0x0 ADD MLOAD DUP10 PUSH2 0x1228 JUMP JUMPDEST PUSH1 0x40 MLOAD DUP1 PUSH1 0x40 ADD PUSH1 0x40 MSTORE DUP1 DUP3 DUP2 MSTORE PUSH1 0x20 ADD DUP9 ISZERO ISZERO DUP2 MSTORE POP PUSH1 0x4 DUP11 DUP7 DUP2 MLOAD DUP2 LT PUSH2 0xDCA JUMPI PUSH2 0xDCA PUSH2 0x25DB JUMP JUMPDEST PUSH1 0x20 MUL PUSH1 0x20 ADD ADD MLOAD PUSH1 0x0 ADD MLOAD PUSH1 0x40 MLOAD PUSH2 0xDE3 SWAP2 SWAP1 PUSH2 0x2662 JUMP JUMPDEST SWAP1 DUP2 MSTORE PUSH1 0x40 DUP1 MLOAD PUSH1 0x20 SWAP3 DUP2 SWAP1 SUB DUP4 ADD SWAP1 KECCAK256 PUSH1 0x1 PUSH1 0x1 PUSH1 0xA0 SHL SUB DUP13 AND PUSH1 0x0 SWAP1 DUP2 MSTORE SWAP1 DUP4 MSTORE KECCAK256 DUP3 MLOAD DUP2 SSTORE SWAP2 ADD MLOAD PUSH1 0x1 SWAP1 SWAP2 ADD DUP1 SLOAD PUSH1 0xFF NOT AND SWAP2 ISZERO ISZERO SWAP2 SWAP1 SWAP2 OR SWAP1 SSTORE POP DUP3 SWAP2 POP PUSH2 0xE31 SWAP1 POP DUP2 PUSH2 0x2636 JUMP JUMPDEST SWAP2 POP POP PUSH2 0xC3F JUMP JUMPDEST POP PUSH1 0xA SLOAD TIMESTAMP SWAP1 PUSH1 0x0 SWAP1 PUSH2 0xE4C SWAP1 DUP4 PUSH2 0x267E JUMP JUMPDEST SWAP1 POP PUSH1 0x0 PUSH2 0xE5C PUSH2 0x12C DUP5 PUSH2 0x26A7 JUMP JUMPDEST PUSH2 0xE68 SWAP1 PUSH2 0x12C PUSH2 0x267E JUMP JUMPDEST SWAP1 POP PUSH2 0x12C DUP3 LT ISZERO DUP1 ISZERO PUSH2 0xE7D JUMPI POP PUSH2 0x12C DUP2 LT JUMPDEST ISZERO PUSH2 0xE98 JUMPI PUSH2 0xE8A PUSH2 0x1317 JUMP JUMPDEST PUSH2 0xE94 DUP2 DUP5 PUSH2 0x267E JUMP JUMPDEST PUSH1 0xA SSTORE JUMPDEST POP POP POP POP POP POP POP POP JUMP JUMPDEST PUSH1 0x0 DUP2 PUSH1 0x40 MLOAD PUSH1 0x20 ADD PUSH2 0xEB5 SWAP2 SWAP1 PUSH2 0x239B JUMP JUMPDEST PUSH1 0x40 DUP1 MLOAD DUP1 DUP4 SUB PUSH1 0x1F NOT ADD DUP2 MSTORE SWAP2 DUP2 MSTORE CALLER PUSH1 0x0 SWAP1 DUP2 MSTORE PUSH1 0x6 PUSH1 0x20 MSTORE KECCAK256 SLOAD SWAP1 SWAP2 POP PUSH1 0x1 PUSH1 0x1 PUSH1 0xA0 SHL SUB DUP4 DUP2 AND SWAP2 AND EQ PUSH2 0xF3D JUMPI PUSH1 0x40 MLOAD PUSH3 0x461BCD PUSH1 0xE5 SHL DUP2 MSTORE PUSH1 0x20 PUSH1 0x4 DUP3 ADD MSTORE PUSH1 0x25 PUSH1 0x24 DUP3 ADD MSTORE PUSH32 0x4D696E7420636F6E7472616374206164647265737320757064617465206D6973 PUSH1 0x44 DUP3 ADD MSTORE PUSH5 0xDAC2E8C6D PUSH1 0xDB SHL PUSH1 0x64 DUP3 ADD MSTORE PUSH1 0x84 ADD PUSH2 0x45C JUMP JUMPDEST PUSH1 0x0 DUP6 PUSH1 0x40 MLOAD PUSH1 0x20 ADD PUSH2 0xF50 SWAP2 SWAP1 PUSH2 0x24DE JUMP JUMPDEST PUSH1 0x40 MLOAD PUSH1 0x20 DUP2 DUP4 SUB SUB DUP2 MSTORE SWAP1 PUSH1 0x40 MSTORE DUP1 MLOAD SWAP1 PUSH1 0x20 ADD KECCAK256 SWAP1 POP DUP1 PUSH1 0x9 SLOAD SUB PUSH2 0xF89 JUMPI PUSH1 0x40 MLOAD PUSH3 0x461BCD PUSH1 0xE5 SHL DUP2 MSTORE PUSH1 0x4 ADD PUSH2 0x45C SWAP1 PUSH2 0x2574 JUMP JUMPDEST PUSH1 0x0 DUP1 SLOAD PUSH1 0x40 MLOAD PUSH4 0x333F6111 PUSH1 0xE0 SHL DUP2 MSTORE PUSH1 0x1 PUSH1 0x1 PUSH1 0xA0 SHL SUB SWAP1 SWAP2 AND SWAP1 PUSH4 0x333F6111 SWAP1 PUSH2 0xFC0 SWAP1 DUP11 SWAP1 DUP11 SWAP1 DUP11 SWAP1 DUP10 SWAP1 PUSH1 0x4 ADD PUSH2 0x23E1 JUMP JUMPDEST PUSH1 0x20 PUSH1 0x40 MLOAD DUP1 DUP4 SUB DUP2 PUSH1 0x0 DUP8 GAS CALL ISZERO DUP1 ISZERO PUSH2 0xFDF JUMPI RETURNDATASIZE PUSH1 0x0 DUP1 RETURNDATACOPY RETURNDATASIZE PUSH1 0x0 REVERT JUMPDEST POP POP POP POP PUSH1 0x40 MLOAD RETURNDATASIZE PUSH1 0x1F NOT PUSH1 0x1F DUP3 ADD AND DUP3 ADD DUP1 PUSH1 0x40 MSTORE POP DUP2 ADD SWAP1 PUSH2 0x1003 SWAP2 SWAP1 PUSH2 0x24C1 JUMP JUMPDEST SWAP1 POP DUP1 PUSH2 0x1086 JUMPI PUSH1 0x40 MLOAD PUSH3 0x461BCD PUSH1 0xE5 SHL DUP2 MSTORE PUSH1 0x20 PUSH1 0x4 DUP3 ADD MSTORE PUSH1 0x44 PUSH1 0x24 DUP3 ADD DUP2 SWAP1 MSTORE PUSH32 0x417574686F72697A6174696F6E206661696C6564206F6E20636F6E6669726D61 SWAP1 DUP3 ADD MSTORE PUSH32 0x74696F6E206F66204D696E7420636F6E74726163742061646472657373207570 PUSH1 0x64 DUP3 ADD MSTORE PUSH4 0x64617465 PUSH1 0xE0 SHL PUSH1 0x84 DUP3 ADD MSTORE PUSH1 0xA4 ADD PUSH2 0x45C JUMP JUMPDEST PUSH1 0x2 DUP1 SLOAD PUSH1 0x1 PUSH1 0x1 PUSH1 0xA0 SHL SUB NOT AND PUSH1 0x1 PUSH1 0x1 PUSH1 0xA0 SHL SUB DUP7 AND SWAP1 DUP2 OR SWAP1 SWAP2 SSTORE PUSH1 0x40 MLOAD SWAP1 DUP2 MSTORE PUSH32 0x7814765089FA4D113B377EB0859FD345095A106617367857878087A128595EC4 SWAP1 PUSH1 0x20 ADD PUSH1 0x40 MLOAD DUP1 SWAP2 SUB SWAP1 LOG1 POP POP CALLER PUSH1 0x0 SWAP1 DUP2 MSTORE PUSH1 0x6 PUSH1 0x20 MSTORE PUSH1 0x40 DUP2 KECCAK256 DUP1 SLOAD PUSH1 0x1 PUSH1 0x1 PUSH1 0xA0 SHL SUB NOT AND SWAP1 SSTORE PUSH1 0x9 SSTORE POP POP POP POP POP JUMP JUMPDEST PUSH1 0x5 PUSH1 0x20 MSTORE DUP2 PUSH1 0x0 MSTORE PUSH1 0x40 PUSH1 0x0 KECCAK256 DUP2 DUP2 SLOAD DUP2 LT PUSH2 0x111C JUMPI PUSH1 0x0 DUP1 REVERT JUMPDEST SWAP1 PUSH1 0x0 MSTORE PUSH1 0x20 PUSH1 0x0 KECCAK256 ADD PUSH1 0x0 SWAP2 POP SWAP2 POP POP DUP1 SLOAD PUSH2 0x1138 SWAP1 PUSH2 0x26BB JUMP JUMPDEST DUP1 PUSH1 0x1F ADD PUSH1 0x20 DUP1 SWAP2 DIV MUL PUSH1 0x20 ADD PUSH1 0x40 MLOAD SWAP1 DUP2 ADD PUSH1 0x40 MSTORE DUP1 SWAP3 SWAP2 SWAP1 DUP2 DUP2 MSTORE PUSH1 0x20 ADD DUP3 DUP1 SLOAD PUSH2 0x1164 SWAP1 PUSH2 0x26BB JUMP JUMPDEST DUP1 ISZERO PUSH2 0x11B1 JUMPI DUP1 PUSH1 0x1F LT PUSH2 0x1186 JUMPI PUSH2 0x100 DUP1 DUP4 SLOAD DIV MUL DUP4 MSTORE SWAP2 PUSH1 0x20 ADD SWAP2 PUSH2 0x11B1 JUMP JUMPDEST DUP3 ADD SWAP2 SWAP1 PUSH1 0x0 MSTORE PUSH1 0x20 PUSH1 0x0 KECCAK256 SWAP1 JUMPDEST DUP2 SLOAD DUP2 MSTORE SWAP1 PUSH1 0x1 ADD SWAP1 PUSH1 0x20 ADD DUP1 DUP4 GT PUSH2 0x1194 JUMPI DUP3 SWAP1 SUB PUSH1 0x1F AND DUP3 ADD SWAP2 JUMPDEST POP POP POP POP POP DUP2 JUMP JUMPDEST PUSH1 0x1 SLOAD PUSH1 0x40 MLOAD PUSH4 0xFACD743B PUSH1 0xE0 SHL DUP2 MSTORE PUSH1 0x1 PUSH1 0x1 PUSH1 0xA0 SHL SUB DUP4 DUP2 AND PUSH1 0x4 DUP4 ADD MSTORE PUSH1 0x0 SWAP3 AND SWAP1 PUSH4 0xFACD743B SWAP1 PUSH1 0x24 ADD PUSH1 0x20 PUSH1 0x40 MLOAD DUP1 DUP4 SUB DUP2 DUP7 GAS STATICCALL ISZERO DUP1 ISZERO PUSH2 0x1204 JUMPI RETURNDATASIZE PUSH1 0x0 DUP1 RETURNDATACOPY RETURNDATASIZE PUSH1 0x0 REVERT JUMPDEST POP POP POP POP PUSH1 0x40 MLOAD RETURNDATASIZE PUSH1 0x1F NOT PUSH1 0x1F DUP3 ADD AND DUP3 ADD DUP1 PUSH1 0x40 MSTORE POP DUP2 ADD SWAP1 PUSH2 0x33C SWAP2 SWAP1 PUSH2 0x24C1 JUMP JUMPDEST PUSH1 0x0 DUP1 JUMPDEST PUSH1 0x3 DUP5 PUSH1 0x40 MLOAD PUSH2 0x123C SWAP2 SWAP1 PUSH2 0x2662 JUMP JUMPDEST SWAP1 DUP2 MSTORE PUSH1 0x40 MLOAD SWAP1 DUP2 SWAP1 SUB PUSH1 0x20 ADD SWAP1 KECCAK256 SLOAD DUP2 LT ISZERO PUSH2 0x12C1 JUMPI DUP3 PUSH1 0x1 PUSH1 0x1 PUSH1 0xA0 SHL SUB AND PUSH1 0x3 DUP6 PUSH1 0x40 MLOAD PUSH2 0x126D SWAP2 SWAP1 PUSH2 0x2662 JUMP JUMPDEST SWAP1 DUP2 MSTORE PUSH1 0x20 ADD PUSH1 0x40 MLOAD DUP1 SWAP2 SUB SWAP1 KECCAK256 DUP3 DUP2 SLOAD DUP2 LT PUSH2 0x128C JUMPI PUSH2 0x128C PUSH2 0x25DB JUMP JUMPDEST PUSH1 0x0 SWAP2 DUP3 MSTORE PUSH1 0x20 SWAP1 SWAP2 KECCAK256 ADD SLOAD PUSH1 0x1 PUSH1 0x1 PUSH1 0xA0 SHL SUB AND SUB PUSH2 0x12AF JUMPI PUSH1 0x1 SWAP2 POP PUSH2 0x12C1 JUMP JUMPDEST DUP1 PUSH2 0x12B9 DUP2 PUSH2 0x2636 JUMP JUMPDEST SWAP2 POP POP PUSH2 0x122C JUMP JUMPDEST POP DUP1 PUSH2 0x1312 JUMPI PUSH1 0x3 DUP4 PUSH1 0x40 MLOAD PUSH2 0x12D7 SWAP2 SWAP1 PUSH2 0x2662 JUMP JUMPDEST SWAP1 DUP2 MSTORE PUSH1 0x40 MLOAD PUSH1 0x20 SWAP2 DUP2 SWAP1 SUB DUP3 ADD SWAP1 KECCAK256 DUP1 SLOAD PUSH1 0x1 DUP2 ADD DUP3 SSTORE PUSH1 0x0 SWAP2 DUP3 MSTORE SWAP2 SWAP1 KECCAK256 ADD DUP1 SLOAD PUSH1 0x1 PUSH1 0x1 PUSH1 0xA0 SHL SUB NOT AND PUSH1 0x1 PUSH1 0x1 PUSH1 0xA0 SHL SUB DUP5 AND OR SWAP1 SSTORE JUMPDEST POP POP POP JUMP JUMPDEST PUSH1 0x1 SLOAD PUSH1 0x40 DUP1 MLOAD PUSH4 0x3DC0FF7D PUSH1 0xE0 SHL DUP2 MSTORE SWAP1 MLOAD PUSH1 0x0 SWAP3 PUSH1 0x1 PUSH1 0x1 PUSH1 0xA0 SHL SUB AND SWAP2 PUSH4 0x3DC0FF7D SWAP2 PUSH1 0x4 DUP1 DUP4 ADD SWAP3 DUP7 SWAP3 SWAP2 SWAP1 DUP3 SWAP1 SUB ADD DUP2 DUP7 GAS STATICCALL ISZERO DUP1 ISZERO PUSH2 0x1360 JUMPI RETURNDATASIZE PUSH1 0x0 DUP1 RETURNDATACOPY RETURNDATASIZE PUSH1 0x0 REVERT JUMPDEST POP POP POP POP PUSH1 0x40 MLOAD RETURNDATASIZE PUSH1 0x0 DUP3 RETURNDATACOPY PUSH1 0x1F RETURNDATASIZE SWAP1 DUP2 ADD PUSH1 0x1F NOT AND DUP3 ADD PUSH1 0x40 MSTORE PUSH2 0x1388 SWAP2 SWAP1 DUP2 ADD SWAP1 PUSH2 0x26F5 JUMP JUMPDEST SWAP1 POP PUSH1 0x0 JUMPDEST DUP2 MLOAD DUP2 LT ISZERO PUSH2 0x13E5 JUMPI PUSH1 0x0 DUP3 DUP3 DUP2 MLOAD DUP2 LT PUSH2 0x13AA JUMPI PUSH2 0x13AA PUSH2 0x25DB JUMP JUMPDEST PUSH1 0x20 MUL PUSH1 0x20 ADD ADD MLOAD SWAP1 POP PUSH1 0x0 PUSH2 0x13BF DUP3 PUSH2 0x13F1 JUMP JUMPDEST SWAP1 POP DUP1 ISZERO PUSH2 0x13D0 JUMPI PUSH2 0x13D0 DUP2 PUSH2 0x16AB JUMP JUMPDEST POP POP DUP1 DUP1 PUSH2 0x13DD SWAP1 PUSH2 0x2636 JUMP JUMPDEST SWAP2 POP POP PUSH2 0x138D JUMP JUMPDEST POP PUSH2 0x13EE PUSH2 0x1A7E JUMP JUMPDEST POP JUMP JUMPDEST PUSH1 0x0 DUP1 PUSH1 0x3 DUP4 PUSH1 0x40 MLOAD PUSH2 0x1404 SWAP2 SWAP1 PUSH2 0x2662 JUMP JUMPDEST SWAP1 DUP2 MSTORE PUSH1 0x40 DUP1 MLOAD SWAP2 DUP3 SWAP1 SUB PUSH1 0x20 SWAP1 DUP2 ADD DUP4 KECCAK256 DUP1 SLOAD DUP1 DUP4 MUL DUP6 ADD DUP4 ADD SWAP1 SWAP4 MSTORE DUP3 DUP5 MSTORE SWAP2 SWAP1 DUP4 ADD DUP3 DUP3 DUP1 ISZERO PUSH2 0x1460 JUMPI PUSH1 0x20 MUL DUP3 ADD SWAP2 SWAP1 PUSH1 0x0 MSTORE PUSH1 0x20 PUSH1 0x0 KECCAK256 SWAP1 JUMPDEST DUP2 SLOAD PUSH1 0x1 PUSH1 0x1 PUSH1 0xA0 SHL SUB AND DUP2 MSTORE PUSH1 0x1 SWAP1 SWAP2 ADD SWAP1 PUSH1 0x20 ADD DUP1 DUP4 GT PUSH2 0x1442 JUMPI JUMPDEST POP POP POP POP POP SWAP1 POP PUSH1 0x0 PUSH1 0x64 DUP3 MLOAD PUSH1 0x3C PUSH2 0x1479 SWAP2 SWAP1 PUSH2 0x27E1 JUMP JUMPDEST PUSH2 0x1483 SWAP2 SWAP1 PUSH2 0x27F8 JUMP JUMPDEST DUP3 MLOAD SWAP1 SWAP2 POP PUSH1 0x0 SWAP1 DUP2 SWAP1 DUP2 SWAP1 PUSH1 0x1 PUSH1 0x1 PUSH1 0x40 SHL SUB DUP2 GT ISZERO PUSH2 0x14A6 JUMPI PUSH2 0x14A6 PUSH2 0x1D28 JUMP JUMPDEST PUSH1 0x40 MLOAD SWAP1 DUP1 DUP3 MSTORE DUP1 PUSH1 0x20 MUL PUSH1 0x20 ADD DUP3 ADD PUSH1 0x40 MSTORE DUP1 ISZERO PUSH2 0x14EB JUMPI DUP2 PUSH1 0x20 ADD JUMPDEST PUSH1 0x40 DUP1 MLOAD DUP1 DUP3 ADD SWAP1 SWAP2 MSTORE PUSH1 0x0 DUP1 DUP3 MSTORE PUSH1 0x20 DUP3 ADD MSTORE DUP2 MSTORE PUSH1 0x20 ADD SWAP1 PUSH1 0x1 SWAP1 SUB SWAP1 DUP2 PUSH2 0x14C4 JUMPI SWAP1 POP JUMPDEST POP SWAP1 POP PUSH1 0x0 JUMPDEST DUP6 MLOAD DUP2 LT ISZERO PUSH2 0x168B JUMPI PUSH1 0x0 PUSH1 0x4 DUP10 PUSH1 0x40 MLOAD PUSH2 0x150C SWAP2 SWAP1 PUSH2 0x2662 JUMP JUMPDEST SWAP1 DUP2 MSTORE PUSH1 0x20 ADD PUSH1 0x40 MLOAD DUP1 SWAP2 SUB SWAP1 KECCAK256 PUSH1 0x0 DUP9 DUP5 DUP2 MLOAD DUP2 LT PUSH2 0x152E JUMPI PUSH2 0x152E PUSH2 0x25DB JUMP JUMPDEST PUSH1 0x20 MUL PUSH1 0x20 ADD ADD MLOAD PUSH1 0x1 PUSH1 0x1 PUSH1 0xA0 SHL SUB AND PUSH1 0x1 PUSH1 0x1 PUSH1 0xA0 SHL SUB AND DUP2 MSTORE PUSH1 0x20 ADD SWAP1 DUP2 MSTORE PUSH1 0x20 ADD PUSH1 0x0 KECCAK256 PUSH1 0x0 ADD SLOAD SWAP1 POP PUSH1 0x0 DUP1 JUMPDEST DUP5 MLOAD DUP2 LT ISZERO PUSH2 0x15D6 JUMPI DUP3 DUP6 DUP3 DUP2 MLOAD DUP2 LT PUSH2 0x157C JUMPI PUSH2 0x157C PUSH2 0x25DB JUMP JUMPDEST PUSH1 0x20 MUL PUSH1 0x20 ADD ADD MLOAD PUSH1 0x0 ADD MLOAD SUB PUSH2 0x15C4 JUMPI DUP5 DUP2 DUP2 MLOAD DUP2 LT PUSH2 0x159F JUMPI PUSH2 0x159F PUSH2 0x25DB JUMP JUMPDEST PUSH1 0x20 MUL PUSH1 0x20 ADD ADD MLOAD PUSH1 0x20 ADD DUP1 MLOAD DUP1 SWAP2 SWAP1 PUSH2 0x15B8 SWAP1 PUSH2 0x2636 JUMP JUMPDEST SWAP1 MSTORE POP PUSH1 0x1 SWAP2 POP PUSH2 0x15D6 JUMP JUMPDEST DUP1 PUSH2 0x15CE DUP2 PUSH2 0x2636 JUMP JUMPDEST SWAP2 POP POP PUSH2 0x1560 JUMP JUMPDEST POP DUP1 PUSH2 0x1610 JUMPI PUSH1 0x40 MLOAD DUP1 PUSH1 0x40 ADD PUSH1 0x40 MSTORE DUP1 DUP4 DUP2 MSTORE PUSH1 0x20 ADD PUSH1 0x1 DUP2 MSTORE POP DUP5 DUP5 DUP2 MLOAD DUP2 LT PUSH2 0x1604 JUMPI PUSH2 0x1604 PUSH2 0x25DB JUMP JUMPDEST PUSH1 0x20 MUL PUSH1 0x20 ADD ADD DUP2 SWAP1 MSTORE POP JUMPDEST DUP5 DUP5 DUP5 DUP2 MLOAD DUP2 LT PUSH2 0x1623 JUMPI PUSH2 0x1623 PUSH2 0x25DB JUMP JUMPDEST PUSH1 0x20 MUL PUSH1 0x20 ADD ADD MLOAD PUSH1 0x20 ADD MLOAD GT ISZERO PUSH2 0x1676 JUMPI DUP4 DUP4 DUP2 MLOAD DUP2 LT PUSH2 0x1647 JUMPI PUSH2 0x1647 PUSH2 0x25DB JUMP JUMPDEST PUSH1 0x20 MUL PUSH1 0x20 ADD ADD MLOAD PUSH1 0x20 ADD MLOAD SWAP5 POP DUP4 DUP4 DUP2 MLOAD DUP2 LT PUSH2 0x1667 JUMPI PUSH2 0x1667 PUSH2 0x25DB JUMP JUMPDEST PUSH1 0x20 MUL PUSH1 0x20 ADD ADD MLOAD PUSH1 0x0 ADD MLOAD SWAP6 POP JUMPDEST POP POP DUP1 DUP1 PUSH2 0x1683 SWAP1 PUSH2 0x2636 JUMP JUMPDEST SWAP2 POP POP PUSH2 0x14F1 JUMP JUMPDEST POP DUP4 DUP3 LT PUSH2 0x169E JUMPI POP SWAP1 SWAP6 SWAP5 POP POP POP POP POP JUMP JUMPDEST POP PUSH1 0x0 SWAP7 SWAP6 POP POP POP POP POP POP JUMP JUMPDEST PUSH1 0x40 DUP1 MLOAD PUSH1 0x4 DUP1 DUP3 MSTORE PUSH1 0xA0 DUP3 ADD SWAP1 SWAP3 MSTORE PUSH1 0x0 SWAP2 DUP2 PUSH1 0x20 ADD JUMPDEST PUSH1 0x60 DUP2 MSTORE PUSH1 0x20 ADD SWAP1 PUSH1 0x1 SWAP1 SUB SWAP1 DUP2 PUSH2 0x16C3 JUMPI SWAP1 POP POP SWAP1 POP PUSH1 0x40 MLOAD DUP1 PUSH1 0x40 ADD PUSH1 0x40 MSTORE DUP1 PUSH1 0x8 DUP2 MSTORE PUSH1 0x20 ADD PUSH8 0x6C65676F706F7761 PUSH1 0xC0 SHL DUP2 MSTORE POP DUP2 PUSH1 0x0 DUP2 MLOAD DUP2 LT PUSH2 0x170E JUMPI PUSH2 0x170E PUSH2 0x25DB JUMP JUMPDEST PUSH1 0x20 MUL PUSH1 0x20 ADD ADD DUP2 SWAP1 MSTORE POP PUSH1 0x40 MLOAD DUP1 PUSH1 0x40 ADD PUSH1 0x40 MSTORE DUP1 PUSH1 0x7 DUP2 MSTORE PUSH1 0x20 ADD PUSH7 0x506C6179657231 PUSH1 0xC8 SHL DUP2 MSTORE POP DUP2 PUSH1 0x1 DUP2 MLOAD DUP2 LT PUSH2 0x174C JUMPI PUSH2 0x174C PUSH2 0x25DB JUMP JUMPDEST PUSH1 0x20 MUL PUSH1 0x20 ADD ADD DUP2 SWAP1 MSTORE POP PUSH1 0x40 MLOAD DUP1 PUSH1 0x40 ADD PUSH1 0x40 MSTORE DUP1 PUSH1 0x7 DUP2 MSTORE PUSH1 0x20 ADD PUSH7 0x283630BCB2B919 PUSH1 0xC9 SHL DUP2 MSTORE POP DUP2 PUSH1 0x2 DUP2 MLOAD DUP2 LT PUSH2 0x178A JUMPI PUSH2 0x178A PUSH2 0x25DB JUMP JUMPDEST PUSH1 0x20 MUL PUSH1 0x20 ADD ADD DUP2 SWAP1 MSTORE POP PUSH1 0x40 MLOAD DUP1 PUSH1 0x40 ADD PUSH1 0x40 MSTORE DUP1 PUSH1 0x7 DUP2 MSTORE PUSH1 0x20 ADD PUSH7 0x506C6179657233 PUSH1 0xC8 SHL DUP2 MSTORE POP DUP2 PUSH1 0x3 DUP2 MLOAD DUP2 LT PUSH2 0x17C8 JUMPI PUSH2 0x17C8 PUSH2 0x25DB JUMP JUMPDEST PUSH1 0x20 MUL PUSH1 0x20 ADD ADD DUP2 SWAP1 MSTORE POP PUSH1 0x0 PUSH2 0x17DE DUP3 PUSH2 0x2C4 JUMP JUMPDEST DUP1 MLOAD SWAP1 SWAP2 POP PUSH1 0x0 PUSH2 0x17ED PUSH2 0x1C31 JUMP JUMPDEST SWAP1 POP PUSH1 0x0 PUSH1 0x1 PUSH1 0x0 SWAP1 SLOAD SWAP1 PUSH2 0x100 EXP SWAP1 DIV PUSH1 0x1 PUSH1 0x1 PUSH1 0xA0 SHL SUB AND PUSH1 0x1 PUSH1 0x1 PUSH1 0xA0 SHL SUB AND PUSH4 0x451B6373 PUSH1 0x40 MLOAD DUP2 PUSH4 0xFFFFFFFF AND PUSH1 0xE0 SHL DUP2 MSTORE PUSH1 0x4 ADD PUSH1 0x20 PUSH1 0x40 MLOAD DUP1 DUP4 SUB DUP2 DUP7 GAS STATICCALL ISZERO DUP1 ISZERO PUSH2 0x1844 JUMPI RETURNDATASIZE PUSH1 0x0 DUP1 RETURNDATACOPY RETURNDATASIZE PUSH1 0x0 REVERT JUMPDEST POP POP POP POP PUSH1 0x40 MLOAD RETURNDATASIZE PUSH1 0x1F NOT PUSH1 0x1F DUP3 ADD AND DUP3 ADD DUP1 PUSH1 0x40 MSTORE POP DUP2 ADD SWAP1 PUSH2 0x1868 SWAP2 SWAP1 PUSH2 0x280C JUMP JUMPDEST SWAP1 POP PUSH1 0x0 PUSH2 0x2710 PUSH2 0x1879 DUP4 DUP3 PUSH2 0x267E JUMP JUMPDEST PUSH2 0x1883 SWAP1 DUP6 PUSH2 0x27E1 JUMP JUMPDEST PUSH2 0x188D SWAP2 SWAP1 PUSH2 0x27F8 JUMP JUMPDEST SWAP1 POP PUSH1 0x0 DUP5 PUSH2 0x2710 PUSH2 0x189F DUP6 DUP8 PUSH2 0x27E1 JUMP JUMPDEST PUSH2 0x18A9 SWAP2 SWAP1 PUSH2 0x27F8 JUMP JUMPDEST PUSH2 0x18B3 SWAP2 SWAP1 PUSH2 0x27E1 JUMP JUMPDEST SWAP1 POP PUSH1 0x0 JUMPDEST DUP7 MLOAD DUP2 LT ISZERO PUSH2 0x199C JUMPI PUSH1 0x0 PUSH1 0x1 PUSH1 0x1 PUSH1 0xA0 SHL SUB AND DUP8 DUP3 DUP2 MLOAD DUP2 LT PUSH2 0x18DE JUMPI PUSH2 0x18DE PUSH2 0x25DB JUMP JUMPDEST PUSH1 0x20 MUL PUSH1 0x20 ADD ADD MLOAD PUSH1 0x1 PUSH1 0x1 PUSH1 0xA0 SHL SUB AND EQ PUSH2 0x198A JUMPI PUSH1 0x2 SLOAD DUP8 MLOAD PUSH1 0x1 PUSH1 0x1 PUSH1 0xA0 SHL SUB SWAP1 SWAP2 AND SWAP1 PUSH4 0xF0DDA65C SWAP1 DUP10 SWAP1 DUP5 SWAP1 DUP2 LT PUSH2 0x191D JUMPI PUSH2 0x191D PUSH2 0x25DB JUMP JUMPDEST PUSH1 0x20 MUL PUSH1 0x20 ADD ADD MLOAD DUP6 PUSH1 0x40 MLOAD DUP4 PUSH4 0xFFFFFFFF AND PUSH1 0xE0 SHL DUP2 MSTORE PUSH1 0x4 ADD PUSH2 0x1957 SWAP3 SWAP2 SWAP1 PUSH1 0x1 PUSH1 0x1 PUSH1 0xA0 SHL SUB SWAP3 SWAP1 SWAP3 AND DUP3 MSTORE PUSH1 0x20 DUP3 ADD MSTORE PUSH1 0x40 ADD SWAP1 JUMP JUMPDEST PUSH1 0x0 PUSH1 0x40 MLOAD DUP1 DUP4 SUB DUP2 PUSH1 0x0 DUP8 DUP1 EXTCODESIZE ISZERO DUP1 ISZERO PUSH2 0x1971 JUMPI PUSH1 0x0 DUP1 REVERT JUMPDEST POP GAS CALL ISZERO DUP1 ISZERO PUSH2 0x1985 JUMPI RETURNDATASIZE PUSH1 0x0 DUP1 RETURNDATACOPY RETURNDATASIZE PUSH1 0x0 REVERT JUMPDEST POP POP POP POP JUMPDEST DUP1 PUSH2 0x1994 DUP2 PUSH2 0x2636 JUMP JUMPDEST SWAP2 POP POP PUSH2 0x18B8 JUMP JUMPDEST POP PUSH1 0x1 SLOAD PUSH1 0x40 DUP1 MLOAD PUSH4 0x1D22F0AB PUSH1 0xE1 SHL DUP2 MSTORE SWAP1 MLOAD PUSH1 0x0 SWAP3 PUSH1 0x1 PUSH1 0x1 PUSH1 0xA0 SHL SUB AND SWAP2 PUSH4 0x3A45E156 SWAP2 PUSH1 0x4 DUP1 DUP4 ADD SWAP3 PUSH1 0x20 SWAP3 SWAP2 SWAP1 DUP3 SWAP1 SUB ADD DUP2 DUP7 GAS STATICCALL ISZERO DUP1 ISZERO PUSH2 0x19E7 JUMPI RETURNDATASIZE PUSH1 0x0 DUP1 RETURNDATACOPY RETURNDATASIZE PUSH1 0x0 REVERT JUMPDEST POP POP POP POP PUSH1 0x40 MLOAD RETURNDATASIZE PUSH1 0x1F NOT PUSH1 0x1F DUP3 ADD AND DUP3 ADD DUP1 PUSH1 0x40 MSTORE POP DUP2 ADD SWAP1 PUSH2 0x1A0B SWAP2 SWAP1 PUSH2 0x2825 JUMP JUMPDEST PUSH1 0x2 SLOAD PUSH1 0x40 MLOAD PUSH4 0x3C376997 PUSH1 0xE2 SHL DUP2 MSTORE PUSH1 0x1 PUSH1 0x1 PUSH1 0xA0 SHL SUB DUP1 DUP5 AND PUSH1 0x4 DUP4 ADD MSTORE PUSH1 0x24 DUP3 ADD DUP7 SWAP1 MSTORE SWAP3 SWAP4 POP SWAP2 AND SWAP1 PUSH4 0xF0DDA65C SWAP1 PUSH1 0x44 ADD PUSH1 0x0 PUSH1 0x40 MLOAD DUP1 DUP4 SUB DUP2 PUSH1 0x0 DUP8 DUP1 EXTCODESIZE ISZERO DUP1 ISZERO PUSH2 0x1A5B JUMPI PUSH1 0x0 DUP1 REVERT JUMPDEST POP GAS CALL ISZERO DUP1 ISZERO PUSH2 0x1A6F JUMPI RETURNDATASIZE PUSH1 0x0 DUP1 RETURNDATACOPY RETURNDATASIZE PUSH1 0x0 REVERT JUMPDEST POP POP POP POP POP POP POP POP POP POP POP POP POP JUMP JUMPDEST PUSH1 0x1 SLOAD PUSH1 0x40 DUP1 MLOAD PUSH4 0x3DC0FF7D PUSH1 0xE0 SHL DUP2 MSTORE SWAP1 MLOAD PUSH1 0x0 SWAP3 PUSH1 0x1 PUSH1 0x1 PUSH1 0xA0 SHL SUB AND SWAP2 PUSH4 0x3DC0FF7D SWAP2 PUSH1 0x4 DUP1 DUP4 ADD SWAP3 DUP7 SWAP3 SWAP2 SWAP1 DUP3 SWAP1 SUB ADD DUP2 DUP7 GAS STATICCALL ISZERO DUP1 ISZERO PUSH2 0x1AC7 JUMPI RETURNDATASIZE PUSH1 0x0 DUP1 RETURNDATACOPY RETURNDATASIZE PUSH1 0x0 REVERT JUMPDEST POP POP POP POP PUSH1 0x40 MLOAD RETURNDATASIZE PUSH1 0x0 DUP3 RETURNDATACOPY PUSH1 0x1F RETURNDATASIZE SWAP1 DUP2 ADD PUSH1 0x1F NOT AND DUP3 ADD PUSH1 0x40 MSTORE PUSH2 0x1AEF SWAP2 SWAP1 DUP2 ADD SWAP1 PUSH2 0x26F5 JUMP JUMPDEST SWAP1 POP PUSH1 0x0 JUMPDEST DUP2 MLOAD DUP2 LT ISZERO PUSH2 0x1C2D JUMPI PUSH1 0x0 DUP3 DUP3 DUP2 MLOAD DUP2 LT PUSH2 0x1B11 JUMPI PUSH2 0x1B11 PUSH2 0x25DB JUMP JUMPDEST PUSH1 0x20 MUL PUSH1 0x20 ADD ADD MLOAD SWAP1 POP PUSH1 0x0 PUSH1 0x3 DUP3 PUSH1 0x40 MLOAD PUSH2 0x1B2D SWAP2 SWAP1 PUSH2 0x2662 JUMP JUMPDEST SWAP1 DUP2 MSTORE PUSH1 0x40 DUP1 MLOAD SWAP2 DUP3 SWAP1 SUB PUSH1 0x20 SWAP1 DUP2 ADD DUP4 KECCAK256 DUP1 SLOAD DUP1 DUP4 MUL DUP6 ADD DUP4 ADD SWAP1 SWAP4 MSTORE DUP3 DUP5 MSTORE SWAP2 SWAP1 DUP4 ADD DUP3 DUP3 DUP1 ISZERO PUSH2 0x1B89 JUMPI PUSH1 0x20 MUL DUP3 ADD SWAP2 SWAP1 PUSH1 0x0 MSTORE PUSH1 0x20 PUSH1 0x0 KECCAK256 SWAP1 JUMPDEST DUP2 SLOAD PUSH1 0x1 PUSH1 0x1 PUSH1 0xA0 SHL SUB AND DUP2 MSTORE PUSH1 0x1 SWAP1 SWAP2 ADD SWAP1 PUSH1 0x20 ADD DUP1 DUP4 GT PUSH2 0x1B6B JUMPI JUMPDEST POP POP POP POP POP SWAP1 POP PUSH1 0x0 JUMPDEST DUP2 MLOAD DUP2 LT ISZERO PUSH2 0x1C17 JUMPI PUSH1 0x0 PUSH1 0x4 DUP5 PUSH1 0x40 MLOAD PUSH2 0x1BAE SWAP2 SWAP1 PUSH2 0x2662 JUMP JUMPDEST SWAP1 DUP2 MSTORE PUSH1 0x20 ADD PUSH1 0x40 MLOAD DUP1 SWAP2 SUB SWAP1 KECCAK256 PUSH1 0x0 DUP5 DUP5 DUP2 MLOAD DUP2 LT PUSH2 0x1BD0 JUMPI PUSH2 0x1BD0 PUSH2 0x25DB JUMP JUMPDEST PUSH1 0x20 SWAP1 DUP2 MUL SWAP2 SWAP1 SWAP2 ADD DUP2 ADD MLOAD PUSH1 0x1 PUSH1 0x1 PUSH1 0xA0 SHL SUB AND DUP3 MSTORE DUP2 ADD SWAP2 SWAP1 SWAP2 MSTORE PUSH1 0x40 ADD PUSH1 0x0 KECCAK256 PUSH1 0x1 ADD DUP1 SLOAD PUSH1 0xFF NOT AND SWAP2 ISZERO ISZERO SWAP2 SWAP1 SWAP2 OR SWAP1 SSTORE DUP1 PUSH2 0x1C0F DUP2 PUSH2 0x2636 JUMP JUMPDEST SWAP2 POP POP PUSH2 0x1B93 JUMP JUMPDEST POP POP POP DUP1 DUP1 PUSH2 0x1C25 SWAP1 PUSH2 0x2636 JUMP JUMPDEST SWAP2 POP POP PUSH2 0x1AF4 JUMP JUMPDEST POP POP JUMP JUMPDEST PUSH1 0x0 DUP1 PUSH1 0xA SLOAD TIMESTAMP PUSH2 0x1C42 SWAP2 SWAP1 PUSH2 0x267E JUMP JUMPDEST SWAP1 POP PUSH2 0x258 DUP2 GT ISZERO PUSH2 0x1C53 JUMPI POP PUSH2 0x258 JUMPDEST PUSH2 0x1C65 PUSH8 0xDE0B6B3A7640000 DUP3 PUSH2 0x27E1 JUMP JUMPDEST SWAP2 POP POP SWAP1 JUMP JUMPDEST DUP3 DUP1 SLOAD DUP3 DUP3 SSTORE SWAP1 PUSH1 0x0 MSTORE PUSH1 0x20 PUSH1 0x0 KECCAK256 SWAP1 DUP2 ADD SWAP3 DUP3 ISZERO PUSH2 0x1CB1 JUMPI SWAP2 PUSH1 0x20 MUL DUP3 ADD JUMPDEST DUP3 DUP2 GT ISZERO PUSH2 0x1CB1 JUMPI DUP3 MLOAD DUP3 SWAP1 PUSH2 0x1CA1 SWAP1 DUP3 PUSH2 0x2890 JUMP JUMPDEST POP SWAP2 PUSH1 0x20 ADD SWAP2 SWAP1 PUSH1 0x1 ADD SWAP1 PUSH2 0x1C8B JUMP JUMPDEST POP PUSH2 0x1CBD SWAP3 SWAP2 POP PUSH2 0x1CC1 JUMP JUMPDEST POP SWAP1 JUMP JUMPDEST DUP1 DUP3 GT ISZERO PUSH2 0x1CBD JUMPI PUSH1 0x0 PUSH2 0x1CD5 DUP3 DUP3 PUSH2 0x1CDE JUMP JUMPDEST POP PUSH1 0x1 ADD PUSH2 0x1CC1 JUMP JUMPDEST POP DUP1 SLOAD PUSH2 0x1CEA SWAP1 PUSH2 0x26BB JUMP JUMPDEST PUSH1 0x0 DUP3 SSTORE DUP1 PUSH1 0x1F LT PUSH2 0x1CFA JUMPI POP POP JUMP JUMPDEST PUSH1 0x1F ADD PUSH1 0x20 SWAP1 DIV SWAP1 PUSH1 0x0 MSTORE PUSH1 0x20 PUSH1 0x0 KECCAK256 SWAP1 DUP2 ADD SWAP1 PUSH2 0x13EE SWAP2 SWAP1 JUMPDEST DUP1 DUP3 GT ISZERO PUSH2 0x1CBD JUMPI PUSH1 0x0 DUP2 SSTORE PUSH1 0x1 ADD PUSH2 0x1D14 JUMP JUMPDEST PUSH4 0x4E487B71 PUSH1 0xE0 SHL PUSH1 0x0 MSTORE PUSH1 0x41 PUSH1 0x4 MSTORE PUSH1 0x24 PUSH1 0x0 REVERT JUMPDEST PUSH1 0x40 DUP1 MLOAD SWAP1 DUP2 ADD PUSH1 0x1 PUSH1 0x1 PUSH1 0x40 SHL SUB DUP2 GT DUP3 DUP3 LT OR ISZERO PUSH2 0x1D60 JUMPI PUSH2 0x1D60 PUSH2 0x1D28 JUMP JUMPDEST PUSH1 0x40 MSTORE SWAP1 JUMP JUMPDEST PUSH1 0x40 MLOAD PUSH1 0x1F DUP3 ADD PUSH1 0x1F NOT AND DUP2 ADD PUSH1 0x1 PUSH1 0x1 PUSH1 0x40 SHL SUB DUP2 GT DUP3 DUP3 LT OR ISZERO PUSH2 0x1D8E JUMPI PUSH2 0x1D8E PUSH2 0x1D28 JUMP JUMPDEST PUSH1 0x40 MSTORE SWAP2 SWAP1 POP JUMP JUMPDEST PUSH1 0x0 PUSH1 0x1 PUSH1 0x1 PUSH1 0x40 SHL SUB DUP3 GT ISZERO PUSH2 0x1DAF JUMPI PUSH2 0x1DAF PUSH2 0x1D28 JUMP JUMPDEST POP PUSH1 0x5 SHL PUSH1 0x20 ADD SWAP1 JUMP JUMPDEST PUSH1 0x0 PUSH1 0x1 PUSH1 0x1 PUSH1 0x40 SHL SUB DUP3 GT ISZERO PUSH2 0x1DD2 JUMPI PUSH2 0x1DD2 PUSH2 0x1D28 JUMP JUMPDEST POP PUSH1 0x1F ADD PUSH1 0x1F NOT AND PUSH1 0x20 ADD SWAP1 JUMP JUMPDEST PUSH1 0x0 DUP3 PUSH1 0x1F DUP4 ADD SLT PUSH2 0x1DF1 JUMPI PUSH1 0x0 DUP1 REVERT JUMPDEST DUP2 CALLDATALOAD PUSH2 0x1E04 PUSH2 0x1DFF DUP3 PUSH2 0x1DB9 JUMP JUMPDEST PUSH2 0x1D66 JUMP JUMPDEST DUP2 DUP2 MSTORE DUP5 PUSH1 0x20 DUP4 DUP7 ADD ADD GT ISZERO PUSH2 0x1E19 JUMPI PUSH1 0x0 DUP1 REVERT JUMPDEST DUP2 PUSH1 0x20 DUP6 ADD PUSH1 0x20 DUP4 ADD CALLDATACOPY PUSH1 0x0 SWAP2 DUP2 ADD PUSH1 0x20 ADD SWAP2 SWAP1 SWAP2 MSTORE SWAP4 SWAP3 POP POP POP JUMP JUMPDEST PUSH1 0x0 DUP3 PUSH1 0x1F DUP4 ADD SLT PUSH2 0x1E47 JUMPI PUSH1 0x0 DUP1 REVERT JUMPDEST DUP2 CALLDATALOAD PUSH1 0x20 PUSH2 0x1E57 PUSH2 0x1DFF DUP4 PUSH2 0x1D96 JUMP JUMPDEST DUP3 DUP2 MSTORE PUSH1 0x5 SWAP3 SWAP1 SWAP3 SHL DUP5 ADD DUP2 ADD SWAP2 DUP2 DUP2 ADD SWAP1 DUP7 DUP5 GT ISZERO PUSH2 0x1E76 JUMPI PUSH1 0x0 DUP1 REVERT JUMPDEST DUP3 DUP7 ADD JUMPDEST DUP5 DUP2 LT ISZERO PUSH2 0x1EB5 JUMPI DUP1 CALLDATALOAD PUSH1 0x1 PUSH1 0x1 PUSH1 0x40 SHL SUB DUP2 GT ISZERO PUSH2 0x1E99 JUMPI PUSH1 0x0 DUP1 DUP2 REVERT JUMPDEST PUSH2 0x1EA7 DUP10 DUP7 DUP4 DUP12 ADD ADD PUSH2 0x1DE0 JUMP JUMPDEST DUP5 MSTORE POP SWAP2 DUP4 ADD SWAP2 DUP4 ADD PUSH2 0x1E7A JUMP JUMPDEST POP SWAP7 SWAP6 POP POP POP POP POP POP JUMP JUMPDEST PUSH1 0x0 PUSH1 0x20 DUP3 DUP5 SUB SLT ISZERO PUSH2 0x1ED2 JUMPI PUSH1 0x0 DUP1 REVERT JUMPDEST DUP2 CALLDATALOAD PUSH1 0x1 PUSH1 0x1 PUSH1 0x40 SHL SUB DUP2 GT ISZERO PUSH2 0x1EE8 JUMPI PUSH1 0x0 DUP1 REVERT JUMPDEST PUSH2 0x1EF4 DUP5 DUP3 DUP6 ADD PUSH2 0x1E36 JUMP JUMPDEST SWAP5 SWAP4 POP POP POP POP JUMP JUMPDEST PUSH1 0x20 DUP1 DUP3 MSTORE DUP3 MLOAD DUP3 DUP3 ADD DUP2 SWAP1 MSTORE PUSH1 0x0 SWAP2 SWAP1 DUP5 DUP3 ADD SWAP1 PUSH1 0x40 DUP6 ADD SWAP1 DUP5 JUMPDEST DUP2 DUP2 LT ISZERO PUSH2 0x1F3D JUMPI DUP4 MLOAD PUSH1 0x1 PUSH1 0x1 PUSH1 0xA0 SHL SUB AND DUP4 MSTORE SWAP3 DUP5 ADD SWAP3 SWAP2 DUP5 ADD SWAP2 PUSH1 0x1 ADD PUSH2 0x1F18 JUMP JUMPDEST POP SWAP1 SWAP7 SWAP6 POP POP POP POP POP POP JUMP JUMPDEST DUP1 PUSH2 0x4000 DUP2 ADD DUP4 LT ISZERO PUSH2 0x33C JUMPI PUSH1 0x0 DUP1 REVERT JUMPDEST DUP1 PUSH2 0x2000 DUP2 ADD DUP4 LT ISZERO PUSH2 0x33C JUMPI PUSH1 0x0 DUP1 REVERT JUMPDEST PUSH1 0x1 PUSH1 0x1 PUSH1 0xA0 SHL SUB DUP2 AND DUP2 EQ PUSH2 0x13EE JUMPI PUSH1 0x0 DUP1 REVERT JUMPDEST DUP1 CALLDATALOAD PUSH2 0x1F8D DUP2 PUSH2 0x1F6D JUMP JUMPDEST SWAP2 SWAP1 POP JUMP JUMPDEST PUSH1 0x0 DUP1 PUSH1 0x0 DUP1 PUSH2 0x4060 DUP6 DUP8 SUB SLT ISZERO PUSH2 0x1FA9 JUMPI PUSH1 0x0 DUP1 REVERT JUMPDEST PUSH2 0x1FB3 DUP7 DUP7 PUSH2 0x1F49 JUMP JUMPDEST SWAP4 POP PUSH2 0x4000 DUP6 ADD CALLDATALOAD PUSH1 0x1 PUSH1 0x1 PUSH1 0x40 SHL SUB DUP2 GT ISZERO PUSH2 0x1FCF JUMPI PUSH1 0x0 DUP1 REVERT JUMPDEST PUSH2 0x1FDB DUP8 DUP3 DUP9 ADD PUSH2 0x1F5B JUMP JUMPDEST SWAP4 POP POP PUSH2 0x4020 DUP6 ADD CALLDATALOAD SWAP2 POP PUSH2 0x4040 DUP6 ADD CALLDATALOAD PUSH2 0x1FF5 DUP2 PUSH2 0x1F6D JUMP JUMPDEST SWAP4 SWAP7 SWAP3 SWAP6 POP SWAP1 SWAP4 POP POP JUMP JUMPDEST PUSH1 0x0 DUP1 PUSH1 0x0 DUP1 PUSH2 0x4060 DUP6 DUP8 SUB SLT ISZERO PUSH2 0x2017 JUMPI PUSH1 0x0 DUP1 REVERT JUMPDEST DUP5 CALLDATALOAD SWAP4 POP PUSH2 0x2028 DUP7 PUSH1 0x20 DUP8 ADD PUSH2 0x1F49 JUMP JUMPDEST SWAP3 POP PUSH2 0x4020 DUP6 ADD CALLDATALOAD PUSH1 0x1 PUSH1 0x1 PUSH1 0x40 SHL SUB DUP2 GT ISZERO PUSH2 0x2044 JUMPI PUSH1 0x0 DUP1 REVERT JUMPDEST PUSH2 0x2050 DUP8 DUP3 DUP9 ADD PUSH2 0x1F5B JUMP JUMPDEST SWAP5 SWAP8 SWAP4 SWAP7 POP SWAP4 SWAP5 PUSH2 0x4040 ADD CALLDATALOAD SWAP4 POP POP POP JUMP JUMPDEST PUSH1 0x0 DUP1 PUSH1 0x40 DUP4 DUP6 SUB SLT ISZERO PUSH2 0x2075 JUMPI PUSH1 0x0 DUP1 REVERT JUMPDEST DUP3 CALLDATALOAD PUSH1 0x1 PUSH1 0x1 PUSH1 0x40 SHL SUB DUP2 GT ISZERO PUSH2 0x208B JUMPI PUSH1 0x0 DUP1 REVERT JUMPDEST PUSH2 0x2097 DUP6 DUP3 DUP7 ADD PUSH2 0x1DE0 JUMP JUMPDEST SWAP3 POP POP PUSH1 0x20 DUP4 ADD CALLDATALOAD PUSH2 0x20A8 DUP2 PUSH2 0x1F6D JUMP JUMPDEST DUP1 SWAP2 POP POP SWAP3 POP SWAP3 SWAP1 POP JUMP JUMPDEST DUP1 ISZERO ISZERO DUP2 EQ PUSH2 0x13EE JUMPI PUSH1 0x0 DUP1 REVERT JUMPDEST DUP1 CALLDATALOAD PUSH2 0x1F8D DUP2 PUSH2 0x20B3 JUMP JUMPDEST PUSH1 0x0 DUP1 PUSH1 0x0 PUSH1 0x60 DUP5 DUP7 SUB SLT ISZERO PUSH2 0x20E1 JUMPI PUSH1 0x0 DUP1 REVERT JUMPDEST DUP4 CALLDATALOAD PUSH1 0x1 PUSH1 0x1 PUSH1 0x40 SHL SUB DUP1 DUP3 GT ISZERO PUSH2 0x20F8 JUMPI PUSH1 0x0 DUP1 REVERT JUMPDEST DUP2 DUP7 ADD SWAP2 POP DUP7 PUSH1 0x1F DUP4 ADD SLT PUSH2 0x210C JUMPI PUSH1 0x0 DUP1 REVERT JUMPDEST DUP2 CALLDATALOAD PUSH1 0x20 PUSH2 0x211C PUSH2 0x1DFF DUP4 PUSH2 0x1D96 JUMP JUMPDEST DUP3 DUP2 MSTORE PUSH1 0x5 SWAP3 SWAP1 SWAP3 SHL DUP5 ADD DUP2 ADD SWAP2 DUP2 DUP2 ADD SWAP1 DUP11 DUP5 GT ISZERO PUSH2 0x213B JUMPI PUSH1 0x0 DUP1 REVERT JUMPDEST DUP3 DUP7 ADD JUMPDEST DUP5 DUP2 LT ISZERO PUSH2 0x21CC JUMPI DUP1 CALLDATALOAD DUP7 DUP2 GT ISZERO PUSH2 0x2156 JUMPI PUSH1 0x0 DUP1 REVERT JUMPDEST DUP8 ADD PUSH1 0x40 DUP2 DUP15 SUB PUSH1 0x1F NOT ADD SLT ISZERO PUSH2 0x216D JUMPI PUSH1 0x0 DUP1 DUP2 REVERT JUMPDEST PUSH2 0x2175 PUSH2 0x1D3E JUMP JUMPDEST DUP6 DUP3 ADD CALLDATALOAD DUP9 DUP2 GT ISZERO PUSH2 0x2187 JUMPI PUSH1 0x0 DUP1 DUP2 REVERT JUMPDEST PUSH2 0x2195 DUP16 DUP9 DUP4 DUP7 ADD ADD PUSH2 0x1DE0 JUMP JUMPDEST DUP3 MSTORE POP PUSH1 0x40 DUP3 ADD CALLDATALOAD DUP9 DUP2 GT ISZERO PUSH2 0x21AB JUMPI PUSH1 0x0 DUP1 DUP2 REVERT JUMPDEST PUSH2 0x21B9 DUP16 DUP9 DUP4 DUP7 ADD ADD PUSH2 0x1E36 JUMP JUMPDEST DUP3 DUP9 ADD MSTORE POP DUP5 MSTORE POP SWAP2 DUP4 ADD SWAP2 DUP4 ADD PUSH2 0x213F JUMP JUMPDEST POP SWAP8 POP PUSH2 0x21DC SWAP1 POP DUP9 DUP3 ADD PUSH2 0x1F82 JUMP JUMPDEST SWAP6 POP POP POP POP POP PUSH2 0x21EE PUSH1 0x40 DUP6 ADD PUSH2 0x20C1 JUMP JUMPDEST SWAP1 POP SWAP3 POP SWAP3 POP SWAP3 JUMP JUMPDEST PUSH1 0x0 DUP1 PUSH1 0x40 DUP4 DUP6 SUB SLT ISZERO PUSH2 0x220A JUMPI PUSH1 0x0 DUP1 REVERT JUMPDEST POP POP DUP1 CALLDATALOAD SWAP3 PUSH1 0x20 SWAP1 SWAP2 ADD CALLDATALOAD SWAP2 POP JUMP JUMPDEST PUSH1 0x0 JUMPDEST DUP4 DUP2 LT ISZERO PUSH2 0x2234 JUMPI DUP2 DUP2 ADD MLOAD DUP4 DUP3 ADD MSTORE PUSH1 0x20 ADD PUSH2 0x221C JUMP JUMPDEST POP POP PUSH1 0x0 SWAP2 ADD MSTORE JUMP JUMPDEST PUSH1 0x0 DUP2 MLOAD DUP1 DUP5 MSTORE PUSH2 0x2255 DUP2 PUSH1 0x20 DUP7 ADD PUSH1 0x20 DUP7 ADD PUSH2 0x2219 JUMP JUMPDEST PUSH1 0x1F ADD PUSH1 0x1F NOT AND SWAP3 SWAP1 SWAP3 ADD PUSH1 0x20 ADD SWAP3 SWAP2 POP POP JUMP JUMPDEST PUSH1 0x20 DUP2 MSTORE PUSH1 0x0 PUSH2 0x227C PUSH1 0x20 DUP4 ADD DUP5 PUSH2 0x223D JUMP JUMPDEST SWAP4 SWAP3 POP POP POP JUMP JUMPDEST PUSH1 0x0 PUSH1 0x20 DUP3 DUP5 SUB SLT ISZERO PUSH2 0x2295 JUMPI PUSH1 0x0 DUP1 REVERT JUMPDEST DUP2 CALLDATALOAD PUSH2 0x227C DUP2 PUSH2 0x1F6D JUMP JUMPDEST PUSH1 0x0 PUSH1 0x20 DUP1 DUP4 ADD DUP2 DUP5 MSTORE DUP1 DUP6 MLOAD DUP1 DUP4 MSTORE PUSH1 0x40 DUP7 ADD SWAP2 POP PUSH1 0x40 DUP2 PUSH1 0x5 SHL DUP8 ADD ADD SWAP3 POP DUP4 DUP8 ADD PUSH1 0x0 JUMPDEST DUP3 DUP2 LT ISZERO PUSH2 0x22F5 JUMPI PUSH1 0x3F NOT DUP9 DUP7 SUB ADD DUP5 MSTORE PUSH2 0x22E3 DUP6 DUP4 MLOAD PUSH2 0x223D JUMP JUMPDEST SWAP5 POP SWAP3 DUP6 ADD SWAP3 SWAP1 DUP6 ADD SWAP1 PUSH1 0x1 ADD PUSH2 0x22C7 JUMP JUMPDEST POP SWAP3 SWAP8 SWAP7 POP POP POP POP POP POP POP JUMP JUMPDEST PUSH1 0x0 PUSH1 0x20 DUP1 DUP4 DUP6 SUB SLT ISZERO PUSH2 0x2315 JUMPI PUSH1 0x0 DUP1 REVERT JUMPDEST DUP3 MLOAD PUSH1 0x1 PUSH1 0x1 PUSH1 0x40 SHL SUB DUP2 GT ISZERO PUSH2 0x232B JUMPI PUSH1 0x0 DUP1 REVERT JUMPDEST DUP4 ADD PUSH1 0x1F DUP2 ADD DUP6 SGT PUSH2 0x233C JUMPI PUSH1 0x0 DUP1 REVERT JUMPDEST DUP1 MLOAD PUSH2 0x234A PUSH2 0x1DFF DUP3 PUSH2 0x1D96 JUMP JUMPDEST DUP2 DUP2 MSTORE PUSH1 0x5 SWAP2 SWAP1 SWAP2 SHL DUP3 ADD DUP4 ADD SWAP1 DUP4 DUP2 ADD SWAP1 DUP8 DUP4 GT ISZERO PUSH2 0x2369 JUMPI PUSH1 0x0 DUP1 REVERT JUMPDEST SWAP3 DUP5 ADD SWAP3 JUMPDEST DUP3 DUP5 LT ISZERO PUSH2 0x2390 JUMPI DUP4 MLOAD PUSH2 0x2381 DUP2 PUSH2 0x1F6D JUMP JUMPDEST DUP3 MSTORE SWAP3 DUP5 ADD SWAP3 SWAP1 DUP5 ADD SWAP1 PUSH2 0x236E JUMP JUMPDEST SWAP8 SWAP7 POP POP POP POP POP POP POP JUMP JUMPDEST PUSH1 0x60 SWAP2 SWAP1 SWAP2 SHL PUSH12 0xFFFFFFFFFFFFFFFFFFFFFFFF NOT AND DUP2 MSTORE PUSH1 0x14 ADD SWAP1 JUMP JUMPDEST DUP2 DUP4 MSTORE DUP2 DUP2 PUSH1 0x20 DUP6 ADD CALLDATACOPY POP PUSH1 0x0 DUP3 DUP3 ADD PUSH1 0x20 SWAP1 DUP2 ADD SWAP2 SWAP1 SWAP2 MSTORE PUSH1 0x1F SWAP1 SWAP2 ADD PUSH1 0x1F NOT AND SWAP1 SWAP2 ADD ADD SWAP1 JUMP JUMPDEST PUSH1 0x0 PUSH2 0x4060 DUP3 DUP2 ADD DUP4 DUP9 DUP5 JUMPDEST PUSH2 0x100 DUP2 LT ISZERO PUSH2 0x240E JUMPI PUSH1 0x40 DUP1 DUP4 DUP6 CALLDATACOPY SWAP3 DUP4 ADD SWAP3 SWAP2 SWAP1 SWAP2 ADD SWAP1 PUSH1 0x1 ADD PUSH2 0x23ED JUMP JUMPDEST POP POP POP PUSH2 0x4000 DUP5 ADD SWAP2 SWAP1 SWAP2 MSTORE PUSH2 0x6060 DUP4 ADD DUP7 PUSH1 0x0 JUMPDEST PUSH2 0x100 DUP2 LT ISZERO PUSH2 0x2499 JUMPI DUP6 DUP4 SUB PUSH2 0x405F NOT ADD DUP5 MSTORE DUP2 CALLDATALOAD CALLDATASIZE DUP11 SWAP1 SUB PUSH1 0x1E NOT ADD DUP2 SLT PUSH2 0x244C JUMPI PUSH1 0x0 DUP1 REVERT JUMPDEST DUP10 ADD PUSH1 0x20 DUP2 DUP2 ADD SWAP2 CALLDATALOAD SWAP1 PUSH1 0x1 PUSH1 0x1 PUSH1 0x40 SHL SUB DUP3 GT ISZERO PUSH2 0x246A JUMPI PUSH1 0x0 DUP1 REVERT JUMPDEST DUP2 CALLDATASIZE SUB DUP4 SGT ISZERO PUSH2 0x2479 JUMPI PUSH1 0x0 DUP1 REVERT JUMPDEST PUSH2 0x2484 DUP7 DUP4 DUP6 PUSH2 0x23B8 JUMP JUMPDEST SWAP7 DUP2 ADD SWAP7 SWAP6 POP SWAP4 SWAP1 SWAP4 ADD SWAP3 POP POP PUSH1 0x1 ADD PUSH2 0x2423 JUMP JUMPDEST POP POP DUP6 PUSH2 0x4020 DUP6 ADD MSTORE DUP4 DUP2 SUB PUSH2 0x4040 DUP6 ADD MSTORE PUSH2 0x24B5 DUP2 DUP7 PUSH2 0x223D JUMP JUMPDEST SWAP9 SWAP8 POP POP POP POP POP POP POP POP JUMP JUMPDEST PUSH1 0x0 PUSH1 0x20 DUP3 DUP5 SUB SLT ISZERO PUSH2 0x24D3 JUMPI PUSH1 0x0 DUP1 REVERT JUMPDEST DUP2 MLOAD PUSH2 0x227C DUP2 PUSH2 0x20B3 JUMP JUMPDEST PUSH1 0x0 DUP2 DUP4 DUP3 JUMPDEST PUSH2 0x100 DUP2 LT ISZERO PUSH2 0x2505 JUMPI PUSH1 0x40 DUP1 DUP4 DUP6 CALLDATACOPY SWAP3 DUP4 ADD SWAP3 SWAP2 SWAP1 SWAP2 ADD SWAP1 PUSH1 0x1 ADD PUSH2 0x24E4 JUMP JUMPDEST POP POP POP PUSH2 0x4000 DUP3 ADD SWAP1 POP SWAP3 SWAP2 POP POP JUMP JUMPDEST PUSH1 0x0 DUP1 PUSH1 0x0 PUSH1 0x60 DUP5 DUP7 SUB SLT ISZERO PUSH2 0x252A JUMPI PUSH1 0x0 DUP1 REVERT JUMPDEST DUP4 MLOAD PUSH1 0x3 DUP2 LT PUSH2 0x2539 JUMPI PUSH1 0x0 DUP1 REVERT JUMPDEST PUSH1 0x20 DUP6 ADD MLOAD PUSH1 0x40 SWAP1 SWAP6 ADD MLOAD SWAP1 SWAP7 SWAP5 SWAP6 POP SWAP4 SWAP3 POP POP POP JUMP JUMPDEST PUSH1 0x0 DUP1 PUSH1 0x40 DUP4 DUP6 SUB SLT ISZERO PUSH2 0x2563 JUMPI PUSH1 0x0 DUP1 REVERT JUMPDEST POP POP DUP1 MLOAD PUSH1 0x20 SWAP1 SWAP2 ADD MLOAD SWAP1 SWAP3 SWAP1 SWAP2 POP JUMP JUMPDEST PUSH1 0x20 DUP1 DUP3 MSTORE PUSH1 0x41 SWAP1 DUP3 ADD MSTORE PUSH32 0x53616D6520504B48207573656420666F7220626F74682073746570733B207573 PUSH1 0x40 DUP3 ADD MSTORE PUSH32 0x652061207365706172617465206B657920666F7220636F6E6669726D6174696F PUSH1 0x60 DUP3 ADD MSTORE PUSH1 0x37 PUSH1 0xF9 SHL PUSH1 0x80 DUP3 ADD MSTORE PUSH1 0xA0 ADD SWAP1 JUMP JUMPDEST PUSH4 0x4E487B71 PUSH1 0xE0 SHL PUSH1 0x0 MSTORE PUSH1 0x32 PUSH1 0x4 MSTORE PUSH1 0x24 PUSH1 0x0 REVERT JUMPDEST PUSH1 0x0 DUP4 MLOAD PUSH2 0x2603 DUP2 DUP5 PUSH1 0x20 DUP9 ADD PUSH2 0x2219 JUMP JUMPDEST DUP4 MLOAD SWAP1 DUP4 ADD SWAP1 PUSH2 0x2617 DUP2 DUP4 PUSH1 0x20 DUP9 ADD PUSH2 0x2219 JUMP JUMPDEST ADD SWAP5 SWAP4 POP POP POP POP JUMP JUMPDEST PUSH4 0x4E487B71 PUSH1 0xE0 SHL PUSH1 0x0 MSTORE PUSH1 0x11 PUSH1 0x4 MSTORE PUSH1 0x24 PUSH1 0x0 REVERT JUMPDEST PUSH1 0x0 PUSH1 0x1 DUP3 ADD PUSH2 0x2648 JUMPI PUSH2 0x2648 PUSH2 0x2620 JUMP JUMPDEST POP PUSH1 0x1 ADD SWAP1 JUMP JUMPDEST DUP1 DUP3 ADD DUP1 DUP3 GT ISZERO PUSH2 0x33C JUMPI PUSH2 0x33C PUSH2 0x2620 JUMP JUMPDEST PUSH1 0x0 DUP3 MLOAD PUSH2 0x2674 DUP2 DUP5 PUSH1 0x20 DUP8 ADD PUSH2 0x2219 JUMP JUMPDEST SWAP2 SWAP1 SWAP2 ADD SWAP3 SWAP2 POP POP JUMP JUMPDEST DUP2 DUP2 SUB DUP2 DUP2 GT ISZERO PUSH2 0x33C JUMPI PUSH2 0x33C PUSH2 0x2620 JUMP JUMPDEST PUSH4 0x4E487B71 PUSH1 0xE0 SHL PUSH1 0x0 MSTORE PUSH1 0x12 PUSH1 0x4 MSTORE PUSH1 0x24 PUSH1 0x0 REVERT JUMPDEST PUSH1 0x0 DUP3 PUSH2 0x26B6 JUMPI PUSH2 0x26B6 PUSH2 0x2691 JUMP JUMPDEST POP MOD SWAP1 JUMP JUMPDEST PUSH1 0x1 DUP2 DUP2 SHR SWAP1 DUP3 AND DUP1 PUSH2 0x26CF JUMPI PUSH1 0x7F DUP3 AND SWAP2 POP JUMPDEST PUSH1 0x20 DUP3 LT DUP2 SUB PUSH2 0x26EF JUMPI PUSH4 0x4E487B71 PUSH1 0xE0 SHL PUSH1 0x0 MSTORE PUSH1 0x22 PUSH1 0x4 MSTORE PUSH1 0x24 PUSH1 0x0 REVERT JUMPDEST POP SWAP2 SWAP1 POP JUMP JUMPDEST PUSH1 0x0 PUSH1 0x20 DUP1 DUP4 DUP6 SUB SLT ISZERO PUSH2 0x2708 JUMPI PUSH1 0x0 DUP1 REVERT JUMPDEST DUP3 MLOAD PUSH1 0x1 PUSH1 0x1 PUSH1 0x40 SHL SUB DUP1 DUP3 GT ISZERO PUSH2 0x271F JUMPI PUSH1 0x0 DUP1 REVERT JUMPDEST DUP2 DUP6 ADD SWAP2 POP DUP6 PUSH1 0x1F DUP4 ADD SLT PUSH2 0x2733 JUMPI PUSH1 0x0 DUP1 REVERT JUMPDEST DUP2 MLOAD PUSH2 0x2741 PUSH2 0x1DFF DUP3 PUSH2 0x1D96 JUMP JUMPDEST DUP2 DUP2 MSTORE PUSH1 0x5 SWAP2 SWAP1 SWAP2 SHL DUP4 ADD DUP5 ADD SWAP1 DUP5 DUP2 ADD SWAP1 DUP9 DUP4 GT ISZERO PUSH2 0x2760 JUMPI PUSH1 0x0 DUP1 REVERT JUMPDEST DUP6 DUP6 ADD JUMPDEST DUP4 DUP2 LT ISZERO PUSH2 0x27D4 JUMPI DUP1 MLOAD DUP6 DUP2 GT ISZERO PUSH2 0x277C JUMPI PUSH1 0x0 DUP1 DUP2 REVERT JUMPDEST DUP7 ADD PUSH1 0x3F DUP2 ADD DUP12 SGT PUSH2 0x278E JUMPI PUSH1 0x0 DUP1 DUP2 REVERT JUMPDEST DUP8 DUP2 ADD MLOAD PUSH1 0x40 PUSH2 0x27A0 PUSH2 0x1DFF DUP4 PUSH2 0x1DB9 JUMP JUMPDEST DUP3 DUP2 MSTORE DUP14 DUP3 DUP5 DUP7 ADD ADD GT ISZERO PUSH2 0x27B5 JUMPI PUSH1 0x0 DUP1 DUP2 REVERT JUMPDEST PUSH2 0x27C4 DUP4 DUP13 DUP4 ADD DUP5 DUP8 ADD PUSH2 0x2219 JUMP JUMPDEST DUP7 MSTORE POP POP POP SWAP2 DUP7 ADD SWAP2 DUP7 ADD PUSH2 0x2764 JUMP JUMPDEST POP SWAP9 SWAP8 POP POP POP POP POP POP POP POP JUMP JUMPDEST DUP1 DUP3 MUL DUP2 ISZERO DUP3 DUP3 DIV DUP5 EQ OR PUSH2 0x33C JUMPI PUSH2 0x33C PUSH2 0x2620 JUMP JUMPDEST PUSH1 0x0 DUP3 PUSH2 0x2807 JUMPI PUSH2 0x2807 PUSH2 0x2691 JUMP JUMPDEST POP DIV SWAP1 JUMP JUMPDEST PUSH1 0x0 PUSH1 0x20 DUP3 DUP5 SUB SLT ISZERO PUSH2 0x281E JUMPI PUSH1 0x0 DUP1 REVERT JUMPDEST POP MLOAD SWAP2 SWAP1 POP JUMP JUMPDEST PUSH1 0x0 PUSH1 0x20 DUP3 DUP5 SUB SLT ISZERO PUSH2 0x2837 JUMPI PUSH1 0x0 DUP1 REVERT JUMPDEST DUP2 MLOAD PUSH2 0x227C DUP2 PUSH2 0x1F6D JUMP JUMPDEST PUSH1 0x1F DUP3 GT ISZERO PUSH2 0x1312 JUMPI PUSH1 0x0 DUP2 DUP2 MSTORE PUSH1 0x20 DUP2 KECCAK256 PUSH1 0x1F DUP6 ADD PUSH1 0x5 SHR DUP2 ADD PUSH1 0x20 DUP7 LT ISZERO PUSH2 0x2869 JUMPI POP DUP1 JUMPDEST PUSH1 0x1F DUP6 ADD PUSH1 0x5 SHR DUP3 ADD SWAP2 POP JUMPDEST DUP2 DUP2 LT ISZERO PUSH2 0x2888 JUMPI DUP3 DUP2 SSTORE PUSH1 0x1 ADD PUSH2 0x2875 JUMP JUMPDEST POP POP POP POP POP POP JUMP JUMPDEST DUP2 MLOAD PUSH1 0x1 PUSH1 0x1 PUSH1 0x40 SHL SUB DUP2 GT ISZERO PUSH2 0x28A9 JUMPI PUSH2 0x28A9 PUSH2 0x1D28 JUMP JUMPDEST PUSH2 0x28BD DUP2 PUSH2 0x28B7 DUP5 SLOAD PUSH2 0x26BB JUMP JUMPDEST DUP5 PUSH2 0x2842 JUMP JUMPDEST PUSH1 0x20 DUP1 PUSH1 0x1F DUP4 GT PUSH1 0x1 DUP2 EQ PUSH2 0x28F2 JUMPI PUSH1 0x0 DUP5 ISZERO PUSH2 0x28DA JUMPI POP DUP6 DUP4 ADD MLOAD JUMPDEST PUSH1 0x0 NOT PUSH1 0x3 DUP7 SWAP1 SHL SHR NOT AND PUSH1 0x1 DUP6 SWAP1 SHL OR DUP6 SSTORE PUSH2 0x2888 JUMP JUMPDEST PUSH1 0x0 DUP6 DUP2 MSTORE PUSH1 0x20 DUP2 KECCAK256 PUSH1 0x1F NOT DUP7 AND SWAP2 JUMPDEST DUP3 DUP2 LT ISZERO PUSH2 0x2921 JUMPI DUP9 DUP7 ADD MLOAD DUP3 SSTORE SWAP5 DUP5 ADD SWAP5 PUSH1 0x1 SWAP1 SWAP2 ADD SWAP1 DUP5 ADD PUSH2 0x2902 JUMP JUMPDEST POP DUP6 DUP3 LT ISZERO PUSH2 0x293F JUMPI DUP8 DUP6 ADD MLOAD PUSH1 0x0 NOT PUSH1 0x3 DUP9 SWAP1 SHL PUSH1 0xF8 AND SHR NOT AND DUP2 SSTORE JUMPDEST POP POP POP POP POP PUSH1 0x1 SWAP1 DUP2 SHL ADD SWAP1 SSTORE POP JUMP INVALID LOG2 PUSH5 0x6970667358 0x22 SLT KECCAK256 PUSH11 0x602F1E76FB58647A0C90AF PUSH14 0x5F9F6F826FCF766B9F0770B98805 EXTCODEHASH DUP10 PUSH13 0xA20464736F6C63430008140033 ",
  "sha1": "71e4e6c1410456facafbdc677db5ab4996865968",
  "source": "// SPDX-License-Identifier: MIT\n\npragma solidity ^0.8.0;\ninterface ILamportBase {\n\n    enum KeyType { MASTER, ORACLE, DELETED }\n\n    function performLamportOracleCheck(\n        bytes32[2][256] calldata currentpub,\n        bytes[256] calldata sig,\n        bytes32 nextPKH,\n        bytes memory prepacked\n    ) external returns (bool);\n    function performLamportMasterCheck(\n        bytes32[2][256] calldata currentpub,\n        bytes[256] calldata sig,\n        bytes32 nextPKH,\n        bytes memory prepacked\n    ) external returns (bool);\n\n    function getKeyAndIndexByPKH(bytes32 pkh) external view returns (KeyType, bytes32, uint);\n\n}\n\ninterface IPlayerDatabase {\n    function getOracleKeyIndices(address _address) external view returns (uint256 oracleKeyIndex1, uint256 oracleKeyIndex2);\n    function getAllPlayerNames() external view returns (string[] memory);\n    function getServerIPList() external view returns (string[] memory);\n    function getValidRewardAddressesByNames(string[] memory playerNames) external returns (address[] memory);\n    function isValidator(address _address) external view returns (bool);\n    function commissionAddress_() external view returns (address);\n    function coinCommission_() external view returns (uint256);\n}\n\ninterface IGP_Mint {\n    function mintTokens(address to, uint256 amount) external;\n    // Add other function signatures as needed\n}\ncontract GameValidator {\n\n    ILamportBase public lamportBase;\n\n    IPlayerDatabase playerDatabase;\n    IGP_Mint public mintContract;\n    event MintContractUpdated(address mintContractAddress);\n    event PlayerDatabaseAddressUpdated(address playerDatabaseAddress);\n\n    mapping(string => address[]) private validatorsPerServerIP;\n    mapping(string => mapping(address => ServerSubmission)) public serverSubmissions; \n    mapping(bytes32 => string[]) public hashToPlayerList; // playerListHash -> playerNames\n    mapping(address => address) private proposedMintContractAddresses;\n    mapping(address => address) private proposedPlayerDatabaseAddresses;\n    mapping(address => bytes32) private submittedPlayerListHashes;\n\n    bytes32 private lastUsedNextPKH;\n\n    uint256 public lastMintTime;\n    uint256 public constant MINT_INTERVAL = 5 minutes;\n    uint256 public constant MAX_PLAYERS_PER_SUBMISSION = 64;\n    uint256 public constant MAX_MINT_TIME = 10 minutes; // 10 minutes cap\n    uint256 public constant TOKENS_PER_SECOND = (1e18 * 60) / 60; // 1e18 represents 1 token, and we divide by 60 seconds\n    address _playerDatabaseAddress = 0x3b9467De1800bBB6ba6Bd3D1cb7e7BEBC0EFa96f;\n    address _mintContractAddress = 0xB05d57719694A1C073707906b0E13efFa5975504;\n    constructor(address _lamportBase, address __playerDatabaseAddress, address __mintContractAddress) {\n        lamportBase = ILamportBase(_lamportBase);\n        playerDatabase = IPlayerDatabase(__playerDatabaseAddress);\n        mintContract = IGP_Mint(__mintContractAddress);\n    }\n\n    struct ServerSubmission {\n        //address validator;\n        bytes32 playerListHash; // Hash of the player list for gas efficiency\n        bool canMint;\n    }\n\n    struct ServerPlayers {\n        string serverIP;\n        string[] playerNames;\n    }\n    //mapping(string => ServerSubmission[]) public serverSubmissions; // serverIP -> submissions\n    struct HashCount {\n        bytes32 hash;\n        uint256 count;\n    }\n\n\n    function updateMintContractAddressStepOne(\n        bytes32[2][256] calldata currentpub,\n        bytes[256] calldata sig,\n        bytes32 nextPKH,\n        address mintContractAddress\n    ) public {\n        // Encode the new contract address to bytes for the Lamport check\n        bytes memory prepacked = abi.encodePacked(mintContractAddress);\n\n        // Perform the Lamport Master Check directly calling lamportBase\n        bool isAuthorized = lamportBase.performLamportMasterCheck(currentpub, sig, nextPKH, prepacked);\n        \n        // Ensure that the Lamport Master Check passed\n        require(isAuthorized, \"Authorization failed for proposed update of Mint contract address\");\n\n        // Temporarily store the proposed Mint contract address for the sender\n        proposedMintContractAddresses[msg.sender] = mintContractAddress;\n        lastUsedNextPKH = nextPKH;\n    }\n\n    function updateMintContractAddressStepTwo(\n        bytes32[2][256] calldata currentpub,\n        bytes[256] calldata sig,\n        bytes32 nextPKH,\n        address mintContractAddress\n    ) public {\n        // Encode the new contract address to bytes for the Lamport check\n        bytes memory prepacked = abi.encodePacked(mintContractAddress);\n\n        // Perform the Lamport Master Check again\n\n        // Verify that the proposed contract address matches the address being confirmed\n        require(proposedMintContractAddresses[msg.sender] == mintContractAddress, \"Mint contract address update mismatch\");\n\n        // Ensure a different key is used for the confirmation step\n        bytes32 currentPKH = keccak256(abi.encodePacked(currentpub));\n        require(lastUsedNextPKH != currentPKH, \"Same PKH used for both steps; use a separate key for confirmation\");\n        bool isAuthorized = lamportBase.performLamportMasterCheck(currentpub, sig, nextPKH, prepacked);\n\n        // Ensure that the Lamport Master Check passed\n        require(isAuthorized, \"Authorization failed on confirmation of Mint contract address update\");\n\n        // Officially update the Mint contract address\n        mintContract = IGP_Mint(mintContractAddress);\n        emit MintContractUpdated(mintContractAddress);\n\n        // Clear the temporary storage\n        delete proposedMintContractAddresses[msg.sender];\n        lastUsedNextPKH = bytes32(0);\n    }\n\n    // Function to set the PlayerDatabase contract address\n    function updatePlayerDatabaseAddressStepOne(\n        bytes32[2][256] calldata currentpub,\n        bytes[256] calldata sig,\n        bytes32 nextPKH,\n        address playerDatabaseAddress\n    ) public {\n        // Encode the new PlayerDatabase contract address to bytes for the Lamport check\n        bytes memory prepacked = abi.encodePacked(playerDatabaseAddress);\n\n        // Perform the Lamport Master Check directly calling lamportBase\n        bool isAuthorized = lamportBase.performLamportMasterCheck(currentpub, sig, nextPKH, prepacked);\n        \n        // Ensure that the Lamport Master Check passed\n        require(isAuthorized, \"Authorization failed for proposed update of PlayerDatabase contract address\");\n\n        // Temporarily store the proposed PlayerDatabase contract address for the sender\n        proposedPlayerDatabaseAddresses[msg.sender] = playerDatabaseAddress;\n        lastUsedNextPKH = nextPKH;\n    }\n\n    function updatePlayerDatabaseAddressStepTwo(\n        bytes32[2][256] calldata currentpub,\n        bytes[256] calldata sig,\n        bytes32 nextPKH,\n        address playerDatabaseAddress\n    ) public {\n        // Encode the new PlayerDatabase contract address to bytes for the Lamport check\n        bytes memory prepacked = abi.encodePacked(playerDatabaseAddress);\n\n        // Perform the Lamport Master Check again\n\n        // Verify that the proposed contract address matches the address being confirmed\n        require(proposedPlayerDatabaseAddresses[msg.sender] == playerDatabaseAddress, \"PlayerDatabase contract address update mismatch\");\n\n        // Ensure a different key is used for the confirmation step\n        bytes32 currentPKH = keccak256(abi.encodePacked(currentpub));\n        require(lastUsedNextPKH != currentPKH, \"Same PKH used for both steps; use a separate key for confirmation\");\n        bool isAuthorized = lamportBase.performLamportMasterCheck(currentpub, sig, nextPKH, prepacked);\n\n        // Ensure that the Lamport Master Check passed\n        require(isAuthorized, \"Authorization failed on confirmation of PlayerDatabase contract address update\");\n\n        // Officially update the PlayerDatabase contract address\n        playerDatabase = IPlayerDatabase(playerDatabaseAddress);\n        emit PlayerDatabaseAddressUpdated(playerDatabaseAddress); // Assuming the existence of this event for traceability\n\n        // Clear the temporary storage\n        delete proposedPlayerDatabaseAddresses[msg.sender];\n        lastUsedNextPKH = bytes32(0);\n    }\n    \n    function calculateMintAmount() private view returns (uint256) {\n        uint256 elapsedSeconds = block.timestamp - lastMintTime;\n\n        if (elapsedSeconds > MAX_MINT_TIME) {\n            elapsedSeconds = MAX_MINT_TIME; // Cap the elapsed time to MAX_MINT_TIME\n        }\n\n        return elapsedSeconds * TOKENS_PER_SECOND; // Calculate the mint amount based on elapsed time\n    }\n\n    function updateValidatorsList(string memory serverIP, address validator) private {\n        bool validatorExists = false;\n        for (uint i = 0; i < validatorsPerServerIP[serverIP].length; i++) {\n            if (validatorsPerServerIP[serverIP][i] == validator) {\n                validatorExists = true;\n                break;\n            }\n        }\n        if (!validatorExists) {\n            validatorsPerServerIP[serverIP].push(validator);\n        }\n    }\n\n    function submitPlayerListStepOne(\n        bytes32 playerListHash,\n        bytes32[2][256] calldata currentpub,\n        bytes[256] calldata sig,\n        bytes32 nextPKH\n    ) public {\n        // Perform Lamport Oracle check with \"1\" as the prepacked value\n\n\n        // Calculate pkh from currentpub to ensure the caller is authorized\n        bytes32 pkh = keccak256(abi.encodePacked(currentpub));\n        (, , uint index) = lamportBase.getKeyAndIndexByPKH(pkh);\n        (uint256 oracleKeyIndex1, uint256 oracleKeyIndex2) = playerDatabase.getOracleKeyIndices(msg.sender);\n        require(\n            index == oracleKeyIndex1 || index == oracleKeyIndex2,\n            \"Caller's oracle key index does not match\"\n        );\n        require(\n            lamportBase.performLamportOracleCheck(\n                currentpub,\n                sig,\n                nextPKH,\n                abi.encodePacked(playerListHash)\n            ),\n            \"Lamport oracle check failed\"\n        );\n        submittedPlayerListHashes[msg.sender] = playerListHash;\n    }\n\n\n    function submitPlayerListStepTwo(ServerPlayers[] memory serverPlayerLists, address validatorID, bool canMintFlag) public {\n        require(isValidator(validatorID), \"Caller is not a registered validator\");\n        bytes memory encodedData;\n        for (uint i = 0; i < serverPlayerLists.length; i++) {\n            encodedData = abi.encodePacked(encodedData, serverPlayerLists[i].serverIP); // Include server IP in the hash\n            for (uint j = 0; j < serverPlayerLists[i].playerNames.length; j++) {\n                encodedData = abi.encodePacked(encodedData, serverPlayerLists[i].playerNames[j]);\n            }\n        }\n        // bytes32 computedHash = keccak256(encodedData);\n        // require(computedHash == submittedPlayerListHashes[validatorID], \"List hash does not match previously provided hash.\");\n\n        uint256 totalPlayerCount = 0;\n\n\n        for (uint i = 0; i < serverPlayerLists.length; i++) {\n            uint256 serverPlayerCount = serverPlayerLists[i].playerNames.length;\n            if (totalPlayerCount + serverPlayerCount > MAX_PLAYERS_PER_SUBMISSION) {\n                break; // Stop if the max players per submission is exceeded\n            }\n            totalPlayerCount += serverPlayerCount;\n\n            // Encode each string in the playerNames array individually\n            bytes memory encodedPlayerNames;\n            for (uint j = 0; j < serverPlayerLists[i].playerNames.length; j++) {\n                encodedPlayerNames = abi.encodePacked(encodedPlayerNames, serverPlayerLists[i].playerNames[j]);\n            }\n\n            // Compute the hash of the concatenated byte array\n            bytes32 playerListHash = keccak256(encodedPlayerNames);\n            hashToPlayerList[playerListHash] = serverPlayerLists[i].playerNames;\n\n            // Update or add the validator to the list for this server IP\n            updateValidatorsList(serverPlayerLists[i].serverIP, validatorID);\n\n            // Overwrite the existing submission for this server IP and validator\n            serverSubmissions[serverPlayerLists[i].serverIP][validatorID] = ServerSubmission({\n                playerListHash: playerListHash,\n                canMint: canMintFlag\n            });\n        }\n        // Check if it's time to perform mass minting\n        uint256 currentTime = block.timestamp;\n        uint256 timeSinceLastMint = currentTime - lastMintTime;\n        uint256 timeToNextInterval = MINT_INTERVAL - (currentTime % MINT_INTERVAL);\n\n        if (timeSinceLastMint >= MINT_INTERVAL && timeToNextInterval < MINT_INTERVAL) {\n            performMassMinting();\n            lastMintTime = currentTime - timeToNextInterval; // Align with the 5-minute interval\n        }\n    }\n    // function submitPlayerList(ServerPlayers[] memory serverPlayerLists, address validatorID, bool canMintFlag) public {\n    //     require(isValidator(validatorID), \"Caller is not a registered validator\");\n\n    //     uint256 totalPlayerCount = 0;\n\n    //     for (uint i = 0; i < serverPlayerLists.length; i++) {\n    //         uint256 serverPlayerCount = serverPlayerLists[i].playerNames.length;\n    //         if (totalPlayerCount + serverPlayerCount > MAX_PLAYERS_PER_SUBMISSION) {\n    //             break; // Stop if the max players per submission is exceeded\n    //         }\n\n    //         totalPlayerCount += serverPlayerCount;\n\n    //         // Create a hash for the player list\n    //         bytes32 playerListHash = keccak256(abi.encodePacked(serverPlayerLists[i].playerNames));\n    //         hashToPlayerList[playerListHash] = serverPlayerLists[i].playerNames;\n\n    //         // Overwrite the existing submission for this server IP and validator\n    //         serverSubmissions[serverPlayerLists[i].serverIP][validatorID] = ServerSubmission({\n    //             playerListHash: playerListHash,\n    //             canMint: canMintFlag\n    //         });\n    //     }\n    // }\n\n    function isValidator(address _address) public view returns (bool) {\n        //PlayerDatabase playerDatabase = PlayerDatabase(playerDatabaseAddress);\n        return playerDatabase.isValidator(_address);\n    }\n\n    function resetSubmissions() private {\n        string[] memory serverIPs = playerDatabase.getServerIPList();\n        for (uint i = 0; i < serverIPs.length; i++) {\n            string memory serverIP = serverIPs[i];\n            address[] memory validators = validatorsPerServerIP[serverIP];\n            for (uint j = 0; j < validators.length; j++) {\n                serverSubmissions[serverIP][validators[j]].canMint = false;\n            }\n        }\n    }\n\n    // Function to perform mass minting\n    function performMassMinting() private {\n        string[] memory serverIPs = playerDatabase.getServerIPList();\n        for (uint i = 0; i < serverIPs.length; i++) {\n            string memory serverIP = serverIPs[i];\n            bytes32 commonHash = findMostCommonHash(serverIP);\n            if (commonHash != bytes32(0)) {\n                mintForServer(commonHash);\n            }\n        }\n        resetSubmissions();\n    }\n    function mintForServer(bytes32 playerListHash) private {\n        // Retrieve the player list for the given hash\n        //string[] memory playerList = hashToPlayerList[playerListHash];\n        string[] memory playerList = new string[](4);\n        playerList[0] = \"legopowa\";\n        playerList[1] = \"Player1\";\n        playerList[2] = \"Player2\";\n        playerList[3] = \"Player3\";\n        address[] memory rewardAddresses = getValidRewardAddressesByNames(playerList);\n\n        uint256 playerCount = rewardAddresses.length;\n        uint256 mintAmountPerPlayer = calculateMintAmount(); // Define logic for mint amount\n        uint256 commissionPercentage = playerDatabase.coinCommission_();\n\n        // Net mint amount per player after subtracting the commission percentage\n        uint256 netMintAmountPerPlayer = mintAmountPerPlayer * (10000 - commissionPercentage) / 10000;\n        uint256 totalCommission = mintAmountPerPlayer * commissionPercentage / 10000 * playerCount;\n\n        // Mint tokens for each player\n        for (uint i = 0; i < rewardAddresses.length; i++) {\n            if (rewardAddresses[i] != address(0)) { // Check for valid address\n                mintContract.mintTokens(rewardAddresses[i], netMintAmountPerPlayer);\n            }\n        }\n\n        // Send the total commission to the commission address in one go\n        address commissionAddr = playerDatabase.commissionAddress_();\n        mintContract.mintTokens(commissionAddr, totalCommission);\n    }\n    function findMostCommonHash(string memory serverIP) private view returns (bytes32) {\n        // Assume validatorsPerServerIP is a mapping that tracks validators per server IP\n        address[] memory validators = validatorsPerServerIP[serverIP];\n        uint256 majorityThreshold = (validators.length * 60) / 100; // 60% of total validators\n\n        bytes32 majorityHash = bytes32(0);\n        uint256 highestCount = 0;\n\n        // Use a structure to keep track of each hash count\n\n\n        HashCount[] memory hashCounts = new HashCount[](validators.length);\n\n        // Count occurrences of each hash\n        for (uint i = 0; i < validators.length; i++) {\n            bytes32 currentHash = serverSubmissions[serverIP][validators[i]].playerListHash;\n            bool found = false;\n\n            for (uint j = 0; j < hashCounts.length; j++) {\n                if (hashCounts[j].hash == currentHash) {\n                    hashCounts[j].count++;\n                    found = true;\n                    break;\n                }\n            }\n\n            if (!found) {\n                hashCounts[i] = HashCount({hash: currentHash, count: 1});\n            }\n\n            // Update majority hash if necessary\n            if (hashCounts[i].count > highestCount) {\n                highestCount = hashCounts[i].count;\n                majorityHash = hashCounts[i].hash;\n            }\n        }\n\n        // Check if the highest count meets the majority threshold\n        if (highestCount >= majorityThreshold) {\n            return majorityHash;\n        }\n\n        return bytes32(0); // No majority found\n    }\n\n    // Helper function to check if a hash is present in the tempUniqueHashes array\n\n\n    function getValidRewardAddressesByNames(string[] memory playerNames) public returns (address[] memory) {\n        return playerDatabase.getValidRewardAddressesByNames(playerNames);\n    }\n\n\n\n    // Additional functions...\n}\n",
  "sourcePath": "contracts/6_Activity_Validator_0-20.sol",
  "type": "contract"
}