{
  "abi": [
    {
      "inputs": [],
      "stateMutability": "nonpayable",
      "type": "constructor"
    },
    {
      "anonymous": false,
      "inputs": [
        {
          "indexed": false,
          "internalType": "enum LamportBase2.KeyType",
          "name": "keyType",
          "type": "uint8"
        },
        {
          "indexed": false,
          "internalType": "bytes32",
          "name": "newPKH",
          "type": "bytes32"
        }
      ],
      "name": "KeyAdded",
      "type": "event"
    },
    {
      "anonymous": false,
      "inputs": [
        {
          "indexed": false,
          "internalType": "enum LamportBase2.KeyType",
          "name": "originalKeyType",
          "type": "uint8"
        },
        {
          "indexed": false,
          "internalType": "bytes32",
          "name": "originalPKH",
          "type": "bytes32"
        },
        {
          "indexed": false,
          "internalType": "bytes32",
          "name": "modifiedPKH",
          "type": "bytes32"
        },
        {
          "indexed": false,
          "internalType": "enum LamportBase2.KeyType",
          "name": "newKeyType",
          "type": "uint8"
        }
      ],
      "name": "KeyModified",
      "type": "event"
    },
    {
      "anonymous": false,
      "inputs": [
        {
          "indexed": false,
          "internalType": "uint256",
          "name": "hash",
          "type": "uint256"
        }
      ],
      "name": "LogLastCalculatedHash",
      "type": "event"
    },
    {
      "anonymous": false,
      "inputs": [
        {
          "indexed": false,
          "internalType": "enum LamportBase2.KeyType",
          "name": "keyType",
          "type": "uint8"
        },
        {
          "indexed": false,
          "internalType": "bytes32",
          "name": "previousPKH",
          "type": "bytes32"
        },
        {
          "indexed": false,
          "internalType": "bytes32",
          "name": "newPKH",
          "type": "bytes32"
        }
      ],
      "name": "PkhUpdated",
      "type": "event"
    },
    {
      "anonymous": false,
      "inputs": [
        {
          "indexed": false,
          "internalType": "uint256",
          "name": "hashedData",
          "type": "uint256"
        }
      ],
      "name": "VerificationFailed",
      "type": "event"
    },
    {
      "inputs": [
        {
          "internalType": "bytes32[2][256]",
          "name": "currentpub",
          "type": "bytes32[2][256]"
        },
        {
          "internalType": "bytes[256]",
          "name": "sig",
          "type": "bytes[256]"
        },
        {
          "internalType": "bytes32",
          "name": "nextPKH",
          "type": "bytes32"
        },
        {
          "internalType": "bytes32",
          "name": "newmasterPKH",
          "type": "bytes32"
        }
      ],
      "name": "createMasterKeyStepOne",
      "outputs": [],
      "stateMutability": "nonpayable",
      "type": "function"
    },
    {
      "inputs": [
        {
          "internalType": "bytes32[2][256]",
          "name": "currentpub",
          "type": "bytes32[2][256]"
        },
        {
          "internalType": "bytes[256]",
          "name": "sig",
          "type": "bytes[256]"
        },
        {
          "internalType": "bytes32",
          "name": "nextPKH",
          "type": "bytes32"
        },
        {
          "internalType": "bytes32",
          "name": "newmasterPKH",
          "type": "bytes32"
        }
      ],
      "name": "createMasterKeyStepTwo",
      "outputs": [],
      "stateMutability": "nonpayable",
      "type": "function"
    },
    {
      "inputs": [
        {
          "internalType": "bytes32[2][256]",
          "name": "currentpub",
          "type": "bytes32[2][256]"
        },
        {
          "internalType": "bytes[256]",
          "name": "sig",
          "type": "bytes[256]"
        },
        {
          "internalType": "bytes32",
          "name": "nextPKH",
          "type": "bytes32"
        },
        {
          "internalType": "bytes32",
          "name": "newOraclePKH",
          "type": "bytes32"
        }
      ],
      "name": "createOracleKeyStepOne",
      "outputs": [],
      "stateMutability": "nonpayable",
      "type": "function"
    },
    {
      "inputs": [
        {
          "internalType": "bytes32[2][256]",
          "name": "currentpub",
          "type": "bytes32[2][256]"
        },
        {
          "internalType": "bytes[256]",
          "name": "sig",
          "type": "bytes[256]"
        },
        {
          "internalType": "bytes32",
          "name": "nextPKH",
          "type": "bytes32"
        },
        {
          "internalType": "bytes32",
          "name": "newOraclePKH",
          "type": "bytes32"
        }
      ],
      "name": "createOracleKeyStepTwo",
      "outputs": [],
      "stateMutability": "nonpayable",
      "type": "function"
    },
    {
      "inputs": [
        {
          "internalType": "bytes32[2][256]",
          "name": "currentpub",
          "type": "bytes32[2][256]"
        },
        {
          "internalType": "bytes[256]",
          "name": "sig",
          "type": "bytes[256]"
        },
        {
          "internalType": "bytes32",
          "name": "nextPKH",
          "type": "bytes32"
        },
        {
          "internalType": "uint256",
          "name": "keyIndex",
          "type": "uint256"
        }
      ],
      "name": "deleteKeyByIndexStepOne",
      "outputs": [],
      "stateMutability": "nonpayable",
      "type": "function"
    },
    {
      "inputs": [
        {
          "internalType": "bytes32[2][256]",
          "name": "currentpub",
          "type": "bytes32[2][256]"
        },
        {
          "internalType": "bytes[256]",
          "name": "sig",
          "type": "bytes[256]"
        },
        {
          "internalType": "bytes32",
          "name": "nextPKH",
          "type": "bytes32"
        },
        {
          "internalType": "uint256",
          "name": "keyIndex",
          "type": "uint256"
        }
      ],
      "name": "deleteKeyByIndexStepTwo",
      "outputs": [],
      "stateMutability": "nonpayable",
      "type": "function"
    },
    {
      "inputs": [
        {
          "internalType": "bytes32[2][256]",
          "name": "currentpub",
          "type": "bytes32[2][256]"
        },
        {
          "internalType": "bytes[256]",
          "name": "sig",
          "type": "bytes[256]"
        },
        {
          "internalType": "bytes32",
          "name": "nextPKH",
          "type": "bytes32"
        },
        {
          "internalType": "bytes32",
          "name": "deleteKeyHash",
          "type": "bytes32"
        }
      ],
      "name": "deleteKeyByPKHStepOne",
      "outputs": [],
      "stateMutability": "nonpayable",
      "type": "function"
    },
    {
      "inputs": [
        {
          "internalType": "bytes32[2][256]",
          "name": "currentpub",
          "type": "bytes32[2][256]"
        },
        {
          "internalType": "bytes[256]",
          "name": "sig",
          "type": "bytes[256]"
        },
        {
          "internalType": "bytes32",
          "name": "nextPKH",
          "type": "bytes32"
        },
        {
          "internalType": "bytes32",
          "name": "confirmDeleteKeyHash",
          "type": "bytes32"
        }
      ],
      "name": "deleteKeyByPKHStepTwo",
      "outputs": [],
      "stateMutability": "nonpayable",
      "type": "function"
    },
    {
      "inputs": [
        {
          "internalType": "bytes32",
          "name": "pkh",
          "type": "bytes32"
        }
      ],
      "name": "getKeyAndIndexByPKH",
      "outputs": [
        {
          "internalType": "enum LamportBase2.KeyType",
          "name": "",
          "type": "uint8"
        },
        {
          "internalType": "bytes32",
          "name": "",
          "type": "bytes32"
        },
        {
          "internalType": "uint256",
          "name": "",
          "type": "uint256"
        }
      ],
      "stateMutability": "view",
      "type": "function"
    },
    {
      "inputs": [
        {
          "internalType": "enum LamportBase2.KeyType",
          "name": "privilege",
          "type": "uint8"
        }
      ],
      "name": "getPKHsByPrivilege",
      "outputs": [
        {
          "internalType": "bytes32[]",
          "name": "",
          "type": "bytes32[]"
        }
      ],
      "stateMutability": "view",
      "type": "function"
    },
    {
      "inputs": [
        {
          "internalType": "bytes32",
          "name": "",
          "type": "bytes32"
        }
      ],
      "name": "keyData",
      "outputs": [
        {
          "internalType": "enum LamportBase2.KeyType",
          "name": "keyType",
          "type": "uint8"
        },
        {
          "internalType": "bytes32",
          "name": "pkh",
          "type": "bytes32"
        }
      ],
      "stateMutability": "view",
      "type": "function"
    },
    {
      "inputs": [
        {
          "internalType": "uint256",
          "name": "",
          "type": "uint256"
        }
      ],
      "name": "keys",
      "outputs": [
        {
          "internalType": "enum LamportBase2.KeyType",
          "name": "keyType",
          "type": "uint8"
        },
        {
          "internalType": "bytes32",
          "name": "pkh",
          "type": "bytes32"
        }
      ],
      "stateMutability": "view",
      "type": "function"
    },
    {
      "inputs": [],
      "name": "lastUsedNextPKH",
      "outputs": [
        {
          "internalType": "bytes32",
          "name": "",
          "type": "bytes32"
        }
      ],
      "stateMutability": "view",
      "type": "function"
    },
    {
      "inputs": [],
      "name": "lastVerificationResult",
      "outputs": [
        {
          "internalType": "bool",
          "name": "",
          "type": "bool"
        }
      ],
      "stateMutability": "view",
      "type": "function"
    },
    {
      "inputs": [
        {
          "internalType": "bytes32[2][256]",
          "name": "currentpub",
          "type": "bytes32[2][256]"
        },
        {
          "internalType": "bytes[256]",
          "name": "sig",
          "type": "bytes[256]"
        },
        {
          "internalType": "bytes32",
          "name": "nextPKH",
          "type": "bytes32"
        },
        {
          "internalType": "bytes",
          "name": "prepacked",
          "type": "bytes"
        }
      ],
      "name": "performLamportMasterCheck",
      "outputs": [
        {
          "internalType": "bool",
          "name": "",
          "type": "bool"
        }
      ],
      "stateMutability": "nonpayable",
      "type": "function"
    },
    {
      "inputs": [
        {
          "internalType": "bytes32[2][256]",
          "name": "currentpub",
          "type": "bytes32[2][256]"
        },
        {
          "internalType": "bytes[256]",
          "name": "sig",
          "type": "bytes[256]"
        },
        {
          "internalType": "bytes32",
          "name": "nextPKH",
          "type": "bytes32"
        },
        {
          "internalType": "bytes",
          "name": "prepacked",
          "type": "bytes"
        }
      ],
      "name": "performLamportOracleCheck",
      "outputs": [
        {
          "internalType": "bool",
          "name": "",
          "type": "bool"
        }
      ],
      "stateMutability": "nonpayable",
      "type": "function"
    },
    {
      "inputs": [
        {
          "internalType": "uint256",
          "name": "bits",
          "type": "uint256"
        },
        {
          "internalType": "bytes[256]",
          "name": "sig",
          "type": "bytes[256]"
        },
        {
          "internalType": "bytes32[2][256]",
          "name": "pub",
          "type": "bytes32[2][256]"
        }
      ],
      "name": "verify_u256",
      "outputs": [
        {
          "internalType": "bool",
          "name": "",
          "type": "bool"
        }
      ],
      "stateMutability": "pure",
      "type": "function"
    }
  ],
  "bytecode": "60806040526000805460ff1916905534801561001a57600080fd5b5061004660007fb7b18ded9664d1a8e923a5942ec1ca5cd8c13c40eb1a5215d5800600f5a587be6100ae565b61007160007f1ed304ab73e124b0b99406dfa1388a492a818837b4b41ce5693ad84dacfc3f256100ae565b61009c60017fd62569e61a6423c880a429676be48756c931fe0519121684f5fb05cbd17877fa6100ae565b6000805460ff19166001179055610209565b600060405180604001604052808460028111156100cd576100cd6101c7565b81526020018390526001805480820182556000829052825160029182027fb10e2d527612073b26eecdfd717e6a320cf44b4afac2b0732d9fcbe2b7fa0cf6018054949550859490939192849260ff1990921691908490811115610132576101326101c7565b021790555060209182015160019182015560008481526002928390526040902083518154859492939192849260ff1990921691908490811115610177576101776101c7565b0217905550602082015181600101559050507f2172c7b01a6de957d29fd6166a23025d181bf56538ad606a526ab2d62603f3fc83836040516101ba9291906101dd565b60405180910390a1505050565b634e487b7160e01b600052602160045260246000fd5b60408101600384106101ff57634e487b7160e01b600052602160045260246000fd5b9281526020015290565b61231a806102186000396000f3fe608060405234801561001057600080fd5b506004361061010b5760003560e01c8063a543c59f116100a2578063b97b4f7711610071578063b97b4f7714610227578063b9d57c5f14610247578063bc60fb4914610269578063bd5a6d071461027c578063e1daa9531461028f57600080fd5b8063a543c59f146101d4578063a9711ee3146101e7578063af82f3e714610214578063b4314f63146101d457600080fd5b80634a89d52b116100de5780634a89d52b146101845780634bdd44991461019757806354f9ee03146101ae5780635796841a146101c157600080fd5b80630cb6aaf114610110578063251de3901461013a5780632fd5c2471461014f578063333f611114610171575b600080fd5b61012361011e366004611d05565b6102a2565b604051610131929190611d56565b60405180910390f35b61014d610148366004611d9b565b6102d4565b005b60005461016190610100900460ff1681565b6040519015158152602001610131565b61016161017f366004611e14565b6104d1565b610161610192366004611e14565b6105c2565b6101a060065481565b604051908152602001610131565b61014d6101bc366004611d9b565b610619565b61014d6101cf366004611d9b565b6107c1565b61014d6101e2366004611d9b565b6109c8565b6101236101f5366004611d05565b6002602052600090815260409020805460019091015460ff9091169082565b610161610222366004611f09565b610b6b565b61023a610235366004611f62565b610c20565b6040516101319190611f83565b61025a610255366004611d05565b610dbc565b60405161013193929190611fc7565b61014d610277366004611d9b565b610eb0565b61014d61028a366004611d9b565b611396565b61014d61029d366004611d9b565b611861565b600181815481106102b257600080fd5b60009182526020909120600290910201805460019091015460ff909116915082565b838383836040516020016102ea91815260200190565b60408051601f1981840301815291905260005460ff166103255760405162461bcd60e51b815260040161031c90611fe6565b60405180910390fd5b600084604051602001610338919061201d565b60408051601f19818403018152919052805160209091012090506000808281526002602081905260409091205460ff169081111561037857610378611d1e565b146103955760405162461bcd60e51b815260040161031c90612054565b600082846040516020016103aa92919061208b565b60408051601f1981840301815290829052805160209182012080835292506000805160206122a5833981519152910160405180910390a160006103ee828789610b6b565b6000805461ff0019166101008315150217905590508061047257604051828152600080516020612285833981519152906020015b60405180910390a160405162461bcd60e51b815260206004820181905260248201527f4c616d706f7274426173653a20566572696669636174696f6e206661696c6564604482015260640161031c565b600083815260026020526040908190205490516000805160206122c5833981519152916104a89160ff9091169086908990611fc7565b60405180910390a16104ba8386611a54565b505050600394909455505050600591909155505050565b6000805460ff166104f45760405162461bcd60e51b815260040161031c90611fe6565b600085604051602001610507919061201d565b60408051601f198184030181529190528051602090910120905060005b60008281526002602081905260409091205460ff169081111561054957610549611d1e565b146105585760009150506105ba565b6000838560405160200161056d92919061208b565b6040516020818303038152906040528051906020012060001c9050600061059582888a610b6b565b9050806105a857600093505050506105ba565b6105b28387611a54565b600193505050505b949350505050565b6000805460ff166105e55760405162461bcd60e51b815260040161031c90611fe6565b6000856040516020016105f8919061201d565b60408051601f19818403018152919052805160209091012090506001610524565b8383838360405160200161062f91815260200190565b60408051601f1981840301815291905260005460ff166106615760405162461bcd60e51b815260040161031c90611fe6565b600084604051602001610674919061201d565b60408051601f19818403018152919052805160209091012090506000808281526002602081905260409091205460ff16908111156106b4576106b4611d1e565b146106d15760405162461bcd60e51b815260040161031c90612054565b600082846040516020016106e692919061208b565b60408051601f1981840301815290829052805160209182012080835292506000805160206122a5833981519152910160405180910390a1600061072a828789610b6b565b6000805461ff001916610100831515021790559050806107625760405182815260008051602061228583398151915290602001610422565b600083815260026020526040908190205490516000805160206122c5833981519152916107989160ff9091169086908990611fc7565b60405180910390a16107aa8386611a54565b505050600494909455505050600591909155505050565b838383836040516020016107d791815260200190565b60408051601f1981840301815291905260005460ff166108095760405162461bcd60e51b815260040161031c90611fe6565b60008460405160200161081c919061201d565b60408051601f19818403018152919052805160209091012090506000808281526002602081905260409091205460ff169081111561085c5761085c611d1e565b146108795760405162461bcd60e51b815260040161031c90612054565b6000828460405160200161088e92919061208b565b60408051601f1981840301815290829052805160209182012080835292506000805160206122a5833981519152910160405180910390a160006108d2828789610b6b565b6000805461ff0019166101008315150217905590508061090a5760405182815260008051602061228583398151915290602001610422565b600083815260026020526040908190205490516000805160206122c5833981519152916109409160ff9091169086908990611fc7565b60405180910390a16109528386611a54565b60008b604051602001610965919061201d565b60408051601f198184030181529190528051602090910120600680546000909155909150811415806109a95760405162461bcd60e51b815260040161031c906120bd565b6109b460008b611bf9565b505060006006555050505050505050505050565b838383836040516020016109de91815260200190565b60408051601f1981840301815291905260005460ff16610a105760405162461bcd60e51b815260040161031c90611fe6565b600084604051602001610a23919061201d565b60408051601f19818403018152919052805160209091012090506000808281526002602081905260409091205460ff1690811115610a6357610a63611d1e565b14610a805760405162461bcd60e51b815260040161031c90612054565b60008284604051602001610a9592919061208b565b60408051601f1981840301815290829052805160209182012080835292506000805160206122a5833981519152910160405180910390a16000610ad9828789610b6b565b6000805461ff00191661010083151502179055905080610b115760405182815260008051602061228583398151915290602001610422565b600083815260026020526040908190205490516000805160206122c583398151915291610b479160ff9091169086908990611fc7565b60405180910390a1610b598386611a54565b50505060069590955550505050505050565b6000805b610100811015610c135783816101008110610b8c57610b8c61211b565b602002810190610b9c9190612131565b604051610baa92919061217f565b604051809103902083826101008110610bc557610bc561211b565b6040020160008360ff036001901b881611610be1576000610be4565b60015b60ff1660028110610bf757610bf761211b565b602002013514610c0b576000915050610c19565b600101610b6f565b50600190505b9392505050565b60015460609060009067ffffffffffffffff811115610c4157610c41611dfe565b604051908082528060200260200182016040528015610c6a578160200160208202803683370190505b5090506000805b600154811015610d2157846002811115610c8d57610c8d611d1e565b60018281548110610ca057610ca061211b565b600091825260209091206002918202015460ff1690811115610cc457610cc4611d1e565b03610d195760018181548110610cdc57610cdc61211b565b906000526020600020906002020160010154838381518110610d0057610d0061211b565b602090810291909101015281610d158161218f565b9250505b600101610c71565b5060008167ffffffffffffffff811115610d3d57610d3d611dfe565b604051908082528060200260200182016040528015610d66578160200160208202803683370190505b50905060005b82811015610db357838181518110610d8657610d8661211b565b6020026020010151828281518110610da057610da061211b565b6020908102919091010152600101610d6c565b50949350505050565b60008181526002602081905260408083208151808301909252805484938493849390929091839160ff1690811115610df657610df6611d1e565b6002811115610e0757610e07611d1e565b815260019190910154602091820152810151909150600003610e3b5760405162461bcd60e51b815260040161031c906121b6565b60005b600154811015610e90578560018281548110610e5c57610e5c61211b565b90600052602060002090600202016001015403610e885781516020909201519194509092509050610ea9565b600101610e3e565b5060405162461bcd60e51b815260040161031c906121b6565b9193909250565b83838383604051602001610ec691815260200190565b60408051601f1981840301815291905260005460ff16610ef85760405162461bcd60e51b815260040161031c90611fe6565b600084604051602001610f0b919061201d565b60408051601f19818403018152919052805160209091012090506000808281526002602081905260409091205460ff1690811115610f4b57610f4b611d1e565b14610f685760405162461bcd60e51b815260040161031c90612054565b60008284604051602001610f7d92919061208b565b60408051601f1981840301815290829052805160209182012080835292506000805160206122a5833981519152910160405180910390a16000610fc1828789610b6b565b6000805461ff00191661010083151502179055905080610ff95760405182815260008051602061228583398151915290602001610422565b600083815260026020526040908190205490516000805160206122c58339815191529161102f9160ff9091169086908990611fc7565b60405180910390a16110418386611a54565b60008b604051602001611054919061201d565b604051602081830303815290604052805190602001209050600554810361108d5760405162461bcd60e51b815260040161031c906121ed565b88600454146110de5760405162461bcd60e51b815260206004820152601e60248201527f4c616d706f7274426173653a204b65797320646f206e6f74206d617463680000604482015260640161031c565b600154891061112f5760405162461bcd60e51b815260206004820152601e60248201527f4c616d706f7274426173653a20496e76616c6964206b657920696e6465780000604482015260640161031c565b600060018a815481106111445761114461211b565b90600052602060002090600202016040518060400160405290816000820160009054906101000a900460ff16600281111561118157611181611d1e565b600281111561119257611192611d1e565b81526001919091015460209091015290506002815160028111156111b8576111b8611d1e565b036112055760405162461bcd60e51b815260206004820181905260248201527f4c616d706f7274426173653a204b657920616c72656164792064656c65746564604482015260640161031c565b8051604080514260208083019190915244828401528251808303840181526060909201909252805191012060018054630de1e7ed60e41b8318929183918f9081106112525761125261211b565b906000526020600020906002020160010181905550600260018e8154811061127c5761127c61211b565b906000526020600020906002020160000160006101000a81548160ff021916908360028111156112ae576112ae611d1e565b021790555060018d815481106112c6576112c661211b565b60009182526020808320858452600291829052604090932091810290920180548254919360ff90911691839160ff1990911690600190849081111561130d5761130d611d1e565b0217905550600191820154908201556020808601805160009081526002928390526040808220805460ff19168155909401555191517f0643be3612916977c69d5ed1abb75a50cca49df49ba2444d836e2a0cf65fe07492611372928792879190612254565b60405180910390a15050600060048190556005555050505050505050505050505050565b838383836040516020016113ac91815260200190565b60408051601f1981840301815291905260005460ff166113de5760405162461bcd60e51b815260040161031c90611fe6565b6000846040516020016113f1919061201d565b60408051601f19818403018152919052805160209091012090506000808281526002602081905260409091205460ff169081111561143157611431611d1e565b1461144e5760405162461bcd60e51b815260040161031c90612054565b6000828460405160200161146392919061208b565b60408051601f1981840301815290829052805160209182012080835292506000805160206122a5833981519152910160405180910390a160006114a7828789610b6b565b6000805461ff001916610100831515021790559050806114df5760405182815260008051602061228583398151915290602001610422565b600083815260026020526040908190205490516000805160206122c5833981519152916115159160ff9091169086908990611fc7565b60405180910390a16115278386611a54565b60008b60405160200161153a919061201d565b60405160208183030381529060405280519060200120905060055481036115735760405162461bcd60e51b815260040161031c906121ed565b88600354146115c45760405162461bcd60e51b815260206004820152601e60248201527f4c616d706f7274426173653a204b65797320646f206e6f74206d617463680000604482015260640161031c565b600554818a6000808481526002602081905260409091205460ff16908111156115ef576115ef611d1e565b14801561161d5750600082815260026020819052604082205460ff169081111561161b5761161b611d1e565b145b6116805760405162461bcd60e51b815260206004820152602e60248201527f4c616d706f7274426173653a2050726f7669646564206b65797320617265206e60448201526d6f74206d6173746572206b65797360901b606482015260840161031c565b8281141580156116905750818114155b6116f65760405162461bcd60e51b815260206004820152603160248201527f4c616d706f7274426173653a204d6173746572206b6579732063616e6e6f742060448201527064656c657465207468656d73656c76657360781b606482015260840161031c565b60008181526002602052604081206001015490036117625760405162461bcd60e51b815260206004820152602360248201527f4c616d706f7274426173653a204e6f2073756368206b6579202864656c6574696044820152626f6e2960e81b606482015260840161031c565b60005b6001548110156118455781600182815481106117835761178361211b565b9060005260206000209060020201600101540361183d57600082815260026020818152604080842080548251428186015244818501528351808203850181526060909101938490528051908501209588905292849052630de1e7ed60e41b85186001820181905560ff198416851790915560ff9092169391927f0643be3612916977c69d5ed1abb75a50cca49df49ba2444d836e2a0cf65fe0749161182d91869189918791612254565b60405180910390a1505050611845565b600101611765565b5050600060038190556005555050505050505050505050505050565b8383838360405160200161187791815260200190565b60408051601f1981840301815291905260005460ff166118a95760405162461bcd60e51b815260040161031c90611fe6565b6000846040516020016118bc919061201d565b60408051601f19818403018152919052805160209091012090506000808281526002602081905260409091205460ff16908111156118fc576118fc611d1e565b146119195760405162461bcd60e51b815260040161031c90612054565b6000828460405160200161192e92919061208b565b60408051601f1981840301815290829052805160209182012080835292506000805160206122a5833981519152910160405180910390a16000611972828789610b6b565b6000805461ff001916610100831515021790559050806119aa5760405182815260008051602061228583398151915290602001610422565b600083815260026020526040908190205490516000805160206122c5833981519152916119e09160ff9091169086908990611fc7565b60405180910390a16119f28386611a54565b60008b604051602001611a05919061201d565b60408051601f19818403018152919052805160209091012060068054600090915590915081141580611a495760405162461bcd60e51b815260040161031c906120bd565b6109b460018b611bf9565b6000828152600260205260408120600101549003611a845760405162461bcd60e51b815260040161031c906121b6565b604080518082018252600084815260026020819052928120549092829160ff1690811115611ab457611ab4611d1e565b8152602001838152509050806002600084815260200190815260200160002060008201518160000160006101000a81548160ff02191690836002811115611afd57611afd611d1e565b02179055506020918201516001918201556000858152600290925260408220805460ff19168155018190555b600154811015611bc9578360018281548110611b4757611b4761211b565b90600052602060002090600202016001015403611bc1578160018281548110611b7257611b7261211b565b906000526020600020906002020160008201518160000160006101000a81548160ff02191690836002811115611baa57611baa611d1e565b021790555060208201518160010155905050611bc9565b600101611b29565b5080516040516000805160206122c583398151915291611bec9186908690611fc7565b60405180910390a1505050565b60006040518060400160405280846002811115611c1857611c18611d1e565b81526020018390526001805480820182556000829052825160029182027fb10e2d527612073b26eecdfd717e6a320cf44b4afac2b0732d9fcbe2b7fa0cf6018054949550859490939192849260ff1990921691908490811115611c7d57611c7d611d1e565b021790555060209182015160019182015560008481526002928390526040902083518154859492939192849260ff1990921691908490811115611cc257611cc2611d1e565b0217905550602082015181600101559050507f2172c7b01a6de957d29fd6166a23025d181bf56538ad606a526ab2d62603f3fc8383604051611bec929190611d56565b600060208284031215611d1757600080fd5b5035919050565b634e487b7160e01b600052602160045260246000fd5b60038110611d5257634e487b7160e01b600052602160045260246000fd5b9052565b60408101611d648285611d34565b8260208301529392505050565b806140008101831015611d8357600080fd5b92915050565b806120008101831015611d8357600080fd5b6000806000806140608587031215611db257600080fd5b611dbc8686611d71565b935061400085013567ffffffffffffffff811115611dd957600080fd5b611de587828801611d89565b9497949650505050614020830135926140400135919050565b634e487b7160e01b600052604160045260246000fd5b6000806000806140608587031215611e2b57600080fd5b611e358686611d71565b935061400085013567ffffffffffffffff80821115611e5357600080fd5b611e5f88838901611d89565b94506140208701359350614040870135915080821115611e7e57600080fd5b818701915087601f830112611e9257600080fd5b813581811115611ea457611ea4611dfe565b604051601f8201601f19908116603f01168101908382118183101715611ecc57611ecc611dfe565b816040528281528a6020848701011115611ee557600080fd5b82602086016020830137600060208483010152809550505050505092959194509250565b60008060006140408486031215611f1f57600080fd5b83359250602084013567ffffffffffffffff811115611f3d57600080fd5b611f4986828701611d89565b925050611f598560408601611d71565b90509250925092565b600060208284031215611f7457600080fd5b813560038110610c1957600080fd5b6020808252825182820181905260009190848201906040850190845b81811015611fbb57835183529284019291840191600101611f9f565b50909695505050505050565b60608101611fd58286611d34565b602082019390935260400152919050565b6020808252601c908201527f4c616d706f7274426173653a206e6f7420696e697469616c697a656400000000604082015260600190565b60008183825b61010081101561204457604080838537928301929190910190600101612023565b5050506140008201905092915050565b6020808252601d908201527f4c616d706f7274426173653a204e6f742061206d6173746572206b6579000000604082015260600190565b6000835160005b818110156120ac5760208187018101518583015201612092565b509190910191825250602001919050565b602080825260409082018190527f4c616d706f7274426173653a20504b48206d617463686573206c617374207573908201527f656420504b482028757365207365706172617465207365636f6e64206b657929606082015260800190565b634e487b7160e01b600052603260045260246000fd5b6000808335601e1984360301811261214857600080fd5b83018035915067ffffffffffffffff82111561216357600080fd5b60200191503681900382131561217857600080fd5b9250929050565b8183823760009101908152919050565b6000600182016121af57634e487b7160e01b600052601160045260246000fd5b5060010190565b60208082526018908201527f4c616d706f7274426173653a204e6f2073756368206b65790000000000000000604082015260600190565b60208082526041908201527f4c616d706f7274426173653a2043616e6e6f7420757365207468652073616d6560408201527f206b6579636861696e20747769636520666f7220746869732066756e6374696f6060820152603760f91b608082015260a00190565b608081016122628287611d34565b84602083015283604083015261227b6060830184611d34565b9594505050505056fe32629d580208e19f97e5752eef849e102f803999c88aa7f75e12b1744eecd5a7d87e68f36f73a7eb22739d6639e36cafebfcde0b5543340b39f42cac68fdd1f06825a39bd161f4ef5aab6cfd2c26db3ee0005c11b43cffd544fc876312116edda2646970667358221220e241e3c6227a987c9bc72f1a36ff0d587e6561d4e9d2b6ff2bead84d7f6eae9c64736f6c63430008190033",
  "bytecodeSha1": "86a4838de407f76af98a931831c6637d14a5d007",
  "compiler": {
    "evm_version": "istanbul",
    "optimizer": {
      "enabled": true,
      "runs": 200
    },
    "version": "0.8.25+commit.b61c2a91"
  },
  "contractName": "LamportBase2",
  "language": "Solidity",
  "natspec": {
    "kind": "dev",
    "methods": {},
    "version": 1
  },
  "opcodes": "PUSH1 0x80 PUSH1 0x40 MSTORE CALLVALUE DUP1 ISZERO PUSH2 0x10 JUMPI PUSH1 0x0 DUP1 REVERT JUMPDEST POP PUSH1 0x4 CALLDATASIZE LT PUSH2 0x10B JUMPI PUSH1 0x0 CALLDATALOAD PUSH1 0xE0 SHR DUP1 PUSH4 0xA543C59F GT PUSH2 0xA2 JUMPI DUP1 PUSH4 0xB97B4F77 GT PUSH2 0x71 JUMPI DUP1 PUSH4 0xB97B4F77 EQ PUSH2 0x227 JUMPI DUP1 PUSH4 0xB9D57C5F EQ PUSH2 0x247 JUMPI DUP1 PUSH4 0xBC60FB49 EQ PUSH2 0x269 JUMPI DUP1 PUSH4 0xBD5A6D07 EQ PUSH2 0x27C JUMPI DUP1 PUSH4 0xE1DAA953 EQ PUSH2 0x28F JUMPI PUSH1 0x0 DUP1 REVERT JUMPDEST DUP1 PUSH4 0xA543C59F EQ PUSH2 0x1D4 JUMPI DUP1 PUSH4 0xA9711EE3 EQ PUSH2 0x1E7 JUMPI DUP1 PUSH4 0xAF82F3E7 EQ PUSH2 0x214 JUMPI DUP1 PUSH4 0xB4314F63 EQ PUSH2 0x1D4 JUMPI PUSH1 0x0 DUP1 REVERT JUMPDEST DUP1 PUSH4 0x4A89D52B GT PUSH2 0xDE JUMPI DUP1 PUSH4 0x4A89D52B EQ PUSH2 0x184 JUMPI DUP1 PUSH4 0x4BDD4499 EQ PUSH2 0x197 JUMPI DUP1 PUSH4 0x54F9EE03 EQ PUSH2 0x1AE JUMPI DUP1 PUSH4 0x5796841A EQ PUSH2 0x1C1 JUMPI PUSH1 0x0 DUP1 REVERT JUMPDEST DUP1 PUSH4 0xCB6AAF1 EQ PUSH2 0x110 JUMPI DUP1 PUSH4 0x251DE390 EQ PUSH2 0x13A JUMPI DUP1 PUSH4 0x2FD5C247 EQ PUSH2 0x14F JUMPI DUP1 PUSH4 0x333F6111 EQ PUSH2 0x171 JUMPI JUMPDEST PUSH1 0x0 DUP1 REVERT JUMPDEST PUSH2 0x123 PUSH2 0x11E CALLDATASIZE PUSH1 0x4 PUSH2 0x1D05 JUMP JUMPDEST PUSH2 0x2A2 JUMP JUMPDEST PUSH1 0x40 MLOAD PUSH2 0x131 SWAP3 SWAP2 SWAP1 PUSH2 0x1D56 JUMP JUMPDEST PUSH1 0x40 MLOAD DUP1 SWAP2 SUB SWAP1 RETURN JUMPDEST PUSH2 0x14D PUSH2 0x148 CALLDATASIZE PUSH1 0x4 PUSH2 0x1D9B JUMP JUMPDEST PUSH2 0x2D4 JUMP JUMPDEST STOP JUMPDEST PUSH1 0x0 SLOAD PUSH2 0x161 SWAP1 PUSH2 0x100 SWAP1 DIV PUSH1 0xFF AND DUP2 JUMP JUMPDEST PUSH1 0x40 MLOAD SWAP1 ISZERO ISZERO DUP2 MSTORE PUSH1 0x20 ADD PUSH2 0x131 JUMP JUMPDEST PUSH2 0x161 PUSH2 0x17F CALLDATASIZE PUSH1 0x4 PUSH2 0x1E14 JUMP JUMPDEST PUSH2 0x4D1 JUMP JUMPDEST PUSH2 0x161 PUSH2 0x192 CALLDATASIZE PUSH1 0x4 PUSH2 0x1E14 JUMP JUMPDEST PUSH2 0x5C2 JUMP JUMPDEST PUSH2 0x1A0 PUSH1 0x6 SLOAD DUP2 JUMP JUMPDEST PUSH1 0x40 MLOAD SWAP1 DUP2 MSTORE PUSH1 0x20 ADD PUSH2 0x131 JUMP JUMPDEST PUSH2 0x14D PUSH2 0x1BC CALLDATASIZE PUSH1 0x4 PUSH2 0x1D9B JUMP JUMPDEST PUSH2 0x619 JUMP JUMPDEST PUSH2 0x14D PUSH2 0x1CF CALLDATASIZE PUSH1 0x4 PUSH2 0x1D9B JUMP JUMPDEST PUSH2 0x7C1 JUMP JUMPDEST PUSH2 0x14D PUSH2 0x1E2 CALLDATASIZE PUSH1 0x4 PUSH2 0x1D9B JUMP JUMPDEST PUSH2 0x9C8 JUMP JUMPDEST PUSH2 0x123 PUSH2 0x1F5 CALLDATASIZE PUSH1 0x4 PUSH2 0x1D05 JUMP JUMPDEST PUSH1 0x2 PUSH1 0x20 MSTORE PUSH1 0x0 SWAP1 DUP2 MSTORE PUSH1 0x40 SWAP1 KECCAK256 DUP1 SLOAD PUSH1 0x1 SWAP1 SWAP2 ADD SLOAD PUSH1 0xFF SWAP1 SWAP2 AND SWAP1 DUP3 JUMP JUMPDEST PUSH2 0x161 PUSH2 0x222 CALLDATASIZE PUSH1 0x4 PUSH2 0x1F09 JUMP JUMPDEST PUSH2 0xB6B JUMP JUMPDEST PUSH2 0x23A PUSH2 0x235 CALLDATASIZE PUSH1 0x4 PUSH2 0x1F62 JUMP JUMPDEST PUSH2 0xC20 JUMP JUMPDEST PUSH1 0x40 MLOAD PUSH2 0x131 SWAP2 SWAP1 PUSH2 0x1F83 JUMP JUMPDEST PUSH2 0x25A PUSH2 0x255 CALLDATASIZE PUSH1 0x4 PUSH2 0x1D05 JUMP JUMPDEST PUSH2 0xDBC JUMP JUMPDEST PUSH1 0x40 MLOAD PUSH2 0x131 SWAP4 SWAP3 SWAP2 SWAP1 PUSH2 0x1FC7 JUMP JUMPDEST PUSH2 0x14D PUSH2 0x277 CALLDATASIZE PUSH1 0x4 PUSH2 0x1D9B JUMP JUMPDEST PUSH2 0xEB0 JUMP JUMPDEST PUSH2 0x14D PUSH2 0x28A CALLDATASIZE PUSH1 0x4 PUSH2 0x1D9B JUMP JUMPDEST PUSH2 0x1396 JUMP JUMPDEST PUSH2 0x14D PUSH2 0x29D CALLDATASIZE PUSH1 0x4 PUSH2 0x1D9B JUMP JUMPDEST PUSH2 0x1861 JUMP JUMPDEST PUSH1 0x1 DUP2 DUP2 SLOAD DUP2 LT PUSH2 0x2B2 JUMPI PUSH1 0x0 DUP1 REVERT JUMPDEST PUSH1 0x0 SWAP2 DUP3 MSTORE PUSH1 0x20 SWAP1 SWAP2 KECCAK256 PUSH1 0x2 SWAP1 SWAP2 MUL ADD DUP1 SLOAD PUSH1 0x1 SWAP1 SWAP2 ADD SLOAD PUSH1 0xFF SWAP1 SWAP2 AND SWAP2 POP DUP3 JUMP JUMPDEST DUP4 DUP4 DUP4 DUP4 PUSH1 0x40 MLOAD PUSH1 0x20 ADD PUSH2 0x2EA SWAP2 DUP2 MSTORE PUSH1 0x20 ADD SWAP1 JUMP JUMPDEST PUSH1 0x40 DUP1 MLOAD PUSH1 0x1F NOT DUP2 DUP5 SUB ADD DUP2 MSTORE SWAP2 SWAP1 MSTORE PUSH1 0x0 SLOAD PUSH1 0xFF AND PUSH2 0x325 JUMPI PUSH1 0x40 MLOAD PUSH3 0x461BCD PUSH1 0xE5 SHL DUP2 MSTORE PUSH1 0x4 ADD PUSH2 0x31C SWAP1 PUSH2 0x1FE6 JUMP JUMPDEST PUSH1 0x40 MLOAD DUP1 SWAP2 SUB SWAP1 REVERT JUMPDEST PUSH1 0x0 DUP5 PUSH1 0x40 MLOAD PUSH1 0x20 ADD PUSH2 0x338 SWAP2 SWAP1 PUSH2 0x201D JUMP JUMPDEST PUSH1 0x40 DUP1 MLOAD PUSH1 0x1F NOT DUP2 DUP5 SUB ADD DUP2 MSTORE SWAP2 SWAP1 MSTORE DUP1 MLOAD PUSH1 0x20 SWAP1 SWAP2 ADD KECCAK256 SWAP1 POP PUSH1 0x0 DUP1 DUP3 DUP2 MSTORE PUSH1 0x2 PUSH1 0x20 DUP2 SWAP1 MSTORE PUSH1 0x40 SWAP1 SWAP2 KECCAK256 SLOAD PUSH1 0xFF AND SWAP1 DUP2 GT ISZERO PUSH2 0x378 JUMPI PUSH2 0x378 PUSH2 0x1D1E JUMP JUMPDEST EQ PUSH2 0x395 JUMPI PUSH1 0x40 MLOAD PUSH3 0x461BCD PUSH1 0xE5 SHL DUP2 MSTORE PUSH1 0x4 ADD PUSH2 0x31C SWAP1 PUSH2 0x2054 JUMP JUMPDEST PUSH1 0x0 DUP3 DUP5 PUSH1 0x40 MLOAD PUSH1 0x20 ADD PUSH2 0x3AA SWAP3 SWAP2 SWAP1 PUSH2 0x208B JUMP JUMPDEST PUSH1 0x40 DUP1 MLOAD PUSH1 0x1F NOT DUP2 DUP5 SUB ADD DUP2 MSTORE SWAP1 DUP3 SWAP1 MSTORE DUP1 MLOAD PUSH1 0x20 SWAP2 DUP3 ADD KECCAK256 DUP1 DUP4 MSTORE SWAP3 POP PUSH1 0x0 DUP1 MLOAD PUSH1 0x20 PUSH2 0x22A5 DUP4 CODECOPY DUP2 MLOAD SWAP2 MSTORE SWAP2 ADD PUSH1 0x40 MLOAD DUP1 SWAP2 SUB SWAP1 LOG1 PUSH1 0x0 PUSH2 0x3EE DUP3 DUP8 DUP10 PUSH2 0xB6B JUMP JUMPDEST PUSH1 0x0 DUP1 SLOAD PUSH2 0xFF00 NOT AND PUSH2 0x100 DUP4 ISZERO ISZERO MUL OR SWAP1 SSTORE SWAP1 POP DUP1 PUSH2 0x472 JUMPI PUSH1 0x40 MLOAD DUP3 DUP2 MSTORE PUSH1 0x0 DUP1 MLOAD PUSH1 0x20 PUSH2 0x2285 DUP4 CODECOPY DUP2 MLOAD SWAP2 MSTORE SWAP1 PUSH1 0x20 ADD JUMPDEST PUSH1 0x40 MLOAD DUP1 SWAP2 SUB SWAP1 LOG1 PUSH1 0x40 MLOAD PUSH3 0x461BCD PUSH1 0xE5 SHL DUP2 MSTORE PUSH1 0x20 PUSH1 0x4 DUP3 ADD DUP2 SWAP1 MSTORE PUSH1 0x24 DUP3 ADD MSTORE PUSH32 0x4C616D706F7274426173653A20566572696669636174696F6E206661696C6564 PUSH1 0x44 DUP3 ADD MSTORE PUSH1 0x64 ADD PUSH2 0x31C JUMP JUMPDEST PUSH1 0x0 DUP4 DUP2 MSTORE PUSH1 0x2 PUSH1 0x20 MSTORE PUSH1 0x40 SWAP1 DUP2 SWAP1 KECCAK256 SLOAD SWAP1 MLOAD PUSH1 0x0 DUP1 MLOAD PUSH1 0x20 PUSH2 0x22C5 DUP4 CODECOPY DUP2 MLOAD SWAP2 MSTORE SWAP2 PUSH2 0x4A8 SWAP2 PUSH1 0xFF SWAP1 SWAP2 AND SWAP1 DUP7 SWAP1 DUP10 SWAP1 PUSH2 0x1FC7 JUMP JUMPDEST PUSH1 0x40 MLOAD DUP1 SWAP2 SUB SWAP1 LOG1 PUSH2 0x4BA DUP4 DUP7 PUSH2 0x1A54 JUMP JUMPDEST POP POP POP PUSH1 0x3 SWAP5 SWAP1 SWAP5 SSTORE POP POP POP PUSH1 0x5 SWAP2 SWAP1 SWAP2 SSTORE POP POP POP JUMP JUMPDEST PUSH1 0x0 DUP1 SLOAD PUSH1 0xFF AND PUSH2 0x4F4 JUMPI PUSH1 0x40 MLOAD PUSH3 0x461BCD PUSH1 0xE5 SHL DUP2 MSTORE PUSH1 0x4 ADD PUSH2 0x31C SWAP1 PUSH2 0x1FE6 JUMP JUMPDEST PUSH1 0x0 DUP6 PUSH1 0x40 MLOAD PUSH1 0x20 ADD PUSH2 0x507 SWAP2 SWAP1 PUSH2 0x201D JUMP JUMPDEST PUSH1 0x40 DUP1 MLOAD PUSH1 0x1F NOT DUP2 DUP5 SUB ADD DUP2 MSTORE SWAP2 SWAP1 MSTORE DUP1 MLOAD PUSH1 0x20 SWAP1 SWAP2 ADD KECCAK256 SWAP1 POP PUSH1 0x0 JUMPDEST PUSH1 0x0 DUP3 DUP2 MSTORE PUSH1 0x2 PUSH1 0x20 DUP2 SWAP1 MSTORE PUSH1 0x40 SWAP1 SWAP2 KECCAK256 SLOAD PUSH1 0xFF AND SWAP1 DUP2 GT ISZERO PUSH2 0x549 JUMPI PUSH2 0x549 PUSH2 0x1D1E JUMP JUMPDEST EQ PUSH2 0x558 JUMPI PUSH1 0x0 SWAP2 POP POP PUSH2 0x5BA JUMP JUMPDEST PUSH1 0x0 DUP4 DUP6 PUSH1 0x40 MLOAD PUSH1 0x20 ADD PUSH2 0x56D SWAP3 SWAP2 SWAP1 PUSH2 0x208B JUMP JUMPDEST PUSH1 0x40 MLOAD PUSH1 0x20 DUP2 DUP4 SUB SUB DUP2 MSTORE SWAP1 PUSH1 0x40 MSTORE DUP1 MLOAD SWAP1 PUSH1 0x20 ADD KECCAK256 PUSH1 0x0 SHR SWAP1 POP PUSH1 0x0 PUSH2 0x595 DUP3 DUP9 DUP11 PUSH2 0xB6B JUMP JUMPDEST SWAP1 POP DUP1 PUSH2 0x5A8 JUMPI PUSH1 0x0 SWAP4 POP POP POP POP PUSH2 0x5BA JUMP JUMPDEST PUSH2 0x5B2 DUP4 DUP8 PUSH2 0x1A54 JUMP JUMPDEST PUSH1 0x1 SWAP4 POP POP POP POP JUMPDEST SWAP5 SWAP4 POP POP POP POP JUMP JUMPDEST PUSH1 0x0 DUP1 SLOAD PUSH1 0xFF AND PUSH2 0x5E5 JUMPI PUSH1 0x40 MLOAD PUSH3 0x461BCD PUSH1 0xE5 SHL DUP2 MSTORE PUSH1 0x4 ADD PUSH2 0x31C SWAP1 PUSH2 0x1FE6 JUMP JUMPDEST PUSH1 0x0 DUP6 PUSH1 0x40 MLOAD PUSH1 0x20 ADD PUSH2 0x5F8 SWAP2 SWAP1 PUSH2 0x201D JUMP JUMPDEST PUSH1 0x40 DUP1 MLOAD PUSH1 0x1F NOT DUP2 DUP5 SUB ADD DUP2 MSTORE SWAP2 SWAP1 MSTORE DUP1 MLOAD PUSH1 0x20 SWAP1 SWAP2 ADD KECCAK256 SWAP1 POP PUSH1 0x1 PUSH2 0x524 JUMP JUMPDEST DUP4 DUP4 DUP4 DUP4 PUSH1 0x40 MLOAD PUSH1 0x20 ADD PUSH2 0x62F SWAP2 DUP2 MSTORE PUSH1 0x20 ADD SWAP1 JUMP JUMPDEST PUSH1 0x40 DUP1 MLOAD PUSH1 0x1F NOT DUP2 DUP5 SUB ADD DUP2 MSTORE SWAP2 SWAP1 MSTORE PUSH1 0x0 SLOAD PUSH1 0xFF AND PUSH2 0x661 JUMPI PUSH1 0x40 MLOAD PUSH3 0x461BCD PUSH1 0xE5 SHL DUP2 MSTORE PUSH1 0x4 ADD PUSH2 0x31C SWAP1 PUSH2 0x1FE6 JUMP JUMPDEST PUSH1 0x0 DUP5 PUSH1 0x40 MLOAD PUSH1 0x20 ADD PUSH2 0x674 SWAP2 SWAP1 PUSH2 0x201D JUMP JUMPDEST PUSH1 0x40 DUP1 MLOAD PUSH1 0x1F NOT DUP2 DUP5 SUB ADD DUP2 MSTORE SWAP2 SWAP1 MSTORE DUP1 MLOAD PUSH1 0x20 SWAP1 SWAP2 ADD KECCAK256 SWAP1 POP PUSH1 0x0 DUP1 DUP3 DUP2 MSTORE PUSH1 0x2 PUSH1 0x20 DUP2 SWAP1 MSTORE PUSH1 0x40 SWAP1 SWAP2 KECCAK256 SLOAD PUSH1 0xFF AND SWAP1 DUP2 GT ISZERO PUSH2 0x6B4 JUMPI PUSH2 0x6B4 PUSH2 0x1D1E JUMP JUMPDEST EQ PUSH2 0x6D1 JUMPI PUSH1 0x40 MLOAD PUSH3 0x461BCD PUSH1 0xE5 SHL DUP2 MSTORE PUSH1 0x4 ADD PUSH2 0x31C SWAP1 PUSH2 0x2054 JUMP JUMPDEST PUSH1 0x0 DUP3 DUP5 PUSH1 0x40 MLOAD PUSH1 0x20 ADD PUSH2 0x6E6 SWAP3 SWAP2 SWAP1 PUSH2 0x208B JUMP JUMPDEST PUSH1 0x40 DUP1 MLOAD PUSH1 0x1F NOT DUP2 DUP5 SUB ADD DUP2 MSTORE SWAP1 DUP3 SWAP1 MSTORE DUP1 MLOAD PUSH1 0x20 SWAP2 DUP3 ADD KECCAK256 DUP1 DUP4 MSTORE SWAP3 POP PUSH1 0x0 DUP1 MLOAD PUSH1 0x20 PUSH2 0x22A5 DUP4 CODECOPY DUP2 MLOAD SWAP2 MSTORE SWAP2 ADD PUSH1 0x40 MLOAD DUP1 SWAP2 SUB SWAP1 LOG1 PUSH1 0x0 PUSH2 0x72A DUP3 DUP8 DUP10 PUSH2 0xB6B JUMP JUMPDEST PUSH1 0x0 DUP1 SLOAD PUSH2 0xFF00 NOT AND PUSH2 0x100 DUP4 ISZERO ISZERO MUL OR SWAP1 SSTORE SWAP1 POP DUP1 PUSH2 0x762 JUMPI PUSH1 0x40 MLOAD DUP3 DUP2 MSTORE PUSH1 0x0 DUP1 MLOAD PUSH1 0x20 PUSH2 0x2285 DUP4 CODECOPY DUP2 MLOAD SWAP2 MSTORE SWAP1 PUSH1 0x20 ADD PUSH2 0x422 JUMP JUMPDEST PUSH1 0x0 DUP4 DUP2 MSTORE PUSH1 0x2 PUSH1 0x20 MSTORE PUSH1 0x40 SWAP1 DUP2 SWAP1 KECCAK256 SLOAD SWAP1 MLOAD PUSH1 0x0 DUP1 MLOAD PUSH1 0x20 PUSH2 0x22C5 DUP4 CODECOPY DUP2 MLOAD SWAP2 MSTORE SWAP2 PUSH2 0x798 SWAP2 PUSH1 0xFF SWAP1 SWAP2 AND SWAP1 DUP7 SWAP1 DUP10 SWAP1 PUSH2 0x1FC7 JUMP JUMPDEST PUSH1 0x40 MLOAD DUP1 SWAP2 SUB SWAP1 LOG1 PUSH2 0x7AA DUP4 DUP7 PUSH2 0x1A54 JUMP JUMPDEST POP POP POP PUSH1 0x4 SWAP5 SWAP1 SWAP5 SSTORE POP POP POP PUSH1 0x5 SWAP2 SWAP1 SWAP2 SSTORE POP POP POP JUMP JUMPDEST DUP4 DUP4 DUP4 DUP4 PUSH1 0x40 MLOAD PUSH1 0x20 ADD PUSH2 0x7D7 SWAP2 DUP2 MSTORE PUSH1 0x20 ADD SWAP1 JUMP JUMPDEST PUSH1 0x40 DUP1 MLOAD PUSH1 0x1F NOT DUP2 DUP5 SUB ADD DUP2 MSTORE SWAP2 SWAP1 MSTORE PUSH1 0x0 SLOAD PUSH1 0xFF AND PUSH2 0x809 JUMPI PUSH1 0x40 MLOAD PUSH3 0x461BCD PUSH1 0xE5 SHL DUP2 MSTORE PUSH1 0x4 ADD PUSH2 0x31C SWAP1 PUSH2 0x1FE6 JUMP JUMPDEST PUSH1 0x0 DUP5 PUSH1 0x40 MLOAD PUSH1 0x20 ADD PUSH2 0x81C SWAP2 SWAP1 PUSH2 0x201D JUMP JUMPDEST PUSH1 0x40 DUP1 MLOAD PUSH1 0x1F NOT DUP2 DUP5 SUB ADD DUP2 MSTORE SWAP2 SWAP1 MSTORE DUP1 MLOAD PUSH1 0x20 SWAP1 SWAP2 ADD KECCAK256 SWAP1 POP PUSH1 0x0 DUP1 DUP3 DUP2 MSTORE PUSH1 0x2 PUSH1 0x20 DUP2 SWAP1 MSTORE PUSH1 0x40 SWAP1 SWAP2 KECCAK256 SLOAD PUSH1 0xFF AND SWAP1 DUP2 GT ISZERO PUSH2 0x85C JUMPI PUSH2 0x85C PUSH2 0x1D1E JUMP JUMPDEST EQ PUSH2 0x879 JUMPI PUSH1 0x40 MLOAD PUSH3 0x461BCD PUSH1 0xE5 SHL DUP2 MSTORE PUSH1 0x4 ADD PUSH2 0x31C SWAP1 PUSH2 0x2054 JUMP JUMPDEST PUSH1 0x0 DUP3 DUP5 PUSH1 0x40 MLOAD PUSH1 0x20 ADD PUSH2 0x88E SWAP3 SWAP2 SWAP1 PUSH2 0x208B JUMP JUMPDEST PUSH1 0x40 DUP1 MLOAD PUSH1 0x1F NOT DUP2 DUP5 SUB ADD DUP2 MSTORE SWAP1 DUP3 SWAP1 MSTORE DUP1 MLOAD PUSH1 0x20 SWAP2 DUP3 ADD KECCAK256 DUP1 DUP4 MSTORE SWAP3 POP PUSH1 0x0 DUP1 MLOAD PUSH1 0x20 PUSH2 0x22A5 DUP4 CODECOPY DUP2 MLOAD SWAP2 MSTORE SWAP2 ADD PUSH1 0x40 MLOAD DUP1 SWAP2 SUB SWAP1 LOG1 PUSH1 0x0 PUSH2 0x8D2 DUP3 DUP8 DUP10 PUSH2 0xB6B JUMP JUMPDEST PUSH1 0x0 DUP1 SLOAD PUSH2 0xFF00 NOT AND PUSH2 0x100 DUP4 ISZERO ISZERO MUL OR SWAP1 SSTORE SWAP1 POP DUP1 PUSH2 0x90A JUMPI PUSH1 0x40 MLOAD DUP3 DUP2 MSTORE PUSH1 0x0 DUP1 MLOAD PUSH1 0x20 PUSH2 0x2285 DUP4 CODECOPY DUP2 MLOAD SWAP2 MSTORE SWAP1 PUSH1 0x20 ADD PUSH2 0x422 JUMP JUMPDEST PUSH1 0x0 DUP4 DUP2 MSTORE PUSH1 0x2 PUSH1 0x20 MSTORE PUSH1 0x40 SWAP1 DUP2 SWAP1 KECCAK256 SLOAD SWAP1 MLOAD PUSH1 0x0 DUP1 MLOAD PUSH1 0x20 PUSH2 0x22C5 DUP4 CODECOPY DUP2 MLOAD SWAP2 MSTORE SWAP2 PUSH2 0x940 SWAP2 PUSH1 0xFF SWAP1 SWAP2 AND SWAP1 DUP7 SWAP1 DUP10 SWAP1 PUSH2 0x1FC7 JUMP JUMPDEST PUSH1 0x40 MLOAD DUP1 SWAP2 SUB SWAP1 LOG1 PUSH2 0x952 DUP4 DUP7 PUSH2 0x1A54 JUMP JUMPDEST PUSH1 0x0 DUP12 PUSH1 0x40 MLOAD PUSH1 0x20 ADD PUSH2 0x965 SWAP2 SWAP1 PUSH2 0x201D JUMP JUMPDEST PUSH1 0x40 DUP1 MLOAD PUSH1 0x1F NOT DUP2 DUP5 SUB ADD DUP2 MSTORE SWAP2 SWAP1 MSTORE DUP1 MLOAD PUSH1 0x20 SWAP1 SWAP2 ADD KECCAK256 PUSH1 0x6 DUP1 SLOAD PUSH1 0x0 SWAP1 SWAP2 SSTORE SWAP1 SWAP2 POP DUP2 EQ ISZERO DUP1 PUSH2 0x9A9 JUMPI PUSH1 0x40 MLOAD PUSH3 0x461BCD PUSH1 0xE5 SHL DUP2 MSTORE PUSH1 0x4 ADD PUSH2 0x31C SWAP1 PUSH2 0x20BD JUMP JUMPDEST PUSH2 0x9B4 PUSH1 0x0 DUP12 PUSH2 0x1BF9 JUMP JUMPDEST POP POP PUSH1 0x0 PUSH1 0x6 SSTORE POP POP POP POP POP POP POP POP POP POP POP JUMP JUMPDEST DUP4 DUP4 DUP4 DUP4 PUSH1 0x40 MLOAD PUSH1 0x20 ADD PUSH2 0x9DE SWAP2 DUP2 MSTORE PUSH1 0x20 ADD SWAP1 JUMP JUMPDEST PUSH1 0x40 DUP1 MLOAD PUSH1 0x1F NOT DUP2 DUP5 SUB ADD DUP2 MSTORE SWAP2 SWAP1 MSTORE PUSH1 0x0 SLOAD PUSH1 0xFF AND PUSH2 0xA10 JUMPI PUSH1 0x40 MLOAD PUSH3 0x461BCD PUSH1 0xE5 SHL DUP2 MSTORE PUSH1 0x4 ADD PUSH2 0x31C SWAP1 PUSH2 0x1FE6 JUMP JUMPDEST PUSH1 0x0 DUP5 PUSH1 0x40 MLOAD PUSH1 0x20 ADD PUSH2 0xA23 SWAP2 SWAP1 PUSH2 0x201D JUMP JUMPDEST PUSH1 0x40 DUP1 MLOAD PUSH1 0x1F NOT DUP2 DUP5 SUB ADD DUP2 MSTORE SWAP2 SWAP1 MSTORE DUP1 MLOAD PUSH1 0x20 SWAP1 SWAP2 ADD KECCAK256 SWAP1 POP PUSH1 0x0 DUP1 DUP3 DUP2 MSTORE PUSH1 0x2 PUSH1 0x20 DUP2 SWAP1 MSTORE PUSH1 0x40 SWAP1 SWAP2 KECCAK256 SLOAD PUSH1 0xFF AND SWAP1 DUP2 GT ISZERO PUSH2 0xA63 JUMPI PUSH2 0xA63 PUSH2 0x1D1E JUMP JUMPDEST EQ PUSH2 0xA80 JUMPI PUSH1 0x40 MLOAD PUSH3 0x461BCD PUSH1 0xE5 SHL DUP2 MSTORE PUSH1 0x4 ADD PUSH2 0x31C SWAP1 PUSH2 0x2054 JUMP JUMPDEST PUSH1 0x0 DUP3 DUP5 PUSH1 0x40 MLOAD PUSH1 0x20 ADD PUSH2 0xA95 SWAP3 SWAP2 SWAP1 PUSH2 0x208B JUMP JUMPDEST PUSH1 0x40 DUP1 MLOAD PUSH1 0x1F NOT DUP2 DUP5 SUB ADD DUP2 MSTORE SWAP1 DUP3 SWAP1 MSTORE DUP1 MLOAD PUSH1 0x20 SWAP2 DUP3 ADD KECCAK256 DUP1 DUP4 MSTORE SWAP3 POP PUSH1 0x0 DUP1 MLOAD PUSH1 0x20 PUSH2 0x22A5 DUP4 CODECOPY DUP2 MLOAD SWAP2 MSTORE SWAP2 ADD PUSH1 0x40 MLOAD DUP1 SWAP2 SUB SWAP1 LOG1 PUSH1 0x0 PUSH2 0xAD9 DUP3 DUP8 DUP10 PUSH2 0xB6B JUMP JUMPDEST PUSH1 0x0 DUP1 SLOAD PUSH2 0xFF00 NOT AND PUSH2 0x100 DUP4 ISZERO ISZERO MUL OR SWAP1 SSTORE SWAP1 POP DUP1 PUSH2 0xB11 JUMPI PUSH1 0x40 MLOAD DUP3 DUP2 MSTORE PUSH1 0x0 DUP1 MLOAD PUSH1 0x20 PUSH2 0x2285 DUP4 CODECOPY DUP2 MLOAD SWAP2 MSTORE SWAP1 PUSH1 0x20 ADD PUSH2 0x422 JUMP JUMPDEST PUSH1 0x0 DUP4 DUP2 MSTORE PUSH1 0x2 PUSH1 0x20 MSTORE PUSH1 0x40 SWAP1 DUP2 SWAP1 KECCAK256 SLOAD SWAP1 MLOAD PUSH1 0x0 DUP1 MLOAD PUSH1 0x20 PUSH2 0x22C5 DUP4 CODECOPY DUP2 MLOAD SWAP2 MSTORE SWAP2 PUSH2 0xB47 SWAP2 PUSH1 0xFF SWAP1 SWAP2 AND SWAP1 DUP7 SWAP1 DUP10 SWAP1 PUSH2 0x1FC7 JUMP JUMPDEST PUSH1 0x40 MLOAD DUP1 SWAP2 SUB SWAP1 LOG1 PUSH2 0xB59 DUP4 DUP7 PUSH2 0x1A54 JUMP JUMPDEST POP POP POP PUSH1 0x6 SWAP6 SWAP1 SWAP6 SSTORE POP POP POP POP POP POP POP JUMP JUMPDEST PUSH1 0x0 DUP1 JUMPDEST PUSH2 0x100 DUP2 LT ISZERO PUSH2 0xC13 JUMPI DUP4 DUP2 PUSH2 0x100 DUP2 LT PUSH2 0xB8C JUMPI PUSH2 0xB8C PUSH2 0x211B JUMP JUMPDEST PUSH1 0x20 MUL DUP2 ADD SWAP1 PUSH2 0xB9C SWAP2 SWAP1 PUSH2 0x2131 JUMP JUMPDEST PUSH1 0x40 MLOAD PUSH2 0xBAA SWAP3 SWAP2 SWAP1 PUSH2 0x217F JUMP JUMPDEST PUSH1 0x40 MLOAD DUP1 SWAP2 SUB SWAP1 KECCAK256 DUP4 DUP3 PUSH2 0x100 DUP2 LT PUSH2 0xBC5 JUMPI PUSH2 0xBC5 PUSH2 0x211B JUMP JUMPDEST PUSH1 0x40 MUL ADD PUSH1 0x0 DUP4 PUSH1 0xFF SUB PUSH1 0x1 SWAP1 SHL DUP9 AND GT PUSH2 0xBE1 JUMPI PUSH1 0x0 PUSH2 0xBE4 JUMP JUMPDEST PUSH1 0x1 JUMPDEST PUSH1 0xFF AND PUSH1 0x2 DUP2 LT PUSH2 0xBF7 JUMPI PUSH2 0xBF7 PUSH2 0x211B JUMP JUMPDEST PUSH1 0x20 MUL ADD CALLDATALOAD EQ PUSH2 0xC0B JUMPI PUSH1 0x0 SWAP2 POP POP PUSH2 0xC19 JUMP JUMPDEST PUSH1 0x1 ADD PUSH2 0xB6F JUMP JUMPDEST POP PUSH1 0x1 SWAP1 POP JUMPDEST SWAP4 SWAP3 POP POP POP JUMP JUMPDEST PUSH1 0x1 SLOAD PUSH1 0x60 SWAP1 PUSH1 0x0 SWAP1 PUSH8 0xFFFFFFFFFFFFFFFF DUP2 GT ISZERO PUSH2 0xC41 JUMPI PUSH2 0xC41 PUSH2 0x1DFE JUMP JUMPDEST PUSH1 0x40 MLOAD SWAP1 DUP1 DUP3 MSTORE DUP1 PUSH1 0x20 MUL PUSH1 0x20 ADD DUP3 ADD PUSH1 0x40 MSTORE DUP1 ISZERO PUSH2 0xC6A JUMPI DUP2 PUSH1 0x20 ADD PUSH1 0x20 DUP3 MUL DUP1 CALLDATASIZE DUP4 CALLDATACOPY ADD SWAP1 POP JUMPDEST POP SWAP1 POP PUSH1 0x0 DUP1 JUMPDEST PUSH1 0x1 SLOAD DUP2 LT ISZERO PUSH2 0xD21 JUMPI DUP5 PUSH1 0x2 DUP2 GT ISZERO PUSH2 0xC8D JUMPI PUSH2 0xC8D PUSH2 0x1D1E JUMP JUMPDEST PUSH1 0x1 DUP3 DUP2 SLOAD DUP2 LT PUSH2 0xCA0 JUMPI PUSH2 0xCA0 PUSH2 0x211B JUMP JUMPDEST PUSH1 0x0 SWAP2 DUP3 MSTORE PUSH1 0x20 SWAP1 SWAP2 KECCAK256 PUSH1 0x2 SWAP2 DUP3 MUL ADD SLOAD PUSH1 0xFF AND SWAP1 DUP2 GT ISZERO PUSH2 0xCC4 JUMPI PUSH2 0xCC4 PUSH2 0x1D1E JUMP JUMPDEST SUB PUSH2 0xD19 JUMPI PUSH1 0x1 DUP2 DUP2 SLOAD DUP2 LT PUSH2 0xCDC JUMPI PUSH2 0xCDC PUSH2 0x211B JUMP JUMPDEST SWAP1 PUSH1 0x0 MSTORE PUSH1 0x20 PUSH1 0x0 KECCAK256 SWAP1 PUSH1 0x2 MUL ADD PUSH1 0x1 ADD SLOAD DUP4 DUP4 DUP2 MLOAD DUP2 LT PUSH2 0xD00 JUMPI PUSH2 0xD00 PUSH2 0x211B JUMP JUMPDEST PUSH1 0x20 SWAP1 DUP2 MUL SWAP2 SWAP1 SWAP2 ADD ADD MSTORE DUP2 PUSH2 0xD15 DUP2 PUSH2 0x218F JUMP JUMPDEST SWAP3 POP POP JUMPDEST PUSH1 0x1 ADD PUSH2 0xC71 JUMP JUMPDEST POP PUSH1 0x0 DUP2 PUSH8 0xFFFFFFFFFFFFFFFF DUP2 GT ISZERO PUSH2 0xD3D JUMPI PUSH2 0xD3D PUSH2 0x1DFE JUMP JUMPDEST PUSH1 0x40 MLOAD SWAP1 DUP1 DUP3 MSTORE DUP1 PUSH1 0x20 MUL PUSH1 0x20 ADD DUP3 ADD PUSH1 0x40 MSTORE DUP1 ISZERO PUSH2 0xD66 JUMPI DUP2 PUSH1 0x20 ADD PUSH1 0x20 DUP3 MUL DUP1 CALLDATASIZE DUP4 CALLDATACOPY ADD SWAP1 POP JUMPDEST POP SWAP1 POP PUSH1 0x0 JUMPDEST DUP3 DUP2 LT ISZERO PUSH2 0xDB3 JUMPI DUP4 DUP2 DUP2 MLOAD DUP2 LT PUSH2 0xD86 JUMPI PUSH2 0xD86 PUSH2 0x211B JUMP JUMPDEST PUSH1 0x20 MUL PUSH1 0x20 ADD ADD MLOAD DUP3 DUP3 DUP2 MLOAD DUP2 LT PUSH2 0xDA0 JUMPI PUSH2 0xDA0 PUSH2 0x211B JUMP JUMPDEST PUSH1 0x20 SWAP1 DUP2 MUL SWAP2 SWAP1 SWAP2 ADD ADD MSTORE PUSH1 0x1 ADD PUSH2 0xD6C JUMP JUMPDEST POP SWAP5 SWAP4 POP POP POP POP JUMP JUMPDEST PUSH1 0x0 DUP2 DUP2 MSTORE PUSH1 0x2 PUSH1 0x20 DUP2 SWAP1 MSTORE PUSH1 0x40 DUP1 DUP4 KECCAK256 DUP2 MLOAD DUP1 DUP4 ADD SWAP1 SWAP3 MSTORE DUP1 SLOAD DUP5 SWAP4 DUP5 SWAP4 DUP5 SWAP4 SWAP1 SWAP3 SWAP1 SWAP2 DUP4 SWAP2 PUSH1 0xFF AND SWAP1 DUP2 GT ISZERO PUSH2 0xDF6 JUMPI PUSH2 0xDF6 PUSH2 0x1D1E JUMP JUMPDEST PUSH1 0x2 DUP2 GT ISZERO PUSH2 0xE07 JUMPI PUSH2 0xE07 PUSH2 0x1D1E JUMP JUMPDEST DUP2 MSTORE PUSH1 0x1 SWAP2 SWAP1 SWAP2 ADD SLOAD PUSH1 0x20 SWAP2 DUP3 ADD MSTORE DUP2 ADD MLOAD SWAP1 SWAP2 POP PUSH1 0x0 SUB PUSH2 0xE3B JUMPI PUSH1 0x40 MLOAD PUSH3 0x461BCD PUSH1 0xE5 SHL DUP2 MSTORE PUSH1 0x4 ADD PUSH2 0x31C SWAP1 PUSH2 0x21B6 JUMP JUMPDEST PUSH1 0x0 JUMPDEST PUSH1 0x1 SLOAD DUP2 LT ISZERO PUSH2 0xE90 JUMPI DUP6 PUSH1 0x1 DUP3 DUP2 SLOAD DUP2 LT PUSH2 0xE5C JUMPI PUSH2 0xE5C PUSH2 0x211B JUMP JUMPDEST SWAP1 PUSH1 0x0 MSTORE PUSH1 0x20 PUSH1 0x0 KECCAK256 SWAP1 PUSH1 0x2 MUL ADD PUSH1 0x1 ADD SLOAD SUB PUSH2 0xE88 JUMPI DUP2 MLOAD PUSH1 0x20 SWAP1 SWAP3 ADD MLOAD SWAP2 SWAP5 POP SWAP1 SWAP3 POP SWAP1 POP PUSH2 0xEA9 JUMP JUMPDEST PUSH1 0x1 ADD PUSH2 0xE3E JUMP JUMPDEST POP PUSH1 0x40 MLOAD PUSH3 0x461BCD PUSH1 0xE5 SHL DUP2 MSTORE PUSH1 0x4 ADD PUSH2 0x31C SWAP1 PUSH2 0x21B6 JUMP JUMPDEST SWAP2 SWAP4 SWAP1 SWAP3 POP JUMP JUMPDEST DUP4 DUP4 DUP4 DUP4 PUSH1 0x40 MLOAD PUSH1 0x20 ADD PUSH2 0xEC6 SWAP2 DUP2 MSTORE PUSH1 0x20 ADD SWAP1 JUMP JUMPDEST PUSH1 0x40 DUP1 MLOAD PUSH1 0x1F NOT DUP2 DUP5 SUB ADD DUP2 MSTORE SWAP2 SWAP1 MSTORE PUSH1 0x0 SLOAD PUSH1 0xFF AND PUSH2 0xEF8 JUMPI PUSH1 0x40 MLOAD PUSH3 0x461BCD PUSH1 0xE5 SHL DUP2 MSTORE PUSH1 0x4 ADD PUSH2 0x31C SWAP1 PUSH2 0x1FE6 JUMP JUMPDEST PUSH1 0x0 DUP5 PUSH1 0x40 MLOAD PUSH1 0x20 ADD PUSH2 0xF0B SWAP2 SWAP1 PUSH2 0x201D JUMP JUMPDEST PUSH1 0x40 DUP1 MLOAD PUSH1 0x1F NOT DUP2 DUP5 SUB ADD DUP2 MSTORE SWAP2 SWAP1 MSTORE DUP1 MLOAD PUSH1 0x20 SWAP1 SWAP2 ADD KECCAK256 SWAP1 POP PUSH1 0x0 DUP1 DUP3 DUP2 MSTORE PUSH1 0x2 PUSH1 0x20 DUP2 SWAP1 MSTORE PUSH1 0x40 SWAP1 SWAP2 KECCAK256 SLOAD PUSH1 0xFF AND SWAP1 DUP2 GT ISZERO PUSH2 0xF4B JUMPI PUSH2 0xF4B PUSH2 0x1D1E JUMP JUMPDEST EQ PUSH2 0xF68 JUMPI PUSH1 0x40 MLOAD PUSH3 0x461BCD PUSH1 0xE5 SHL DUP2 MSTORE PUSH1 0x4 ADD PUSH2 0x31C SWAP1 PUSH2 0x2054 JUMP JUMPDEST PUSH1 0x0 DUP3 DUP5 PUSH1 0x40 MLOAD PUSH1 0x20 ADD PUSH2 0xF7D SWAP3 SWAP2 SWAP1 PUSH2 0x208B JUMP JUMPDEST PUSH1 0x40 DUP1 MLOAD PUSH1 0x1F NOT DUP2 DUP5 SUB ADD DUP2 MSTORE SWAP1 DUP3 SWAP1 MSTORE DUP1 MLOAD PUSH1 0x20 SWAP2 DUP3 ADD KECCAK256 DUP1 DUP4 MSTORE SWAP3 POP PUSH1 0x0 DUP1 MLOAD PUSH1 0x20 PUSH2 0x22A5 DUP4 CODECOPY DUP2 MLOAD SWAP2 MSTORE SWAP2 ADD PUSH1 0x40 MLOAD DUP1 SWAP2 SUB SWAP1 LOG1 PUSH1 0x0 PUSH2 0xFC1 DUP3 DUP8 DUP10 PUSH2 0xB6B JUMP JUMPDEST PUSH1 0x0 DUP1 SLOAD PUSH2 0xFF00 NOT AND PUSH2 0x100 DUP4 ISZERO ISZERO MUL OR SWAP1 SSTORE SWAP1 POP DUP1 PUSH2 0xFF9 JUMPI PUSH1 0x40 MLOAD DUP3 DUP2 MSTORE PUSH1 0x0 DUP1 MLOAD PUSH1 0x20 PUSH2 0x2285 DUP4 CODECOPY DUP2 MLOAD SWAP2 MSTORE SWAP1 PUSH1 0x20 ADD PUSH2 0x422 JUMP JUMPDEST PUSH1 0x0 DUP4 DUP2 MSTORE PUSH1 0x2 PUSH1 0x20 MSTORE PUSH1 0x40 SWAP1 DUP2 SWAP1 KECCAK256 SLOAD SWAP1 MLOAD PUSH1 0x0 DUP1 MLOAD PUSH1 0x20 PUSH2 0x22C5 DUP4 CODECOPY DUP2 MLOAD SWAP2 MSTORE SWAP2 PUSH2 0x102F SWAP2 PUSH1 0xFF SWAP1 SWAP2 AND SWAP1 DUP7 SWAP1 DUP10 SWAP1 PUSH2 0x1FC7 JUMP JUMPDEST PUSH1 0x40 MLOAD DUP1 SWAP2 SUB SWAP1 LOG1 PUSH2 0x1041 DUP4 DUP7 PUSH2 0x1A54 JUMP JUMPDEST PUSH1 0x0 DUP12 PUSH1 0x40 MLOAD PUSH1 0x20 ADD PUSH2 0x1054 SWAP2 SWAP1 PUSH2 0x201D JUMP JUMPDEST PUSH1 0x40 MLOAD PUSH1 0x20 DUP2 DUP4 SUB SUB DUP2 MSTORE SWAP1 PUSH1 0x40 MSTORE DUP1 MLOAD SWAP1 PUSH1 0x20 ADD KECCAK256 SWAP1 POP PUSH1 0x5 SLOAD DUP2 SUB PUSH2 0x108D JUMPI PUSH1 0x40 MLOAD PUSH3 0x461BCD PUSH1 0xE5 SHL DUP2 MSTORE PUSH1 0x4 ADD PUSH2 0x31C SWAP1 PUSH2 0x21ED JUMP JUMPDEST DUP9 PUSH1 0x4 SLOAD EQ PUSH2 0x10DE JUMPI PUSH1 0x40 MLOAD PUSH3 0x461BCD PUSH1 0xE5 SHL DUP2 MSTORE PUSH1 0x20 PUSH1 0x4 DUP3 ADD MSTORE PUSH1 0x1E PUSH1 0x24 DUP3 ADD MSTORE PUSH32 0x4C616D706F7274426173653A204B65797320646F206E6F74206D617463680000 PUSH1 0x44 DUP3 ADD MSTORE PUSH1 0x64 ADD PUSH2 0x31C JUMP JUMPDEST PUSH1 0x1 SLOAD DUP10 LT PUSH2 0x112F JUMPI PUSH1 0x40 MLOAD PUSH3 0x461BCD PUSH1 0xE5 SHL DUP2 MSTORE PUSH1 0x20 PUSH1 0x4 DUP3 ADD MSTORE PUSH1 0x1E PUSH1 0x24 DUP3 ADD MSTORE PUSH32 0x4C616D706F7274426173653A20496E76616C6964206B657920696E6465780000 PUSH1 0x44 DUP3 ADD MSTORE PUSH1 0x64 ADD PUSH2 0x31C JUMP JUMPDEST PUSH1 0x0 PUSH1 0x1 DUP11 DUP2 SLOAD DUP2 LT PUSH2 0x1144 JUMPI PUSH2 0x1144 PUSH2 0x211B JUMP JUMPDEST SWAP1 PUSH1 0x0 MSTORE PUSH1 0x20 PUSH1 0x0 KECCAK256 SWAP1 PUSH1 0x2 MUL ADD PUSH1 0x40 MLOAD DUP1 PUSH1 0x40 ADD PUSH1 0x40 MSTORE SWAP1 DUP2 PUSH1 0x0 DUP3 ADD PUSH1 0x0 SWAP1 SLOAD SWAP1 PUSH2 0x100 EXP SWAP1 DIV PUSH1 0xFF AND PUSH1 0x2 DUP2 GT ISZERO PUSH2 0x1181 JUMPI PUSH2 0x1181 PUSH2 0x1D1E JUMP JUMPDEST PUSH1 0x2 DUP2 GT ISZERO PUSH2 0x1192 JUMPI PUSH2 0x1192 PUSH2 0x1D1E JUMP JUMPDEST DUP2 MSTORE PUSH1 0x1 SWAP2 SWAP1 SWAP2 ADD SLOAD PUSH1 0x20 SWAP1 SWAP2 ADD MSTORE SWAP1 POP PUSH1 0x2 DUP2 MLOAD PUSH1 0x2 DUP2 GT ISZERO PUSH2 0x11B8 JUMPI PUSH2 0x11B8 PUSH2 0x1D1E JUMP JUMPDEST SUB PUSH2 0x1205 JUMPI PUSH1 0x40 MLOAD PUSH3 0x461BCD PUSH1 0xE5 SHL DUP2 MSTORE PUSH1 0x20 PUSH1 0x4 DUP3 ADD DUP2 SWAP1 MSTORE PUSH1 0x24 DUP3 ADD MSTORE PUSH32 0x4C616D706F7274426173653A204B657920616C72656164792064656C65746564 PUSH1 0x44 DUP3 ADD MSTORE PUSH1 0x64 ADD PUSH2 0x31C JUMP JUMPDEST DUP1 MLOAD PUSH1 0x40 DUP1 MLOAD TIMESTAMP PUSH1 0x20 DUP1 DUP4 ADD SWAP2 SWAP1 SWAP2 MSTORE DIFFICULTY DUP3 DUP5 ADD MSTORE DUP3 MLOAD DUP1 DUP4 SUB DUP5 ADD DUP2 MSTORE PUSH1 0x60 SWAP1 SWAP3 ADD SWAP1 SWAP3 MSTORE DUP1 MLOAD SWAP2 ADD KECCAK256 PUSH1 0x1 DUP1 SLOAD PUSH4 0xDE1E7ED PUSH1 0xE4 SHL DUP4 XOR SWAP3 SWAP2 DUP4 SWAP2 DUP16 SWAP1 DUP2 LT PUSH2 0x1252 JUMPI PUSH2 0x1252 PUSH2 0x211B JUMP JUMPDEST SWAP1 PUSH1 0x0 MSTORE PUSH1 0x20 PUSH1 0x0 KECCAK256 SWAP1 PUSH1 0x2 MUL ADD PUSH1 0x1 ADD DUP2 SWAP1 SSTORE POP PUSH1 0x2 PUSH1 0x1 DUP15 DUP2 SLOAD DUP2 LT PUSH2 0x127C JUMPI PUSH2 0x127C PUSH2 0x211B JUMP JUMPDEST SWAP1 PUSH1 0x0 MSTORE PUSH1 0x20 PUSH1 0x0 KECCAK256 SWAP1 PUSH1 0x2 MUL ADD PUSH1 0x0 ADD PUSH1 0x0 PUSH2 0x100 EXP DUP2 SLOAD DUP2 PUSH1 0xFF MUL NOT AND SWAP1 DUP4 PUSH1 0x2 DUP2 GT ISZERO PUSH2 0x12AE JUMPI PUSH2 0x12AE PUSH2 0x1D1E JUMP JUMPDEST MUL OR SWAP1 SSTORE POP PUSH1 0x1 DUP14 DUP2 SLOAD DUP2 LT PUSH2 0x12C6 JUMPI PUSH2 0x12C6 PUSH2 0x211B JUMP JUMPDEST PUSH1 0x0 SWAP2 DUP3 MSTORE PUSH1 0x20 DUP1 DUP4 KECCAK256 DUP6 DUP5 MSTORE PUSH1 0x2 SWAP2 DUP3 SWAP1 MSTORE PUSH1 0x40 SWAP1 SWAP4 KECCAK256 SWAP2 DUP2 MUL SWAP1 SWAP3 ADD DUP1 SLOAD DUP3 SLOAD SWAP2 SWAP4 PUSH1 0xFF SWAP1 SWAP2 AND SWAP2 DUP4 SWAP2 PUSH1 0xFF NOT SWAP1 SWAP2 AND SWAP1 PUSH1 0x1 SWAP1 DUP5 SWAP1 DUP2 GT ISZERO PUSH2 0x130D JUMPI PUSH2 0x130D PUSH2 0x1D1E JUMP JUMPDEST MUL OR SWAP1 SSTORE POP PUSH1 0x1 SWAP2 DUP3 ADD SLOAD SWAP1 DUP3 ADD SSTORE PUSH1 0x20 DUP1 DUP7 ADD DUP1 MLOAD PUSH1 0x0 SWAP1 DUP2 MSTORE PUSH1 0x2 SWAP3 DUP4 SWAP1 MSTORE PUSH1 0x40 DUP1 DUP3 KECCAK256 DUP1 SLOAD PUSH1 0xFF NOT AND DUP2 SSTORE SWAP1 SWAP5 ADD SSTORE MLOAD SWAP2 MLOAD PUSH32 0x643BE3612916977C69D5ED1ABB75A50CCA49DF49BA2444D836E2A0CF65FE074 SWAP3 PUSH2 0x1372 SWAP3 DUP8 SWAP3 DUP8 SWAP2 SWAP1 PUSH2 0x2254 JUMP JUMPDEST PUSH1 0x40 MLOAD DUP1 SWAP2 SUB SWAP1 LOG1 POP POP PUSH1 0x0 PUSH1 0x4 DUP2 SWAP1 SSTORE PUSH1 0x5 SSTORE POP POP POP POP POP POP POP POP POP POP POP POP POP POP JUMP JUMPDEST DUP4 DUP4 DUP4 DUP4 PUSH1 0x40 MLOAD PUSH1 0x20 ADD PUSH2 0x13AC SWAP2 DUP2 MSTORE PUSH1 0x20 ADD SWAP1 JUMP JUMPDEST PUSH1 0x40 DUP1 MLOAD PUSH1 0x1F NOT DUP2 DUP5 SUB ADD DUP2 MSTORE SWAP2 SWAP1 MSTORE PUSH1 0x0 SLOAD PUSH1 0xFF AND PUSH2 0x13DE JUMPI PUSH1 0x40 MLOAD PUSH3 0x461BCD PUSH1 0xE5 SHL DUP2 MSTORE PUSH1 0x4 ADD PUSH2 0x31C SWAP1 PUSH2 0x1FE6 JUMP JUMPDEST PUSH1 0x0 DUP5 PUSH1 0x40 MLOAD PUSH1 0x20 ADD PUSH2 0x13F1 SWAP2 SWAP1 PUSH2 0x201D JUMP JUMPDEST PUSH1 0x40 DUP1 MLOAD PUSH1 0x1F NOT DUP2 DUP5 SUB ADD DUP2 MSTORE SWAP2 SWAP1 MSTORE DUP1 MLOAD PUSH1 0x20 SWAP1 SWAP2 ADD KECCAK256 SWAP1 POP PUSH1 0x0 DUP1 DUP3 DUP2 MSTORE PUSH1 0x2 PUSH1 0x20 DUP2 SWAP1 MSTORE PUSH1 0x40 SWAP1 SWAP2 KECCAK256 SLOAD PUSH1 0xFF AND SWAP1 DUP2 GT ISZERO PUSH2 0x1431 JUMPI PUSH2 0x1431 PUSH2 0x1D1E JUMP JUMPDEST EQ PUSH2 0x144E JUMPI PUSH1 0x40 MLOAD PUSH3 0x461BCD PUSH1 0xE5 SHL DUP2 MSTORE PUSH1 0x4 ADD PUSH2 0x31C SWAP1 PUSH2 0x2054 JUMP JUMPDEST PUSH1 0x0 DUP3 DUP5 PUSH1 0x40 MLOAD PUSH1 0x20 ADD PUSH2 0x1463 SWAP3 SWAP2 SWAP1 PUSH2 0x208B JUMP JUMPDEST PUSH1 0x40 DUP1 MLOAD PUSH1 0x1F NOT DUP2 DUP5 SUB ADD DUP2 MSTORE SWAP1 DUP3 SWAP1 MSTORE DUP1 MLOAD PUSH1 0x20 SWAP2 DUP3 ADD KECCAK256 DUP1 DUP4 MSTORE SWAP3 POP PUSH1 0x0 DUP1 MLOAD PUSH1 0x20 PUSH2 0x22A5 DUP4 CODECOPY DUP2 MLOAD SWAP2 MSTORE SWAP2 ADD PUSH1 0x40 MLOAD DUP1 SWAP2 SUB SWAP1 LOG1 PUSH1 0x0 PUSH2 0x14A7 DUP3 DUP8 DUP10 PUSH2 0xB6B JUMP JUMPDEST PUSH1 0x0 DUP1 SLOAD PUSH2 0xFF00 NOT AND PUSH2 0x100 DUP4 ISZERO ISZERO MUL OR SWAP1 SSTORE SWAP1 POP DUP1 PUSH2 0x14DF JUMPI PUSH1 0x40 MLOAD DUP3 DUP2 MSTORE PUSH1 0x0 DUP1 MLOAD PUSH1 0x20 PUSH2 0x2285 DUP4 CODECOPY DUP2 MLOAD SWAP2 MSTORE SWAP1 PUSH1 0x20 ADD PUSH2 0x422 JUMP JUMPDEST PUSH1 0x0 DUP4 DUP2 MSTORE PUSH1 0x2 PUSH1 0x20 MSTORE PUSH1 0x40 SWAP1 DUP2 SWAP1 KECCAK256 SLOAD SWAP1 MLOAD PUSH1 0x0 DUP1 MLOAD PUSH1 0x20 PUSH2 0x22C5 DUP4 CODECOPY DUP2 MLOAD SWAP2 MSTORE SWAP2 PUSH2 0x1515 SWAP2 PUSH1 0xFF SWAP1 SWAP2 AND SWAP1 DUP7 SWAP1 DUP10 SWAP1 PUSH2 0x1FC7 JUMP JUMPDEST PUSH1 0x40 MLOAD DUP1 SWAP2 SUB SWAP1 LOG1 PUSH2 0x1527 DUP4 DUP7 PUSH2 0x1A54 JUMP JUMPDEST PUSH1 0x0 DUP12 PUSH1 0x40 MLOAD PUSH1 0x20 ADD PUSH2 0x153A SWAP2 SWAP1 PUSH2 0x201D JUMP JUMPDEST PUSH1 0x40 MLOAD PUSH1 0x20 DUP2 DUP4 SUB SUB DUP2 MSTORE SWAP1 PUSH1 0x40 MSTORE DUP1 MLOAD SWAP1 PUSH1 0x20 ADD KECCAK256 SWAP1 POP PUSH1 0x5 SLOAD DUP2 SUB PUSH2 0x1573 JUMPI PUSH1 0x40 MLOAD PUSH3 0x461BCD PUSH1 0xE5 SHL DUP2 MSTORE PUSH1 0x4 ADD PUSH2 0x31C SWAP1 PUSH2 0x21ED JUMP JUMPDEST DUP9 PUSH1 0x3 SLOAD EQ PUSH2 0x15C4 JUMPI PUSH1 0x40 MLOAD PUSH3 0x461BCD PUSH1 0xE5 SHL DUP2 MSTORE PUSH1 0x20 PUSH1 0x4 DUP3 ADD MSTORE PUSH1 0x1E PUSH1 0x24 DUP3 ADD MSTORE PUSH32 0x4C616D706F7274426173653A204B65797320646F206E6F74206D617463680000 PUSH1 0x44 DUP3 ADD MSTORE PUSH1 0x64 ADD PUSH2 0x31C JUMP JUMPDEST PUSH1 0x5 SLOAD DUP2 DUP11 PUSH1 0x0 DUP1 DUP5 DUP2 MSTORE PUSH1 0x2 PUSH1 0x20 DUP2 SWAP1 MSTORE PUSH1 0x40 SWAP1 SWAP2 KECCAK256 SLOAD PUSH1 0xFF AND SWAP1 DUP2 GT ISZERO PUSH2 0x15EF JUMPI PUSH2 0x15EF PUSH2 0x1D1E JUMP JUMPDEST EQ DUP1 ISZERO PUSH2 0x161D JUMPI POP PUSH1 0x0 DUP3 DUP2 MSTORE PUSH1 0x2 PUSH1 0x20 DUP2 SWAP1 MSTORE PUSH1 0x40 DUP3 KECCAK256 SLOAD PUSH1 0xFF AND SWAP1 DUP2 GT ISZERO PUSH2 0x161B JUMPI PUSH2 0x161B PUSH2 0x1D1E JUMP JUMPDEST EQ JUMPDEST PUSH2 0x1680 JUMPI PUSH1 0x40 MLOAD PUSH3 0x461BCD PUSH1 0xE5 SHL DUP2 MSTORE PUSH1 0x20 PUSH1 0x4 DUP3 ADD MSTORE PUSH1 0x2E PUSH1 0x24 DUP3 ADD MSTORE PUSH32 0x4C616D706F7274426173653A2050726F7669646564206B65797320617265206E PUSH1 0x44 DUP3 ADD MSTORE PUSH14 0x6F74206D6173746572206B657973 PUSH1 0x90 SHL PUSH1 0x64 DUP3 ADD MSTORE PUSH1 0x84 ADD PUSH2 0x31C JUMP JUMPDEST DUP3 DUP2 EQ ISZERO DUP1 ISZERO PUSH2 0x1690 JUMPI POP DUP2 DUP2 EQ ISZERO JUMPDEST PUSH2 0x16F6 JUMPI PUSH1 0x40 MLOAD PUSH3 0x461BCD PUSH1 0xE5 SHL DUP2 MSTORE PUSH1 0x20 PUSH1 0x4 DUP3 ADD MSTORE PUSH1 0x31 PUSH1 0x24 DUP3 ADD MSTORE PUSH32 0x4C616D706F7274426173653A204D6173746572206B6579732063616E6E6F7420 PUSH1 0x44 DUP3 ADD MSTORE PUSH17 0x64656C657465207468656D73656C766573 PUSH1 0x78 SHL PUSH1 0x64 DUP3 ADD MSTORE PUSH1 0x84 ADD PUSH2 0x31C JUMP JUMPDEST PUSH1 0x0 DUP2 DUP2 MSTORE PUSH1 0x2 PUSH1 0x20 MSTORE PUSH1 0x40 DUP2 KECCAK256 PUSH1 0x1 ADD SLOAD SWAP1 SUB PUSH2 0x1762 JUMPI PUSH1 0x40 MLOAD PUSH3 0x461BCD PUSH1 0xE5 SHL DUP2 MSTORE PUSH1 0x20 PUSH1 0x4 DUP3 ADD MSTORE PUSH1 0x23 PUSH1 0x24 DUP3 ADD MSTORE PUSH32 0x4C616D706F7274426173653A204E6F2073756368206B6579202864656C657469 PUSH1 0x44 DUP3 ADD MSTORE PUSH3 0x6F6E29 PUSH1 0xE8 SHL PUSH1 0x64 DUP3 ADD MSTORE PUSH1 0x84 ADD PUSH2 0x31C JUMP JUMPDEST PUSH1 0x0 JUMPDEST PUSH1 0x1 SLOAD DUP2 LT ISZERO PUSH2 0x1845 JUMPI DUP2 PUSH1 0x1 DUP3 DUP2 SLOAD DUP2 LT PUSH2 0x1783 JUMPI PUSH2 0x1783 PUSH2 0x211B JUMP JUMPDEST SWAP1 PUSH1 0x0 MSTORE PUSH1 0x20 PUSH1 0x0 KECCAK256 SWAP1 PUSH1 0x2 MUL ADD PUSH1 0x1 ADD SLOAD SUB PUSH2 0x183D JUMPI PUSH1 0x0 DUP3 DUP2 MSTORE PUSH1 0x2 PUSH1 0x20 DUP2 DUP2 MSTORE PUSH1 0x40 DUP1 DUP5 KECCAK256 DUP1 SLOAD DUP3 MLOAD TIMESTAMP DUP2 DUP7 ADD MSTORE DIFFICULTY DUP2 DUP6 ADD MSTORE DUP4 MLOAD DUP1 DUP3 SUB DUP6 ADD DUP2 MSTORE PUSH1 0x60 SWAP1 SWAP2 ADD SWAP4 DUP5 SWAP1 MSTORE DUP1 MLOAD SWAP1 DUP6 ADD KECCAK256 SWAP6 DUP9 SWAP1 MSTORE SWAP3 DUP5 SWAP1 MSTORE PUSH4 0xDE1E7ED PUSH1 0xE4 SHL DUP6 XOR PUSH1 0x1 DUP3 ADD DUP2 SWAP1 SSTORE PUSH1 0xFF NOT DUP5 AND DUP6 OR SWAP1 SWAP2 SSTORE PUSH1 0xFF SWAP1 SWAP3 AND SWAP4 SWAP2 SWAP3 PUSH32 0x643BE3612916977C69D5ED1ABB75A50CCA49DF49BA2444D836E2A0CF65FE074 SWAP2 PUSH2 0x182D SWAP2 DUP7 SWAP2 DUP10 SWAP2 DUP8 SWAP2 PUSH2 0x2254 JUMP JUMPDEST PUSH1 0x40 MLOAD DUP1 SWAP2 SUB SWAP1 LOG1 POP POP POP PUSH2 0x1845 JUMP JUMPDEST PUSH1 0x1 ADD PUSH2 0x1765 JUMP JUMPDEST POP POP PUSH1 0x0 PUSH1 0x3 DUP2 SWAP1 SSTORE PUSH1 0x5 SSTORE POP POP POP POP POP POP POP POP POP POP POP POP POP POP JUMP JUMPDEST DUP4 DUP4 DUP4 DUP4 PUSH1 0x40 MLOAD PUSH1 0x20 ADD PUSH2 0x1877 SWAP2 DUP2 MSTORE PUSH1 0x20 ADD SWAP1 JUMP JUMPDEST PUSH1 0x40 DUP1 MLOAD PUSH1 0x1F NOT DUP2 DUP5 SUB ADD DUP2 MSTORE SWAP2 SWAP1 MSTORE PUSH1 0x0 SLOAD PUSH1 0xFF AND PUSH2 0x18A9 JUMPI PUSH1 0x40 MLOAD PUSH3 0x461BCD PUSH1 0xE5 SHL DUP2 MSTORE PUSH1 0x4 ADD PUSH2 0x31C SWAP1 PUSH2 0x1FE6 JUMP JUMPDEST PUSH1 0x0 DUP5 PUSH1 0x40 MLOAD PUSH1 0x20 ADD PUSH2 0x18BC SWAP2 SWAP1 PUSH2 0x201D JUMP JUMPDEST PUSH1 0x40 DUP1 MLOAD PUSH1 0x1F NOT DUP2 DUP5 SUB ADD DUP2 MSTORE SWAP2 SWAP1 MSTORE DUP1 MLOAD PUSH1 0x20 SWAP1 SWAP2 ADD KECCAK256 SWAP1 POP PUSH1 0x0 DUP1 DUP3 DUP2 MSTORE PUSH1 0x2 PUSH1 0x20 DUP2 SWAP1 MSTORE PUSH1 0x40 SWAP1 SWAP2 KECCAK256 SLOAD PUSH1 0xFF AND SWAP1 DUP2 GT ISZERO PUSH2 0x18FC JUMPI PUSH2 0x18FC PUSH2 0x1D1E JUMP JUMPDEST EQ PUSH2 0x1919 JUMPI PUSH1 0x40 MLOAD PUSH3 0x461BCD PUSH1 0xE5 SHL DUP2 MSTORE PUSH1 0x4 ADD PUSH2 0x31C SWAP1 PUSH2 0x2054 JUMP JUMPDEST PUSH1 0x0 DUP3 DUP5 PUSH1 0x40 MLOAD PUSH1 0x20 ADD PUSH2 0x192E SWAP3 SWAP2 SWAP1 PUSH2 0x208B JUMP JUMPDEST PUSH1 0x40 DUP1 MLOAD PUSH1 0x1F NOT DUP2 DUP5 SUB ADD DUP2 MSTORE SWAP1 DUP3 SWAP1 MSTORE DUP1 MLOAD PUSH1 0x20 SWAP2 DUP3 ADD KECCAK256 DUP1 DUP4 MSTORE SWAP3 POP PUSH1 0x0 DUP1 MLOAD PUSH1 0x20 PUSH2 0x22A5 DUP4 CODECOPY DUP2 MLOAD SWAP2 MSTORE SWAP2 ADD PUSH1 0x40 MLOAD DUP1 SWAP2 SUB SWAP1 LOG1 PUSH1 0x0 PUSH2 0x1972 DUP3 DUP8 DUP10 PUSH2 0xB6B JUMP JUMPDEST PUSH1 0x0 DUP1 SLOAD PUSH2 0xFF00 NOT AND PUSH2 0x100 DUP4 ISZERO ISZERO MUL OR SWAP1 SSTORE SWAP1 POP DUP1 PUSH2 0x19AA JUMPI PUSH1 0x40 MLOAD DUP3 DUP2 MSTORE PUSH1 0x0 DUP1 MLOAD PUSH1 0x20 PUSH2 0x2285 DUP4 CODECOPY DUP2 MLOAD SWAP2 MSTORE SWAP1 PUSH1 0x20 ADD PUSH2 0x422 JUMP JUMPDEST PUSH1 0x0 DUP4 DUP2 MSTORE PUSH1 0x2 PUSH1 0x20 MSTORE PUSH1 0x40 SWAP1 DUP2 SWAP1 KECCAK256 SLOAD SWAP1 MLOAD PUSH1 0x0 DUP1 MLOAD PUSH1 0x20 PUSH2 0x22C5 DUP4 CODECOPY DUP2 MLOAD SWAP2 MSTORE SWAP2 PUSH2 0x19E0 SWAP2 PUSH1 0xFF SWAP1 SWAP2 AND SWAP1 DUP7 SWAP1 DUP10 SWAP1 PUSH2 0x1FC7 JUMP JUMPDEST PUSH1 0x40 MLOAD DUP1 SWAP2 SUB SWAP1 LOG1 PUSH2 0x19F2 DUP4 DUP7 PUSH2 0x1A54 JUMP JUMPDEST PUSH1 0x0 DUP12 PUSH1 0x40 MLOAD PUSH1 0x20 ADD PUSH2 0x1A05 SWAP2 SWAP1 PUSH2 0x201D JUMP JUMPDEST PUSH1 0x40 DUP1 MLOAD PUSH1 0x1F NOT DUP2 DUP5 SUB ADD DUP2 MSTORE SWAP2 SWAP1 MSTORE DUP1 MLOAD PUSH1 0x20 SWAP1 SWAP2 ADD KECCAK256 PUSH1 0x6 DUP1 SLOAD PUSH1 0x0 SWAP1 SWAP2 SSTORE SWAP1 SWAP2 POP DUP2 EQ ISZERO DUP1 PUSH2 0x1A49 JUMPI PUSH1 0x40 MLOAD PUSH3 0x461BCD PUSH1 0xE5 SHL DUP2 MSTORE PUSH1 0x4 ADD PUSH2 0x31C SWAP1 PUSH2 0x20BD JUMP JUMPDEST PUSH2 0x9B4 PUSH1 0x1 DUP12 PUSH2 0x1BF9 JUMP JUMPDEST PUSH1 0x0 DUP3 DUP2 MSTORE PUSH1 0x2 PUSH1 0x20 MSTORE PUSH1 0x40 DUP2 KECCAK256 PUSH1 0x1 ADD SLOAD SWAP1 SUB PUSH2 0x1A84 JUMPI PUSH1 0x40 MLOAD PUSH3 0x461BCD PUSH1 0xE5 SHL DUP2 MSTORE PUSH1 0x4 ADD PUSH2 0x31C SWAP1 PUSH2 0x21B6 JUMP JUMPDEST PUSH1 0x40 DUP1 MLOAD DUP1 DUP3 ADD DUP3 MSTORE PUSH1 0x0 DUP5 DUP2 MSTORE PUSH1 0x2 PUSH1 0x20 DUP2 SWAP1 MSTORE SWAP3 DUP2 KECCAK256 SLOAD SWAP1 SWAP3 DUP3 SWAP2 PUSH1 0xFF AND SWAP1 DUP2 GT ISZERO PUSH2 0x1AB4 JUMPI PUSH2 0x1AB4 PUSH2 0x1D1E JUMP JUMPDEST DUP2 MSTORE PUSH1 0x20 ADD DUP4 DUP2 MSTORE POP SWAP1 POP DUP1 PUSH1 0x2 PUSH1 0x0 DUP5 DUP2 MSTORE PUSH1 0x20 ADD SWAP1 DUP2 MSTORE PUSH1 0x20 ADD PUSH1 0x0 KECCAK256 PUSH1 0x0 DUP3 ADD MLOAD DUP2 PUSH1 0x0 ADD PUSH1 0x0 PUSH2 0x100 EXP DUP2 SLOAD DUP2 PUSH1 0xFF MUL NOT AND SWAP1 DUP4 PUSH1 0x2 DUP2 GT ISZERO PUSH2 0x1AFD JUMPI PUSH2 0x1AFD PUSH2 0x1D1E JUMP JUMPDEST MUL OR SWAP1 SSTORE POP PUSH1 0x20 SWAP2 DUP3 ADD MLOAD PUSH1 0x1 SWAP2 DUP3 ADD SSTORE PUSH1 0x0 DUP6 DUP2 MSTORE PUSH1 0x2 SWAP1 SWAP3 MSTORE PUSH1 0x40 DUP3 KECCAK256 DUP1 SLOAD PUSH1 0xFF NOT AND DUP2 SSTORE ADD DUP2 SWAP1 SSTORE JUMPDEST PUSH1 0x1 SLOAD DUP2 LT ISZERO PUSH2 0x1BC9 JUMPI DUP4 PUSH1 0x1 DUP3 DUP2 SLOAD DUP2 LT PUSH2 0x1B47 JUMPI PUSH2 0x1B47 PUSH2 0x211B JUMP JUMPDEST SWAP1 PUSH1 0x0 MSTORE PUSH1 0x20 PUSH1 0x0 KECCAK256 SWAP1 PUSH1 0x2 MUL ADD PUSH1 0x1 ADD SLOAD SUB PUSH2 0x1BC1 JUMPI DUP2 PUSH1 0x1 DUP3 DUP2 SLOAD DUP2 LT PUSH2 0x1B72 JUMPI PUSH2 0x1B72 PUSH2 0x211B JUMP JUMPDEST SWAP1 PUSH1 0x0 MSTORE PUSH1 0x20 PUSH1 0x0 KECCAK256 SWAP1 PUSH1 0x2 MUL ADD PUSH1 0x0 DUP3 ADD MLOAD DUP2 PUSH1 0x0 ADD PUSH1 0x0 PUSH2 0x100 EXP DUP2 SLOAD DUP2 PUSH1 0xFF MUL NOT AND SWAP1 DUP4 PUSH1 0x2 DUP2 GT ISZERO PUSH2 0x1BAA JUMPI PUSH2 0x1BAA PUSH2 0x1D1E JUMP JUMPDEST MUL OR SWAP1 SSTORE POP PUSH1 0x20 DUP3 ADD MLOAD DUP2 PUSH1 0x1 ADD SSTORE SWAP1 POP POP PUSH2 0x1BC9 JUMP JUMPDEST PUSH1 0x1 ADD PUSH2 0x1B29 JUMP JUMPDEST POP DUP1 MLOAD PUSH1 0x40 MLOAD PUSH1 0x0 DUP1 MLOAD PUSH1 0x20 PUSH2 0x22C5 DUP4 CODECOPY DUP2 MLOAD SWAP2 MSTORE SWAP2 PUSH2 0x1BEC SWAP2 DUP7 SWAP1 DUP7 SWAP1 PUSH2 0x1FC7 JUMP JUMPDEST PUSH1 0x40 MLOAD DUP1 SWAP2 SUB SWAP1 LOG1 POP POP POP JUMP JUMPDEST PUSH1 0x0 PUSH1 0x40 MLOAD DUP1 PUSH1 0x40 ADD PUSH1 0x40 MSTORE DUP1 DUP5 PUSH1 0x2 DUP2 GT ISZERO PUSH2 0x1C18 JUMPI PUSH2 0x1C18 PUSH2 0x1D1E JUMP JUMPDEST DUP2 MSTORE PUSH1 0x20 ADD DUP4 SWAP1 MSTORE PUSH1 0x1 DUP1 SLOAD DUP1 DUP3 ADD DUP3 SSTORE PUSH1 0x0 DUP3 SWAP1 MSTORE DUP3 MLOAD PUSH1 0x2 SWAP2 DUP3 MUL PUSH32 0xB10E2D527612073B26EECDFD717E6A320CF44B4AFAC2B0732D9FCBE2B7FA0CF6 ADD DUP1 SLOAD SWAP5 SWAP6 POP DUP6 SWAP5 SWAP1 SWAP4 SWAP2 SWAP3 DUP5 SWAP3 PUSH1 0xFF NOT SWAP1 SWAP3 AND SWAP2 SWAP1 DUP5 SWAP1 DUP2 GT ISZERO PUSH2 0x1C7D JUMPI PUSH2 0x1C7D PUSH2 0x1D1E JUMP JUMPDEST MUL OR SWAP1 SSTORE POP PUSH1 0x20 SWAP2 DUP3 ADD MLOAD PUSH1 0x1 SWAP2 DUP3 ADD SSTORE PUSH1 0x0 DUP5 DUP2 MSTORE PUSH1 0x2 SWAP3 DUP4 SWAP1 MSTORE PUSH1 0x40 SWAP1 KECCAK256 DUP4 MLOAD DUP2 SLOAD DUP6 SWAP5 SWAP3 SWAP4 SWAP2 SWAP3 DUP5 SWAP3 PUSH1 0xFF NOT SWAP1 SWAP3 AND SWAP2 SWAP1 DUP5 SWAP1 DUP2 GT ISZERO PUSH2 0x1CC2 JUMPI PUSH2 0x1CC2 PUSH2 0x1D1E JUMP JUMPDEST MUL OR SWAP1 SSTORE POP PUSH1 0x20 DUP3 ADD MLOAD DUP2 PUSH1 0x1 ADD SSTORE SWAP1 POP POP PUSH32 0x2172C7B01A6DE957D29FD6166A23025D181BF56538AD606A526AB2D62603F3FC DUP4 DUP4 PUSH1 0x40 MLOAD PUSH2 0x1BEC SWAP3 SWAP2 SWAP1 PUSH2 0x1D56 JUMP JUMPDEST PUSH1 0x0 PUSH1 0x20 DUP3 DUP5 SUB SLT ISZERO PUSH2 0x1D17 JUMPI PUSH1 0x0 DUP1 REVERT JUMPDEST POP CALLDATALOAD SWAP2 SWAP1 POP JUMP JUMPDEST PUSH4 0x4E487B71 PUSH1 0xE0 SHL PUSH1 0x0 MSTORE PUSH1 0x21 PUSH1 0x4 MSTORE PUSH1 0x24 PUSH1 0x0 REVERT JUMPDEST PUSH1 0x3 DUP2 LT PUSH2 0x1D52 JUMPI PUSH4 0x4E487B71 PUSH1 0xE0 SHL PUSH1 0x0 MSTORE PUSH1 0x21 PUSH1 0x4 MSTORE PUSH1 0x24 PUSH1 0x0 REVERT JUMPDEST SWAP1 MSTORE JUMP JUMPDEST PUSH1 0x40 DUP2 ADD PUSH2 0x1D64 DUP3 DUP6 PUSH2 0x1D34 JUMP JUMPDEST DUP3 PUSH1 0x20 DUP4 ADD MSTORE SWAP4 SWAP3 POP POP POP JUMP JUMPDEST DUP1 PUSH2 0x4000 DUP2 ADD DUP4 LT ISZERO PUSH2 0x1D83 JUMPI PUSH1 0x0 DUP1 REVERT JUMPDEST SWAP3 SWAP2 POP POP JUMP JUMPDEST DUP1 PUSH2 0x2000 DUP2 ADD DUP4 LT ISZERO PUSH2 0x1D83 JUMPI PUSH1 0x0 DUP1 REVERT JUMPDEST PUSH1 0x0 DUP1 PUSH1 0x0 DUP1 PUSH2 0x4060 DUP6 DUP8 SUB SLT ISZERO PUSH2 0x1DB2 JUMPI PUSH1 0x0 DUP1 REVERT JUMPDEST PUSH2 0x1DBC DUP7 DUP7 PUSH2 0x1D71 JUMP JUMPDEST SWAP4 POP PUSH2 0x4000 DUP6 ADD CALLDATALOAD PUSH8 0xFFFFFFFFFFFFFFFF DUP2 GT ISZERO PUSH2 0x1DD9 JUMPI PUSH1 0x0 DUP1 REVERT JUMPDEST PUSH2 0x1DE5 DUP8 DUP3 DUP9 ADD PUSH2 0x1D89 JUMP JUMPDEST SWAP5 SWAP8 SWAP5 SWAP7 POP POP POP POP PUSH2 0x4020 DUP4 ADD CALLDATALOAD SWAP3 PUSH2 0x4040 ADD CALLDATALOAD SWAP2 SWAP1 POP JUMP JUMPDEST PUSH4 0x4E487B71 PUSH1 0xE0 SHL PUSH1 0x0 MSTORE PUSH1 0x41 PUSH1 0x4 MSTORE PUSH1 0x24 PUSH1 0x0 REVERT JUMPDEST PUSH1 0x0 DUP1 PUSH1 0x0 DUP1 PUSH2 0x4060 DUP6 DUP8 SUB SLT ISZERO PUSH2 0x1E2B JUMPI PUSH1 0x0 DUP1 REVERT JUMPDEST PUSH2 0x1E35 DUP7 DUP7 PUSH2 0x1D71 JUMP JUMPDEST SWAP4 POP PUSH2 0x4000 DUP6 ADD CALLDATALOAD PUSH8 0xFFFFFFFFFFFFFFFF DUP1 DUP3 GT ISZERO PUSH2 0x1E53 JUMPI PUSH1 0x0 DUP1 REVERT JUMPDEST PUSH2 0x1E5F DUP9 DUP4 DUP10 ADD PUSH2 0x1D89 JUMP JUMPDEST SWAP5 POP PUSH2 0x4020 DUP8 ADD CALLDATALOAD SWAP4 POP PUSH2 0x4040 DUP8 ADD CALLDATALOAD SWAP2 POP DUP1 DUP3 GT ISZERO PUSH2 0x1E7E JUMPI PUSH1 0x0 DUP1 REVERT JUMPDEST DUP2 DUP8 ADD SWAP2 POP DUP8 PUSH1 0x1F DUP4 ADD SLT PUSH2 0x1E92 JUMPI PUSH1 0x0 DUP1 REVERT JUMPDEST DUP2 CALLDATALOAD DUP2 DUP2 GT ISZERO PUSH2 0x1EA4 JUMPI PUSH2 0x1EA4 PUSH2 0x1DFE JUMP JUMPDEST PUSH1 0x40 MLOAD PUSH1 0x1F DUP3 ADD PUSH1 0x1F NOT SWAP1 DUP2 AND PUSH1 0x3F ADD AND DUP2 ADD SWAP1 DUP4 DUP3 GT DUP2 DUP4 LT OR ISZERO PUSH2 0x1ECC JUMPI PUSH2 0x1ECC PUSH2 0x1DFE JUMP JUMPDEST DUP2 PUSH1 0x40 MSTORE DUP3 DUP2 MSTORE DUP11 PUSH1 0x20 DUP5 DUP8 ADD ADD GT ISZERO PUSH2 0x1EE5 JUMPI PUSH1 0x0 DUP1 REVERT JUMPDEST DUP3 PUSH1 0x20 DUP7 ADD PUSH1 0x20 DUP4 ADD CALLDATACOPY PUSH1 0x0 PUSH1 0x20 DUP5 DUP4 ADD ADD MSTORE DUP1 SWAP6 POP POP POP POP POP POP SWAP3 SWAP6 SWAP2 SWAP5 POP SWAP3 POP JUMP JUMPDEST PUSH1 0x0 DUP1 PUSH1 0x0 PUSH2 0x4040 DUP5 DUP7 SUB SLT ISZERO PUSH2 0x1F1F JUMPI PUSH1 0x0 DUP1 REVERT JUMPDEST DUP4 CALLDATALOAD SWAP3 POP PUSH1 0x20 DUP5 ADD CALLDATALOAD PUSH8 0xFFFFFFFFFFFFFFFF DUP2 GT ISZERO PUSH2 0x1F3D JUMPI PUSH1 0x0 DUP1 REVERT JUMPDEST PUSH2 0x1F49 DUP7 DUP3 DUP8 ADD PUSH2 0x1D89 JUMP JUMPDEST SWAP3 POP POP PUSH2 0x1F59 DUP6 PUSH1 0x40 DUP7 ADD PUSH2 0x1D71 JUMP JUMPDEST SWAP1 POP SWAP3 POP SWAP3 POP SWAP3 JUMP JUMPDEST PUSH1 0x0 PUSH1 0x20 DUP3 DUP5 SUB SLT ISZERO PUSH2 0x1F74 JUMPI PUSH1 0x0 DUP1 REVERT JUMPDEST DUP2 CALLDATALOAD PUSH1 0x3 DUP2 LT PUSH2 0xC19 JUMPI PUSH1 0x0 DUP1 REVERT JUMPDEST PUSH1 0x20 DUP1 DUP3 MSTORE DUP3 MLOAD DUP3 DUP3 ADD DUP2 SWAP1 MSTORE PUSH1 0x0 SWAP2 SWAP1 DUP5 DUP3 ADD SWAP1 PUSH1 0x40 DUP6 ADD SWAP1 DUP5 JUMPDEST DUP2 DUP2 LT ISZERO PUSH2 0x1FBB JUMPI DUP4 MLOAD DUP4 MSTORE SWAP3 DUP5 ADD SWAP3 SWAP2 DUP5 ADD SWAP2 PUSH1 0x1 ADD PUSH2 0x1F9F JUMP JUMPDEST POP SWAP1 SWAP7 SWAP6 POP POP POP POP POP POP JUMP JUMPDEST PUSH1 0x60 DUP2 ADD PUSH2 0x1FD5 DUP3 DUP7 PUSH2 0x1D34 JUMP JUMPDEST PUSH1 0x20 DUP3 ADD SWAP4 SWAP1 SWAP4 MSTORE PUSH1 0x40 ADD MSTORE SWAP2 SWAP1 POP JUMP JUMPDEST PUSH1 0x20 DUP1 DUP3 MSTORE PUSH1 0x1C SWAP1 DUP3 ADD MSTORE PUSH32 0x4C616D706F7274426173653A206E6F7420696E697469616C697A656400000000 PUSH1 0x40 DUP3 ADD MSTORE PUSH1 0x60 ADD SWAP1 JUMP JUMPDEST PUSH1 0x0 DUP2 DUP4 DUP3 JUMPDEST PUSH2 0x100 DUP2 LT ISZERO PUSH2 0x2044 JUMPI PUSH1 0x40 DUP1 DUP4 DUP6 CALLDATACOPY SWAP3 DUP4 ADD SWAP3 SWAP2 SWAP1 SWAP2 ADD SWAP1 PUSH1 0x1 ADD PUSH2 0x2023 JUMP JUMPDEST POP POP POP PUSH2 0x4000 DUP3 ADD SWAP1 POP SWAP3 SWAP2 POP POP JUMP JUMPDEST PUSH1 0x20 DUP1 DUP3 MSTORE PUSH1 0x1D SWAP1 DUP3 ADD MSTORE PUSH32 0x4C616D706F7274426173653A204E6F742061206D6173746572206B6579000000 PUSH1 0x40 DUP3 ADD MSTORE PUSH1 0x60 ADD SWAP1 JUMP JUMPDEST PUSH1 0x0 DUP4 MLOAD PUSH1 0x0 JUMPDEST DUP2 DUP2 LT ISZERO PUSH2 0x20AC JUMPI PUSH1 0x20 DUP2 DUP8 ADD DUP2 ADD MLOAD DUP6 DUP4 ADD MSTORE ADD PUSH2 0x2092 JUMP JUMPDEST POP SWAP2 SWAP1 SWAP2 ADD SWAP2 DUP3 MSTORE POP PUSH1 0x20 ADD SWAP2 SWAP1 POP JUMP JUMPDEST PUSH1 0x20 DUP1 DUP3 MSTORE PUSH1 0x40 SWAP1 DUP3 ADD DUP2 SWAP1 MSTORE PUSH32 0x4C616D706F7274426173653A20504B48206D617463686573206C617374207573 SWAP1 DUP3 ADD MSTORE PUSH32 0x656420504B482028757365207365706172617465207365636F6E64206B657929 PUSH1 0x60 DUP3 ADD MSTORE PUSH1 0x80 ADD SWAP1 JUMP JUMPDEST PUSH4 0x4E487B71 PUSH1 0xE0 SHL PUSH1 0x0 MSTORE PUSH1 0x32 PUSH1 0x4 MSTORE PUSH1 0x24 PUSH1 0x0 REVERT JUMPDEST PUSH1 0x0 DUP1 DUP4 CALLDATALOAD PUSH1 0x1E NOT DUP5 CALLDATASIZE SUB ADD DUP2 SLT PUSH2 0x2148 JUMPI PUSH1 0x0 DUP1 REVERT JUMPDEST DUP4 ADD DUP1 CALLDATALOAD SWAP2 POP PUSH8 0xFFFFFFFFFFFFFFFF DUP3 GT ISZERO PUSH2 0x2163 JUMPI PUSH1 0x0 DUP1 REVERT JUMPDEST PUSH1 0x20 ADD SWAP2 POP CALLDATASIZE DUP2 SWAP1 SUB DUP3 SGT ISZERO PUSH2 0x2178 JUMPI PUSH1 0x0 DUP1 REVERT JUMPDEST SWAP3 POP SWAP3 SWAP1 POP JUMP JUMPDEST DUP2 DUP4 DUP3 CALLDATACOPY PUSH1 0x0 SWAP2 ADD SWAP1 DUP2 MSTORE SWAP2 SWAP1 POP JUMP JUMPDEST PUSH1 0x0 PUSH1 0x1 DUP3 ADD PUSH2 0x21AF JUMPI PUSH4 0x4E487B71 PUSH1 0xE0 SHL PUSH1 0x0 MSTORE PUSH1 0x11 PUSH1 0x4 MSTORE PUSH1 0x24 PUSH1 0x0 REVERT JUMPDEST POP PUSH1 0x1 ADD SWAP1 JUMP JUMPDEST PUSH1 0x20 DUP1 DUP3 MSTORE PUSH1 0x18 SWAP1 DUP3 ADD MSTORE PUSH32 0x4C616D706F7274426173653A204E6F2073756368206B65790000000000000000 PUSH1 0x40 DUP3 ADD MSTORE PUSH1 0x60 ADD SWAP1 JUMP JUMPDEST PUSH1 0x20 DUP1 DUP3 MSTORE PUSH1 0x41 SWAP1 DUP3 ADD MSTORE PUSH32 0x4C616D706F7274426173653A2043616E6E6F7420757365207468652073616D65 PUSH1 0x40 DUP3 ADD MSTORE PUSH32 0x206B6579636861696E20747769636520666F7220746869732066756E6374696F PUSH1 0x60 DUP3 ADD MSTORE PUSH1 0x37 PUSH1 0xF9 SHL PUSH1 0x80 DUP3 ADD MSTORE PUSH1 0xA0 ADD SWAP1 JUMP JUMPDEST PUSH1 0x80 DUP2 ADD PUSH2 0x2262 DUP3 DUP8 PUSH2 0x1D34 JUMP JUMPDEST DUP5 PUSH1 0x20 DUP4 ADD MSTORE DUP4 PUSH1 0x40 DUP4 ADD MSTORE PUSH2 0x227B PUSH1 0x60 DUP4 ADD DUP5 PUSH2 0x1D34 JUMP JUMPDEST SWAP6 SWAP5 POP POP POP POP POP JUMP INVALID ORIGIN PUSH3 0x9D5802 ADDMOD 0xE1 SWAP16 SWAP8 0xE5 PUSH22 0x2EEF849E102F803999C88AA7F75E12B1744EECD5A7D8 PUSH31 0x68F36F73A7EB22739D6639E36CAFEBFCDE0B5543340B39F42CAC68FDD1F068 0x25 LOG3 SWAP12 0xD1 PUSH2 0xF4EF GAS 0xAB PUSH13 0xFD2C26DB3EE0005C11B43CFFD5 DIFFICULTY 0xFC DUP8 PUSH4 0x12116EDD LOG2 PUSH5 0x6970667358 0x22 SLT KECCAK256 0xE2 COINBASE 0xE3 0xC6 0x22 PUSH27 0x987C9BC72F1A36FF0D587E6561D4E9D2B6FF2BEAD84D7F6EAE9C64 PUSH20 0x6F6C634300081900330000000000000000000000 ",
  "sha1": "919b03f2d02561675f52cdccdbdf45027a2374b8",
  "source": "// SPDX-License-Identifier: UNLICENSED\n\npragma solidity ^0.8.1;\n\ncontract LamportBase2 {\n\n    bool initialized = false;\n    bool public lastVerificationResult;\n\n    // Define different key types\n    enum KeyType { MASTER, ORACLE, DELETED }\n\n    // Store the keys and their corresponding pkh\n    struct Key {\n        KeyType keyType;\n        bytes32 pkh;\n    }\n\n    Key[] public keys; // For iteration\n    mapping(bytes32 => Key) public keyData; // For search\n    bytes32 constant master1 = 0xb7b18ded9664d1a8e923a5942ec1ca5cd8c13c40eb1a5215d5800600f5a587be; // default keyfile has these\n    bytes32 constant master2 = 0x1ed304ab73e124b0b99406dfa1388a492a818837b4b41ce5693ad84dacfc3f25;\n    bytes32 constant oracle = 0xd62569e61a6423c880a429676be48756c931fe0519121684f5fb05cbd17877fa; \n  \n    event LogLastCalculatedHash(uint256 hash);\n    event VerificationFailed(uint256 hashedData);\n    event PkhUpdated(KeyType keyType, bytes32 previousPKH, bytes32 newPKH);\n    event KeyAdded(KeyType keyType, bytes32 newPKH);\n    event KeyModified(KeyType originalKeyType, bytes32 originalPKH, bytes32 modifiedPKH, KeyType newKeyType);\n\n    // Initial setup of the Lamport system, providing the first MASTER keys and an ORACLE key\n    // function init(bytes32 masterPKH1, bytes32 masterPKH2, bytes32 oraclePKH) public {\n    //     require(!initialized, \"LamportBase: Already initialized\");\n\n    //     ;\n    // }\n    constructor () {\n    \n        addKey(KeyType.MASTER, master1);\n        addKey(KeyType.MASTER, master2);\n        addKey(KeyType.ORACLE, oracle);\n        initialized = true;\n    }\n    // Function to perform onlyLamportMaster checks\n    function performLamportMasterCheck(\n        bytes32[2][256] calldata currentpub,\n        bytes[256] calldata sig,\n        bytes32 nextPKH,\n        bytes memory prepacked\n    ) public returns (bool) {\n        require(initialized, \"LamportBase: not initialized\");\n\n        bytes32 pkh = keccak256(abi.encodePacked(currentpub));\n        if (keyData[pkh].keyType != KeyType.MASTER) {\n            return false;\n        }\n\n        uint256 hashedData = uint256(keccak256(abi.encodePacked(prepacked, nextPKH)));\n        bool verificationResult = verify_u256(hashedData, sig, currentpub);\n\n        if (!verificationResult) {\n            return false;\n        } else {\n            updateKey(pkh, nextPKH);\n            return true;\n        }\n    }\n\n    // Function to perform onlyLamportOracle checks\n    function performLamportOracleCheck(\n        bytes32[2][256] calldata currentpub,\n        bytes[256] calldata sig,\n        bytes32 nextPKH,\n        bytes memory prepacked\n    ) public returns (bool) {\n        require(initialized, \"LamportBase: not initialized\");\n\n        bytes32 pkh = keccak256(abi.encodePacked(currentpub));\n        if (keyData[pkh].keyType != KeyType.ORACLE) {\n            return false;\n        }\n\n        uint256 hashedData = uint256(keccak256(abi.encodePacked(prepacked, nextPKH)));\n        bool verificationResult = verify_u256(hashedData, sig, currentpub);\n\n        if (!verificationResult) {\n            return false;\n        } else {\n            updateKey(pkh, nextPKH);\n            return true;\n        }\n    }\n\n    // Add a new key\n    function addKey(KeyType keyType, bytes32 newPKH) private {\n        Key memory newKey = Key(keyType, newPKH);\n        keys.push(newKey);\n        keyData[newPKH] = newKey;\n        emit KeyAdded(keyType, newPKH);\n    }\n\n    // Search for a key by its PKH, return the key and its position in the keys array\n    function getKeyAndIndexByPKH(bytes32 pkh) public view returns (KeyType, bytes32, uint) {\n        Key memory key = keyData[pkh];\n        require(key.pkh != 0, \"LamportBase: No such key\");\n\n        // Iterate over keys array to find the position\n        for (uint i = 0; i < keys.length; i++) {\n            if (keys[i].pkh == pkh) {\n                return (key.keyType, key.pkh, i);\n            }\n        }\n        revert(\"LamportBase: No such key\");\n    }\n    function getPKHsByPrivilege(KeyType privilege) public view returns (bytes32[] memory) {\n        bytes32[] memory pkhs = new bytes32[](keys.length);\n        uint counter = 0;\n\n        for (uint i = 0; i < keys.length; i++) {\n            if (keys[i].keyType == privilege) {\n                pkhs[counter] = keys[i].pkh;\n                counter++;\n            }\n        }\n\n        // Prepare the array to return\n        bytes32[] memory result = new bytes32[](counter);\n        for(uint i = 0; i < counter; i++) {\n            result[i] = pkhs[i];\n        }\n\n        return result;\n    }\n\n    // Delete a key\n    // function deleteKey(bytes32 firstMasterPKH, bytes32 secondMasterPKH, bytes32 targetPKH) private {\n    //     // Check that the two provided keys are master keys\n    //     require(keyData[firstMasterPKH].keyType == KeyType.MASTER && keyData[secondMasterPKH].keyType == KeyType.MASTER, \"LamportBase: Provided keys are not master keys\");\n\n    //     // Disallow master keys from deleting themselves\n    //     require(targetPKH != firstMasterPKH && targetPKH != secondMasterPKH, \"LamportBase: Master keys cannot delete themselves\");\n\n    //     require(keyData[targetPKH].pkh != 0, \"LamportBase: No such key\");\n    //     for (uint i = 0; i < keys.length; i++) {\n    //         if (keys[i].pkh == targetPKH) {\n    //             delete keyData[targetPKH];\n    //             keys[i] = keys[keys.length - 1];\n    //             keys.pop();\n    //             emit KeyDeleted(keys[i].keyType, targetPKH);\n    //             break;\n    //         }\n    //     }\n    // }\n\n    bytes32 private lastUsedDeleteKeyHash;\n    uint256 private lastUsedDeleteKeyIndex;\n    bytes32 private storedNextPKH;\n    function deleteKeyByIndexStepOne(\n        bytes32[2][256] calldata currentpub,\n        bytes[256] calldata sig,\n        bytes32 nextPKH,\n        uint256 keyIndex\n    )\n        public\n        onlyLamportMaster(\n            currentpub,\n            sig,\n            nextPKH,\n            abi.encodePacked(keyIndex)\n        )\n    {\n        // Save the used deleteKeyHash in a global variable\n        lastUsedDeleteKeyIndex = keyIndex;\n        storedNextPKH = nextPKH;\n    }\n\n    function deleteKeyByIndexStepTwo(\n        bytes32[2][256] calldata currentpub,\n        bytes[256] calldata sig,\n        bytes32 nextPKH,\n        uint256 keyIndex\n    )\n        public\n        onlyLamportMaster(\n            currentpub,\n            sig,\n            nextPKH,\n            abi.encodePacked(keyIndex)\n        )\n    {\n        // Calculate the current public key hash (currentPKH)\n        bytes32 currentPKH = keccak256(abi.encodePacked(currentpub));\n        \n        // Check if storedNextPKH is not the same as the current PKH\n        require(currentPKH != storedNextPKH, \"LamportBase: Cannot use the same keychain twice for this function\");\n        \n        // Check if the used keyIndex matches the last used keyIndex\n        require(lastUsedDeleteKeyIndex == keyIndex, \"LamportBase: Keys do not match\");\n        \n        // Check if the keyIndex is valid\n        require(keyIndex < keys.length, \"LamportBase: Invalid key index\");\n\n        // Proceed with key deletion logic\n        Key memory keyToDelete = keys[keyIndex];\n        require(keyToDelete.keyType != KeyType.DELETED, \"LamportBase: Key already deleted\");\n\n        // Store the original KeyType\n        KeyType originalKeyType = keyToDelete.keyType;\n\n        // Overwrite the first 7 characters with \"de1e7ed\" and the rest with random values\n        bytes32 modifiedPKH = 0xde1e7ed000000000000000000000000000000000000000000000000000000000;\n        uint256 randomValue = uint256(keccak256(abi.encodePacked(block.timestamp, block.difficulty)));\n        modifiedPKH ^= bytes32(randomValue); // XOR to keep \"de1e7ed\" in the first 7 characters\n\n        // Modify the existing entry instead of deleting it\n        keys[keyIndex].pkh = modifiedPKH;\n        keys[keyIndex].keyType = KeyType.DELETED;\n\n        // Update the keyData mapping\n        keyData[modifiedPKH] = keys[keyIndex];\n        delete keyData[keyToDelete.pkh];\n\n        emit KeyModified(originalKeyType, keyToDelete.pkh, modifiedPKH, KeyType.DELETED);\n\n        // Reset the tracking variables\n        lastUsedDeleteKeyIndex = 0;\n        storedNextPKH = bytes32(0);\n    }\n\n\n    function deleteKeyByPKHStepOne(\n        bytes32[2][256] calldata currentpub,\n        bytes[256] calldata sig,\n        bytes32 nextPKH,\n        bytes32 deleteKeyHash\n    )\n        public\n        onlyLamportMaster(\n            currentpub,\n            sig,\n            nextPKH,\n            abi.encodePacked(deleteKeyHash)\n        )\n    {\n        // Save the used deleteKeyHash in a global variable\n        lastUsedDeleteKeyHash = deleteKeyHash;\n        storedNextPKH = nextPKH;\n    }\n\n    function deleteKeyByPKHStepTwo(\n        bytes32[2][256] calldata currentpub,\n        bytes[256] calldata sig,\n        bytes32 nextPKH,\n        bytes32 confirmDeleteKeyHash\n    )\n        public\n        onlyLamportMaster(\n            currentpub,\n            sig,\n            nextPKH,\n            abi.encodePacked(confirmDeleteKeyHash)\n        )\n    {\n        // Calculate the current public key hash (currentPKH)\n        bytes32 currentPKH = keccak256(abi.encodePacked(currentpub));\n        \n        // Check if storedNextPKH is not the same as the current PKH\n        require(currentPKH != storedNextPKH, \"LamportBase: Cannot use the same keychain twice for this function\");\n        \n        // Check if the used deleteKeyHash matches the last used deleteKeyHash\n        require(lastUsedDeleteKeyHash == confirmDeleteKeyHash, \"LamportBase: Keys do not match\");\n        \n        // Execute the delete key logic\n        // Assuming firstMasterPKH and secondMasterPKH are correctly verified and provided\n        bytes32 firstMasterPKH = storedNextPKH; // Placeholder, replace with the actual value\n        bytes32 secondMasterPKH = currentPKH; // Placeholder, replace with the actual value\n        bytes32 targetPKH = confirmDeleteKeyHash;\n        \n        // Check that the two provided keys are master keys\n        require(keyData[firstMasterPKH].keyType == KeyType.MASTER && keyData[secondMasterPKH].keyType == KeyType.MASTER, \"LamportBase: Provided keys are not master keys\");\n        \n        // Disallow master keys from deleting themselves\n        require(targetPKH != firstMasterPKH && targetPKH != secondMasterPKH, \"LamportBase: Master keys cannot delete themselves\");\n        \n        // require(keyData[targetPKH].pkh != 0, \"LamportBase: No such key (deletion)\");\n        // for (uint i = 0; i < keys.length; i++) {\n        //     if (keys[i].pkh == targetPKH) {\n        //         delete keyData[targetPKH];\n        //         keys[i] = keys[keys.length - 1];\n        //         keys.pop();\n        //         emit KeyDeleted(keys[i].keyType, targetPKH);\n        //         break;\n        //     }\n        // }\n        require(keyData[targetPKH].pkh != 0, \"LamportBase: No such key (deletion)\");\n        for (uint i = 0; i < keys.length; i++) {\n            if (keys[i].pkh == targetPKH) {\n\n                KeyType originalKeyType = keyData[targetPKH].keyType; // Store the original KeyType\n                // Overwriting the first 7 characters with \"de1e7ed\" and the rest with random values\n                bytes32 modifiedPKH = 0xde1e7ed000000000000000000000000000000000000000000000000000000000;\n                uint256 randomValue = uint256(keccak256(abi.encodePacked(block.timestamp, block.difficulty)));\n                modifiedPKH ^= bytes32(randomValue); // XOR to keep \"de1e7ed\" in the first 7 characters\n                \n                // Modify the existing entry instead of deleting it\n                keyData[targetPKH].pkh = modifiedPKH;\n                keyData[targetPKH].keyType = KeyType.DELETED; // Set the keyType to DELETED\n                \n                emit KeyModified(originalKeyType, targetPKH, modifiedPKH, KeyType.DELETED); // Emitting a new event for modification                    \n                break;\n            }\n        }\n\n\n        \n        // Reset lastUsedDeleteKeyHash\n        lastUsedDeleteKeyHash = bytes32(0);\n        storedNextPKH = bytes32(0);\n    }\n\n\n\n    // // get the current public key hash\n    // function getPKH() public view returns (bytes32) {\n    //     return pkh;\n    // }\n\n    // lamport 'verify' logic\n    function verify_u256(\n        uint256 bits,\n        bytes[256] calldata sig,\n        bytes32[2][256] calldata pub\n    ) public pure returns (bool) {\n        unchecked {\n            for (uint256 i; i < 256; i++) {\n                if (\n                    pub[i][((bits & (1 << (255 - i))) > 0) ? 1 : 0] !=\n                    keccak256(sig[i])\n                ) return false;\n            }\n\n            return true;\n        }\n    }\n\n    modifier onlyLamportMaster(bytes32[2][256] calldata currentpub, bytes[256] calldata sig, bytes32 nextPKH, bytes memory prepacked) {\n        require(initialized, \"LamportBase: not initialized\");\n\n        bytes32 pkh = keccak256(abi.encodePacked(currentpub));\n        require(keyData[pkh].keyType == KeyType.MASTER, \"LamportBase: Not a master key\");\n\n        uint256 hashedData = uint256(keccak256(abi.encodePacked(prepacked, nextPKH)));\n        emit LogLastCalculatedHash(hashedData);\n\n        bool verificationResult = verify_u256(hashedData, sig, currentpub);\n\n        lastVerificationResult = verificationResult;\n\n        if (!verificationResult) {\n            emit VerificationFailed(hashedData);\n            revert(\"LamportBase: Verification failed\");\n        } else {\n            emit PkhUpdated(keyData[pkh].keyType, pkh, nextPKH);\n            updateKey(pkh, nextPKH);\n        }\n\n        _;\n    }\n\n    // function updateKey(bytes32 oldPKH, bytes32 newPKH) internal {\n    //     require(keyData[oldPKH].pkh != 0, \"LamportBase: No such key\");\n    //     keyData[oldPKH].pkh = newPKH; // Update the public key hash in the key data mapping\n    //     emit PkhUpdated(keyData[oldPKH].keyType, oldPKH, newPKH);\n    // }\n\n    function updateKey(bytes32 oldPKH, bytes32 newPKH) internal {\n        require(keyData[oldPKH].pkh != 0, \"LamportBase: No such key\");\n\n        // Update the public key hash in the key data mapping\n        Key memory updatedKey = Key(keyData[oldPKH].keyType, newPKH);\n        keyData[newPKH] = updatedKey;\n\n        // Remove the old key from key data\n        delete keyData[oldPKH];\n\n        // Update the public key hash in the keys array\n        for (uint i = 0; i < keys.length; i++) {\n            if (keys[i].pkh == oldPKH) {\n                keys[i] = updatedKey;\n                break;\n            }\n        }\n\n        emit PkhUpdated(updatedKey.keyType, oldPKH, newPKH);\n    }\n\n\n\n    modifier onlyLamportOracle(bytes32[2][256] calldata currentpub, bytes[256] calldata sig, bytes32 nextPKH, bytes memory prepacked) {\n        require(initialized, \"LamportBase: not initialized\");\n\n        bytes32 pkh = keccak256(abi.encodePacked(currentpub));\n        require(keyData[pkh].keyType == KeyType.ORACLE, \"LamportBase: Not an oracle key\");\n\n        uint256 hashedData = uint256(keccak256(abi.encodePacked(prepacked, nextPKH)));\n        emit LogLastCalculatedHash(hashedData);\n\n        bool verificationResult = verify_u256(hashedData, sig, currentpub);\n\n        lastVerificationResult = verificationResult;\n\n        if (!verificationResult) {\n           // emit VerificationFailed(hashedData);\n            revert(\"LamportBase: Verification failed\");\n        } else {\n            emit PkhUpdated(keyData[pkh].keyType, pkh, nextPKH);\n            updateKey(pkh, nextPKH);\n        }\n\n        _;\n    }\n\n    bytes32 public lastUsedNextPKH;\n\n    function createMasterKeyStepOne(\n        bytes32[2][256] calldata currentpub,\n        bytes[256] calldata sig,\n        bytes32 nextPKH,\n        bytes32 newmasterPKH\n    )\n        public\n        onlyLamportMaster(\n            currentpub,\n            sig,\n            nextPKH,\n            abi.encodePacked(newmasterPKH)\n        )\n    {\n        // Save the used master NextPKH in a global variable\n        lastUsedNextPKH = nextPKH;\n    }\n\n    function createMasterKeyStepTwo(\n        bytes32[2][256] calldata currentpub,\n        bytes[256] calldata sig,\n        bytes32 nextPKH,\n        bytes32 newmasterPKH\n    )\n        public\n        onlyLamportMaster(\n            currentpub,\n            sig,\n            nextPKH,\n            abi.encodePacked(newmasterPKH)\n        )\n    {\n        // Check if the used master NextPKH matches the last used PKH\n        bytes32 currentPKH = keccak256(abi.encodePacked(currentpub));\n        bool pkhMatched = (lastUsedNextPKH != currentPKH);\n        //require(lastUsedNextPKH != nextPKH, \"LamportBase: Same master key is being used again, need a separate one\");\n        lastUsedNextPKH = bytes32(0);\n        // If checks pass, add the new master key\n        require(pkhMatched, \"LamportBase: PKH matches last used PKH (use separate second key)\");\n\n        addKey(KeyType.MASTER, newmasterPKH);\n\n        // Reset lastUsedNextPKH\n        lastUsedNextPKH = bytes32(0);\n    }\n\n    function createOracleKeyStepOne(\n        bytes32[2][256] calldata currentpub,\n        bytes[256] calldata sig,\n        bytes32 nextPKH,\n        bytes32 newOraclePKH\n    )\n        public\n        onlyLamportMaster(\n            currentpub,\n            sig,\n            nextPKH,\n            abi.encodePacked(newOraclePKH)\n        )\n    {\n        // Save the used master NextPKH in a global variable\n        lastUsedNextPKH = nextPKH;\n    }\n\n    function createOracleKeyStepTwo(\n        bytes32[2][256] calldata currentpub,\n        bytes[256] calldata sig,\n        bytes32 nextPKH,\n        bytes32 newOraclePKH\n    )\n        public\n        onlyLamportMaster(\n            currentpub,\n            sig,\n            nextPKH,\n            abi.encodePacked(newOraclePKH)\n        )\n    {\n        // Check if the used master NextPKH matches the last used PKH\n        bytes32 currentPKH = keccak256(abi.encodePacked(currentpub));\n        bool pkhMatched = (lastUsedNextPKH != currentPKH);\n        //require(lastUsedNextPKH != nextPKH, \"LamportBase: Same master key is being used again, need a separate one\");\n        lastUsedNextPKH = bytes32(0);\n        // If checks pass, add the new master key\n        require(pkhMatched, \"LamportBase: PKH matches last used PKH (use separate second key)\");\n\n        addKey(KeyType.ORACLE, newOraclePKH);\n\n        // Reset lastUsedNextPKH\n        lastUsedNextPKH = bytes32(0);\n    }\n\n\n    // function createOracleKeyFromMaster(\n    //     bytes32[2][256] calldata currentpub,\n    //     bytes32 nextPKH,\n    //     bytes[256] calldata sig,\n    //     bytes32 neworaclePKH\n    // )\n    //     public\n    //     onlyLamportMaster(\n    //         currentpub,\n    //         sig,\n    //         nextPKH,\n    //         abi.encodePacked(neworaclePKH)\n    //     )\n    // {\n        \n    //     addKey(KeyType.ORACLE, neworaclePKH);\n      \n    // }\n}\n",
  "sourcePath": "contracts/1_and_3_GP_LamportBase2.sol",
  "type": "contract"
}