{
  "abi": [
    {
      "inputs": [
        {
          "internalType": "address",
          "name": "_lamportBase",
          "type": "address"
        },
        {
          "internalType": "address",
          "name": "_anonID",
          "type": "address"
        }
      ],
      "stateMutability": "nonpayable",
      "type": "constructor"
    },
    {
      "anonymous": false,
      "inputs": [
        {
          "indexed": true,
          "internalType": "address",
          "name": "newAnonIDContract",
          "type": "address"
        }
      ],
      "name": "AnonIDContractUpdated",
      "type": "event"
    },
    {
      "anonymous": false,
      "inputs": [
        {
          "indexed": true,
          "internalType": "address",
          "name": "owner",
          "type": "address"
        },
        {
          "indexed": true,
          "internalType": "address",
          "name": "spender",
          "type": "address"
        },
        {
          "indexed": false,
          "internalType": "uint256",
          "name": "value",
          "type": "uint256"
        }
      ],
      "name": "Approval",
      "type": "event"
    },
    {
      "anonymous": false,
      "inputs": [
        {
          "indexed": true,
          "internalType": "address",
          "name": "newForumContract",
          "type": "address"
        }
      ],
      "name": "ForumContractUpdated",
      "type": "event"
    },
    {
      "anonymous": false,
      "inputs": [
        {
          "indexed": true,
          "internalType": "address",
          "name": "newGameValContract",
          "type": "address"
        }
      ],
      "name": "GameValContractUpdated",
      "type": "event"
    },
    {
      "anonymous": false,
      "inputs": [
        {
          "indexed": true,
          "internalType": "address",
          "name": "newOnrampContract",
          "type": "address"
        }
      ],
      "name": "OnrampContractUpdated",
      "type": "event"
    },
    {
      "anonymous": false,
      "inputs": [
        {
          "indexed": true,
          "internalType": "address",
          "name": "from",
          "type": "address"
        },
        {
          "indexed": true,
          "internalType": "address",
          "name": "to",
          "type": "address"
        },
        {
          "indexed": false,
          "internalType": "uint256",
          "name": "value",
          "type": "uint256"
        }
      ],
      "name": "Transfer",
      "type": "event"
    },
    {
      "inputs": [
        {
          "internalType": "address",
          "name": "_address",
          "type": "address"
        },
        {
          "internalType": "string",
          "name": "_steamID",
          "type": "string"
        },
        {
          "internalType": "string",
          "name": "_playerName",
          "type": "string"
        },
        {
          "internalType": "uint256",
          "name": "_oracleKeyIndex1",
          "type": "uint256"
        },
        {
          "internalType": "uint256",
          "name": "_oracleKeyIndex2",
          "type": "uint256"
        },
        {
          "internalType": "address",
          "name": "_rewardAddress",
          "type": "address"
        }
      ],
      "name": "addOrUpdatePlayer",
      "outputs": [],
      "stateMutability": "nonpayable",
      "type": "function"
    },
    {
      "inputs": [
        {
          "internalType": "address",
          "name": "",
          "type": "address"
        },
        {
          "internalType": "address",
          "name": "",
          "type": "address"
        }
      ],
      "name": "allowance",
      "outputs": [
        {
          "internalType": "uint256",
          "name": "",
          "type": "uint256"
        }
      ],
      "stateMutability": "view",
      "type": "function"
    },
    {
      "inputs": [],
      "name": "anonIDContract",
      "outputs": [
        {
          "internalType": "contract IAnonID",
          "name": "",
          "type": "address"
        }
      ],
      "stateMutability": "view",
      "type": "function"
    },
    {
      "inputs": [
        {
          "internalType": "address",
          "name": "",
          "type": "address"
        }
      ],
      "name": "balanceOf",
      "outputs": [
        {
          "internalType": "uint256",
          "name": "",
          "type": "uint256"
        }
      ],
      "stateMutability": "view",
      "type": "function"
    },
    {
      "inputs": [],
      "name": "coinCommission_",
      "outputs": [
        {
          "internalType": "uint256",
          "name": "",
          "type": "uint256"
        }
      ],
      "stateMutability": "view",
      "type": "function"
    },
    {
      "inputs": [],
      "name": "commissionAddress_",
      "outputs": [
        {
          "internalType": "address",
          "name": "",
          "type": "address"
        }
      ],
      "stateMutability": "view",
      "type": "function"
    },
    {
      "inputs": [
        {
          "internalType": "address",
          "name": "_address",
          "type": "address"
        }
      ],
      "name": "deletePlayer",
      "outputs": [],
      "stateMutability": "nonpayable",
      "type": "function"
    },
    {
      "inputs": [],
      "name": "forumContract",
      "outputs": [
        {
          "internalType": "address",
          "name": "",
          "type": "address"
        }
      ],
      "stateMutability": "view",
      "type": "function"
    },
    {
      "inputs": [
        {
          "internalType": "string",
          "name": "",
          "type": "string"
        }
      ],
      "name": "gameServerIPs",
      "outputs": [
        {
          "internalType": "bool",
          "name": "",
          "type": "bool"
        }
      ],
      "stateMutability": "view",
      "type": "function"
    },
    {
      "inputs": [],
      "name": "gameValContract",
      "outputs": [
        {
          "internalType": "address",
          "name": "",
          "type": "address"
        }
      ],
      "stateMutability": "view",
      "type": "function"
    },
    {
      "inputs": [],
      "name": "getAllPlayerNames",
      "outputs": [
        {
          "internalType": "string[]",
          "name": "",
          "type": "string[]"
        }
      ],
      "stateMutability": "view",
      "type": "function"
    },
    {
      "inputs": [],
      "name": "getAllServerIPs",
      "outputs": [
        {
          "internalType": "string[]",
          "name": "",
          "type": "string[]"
        }
      ],
      "stateMutability": "view",
      "type": "function"
    },
    {
      "inputs": [
        {
          "internalType": "address",
          "name": "_address",
          "type": "address"
        }
      ],
      "name": "getOracleKeyIndices",
      "outputs": [
        {
          "internalType": "uint256",
          "name": "",
          "type": "uint256"
        },
        {
          "internalType": "uint256",
          "name": "",
          "type": "uint256"
        }
      ],
      "stateMutability": "view",
      "type": "function"
    },
    {
      "inputs": [
        {
          "internalType": "string[]",
          "name": "playerNames",
          "type": "string[]"
        },
        {
          "internalType": "uint256",
          "name": "lastMintTime",
          "type": "uint256"
        }
      ],
      "name": "getValidRewardAddressesByNames",
      "outputs": [
        {
          "internalType": "address[]",
          "name": "",
          "type": "address[]"
        }
      ],
      "stateMutability": "nonpayable",
      "type": "function"
    },
    {
      "inputs": [
        {
          "internalType": "address",
          "name": "_address",
          "type": "address"
        }
      ],
      "name": "isGameAdmin",
      "outputs": [
        {
          "internalType": "bool",
          "name": "",
          "type": "bool"
        }
      ],
      "stateMutability": "view",
      "type": "function"
    },
    {
      "inputs": [
        {
          "internalType": "address",
          "name": "_address",
          "type": "address"
        }
      ],
      "name": "isModerator",
      "outputs": [
        {
          "internalType": "bool",
          "name": "",
          "type": "bool"
        }
      ],
      "stateMutability": "view",
      "type": "function"
    },
    {
      "inputs": [
        {
          "internalType": "address",
          "name": "_address",
          "type": "address"
        }
      ],
      "name": "isOnboardQueuer",
      "outputs": [
        {
          "internalType": "bool",
          "name": "",
          "type": "bool"
        }
      ],
      "stateMutability": "view",
      "type": "function"
    },
    {
      "inputs": [
        {
          "internalType": "address",
          "name": "_address",
          "type": "address"
        }
      ],
      "name": "isOnboardRegistrar",
      "outputs": [
        {
          "internalType": "bool",
          "name": "",
          "type": "bool"
        }
      ],
      "stateMutability": "view",
      "type": "function"
    },
    {
      "inputs": [
        {
          "internalType": "address",
          "name": "_address",
          "type": "address"
        }
      ],
      "name": "isRegistered",
      "outputs": [
        {
          "internalType": "bool",
          "name": "",
          "type": "bool"
        }
      ],
      "stateMutability": "view",
      "type": "function"
    },
    {
      "inputs": [
        {
          "internalType": "address",
          "name": "_address",
          "type": "address"
        }
      ],
      "name": "isTourneyMod",
      "outputs": [
        {
          "internalType": "bool",
          "name": "",
          "type": "bool"
        }
      ],
      "stateMutability": "view",
      "type": "function"
    },
    {
      "inputs": [
        {
          "internalType": "address",
          "name": "_address",
          "type": "address"
        }
      ],
      "name": "isValidator",
      "outputs": [
        {
          "internalType": "bool",
          "name": "",
          "type": "bool"
        }
      ],
      "stateMutability": "view",
      "type": "function"
    },
    {
      "inputs": [],
      "name": "lamportBase",
      "outputs": [
        {
          "internalType": "contract ILamportBase",
          "name": "",
          "type": "address"
        }
      ],
      "stateMutability": "view",
      "type": "function"
    },
    {
      "inputs": [],
      "name": "onrampContract",
      "outputs": [
        {
          "internalType": "address",
          "name": "",
          "type": "address"
        }
      ],
      "stateMutability": "view",
      "type": "function"
    },
    {
      "inputs": [
        {
          "internalType": "uint256",
          "name": "",
          "type": "uint256"
        }
      ],
      "name": "playerAddresses",
      "outputs": [
        {
          "internalType": "address",
          "name": "",
          "type": "address"
        }
      ],
      "stateMutability": "view",
      "type": "function"
    },
    {
      "inputs": [
        {
          "internalType": "address",
          "name": "",
          "type": "address"
        }
      ],
      "name": "playerData",
      "outputs": [
        {
          "internalType": "bool",
          "name": "isRegistered",
          "type": "bool"
        },
        {
          "internalType": "bool",
          "name": "isValidator",
          "type": "bool"
        },
        {
          "internalType": "bool",
          "name": "isModerator",
          "type": "bool"
        },
        {
          "internalType": "bool",
          "name": "isTourneyMod",
          "type": "bool"
        },
        {
          "internalType": "bool",
          "name": "isGameAdmin",
          "type": "bool"
        },
        {
          "internalType": "bool",
          "name": "isOnboardQueuer",
          "type": "bool"
        },
        {
          "internalType": "bool",
          "name": "isOnboardRegistrar",
          "type": "bool"
        },
        {
          "internalType": "string",
          "name": "playerName",
          "type": "string"
        },
        {
          "internalType": "bytes32",
          "name": "forumKey",
          "type": "bytes32"
        },
        {
          "internalType": "string",
          "name": "steamID",
          "type": "string"
        },
        {
          "internalType": "address",
          "name": "rewardAddress",
          "type": "address"
        },
        {
          "internalType": "uint256",
          "name": "oracleKeyIndex1",
          "type": "uint256"
        },
        {
          "internalType": "uint256",
          "name": "oracleKeyIndex2",
          "type": "uint256"
        }
      ],
      "stateMutability": "view",
      "type": "function"
    },
    {
      "inputs": [
        {
          "internalType": "uint256",
          "name": "",
          "type": "uint256"
        }
      ],
      "name": "serverIPList",
      "outputs": [
        {
          "internalType": "string",
          "name": "",
          "type": "string"
        }
      ],
      "stateMutability": "view",
      "type": "function"
    },
    {
      "inputs": [
        {
          "internalType": "address",
          "name": "_player",
          "type": "address"
        },
        {
          "internalType": "bytes32",
          "name": "_key",
          "type": "bytes32"
        }
      ],
      "name": "setForumKey",
      "outputs": [],
      "stateMutability": "nonpayable",
      "type": "function"
    },
    {
      "inputs": [
        {
          "internalType": "address",
          "name": "admin",
          "type": "address"
        },
        {
          "internalType": "bool",
          "name": "status",
          "type": "bool"
        }
      ],
      "name": "setGameAdminStatus",
      "outputs": [],
      "stateMutability": "nonpayable",
      "type": "function"
    },
    {
      "inputs": [
        {
          "internalType": "address",
          "name": "_player",
          "type": "address"
        },
        {
          "internalType": "bool",
          "name": "_status",
          "type": "bool"
        }
      ],
      "name": "setModeratorStatus",
      "outputs": [],
      "stateMutability": "nonpayable",
      "type": "function"
    },
    {
      "inputs": [
        {
          "internalType": "address",
          "name": "oracle",
          "type": "address"
        },
        {
          "internalType": "bool",
          "name": "status",
          "type": "bool"
        }
      ],
      "name": "setOnboardQueuerStatus",
      "outputs": [],
      "stateMutability": "nonpayable",
      "type": "function"
    },
    {
      "inputs": [
        {
          "internalType": "address",
          "name": "oracle",
          "type": "address"
        },
        {
          "internalType": "bool",
          "name": "status",
          "type": "bool"
        }
      ],
      "name": "setOnboardRegistrarStatus",
      "outputs": [],
      "stateMutability": "nonpayable",
      "type": "function"
    },
    {
      "inputs": [
        {
          "internalType": "address",
          "name": "_player",
          "type": "address"
        },
        {
          "internalType": "bool",
          "name": "_status",
          "type": "bool"
        }
      ],
      "name": "setTourneyModStatus",
      "outputs": [],
      "stateMutability": "nonpayable",
      "type": "function"
    },
    {
      "inputs": [
        {
          "internalType": "address",
          "name": "validator",
          "type": "address"
        },
        {
          "internalType": "bool",
          "name": "status",
          "type": "bool"
        }
      ],
      "name": "setValidatorStatus",
      "outputs": [],
      "stateMutability": "nonpayable",
      "type": "function"
    },
    {
      "inputs": [
        {
          "internalType": "bytes32[2][256]",
          "name": "currentpub",
          "type": "bytes32[2][256]"
        },
        {
          "internalType": "bytes[256]",
          "name": "sig",
          "type": "bytes[256]"
        },
        {
          "internalType": "bytes32",
          "name": "nextPKH",
          "type": "bytes32"
        },
        {
          "internalType": "address",
          "name": "_anonIDContract",
          "type": "address"
        }
      ],
      "name": "updateAnonIDContractAddressStepOne",
      "outputs": [],
      "stateMutability": "nonpayable",
      "type": "function"
    },
    {
      "inputs": [
        {
          "internalType": "bytes32[2][256]",
          "name": "currentpub",
          "type": "bytes32[2][256]"
        },
        {
          "internalType": "bytes[256]",
          "name": "sig",
          "type": "bytes[256]"
        },
        {
          "internalType": "bytes32",
          "name": "nextPKH",
          "type": "bytes32"
        },
        {
          "internalType": "address",
          "name": "_anonIDContract",
          "type": "address"
        }
      ],
      "name": "updateAnonIDContractAddressStepTwo",
      "outputs": [],
      "stateMutability": "nonpayable",
      "type": "function"
    },
    {
      "inputs": [
        {
          "internalType": "bytes32[2][256]",
          "name": "currentpub",
          "type": "bytes32[2][256]"
        },
        {
          "internalType": "bytes[256]",
          "name": "sig",
          "type": "bytes[256]"
        },
        {
          "internalType": "bytes32",
          "name": "nextPKH",
          "type": "bytes32"
        },
        {
          "internalType": "address",
          "name": "_forumContract",
          "type": "address"
        }
      ],
      "name": "updateForumContractAddressStepOne",
      "outputs": [],
      "stateMutability": "nonpayable",
      "type": "function"
    },
    {
      "inputs": [
        {
          "internalType": "bytes32[2][256]",
          "name": "currentpub",
          "type": "bytes32[2][256]"
        },
        {
          "internalType": "bytes[256]",
          "name": "sig",
          "type": "bytes[256]"
        },
        {
          "internalType": "bytes32",
          "name": "nextPKH",
          "type": "bytes32"
        },
        {
          "internalType": "address",
          "name": "_forumContract",
          "type": "address"
        }
      ],
      "name": "updateForumContractAddressStepTwo",
      "outputs": [],
      "stateMutability": "nonpayable",
      "type": "function"
    },
    {
      "inputs": [
        {
          "internalType": "string",
          "name": "serverIP",
          "type": "string"
        },
        {
          "internalType": "bool",
          "name": "add",
          "type": "bool"
        },
        {
          "internalType": "bytes32[2][256]",
          "name": "currentpub",
          "type": "bytes32[2][256]"
        },
        {
          "internalType": "bytes[256]",
          "name": "sig",
          "type": "bytes[256]"
        },
        {
          "internalType": "bytes32",
          "name": "nextPKH",
          "type": "bytes32"
        }
      ],
      "name": "updateGameServerIP",
      "outputs": [],
      "stateMutability": "nonpayable",
      "type": "function"
    },
    {
      "inputs": [
        {
          "internalType": "bytes32[2][256]",
          "name": "currentpub",
          "type": "bytes32[2][256]"
        },
        {
          "internalType": "bytes[256]",
          "name": "sig",
          "type": "bytes[256]"
        },
        {
          "internalType": "bytes32",
          "name": "nextPKH",
          "type": "bytes32"
        },
        {
          "internalType": "address",
          "name": "_gameValContract",
          "type": "address"
        }
      ],
      "name": "updateGameValContractAddressStepOne",
      "outputs": [],
      "stateMutability": "nonpayable",
      "type": "function"
    },
    {
      "inputs": [
        {
          "internalType": "bytes32[2][256]",
          "name": "currentpub",
          "type": "bytes32[2][256]"
        },
        {
          "internalType": "bytes[256]",
          "name": "sig",
          "type": "bytes[256]"
        },
        {
          "internalType": "bytes32",
          "name": "nextPKH",
          "type": "bytes32"
        },
        {
          "internalType": "address",
          "name": "_gameValContract",
          "type": "address"
        }
      ],
      "name": "updateGameValContractAddressStepTwo",
      "outputs": [],
      "stateMutability": "nonpayable",
      "type": "function"
    },
    {
      "inputs": [
        {
          "internalType": "bytes32[2][256]",
          "name": "currentpub",
          "type": "bytes32[2][256]"
        },
        {
          "internalType": "bytes[256]",
          "name": "sig",
          "type": "bytes[256]"
        },
        {
          "internalType": "bytes32",
          "name": "nextPKH",
          "type": "bytes32"
        },
        {
          "internalType": "address",
          "name": "_onrampContract",
          "type": "address"
        }
      ],
      "name": "updateOnrampContractAddressStepOne",
      "outputs": [],
      "stateMutability": "nonpayable",
      "type": "function"
    },
    {
      "inputs": [
        {
          "internalType": "bytes32[2][256]",
          "name": "currentpub",
          "type": "bytes32[2][256]"
        },
        {
          "internalType": "bytes[256]",
          "name": "sig",
          "type": "bytes[256]"
        },
        {
          "internalType": "bytes32",
          "name": "nextPKH",
          "type": "bytes32"
        },
        {
          "internalType": "address",
          "name": "_onrampContract",
          "type": "address"
        }
      ],
      "name": "updateOnrampContractAddressStepTwo",
      "outputs": [],
      "stateMutability": "nonpayable",
      "type": "function"
    }
  ],
  "bytecode": "60c0604052600360809081526254464360e81b60a0526007906200002490826200012c565b503480156200003257600080fd5b506040516200401338038062004013833981016040819052620000559162000215565b600f80546001600160a01b039384166001600160a01b031991821617909155600c80549290931691161790556200024d565b634e487b7160e01b600052604160045260246000fd5b600181811c90821680620000b257607f821691505b602082108103620000d357634e487b7160e01b600052602260045260246000fd5b50919050565b601f8211156200012757600081815260208120601f850160051c81016020861015620001025750805b601f850160051c820191505b8181101562000123578281556001016200010e565b5050505b505050565b81516001600160401b0381111562000148576200014862000087565b62000160816200015984546200009d565b84620000d9565b602080601f8311600181146200019857600084156200017f5750858301515b600019600386901b1c1916600185901b17855562000123565b600085815260208120601f198616915b82811015620001c957888601518255948401946001909101908401620001a8565b5085821015620001e85787850151600019600388901b60f8161c191681555b5050505050600190811b01905550565b80516001600160a01b03811681146200021057600080fd5b919050565b600080604083850312156200022957600080fd5b6200023483620001f8565b91506200024460208401620001f8565b90509250929050565b613db6806200025d6000396000f3fe608060405234801561001057600080fd5b506004361061025e5760003560e01c80637f97ecc311610146578063bac7e032116100c3578063dd62ed3e11610087578063dd62ed3e14610639578063e9fc174e14610664578063f107f87714610677578063f34c9fbe1461068a578063fa6f39361461069d578063facd743b146106cf57600080fd5b8063bac7e032146105b4578063bb517946146105c7578063c3c5a547146105da578063d90afa2b14610606578063da76a7001461061957600080fd5b806395df06401161010a57806395df064014610540578063ac2c34ef14610573578063ac4bcd0114610586578063aca2490b1461058e578063aeb15a6d146105a157600080fd5b80637f97ecc3146104b25780638098dcff146104e557806385d8f13d146104fa578063862dfd3e1461051a578063910fcd5a1461052d57600080fd5b806334a88c5b116101df578063451b6373116101a3578063451b6373146103ed57806356bf7b5714610403578063573088da146104165780635889fb341461044b5780635d3f33961461045e57806370a082311461049257600080fd5b806334a88c5b1461034057806338a0b5c6146103685780633a45e156146103a65780633fe7829f146103ae578063424aeded146103c157600080fd5b80631ccee0cc116102265780631ccee0cc146102e157806325aacfa3146102f4578063285edaa6146103075780632b864feb1461031a57806330a3db7e1461032d57600080fd5b806302b8c2611461026357806307fd3bbf1461027857806312243b671461028b57806315c6aee21461029e5780631881f255146102ce575b600080fd5b61027661027136600461309b565b610700565b005b6102766102863660046130f8565b6107ac565b610276610299366004613167565b6108f7565b6102b16102ac36600461318b565b610ade565b6040516001600160a01b0390911681526020015b60405180910390f35b6102766102dc3660046131a4565b610b08565b6102766102ef3660046130f8565b610b93565b6102766103023660046130f8565b610dea565b61027661031536600461309b565b610f35565b6102766103283660046130f8565b610fde565b61027661033b366004613287565b611134565b61035361034e366004613167565b6115c9565b604080519283526020830191909152016102c5565b610396610376366004613324565b805160208183018101805160008252928201919093012091525460ff1681565b60405190151581526020016102c5565b6102b161165b565b600d546102b1906001600160a01b031681565b6103d46103cf366004613167565b6116ce565b6040516102c59d9c9b9a999897969594939291906133b1565b6103f5611866565b6040519081526020016102c5565b600f546102b1906001600160a01b031681565b610396610424366004613167565b6001600160a01b031660009081526009602052604090205465010000000000900460ff1690565b61027661045936600461309b565b6118d4565b61039661046c366004613167565b6001600160a01b0316600090815260096020526040902054640100000000900460ff1690565b6103f56104a0366004613167565b60016020526000908152604090205481565b6103966104c0366004613167565b6001600160a01b0316600090815260096020526040902054600160301b900460ff1690565b6104ed61196c565b6040516102c5919061344f565b61050d6105083660046134b1565b611ad5565b6040516102c5919061357a565b600c546102b1906001600160a01b031681565b61027661053b3660046135c7565b611f9a565b61039661054e366004613167565b6001600160a01b03166000908152600960205260409020546301000000900460ff1690565b61027661058136600461309b565b612313565b6104ed6123b9565b61027661059c36600461309b565b612492565b6102766105af3660046130f8565b612531565b6102766105c23660046130f8565b61277e565b600e546102b1906001600160a01b031681565b6103966105e8366004613167565b6001600160a01b031660009081526009602052604090205460ff1690565b6102766106143660046130f8565b6129d3565b61062c61062736600461318b565b612ac8565b6040516102c5919061365d565b6103f5610647366004613670565b600260209081526000928352604080842090915290825290205481565b61027661067236600461309b565b612b74565b600b546102b1906001600160a01b031681565b6102766106983660046130f8565b612c29565b6103966106ab366004613167565b6001600160a01b031660009081526009602052604090205462010000900460ff1690565b6103966106dd366004613167565b6001600160a01b0316600090815260096020526040902054610100900460ff1690565b600d546001600160a01b031633146107735760405162461bcd60e51b81526020600482015260396024820152600080516020613d6183398151915260448201527f6e6765204f6e626f61726420517565756572207374617475730000000000000060648201526084015b60405180910390fd5b6001600160a01b0390911660009081526009602052604090208054911515650100000000000265ff000000000019909216919091179055565b6000816040516020016107bf919061369e565b60408051601f1981840301815290829052600f5463333f611160e01b83529092506000916001600160a01b039091169063333f6111906108099089908990899088906004016136e4565b6020604051808303816000875af1158015610828573d6000803e3d6000fd5b505050506040513d601f19601f8201168201806040525081019061084c91906137c5565b9050806108c15760405162461bcd60e51b815260206004820152603960248201527f417574686f72697a6174696f6e206661696c656420666f72207570646174696e60448201527f67204f6e72616d7020636f6e7472616374206164647265737300000000000000606482015260840161076a565b505033600090815260056020526040902080546001600160a01b0319166001600160a01b03929092169190911790556010555050565b600d546001600160a01b031633146109655760405162461bcd60e51b815260206004820152602b60248201527f4f6e6c7920746865206f6e72616d7020636f6e74726163742063616e2064656c60448201526a65746520706c617965727360a81b606482015260840161076a565b6001600160a01b0381166000908152600960205260408120805466ffffffffffffff19168155906109996001830182613022565b60028201600090556003820160006109b19190613022565b506004810180546001600160a01b031916905560006005820181905560069091018190555b600a54811015610ada57816001600160a01b0316600a82815481106109fd576109fd6137e2565b6000918252602090912001546001600160a01b031603610ac857600a8054610a279060019061380e565b81548110610a3757610a376137e2565b600091825260209091200154600a80546001600160a01b039092169183908110610a6357610a636137e2565b9060005260206000200160006101000a8154816001600160a01b0302191690836001600160a01b03160217905550600a805480610aa257610aa2613821565b600082815260209020810160001990810180546001600160a01b03191690550190555050565b80610ad281613837565b9150506109d6565b5050565b600a8181548110610aee57600080fd5b6000918252602090912001546001600160a01b0316905081565b600e546001600160a01b03163314610b745760405162461bcd60e51b815260206004820152602960248201527f4f6e6c792074686520666f72756d20636f6e74726163742063616e2073657420604482015268666f72756d206b657960b81b606482015260840161076a565b6001600160a01b03909116600090815260096020526040902060020155565b600081604051602001610ba6919061369e565b60408051808303601f19018152918152336000908152600560205220549091506001600160a01b03838116911614610c305760405162461bcd60e51b815260206004820152602760248201527f4f6e72616d7020636f6e7472616374206164647265737320757064617465206d6044820152660d2e6dac2e8c6d60cb1b606482015260840161076a565b600085604051602001610c439190613850565b6040516020818303038152906040528051906020012090508060105403610c7c5760405162461bcd60e51b815260040161076a90613887565b600f5460405163333f611160e01b81526000916001600160a01b03169063333f611190610cb3908a908a908a9089906004016136e4565b6020604051808303816000875af1158015610cd2573d6000803e3d6000fd5b505050506040513d601f19601f82011682018060405250810190610cf691906137c5565b905080610d7a5760405162461bcd60e51b815260206004820152604660248201527f417574686f72697a6174696f6e206661696c6564206f6e20636f6e6669726d6160448201527f74696f6e206f66204f6e72616d7020636f6e747261637420616464726573732060648201526575706461746560d01b608482015260a40161076a565b600d80546001600160a01b0319166001600160a01b0386169081179091556040517f5959e7554218adbe3edb157f744a698c903698e2be92d199d2938afb8b0312ab90600090a2505033600090815260056020526040812080546001600160a01b03191690556010555050505050565b600081604051602001610dfd919061369e565b60408051601f1981840301815290829052600f5463333f611160e01b83529092506000916001600160a01b039091169063333f611190610e479089908990899088906004016136e4565b6020604051808303816000875af1158015610e66573d6000803e3d6000fd5b505050506040513d601f19601f82011682018060405250810190610e8a91906137c5565b905080610eff5760405162461bcd60e51b815260206004820152603a60248201527f417574686f72697a6174696f6e206661696c656420666f722070726f706f736560448201527f642047616d6556616c20636f6e74726163742061646472657373000000000000606482015260840161076a565b505033600090815260046020526040902080546001600160a01b0319166001600160a01b03929092169190911790556010555050565b600e546001600160a01b03163314610fab5760405162461bcd60e51b815260206004820152603360248201527f4f6e6c792074686520666f72756d20636f6e74726163742063616e206d6f64696044820152726679206d6f64657261746f722073746174757360681b606482015260840161076a565b6001600160a01b0390911660009081526009602052604090208054911515620100000262ff000019909216919091179055565b600081604051602001610ff1919061369e565b60408051601f1981840301815290829052600f5463333f611160e01b83529092506000916001600160a01b039091169063333f61119061103b9089908990899088906004016136e4565b6020604051808303816000875af115801561105a573d6000803e3d6000fd5b505050506040513d601f19601f8201168201806040525081019061107e91906137c5565b9050806110fe5760405162461bcd60e51b815260206004820152604260248201527f417574686f72697a6174696f6e206661696c656420666f722070726f706f736560448201527f6420757064617465206f6620466f72756d20636f6e7472616374206164647265606482015261737360f01b608482015260a40161076a565b505033600090815260066020526040902080546001600160a01b0319166001600160a01b03929092169190911790556010555050565b600d546001600160a01b031633146111a65760405162461bcd60e51b815260206004820152602f60248201527f4f6e6c7920746865206f6e72616d7020636f6e74726163742063616e2061646460448201526e2f75706461746520706c617965727360881b606482015260840161076a565b600c54604051633af32abf60e01b81526001600160a01b03888116600483015290911690633af32abf90602401602060405180830381865afa1580156111f0573d6000803e3d6000fd5b505050506040513d601f19601f8201168201806040525081019061121491906137c5565b61126a5760405162461bcd60e51b815260206004820152602160248201527f41646472657373206e6f742077686974656c697374656420696e20416e6f6e496044820152601160fa1b606482015260840161076a565b6001600160a01b0386166000908152600960205260409020805460ff161561131a576003810161129a8782613971565b50600181016112a98682613971565b506001600160a01b038216156112db576004810180546001600160a01b0319166001600160a01b0384161790556112f9565b6004810180546001600160a01b0319166001600160a01b0389161790555b831561130757600581018490555b821561131557600681018390555b6115c0565b8315158061132757508215155b61138b5760405162461bcd60e51b815260206004820152602f60248201527f4f7261636c65206b657920696e6465782063616e6e6f74206265207a65726f2060448201526e666f72206e657720706c617965727360881b606482015260840161076a565b604051806101a001604052806001151581526020016000151581526020016000151581526020016000151581526020016000151581526020016000151581526020016000151581526020018681526020016000801b8152602001878152602001886001600160a01b031681526020018581526020018481525060096000896001600160a01b03166001600160a01b0316815260200190815260200160002060008201518160000160006101000a81548160ff02191690831515021790555060208201518160000160016101000a81548160ff02191690831515021790555060408201518160000160026101000a81548160ff02191690831515021790555060608201518160000160036101000a81548160ff02191690831515021790555060808201518160000160046101000a81548160ff02191690831515021790555060a08201518160000160056101000a81548160ff02191690831515021790555060c08201518160000160066101000a81548160ff02191690831515021790555060e082015181600101908161151e9190613971565b506101008201516002820155610120820151600382019061153f9082613971565b506101408201516004820180546001600160a01b03199081166001600160a01b0393841617909155610160840151600584015561018090930151600690920191909155600a80546001810182556000919091527fc65a7bb8d6351c1cf70c95a316cc6a92839c986682d98bc35f958f4883f9d2a80180549092169089161790555b50505050505050565b6001600160a01b038116600090815260096020526040812054819060ff166116335760405162461bcd60e51b815260206004820152601860248201527f506c61796572206973206e6f7420726567697374657265640000000000000000604482015260640161076a565b50506001600160a01b0316600090815260096020526040902060058101546006909101549091565b600c546040805163931742d360e01b815290516000926001600160a01b03169163931742d39160048083019260209291908290030181865afa1580156116a5573d6000803e3d6000fd5b505050506040513d601f19601f820116820180604052508101906116c99190613a31565b905090565b6009602052600090815260409020805460018201805460ff808416946101008504821694620100008104831694630100000082048416946401000000008304851694650100000000008404811694600160301b90940416929190611731906138ee565b80601f016020809104026020016040519081016040528092919081815260200182805461175d906138ee565b80156117aa5780601f1061177f576101008083540402835291602001916117aa565b820191906000526020600020905b81548152906001019060200180831161178d57829003601f168201915b5050505050908060020154908060030180546117c5906138ee565b80601f01602080910402602001604051908101604052809291908181526020018280546117f1906138ee565b801561183e5780601f106118135761010080835404028352916020019161183e565b820191906000526020600020905b81548152906001019060200180831161182157829003601f168201915b505050506004830154600584015460069094015492936001600160a01b03909116929091508d565b600c5460408051638705d94560e01b815290516000926001600160a01b031691638705d9459160048083019260209291908290030181865afa1580156118b0573d6000803e3d6000fd5b505050506040513d601f19601f820116820180604052508101906116c99190613a4e565b600d546001600160a01b031633146119355760405162461bcd60e51b81526020600482015260306024820152600080516020613d6183398151915260448201526f6e67652041646d696e2073746174757360801b606482015260840161076a565b6001600160a01b03909116600090815260096020526040902080549115156401000000000264ff0000000019909216919091179055565b600a5460609060009067ffffffffffffffff81111561198d5761198d6131d0565b6040519080825280602002602001820160405280156119c057816020015b60608152602001906001900390816119ab5790505b50905060005b600a54811015611acf57600060096000600a84815481106119e9576119e96137e2565b60009182526020808320909101546001600160a01b03168352820192909252604001902060018101805491925090611a20906138ee565b80601f0160208091040260200160405190810160405280929190818152602001828054611a4c906138ee565b8015611a995780601f10611a6e57610100808354040283529160200191611a99565b820191906000526020600020905b815481529060010190602001808311611a7c57829003601f168201915b5050505050838381518110611ab057611ab06137e2565b6020026020010181905250508080611ac790613837565b9150506119c6565b50919050565b600b546060906001600160a01b03163314611b505760405162461bcd60e51b815260206004820152603560248201527f4f6e6c79207468652067616d652076616c696461746f7220636f6e74726163746044820152740818d85b881858d8d95cdcc81d1a1a5cc81b1a5cdd605a1b606482015260840161076a565b6000835167ffffffffffffffff811115611b6c57611b6c6131d0565b604051908082528060200260200182016040528015611b95578160200160208202803683370190505b50905060005b8451811015611f905760005b600a54811015611f7d57858281518110611bc357611bc36137e2565b6020026020010151604051602001611bdb9190613a67565b6040516020818303038152906040528051906020012060096000600a8481548110611c0857611c086137e2565b60009182526020808320909101546001600160a01b0316835282810193909352604091820190209051611c42926001929092019101613a83565b6040516020818303038152906040528051906020012003611f6b57600c54600a80546000926001600160a01b031691635a725b07916007919086908110611c8b57611c8b6137e2565b6000918252602090912001546040516001600160e01b031960e085901b168152611cc292916001600160a01b031690600401613b76565b602060405180830381865afa158015611cdf573d6000803e3d6000fd5b505050506040513d601f19601f82011682018060405250810190611d039190613ba0565b90508060ff16600203611ec45760096000600a8481548110611d2757611d276137e2565b60009182526020808320909101546001600160a01b0390811684529083019390935260409091019020600401548551911690859085908110611d6b57611d6b6137e2565b6001600160a01b03909216602092830291909101909101526000611d90603c88613bc3565b600c54600a80549293506001600160a01b039091169163d47b2e99919086908110611dbd57611dbd6137e2565b60009182526020909120015460405160e083901b6001600160e01b03191681526001600160a01b03909116600482015260248101849052604401600060405180830381600087803b158015611e1157600080fd5b505af1158015611e25573d6000803e3d6000fd5b5050600c54600a80546001600160a01b039092169350632eb4b54f92509086908110611e5357611e536137e2565b6000918252602090912001546040516001600160e01b031960e084901b168152611e8c916001600160a01b031690600790600401613be5565b600060405180830381600087803b158015611ea657600080fd5b505af1158015611eba573d6000803e3d6000fd5b5050505050611f65565b8060ff16600003611f6557600c54600a80546001600160a01b0390921691632eb4b54f919085908110611ef957611ef96137e2565b6000918252602090912001546040516001600160e01b031960e084901b168152611f32916001600160a01b031690600790600401613be5565b600060405180830381600087803b158015611f4c57600080fd5b505af1158015611f60573d6000803e3d6000fd5b505050505b50611f7d565b80611f7581613837565b915050611ba7565b5080611f8881613837565b915050611b9b565b5090505b92915050565b600083604051602001611fad9190613850565b60408051808303601f19018152908290528051602090910120600f5463b9d57c5f60e01b8352600483018290529092506000916001600160a01b039091169063b9d57c5f90602401606060405180830381865afa158015612012573d6000803e3d6000fd5b505050506040513d601f19601f820116820180604052508101906120369190613c09565b92505050600080612046336115c9565b915091508183148061205757508083145b6120b45760405162461bcd60e51b815260206004820152602860248201527f43616c6c65722773206f7261636c65206b657920696e64657820646f6573206e6044820152670dee840dac2e8c6d60c31b606482015260840161076a565b33600090815260096020526040902054640100000000900460ff1661211b5760405162461bcd60e51b815260206004820152601a60248201527f43616c6c6572206973206e6f7420612067616d652061646d696e000000000000604482015260640161076a565b600f546040516001600160a01b0390911690634a89d52b90899089908990612147908f90602001613a67565b6040516020818303038152906040526040518563ffffffff1660e01b815260040161217594939291906136e4565b6020604051808303816000875af1158015612194573d6000803e3d6000fd5b505050506040513d601f19601f820116820180604052508101906121b891906137c5565b6122045760405162461bcd60e51b815260206004820152601b60248201527f4c616d706f7274206f7261636c6520636865636b206661696c65640000000000604482015260640161076a565b87156122a65760008960405161221a9190613a67565b9081526040519081900360200190205460ff166122a157600160008a6040516122439190613a67565b908152604051908190036020019020805491151560ff19909216919091179055600880546001810182556000919091527ff3f7a9fe364faab93b216da50a3214154f22a0a2b415b23a84c8169e8b636ee30161229f8a82613971565b505b612308565b6000896040516122b69190613a67565b9081526040519081900360200190205460ff1615612308576000808a6040516122df9190613a67565b908152604051908190036020019020805491151560ff1990921691909117905561230889612e75565b505050505050505050565b600d546001600160a01b031633146123815760405162461bcd60e51b815260206004820152603c6024820152600080516020613d6183398151915260448201527f6e6765204f6e626f617264205265676973747261722053746174757300000000606482015260840161076a565b6001600160a01b0390911660009081526009602052604090208054911515600160301b0266ff00000000000019909216919091179055565b60606008805480602002602001604051908101604052809291908181526020016000905b828210156124895783829060005260206000200180546123fc906138ee565b80601f0160208091040260200160405190810160405280929190818152602001828054612428906138ee565b80156124755780601f1061244a57610100808354040283529160200191612475565b820191906000526020600020905b81548152906001019060200180831161245857829003601f168201915b5050505050815260200190600101906123dd565b50505050905090565b600d546001600160a01b031633146125005760405162461bcd60e51b81526020600482015260396024820152600080516020613d6183398151915260448201527f6e67652047616d652056616c696461746f722073746174757300000000000000606482015260840161076a565b6001600160a01b03909116600090815260096020526040902080549115156101000261ff0019909216919091179055565b600081604051602001612544919061369e565b60408051808303601f19018152918152336000908152600460205220549091506001600160a01b038381169116146125d15760405162461bcd60e51b815260206004820152602a60248201527f50726f706f7365642047616d6556616c20636f6e7472616374206164647265736044820152690e640dad2e6dac2e8c6d60b31b606482015260840161076a565b6000856040516020016125e49190613850565b604051602081830303815290604052805190602001209050806010540361261d5760405162461bcd60e51b815260040161076a90613887565b600f5460405163333f611160e01b81526000916001600160a01b03169063333f611190612654908a908a908a9089906004016136e4565b6020604051808303816000875af1158015612673573d6000803e3d6000fd5b505050506040513d601f19601f8201168201806040525081019061269791906137c5565b90508061270e576040805162461bcd60e51b81526020600482015260248101919091527f417574686f72697a6174696f6e206661696c6564206f6e20636f6e6669726d6160448201527f74696f6e206f662047616d6556616c20636f6e74726163742061646472657373606482015260840161076a565b600b80546001600160a01b0319166001600160a01b0386169081179091556040517f6f1895f9314e8b91a7a1c3a67319510d05c9d6729515f83cc2eaca70d3e81f8790600090a2505033600090815260046020526040812080546001600160a01b03191690556010555050505050565b600081604051602001612791919061369e565b60408051808303601f19018152918152336000908152600660205220549091506001600160a01b0383811691161461281a5760405162461bcd60e51b815260206004820152602660248201527f466f72756d20636f6e7472616374206164647265737320757064617465206d696044820152650e6dac2e8c6d60d31b606482015260840161076a565b60008560405160200161282d9190613850565b60405160208183030381529060405280519060200120905080601054036128665760405162461bcd60e51b815260040161076a90613887565b600f5460405163333f611160e01b81526000916001600160a01b03169063333f61119061289d908a908a908a9089906004016136e4565b6020604051808303816000875af11580156128bc573d6000803e3d6000fd5b505050506040513d601f19601f820116820180604052508101906128e091906137c5565b9050806129635760405162461bcd60e51b815260206004820152604560248201527f417574686f72697a6174696f6e206661696c6564206f6e20636f6e6669726d6160448201527f74696f6e206f6620466f72756d20636f6e747261637420616464726573732075606482015264706461746560d81b608482015260a40161076a565b600e80546001600160a01b0319166001600160a01b0386169081179091556040517f78e5262e53e14d17b3058c6b8cf7cd3c2fb92a4172fa393fddd75cb57523b1c690600090a2505033600090815260066020526040812080546001600160a01b03191690556010555050505050565b6000816040516020016129e6919061369e565b60408051601f1981840301815290829052600f5463333f611160e01b83529092506000916001600160a01b039091169063333f611190612a309089908990899088906004016136e4565b6020604051808303816000875af1158015612a4f573d6000803e3d6000fd5b505050506040513d601f19601f82011682018060405250810190612a7391906137c5565b905080612a925760405162461bcd60e51b815260040161076a90613c44565b505033600090815260036020526040902080546001600160a01b0319166001600160a01b03929092169190911790556010555050565b60088181548110612ad857600080fd5b906000526020600020016000915090508054612af3906138ee565b80601f0160208091040260200160405190810160405280929190818152602001828054612b1f906138ee565b8015612b6c5780601f10612b4157610100808354040283529160200191612b6c565b820191906000526020600020905b815481529060010190602001808311612b4f57829003601f168201915b505050505081565b600e546001600160a01b03163314612bf45760405162461bcd60e51b815260206004820152603e60248201527f4f6e6c792074686520666f72756d20636f6e74726163742063616e206d6f646960448201527f667920746f75726e616d656e74206d6f64657261746f72207374617475730000606482015260840161076a565b6001600160a01b039091166000908152600960205260409020805491151563010000000263ff00000019909216919091179055565b600081604051602001612c3c919061369e565b60408051808303601f19018152918152336000908152600360205220549091506001600160a01b03838116911614612cc85760405162461bcd60e51b815260206004820152602960248201527f50726f706f73656420416e6f6e494420636f6e74726163742061646472657373604482015268040dad2e6dac2e8c6d60bb1b606482015260840161076a565b600085604051602001612cdb9190613850565b6040516020818303038152906040528051906020012090508060105403612d6c576040805162461bcd60e51b81526020600482015260248101919091527f4c616d706f7274426173653a20504b48206d617463686573206c61737420757360448201527f656420504b482028757365207365706172617465207365636f6e64206b657929606482015260840161076a565b600f5460405163333f611160e01b81526000916001600160a01b03169063333f611190612da3908a908a908a9089906004016136e4565b6020604051808303816000875af1158015612dc2573d6000803e3d6000fd5b505050506040513d601f19601f82011682018060405250810190612de691906137c5565b905080612e055760405162461bcd60e51b815260040161076a90613c44565b600c80546001600160a01b0319166001600160a01b0386169081179091556040517febc4468d0c46ed1b5177ed98bdb5d4ccfc7dd4f9da4caa02b6fd46b1e7be0d4e90600090a2505033600090815260036020526040812080546001600160a01b03191690556010555050505050565b33600090815260096020526040902054640100000000900460ff16612edc5760405162461bcd60e51b815260206004820152601a60248201527f43616c6c6572206973206e6f7420612067616d652061646d696e000000000000604482015260640161076a565b60005b600854811015610ada5781604051602001612efa9190613a67565b6040516020818303038152906040528051906020012060088281548110612f2357612f236137e2565b90600052602060002001604051602001612f3d9190613a83565b60405160208183030381529060405280519060200120036130105760008083604051612f699190613a67565b908152604051908190036020019020805491151560ff1990921691909117905560088054612f999060019061380e565b81548110612fa957612fa96137e2565b9060005260206000200160088281548110612fc657612fc66137e2565b906000526020600020019081612fdc9190613c85565b506008805480612fee57612fee613821565b60019003818190600052602060002001600061300a9190613022565b90555050565b8061301a81613837565b915050612edf565b50805461302e906138ee565b6000825580601f1061303e575050565b601f01602090049060005260206000209081019061305c919061305f565b50565b5b808211156130745760008155600101613060565b5090565b6001600160a01b038116811461305c57600080fd5b801515811461305c57600080fd5b600080604083850312156130ae57600080fd5b82356130b981613078565b915060208301356130c98161308d565b809150509250929050565b806140008101831015611f9457600080fd5b806120008101831015611f9457600080fd5b600080600080614060858703121561310f57600080fd5b61311986866130d4565b935061400085013567ffffffffffffffff81111561313657600080fd5b613142878288016130e6565b935050614020850135915061404085013561315c81613078565b939692955090935050565b60006020828403121561317957600080fd5b813561318481613078565b9392505050565b60006020828403121561319d57600080fd5b5035919050565b600080604083850312156131b757600080fd5b82356131c281613078565b946020939093013593505050565b634e487b7160e01b600052604160045260246000fd5b604051601f8201601f1916810167ffffffffffffffff8111828210171561320f5761320f6131d0565b604052919050565b600082601f83011261322857600080fd5b813567ffffffffffffffff811115613242576132426131d0565b613255601f8201601f19166020016131e6565b81815284602083860101111561326a57600080fd5b816020850160208301376000918101602001919091529392505050565b60008060008060008060c087890312156132a057600080fd5b86356132ab81613078565b9550602087013567ffffffffffffffff808211156132c857600080fd5b6132d48a838b01613217565b965060408901359150808211156132ea57600080fd5b506132f789828a01613217565b945050606087013592506080870135915060a087013561331681613078565b809150509295509295509295565b60006020828403121561333657600080fd5b813567ffffffffffffffff81111561334d57600080fd5b61335984828501613217565b949350505050565b60005b8381101561337c578181015183820152602001613364565b50506000910152565b6000815180845261339d816020860160208601613361565b601f01601f19169290920160200192915050565b8d151581528c151560208201528b1515604082015260006101a08c151560608401528b151560808401528a151560a084015289151560c08401528060e08401526133fd8184018a613385565b9050876101008401528281036101208401526134198188613385565b9150506134326101408301866001600160a01b03169052565b61016082019390935261018001529b9a5050505050505050505050565b6000602080830181845280855180835260408601915060408160051b870101925083870160005b828110156134a457603f19888603018452613492858351613385565b94509285019290850190600101613476565b5092979650505050505050565b600080604083850312156134c457600080fd5b823567ffffffffffffffff808211156134dc57600080fd5b818501915085601f8301126134f057600080fd5b8135602082821115613504576135046131d0565b8160051b6135138282016131e6565b928352848101820192828101908a85111561352d57600080fd5b83870192505b848310156135695782358681111561354b5760008081fd5b6135598c86838b0101613217565b8352509183019190830190613533565b9a9890920135985050505050505050565b6020808252825182820181905260009190848201906040850190845b818110156135bb5783516001600160a01b031683529284019291840191600101613596565b50909695505050505050565b600080600080600061408086880312156135e057600080fd5b853567ffffffffffffffff808211156135f857600080fd5b61360489838a01613217565b9650602088013591506136168261308d565b8195506136268960408a016130d4565b945061404088013591508082111561363d57600080fd5b5061364a888289016130e6565b9598949750929561406001359392505050565b6020815260006131846020830184613385565b6000806040838503121561368357600080fd5b823561368e81613078565b915060208301356130c981613078565b60609190911b6bffffffffffffffffffffffff1916815260140190565b81835281816020850137506000828201602090810191909152601f909101601f19169091010190565b60006140608281018388845b610100811015613711576040808385379283019291909101906001016136f0565b50505061400084019190915261606083018660005b61010081101561379d5785830361405f190184528135368a9003601e1901811261374f57600080fd5b8901602081810191359067ffffffffffffffff82111561376e57600080fd5b81360383131561377d57600080fd5b6137888683856136bb565b96810196955093909301925050600101613726565b5050856140208501528381036140408501526137b98186613385565b98975050505050505050565b6000602082840312156137d757600080fd5b81516131848161308d565b634e487b7160e01b600052603260045260246000fd5b634e487b7160e01b600052601160045260246000fd5b81810381811115611f9457611f946137f8565b634e487b7160e01b600052603160045260246000fd5b600060018201613849576138496137f8565b5060010190565b60008183825b61010081101561387757604080838537928301929190910190600101613856565b5050506140008201905092915050565b60208082526041908201527f53616d6520504b48207573656420666f7220626f74682073746570733b20757360408201527f652061207365706172617465206b657920666f7220636f6e6669726d6174696f6060820152603760f91b608082015260a00190565b600181811c9082168061390257607f821691505b602082108103611acf57634e487b7160e01b600052602260045260246000fd5b601f82111561396c57600081815260208120601f850160051c810160208610156139495750805b601f850160051c820191505b8181101561396857828155600101613955565b5050505b505050565b815167ffffffffffffffff81111561398b5761398b6131d0565b61399f8161399984546138ee565b84613922565b602080601f8311600181146139d457600084156139bc5750858301515b600019600386901b1c1916600185901b178555613968565b600085815260208120601f198616915b82811015613a03578886015182559484019460019091019084016139e4565b5085821015613a215787850151600019600388901b60f8161c191681555b5050505050600190811b01905550565b600060208284031215613a4357600080fd5b815161318481613078565b600060208284031215613a6057600080fd5b5051919050565b60008251613a79818460208701613361565b9190910192915050565b6000808354613a91816138ee565b60018281168015613aa95760018114613abe57613aed565b60ff1984168752821515830287019450613aed565b8760005260208060002060005b85811015613ae45781548a820152908401908201613acb565b50505082870194505b50929695505050505050565b60008154613b06816138ee565b808552602060018381168015613b235760018114613b3d57613b6b565b60ff1985168884015283151560051b880183019550613b6b565b866000528260002060005b85811015613b635781548a8201860152908301908401613b48565b890184019650505b505050505092915050565b604081526000613b896040830185613af9565b905060018060a01b03831660208301529392505050565b600060208284031215613bb257600080fd5b815160ff8116811461318457600080fd5b600082613be057634e487b7160e01b600052601260045260246000fd5b500490565b6001600160a01b038316815260406020820181905260009061335990830184613af9565b600080600060608486031215613c1e57600080fd5b835160038110613c2d57600080fd5b602085015160409095015190969495509392505050565b60208082526021908201527f4c616d706f7274426173653a20417574686f72697a6174696f6e206661696c656040820152601960fa1b606082015260800190565b818103613c90575050565b613c9a82546138ee565b67ffffffffffffffff811115613cb257613cb26131d0565b613cc08161399984546138ee565b6000601f821160018114613cf45760008315613cdc5750848201545b600019600385901b1c1916600184901b178455613d59565b600085815260209020601f19841690600086815260209020845b83811015613d2e5782860154825560019586019590910190602001613d0e565b5085831015613d4c5781850154600019600388901b60f8161c191681555b50505060018360011b0184555b505050505056fe4f6e6c7920746865206f6e72616d7020636f6e74726163742063616e20636861a2646970667358221220e3a466733d1ea10ca2b3a7d4b809691afffca3a73487981f92a1c8ff8a4ce87264736f6c63430008140033",
  "bytecodeSha1": "e209a7a72a8b7dfa7c4c40689f2439b84063483f",
  "compiler": {
    "evm_version": "istanbul",
    "optimizer": {
      "enabled": true,
      "runs": 200
    },
    "version": "0.8.20+commit.a1b79de6"
  },
  "contractName": "PlayerDatabase",
  "language": "Solidity",
  "natspec": {
    "kind": "dev",
    "methods": {},
    "version": 1
  },
  "opcodes": "PUSH1 0x80 PUSH1 0x40 MSTORE CALLVALUE DUP1 ISZERO PUSH2 0x10 JUMPI PUSH1 0x0 DUP1 REVERT JUMPDEST POP PUSH1 0x4 CALLDATASIZE LT PUSH2 0x25E JUMPI PUSH1 0x0 CALLDATALOAD PUSH1 0xE0 SHR DUP1 PUSH4 0x7F97ECC3 GT PUSH2 0x146 JUMPI DUP1 PUSH4 0xBAC7E032 GT PUSH2 0xC3 JUMPI DUP1 PUSH4 0xDD62ED3E GT PUSH2 0x87 JUMPI DUP1 PUSH4 0xDD62ED3E EQ PUSH2 0x639 JUMPI DUP1 PUSH4 0xE9FC174E EQ PUSH2 0x664 JUMPI DUP1 PUSH4 0xF107F877 EQ PUSH2 0x677 JUMPI DUP1 PUSH4 0xF34C9FBE EQ PUSH2 0x68A JUMPI DUP1 PUSH4 0xFA6F3936 EQ PUSH2 0x69D JUMPI DUP1 PUSH4 0xFACD743B EQ PUSH2 0x6CF JUMPI PUSH1 0x0 DUP1 REVERT JUMPDEST DUP1 PUSH4 0xBAC7E032 EQ PUSH2 0x5B4 JUMPI DUP1 PUSH4 0xBB517946 EQ PUSH2 0x5C7 JUMPI DUP1 PUSH4 0xC3C5A547 EQ PUSH2 0x5DA JUMPI DUP1 PUSH4 0xD90AFA2B EQ PUSH2 0x606 JUMPI DUP1 PUSH4 0xDA76A700 EQ PUSH2 0x619 JUMPI PUSH1 0x0 DUP1 REVERT JUMPDEST DUP1 PUSH4 0x95DF0640 GT PUSH2 0x10A JUMPI DUP1 PUSH4 0x95DF0640 EQ PUSH2 0x540 JUMPI DUP1 PUSH4 0xAC2C34EF EQ PUSH2 0x573 JUMPI DUP1 PUSH4 0xAC4BCD01 EQ PUSH2 0x586 JUMPI DUP1 PUSH4 0xACA2490B EQ PUSH2 0x58E JUMPI DUP1 PUSH4 0xAEB15A6D EQ PUSH2 0x5A1 JUMPI PUSH1 0x0 DUP1 REVERT JUMPDEST DUP1 PUSH4 0x7F97ECC3 EQ PUSH2 0x4B2 JUMPI DUP1 PUSH4 0x8098DCFF EQ PUSH2 0x4E5 JUMPI DUP1 PUSH4 0x85D8F13D EQ PUSH2 0x4FA JUMPI DUP1 PUSH4 0x862DFD3E EQ PUSH2 0x51A JUMPI DUP1 PUSH4 0x910FCD5A EQ PUSH2 0x52D JUMPI PUSH1 0x0 DUP1 REVERT JUMPDEST DUP1 PUSH4 0x34A88C5B GT PUSH2 0x1DF JUMPI DUP1 PUSH4 0x451B6373 GT PUSH2 0x1A3 JUMPI DUP1 PUSH4 0x451B6373 EQ PUSH2 0x3ED JUMPI DUP1 PUSH4 0x56BF7B57 EQ PUSH2 0x403 JUMPI DUP1 PUSH4 0x573088DA EQ PUSH2 0x416 JUMPI DUP1 PUSH4 0x5889FB34 EQ PUSH2 0x44B JUMPI DUP1 PUSH4 0x5D3F3396 EQ PUSH2 0x45E JUMPI DUP1 PUSH4 0x70A08231 EQ PUSH2 0x492 JUMPI PUSH1 0x0 DUP1 REVERT JUMPDEST DUP1 PUSH4 0x34A88C5B EQ PUSH2 0x340 JUMPI DUP1 PUSH4 0x38A0B5C6 EQ PUSH2 0x368 JUMPI DUP1 PUSH4 0x3A45E156 EQ PUSH2 0x3A6 JUMPI DUP1 PUSH4 0x3FE7829F EQ PUSH2 0x3AE JUMPI DUP1 PUSH4 0x424AEDED EQ PUSH2 0x3C1 JUMPI PUSH1 0x0 DUP1 REVERT JUMPDEST DUP1 PUSH4 0x1CCEE0CC GT PUSH2 0x226 JUMPI DUP1 PUSH4 0x1CCEE0CC EQ PUSH2 0x2E1 JUMPI DUP1 PUSH4 0x25AACFA3 EQ PUSH2 0x2F4 JUMPI DUP1 PUSH4 0x285EDAA6 EQ PUSH2 0x307 JUMPI DUP1 PUSH4 0x2B864FEB EQ PUSH2 0x31A JUMPI DUP1 PUSH4 0x30A3DB7E EQ PUSH2 0x32D JUMPI PUSH1 0x0 DUP1 REVERT JUMPDEST DUP1 PUSH4 0x2B8C261 EQ PUSH2 0x263 JUMPI DUP1 PUSH4 0x7FD3BBF EQ PUSH2 0x278 JUMPI DUP1 PUSH4 0x12243B67 EQ PUSH2 0x28B JUMPI DUP1 PUSH4 0x15C6AEE2 EQ PUSH2 0x29E JUMPI DUP1 PUSH4 0x1881F255 EQ PUSH2 0x2CE JUMPI JUMPDEST PUSH1 0x0 DUP1 REVERT JUMPDEST PUSH2 0x276 PUSH2 0x271 CALLDATASIZE PUSH1 0x4 PUSH2 0x309B JUMP JUMPDEST PUSH2 0x700 JUMP JUMPDEST STOP JUMPDEST PUSH2 0x276 PUSH2 0x286 CALLDATASIZE PUSH1 0x4 PUSH2 0x30F8 JUMP JUMPDEST PUSH2 0x7AC JUMP JUMPDEST PUSH2 0x276 PUSH2 0x299 CALLDATASIZE PUSH1 0x4 PUSH2 0x3167 JUMP JUMPDEST PUSH2 0x8F7 JUMP JUMPDEST PUSH2 0x2B1 PUSH2 0x2AC CALLDATASIZE PUSH1 0x4 PUSH2 0x318B JUMP JUMPDEST PUSH2 0xADE JUMP JUMPDEST PUSH1 0x40 MLOAD PUSH1 0x1 PUSH1 0x1 PUSH1 0xA0 SHL SUB SWAP1 SWAP2 AND DUP2 MSTORE PUSH1 0x20 ADD JUMPDEST PUSH1 0x40 MLOAD DUP1 SWAP2 SUB SWAP1 RETURN JUMPDEST PUSH2 0x276 PUSH2 0x2DC CALLDATASIZE PUSH1 0x4 PUSH2 0x31A4 JUMP JUMPDEST PUSH2 0xB08 JUMP JUMPDEST PUSH2 0x276 PUSH2 0x2EF CALLDATASIZE PUSH1 0x4 PUSH2 0x30F8 JUMP JUMPDEST PUSH2 0xB93 JUMP JUMPDEST PUSH2 0x276 PUSH2 0x302 CALLDATASIZE PUSH1 0x4 PUSH2 0x30F8 JUMP JUMPDEST PUSH2 0xDEA JUMP JUMPDEST PUSH2 0x276 PUSH2 0x315 CALLDATASIZE PUSH1 0x4 PUSH2 0x309B JUMP JUMPDEST PUSH2 0xF35 JUMP JUMPDEST PUSH2 0x276 PUSH2 0x328 CALLDATASIZE PUSH1 0x4 PUSH2 0x30F8 JUMP JUMPDEST PUSH2 0xFDE JUMP JUMPDEST PUSH2 0x276 PUSH2 0x33B CALLDATASIZE PUSH1 0x4 PUSH2 0x3287 JUMP JUMPDEST PUSH2 0x1134 JUMP JUMPDEST PUSH2 0x353 PUSH2 0x34E CALLDATASIZE PUSH1 0x4 PUSH2 0x3167 JUMP JUMPDEST PUSH2 0x15C9 JUMP JUMPDEST PUSH1 0x40 DUP1 MLOAD SWAP3 DUP4 MSTORE PUSH1 0x20 DUP4 ADD SWAP2 SWAP1 SWAP2 MSTORE ADD PUSH2 0x2C5 JUMP JUMPDEST PUSH2 0x396 PUSH2 0x376 CALLDATASIZE PUSH1 0x4 PUSH2 0x3324 JUMP JUMPDEST DUP1 MLOAD PUSH1 0x20 DUP2 DUP4 ADD DUP2 ADD DUP1 MLOAD PUSH1 0x0 DUP3 MSTORE SWAP3 DUP3 ADD SWAP2 SWAP1 SWAP4 ADD KECCAK256 SWAP2 MSTORE SLOAD PUSH1 0xFF AND DUP2 JUMP JUMPDEST PUSH1 0x40 MLOAD SWAP1 ISZERO ISZERO DUP2 MSTORE PUSH1 0x20 ADD PUSH2 0x2C5 JUMP JUMPDEST PUSH2 0x2B1 PUSH2 0x165B JUMP JUMPDEST PUSH1 0xD SLOAD PUSH2 0x2B1 SWAP1 PUSH1 0x1 PUSH1 0x1 PUSH1 0xA0 SHL SUB AND DUP2 JUMP JUMPDEST PUSH2 0x3D4 PUSH2 0x3CF CALLDATASIZE PUSH1 0x4 PUSH2 0x3167 JUMP JUMPDEST PUSH2 0x16CE JUMP JUMPDEST PUSH1 0x40 MLOAD PUSH2 0x2C5 SWAP14 SWAP13 SWAP12 SWAP11 SWAP10 SWAP9 SWAP8 SWAP7 SWAP6 SWAP5 SWAP4 SWAP3 SWAP2 SWAP1 PUSH2 0x33B1 JUMP JUMPDEST PUSH2 0x3F5 PUSH2 0x1866 JUMP JUMPDEST PUSH1 0x40 MLOAD SWAP1 DUP2 MSTORE PUSH1 0x20 ADD PUSH2 0x2C5 JUMP JUMPDEST PUSH1 0xF SLOAD PUSH2 0x2B1 SWAP1 PUSH1 0x1 PUSH1 0x1 PUSH1 0xA0 SHL SUB AND DUP2 JUMP JUMPDEST PUSH2 0x396 PUSH2 0x424 CALLDATASIZE PUSH1 0x4 PUSH2 0x3167 JUMP JUMPDEST PUSH1 0x1 PUSH1 0x1 PUSH1 0xA0 SHL SUB AND PUSH1 0x0 SWAP1 DUP2 MSTORE PUSH1 0x9 PUSH1 0x20 MSTORE PUSH1 0x40 SWAP1 KECCAK256 SLOAD PUSH6 0x10000000000 SWAP1 DIV PUSH1 0xFF AND SWAP1 JUMP JUMPDEST PUSH2 0x276 PUSH2 0x459 CALLDATASIZE PUSH1 0x4 PUSH2 0x309B JUMP JUMPDEST PUSH2 0x18D4 JUMP JUMPDEST PUSH2 0x396 PUSH2 0x46C CALLDATASIZE PUSH1 0x4 PUSH2 0x3167 JUMP JUMPDEST PUSH1 0x1 PUSH1 0x1 PUSH1 0xA0 SHL SUB AND PUSH1 0x0 SWAP1 DUP2 MSTORE PUSH1 0x9 PUSH1 0x20 MSTORE PUSH1 0x40 SWAP1 KECCAK256 SLOAD PUSH5 0x100000000 SWAP1 DIV PUSH1 0xFF AND SWAP1 JUMP JUMPDEST PUSH2 0x3F5 PUSH2 0x4A0 CALLDATASIZE PUSH1 0x4 PUSH2 0x3167 JUMP JUMPDEST PUSH1 0x1 PUSH1 0x20 MSTORE PUSH1 0x0 SWAP1 DUP2 MSTORE PUSH1 0x40 SWAP1 KECCAK256 SLOAD DUP2 JUMP JUMPDEST PUSH2 0x396 PUSH2 0x4C0 CALLDATASIZE PUSH1 0x4 PUSH2 0x3167 JUMP JUMPDEST PUSH1 0x1 PUSH1 0x1 PUSH1 0xA0 SHL SUB AND PUSH1 0x0 SWAP1 DUP2 MSTORE PUSH1 0x9 PUSH1 0x20 MSTORE PUSH1 0x40 SWAP1 KECCAK256 SLOAD PUSH1 0x1 PUSH1 0x30 SHL SWAP1 DIV PUSH1 0xFF AND SWAP1 JUMP JUMPDEST PUSH2 0x4ED PUSH2 0x196C JUMP JUMPDEST PUSH1 0x40 MLOAD PUSH2 0x2C5 SWAP2 SWAP1 PUSH2 0x344F JUMP JUMPDEST PUSH2 0x50D PUSH2 0x508 CALLDATASIZE PUSH1 0x4 PUSH2 0x34B1 JUMP JUMPDEST PUSH2 0x1AD5 JUMP JUMPDEST PUSH1 0x40 MLOAD PUSH2 0x2C5 SWAP2 SWAP1 PUSH2 0x357A JUMP JUMPDEST PUSH1 0xC SLOAD PUSH2 0x2B1 SWAP1 PUSH1 0x1 PUSH1 0x1 PUSH1 0xA0 SHL SUB AND DUP2 JUMP JUMPDEST PUSH2 0x276 PUSH2 0x53B CALLDATASIZE PUSH1 0x4 PUSH2 0x35C7 JUMP JUMPDEST PUSH2 0x1F9A JUMP JUMPDEST PUSH2 0x396 PUSH2 0x54E CALLDATASIZE PUSH1 0x4 PUSH2 0x3167 JUMP JUMPDEST PUSH1 0x1 PUSH1 0x1 PUSH1 0xA0 SHL SUB AND PUSH1 0x0 SWAP1 DUP2 MSTORE PUSH1 0x9 PUSH1 0x20 MSTORE PUSH1 0x40 SWAP1 KECCAK256 SLOAD PUSH4 0x1000000 SWAP1 DIV PUSH1 0xFF AND SWAP1 JUMP JUMPDEST PUSH2 0x276 PUSH2 0x581 CALLDATASIZE PUSH1 0x4 PUSH2 0x309B JUMP JUMPDEST PUSH2 0x2313 JUMP JUMPDEST PUSH2 0x4ED PUSH2 0x23B9 JUMP JUMPDEST PUSH2 0x276 PUSH2 0x59C CALLDATASIZE PUSH1 0x4 PUSH2 0x309B JUMP JUMPDEST PUSH2 0x2492 JUMP JUMPDEST PUSH2 0x276 PUSH2 0x5AF CALLDATASIZE PUSH1 0x4 PUSH2 0x30F8 JUMP JUMPDEST PUSH2 0x2531 JUMP JUMPDEST PUSH2 0x276 PUSH2 0x5C2 CALLDATASIZE PUSH1 0x4 PUSH2 0x30F8 JUMP JUMPDEST PUSH2 0x277E JUMP JUMPDEST PUSH1 0xE SLOAD PUSH2 0x2B1 SWAP1 PUSH1 0x1 PUSH1 0x1 PUSH1 0xA0 SHL SUB AND DUP2 JUMP JUMPDEST PUSH2 0x396 PUSH2 0x5E8 CALLDATASIZE PUSH1 0x4 PUSH2 0x3167 JUMP JUMPDEST PUSH1 0x1 PUSH1 0x1 PUSH1 0xA0 SHL SUB AND PUSH1 0x0 SWAP1 DUP2 MSTORE PUSH1 0x9 PUSH1 0x20 MSTORE PUSH1 0x40 SWAP1 KECCAK256 SLOAD PUSH1 0xFF AND SWAP1 JUMP JUMPDEST PUSH2 0x276 PUSH2 0x614 CALLDATASIZE PUSH1 0x4 PUSH2 0x30F8 JUMP JUMPDEST PUSH2 0x29D3 JUMP JUMPDEST PUSH2 0x62C PUSH2 0x627 CALLDATASIZE PUSH1 0x4 PUSH2 0x318B JUMP JUMPDEST PUSH2 0x2AC8 JUMP JUMPDEST PUSH1 0x40 MLOAD PUSH2 0x2C5 SWAP2 SWAP1 PUSH2 0x365D JUMP JUMPDEST PUSH2 0x3F5 PUSH2 0x647 CALLDATASIZE PUSH1 0x4 PUSH2 0x3670 JUMP JUMPDEST PUSH1 0x2 PUSH1 0x20 SWAP1 DUP2 MSTORE PUSH1 0x0 SWAP3 DUP4 MSTORE PUSH1 0x40 DUP1 DUP5 KECCAK256 SWAP1 SWAP2 MSTORE SWAP1 DUP3 MSTORE SWAP1 KECCAK256 SLOAD DUP2 JUMP JUMPDEST PUSH2 0x276 PUSH2 0x672 CALLDATASIZE PUSH1 0x4 PUSH2 0x309B JUMP JUMPDEST PUSH2 0x2B74 JUMP JUMPDEST PUSH1 0xB SLOAD PUSH2 0x2B1 SWAP1 PUSH1 0x1 PUSH1 0x1 PUSH1 0xA0 SHL SUB AND DUP2 JUMP JUMPDEST PUSH2 0x276 PUSH2 0x698 CALLDATASIZE PUSH1 0x4 PUSH2 0x30F8 JUMP JUMPDEST PUSH2 0x2C29 JUMP JUMPDEST PUSH2 0x396 PUSH2 0x6AB CALLDATASIZE PUSH1 0x4 PUSH2 0x3167 JUMP JUMPDEST PUSH1 0x1 PUSH1 0x1 PUSH1 0xA0 SHL SUB AND PUSH1 0x0 SWAP1 DUP2 MSTORE PUSH1 0x9 PUSH1 0x20 MSTORE PUSH1 0x40 SWAP1 KECCAK256 SLOAD PUSH3 0x10000 SWAP1 DIV PUSH1 0xFF AND SWAP1 JUMP JUMPDEST PUSH2 0x396 PUSH2 0x6DD CALLDATASIZE PUSH1 0x4 PUSH2 0x3167 JUMP JUMPDEST PUSH1 0x1 PUSH1 0x1 PUSH1 0xA0 SHL SUB AND PUSH1 0x0 SWAP1 DUP2 MSTORE PUSH1 0x9 PUSH1 0x20 MSTORE PUSH1 0x40 SWAP1 KECCAK256 SLOAD PUSH2 0x100 SWAP1 DIV PUSH1 0xFF AND SWAP1 JUMP JUMPDEST PUSH1 0xD SLOAD PUSH1 0x1 PUSH1 0x1 PUSH1 0xA0 SHL SUB AND CALLER EQ PUSH2 0x773 JUMPI PUSH1 0x40 MLOAD PUSH3 0x461BCD PUSH1 0xE5 SHL DUP2 MSTORE PUSH1 0x20 PUSH1 0x4 DUP3 ADD MSTORE PUSH1 0x39 PUSH1 0x24 DUP3 ADD MSTORE PUSH1 0x0 DUP1 MLOAD PUSH1 0x20 PUSH2 0x3D61 DUP4 CODECOPY DUP2 MLOAD SWAP2 MSTORE PUSH1 0x44 DUP3 ADD MSTORE PUSH32 0x6E6765204F6E626F617264205175657565722073746174757300000000000000 PUSH1 0x64 DUP3 ADD MSTORE PUSH1 0x84 ADD JUMPDEST PUSH1 0x40 MLOAD DUP1 SWAP2 SUB SWAP1 REVERT JUMPDEST PUSH1 0x1 PUSH1 0x1 PUSH1 0xA0 SHL SUB SWAP1 SWAP2 AND PUSH1 0x0 SWAP1 DUP2 MSTORE PUSH1 0x9 PUSH1 0x20 MSTORE PUSH1 0x40 SWAP1 KECCAK256 DUP1 SLOAD SWAP2 ISZERO ISZERO PUSH6 0x10000000000 MUL PUSH6 0xFF0000000000 NOT SWAP1 SWAP3 AND SWAP2 SWAP1 SWAP2 OR SWAP1 SSTORE JUMP JUMPDEST PUSH1 0x0 DUP2 PUSH1 0x40 MLOAD PUSH1 0x20 ADD PUSH2 0x7BF SWAP2 SWAP1 PUSH2 0x369E JUMP JUMPDEST PUSH1 0x40 DUP1 MLOAD PUSH1 0x1F NOT DUP2 DUP5 SUB ADD DUP2 MSTORE SWAP1 DUP3 SWAP1 MSTORE PUSH1 0xF SLOAD PUSH4 0x333F6111 PUSH1 0xE0 SHL DUP4 MSTORE SWAP1 SWAP3 POP PUSH1 0x0 SWAP2 PUSH1 0x1 PUSH1 0x1 PUSH1 0xA0 SHL SUB SWAP1 SWAP2 AND SWAP1 PUSH4 0x333F6111 SWAP1 PUSH2 0x809 SWAP1 DUP10 SWAP1 DUP10 SWAP1 DUP10 SWAP1 DUP9 SWAP1 PUSH1 0x4 ADD PUSH2 0x36E4 JUMP JUMPDEST PUSH1 0x20 PUSH1 0x40 MLOAD DUP1 DUP4 SUB DUP2 PUSH1 0x0 DUP8 GAS CALL ISZERO DUP1 ISZERO PUSH2 0x828 JUMPI RETURNDATASIZE PUSH1 0x0 DUP1 RETURNDATACOPY RETURNDATASIZE PUSH1 0x0 REVERT JUMPDEST POP POP POP POP PUSH1 0x40 MLOAD RETURNDATASIZE PUSH1 0x1F NOT PUSH1 0x1F DUP3 ADD AND DUP3 ADD DUP1 PUSH1 0x40 MSTORE POP DUP2 ADD SWAP1 PUSH2 0x84C SWAP2 SWAP1 PUSH2 0x37C5 JUMP JUMPDEST SWAP1 POP DUP1 PUSH2 0x8C1 JUMPI PUSH1 0x40 MLOAD PUSH3 0x461BCD PUSH1 0xE5 SHL DUP2 MSTORE PUSH1 0x20 PUSH1 0x4 DUP3 ADD MSTORE PUSH1 0x39 PUSH1 0x24 DUP3 ADD MSTORE PUSH32 0x417574686F72697A6174696F6E206661696C656420666F72207570646174696E PUSH1 0x44 DUP3 ADD MSTORE PUSH32 0x67204F6E72616D7020636F6E7472616374206164647265737300000000000000 PUSH1 0x64 DUP3 ADD MSTORE PUSH1 0x84 ADD PUSH2 0x76A JUMP JUMPDEST POP POP CALLER PUSH1 0x0 SWAP1 DUP2 MSTORE PUSH1 0x5 PUSH1 0x20 MSTORE PUSH1 0x40 SWAP1 KECCAK256 DUP1 SLOAD PUSH1 0x1 PUSH1 0x1 PUSH1 0xA0 SHL SUB NOT AND PUSH1 0x1 PUSH1 0x1 PUSH1 0xA0 SHL SUB SWAP3 SWAP1 SWAP3 AND SWAP2 SWAP1 SWAP2 OR SWAP1 SSTORE PUSH1 0x10 SSTORE POP POP JUMP JUMPDEST PUSH1 0xD SLOAD PUSH1 0x1 PUSH1 0x1 PUSH1 0xA0 SHL SUB AND CALLER EQ PUSH2 0x965 JUMPI PUSH1 0x40 MLOAD PUSH3 0x461BCD PUSH1 0xE5 SHL DUP2 MSTORE PUSH1 0x20 PUSH1 0x4 DUP3 ADD MSTORE PUSH1 0x2B PUSH1 0x24 DUP3 ADD MSTORE PUSH32 0x4F6E6C7920746865206F6E72616D7020636F6E74726163742063616E2064656C PUSH1 0x44 DUP3 ADD MSTORE PUSH11 0x65746520706C6179657273 PUSH1 0xA8 SHL PUSH1 0x64 DUP3 ADD MSTORE PUSH1 0x84 ADD PUSH2 0x76A JUMP JUMPDEST PUSH1 0x1 PUSH1 0x1 PUSH1 0xA0 SHL SUB DUP2 AND PUSH1 0x0 SWAP1 DUP2 MSTORE PUSH1 0x9 PUSH1 0x20 MSTORE PUSH1 0x40 DUP2 KECCAK256 DUP1 SLOAD PUSH7 0xFFFFFFFFFFFFFF NOT AND DUP2 SSTORE SWAP1 PUSH2 0x999 PUSH1 0x1 DUP4 ADD DUP3 PUSH2 0x3022 JUMP JUMPDEST PUSH1 0x2 DUP3 ADD PUSH1 0x0 SWAP1 SSTORE PUSH1 0x3 DUP3 ADD PUSH1 0x0 PUSH2 0x9B1 SWAP2 SWAP1 PUSH2 0x3022 JUMP JUMPDEST POP PUSH1 0x4 DUP2 ADD DUP1 SLOAD PUSH1 0x1 PUSH1 0x1 PUSH1 0xA0 SHL SUB NOT AND SWAP1 SSTORE PUSH1 0x0 PUSH1 0x5 DUP3 ADD DUP2 SWAP1 SSTORE PUSH1 0x6 SWAP1 SWAP2 ADD DUP2 SWAP1 SSTORE JUMPDEST PUSH1 0xA SLOAD DUP2 LT ISZERO PUSH2 0xADA JUMPI DUP2 PUSH1 0x1 PUSH1 0x1 PUSH1 0xA0 SHL SUB AND PUSH1 0xA DUP3 DUP2 SLOAD DUP2 LT PUSH2 0x9FD JUMPI PUSH2 0x9FD PUSH2 0x37E2 JUMP JUMPDEST PUSH1 0x0 SWAP2 DUP3 MSTORE PUSH1 0x20 SWAP1 SWAP2 KECCAK256 ADD SLOAD PUSH1 0x1 PUSH1 0x1 PUSH1 0xA0 SHL SUB AND SUB PUSH2 0xAC8 JUMPI PUSH1 0xA DUP1 SLOAD PUSH2 0xA27 SWAP1 PUSH1 0x1 SWAP1 PUSH2 0x380E JUMP JUMPDEST DUP2 SLOAD DUP2 LT PUSH2 0xA37 JUMPI PUSH2 0xA37 PUSH2 0x37E2 JUMP JUMPDEST PUSH1 0x0 SWAP2 DUP3 MSTORE PUSH1 0x20 SWAP1 SWAP2 KECCAK256 ADD SLOAD PUSH1 0xA DUP1 SLOAD PUSH1 0x1 PUSH1 0x1 PUSH1 0xA0 SHL SUB SWAP1 SWAP3 AND SWAP2 DUP4 SWAP1 DUP2 LT PUSH2 0xA63 JUMPI PUSH2 0xA63 PUSH2 0x37E2 JUMP JUMPDEST SWAP1 PUSH1 0x0 MSTORE PUSH1 0x20 PUSH1 0x0 KECCAK256 ADD PUSH1 0x0 PUSH2 0x100 EXP DUP2 SLOAD DUP2 PUSH1 0x1 PUSH1 0x1 PUSH1 0xA0 SHL SUB MUL NOT AND SWAP1 DUP4 PUSH1 0x1 PUSH1 0x1 PUSH1 0xA0 SHL SUB AND MUL OR SWAP1 SSTORE POP PUSH1 0xA DUP1 SLOAD DUP1 PUSH2 0xAA2 JUMPI PUSH2 0xAA2 PUSH2 0x3821 JUMP JUMPDEST PUSH1 0x0 DUP3 DUP2 MSTORE PUSH1 0x20 SWAP1 KECCAK256 DUP2 ADD PUSH1 0x0 NOT SWAP1 DUP2 ADD DUP1 SLOAD PUSH1 0x1 PUSH1 0x1 PUSH1 0xA0 SHL SUB NOT AND SWAP1 SSTORE ADD SWAP1 SSTORE POP POP JUMP JUMPDEST DUP1 PUSH2 0xAD2 DUP2 PUSH2 0x3837 JUMP JUMPDEST SWAP2 POP POP PUSH2 0x9D6 JUMP JUMPDEST POP POP JUMP JUMPDEST PUSH1 0xA DUP2 DUP2 SLOAD DUP2 LT PUSH2 0xAEE JUMPI PUSH1 0x0 DUP1 REVERT JUMPDEST PUSH1 0x0 SWAP2 DUP3 MSTORE PUSH1 0x20 SWAP1 SWAP2 KECCAK256 ADD SLOAD PUSH1 0x1 PUSH1 0x1 PUSH1 0xA0 SHL SUB AND SWAP1 POP DUP2 JUMP JUMPDEST PUSH1 0xE SLOAD PUSH1 0x1 PUSH1 0x1 PUSH1 0xA0 SHL SUB AND CALLER EQ PUSH2 0xB74 JUMPI PUSH1 0x40 MLOAD PUSH3 0x461BCD PUSH1 0xE5 SHL DUP2 MSTORE PUSH1 0x20 PUSH1 0x4 DUP3 ADD MSTORE PUSH1 0x29 PUSH1 0x24 DUP3 ADD MSTORE PUSH32 0x4F6E6C792074686520666F72756D20636F6E74726163742063616E2073657420 PUSH1 0x44 DUP3 ADD MSTORE PUSH9 0x666F72756D206B6579 PUSH1 0xB8 SHL PUSH1 0x64 DUP3 ADD MSTORE PUSH1 0x84 ADD PUSH2 0x76A JUMP JUMPDEST PUSH1 0x1 PUSH1 0x1 PUSH1 0xA0 SHL SUB SWAP1 SWAP2 AND PUSH1 0x0 SWAP1 DUP2 MSTORE PUSH1 0x9 PUSH1 0x20 MSTORE PUSH1 0x40 SWAP1 KECCAK256 PUSH1 0x2 ADD SSTORE JUMP JUMPDEST PUSH1 0x0 DUP2 PUSH1 0x40 MLOAD PUSH1 0x20 ADD PUSH2 0xBA6 SWAP2 SWAP1 PUSH2 0x369E JUMP JUMPDEST PUSH1 0x40 DUP1 MLOAD DUP1 DUP4 SUB PUSH1 0x1F NOT ADD DUP2 MSTORE SWAP2 DUP2 MSTORE CALLER PUSH1 0x0 SWAP1 DUP2 MSTORE PUSH1 0x5 PUSH1 0x20 MSTORE KECCAK256 SLOAD SWAP1 SWAP2 POP PUSH1 0x1 PUSH1 0x1 PUSH1 0xA0 SHL SUB DUP4 DUP2 AND SWAP2 AND EQ PUSH2 0xC30 JUMPI PUSH1 0x40 MLOAD PUSH3 0x461BCD PUSH1 0xE5 SHL DUP2 MSTORE PUSH1 0x20 PUSH1 0x4 DUP3 ADD MSTORE PUSH1 0x27 PUSH1 0x24 DUP3 ADD MSTORE PUSH32 0x4F6E72616D7020636F6E7472616374206164647265737320757064617465206D PUSH1 0x44 DUP3 ADD MSTORE PUSH7 0xD2E6DAC2E8C6D PUSH1 0xCB SHL PUSH1 0x64 DUP3 ADD MSTORE PUSH1 0x84 ADD PUSH2 0x76A JUMP JUMPDEST PUSH1 0x0 DUP6 PUSH1 0x40 MLOAD PUSH1 0x20 ADD PUSH2 0xC43 SWAP2 SWAP1 PUSH2 0x3850 JUMP JUMPDEST PUSH1 0x40 MLOAD PUSH1 0x20 DUP2 DUP4 SUB SUB DUP2 MSTORE SWAP1 PUSH1 0x40 MSTORE DUP1 MLOAD SWAP1 PUSH1 0x20 ADD KECCAK256 SWAP1 POP DUP1 PUSH1 0x10 SLOAD SUB PUSH2 0xC7C JUMPI PUSH1 0x40 MLOAD PUSH3 0x461BCD PUSH1 0xE5 SHL DUP2 MSTORE PUSH1 0x4 ADD PUSH2 0x76A SWAP1 PUSH2 0x3887 JUMP JUMPDEST PUSH1 0xF SLOAD PUSH1 0x40 MLOAD PUSH4 0x333F6111 PUSH1 0xE0 SHL DUP2 MSTORE PUSH1 0x0 SWAP2 PUSH1 0x1 PUSH1 0x1 PUSH1 0xA0 SHL SUB AND SWAP1 PUSH4 0x333F6111 SWAP1 PUSH2 0xCB3 SWAP1 DUP11 SWAP1 DUP11 SWAP1 DUP11 SWAP1 DUP10 SWAP1 PUSH1 0x4 ADD PUSH2 0x36E4 JUMP JUMPDEST PUSH1 0x20 PUSH1 0x40 MLOAD DUP1 DUP4 SUB DUP2 PUSH1 0x0 DUP8 GAS CALL ISZERO DUP1 ISZERO PUSH2 0xCD2 JUMPI RETURNDATASIZE PUSH1 0x0 DUP1 RETURNDATACOPY RETURNDATASIZE PUSH1 0x0 REVERT JUMPDEST POP POP POP POP PUSH1 0x40 MLOAD RETURNDATASIZE PUSH1 0x1F NOT PUSH1 0x1F DUP3 ADD AND DUP3 ADD DUP1 PUSH1 0x40 MSTORE POP DUP2 ADD SWAP1 PUSH2 0xCF6 SWAP2 SWAP1 PUSH2 0x37C5 JUMP JUMPDEST SWAP1 POP DUP1 PUSH2 0xD7A JUMPI PUSH1 0x40 MLOAD PUSH3 0x461BCD PUSH1 0xE5 SHL DUP2 MSTORE PUSH1 0x20 PUSH1 0x4 DUP3 ADD MSTORE PUSH1 0x46 PUSH1 0x24 DUP3 ADD MSTORE PUSH32 0x417574686F72697A6174696F6E206661696C6564206F6E20636F6E6669726D61 PUSH1 0x44 DUP3 ADD MSTORE PUSH32 0x74696F6E206F66204F6E72616D7020636F6E7472616374206164647265737320 PUSH1 0x64 DUP3 ADD MSTORE PUSH6 0x757064617465 PUSH1 0xD0 SHL PUSH1 0x84 DUP3 ADD MSTORE PUSH1 0xA4 ADD PUSH2 0x76A JUMP JUMPDEST PUSH1 0xD DUP1 SLOAD PUSH1 0x1 PUSH1 0x1 PUSH1 0xA0 SHL SUB NOT AND PUSH1 0x1 PUSH1 0x1 PUSH1 0xA0 SHL SUB DUP7 AND SWAP1 DUP2 OR SWAP1 SWAP2 SSTORE PUSH1 0x40 MLOAD PUSH32 0x5959E7554218ADBE3EDB157F744A698C903698E2BE92D199D2938AFB8B0312AB SWAP1 PUSH1 0x0 SWAP1 LOG2 POP POP CALLER PUSH1 0x0 SWAP1 DUP2 MSTORE PUSH1 0x5 PUSH1 0x20 MSTORE PUSH1 0x40 DUP2 KECCAK256 DUP1 SLOAD PUSH1 0x1 PUSH1 0x1 PUSH1 0xA0 SHL SUB NOT AND SWAP1 SSTORE PUSH1 0x10 SSTORE POP POP POP POP POP JUMP JUMPDEST PUSH1 0x0 DUP2 PUSH1 0x40 MLOAD PUSH1 0x20 ADD PUSH2 0xDFD SWAP2 SWAP1 PUSH2 0x369E JUMP JUMPDEST PUSH1 0x40 DUP1 MLOAD PUSH1 0x1F NOT DUP2 DUP5 SUB ADD DUP2 MSTORE SWAP1 DUP3 SWAP1 MSTORE PUSH1 0xF SLOAD PUSH4 0x333F6111 PUSH1 0xE0 SHL DUP4 MSTORE SWAP1 SWAP3 POP PUSH1 0x0 SWAP2 PUSH1 0x1 PUSH1 0x1 PUSH1 0xA0 SHL SUB SWAP1 SWAP2 AND SWAP1 PUSH4 0x333F6111 SWAP1 PUSH2 0xE47 SWAP1 DUP10 SWAP1 DUP10 SWAP1 DUP10 SWAP1 DUP9 SWAP1 PUSH1 0x4 ADD PUSH2 0x36E4 JUMP JUMPDEST PUSH1 0x20 PUSH1 0x40 MLOAD DUP1 DUP4 SUB DUP2 PUSH1 0x0 DUP8 GAS CALL ISZERO DUP1 ISZERO PUSH2 0xE66 JUMPI RETURNDATASIZE PUSH1 0x0 DUP1 RETURNDATACOPY RETURNDATASIZE PUSH1 0x0 REVERT JUMPDEST POP POP POP POP PUSH1 0x40 MLOAD RETURNDATASIZE PUSH1 0x1F NOT PUSH1 0x1F DUP3 ADD AND DUP3 ADD DUP1 PUSH1 0x40 MSTORE POP DUP2 ADD SWAP1 PUSH2 0xE8A SWAP2 SWAP1 PUSH2 0x37C5 JUMP JUMPDEST SWAP1 POP DUP1 PUSH2 0xEFF JUMPI PUSH1 0x40 MLOAD PUSH3 0x461BCD PUSH1 0xE5 SHL DUP2 MSTORE PUSH1 0x20 PUSH1 0x4 DUP3 ADD MSTORE PUSH1 0x3A PUSH1 0x24 DUP3 ADD MSTORE PUSH32 0x417574686F72697A6174696F6E206661696C656420666F722070726F706F7365 PUSH1 0x44 DUP3 ADD MSTORE PUSH32 0x642047616D6556616C20636F6E74726163742061646472657373000000000000 PUSH1 0x64 DUP3 ADD MSTORE PUSH1 0x84 ADD PUSH2 0x76A JUMP JUMPDEST POP POP CALLER PUSH1 0x0 SWAP1 DUP2 MSTORE PUSH1 0x4 PUSH1 0x20 MSTORE PUSH1 0x40 SWAP1 KECCAK256 DUP1 SLOAD PUSH1 0x1 PUSH1 0x1 PUSH1 0xA0 SHL SUB NOT AND PUSH1 0x1 PUSH1 0x1 PUSH1 0xA0 SHL SUB SWAP3 SWAP1 SWAP3 AND SWAP2 SWAP1 SWAP2 OR SWAP1 SSTORE PUSH1 0x10 SSTORE POP POP JUMP JUMPDEST PUSH1 0xE SLOAD PUSH1 0x1 PUSH1 0x1 PUSH1 0xA0 SHL SUB AND CALLER EQ PUSH2 0xFAB JUMPI PUSH1 0x40 MLOAD PUSH3 0x461BCD PUSH1 0xE5 SHL DUP2 MSTORE PUSH1 0x20 PUSH1 0x4 DUP3 ADD MSTORE PUSH1 0x33 PUSH1 0x24 DUP3 ADD MSTORE PUSH32 0x4F6E6C792074686520666F72756D20636F6E74726163742063616E206D6F6469 PUSH1 0x44 DUP3 ADD MSTORE PUSH19 0x6679206D6F64657261746F7220737461747573 PUSH1 0x68 SHL PUSH1 0x64 DUP3 ADD MSTORE PUSH1 0x84 ADD PUSH2 0x76A JUMP JUMPDEST PUSH1 0x1 PUSH1 0x1 PUSH1 0xA0 SHL SUB SWAP1 SWAP2 AND PUSH1 0x0 SWAP1 DUP2 MSTORE PUSH1 0x9 PUSH1 0x20 MSTORE PUSH1 0x40 SWAP1 KECCAK256 DUP1 SLOAD SWAP2 ISZERO ISZERO PUSH3 0x10000 MUL PUSH3 0xFF0000 NOT SWAP1 SWAP3 AND SWAP2 SWAP1 SWAP2 OR SWAP1 SSTORE JUMP JUMPDEST PUSH1 0x0 DUP2 PUSH1 0x40 MLOAD PUSH1 0x20 ADD PUSH2 0xFF1 SWAP2 SWAP1 PUSH2 0x369E JUMP JUMPDEST PUSH1 0x40 DUP1 MLOAD PUSH1 0x1F NOT DUP2 DUP5 SUB ADD DUP2 MSTORE SWAP1 DUP3 SWAP1 MSTORE PUSH1 0xF SLOAD PUSH4 0x333F6111 PUSH1 0xE0 SHL DUP4 MSTORE SWAP1 SWAP3 POP PUSH1 0x0 SWAP2 PUSH1 0x1 PUSH1 0x1 PUSH1 0xA0 SHL SUB SWAP1 SWAP2 AND SWAP1 PUSH4 0x333F6111 SWAP1 PUSH2 0x103B SWAP1 DUP10 SWAP1 DUP10 SWAP1 DUP10 SWAP1 DUP9 SWAP1 PUSH1 0x4 ADD PUSH2 0x36E4 JUMP JUMPDEST PUSH1 0x20 PUSH1 0x40 MLOAD DUP1 DUP4 SUB DUP2 PUSH1 0x0 DUP8 GAS CALL ISZERO DUP1 ISZERO PUSH2 0x105A JUMPI RETURNDATASIZE PUSH1 0x0 DUP1 RETURNDATACOPY RETURNDATASIZE PUSH1 0x0 REVERT JUMPDEST POP POP POP POP PUSH1 0x40 MLOAD RETURNDATASIZE PUSH1 0x1F NOT PUSH1 0x1F DUP3 ADD AND DUP3 ADD DUP1 PUSH1 0x40 MSTORE POP DUP2 ADD SWAP1 PUSH2 0x107E SWAP2 SWAP1 PUSH2 0x37C5 JUMP JUMPDEST SWAP1 POP DUP1 PUSH2 0x10FE JUMPI PUSH1 0x40 MLOAD PUSH3 0x461BCD PUSH1 0xE5 SHL DUP2 MSTORE PUSH1 0x20 PUSH1 0x4 DUP3 ADD MSTORE PUSH1 0x42 PUSH1 0x24 DUP3 ADD MSTORE PUSH32 0x417574686F72697A6174696F6E206661696C656420666F722070726F706F7365 PUSH1 0x44 DUP3 ADD MSTORE PUSH32 0x6420757064617465206F6620466F72756D20636F6E7472616374206164647265 PUSH1 0x64 DUP3 ADD MSTORE PUSH2 0x7373 PUSH1 0xF0 SHL PUSH1 0x84 DUP3 ADD MSTORE PUSH1 0xA4 ADD PUSH2 0x76A JUMP JUMPDEST POP POP CALLER PUSH1 0x0 SWAP1 DUP2 MSTORE PUSH1 0x6 PUSH1 0x20 MSTORE PUSH1 0x40 SWAP1 KECCAK256 DUP1 SLOAD PUSH1 0x1 PUSH1 0x1 PUSH1 0xA0 SHL SUB NOT AND PUSH1 0x1 PUSH1 0x1 PUSH1 0xA0 SHL SUB SWAP3 SWAP1 SWAP3 AND SWAP2 SWAP1 SWAP2 OR SWAP1 SSTORE PUSH1 0x10 SSTORE POP POP JUMP JUMPDEST PUSH1 0xD SLOAD PUSH1 0x1 PUSH1 0x1 PUSH1 0xA0 SHL SUB AND CALLER EQ PUSH2 0x11A6 JUMPI PUSH1 0x40 MLOAD PUSH3 0x461BCD PUSH1 0xE5 SHL DUP2 MSTORE PUSH1 0x20 PUSH1 0x4 DUP3 ADD MSTORE PUSH1 0x2F PUSH1 0x24 DUP3 ADD MSTORE PUSH32 0x4F6E6C7920746865206F6E72616D7020636F6E74726163742063616E20616464 PUSH1 0x44 DUP3 ADD MSTORE PUSH15 0x2F75706461746520706C6179657273 PUSH1 0x88 SHL PUSH1 0x64 DUP3 ADD MSTORE PUSH1 0x84 ADD PUSH2 0x76A JUMP JUMPDEST PUSH1 0xC SLOAD PUSH1 0x40 MLOAD PUSH4 0x3AF32ABF PUSH1 0xE0 SHL DUP2 MSTORE PUSH1 0x1 PUSH1 0x1 PUSH1 0xA0 SHL SUB DUP9 DUP2 AND PUSH1 0x4 DUP4 ADD MSTORE SWAP1 SWAP2 AND SWAP1 PUSH4 0x3AF32ABF SWAP1 PUSH1 0x24 ADD PUSH1 0x20 PUSH1 0x40 MLOAD DUP1 DUP4 SUB DUP2 DUP7 GAS STATICCALL ISZERO DUP1 ISZERO PUSH2 0x11F0 JUMPI RETURNDATASIZE PUSH1 0x0 DUP1 RETURNDATACOPY RETURNDATASIZE PUSH1 0x0 REVERT JUMPDEST POP POP POP POP PUSH1 0x40 MLOAD RETURNDATASIZE PUSH1 0x1F NOT PUSH1 0x1F DUP3 ADD AND DUP3 ADD DUP1 PUSH1 0x40 MSTORE POP DUP2 ADD SWAP1 PUSH2 0x1214 SWAP2 SWAP1 PUSH2 0x37C5 JUMP JUMPDEST PUSH2 0x126A JUMPI PUSH1 0x40 MLOAD PUSH3 0x461BCD PUSH1 0xE5 SHL DUP2 MSTORE PUSH1 0x20 PUSH1 0x4 DUP3 ADD MSTORE PUSH1 0x21 PUSH1 0x24 DUP3 ADD MSTORE PUSH32 0x41646472657373206E6F742077686974656C697374656420696E20416E6F6E49 PUSH1 0x44 DUP3 ADD MSTORE PUSH1 0x11 PUSH1 0xFA SHL PUSH1 0x64 DUP3 ADD MSTORE PUSH1 0x84 ADD PUSH2 0x76A JUMP JUMPDEST PUSH1 0x1 PUSH1 0x1 PUSH1 0xA0 SHL SUB DUP7 AND PUSH1 0x0 SWAP1 DUP2 MSTORE PUSH1 0x9 PUSH1 0x20 MSTORE PUSH1 0x40 SWAP1 KECCAK256 DUP1 SLOAD PUSH1 0xFF AND ISZERO PUSH2 0x131A JUMPI PUSH1 0x3 DUP2 ADD PUSH2 0x129A DUP8 DUP3 PUSH2 0x3971 JUMP JUMPDEST POP PUSH1 0x1 DUP2 ADD PUSH2 0x12A9 DUP7 DUP3 PUSH2 0x3971 JUMP JUMPDEST POP PUSH1 0x1 PUSH1 0x1 PUSH1 0xA0 SHL SUB DUP3 AND ISZERO PUSH2 0x12DB JUMPI PUSH1 0x4 DUP2 ADD DUP1 SLOAD PUSH1 0x1 PUSH1 0x1 PUSH1 0xA0 SHL SUB NOT AND PUSH1 0x1 PUSH1 0x1 PUSH1 0xA0 SHL SUB DUP5 AND OR SWAP1 SSTORE PUSH2 0x12F9 JUMP JUMPDEST PUSH1 0x4 DUP2 ADD DUP1 SLOAD PUSH1 0x1 PUSH1 0x1 PUSH1 0xA0 SHL SUB NOT AND PUSH1 0x1 PUSH1 0x1 PUSH1 0xA0 SHL SUB DUP10 AND OR SWAP1 SSTORE JUMPDEST DUP4 ISZERO PUSH2 0x1307 JUMPI PUSH1 0x5 DUP2 ADD DUP5 SWAP1 SSTORE JUMPDEST DUP3 ISZERO PUSH2 0x1315 JUMPI PUSH1 0x6 DUP2 ADD DUP4 SWAP1 SSTORE JUMPDEST PUSH2 0x15C0 JUMP JUMPDEST DUP4 ISZERO ISZERO DUP1 PUSH2 0x1327 JUMPI POP DUP3 ISZERO ISZERO JUMPDEST PUSH2 0x138B JUMPI PUSH1 0x40 MLOAD PUSH3 0x461BCD PUSH1 0xE5 SHL DUP2 MSTORE PUSH1 0x20 PUSH1 0x4 DUP3 ADD MSTORE PUSH1 0x2F PUSH1 0x24 DUP3 ADD MSTORE PUSH32 0x4F7261636C65206B657920696E6465782063616E6E6F74206265207A65726F20 PUSH1 0x44 DUP3 ADD MSTORE PUSH15 0x666F72206E657720706C6179657273 PUSH1 0x88 SHL PUSH1 0x64 DUP3 ADD MSTORE PUSH1 0x84 ADD PUSH2 0x76A JUMP JUMPDEST PUSH1 0x40 MLOAD DUP1 PUSH2 0x1A0 ADD PUSH1 0x40 MSTORE DUP1 PUSH1 0x1 ISZERO ISZERO DUP2 MSTORE PUSH1 0x20 ADD PUSH1 0x0 ISZERO ISZERO DUP2 MSTORE PUSH1 0x20 ADD PUSH1 0x0 ISZERO ISZERO DUP2 MSTORE PUSH1 0x20 ADD PUSH1 0x0 ISZERO ISZERO DUP2 MSTORE PUSH1 0x20 ADD PUSH1 0x0 ISZERO ISZERO DUP2 MSTORE PUSH1 0x20 ADD PUSH1 0x0 ISZERO ISZERO DUP2 MSTORE PUSH1 0x20 ADD PUSH1 0x0 ISZERO ISZERO DUP2 MSTORE PUSH1 0x20 ADD DUP7 DUP2 MSTORE PUSH1 0x20 ADD PUSH1 0x0 DUP1 SHL DUP2 MSTORE PUSH1 0x20 ADD DUP8 DUP2 MSTORE PUSH1 0x20 ADD DUP9 PUSH1 0x1 PUSH1 0x1 PUSH1 0xA0 SHL SUB AND DUP2 MSTORE PUSH1 0x20 ADD DUP6 DUP2 MSTORE PUSH1 0x20 ADD DUP5 DUP2 MSTORE POP PUSH1 0x9 PUSH1 0x0 DUP10 PUSH1 0x1 PUSH1 0x1 PUSH1 0xA0 SHL SUB AND PUSH1 0x1 PUSH1 0x1 PUSH1 0xA0 SHL SUB AND DUP2 MSTORE PUSH1 0x20 ADD SWAP1 DUP2 MSTORE PUSH1 0x20 ADD PUSH1 0x0 KECCAK256 PUSH1 0x0 DUP3 ADD MLOAD DUP2 PUSH1 0x0 ADD PUSH1 0x0 PUSH2 0x100 EXP DUP2 SLOAD DUP2 PUSH1 0xFF MUL NOT AND SWAP1 DUP4 ISZERO ISZERO MUL OR SWAP1 SSTORE POP PUSH1 0x20 DUP3 ADD MLOAD DUP2 PUSH1 0x0 ADD PUSH1 0x1 PUSH2 0x100 EXP DUP2 SLOAD DUP2 PUSH1 0xFF MUL NOT AND SWAP1 DUP4 ISZERO ISZERO MUL OR SWAP1 SSTORE POP PUSH1 0x40 DUP3 ADD MLOAD DUP2 PUSH1 0x0 ADD PUSH1 0x2 PUSH2 0x100 EXP DUP2 SLOAD DUP2 PUSH1 0xFF MUL NOT AND SWAP1 DUP4 ISZERO ISZERO MUL OR SWAP1 SSTORE POP PUSH1 0x60 DUP3 ADD MLOAD DUP2 PUSH1 0x0 ADD PUSH1 0x3 PUSH2 0x100 EXP DUP2 SLOAD DUP2 PUSH1 0xFF MUL NOT AND SWAP1 DUP4 ISZERO ISZERO MUL OR SWAP1 SSTORE POP PUSH1 0x80 DUP3 ADD MLOAD DUP2 PUSH1 0x0 ADD PUSH1 0x4 PUSH2 0x100 EXP DUP2 SLOAD DUP2 PUSH1 0xFF MUL NOT AND SWAP1 DUP4 ISZERO ISZERO MUL OR SWAP1 SSTORE POP PUSH1 0xA0 DUP3 ADD MLOAD DUP2 PUSH1 0x0 ADD PUSH1 0x5 PUSH2 0x100 EXP DUP2 SLOAD DUP2 PUSH1 0xFF MUL NOT AND SWAP1 DUP4 ISZERO ISZERO MUL OR SWAP1 SSTORE POP PUSH1 0xC0 DUP3 ADD MLOAD DUP2 PUSH1 0x0 ADD PUSH1 0x6 PUSH2 0x100 EXP DUP2 SLOAD DUP2 PUSH1 0xFF MUL NOT AND SWAP1 DUP4 ISZERO ISZERO MUL OR SWAP1 SSTORE POP PUSH1 0xE0 DUP3 ADD MLOAD DUP2 PUSH1 0x1 ADD SWAP1 DUP2 PUSH2 0x151E SWAP2 SWAP1 PUSH2 0x3971 JUMP JUMPDEST POP PUSH2 0x100 DUP3 ADD MLOAD PUSH1 0x2 DUP3 ADD SSTORE PUSH2 0x120 DUP3 ADD MLOAD PUSH1 0x3 DUP3 ADD SWAP1 PUSH2 0x153F SWAP1 DUP3 PUSH2 0x3971 JUMP JUMPDEST POP PUSH2 0x140 DUP3 ADD MLOAD PUSH1 0x4 DUP3 ADD DUP1 SLOAD PUSH1 0x1 PUSH1 0x1 PUSH1 0xA0 SHL SUB NOT SWAP1 DUP2 AND PUSH1 0x1 PUSH1 0x1 PUSH1 0xA0 SHL SUB SWAP4 DUP5 AND OR SWAP1 SWAP2 SSTORE PUSH2 0x160 DUP5 ADD MLOAD PUSH1 0x5 DUP5 ADD SSTORE PUSH2 0x180 SWAP1 SWAP4 ADD MLOAD PUSH1 0x6 SWAP1 SWAP3 ADD SWAP2 SWAP1 SWAP2 SSTORE PUSH1 0xA DUP1 SLOAD PUSH1 0x1 DUP2 ADD DUP3 SSTORE PUSH1 0x0 SWAP2 SWAP1 SWAP2 MSTORE PUSH32 0xC65A7BB8D6351C1CF70C95A316CC6A92839C986682D98BC35F958F4883F9D2A8 ADD DUP1 SLOAD SWAP1 SWAP3 AND SWAP1 DUP10 AND OR SWAP1 SSTORE JUMPDEST POP POP POP POP POP POP POP JUMP JUMPDEST PUSH1 0x1 PUSH1 0x1 PUSH1 0xA0 SHL SUB DUP2 AND PUSH1 0x0 SWAP1 DUP2 MSTORE PUSH1 0x9 PUSH1 0x20 MSTORE PUSH1 0x40 DUP2 KECCAK256 SLOAD DUP2 SWAP1 PUSH1 0xFF AND PUSH2 0x1633 JUMPI PUSH1 0x40 MLOAD PUSH3 0x461BCD PUSH1 0xE5 SHL DUP2 MSTORE PUSH1 0x20 PUSH1 0x4 DUP3 ADD MSTORE PUSH1 0x18 PUSH1 0x24 DUP3 ADD MSTORE PUSH32 0x506C61796572206973206E6F7420726567697374657265640000000000000000 PUSH1 0x44 DUP3 ADD MSTORE PUSH1 0x64 ADD PUSH2 0x76A JUMP JUMPDEST POP POP PUSH1 0x1 PUSH1 0x1 PUSH1 0xA0 SHL SUB AND PUSH1 0x0 SWAP1 DUP2 MSTORE PUSH1 0x9 PUSH1 0x20 MSTORE PUSH1 0x40 SWAP1 KECCAK256 PUSH1 0x5 DUP2 ADD SLOAD PUSH1 0x6 SWAP1 SWAP2 ADD SLOAD SWAP1 SWAP2 JUMP JUMPDEST PUSH1 0xC SLOAD PUSH1 0x40 DUP1 MLOAD PUSH4 0x931742D3 PUSH1 0xE0 SHL DUP2 MSTORE SWAP1 MLOAD PUSH1 0x0 SWAP3 PUSH1 0x1 PUSH1 0x1 PUSH1 0xA0 SHL SUB AND SWAP2 PUSH4 0x931742D3 SWAP2 PUSH1 0x4 DUP1 DUP4 ADD SWAP3 PUSH1 0x20 SWAP3 SWAP2 SWAP1 DUP3 SWAP1 SUB ADD DUP2 DUP7 GAS STATICCALL ISZERO DUP1 ISZERO PUSH2 0x16A5 JUMPI RETURNDATASIZE PUSH1 0x0 DUP1 RETURNDATACOPY RETURNDATASIZE PUSH1 0x0 REVERT JUMPDEST POP POP POP POP PUSH1 0x40 MLOAD RETURNDATASIZE PUSH1 0x1F NOT PUSH1 0x1F DUP3 ADD AND DUP3 ADD DUP1 PUSH1 0x40 MSTORE POP DUP2 ADD SWAP1 PUSH2 0x16C9 SWAP2 SWAP1 PUSH2 0x3A31 JUMP JUMPDEST SWAP1 POP SWAP1 JUMP JUMPDEST PUSH1 0x9 PUSH1 0x20 MSTORE PUSH1 0x0 SWAP1 DUP2 MSTORE PUSH1 0x40 SWAP1 KECCAK256 DUP1 SLOAD PUSH1 0x1 DUP3 ADD DUP1 SLOAD PUSH1 0xFF DUP1 DUP5 AND SWAP5 PUSH2 0x100 DUP6 DIV DUP3 AND SWAP5 PUSH3 0x10000 DUP2 DIV DUP4 AND SWAP5 PUSH4 0x1000000 DUP3 DIV DUP5 AND SWAP5 PUSH5 0x100000000 DUP4 DIV DUP6 AND SWAP5 PUSH6 0x10000000000 DUP5 DIV DUP2 AND SWAP5 PUSH1 0x1 PUSH1 0x30 SHL SWAP1 SWAP5 DIV AND SWAP3 SWAP2 SWAP1 PUSH2 0x1731 SWAP1 PUSH2 0x38EE JUMP JUMPDEST DUP1 PUSH1 0x1F ADD PUSH1 0x20 DUP1 SWAP2 DIV MUL PUSH1 0x20 ADD PUSH1 0x40 MLOAD SWAP1 DUP2 ADD PUSH1 0x40 MSTORE DUP1 SWAP3 SWAP2 SWAP1 DUP2 DUP2 MSTORE PUSH1 0x20 ADD DUP3 DUP1 SLOAD PUSH2 0x175D SWAP1 PUSH2 0x38EE JUMP JUMPDEST DUP1 ISZERO PUSH2 0x17AA JUMPI DUP1 PUSH1 0x1F LT PUSH2 0x177F JUMPI PUSH2 0x100 DUP1 DUP4 SLOAD DIV MUL DUP4 MSTORE SWAP2 PUSH1 0x20 ADD SWAP2 PUSH2 0x17AA JUMP JUMPDEST DUP3 ADD SWAP2 SWAP1 PUSH1 0x0 MSTORE PUSH1 0x20 PUSH1 0x0 KECCAK256 SWAP1 JUMPDEST DUP2 SLOAD DUP2 MSTORE SWAP1 PUSH1 0x1 ADD SWAP1 PUSH1 0x20 ADD DUP1 DUP4 GT PUSH2 0x178D JUMPI DUP3 SWAP1 SUB PUSH1 0x1F AND DUP3 ADD SWAP2 JUMPDEST POP POP POP POP POP SWAP1 DUP1 PUSH1 0x2 ADD SLOAD SWAP1 DUP1 PUSH1 0x3 ADD DUP1 SLOAD PUSH2 0x17C5 SWAP1 PUSH2 0x38EE JUMP JUMPDEST DUP1 PUSH1 0x1F ADD PUSH1 0x20 DUP1 SWAP2 DIV MUL PUSH1 0x20 ADD PUSH1 0x40 MLOAD SWAP1 DUP2 ADD PUSH1 0x40 MSTORE DUP1 SWAP3 SWAP2 SWAP1 DUP2 DUP2 MSTORE PUSH1 0x20 ADD DUP3 DUP1 SLOAD PUSH2 0x17F1 SWAP1 PUSH2 0x38EE JUMP JUMPDEST DUP1 ISZERO PUSH2 0x183E JUMPI DUP1 PUSH1 0x1F LT PUSH2 0x1813 JUMPI PUSH2 0x100 DUP1 DUP4 SLOAD DIV MUL DUP4 MSTORE SWAP2 PUSH1 0x20 ADD SWAP2 PUSH2 0x183E JUMP JUMPDEST DUP3 ADD SWAP2 SWAP1 PUSH1 0x0 MSTORE PUSH1 0x20 PUSH1 0x0 KECCAK256 SWAP1 JUMPDEST DUP2 SLOAD DUP2 MSTORE SWAP1 PUSH1 0x1 ADD SWAP1 PUSH1 0x20 ADD DUP1 DUP4 GT PUSH2 0x1821 JUMPI DUP3 SWAP1 SUB PUSH1 0x1F AND DUP3 ADD SWAP2 JUMPDEST POP POP POP POP PUSH1 0x4 DUP4 ADD SLOAD PUSH1 0x5 DUP5 ADD SLOAD PUSH1 0x6 SWAP1 SWAP5 ADD SLOAD SWAP3 SWAP4 PUSH1 0x1 PUSH1 0x1 PUSH1 0xA0 SHL SUB SWAP1 SWAP2 AND SWAP3 SWAP1 SWAP2 POP DUP14 JUMP JUMPDEST PUSH1 0xC SLOAD PUSH1 0x40 DUP1 MLOAD PUSH4 0x8705D945 PUSH1 0xE0 SHL DUP2 MSTORE SWAP1 MLOAD PUSH1 0x0 SWAP3 PUSH1 0x1 PUSH1 0x1 PUSH1 0xA0 SHL SUB AND SWAP2 PUSH4 0x8705D945 SWAP2 PUSH1 0x4 DUP1 DUP4 ADD SWAP3 PUSH1 0x20 SWAP3 SWAP2 SWAP1 DUP3 SWAP1 SUB ADD DUP2 DUP7 GAS STATICCALL ISZERO DUP1 ISZERO PUSH2 0x18B0 JUMPI RETURNDATASIZE PUSH1 0x0 DUP1 RETURNDATACOPY RETURNDATASIZE PUSH1 0x0 REVERT JUMPDEST POP POP POP POP PUSH1 0x40 MLOAD RETURNDATASIZE PUSH1 0x1F NOT PUSH1 0x1F DUP3 ADD AND DUP3 ADD DUP1 PUSH1 0x40 MSTORE POP DUP2 ADD SWAP1 PUSH2 0x16C9 SWAP2 SWAP1 PUSH2 0x3A4E JUMP JUMPDEST PUSH1 0xD SLOAD PUSH1 0x1 PUSH1 0x1 PUSH1 0xA0 SHL SUB AND CALLER EQ PUSH2 0x1935 JUMPI PUSH1 0x40 MLOAD PUSH3 0x461BCD PUSH1 0xE5 SHL DUP2 MSTORE PUSH1 0x20 PUSH1 0x4 DUP3 ADD MSTORE PUSH1 0x30 PUSH1 0x24 DUP3 ADD MSTORE PUSH1 0x0 DUP1 MLOAD PUSH1 0x20 PUSH2 0x3D61 DUP4 CODECOPY DUP2 MLOAD SWAP2 MSTORE PUSH1 0x44 DUP3 ADD MSTORE PUSH16 0x6E67652041646D696E20737461747573 PUSH1 0x80 SHL PUSH1 0x64 DUP3 ADD MSTORE PUSH1 0x84 ADD PUSH2 0x76A JUMP JUMPDEST PUSH1 0x1 PUSH1 0x1 PUSH1 0xA0 SHL SUB SWAP1 SWAP2 AND PUSH1 0x0 SWAP1 DUP2 MSTORE PUSH1 0x9 PUSH1 0x20 MSTORE PUSH1 0x40 SWAP1 KECCAK256 DUP1 SLOAD SWAP2 ISZERO ISZERO PUSH5 0x100000000 MUL PUSH5 0xFF00000000 NOT SWAP1 SWAP3 AND SWAP2 SWAP1 SWAP2 OR SWAP1 SSTORE JUMP JUMPDEST PUSH1 0xA SLOAD PUSH1 0x60 SWAP1 PUSH1 0x0 SWAP1 PUSH8 0xFFFFFFFFFFFFFFFF DUP2 GT ISZERO PUSH2 0x198D JUMPI PUSH2 0x198D PUSH2 0x31D0 JUMP JUMPDEST PUSH1 0x40 MLOAD SWAP1 DUP1 DUP3 MSTORE DUP1 PUSH1 0x20 MUL PUSH1 0x20 ADD DUP3 ADD PUSH1 0x40 MSTORE DUP1 ISZERO PUSH2 0x19C0 JUMPI DUP2 PUSH1 0x20 ADD JUMPDEST PUSH1 0x60 DUP2 MSTORE PUSH1 0x20 ADD SWAP1 PUSH1 0x1 SWAP1 SUB SWAP1 DUP2 PUSH2 0x19AB JUMPI SWAP1 POP JUMPDEST POP SWAP1 POP PUSH1 0x0 JUMPDEST PUSH1 0xA SLOAD DUP2 LT ISZERO PUSH2 0x1ACF JUMPI PUSH1 0x0 PUSH1 0x9 PUSH1 0x0 PUSH1 0xA DUP5 DUP2 SLOAD DUP2 LT PUSH2 0x19E9 JUMPI PUSH2 0x19E9 PUSH2 0x37E2 JUMP JUMPDEST PUSH1 0x0 SWAP2 DUP3 MSTORE PUSH1 0x20 DUP1 DUP4 KECCAK256 SWAP1 SWAP2 ADD SLOAD PUSH1 0x1 PUSH1 0x1 PUSH1 0xA0 SHL SUB AND DUP4 MSTORE DUP3 ADD SWAP3 SWAP1 SWAP3 MSTORE PUSH1 0x40 ADD SWAP1 KECCAK256 PUSH1 0x1 DUP2 ADD DUP1 SLOAD SWAP2 SWAP3 POP SWAP1 PUSH2 0x1A20 SWAP1 PUSH2 0x38EE JUMP JUMPDEST DUP1 PUSH1 0x1F ADD PUSH1 0x20 DUP1 SWAP2 DIV MUL PUSH1 0x20 ADD PUSH1 0x40 MLOAD SWAP1 DUP2 ADD PUSH1 0x40 MSTORE DUP1 SWAP3 SWAP2 SWAP1 DUP2 DUP2 MSTORE PUSH1 0x20 ADD DUP3 DUP1 SLOAD PUSH2 0x1A4C SWAP1 PUSH2 0x38EE JUMP JUMPDEST DUP1 ISZERO PUSH2 0x1A99 JUMPI DUP1 PUSH1 0x1F LT PUSH2 0x1A6E JUMPI PUSH2 0x100 DUP1 DUP4 SLOAD DIV MUL DUP4 MSTORE SWAP2 PUSH1 0x20 ADD SWAP2 PUSH2 0x1A99 JUMP JUMPDEST DUP3 ADD SWAP2 SWAP1 PUSH1 0x0 MSTORE PUSH1 0x20 PUSH1 0x0 KECCAK256 SWAP1 JUMPDEST DUP2 SLOAD DUP2 MSTORE SWAP1 PUSH1 0x1 ADD SWAP1 PUSH1 0x20 ADD DUP1 DUP4 GT PUSH2 0x1A7C JUMPI DUP3 SWAP1 SUB PUSH1 0x1F AND DUP3 ADD SWAP2 JUMPDEST POP POP POP POP POP DUP4 DUP4 DUP2 MLOAD DUP2 LT PUSH2 0x1AB0 JUMPI PUSH2 0x1AB0 PUSH2 0x37E2 JUMP JUMPDEST PUSH1 0x20 MUL PUSH1 0x20 ADD ADD DUP2 SWAP1 MSTORE POP POP DUP1 DUP1 PUSH2 0x1AC7 SWAP1 PUSH2 0x3837 JUMP JUMPDEST SWAP2 POP POP PUSH2 0x19C6 JUMP JUMPDEST POP SWAP2 SWAP1 POP JUMP JUMPDEST PUSH1 0xB SLOAD PUSH1 0x60 SWAP1 PUSH1 0x1 PUSH1 0x1 PUSH1 0xA0 SHL SUB AND CALLER EQ PUSH2 0x1B50 JUMPI PUSH1 0x40 MLOAD PUSH3 0x461BCD PUSH1 0xE5 SHL DUP2 MSTORE PUSH1 0x20 PUSH1 0x4 DUP3 ADD MSTORE PUSH1 0x35 PUSH1 0x24 DUP3 ADD MSTORE PUSH32 0x4F6E6C79207468652067616D652076616C696461746F7220636F6E7472616374 PUSH1 0x44 DUP3 ADD MSTORE PUSH21 0x818D85B881858D8D95CDCC81D1A1A5CC81B1A5CDD PUSH1 0x5A SHL PUSH1 0x64 DUP3 ADD MSTORE PUSH1 0x84 ADD PUSH2 0x76A JUMP JUMPDEST PUSH1 0x0 DUP4 MLOAD PUSH8 0xFFFFFFFFFFFFFFFF DUP2 GT ISZERO PUSH2 0x1B6C JUMPI PUSH2 0x1B6C PUSH2 0x31D0 JUMP JUMPDEST PUSH1 0x40 MLOAD SWAP1 DUP1 DUP3 MSTORE DUP1 PUSH1 0x20 MUL PUSH1 0x20 ADD DUP3 ADD PUSH1 0x40 MSTORE DUP1 ISZERO PUSH2 0x1B95 JUMPI DUP2 PUSH1 0x20 ADD PUSH1 0x20 DUP3 MUL DUP1 CALLDATASIZE DUP4 CALLDATACOPY ADD SWAP1 POP JUMPDEST POP SWAP1 POP PUSH1 0x0 JUMPDEST DUP5 MLOAD DUP2 LT ISZERO PUSH2 0x1F90 JUMPI PUSH1 0x0 JUMPDEST PUSH1 0xA SLOAD DUP2 LT ISZERO PUSH2 0x1F7D JUMPI DUP6 DUP3 DUP2 MLOAD DUP2 LT PUSH2 0x1BC3 JUMPI PUSH2 0x1BC3 PUSH2 0x37E2 JUMP JUMPDEST PUSH1 0x20 MUL PUSH1 0x20 ADD ADD MLOAD PUSH1 0x40 MLOAD PUSH1 0x20 ADD PUSH2 0x1BDB SWAP2 SWAP1 PUSH2 0x3A67 JUMP JUMPDEST PUSH1 0x40 MLOAD PUSH1 0x20 DUP2 DUP4 SUB SUB DUP2 MSTORE SWAP1 PUSH1 0x40 MSTORE DUP1 MLOAD SWAP1 PUSH1 0x20 ADD KECCAK256 PUSH1 0x9 PUSH1 0x0 PUSH1 0xA DUP5 DUP2 SLOAD DUP2 LT PUSH2 0x1C08 JUMPI PUSH2 0x1C08 PUSH2 0x37E2 JUMP JUMPDEST PUSH1 0x0 SWAP2 DUP3 MSTORE PUSH1 0x20 DUP1 DUP4 KECCAK256 SWAP1 SWAP2 ADD SLOAD PUSH1 0x1 PUSH1 0x1 PUSH1 0xA0 SHL SUB AND DUP4 MSTORE DUP3 DUP2 ADD SWAP4 SWAP1 SWAP4 MSTORE PUSH1 0x40 SWAP2 DUP3 ADD SWAP1 KECCAK256 SWAP1 MLOAD PUSH2 0x1C42 SWAP3 PUSH1 0x1 SWAP3 SWAP1 SWAP3 ADD SWAP2 ADD PUSH2 0x3A83 JUMP JUMPDEST PUSH1 0x40 MLOAD PUSH1 0x20 DUP2 DUP4 SUB SUB DUP2 MSTORE SWAP1 PUSH1 0x40 MSTORE DUP1 MLOAD SWAP1 PUSH1 0x20 ADD KECCAK256 SUB PUSH2 0x1F6B JUMPI PUSH1 0xC SLOAD PUSH1 0xA DUP1 SLOAD PUSH1 0x0 SWAP3 PUSH1 0x1 PUSH1 0x1 PUSH1 0xA0 SHL SUB AND SWAP2 PUSH4 0x5A725B07 SWAP2 PUSH1 0x7 SWAP2 SWAP1 DUP7 SWAP1 DUP2 LT PUSH2 0x1C8B JUMPI PUSH2 0x1C8B PUSH2 0x37E2 JUMP JUMPDEST PUSH1 0x0 SWAP2 DUP3 MSTORE PUSH1 0x20 SWAP1 SWAP2 KECCAK256 ADD SLOAD PUSH1 0x40 MLOAD PUSH1 0x1 PUSH1 0x1 PUSH1 0xE0 SHL SUB NOT PUSH1 0xE0 DUP6 SWAP1 SHL AND DUP2 MSTORE PUSH2 0x1CC2 SWAP3 SWAP2 PUSH1 0x1 PUSH1 0x1 PUSH1 0xA0 SHL SUB AND SWAP1 PUSH1 0x4 ADD PUSH2 0x3B76 JUMP JUMPDEST PUSH1 0x20 PUSH1 0x40 MLOAD DUP1 DUP4 SUB DUP2 DUP7 GAS STATICCALL ISZERO DUP1 ISZERO PUSH2 0x1CDF JUMPI RETURNDATASIZE PUSH1 0x0 DUP1 RETURNDATACOPY RETURNDATASIZE PUSH1 0x0 REVERT JUMPDEST POP POP POP POP PUSH1 0x40 MLOAD RETURNDATASIZE PUSH1 0x1F NOT PUSH1 0x1F DUP3 ADD AND DUP3 ADD DUP1 PUSH1 0x40 MSTORE POP DUP2 ADD SWAP1 PUSH2 0x1D03 SWAP2 SWAP1 PUSH2 0x3BA0 JUMP JUMPDEST SWAP1 POP DUP1 PUSH1 0xFF AND PUSH1 0x2 SUB PUSH2 0x1EC4 JUMPI PUSH1 0x9 PUSH1 0x0 PUSH1 0xA DUP5 DUP2 SLOAD DUP2 LT PUSH2 0x1D27 JUMPI PUSH2 0x1D27 PUSH2 0x37E2 JUMP JUMPDEST PUSH1 0x0 SWAP2 DUP3 MSTORE PUSH1 0x20 DUP1 DUP4 KECCAK256 SWAP1 SWAP2 ADD SLOAD PUSH1 0x1 PUSH1 0x1 PUSH1 0xA0 SHL SUB SWAP1 DUP2 AND DUP5 MSTORE SWAP1 DUP4 ADD SWAP4 SWAP1 SWAP4 MSTORE PUSH1 0x40 SWAP1 SWAP2 ADD SWAP1 KECCAK256 PUSH1 0x4 ADD SLOAD DUP6 MLOAD SWAP2 AND SWAP1 DUP6 SWAP1 DUP6 SWAP1 DUP2 LT PUSH2 0x1D6B JUMPI PUSH2 0x1D6B PUSH2 0x37E2 JUMP JUMPDEST PUSH1 0x1 PUSH1 0x1 PUSH1 0xA0 SHL SUB SWAP1 SWAP3 AND PUSH1 0x20 SWAP3 DUP4 MUL SWAP2 SWAP1 SWAP2 ADD SWAP1 SWAP2 ADD MSTORE PUSH1 0x0 PUSH2 0x1D90 PUSH1 0x3C DUP9 PUSH2 0x3BC3 JUMP JUMPDEST PUSH1 0xC SLOAD PUSH1 0xA DUP1 SLOAD SWAP3 SWAP4 POP PUSH1 0x1 PUSH1 0x1 PUSH1 0xA0 SHL SUB SWAP1 SWAP2 AND SWAP2 PUSH4 0xD47B2E99 SWAP2 SWAP1 DUP7 SWAP1 DUP2 LT PUSH2 0x1DBD JUMPI PUSH2 0x1DBD PUSH2 0x37E2 JUMP JUMPDEST PUSH1 0x0 SWAP2 DUP3 MSTORE PUSH1 0x20 SWAP1 SWAP2 KECCAK256 ADD SLOAD PUSH1 0x40 MLOAD PUSH1 0xE0 DUP4 SWAP1 SHL PUSH1 0x1 PUSH1 0x1 PUSH1 0xE0 SHL SUB NOT AND DUP2 MSTORE PUSH1 0x1 PUSH1 0x1 PUSH1 0xA0 SHL SUB SWAP1 SWAP2 AND PUSH1 0x4 DUP3 ADD MSTORE PUSH1 0x24 DUP2 ADD DUP5 SWAP1 MSTORE PUSH1 0x44 ADD PUSH1 0x0 PUSH1 0x40 MLOAD DUP1 DUP4 SUB DUP2 PUSH1 0x0 DUP8 DUP1 EXTCODESIZE ISZERO DUP1 ISZERO PUSH2 0x1E11 JUMPI PUSH1 0x0 DUP1 REVERT JUMPDEST POP GAS CALL ISZERO DUP1 ISZERO PUSH2 0x1E25 JUMPI RETURNDATASIZE PUSH1 0x0 DUP1 RETURNDATACOPY RETURNDATASIZE PUSH1 0x0 REVERT JUMPDEST POP POP PUSH1 0xC SLOAD PUSH1 0xA DUP1 SLOAD PUSH1 0x1 PUSH1 0x1 PUSH1 0xA0 SHL SUB SWAP1 SWAP3 AND SWAP4 POP PUSH4 0x2EB4B54F SWAP3 POP SWAP1 DUP7 SWAP1 DUP2 LT PUSH2 0x1E53 JUMPI PUSH2 0x1E53 PUSH2 0x37E2 JUMP JUMPDEST PUSH1 0x0 SWAP2 DUP3 MSTORE PUSH1 0x20 SWAP1 SWAP2 KECCAK256 ADD SLOAD PUSH1 0x40 MLOAD PUSH1 0x1 PUSH1 0x1 PUSH1 0xE0 SHL SUB NOT PUSH1 0xE0 DUP5 SWAP1 SHL AND DUP2 MSTORE PUSH2 0x1E8C SWAP2 PUSH1 0x1 PUSH1 0x1 PUSH1 0xA0 SHL SUB AND SWAP1 PUSH1 0x7 SWAP1 PUSH1 0x4 ADD PUSH2 0x3BE5 JUMP JUMPDEST PUSH1 0x0 PUSH1 0x40 MLOAD DUP1 DUP4 SUB DUP2 PUSH1 0x0 DUP8 DUP1 EXTCODESIZE ISZERO DUP1 ISZERO PUSH2 0x1EA6 JUMPI PUSH1 0x0 DUP1 REVERT JUMPDEST POP GAS CALL ISZERO DUP1 ISZERO PUSH2 0x1EBA JUMPI RETURNDATASIZE PUSH1 0x0 DUP1 RETURNDATACOPY RETURNDATASIZE PUSH1 0x0 REVERT JUMPDEST POP POP POP POP POP PUSH2 0x1F65 JUMP JUMPDEST DUP1 PUSH1 0xFF AND PUSH1 0x0 SUB PUSH2 0x1F65 JUMPI PUSH1 0xC SLOAD PUSH1 0xA DUP1 SLOAD PUSH1 0x1 PUSH1 0x1 PUSH1 0xA0 SHL SUB SWAP1 SWAP3 AND SWAP2 PUSH4 0x2EB4B54F SWAP2 SWAP1 DUP6 SWAP1 DUP2 LT PUSH2 0x1EF9 JUMPI PUSH2 0x1EF9 PUSH2 0x37E2 JUMP JUMPDEST PUSH1 0x0 SWAP2 DUP3 MSTORE PUSH1 0x20 SWAP1 SWAP2 KECCAK256 ADD SLOAD PUSH1 0x40 MLOAD PUSH1 0x1 PUSH1 0x1 PUSH1 0xE0 SHL SUB NOT PUSH1 0xE0 DUP5 SWAP1 SHL AND DUP2 MSTORE PUSH2 0x1F32 SWAP2 PUSH1 0x1 PUSH1 0x1 PUSH1 0xA0 SHL SUB AND SWAP1 PUSH1 0x7 SWAP1 PUSH1 0x4 ADD PUSH2 0x3BE5 JUMP JUMPDEST PUSH1 0x0 PUSH1 0x40 MLOAD DUP1 DUP4 SUB DUP2 PUSH1 0x0 DUP8 DUP1 EXTCODESIZE ISZERO DUP1 ISZERO PUSH2 0x1F4C JUMPI PUSH1 0x0 DUP1 REVERT JUMPDEST POP GAS CALL ISZERO DUP1 ISZERO PUSH2 0x1F60 JUMPI RETURNDATASIZE PUSH1 0x0 DUP1 RETURNDATACOPY RETURNDATASIZE PUSH1 0x0 REVERT JUMPDEST POP POP POP POP JUMPDEST POP PUSH2 0x1F7D JUMP JUMPDEST DUP1 PUSH2 0x1F75 DUP2 PUSH2 0x3837 JUMP JUMPDEST SWAP2 POP POP PUSH2 0x1BA7 JUMP JUMPDEST POP DUP1 PUSH2 0x1F88 DUP2 PUSH2 0x3837 JUMP JUMPDEST SWAP2 POP POP PUSH2 0x1B9B JUMP JUMPDEST POP SWAP1 POP JUMPDEST SWAP3 SWAP2 POP POP JUMP JUMPDEST PUSH1 0x0 DUP4 PUSH1 0x40 MLOAD PUSH1 0x20 ADD PUSH2 0x1FAD SWAP2 SWAP1 PUSH2 0x3850 JUMP JUMPDEST PUSH1 0x40 DUP1 MLOAD DUP1 DUP4 SUB PUSH1 0x1F NOT ADD DUP2 MSTORE SWAP1 DUP3 SWAP1 MSTORE DUP1 MLOAD PUSH1 0x20 SWAP1 SWAP2 ADD KECCAK256 PUSH1 0xF SLOAD PUSH4 0xB9D57C5F PUSH1 0xE0 SHL DUP4 MSTORE PUSH1 0x4 DUP4 ADD DUP3 SWAP1 MSTORE SWAP1 SWAP3 POP PUSH1 0x0 SWAP2 PUSH1 0x1 PUSH1 0x1 PUSH1 0xA0 SHL SUB SWAP1 SWAP2 AND SWAP1 PUSH4 0xB9D57C5F SWAP1 PUSH1 0x24 ADD PUSH1 0x60 PUSH1 0x40 MLOAD DUP1 DUP4 SUB DUP2 DUP7 GAS STATICCALL ISZERO DUP1 ISZERO PUSH2 0x2012 JUMPI RETURNDATASIZE PUSH1 0x0 DUP1 RETURNDATACOPY RETURNDATASIZE PUSH1 0x0 REVERT JUMPDEST POP POP POP POP PUSH1 0x40 MLOAD RETURNDATASIZE PUSH1 0x1F NOT PUSH1 0x1F DUP3 ADD AND DUP3 ADD DUP1 PUSH1 0x40 MSTORE POP DUP2 ADD SWAP1 PUSH2 0x2036 SWAP2 SWAP1 PUSH2 0x3C09 JUMP JUMPDEST SWAP3 POP POP POP PUSH1 0x0 DUP1 PUSH2 0x2046 CALLER PUSH2 0x15C9 JUMP JUMPDEST SWAP2 POP SWAP2 POP DUP2 DUP4 EQ DUP1 PUSH2 0x2057 JUMPI POP DUP1 DUP4 EQ JUMPDEST PUSH2 0x20B4 JUMPI PUSH1 0x40 MLOAD PUSH3 0x461BCD PUSH1 0xE5 SHL DUP2 MSTORE PUSH1 0x20 PUSH1 0x4 DUP3 ADD MSTORE PUSH1 0x28 PUSH1 0x24 DUP3 ADD MSTORE PUSH32 0x43616C6C65722773206F7261636C65206B657920696E64657820646F6573206E PUSH1 0x44 DUP3 ADD MSTORE PUSH8 0xDEE840DAC2E8C6D PUSH1 0xC3 SHL PUSH1 0x64 DUP3 ADD MSTORE PUSH1 0x84 ADD PUSH2 0x76A JUMP JUMPDEST CALLER PUSH1 0x0 SWAP1 DUP2 MSTORE PUSH1 0x9 PUSH1 0x20 MSTORE PUSH1 0x40 SWAP1 KECCAK256 SLOAD PUSH5 0x100000000 SWAP1 DIV PUSH1 0xFF AND PUSH2 0x211B JUMPI PUSH1 0x40 MLOAD PUSH3 0x461BCD PUSH1 0xE5 SHL DUP2 MSTORE PUSH1 0x20 PUSH1 0x4 DUP3 ADD MSTORE PUSH1 0x1A PUSH1 0x24 DUP3 ADD MSTORE PUSH32 0x43616C6C6572206973206E6F7420612067616D652061646D696E000000000000 PUSH1 0x44 DUP3 ADD MSTORE PUSH1 0x64 ADD PUSH2 0x76A JUMP JUMPDEST PUSH1 0xF SLOAD PUSH1 0x40 MLOAD PUSH1 0x1 PUSH1 0x1 PUSH1 0xA0 SHL SUB SWAP1 SWAP2 AND SWAP1 PUSH4 0x4A89D52B SWAP1 DUP10 SWAP1 DUP10 SWAP1 DUP10 SWAP1 PUSH2 0x2147 SWAP1 DUP16 SWAP1 PUSH1 0x20 ADD PUSH2 0x3A67 JUMP JUMPDEST PUSH1 0x40 MLOAD PUSH1 0x20 DUP2 DUP4 SUB SUB DUP2 MSTORE SWAP1 PUSH1 0x40 MSTORE PUSH1 0x40 MLOAD DUP6 PUSH4 0xFFFFFFFF AND PUSH1 0xE0 SHL DUP2 MSTORE PUSH1 0x4 ADD PUSH2 0x2175 SWAP5 SWAP4 SWAP3 SWAP2 SWAP1 PUSH2 0x36E4 JUMP JUMPDEST PUSH1 0x20 PUSH1 0x40 MLOAD DUP1 DUP4 SUB DUP2 PUSH1 0x0 DUP8 GAS CALL ISZERO DUP1 ISZERO PUSH2 0x2194 JUMPI RETURNDATASIZE PUSH1 0x0 DUP1 RETURNDATACOPY RETURNDATASIZE PUSH1 0x0 REVERT JUMPDEST POP POP POP POP PUSH1 0x40 MLOAD RETURNDATASIZE PUSH1 0x1F NOT PUSH1 0x1F DUP3 ADD AND DUP3 ADD DUP1 PUSH1 0x40 MSTORE POP DUP2 ADD SWAP1 PUSH2 0x21B8 SWAP2 SWAP1 PUSH2 0x37C5 JUMP JUMPDEST PUSH2 0x2204 JUMPI PUSH1 0x40 MLOAD PUSH3 0x461BCD PUSH1 0xE5 SHL DUP2 MSTORE PUSH1 0x20 PUSH1 0x4 DUP3 ADD MSTORE PUSH1 0x1B PUSH1 0x24 DUP3 ADD MSTORE PUSH32 0x4C616D706F7274206F7261636C6520636865636B206661696C65640000000000 PUSH1 0x44 DUP3 ADD MSTORE PUSH1 0x64 ADD PUSH2 0x76A JUMP JUMPDEST DUP8 ISZERO PUSH2 0x22A6 JUMPI PUSH1 0x0 DUP10 PUSH1 0x40 MLOAD PUSH2 0x221A SWAP2 SWAP1 PUSH2 0x3A67 JUMP JUMPDEST SWAP1 DUP2 MSTORE PUSH1 0x40 MLOAD SWAP1 DUP2 SWAP1 SUB PUSH1 0x20 ADD SWAP1 KECCAK256 SLOAD PUSH1 0xFF AND PUSH2 0x22A1 JUMPI PUSH1 0x1 PUSH1 0x0 DUP11 PUSH1 0x40 MLOAD PUSH2 0x2243 SWAP2 SWAP1 PUSH2 0x3A67 JUMP JUMPDEST SWAP1 DUP2 MSTORE PUSH1 0x40 MLOAD SWAP1 DUP2 SWAP1 SUB PUSH1 0x20 ADD SWAP1 KECCAK256 DUP1 SLOAD SWAP2 ISZERO ISZERO PUSH1 0xFF NOT SWAP1 SWAP3 AND SWAP2 SWAP1 SWAP2 OR SWAP1 SSTORE PUSH1 0x8 DUP1 SLOAD PUSH1 0x1 DUP2 ADD DUP3 SSTORE PUSH1 0x0 SWAP2 SWAP1 SWAP2 MSTORE PUSH32 0xF3F7A9FE364FAAB93B216DA50A3214154F22A0A2B415B23A84C8169E8B636EE3 ADD PUSH2 0x229F DUP11 DUP3 PUSH2 0x3971 JUMP JUMPDEST POP JUMPDEST PUSH2 0x2308 JUMP JUMPDEST PUSH1 0x0 DUP10 PUSH1 0x40 MLOAD PUSH2 0x22B6 SWAP2 SWAP1 PUSH2 0x3A67 JUMP JUMPDEST SWAP1 DUP2 MSTORE PUSH1 0x40 MLOAD SWAP1 DUP2 SWAP1 SUB PUSH1 0x20 ADD SWAP1 KECCAK256 SLOAD PUSH1 0xFF AND ISZERO PUSH2 0x2308 JUMPI PUSH1 0x0 DUP1 DUP11 PUSH1 0x40 MLOAD PUSH2 0x22DF SWAP2 SWAP1 PUSH2 0x3A67 JUMP JUMPDEST SWAP1 DUP2 MSTORE PUSH1 0x40 MLOAD SWAP1 DUP2 SWAP1 SUB PUSH1 0x20 ADD SWAP1 KECCAK256 DUP1 SLOAD SWAP2 ISZERO ISZERO PUSH1 0xFF NOT SWAP1 SWAP3 AND SWAP2 SWAP1 SWAP2 OR SWAP1 SSTORE PUSH2 0x2308 DUP10 PUSH2 0x2E75 JUMP JUMPDEST POP POP POP POP POP POP POP POP POP JUMP JUMPDEST PUSH1 0xD SLOAD PUSH1 0x1 PUSH1 0x1 PUSH1 0xA0 SHL SUB AND CALLER EQ PUSH2 0x2381 JUMPI PUSH1 0x40 MLOAD PUSH3 0x461BCD PUSH1 0xE5 SHL DUP2 MSTORE PUSH1 0x20 PUSH1 0x4 DUP3 ADD MSTORE PUSH1 0x3C PUSH1 0x24 DUP3 ADD MSTORE PUSH1 0x0 DUP1 MLOAD PUSH1 0x20 PUSH2 0x3D61 DUP4 CODECOPY DUP2 MLOAD SWAP2 MSTORE PUSH1 0x44 DUP3 ADD MSTORE PUSH32 0x6E6765204F6E626F617264205265676973747261722053746174757300000000 PUSH1 0x64 DUP3 ADD MSTORE PUSH1 0x84 ADD PUSH2 0x76A JUMP JUMPDEST PUSH1 0x1 PUSH1 0x1 PUSH1 0xA0 SHL SUB SWAP1 SWAP2 AND PUSH1 0x0 SWAP1 DUP2 MSTORE PUSH1 0x9 PUSH1 0x20 MSTORE PUSH1 0x40 SWAP1 KECCAK256 DUP1 SLOAD SWAP2 ISZERO ISZERO PUSH1 0x1 PUSH1 0x30 SHL MUL PUSH7 0xFF000000000000 NOT SWAP1 SWAP3 AND SWAP2 SWAP1 SWAP2 OR SWAP1 SSTORE JUMP JUMPDEST PUSH1 0x60 PUSH1 0x8 DUP1 SLOAD DUP1 PUSH1 0x20 MUL PUSH1 0x20 ADD PUSH1 0x40 MLOAD SWAP1 DUP2 ADD PUSH1 0x40 MSTORE DUP1 SWAP3 SWAP2 SWAP1 DUP2 DUP2 MSTORE PUSH1 0x20 ADD PUSH1 0x0 SWAP1 JUMPDEST DUP3 DUP3 LT ISZERO PUSH2 0x2489 JUMPI DUP4 DUP3 SWAP1 PUSH1 0x0 MSTORE PUSH1 0x20 PUSH1 0x0 KECCAK256 ADD DUP1 SLOAD PUSH2 0x23FC SWAP1 PUSH2 0x38EE JUMP JUMPDEST DUP1 PUSH1 0x1F ADD PUSH1 0x20 DUP1 SWAP2 DIV MUL PUSH1 0x20 ADD PUSH1 0x40 MLOAD SWAP1 DUP2 ADD PUSH1 0x40 MSTORE DUP1 SWAP3 SWAP2 SWAP1 DUP2 DUP2 MSTORE PUSH1 0x20 ADD DUP3 DUP1 SLOAD PUSH2 0x2428 SWAP1 PUSH2 0x38EE JUMP JUMPDEST DUP1 ISZERO PUSH2 0x2475 JUMPI DUP1 PUSH1 0x1F LT PUSH2 0x244A JUMPI PUSH2 0x100 DUP1 DUP4 SLOAD DIV MUL DUP4 MSTORE SWAP2 PUSH1 0x20 ADD SWAP2 PUSH2 0x2475 JUMP JUMPDEST DUP3 ADD SWAP2 SWAP1 PUSH1 0x0 MSTORE PUSH1 0x20 PUSH1 0x0 KECCAK256 SWAP1 JUMPDEST DUP2 SLOAD DUP2 MSTORE SWAP1 PUSH1 0x1 ADD SWAP1 PUSH1 0x20 ADD DUP1 DUP4 GT PUSH2 0x2458 JUMPI DUP3 SWAP1 SUB PUSH1 0x1F AND DUP3 ADD SWAP2 JUMPDEST POP POP POP POP POP DUP2 MSTORE PUSH1 0x20 ADD SWAP1 PUSH1 0x1 ADD SWAP1 PUSH2 0x23DD JUMP JUMPDEST POP POP POP POP SWAP1 POP SWAP1 JUMP JUMPDEST PUSH1 0xD SLOAD PUSH1 0x1 PUSH1 0x1 PUSH1 0xA0 SHL SUB AND CALLER EQ PUSH2 0x2500 JUMPI PUSH1 0x40 MLOAD PUSH3 0x461BCD PUSH1 0xE5 SHL DUP2 MSTORE PUSH1 0x20 PUSH1 0x4 DUP3 ADD MSTORE PUSH1 0x39 PUSH1 0x24 DUP3 ADD MSTORE PUSH1 0x0 DUP1 MLOAD PUSH1 0x20 PUSH2 0x3D61 DUP4 CODECOPY DUP2 MLOAD SWAP2 MSTORE PUSH1 0x44 DUP3 ADD MSTORE PUSH32 0x6E67652047616D652056616C696461746F722073746174757300000000000000 PUSH1 0x64 DUP3 ADD MSTORE PUSH1 0x84 ADD PUSH2 0x76A JUMP JUMPDEST PUSH1 0x1 PUSH1 0x1 PUSH1 0xA0 SHL SUB SWAP1 SWAP2 AND PUSH1 0x0 SWAP1 DUP2 MSTORE PUSH1 0x9 PUSH1 0x20 MSTORE PUSH1 0x40 SWAP1 KECCAK256 DUP1 SLOAD SWAP2 ISZERO ISZERO PUSH2 0x100 MUL PUSH2 0xFF00 NOT SWAP1 SWAP3 AND SWAP2 SWAP1 SWAP2 OR SWAP1 SSTORE JUMP JUMPDEST PUSH1 0x0 DUP2 PUSH1 0x40 MLOAD PUSH1 0x20 ADD PUSH2 0x2544 SWAP2 SWAP1 PUSH2 0x369E JUMP JUMPDEST PUSH1 0x40 DUP1 MLOAD DUP1 DUP4 SUB PUSH1 0x1F NOT ADD DUP2 MSTORE SWAP2 DUP2 MSTORE CALLER PUSH1 0x0 SWAP1 DUP2 MSTORE PUSH1 0x4 PUSH1 0x20 MSTORE KECCAK256 SLOAD SWAP1 SWAP2 POP PUSH1 0x1 PUSH1 0x1 PUSH1 0xA0 SHL SUB DUP4 DUP2 AND SWAP2 AND EQ PUSH2 0x25D1 JUMPI PUSH1 0x40 MLOAD PUSH3 0x461BCD PUSH1 0xE5 SHL DUP2 MSTORE PUSH1 0x20 PUSH1 0x4 DUP3 ADD MSTORE PUSH1 0x2A PUSH1 0x24 DUP3 ADD MSTORE PUSH32 0x50726F706F7365642047616D6556616C20636F6E747261637420616464726573 PUSH1 0x44 DUP3 ADD MSTORE PUSH10 0xE640DAD2E6DAC2E8C6D PUSH1 0xB3 SHL PUSH1 0x64 DUP3 ADD MSTORE PUSH1 0x84 ADD PUSH2 0x76A JUMP JUMPDEST PUSH1 0x0 DUP6 PUSH1 0x40 MLOAD PUSH1 0x20 ADD PUSH2 0x25E4 SWAP2 SWAP1 PUSH2 0x3850 JUMP JUMPDEST PUSH1 0x40 MLOAD PUSH1 0x20 DUP2 DUP4 SUB SUB DUP2 MSTORE SWAP1 PUSH1 0x40 MSTORE DUP1 MLOAD SWAP1 PUSH1 0x20 ADD KECCAK256 SWAP1 POP DUP1 PUSH1 0x10 SLOAD SUB PUSH2 0x261D JUMPI PUSH1 0x40 MLOAD PUSH3 0x461BCD PUSH1 0xE5 SHL DUP2 MSTORE PUSH1 0x4 ADD PUSH2 0x76A SWAP1 PUSH2 0x3887 JUMP JUMPDEST PUSH1 0xF SLOAD PUSH1 0x40 MLOAD PUSH4 0x333F6111 PUSH1 0xE0 SHL DUP2 MSTORE PUSH1 0x0 SWAP2 PUSH1 0x1 PUSH1 0x1 PUSH1 0xA0 SHL SUB AND SWAP1 PUSH4 0x333F6111 SWAP1 PUSH2 0x2654 SWAP1 DUP11 SWAP1 DUP11 SWAP1 DUP11 SWAP1 DUP10 SWAP1 PUSH1 0x4 ADD PUSH2 0x36E4 JUMP JUMPDEST PUSH1 0x20 PUSH1 0x40 MLOAD DUP1 DUP4 SUB DUP2 PUSH1 0x0 DUP8 GAS CALL ISZERO DUP1 ISZERO PUSH2 0x2673 JUMPI RETURNDATASIZE PUSH1 0x0 DUP1 RETURNDATACOPY RETURNDATASIZE PUSH1 0x0 REVERT JUMPDEST POP POP POP POP PUSH1 0x40 MLOAD RETURNDATASIZE PUSH1 0x1F NOT PUSH1 0x1F DUP3 ADD AND DUP3 ADD DUP1 PUSH1 0x40 MSTORE POP DUP2 ADD SWAP1 PUSH2 0x2697 SWAP2 SWAP1 PUSH2 0x37C5 JUMP JUMPDEST SWAP1 POP DUP1 PUSH2 0x270E JUMPI PUSH1 0x40 DUP1 MLOAD PUSH3 0x461BCD PUSH1 0xE5 SHL DUP2 MSTORE PUSH1 0x20 PUSH1 0x4 DUP3 ADD MSTORE PUSH1 0x24 DUP2 ADD SWAP2 SWAP1 SWAP2 MSTORE PUSH32 0x417574686F72697A6174696F6E206661696C6564206F6E20636F6E6669726D61 PUSH1 0x44 DUP3 ADD MSTORE PUSH32 0x74696F6E206F662047616D6556616C20636F6E74726163742061646472657373 PUSH1 0x64 DUP3 ADD MSTORE PUSH1 0x84 ADD PUSH2 0x76A JUMP JUMPDEST PUSH1 0xB DUP1 SLOAD PUSH1 0x1 PUSH1 0x1 PUSH1 0xA0 SHL SUB NOT AND PUSH1 0x1 PUSH1 0x1 PUSH1 0xA0 SHL SUB DUP7 AND SWAP1 DUP2 OR SWAP1 SWAP2 SSTORE PUSH1 0x40 MLOAD PUSH32 0x6F1895F9314E8B91A7A1C3A67319510D05C9D6729515F83CC2EACA70D3E81F87 SWAP1 PUSH1 0x0 SWAP1 LOG2 POP POP CALLER PUSH1 0x0 SWAP1 DUP2 MSTORE PUSH1 0x4 PUSH1 0x20 MSTORE PUSH1 0x40 DUP2 KECCAK256 DUP1 SLOAD PUSH1 0x1 PUSH1 0x1 PUSH1 0xA0 SHL SUB NOT AND SWAP1 SSTORE PUSH1 0x10 SSTORE POP POP POP POP POP JUMP JUMPDEST PUSH1 0x0 DUP2 PUSH1 0x40 MLOAD PUSH1 0x20 ADD PUSH2 0x2791 SWAP2 SWAP1 PUSH2 0x369E JUMP JUMPDEST PUSH1 0x40 DUP1 MLOAD DUP1 DUP4 SUB PUSH1 0x1F NOT ADD DUP2 MSTORE SWAP2 DUP2 MSTORE CALLER PUSH1 0x0 SWAP1 DUP2 MSTORE PUSH1 0x6 PUSH1 0x20 MSTORE KECCAK256 SLOAD SWAP1 SWAP2 POP PUSH1 0x1 PUSH1 0x1 PUSH1 0xA0 SHL SUB DUP4 DUP2 AND SWAP2 AND EQ PUSH2 0x281A JUMPI PUSH1 0x40 MLOAD PUSH3 0x461BCD PUSH1 0xE5 SHL DUP2 MSTORE PUSH1 0x20 PUSH1 0x4 DUP3 ADD MSTORE PUSH1 0x26 PUSH1 0x24 DUP3 ADD MSTORE PUSH32 0x466F72756D20636F6E7472616374206164647265737320757064617465206D69 PUSH1 0x44 DUP3 ADD MSTORE PUSH6 0xE6DAC2E8C6D PUSH1 0xD3 SHL PUSH1 0x64 DUP3 ADD MSTORE PUSH1 0x84 ADD PUSH2 0x76A JUMP JUMPDEST PUSH1 0x0 DUP6 PUSH1 0x40 MLOAD PUSH1 0x20 ADD PUSH2 0x282D SWAP2 SWAP1 PUSH2 0x3850 JUMP JUMPDEST PUSH1 0x40 MLOAD PUSH1 0x20 DUP2 DUP4 SUB SUB DUP2 MSTORE SWAP1 PUSH1 0x40 MSTORE DUP1 MLOAD SWAP1 PUSH1 0x20 ADD KECCAK256 SWAP1 POP DUP1 PUSH1 0x10 SLOAD SUB PUSH2 0x2866 JUMPI PUSH1 0x40 MLOAD PUSH3 0x461BCD PUSH1 0xE5 SHL DUP2 MSTORE PUSH1 0x4 ADD PUSH2 0x76A SWAP1 PUSH2 0x3887 JUMP JUMPDEST PUSH1 0xF SLOAD PUSH1 0x40 MLOAD PUSH4 0x333F6111 PUSH1 0xE0 SHL DUP2 MSTORE PUSH1 0x0 SWAP2 PUSH1 0x1 PUSH1 0x1 PUSH1 0xA0 SHL SUB AND SWAP1 PUSH4 0x333F6111 SWAP1 PUSH2 0x289D SWAP1 DUP11 SWAP1 DUP11 SWAP1 DUP11 SWAP1 DUP10 SWAP1 PUSH1 0x4 ADD PUSH2 0x36E4 JUMP JUMPDEST PUSH1 0x20 PUSH1 0x40 MLOAD DUP1 DUP4 SUB DUP2 PUSH1 0x0 DUP8 GAS CALL ISZERO DUP1 ISZERO PUSH2 0x28BC JUMPI RETURNDATASIZE PUSH1 0x0 DUP1 RETURNDATACOPY RETURNDATASIZE PUSH1 0x0 REVERT JUMPDEST POP POP POP POP PUSH1 0x40 MLOAD RETURNDATASIZE PUSH1 0x1F NOT PUSH1 0x1F DUP3 ADD AND DUP3 ADD DUP1 PUSH1 0x40 MSTORE POP DUP2 ADD SWAP1 PUSH2 0x28E0 SWAP2 SWAP1 PUSH2 0x37C5 JUMP JUMPDEST SWAP1 POP DUP1 PUSH2 0x2963 JUMPI PUSH1 0x40 MLOAD PUSH3 0x461BCD PUSH1 0xE5 SHL DUP2 MSTORE PUSH1 0x20 PUSH1 0x4 DUP3 ADD MSTORE PUSH1 0x45 PUSH1 0x24 DUP3 ADD MSTORE PUSH32 0x417574686F72697A6174696F6E206661696C6564206F6E20636F6E6669726D61 PUSH1 0x44 DUP3 ADD MSTORE PUSH32 0x74696F6E206F6620466F72756D20636F6E747261637420616464726573732075 PUSH1 0x64 DUP3 ADD MSTORE PUSH5 0x7064617465 PUSH1 0xD8 SHL PUSH1 0x84 DUP3 ADD MSTORE PUSH1 0xA4 ADD PUSH2 0x76A JUMP JUMPDEST PUSH1 0xE DUP1 SLOAD PUSH1 0x1 PUSH1 0x1 PUSH1 0xA0 SHL SUB NOT AND PUSH1 0x1 PUSH1 0x1 PUSH1 0xA0 SHL SUB DUP7 AND SWAP1 DUP2 OR SWAP1 SWAP2 SSTORE PUSH1 0x40 MLOAD PUSH32 0x78E5262E53E14D17B3058C6B8CF7CD3C2FB92A4172FA393FDDD75CB57523B1C6 SWAP1 PUSH1 0x0 SWAP1 LOG2 POP POP CALLER PUSH1 0x0 SWAP1 DUP2 MSTORE PUSH1 0x6 PUSH1 0x20 MSTORE PUSH1 0x40 DUP2 KECCAK256 DUP1 SLOAD PUSH1 0x1 PUSH1 0x1 PUSH1 0xA0 SHL SUB NOT AND SWAP1 SSTORE PUSH1 0x10 SSTORE POP POP POP POP POP JUMP JUMPDEST PUSH1 0x0 DUP2 PUSH1 0x40 MLOAD PUSH1 0x20 ADD PUSH2 0x29E6 SWAP2 SWAP1 PUSH2 0x369E JUMP JUMPDEST PUSH1 0x40 DUP1 MLOAD PUSH1 0x1F NOT DUP2 DUP5 SUB ADD DUP2 MSTORE SWAP1 DUP3 SWAP1 MSTORE PUSH1 0xF SLOAD PUSH4 0x333F6111 PUSH1 0xE0 SHL DUP4 MSTORE SWAP1 SWAP3 POP PUSH1 0x0 SWAP2 PUSH1 0x1 PUSH1 0x1 PUSH1 0xA0 SHL SUB SWAP1 SWAP2 AND SWAP1 PUSH4 0x333F6111 SWAP1 PUSH2 0x2A30 SWAP1 DUP10 SWAP1 DUP10 SWAP1 DUP10 SWAP1 DUP9 SWAP1 PUSH1 0x4 ADD PUSH2 0x36E4 JUMP JUMPDEST PUSH1 0x20 PUSH1 0x40 MLOAD DUP1 DUP4 SUB DUP2 PUSH1 0x0 DUP8 GAS CALL ISZERO DUP1 ISZERO PUSH2 0x2A4F JUMPI RETURNDATASIZE PUSH1 0x0 DUP1 RETURNDATACOPY RETURNDATASIZE PUSH1 0x0 REVERT JUMPDEST POP POP POP POP PUSH1 0x40 MLOAD RETURNDATASIZE PUSH1 0x1F NOT PUSH1 0x1F DUP3 ADD AND DUP3 ADD DUP1 PUSH1 0x40 MSTORE POP DUP2 ADD SWAP1 PUSH2 0x2A73 SWAP2 SWAP1 PUSH2 0x37C5 JUMP JUMPDEST SWAP1 POP DUP1 PUSH2 0x2A92 JUMPI PUSH1 0x40 MLOAD PUSH3 0x461BCD PUSH1 0xE5 SHL DUP2 MSTORE PUSH1 0x4 ADD PUSH2 0x76A SWAP1 PUSH2 0x3C44 JUMP JUMPDEST POP POP CALLER PUSH1 0x0 SWAP1 DUP2 MSTORE PUSH1 0x3 PUSH1 0x20 MSTORE PUSH1 0x40 SWAP1 KECCAK256 DUP1 SLOAD PUSH1 0x1 PUSH1 0x1 PUSH1 0xA0 SHL SUB NOT AND PUSH1 0x1 PUSH1 0x1 PUSH1 0xA0 SHL SUB SWAP3 SWAP1 SWAP3 AND SWAP2 SWAP1 SWAP2 OR SWAP1 SSTORE PUSH1 0x10 SSTORE POP POP JUMP JUMPDEST PUSH1 0x8 DUP2 DUP2 SLOAD DUP2 LT PUSH2 0x2AD8 JUMPI PUSH1 0x0 DUP1 REVERT JUMPDEST SWAP1 PUSH1 0x0 MSTORE PUSH1 0x20 PUSH1 0x0 KECCAK256 ADD PUSH1 0x0 SWAP2 POP SWAP1 POP DUP1 SLOAD PUSH2 0x2AF3 SWAP1 PUSH2 0x38EE JUMP JUMPDEST DUP1 PUSH1 0x1F ADD PUSH1 0x20 DUP1 SWAP2 DIV MUL PUSH1 0x20 ADD PUSH1 0x40 MLOAD SWAP1 DUP2 ADD PUSH1 0x40 MSTORE DUP1 SWAP3 SWAP2 SWAP1 DUP2 DUP2 MSTORE PUSH1 0x20 ADD DUP3 DUP1 SLOAD PUSH2 0x2B1F SWAP1 PUSH2 0x38EE JUMP JUMPDEST DUP1 ISZERO PUSH2 0x2B6C JUMPI DUP1 PUSH1 0x1F LT PUSH2 0x2B41 JUMPI PUSH2 0x100 DUP1 DUP4 SLOAD DIV MUL DUP4 MSTORE SWAP2 PUSH1 0x20 ADD SWAP2 PUSH2 0x2B6C JUMP JUMPDEST DUP3 ADD SWAP2 SWAP1 PUSH1 0x0 MSTORE PUSH1 0x20 PUSH1 0x0 KECCAK256 SWAP1 JUMPDEST DUP2 SLOAD DUP2 MSTORE SWAP1 PUSH1 0x1 ADD SWAP1 PUSH1 0x20 ADD DUP1 DUP4 GT PUSH2 0x2B4F JUMPI DUP3 SWAP1 SUB PUSH1 0x1F AND DUP3 ADD SWAP2 JUMPDEST POP POP POP POP POP DUP2 JUMP JUMPDEST PUSH1 0xE SLOAD PUSH1 0x1 PUSH1 0x1 PUSH1 0xA0 SHL SUB AND CALLER EQ PUSH2 0x2BF4 JUMPI PUSH1 0x40 MLOAD PUSH3 0x461BCD PUSH1 0xE5 SHL DUP2 MSTORE PUSH1 0x20 PUSH1 0x4 DUP3 ADD MSTORE PUSH1 0x3E PUSH1 0x24 DUP3 ADD MSTORE PUSH32 0x4F6E6C792074686520666F72756D20636F6E74726163742063616E206D6F6469 PUSH1 0x44 DUP3 ADD MSTORE PUSH32 0x667920746F75726E616D656E74206D6F64657261746F72207374617475730000 PUSH1 0x64 DUP3 ADD MSTORE PUSH1 0x84 ADD PUSH2 0x76A JUMP JUMPDEST PUSH1 0x1 PUSH1 0x1 PUSH1 0xA0 SHL SUB SWAP1 SWAP2 AND PUSH1 0x0 SWAP1 DUP2 MSTORE PUSH1 0x9 PUSH1 0x20 MSTORE PUSH1 0x40 SWAP1 KECCAK256 DUP1 SLOAD SWAP2 ISZERO ISZERO PUSH4 0x1000000 MUL PUSH4 0xFF000000 NOT SWAP1 SWAP3 AND SWAP2 SWAP1 SWAP2 OR SWAP1 SSTORE JUMP JUMPDEST PUSH1 0x0 DUP2 PUSH1 0x40 MLOAD PUSH1 0x20 ADD PUSH2 0x2C3C SWAP2 SWAP1 PUSH2 0x369E JUMP JUMPDEST PUSH1 0x40 DUP1 MLOAD DUP1 DUP4 SUB PUSH1 0x1F NOT ADD DUP2 MSTORE SWAP2 DUP2 MSTORE CALLER PUSH1 0x0 SWAP1 DUP2 MSTORE PUSH1 0x3 PUSH1 0x20 MSTORE KECCAK256 SLOAD SWAP1 SWAP2 POP PUSH1 0x1 PUSH1 0x1 PUSH1 0xA0 SHL SUB DUP4 DUP2 AND SWAP2 AND EQ PUSH2 0x2CC8 JUMPI PUSH1 0x40 MLOAD PUSH3 0x461BCD PUSH1 0xE5 SHL DUP2 MSTORE PUSH1 0x20 PUSH1 0x4 DUP3 ADD MSTORE PUSH1 0x29 PUSH1 0x24 DUP3 ADD MSTORE PUSH32 0x50726F706F73656420416E6F6E494420636F6E74726163742061646472657373 PUSH1 0x44 DUP3 ADD MSTORE PUSH9 0x40DAD2E6DAC2E8C6D PUSH1 0xBB SHL PUSH1 0x64 DUP3 ADD MSTORE PUSH1 0x84 ADD PUSH2 0x76A JUMP JUMPDEST PUSH1 0x0 DUP6 PUSH1 0x40 MLOAD PUSH1 0x20 ADD PUSH2 0x2CDB SWAP2 SWAP1 PUSH2 0x3850 JUMP JUMPDEST PUSH1 0x40 MLOAD PUSH1 0x20 DUP2 DUP4 SUB SUB DUP2 MSTORE SWAP1 PUSH1 0x40 MSTORE DUP1 MLOAD SWAP1 PUSH1 0x20 ADD KECCAK256 SWAP1 POP DUP1 PUSH1 0x10 SLOAD SUB PUSH2 0x2D6C JUMPI PUSH1 0x40 DUP1 MLOAD PUSH3 0x461BCD PUSH1 0xE5 SHL DUP2 MSTORE PUSH1 0x20 PUSH1 0x4 DUP3 ADD MSTORE PUSH1 0x24 DUP2 ADD SWAP2 SWAP1 SWAP2 MSTORE PUSH32 0x4C616D706F7274426173653A20504B48206D617463686573206C617374207573 PUSH1 0x44 DUP3 ADD MSTORE PUSH32 0x656420504B482028757365207365706172617465207365636F6E64206B657929 PUSH1 0x64 DUP3 ADD MSTORE PUSH1 0x84 ADD PUSH2 0x76A JUMP JUMPDEST PUSH1 0xF SLOAD PUSH1 0x40 MLOAD PUSH4 0x333F6111 PUSH1 0xE0 SHL DUP2 MSTORE PUSH1 0x0 SWAP2 PUSH1 0x1 PUSH1 0x1 PUSH1 0xA0 SHL SUB AND SWAP1 PUSH4 0x333F6111 SWAP1 PUSH2 0x2DA3 SWAP1 DUP11 SWAP1 DUP11 SWAP1 DUP11 SWAP1 DUP10 SWAP1 PUSH1 0x4 ADD PUSH2 0x36E4 JUMP JUMPDEST PUSH1 0x20 PUSH1 0x40 MLOAD DUP1 DUP4 SUB DUP2 PUSH1 0x0 DUP8 GAS CALL ISZERO DUP1 ISZERO PUSH2 0x2DC2 JUMPI RETURNDATASIZE PUSH1 0x0 DUP1 RETURNDATACOPY RETURNDATASIZE PUSH1 0x0 REVERT JUMPDEST POP POP POP POP PUSH1 0x40 MLOAD RETURNDATASIZE PUSH1 0x1F NOT PUSH1 0x1F DUP3 ADD AND DUP3 ADD DUP1 PUSH1 0x40 MSTORE POP DUP2 ADD SWAP1 PUSH2 0x2DE6 SWAP2 SWAP1 PUSH2 0x37C5 JUMP JUMPDEST SWAP1 POP DUP1 PUSH2 0x2E05 JUMPI PUSH1 0x40 MLOAD PUSH3 0x461BCD PUSH1 0xE5 SHL DUP2 MSTORE PUSH1 0x4 ADD PUSH2 0x76A SWAP1 PUSH2 0x3C44 JUMP JUMPDEST PUSH1 0xC DUP1 SLOAD PUSH1 0x1 PUSH1 0x1 PUSH1 0xA0 SHL SUB NOT AND PUSH1 0x1 PUSH1 0x1 PUSH1 0xA0 SHL SUB DUP7 AND SWAP1 DUP2 OR SWAP1 SWAP2 SSTORE PUSH1 0x40 MLOAD PUSH32 0xEBC4468D0C46ED1B5177ED98BDB5D4CCFC7DD4F9DA4CAA02B6FD46B1E7BE0D4E SWAP1 PUSH1 0x0 SWAP1 LOG2 POP POP CALLER PUSH1 0x0 SWAP1 DUP2 MSTORE PUSH1 0x3 PUSH1 0x20 MSTORE PUSH1 0x40 DUP2 KECCAK256 DUP1 SLOAD PUSH1 0x1 PUSH1 0x1 PUSH1 0xA0 SHL SUB NOT AND SWAP1 SSTORE PUSH1 0x10 SSTORE POP POP POP POP POP JUMP JUMPDEST CALLER PUSH1 0x0 SWAP1 DUP2 MSTORE PUSH1 0x9 PUSH1 0x20 MSTORE PUSH1 0x40 SWAP1 KECCAK256 SLOAD PUSH5 0x100000000 SWAP1 DIV PUSH1 0xFF AND PUSH2 0x2EDC JUMPI PUSH1 0x40 MLOAD PUSH3 0x461BCD PUSH1 0xE5 SHL DUP2 MSTORE PUSH1 0x20 PUSH1 0x4 DUP3 ADD MSTORE PUSH1 0x1A PUSH1 0x24 DUP3 ADD MSTORE PUSH32 0x43616C6C6572206973206E6F7420612067616D652061646D696E000000000000 PUSH1 0x44 DUP3 ADD MSTORE PUSH1 0x64 ADD PUSH2 0x76A JUMP JUMPDEST PUSH1 0x0 JUMPDEST PUSH1 0x8 SLOAD DUP2 LT ISZERO PUSH2 0xADA JUMPI DUP2 PUSH1 0x40 MLOAD PUSH1 0x20 ADD PUSH2 0x2EFA SWAP2 SWAP1 PUSH2 0x3A67 JUMP JUMPDEST PUSH1 0x40 MLOAD PUSH1 0x20 DUP2 DUP4 SUB SUB DUP2 MSTORE SWAP1 PUSH1 0x40 MSTORE DUP1 MLOAD SWAP1 PUSH1 0x20 ADD KECCAK256 PUSH1 0x8 DUP3 DUP2 SLOAD DUP2 LT PUSH2 0x2F23 JUMPI PUSH2 0x2F23 PUSH2 0x37E2 JUMP JUMPDEST SWAP1 PUSH1 0x0 MSTORE PUSH1 0x20 PUSH1 0x0 KECCAK256 ADD PUSH1 0x40 MLOAD PUSH1 0x20 ADD PUSH2 0x2F3D SWAP2 SWAP1 PUSH2 0x3A83 JUMP JUMPDEST PUSH1 0x40 MLOAD PUSH1 0x20 DUP2 DUP4 SUB SUB DUP2 MSTORE SWAP1 PUSH1 0x40 MSTORE DUP1 MLOAD SWAP1 PUSH1 0x20 ADD KECCAK256 SUB PUSH2 0x3010 JUMPI PUSH1 0x0 DUP1 DUP4 PUSH1 0x40 MLOAD PUSH2 0x2F69 SWAP2 SWAP1 PUSH2 0x3A67 JUMP JUMPDEST SWAP1 DUP2 MSTORE PUSH1 0x40 MLOAD SWAP1 DUP2 SWAP1 SUB PUSH1 0x20 ADD SWAP1 KECCAK256 DUP1 SLOAD SWAP2 ISZERO ISZERO PUSH1 0xFF NOT SWAP1 SWAP3 AND SWAP2 SWAP1 SWAP2 OR SWAP1 SSTORE PUSH1 0x8 DUP1 SLOAD PUSH2 0x2F99 SWAP1 PUSH1 0x1 SWAP1 PUSH2 0x380E JUMP JUMPDEST DUP2 SLOAD DUP2 LT PUSH2 0x2FA9 JUMPI PUSH2 0x2FA9 PUSH2 0x37E2 JUMP JUMPDEST SWAP1 PUSH1 0x0 MSTORE PUSH1 0x20 PUSH1 0x0 KECCAK256 ADD PUSH1 0x8 DUP3 DUP2 SLOAD DUP2 LT PUSH2 0x2FC6 JUMPI PUSH2 0x2FC6 PUSH2 0x37E2 JUMP JUMPDEST SWAP1 PUSH1 0x0 MSTORE PUSH1 0x20 PUSH1 0x0 KECCAK256 ADD SWAP1 DUP2 PUSH2 0x2FDC SWAP2 SWAP1 PUSH2 0x3C85 JUMP JUMPDEST POP PUSH1 0x8 DUP1 SLOAD DUP1 PUSH2 0x2FEE JUMPI PUSH2 0x2FEE PUSH2 0x3821 JUMP JUMPDEST PUSH1 0x1 SWAP1 SUB DUP2 DUP2 SWAP1 PUSH1 0x0 MSTORE PUSH1 0x20 PUSH1 0x0 KECCAK256 ADD PUSH1 0x0 PUSH2 0x300A SWAP2 SWAP1 PUSH2 0x3022 JUMP JUMPDEST SWAP1 SSTORE POP POP JUMP JUMPDEST DUP1 PUSH2 0x301A DUP2 PUSH2 0x3837 JUMP JUMPDEST SWAP2 POP POP PUSH2 0x2EDF JUMP JUMPDEST POP DUP1 SLOAD PUSH2 0x302E SWAP1 PUSH2 0x38EE JUMP JUMPDEST PUSH1 0x0 DUP3 SSTORE DUP1 PUSH1 0x1F LT PUSH2 0x303E JUMPI POP POP JUMP JUMPDEST PUSH1 0x1F ADD PUSH1 0x20 SWAP1 DIV SWAP1 PUSH1 0x0 MSTORE PUSH1 0x20 PUSH1 0x0 KECCAK256 SWAP1 DUP2 ADD SWAP1 PUSH2 0x305C SWAP2 SWAP1 PUSH2 0x305F JUMP JUMPDEST POP JUMP JUMPDEST JUMPDEST DUP1 DUP3 GT ISZERO PUSH2 0x3074 JUMPI PUSH1 0x0 DUP2 SSTORE PUSH1 0x1 ADD PUSH2 0x3060 JUMP JUMPDEST POP SWAP1 JUMP JUMPDEST PUSH1 0x1 PUSH1 0x1 PUSH1 0xA0 SHL SUB DUP2 AND DUP2 EQ PUSH2 0x305C JUMPI PUSH1 0x0 DUP1 REVERT JUMPDEST DUP1 ISZERO ISZERO DUP2 EQ PUSH2 0x305C JUMPI PUSH1 0x0 DUP1 REVERT JUMPDEST PUSH1 0x0 DUP1 PUSH1 0x40 DUP4 DUP6 SUB SLT ISZERO PUSH2 0x30AE JUMPI PUSH1 0x0 DUP1 REVERT JUMPDEST DUP3 CALLDATALOAD PUSH2 0x30B9 DUP2 PUSH2 0x3078 JUMP JUMPDEST SWAP2 POP PUSH1 0x20 DUP4 ADD CALLDATALOAD PUSH2 0x30C9 DUP2 PUSH2 0x308D JUMP JUMPDEST DUP1 SWAP2 POP POP SWAP3 POP SWAP3 SWAP1 POP JUMP JUMPDEST DUP1 PUSH2 0x4000 DUP2 ADD DUP4 LT ISZERO PUSH2 0x1F94 JUMPI PUSH1 0x0 DUP1 REVERT JUMPDEST DUP1 PUSH2 0x2000 DUP2 ADD DUP4 LT ISZERO PUSH2 0x1F94 JUMPI PUSH1 0x0 DUP1 REVERT JUMPDEST PUSH1 0x0 DUP1 PUSH1 0x0 DUP1 PUSH2 0x4060 DUP6 DUP8 SUB SLT ISZERO PUSH2 0x310F JUMPI PUSH1 0x0 DUP1 REVERT JUMPDEST PUSH2 0x3119 DUP7 DUP7 PUSH2 0x30D4 JUMP JUMPDEST SWAP4 POP PUSH2 0x4000 DUP6 ADD CALLDATALOAD PUSH8 0xFFFFFFFFFFFFFFFF DUP2 GT ISZERO PUSH2 0x3136 JUMPI PUSH1 0x0 DUP1 REVERT JUMPDEST PUSH2 0x3142 DUP8 DUP3 DUP9 ADD PUSH2 0x30E6 JUMP JUMPDEST SWAP4 POP POP PUSH2 0x4020 DUP6 ADD CALLDATALOAD SWAP2 POP PUSH2 0x4040 DUP6 ADD CALLDATALOAD PUSH2 0x315C DUP2 PUSH2 0x3078 JUMP JUMPDEST SWAP4 SWAP7 SWAP3 SWAP6 POP SWAP1 SWAP4 POP POP JUMP JUMPDEST PUSH1 0x0 PUSH1 0x20 DUP3 DUP5 SUB SLT ISZERO PUSH2 0x3179 JUMPI PUSH1 0x0 DUP1 REVERT JUMPDEST DUP2 CALLDATALOAD PUSH2 0x3184 DUP2 PUSH2 0x3078 JUMP JUMPDEST SWAP4 SWAP3 POP POP POP JUMP JUMPDEST PUSH1 0x0 PUSH1 0x20 DUP3 DUP5 SUB SLT ISZERO PUSH2 0x319D JUMPI PUSH1 0x0 DUP1 REVERT JUMPDEST POP CALLDATALOAD SWAP2 SWAP1 POP JUMP JUMPDEST PUSH1 0x0 DUP1 PUSH1 0x40 DUP4 DUP6 SUB SLT ISZERO PUSH2 0x31B7 JUMPI PUSH1 0x0 DUP1 REVERT JUMPDEST DUP3 CALLDATALOAD PUSH2 0x31C2 DUP2 PUSH2 0x3078 JUMP JUMPDEST SWAP5 PUSH1 0x20 SWAP4 SWAP1 SWAP4 ADD CALLDATALOAD SWAP4 POP POP POP JUMP JUMPDEST PUSH4 0x4E487B71 PUSH1 0xE0 SHL PUSH1 0x0 MSTORE PUSH1 0x41 PUSH1 0x4 MSTORE PUSH1 0x24 PUSH1 0x0 REVERT JUMPDEST PUSH1 0x40 MLOAD PUSH1 0x1F DUP3 ADD PUSH1 0x1F NOT AND DUP2 ADD PUSH8 0xFFFFFFFFFFFFFFFF DUP2 GT DUP3 DUP3 LT OR ISZERO PUSH2 0x320F JUMPI PUSH2 0x320F PUSH2 0x31D0 JUMP JUMPDEST PUSH1 0x40 MSTORE SWAP2 SWAP1 POP JUMP JUMPDEST PUSH1 0x0 DUP3 PUSH1 0x1F DUP4 ADD SLT PUSH2 0x3228 JUMPI PUSH1 0x0 DUP1 REVERT JUMPDEST DUP2 CALLDATALOAD PUSH8 0xFFFFFFFFFFFFFFFF DUP2 GT ISZERO PUSH2 0x3242 JUMPI PUSH2 0x3242 PUSH2 0x31D0 JUMP JUMPDEST PUSH2 0x3255 PUSH1 0x1F DUP3 ADD PUSH1 0x1F NOT AND PUSH1 0x20 ADD PUSH2 0x31E6 JUMP JUMPDEST DUP2 DUP2 MSTORE DUP5 PUSH1 0x20 DUP4 DUP7 ADD ADD GT ISZERO PUSH2 0x326A JUMPI PUSH1 0x0 DUP1 REVERT JUMPDEST DUP2 PUSH1 0x20 DUP6 ADD PUSH1 0x20 DUP4 ADD CALLDATACOPY PUSH1 0x0 SWAP2 DUP2 ADD PUSH1 0x20 ADD SWAP2 SWAP1 SWAP2 MSTORE SWAP4 SWAP3 POP POP POP JUMP JUMPDEST PUSH1 0x0 DUP1 PUSH1 0x0 DUP1 PUSH1 0x0 DUP1 PUSH1 0xC0 DUP8 DUP10 SUB SLT ISZERO PUSH2 0x32A0 JUMPI PUSH1 0x0 DUP1 REVERT JUMPDEST DUP7 CALLDATALOAD PUSH2 0x32AB DUP2 PUSH2 0x3078 JUMP JUMPDEST SWAP6 POP PUSH1 0x20 DUP8 ADD CALLDATALOAD PUSH8 0xFFFFFFFFFFFFFFFF DUP1 DUP3 GT ISZERO PUSH2 0x32C8 JUMPI PUSH1 0x0 DUP1 REVERT JUMPDEST PUSH2 0x32D4 DUP11 DUP4 DUP12 ADD PUSH2 0x3217 JUMP JUMPDEST SWAP7 POP PUSH1 0x40 DUP10 ADD CALLDATALOAD SWAP2 POP DUP1 DUP3 GT ISZERO PUSH2 0x32EA JUMPI PUSH1 0x0 DUP1 REVERT JUMPDEST POP PUSH2 0x32F7 DUP10 DUP3 DUP11 ADD PUSH2 0x3217 JUMP JUMPDEST SWAP5 POP POP PUSH1 0x60 DUP8 ADD CALLDATALOAD SWAP3 POP PUSH1 0x80 DUP8 ADD CALLDATALOAD SWAP2 POP PUSH1 0xA0 DUP8 ADD CALLDATALOAD PUSH2 0x3316 DUP2 PUSH2 0x3078 JUMP JUMPDEST DUP1 SWAP2 POP POP SWAP3 SWAP6 POP SWAP3 SWAP6 POP SWAP3 SWAP6 JUMP JUMPDEST PUSH1 0x0 PUSH1 0x20 DUP3 DUP5 SUB SLT ISZERO PUSH2 0x3336 JUMPI PUSH1 0x0 DUP1 REVERT JUMPDEST DUP2 CALLDATALOAD PUSH8 0xFFFFFFFFFFFFFFFF DUP2 GT ISZERO PUSH2 0x334D JUMPI PUSH1 0x0 DUP1 REVERT JUMPDEST PUSH2 0x3359 DUP5 DUP3 DUP6 ADD PUSH2 0x3217 JUMP JUMPDEST SWAP5 SWAP4 POP POP POP POP JUMP JUMPDEST PUSH1 0x0 JUMPDEST DUP4 DUP2 LT ISZERO PUSH2 0x337C JUMPI DUP2 DUP2 ADD MLOAD DUP4 DUP3 ADD MSTORE PUSH1 0x20 ADD PUSH2 0x3364 JUMP JUMPDEST POP POP PUSH1 0x0 SWAP2 ADD MSTORE JUMP JUMPDEST PUSH1 0x0 DUP2 MLOAD DUP1 DUP5 MSTORE PUSH2 0x339D DUP2 PUSH1 0x20 DUP7 ADD PUSH1 0x20 DUP7 ADD PUSH2 0x3361 JUMP JUMPDEST PUSH1 0x1F ADD PUSH1 0x1F NOT AND SWAP3 SWAP1 SWAP3 ADD PUSH1 0x20 ADD SWAP3 SWAP2 POP POP JUMP JUMPDEST DUP14 ISZERO ISZERO DUP2 MSTORE DUP13 ISZERO ISZERO PUSH1 0x20 DUP3 ADD MSTORE DUP12 ISZERO ISZERO PUSH1 0x40 DUP3 ADD MSTORE PUSH1 0x0 PUSH2 0x1A0 DUP13 ISZERO ISZERO PUSH1 0x60 DUP5 ADD MSTORE DUP12 ISZERO ISZERO PUSH1 0x80 DUP5 ADD MSTORE DUP11 ISZERO ISZERO PUSH1 0xA0 DUP5 ADD MSTORE DUP10 ISZERO ISZERO PUSH1 0xC0 DUP5 ADD MSTORE DUP1 PUSH1 0xE0 DUP5 ADD MSTORE PUSH2 0x33FD DUP2 DUP5 ADD DUP11 PUSH2 0x3385 JUMP JUMPDEST SWAP1 POP DUP8 PUSH2 0x100 DUP5 ADD MSTORE DUP3 DUP2 SUB PUSH2 0x120 DUP5 ADD MSTORE PUSH2 0x3419 DUP2 DUP9 PUSH2 0x3385 JUMP JUMPDEST SWAP2 POP POP PUSH2 0x3432 PUSH2 0x140 DUP4 ADD DUP7 PUSH1 0x1 PUSH1 0x1 PUSH1 0xA0 SHL SUB AND SWAP1 MSTORE JUMP JUMPDEST PUSH2 0x160 DUP3 ADD SWAP4 SWAP1 SWAP4 MSTORE PUSH2 0x180 ADD MSTORE SWAP12 SWAP11 POP POP POP POP POP POP POP POP POP POP POP JUMP JUMPDEST PUSH1 0x0 PUSH1 0x20 DUP1 DUP4 ADD DUP2 DUP5 MSTORE DUP1 DUP6 MLOAD DUP1 DUP4 MSTORE PUSH1 0x40 DUP7 ADD SWAP2 POP PUSH1 0x40 DUP2 PUSH1 0x5 SHL DUP8 ADD ADD SWAP3 POP DUP4 DUP8 ADD PUSH1 0x0 JUMPDEST DUP3 DUP2 LT ISZERO PUSH2 0x34A4 JUMPI PUSH1 0x3F NOT DUP9 DUP7 SUB ADD DUP5 MSTORE PUSH2 0x3492 DUP6 DUP4 MLOAD PUSH2 0x3385 JUMP JUMPDEST SWAP5 POP SWAP3 DUP6 ADD SWAP3 SWAP1 DUP6 ADD SWAP1 PUSH1 0x1 ADD PUSH2 0x3476 JUMP JUMPDEST POP SWAP3 SWAP8 SWAP7 POP POP POP POP POP POP POP JUMP JUMPDEST PUSH1 0x0 DUP1 PUSH1 0x40 DUP4 DUP6 SUB SLT ISZERO PUSH2 0x34C4 JUMPI PUSH1 0x0 DUP1 REVERT JUMPDEST DUP3 CALLDATALOAD PUSH8 0xFFFFFFFFFFFFFFFF DUP1 DUP3 GT ISZERO PUSH2 0x34DC JUMPI PUSH1 0x0 DUP1 REVERT JUMPDEST DUP2 DUP6 ADD SWAP2 POP DUP6 PUSH1 0x1F DUP4 ADD SLT PUSH2 0x34F0 JUMPI PUSH1 0x0 DUP1 REVERT JUMPDEST DUP2 CALLDATALOAD PUSH1 0x20 DUP3 DUP3 GT ISZERO PUSH2 0x3504 JUMPI PUSH2 0x3504 PUSH2 0x31D0 JUMP JUMPDEST DUP2 PUSH1 0x5 SHL PUSH2 0x3513 DUP3 DUP3 ADD PUSH2 0x31E6 JUMP JUMPDEST SWAP3 DUP4 MSTORE DUP5 DUP2 ADD DUP3 ADD SWAP3 DUP3 DUP2 ADD SWAP1 DUP11 DUP6 GT ISZERO PUSH2 0x352D JUMPI PUSH1 0x0 DUP1 REVERT JUMPDEST DUP4 DUP8 ADD SWAP3 POP JUMPDEST DUP5 DUP4 LT ISZERO PUSH2 0x3569 JUMPI DUP3 CALLDATALOAD DUP7 DUP2 GT ISZERO PUSH2 0x354B JUMPI PUSH1 0x0 DUP1 DUP2 REVERT JUMPDEST PUSH2 0x3559 DUP13 DUP7 DUP4 DUP12 ADD ADD PUSH2 0x3217 JUMP JUMPDEST DUP4 MSTORE POP SWAP2 DUP4 ADD SWAP2 SWAP1 DUP4 ADD SWAP1 PUSH2 0x3533 JUMP JUMPDEST SWAP11 SWAP9 SWAP1 SWAP3 ADD CALLDATALOAD SWAP9 POP POP POP POP POP POP POP POP JUMP JUMPDEST PUSH1 0x20 DUP1 DUP3 MSTORE DUP3 MLOAD DUP3 DUP3 ADD DUP2 SWAP1 MSTORE PUSH1 0x0 SWAP2 SWAP1 DUP5 DUP3 ADD SWAP1 PUSH1 0x40 DUP6 ADD SWAP1 DUP5 JUMPDEST DUP2 DUP2 LT ISZERO PUSH2 0x35BB JUMPI DUP4 MLOAD PUSH1 0x1 PUSH1 0x1 PUSH1 0xA0 SHL SUB AND DUP4 MSTORE SWAP3 DUP5 ADD SWAP3 SWAP2 DUP5 ADD SWAP2 PUSH1 0x1 ADD PUSH2 0x3596 JUMP JUMPDEST POP SWAP1 SWAP7 SWAP6 POP POP POP POP POP POP JUMP JUMPDEST PUSH1 0x0 DUP1 PUSH1 0x0 DUP1 PUSH1 0x0 PUSH2 0x4080 DUP7 DUP9 SUB SLT ISZERO PUSH2 0x35E0 JUMPI PUSH1 0x0 DUP1 REVERT JUMPDEST DUP6 CALLDATALOAD PUSH8 0xFFFFFFFFFFFFFFFF DUP1 DUP3 GT ISZERO PUSH2 0x35F8 JUMPI PUSH1 0x0 DUP1 REVERT JUMPDEST PUSH2 0x3604 DUP10 DUP4 DUP11 ADD PUSH2 0x3217 JUMP JUMPDEST SWAP7 POP PUSH1 0x20 DUP9 ADD CALLDATALOAD SWAP2 POP PUSH2 0x3616 DUP3 PUSH2 0x308D JUMP JUMPDEST DUP2 SWAP6 POP PUSH2 0x3626 DUP10 PUSH1 0x40 DUP11 ADD PUSH2 0x30D4 JUMP JUMPDEST SWAP5 POP PUSH2 0x4040 DUP9 ADD CALLDATALOAD SWAP2 POP DUP1 DUP3 GT ISZERO PUSH2 0x363D JUMPI PUSH1 0x0 DUP1 REVERT JUMPDEST POP PUSH2 0x364A DUP9 DUP3 DUP10 ADD PUSH2 0x30E6 JUMP JUMPDEST SWAP6 SWAP9 SWAP5 SWAP8 POP SWAP3 SWAP6 PUSH2 0x4060 ADD CALLDATALOAD SWAP4 SWAP3 POP POP POP JUMP JUMPDEST PUSH1 0x20 DUP2 MSTORE PUSH1 0x0 PUSH2 0x3184 PUSH1 0x20 DUP4 ADD DUP5 PUSH2 0x3385 JUMP JUMPDEST PUSH1 0x0 DUP1 PUSH1 0x40 DUP4 DUP6 SUB SLT ISZERO PUSH2 0x3683 JUMPI PUSH1 0x0 DUP1 REVERT JUMPDEST DUP3 CALLDATALOAD PUSH2 0x368E DUP2 PUSH2 0x3078 JUMP JUMPDEST SWAP2 POP PUSH1 0x20 DUP4 ADD CALLDATALOAD PUSH2 0x30C9 DUP2 PUSH2 0x3078 JUMP JUMPDEST PUSH1 0x60 SWAP2 SWAP1 SWAP2 SHL PUSH12 0xFFFFFFFFFFFFFFFFFFFFFFFF NOT AND DUP2 MSTORE PUSH1 0x14 ADD SWAP1 JUMP JUMPDEST DUP2 DUP4 MSTORE DUP2 DUP2 PUSH1 0x20 DUP6 ADD CALLDATACOPY POP PUSH1 0x0 DUP3 DUP3 ADD PUSH1 0x20 SWAP1 DUP2 ADD SWAP2 SWAP1 SWAP2 MSTORE PUSH1 0x1F SWAP1 SWAP2 ADD PUSH1 0x1F NOT AND SWAP1 SWAP2 ADD ADD SWAP1 JUMP JUMPDEST PUSH1 0x0 PUSH2 0x4060 DUP3 DUP2 ADD DUP4 DUP9 DUP5 JUMPDEST PUSH2 0x100 DUP2 LT ISZERO PUSH2 0x3711 JUMPI PUSH1 0x40 DUP1 DUP4 DUP6 CALLDATACOPY SWAP3 DUP4 ADD SWAP3 SWAP2 SWAP1 SWAP2 ADD SWAP1 PUSH1 0x1 ADD PUSH2 0x36F0 JUMP JUMPDEST POP POP POP PUSH2 0x4000 DUP5 ADD SWAP2 SWAP1 SWAP2 MSTORE PUSH2 0x6060 DUP4 ADD DUP7 PUSH1 0x0 JUMPDEST PUSH2 0x100 DUP2 LT ISZERO PUSH2 0x379D JUMPI DUP6 DUP4 SUB PUSH2 0x405F NOT ADD DUP5 MSTORE DUP2 CALLDATALOAD CALLDATASIZE DUP11 SWAP1 SUB PUSH1 0x1E NOT ADD DUP2 SLT PUSH2 0x374F JUMPI PUSH1 0x0 DUP1 REVERT JUMPDEST DUP10 ADD PUSH1 0x20 DUP2 DUP2 ADD SWAP2 CALLDATALOAD SWAP1 PUSH8 0xFFFFFFFFFFFFFFFF DUP3 GT ISZERO PUSH2 0x376E JUMPI PUSH1 0x0 DUP1 REVERT JUMPDEST DUP2 CALLDATASIZE SUB DUP4 SGT ISZERO PUSH2 0x377D JUMPI PUSH1 0x0 DUP1 REVERT JUMPDEST PUSH2 0x3788 DUP7 DUP4 DUP6 PUSH2 0x36BB JUMP JUMPDEST SWAP7 DUP2 ADD SWAP7 SWAP6 POP SWAP4 SWAP1 SWAP4 ADD SWAP3 POP POP PUSH1 0x1 ADD PUSH2 0x3726 JUMP JUMPDEST POP POP DUP6 PUSH2 0x4020 DUP6 ADD MSTORE DUP4 DUP2 SUB PUSH2 0x4040 DUP6 ADD MSTORE PUSH2 0x37B9 DUP2 DUP7 PUSH2 0x3385 JUMP JUMPDEST SWAP9 SWAP8 POP POP POP POP POP POP POP POP JUMP JUMPDEST PUSH1 0x0 PUSH1 0x20 DUP3 DUP5 SUB SLT ISZERO PUSH2 0x37D7 JUMPI PUSH1 0x0 DUP1 REVERT JUMPDEST DUP2 MLOAD PUSH2 0x3184 DUP2 PUSH2 0x308D JUMP JUMPDEST PUSH4 0x4E487B71 PUSH1 0xE0 SHL PUSH1 0x0 MSTORE PUSH1 0x32 PUSH1 0x4 MSTORE PUSH1 0x24 PUSH1 0x0 REVERT JUMPDEST PUSH4 0x4E487B71 PUSH1 0xE0 SHL PUSH1 0x0 MSTORE PUSH1 0x11 PUSH1 0x4 MSTORE PUSH1 0x24 PUSH1 0x0 REVERT JUMPDEST DUP2 DUP2 SUB DUP2 DUP2 GT ISZERO PUSH2 0x1F94 JUMPI PUSH2 0x1F94 PUSH2 0x37F8 JUMP JUMPDEST PUSH4 0x4E487B71 PUSH1 0xE0 SHL PUSH1 0x0 MSTORE PUSH1 0x31 PUSH1 0x4 MSTORE PUSH1 0x24 PUSH1 0x0 REVERT JUMPDEST PUSH1 0x0 PUSH1 0x1 DUP3 ADD PUSH2 0x3849 JUMPI PUSH2 0x3849 PUSH2 0x37F8 JUMP JUMPDEST POP PUSH1 0x1 ADD SWAP1 JUMP JUMPDEST PUSH1 0x0 DUP2 DUP4 DUP3 JUMPDEST PUSH2 0x100 DUP2 LT ISZERO PUSH2 0x3877 JUMPI PUSH1 0x40 DUP1 DUP4 DUP6 CALLDATACOPY SWAP3 DUP4 ADD SWAP3 SWAP2 SWAP1 SWAP2 ADD SWAP1 PUSH1 0x1 ADD PUSH2 0x3856 JUMP JUMPDEST POP POP POP PUSH2 0x4000 DUP3 ADD SWAP1 POP SWAP3 SWAP2 POP POP JUMP JUMPDEST PUSH1 0x20 DUP1 DUP3 MSTORE PUSH1 0x41 SWAP1 DUP3 ADD MSTORE PUSH32 0x53616D6520504B48207573656420666F7220626F74682073746570733B207573 PUSH1 0x40 DUP3 ADD MSTORE PUSH32 0x652061207365706172617465206B657920666F7220636F6E6669726D6174696F PUSH1 0x60 DUP3 ADD MSTORE PUSH1 0x37 PUSH1 0xF9 SHL PUSH1 0x80 DUP3 ADD MSTORE PUSH1 0xA0 ADD SWAP1 JUMP JUMPDEST PUSH1 0x1 DUP2 DUP2 SHR SWAP1 DUP3 AND DUP1 PUSH2 0x3902 JUMPI PUSH1 0x7F DUP3 AND SWAP2 POP JUMPDEST PUSH1 0x20 DUP3 LT DUP2 SUB PUSH2 0x1ACF JUMPI PUSH4 0x4E487B71 PUSH1 0xE0 SHL PUSH1 0x0 MSTORE PUSH1 0x22 PUSH1 0x4 MSTORE PUSH1 0x24 PUSH1 0x0 REVERT JUMPDEST PUSH1 0x1F DUP3 GT ISZERO PUSH2 0x396C JUMPI PUSH1 0x0 DUP2 DUP2 MSTORE PUSH1 0x20 DUP2 KECCAK256 PUSH1 0x1F DUP6 ADD PUSH1 0x5 SHR DUP2 ADD PUSH1 0x20 DUP7 LT ISZERO PUSH2 0x3949 JUMPI POP DUP1 JUMPDEST PUSH1 0x1F DUP6 ADD PUSH1 0x5 SHR DUP3 ADD SWAP2 POP JUMPDEST DUP2 DUP2 LT ISZERO PUSH2 0x3968 JUMPI DUP3 DUP2 SSTORE PUSH1 0x1 ADD PUSH2 0x3955 JUMP JUMPDEST POP POP POP JUMPDEST POP POP POP JUMP JUMPDEST DUP2 MLOAD PUSH8 0xFFFFFFFFFFFFFFFF DUP2 GT ISZERO PUSH2 0x398B JUMPI PUSH2 0x398B PUSH2 0x31D0 JUMP JUMPDEST PUSH2 0x399F DUP2 PUSH2 0x3999 DUP5 SLOAD PUSH2 0x38EE JUMP JUMPDEST DUP5 PUSH2 0x3922 JUMP JUMPDEST PUSH1 0x20 DUP1 PUSH1 0x1F DUP4 GT PUSH1 0x1 DUP2 EQ PUSH2 0x39D4 JUMPI PUSH1 0x0 DUP5 ISZERO PUSH2 0x39BC JUMPI POP DUP6 DUP4 ADD MLOAD JUMPDEST PUSH1 0x0 NOT PUSH1 0x3 DUP7 SWAP1 SHL SHR NOT AND PUSH1 0x1 DUP6 SWAP1 SHL OR DUP6 SSTORE PUSH2 0x3968 JUMP JUMPDEST PUSH1 0x0 DUP6 DUP2 MSTORE PUSH1 0x20 DUP2 KECCAK256 PUSH1 0x1F NOT DUP7 AND SWAP2 JUMPDEST DUP3 DUP2 LT ISZERO PUSH2 0x3A03 JUMPI DUP9 DUP7 ADD MLOAD DUP3 SSTORE SWAP5 DUP5 ADD SWAP5 PUSH1 0x1 SWAP1 SWAP2 ADD SWAP1 DUP5 ADD PUSH2 0x39E4 JUMP JUMPDEST POP DUP6 DUP3 LT ISZERO PUSH2 0x3A21 JUMPI DUP8 DUP6 ADD MLOAD PUSH1 0x0 NOT PUSH1 0x3 DUP9 SWAP1 SHL PUSH1 0xF8 AND SHR NOT AND DUP2 SSTORE JUMPDEST POP POP POP POP POP PUSH1 0x1 SWAP1 DUP2 SHL ADD SWAP1 SSTORE POP JUMP JUMPDEST PUSH1 0x0 PUSH1 0x20 DUP3 DUP5 SUB SLT ISZERO PUSH2 0x3A43 JUMPI PUSH1 0x0 DUP1 REVERT JUMPDEST DUP2 MLOAD PUSH2 0x3184 DUP2 PUSH2 0x3078 JUMP JUMPDEST PUSH1 0x0 PUSH1 0x20 DUP3 DUP5 SUB SLT ISZERO PUSH2 0x3A60 JUMPI PUSH1 0x0 DUP1 REVERT JUMPDEST POP MLOAD SWAP2 SWAP1 POP JUMP JUMPDEST PUSH1 0x0 DUP3 MLOAD PUSH2 0x3A79 DUP2 DUP5 PUSH1 0x20 DUP8 ADD PUSH2 0x3361 JUMP JUMPDEST SWAP2 SWAP1 SWAP2 ADD SWAP3 SWAP2 POP POP JUMP JUMPDEST PUSH1 0x0 DUP1 DUP4 SLOAD PUSH2 0x3A91 DUP2 PUSH2 0x38EE JUMP JUMPDEST PUSH1 0x1 DUP3 DUP2 AND DUP1 ISZERO PUSH2 0x3AA9 JUMPI PUSH1 0x1 DUP2 EQ PUSH2 0x3ABE JUMPI PUSH2 0x3AED JUMP JUMPDEST PUSH1 0xFF NOT DUP5 AND DUP8 MSTORE DUP3 ISZERO ISZERO DUP4 MUL DUP8 ADD SWAP5 POP PUSH2 0x3AED JUMP JUMPDEST DUP8 PUSH1 0x0 MSTORE PUSH1 0x20 DUP1 PUSH1 0x0 KECCAK256 PUSH1 0x0 JUMPDEST DUP6 DUP2 LT ISZERO PUSH2 0x3AE4 JUMPI DUP2 SLOAD DUP11 DUP3 ADD MSTORE SWAP1 DUP5 ADD SWAP1 DUP3 ADD PUSH2 0x3ACB JUMP JUMPDEST POP POP POP DUP3 DUP8 ADD SWAP5 POP JUMPDEST POP SWAP3 SWAP7 SWAP6 POP POP POP POP POP POP JUMP JUMPDEST PUSH1 0x0 DUP2 SLOAD PUSH2 0x3B06 DUP2 PUSH2 0x38EE JUMP JUMPDEST DUP1 DUP6 MSTORE PUSH1 0x20 PUSH1 0x1 DUP4 DUP2 AND DUP1 ISZERO PUSH2 0x3B23 JUMPI PUSH1 0x1 DUP2 EQ PUSH2 0x3B3D JUMPI PUSH2 0x3B6B JUMP JUMPDEST PUSH1 0xFF NOT DUP6 AND DUP9 DUP5 ADD MSTORE DUP4 ISZERO ISZERO PUSH1 0x5 SHL DUP9 ADD DUP4 ADD SWAP6 POP PUSH2 0x3B6B JUMP JUMPDEST DUP7 PUSH1 0x0 MSTORE DUP3 PUSH1 0x0 KECCAK256 PUSH1 0x0 JUMPDEST DUP6 DUP2 LT ISZERO PUSH2 0x3B63 JUMPI DUP2 SLOAD DUP11 DUP3 ADD DUP7 ADD MSTORE SWAP1 DUP4 ADD SWAP1 DUP5 ADD PUSH2 0x3B48 JUMP JUMPDEST DUP10 ADD DUP5 ADD SWAP7 POP POP JUMPDEST POP POP POP POP POP SWAP3 SWAP2 POP POP JUMP JUMPDEST PUSH1 0x40 DUP2 MSTORE PUSH1 0x0 PUSH2 0x3B89 PUSH1 0x40 DUP4 ADD DUP6 PUSH2 0x3AF9 JUMP JUMPDEST SWAP1 POP PUSH1 0x1 DUP1 PUSH1 0xA0 SHL SUB DUP4 AND PUSH1 0x20 DUP4 ADD MSTORE SWAP4 SWAP3 POP POP POP JUMP JUMPDEST PUSH1 0x0 PUSH1 0x20 DUP3 DUP5 SUB SLT ISZERO PUSH2 0x3BB2 JUMPI PUSH1 0x0 DUP1 REVERT JUMPDEST DUP2 MLOAD PUSH1 0xFF DUP2 AND DUP2 EQ PUSH2 0x3184 JUMPI PUSH1 0x0 DUP1 REVERT JUMPDEST PUSH1 0x0 DUP3 PUSH2 0x3BE0 JUMPI PUSH4 0x4E487B71 PUSH1 0xE0 SHL PUSH1 0x0 MSTORE PUSH1 0x12 PUSH1 0x4 MSTORE PUSH1 0x24 PUSH1 0x0 REVERT JUMPDEST POP DIV SWAP1 JUMP JUMPDEST PUSH1 0x1 PUSH1 0x1 PUSH1 0xA0 SHL SUB DUP4 AND DUP2 MSTORE PUSH1 0x40 PUSH1 0x20 DUP3 ADD DUP2 SWAP1 MSTORE PUSH1 0x0 SWAP1 PUSH2 0x3359 SWAP1 DUP4 ADD DUP5 PUSH2 0x3AF9 JUMP JUMPDEST PUSH1 0x0 DUP1 PUSH1 0x0 PUSH1 0x60 DUP5 DUP7 SUB SLT ISZERO PUSH2 0x3C1E JUMPI PUSH1 0x0 DUP1 REVERT JUMPDEST DUP4 MLOAD PUSH1 0x3 DUP2 LT PUSH2 0x3C2D JUMPI PUSH1 0x0 DUP1 REVERT JUMPDEST PUSH1 0x20 DUP6 ADD MLOAD PUSH1 0x40 SWAP1 SWAP6 ADD MLOAD SWAP1 SWAP7 SWAP5 SWAP6 POP SWAP4 SWAP3 POP POP POP JUMP JUMPDEST PUSH1 0x20 DUP1 DUP3 MSTORE PUSH1 0x21 SWAP1 DUP3 ADD MSTORE PUSH32 0x4C616D706F7274426173653A20417574686F72697A6174696F6E206661696C65 PUSH1 0x40 DUP3 ADD MSTORE PUSH1 0x19 PUSH1 0xFA SHL PUSH1 0x60 DUP3 ADD MSTORE PUSH1 0x80 ADD SWAP1 JUMP JUMPDEST DUP2 DUP2 SUB PUSH2 0x3C90 JUMPI POP POP JUMP JUMPDEST PUSH2 0x3C9A DUP3 SLOAD PUSH2 0x38EE JUMP JUMPDEST PUSH8 0xFFFFFFFFFFFFFFFF DUP2 GT ISZERO PUSH2 0x3CB2 JUMPI PUSH2 0x3CB2 PUSH2 0x31D0 JUMP JUMPDEST PUSH2 0x3CC0 DUP2 PUSH2 0x3999 DUP5 SLOAD PUSH2 0x38EE JUMP JUMPDEST PUSH1 0x0 PUSH1 0x1F DUP3 GT PUSH1 0x1 DUP2 EQ PUSH2 0x3CF4 JUMPI PUSH1 0x0 DUP4 ISZERO PUSH2 0x3CDC JUMPI POP DUP5 DUP3 ADD SLOAD JUMPDEST PUSH1 0x0 NOT PUSH1 0x3 DUP6 SWAP1 SHL SHR NOT AND PUSH1 0x1 DUP5 SWAP1 SHL OR DUP5 SSTORE PUSH2 0x3D59 JUMP JUMPDEST PUSH1 0x0 DUP6 DUP2 MSTORE PUSH1 0x20 SWAP1 KECCAK256 PUSH1 0x1F NOT DUP5 AND SWAP1 PUSH1 0x0 DUP7 DUP2 MSTORE PUSH1 0x20 SWAP1 KECCAK256 DUP5 JUMPDEST DUP4 DUP2 LT ISZERO PUSH2 0x3D2E JUMPI DUP3 DUP7 ADD SLOAD DUP3 SSTORE PUSH1 0x1 SWAP6 DUP7 ADD SWAP6 SWAP1 SWAP2 ADD SWAP1 PUSH1 0x20 ADD PUSH2 0x3D0E JUMP JUMPDEST POP DUP6 DUP4 LT ISZERO PUSH2 0x3D4C JUMPI DUP2 DUP6 ADD SLOAD PUSH1 0x0 NOT PUSH1 0x3 DUP9 SWAP1 SHL PUSH1 0xF8 AND SHR NOT AND DUP2 SSTORE JUMPDEST POP POP POP PUSH1 0x1 DUP4 PUSH1 0x1 SHL ADD DUP5 SSTORE JUMPDEST POP POP POP POP POP JUMP INVALID 0x4F PUSH15 0x6C7920746865206F6E72616D702063 PUSH16 0x6E74726163742063616E20636861A264 PUSH10 0x70667358221220E3A466 PUSH20 0x3D1EA10CA2B3A7D4B809691AFFFCA3A73487981F SWAP3 LOG1 0xC8 SELFDESTRUCT DUP11 0x4C 0xE8 PUSH19 0x64736F6C634300081400330000000000000000 ",
  "sha1": "c472bcaff9f98c07a08f8304ec405231c686e19a",
  "source": "// SPDX-License-Identifier: MIT\n\npragma solidity ^0.8.0;\n\ninterface ILamportBase {\n\n    enum KeyType { MASTER, ORACLE, DELETED }\n\n    function performLamportMasterCheck(\n        bytes32[2][256] calldata currentpub,\n        bytes[256] calldata sig,\n        bytes32 nextPKH,\n        bytes memory prepacked\n    ) external returns (bool);\n    \n    function performLamportOracleCheck(\n        bytes32[2][256] calldata currentpub,\n        bytes[256] calldata sig,\n        bytes32 nextPKH,\n        bytes memory prepacked\n    ) external returns (bool);\n\n    function getKeyAndIndexByPKH(bytes32 pkh) external view returns (KeyType, bytes32, uint);\n}\n\ninterface IAnonID {\n    function incrementMinutesPlayed(address user, uint256 _minutes) external;\n    function updateLastPlayed(address _address, string memory _gameId) external;\n    function isWhitelisted(address _address) external view returns (bool);\n    function isPlayerActiveInGame(string memory gameID, address player) external view returns (uint8);\n    function commissionAddress() external view returns (address);\n    function coinCommission() external view returns (uint256);\n}\n// MintyDatabase contract inheriting from AnonID\ncontract PlayerDatabase  {\n    // ERC20 Token variables\n    // string public name;\n    // string public symbol;\n    // uint8 public decimals;\n    // uint256 public totalSupply;\n    //uint256 public gameID; // Variable to store the game ID \n    mapping(string => bool) public gameServerIPs; // Mapping to store game server IPs\n    mapping(address => uint256) public balanceOf;\n    mapping(address => mapping(address => uint256)) public allowance;\n    mapping(address => address) private proposedAnonIDContractAddresses;\n    mapping(address => address) private proposedGameValContractAddresses;\n    mapping(address => address) private proposedOnrampContractAddresses;\n    mapping(address => address) private proposedForumContractAddresses;\n\n\n\n    string gameID = \"TFC\"; // Define your game ID for TFC\n    string[] public serverIPList; // Array for listing all server IPs\n\n    // Player Database variables\n    struct Player {\n        bool isRegistered;\n        bool isValidator;\n        bool isModerator;\n        bool isTourneyMod;\n        bool isGameAdmin;\n        bool isOnboardQueuer;\n        bool isOnboardRegistrar;\n        string playerName; // Name of the player\n        bytes32 forumKey; // Unique key for forum entitlements\n        string steamID;\n        address rewardAddress;\n        uint256 oracleKeyIndex1;\n        uint256 oracleKeyIndex2;\n    }\n\n    mapping(address => Player) public playerData;\n    address[] public playerAddresses;\n\n    // Shared variables\n    address public gameValContract; // Address of the game subcontractor\n    IAnonID public anonIDContract; // Reference to the AnonID contract\n    address public onrampContract; // Address of the onramp contract\n    address public forumContract; // Address of the forum contract\n    ILamportBase public lamportBase; // Reference to the lamportBase contract\n    bytes32 private lastUsedNextPKH;\n\n    // Events\n    event ForumContractUpdated(address indexed newForumContract);\n    event AnonIDContractUpdated(address indexed newAnonIDContract);\n    event GameValContractUpdated(address indexed newGameValContract);\n    event OnrampContractUpdated(address indexed newOnrampContract);\n    event Transfer(address indexed from, address indexed to, uint256 value);\n    event Approval(address indexed owner, address indexed spender, uint256 value);\n\n\n    // Constructor\n    //constructor(string memory _name, string memory _symbol, uint8 _decimals) { //}, uint256 _totalSupply) {\n    constructor(address _lamportBase, address _anonID) {\n        lamportBase = ILamportBase(_lamportBase);\n        anonIDContract = IAnonID(_anonID);\n    }\n    function isValidator(address _address) public view returns (bool) {\n        return playerData[_address].isValidator;\n    }\n    function isModerator(address _address) public view returns (bool) {\n        return playerData[_address].isModerator;\n    }\n\n    function isRegistered(address _address) public view returns (bool) {\n        return playerData[_address].isRegistered;\n    }\n    \n    function isTourneyMod(address _address) public view returns (bool) {\n        return playerData[_address].isTourneyMod;\n    }\n    \n    function isGameAdmin(address _address) public view returns (bool) {\n        return playerData[_address].isGameAdmin;\n    }\n    \n    function isOnboardQueuer(address _address) public view returns (bool) {\n        return playerData[_address].isOnboardQueuer;\n    }\n    \n    function isOnboardRegistrar(address _address) public view returns (bool) {\n        return playerData[_address].isOnboardRegistrar;\n    }\n\n    function commissionAddress_() external view returns (address) {\n        return anonIDContract.commissionAddress();\n    }\n\n    function coinCommission_() external view returns (uint256) {\n        return anonIDContract.coinCommission();\n    }\n    function getOracleKeyIndices(address _address) public view returns (uint256, uint256) {\n        require(isRegistered(_address), \"Player is not registered\");\n        return (playerData[_address].oracleKeyIndex1, playerData[_address].oracleKeyIndex2);\n    }\n    // function getRewardAddressesByNames(string[] memory playerNames) public view returns (address[] memory) {\n    //     address[] memory rewardAddresses = new address[](playerNames.length);\n\n    //     for (uint i = 0; i < playerNames.length; i++) {\n    //         for (uint j = 0; j < playerAddresses.length; j++) {\n    //             if (keccak256(abi.encodePacked(playerData[playerAddresses[j]].playerName)) == keccak256(abi.encodePacked(playerNames[i]))) {\n    //                 rewardAddresses[i] = playerData[playerAddresses[j]].rewardAddress;\n    //                 break; // Stop the inner loop once the address is found\n    //             }\n    //         }\n    //     }\n\n    //     return rewardAddresses;\n    // }\n    function getValidRewardAddressesByNames(string[] memory playerNames, uint256 lastMintTime) public returns (address[] memory) {\n\n        require(msg.sender == gameValContract, \"Only the game validator contract can access this list\");\n    \n        address[] memory validRewardAddresses = new address[](playerNames.length);\n\n        for (uint i = 0; i < playerNames.length; i++) {\n            for (uint j = 0; j < playerAddresses.length; j++) {\n                if (keccak256(abi.encodePacked(playerData[playerAddresses[j]].playerName)) == keccak256(abi.encodePacked(playerNames[i]))) {\n                    uint8 playerStatus = anonIDContract.isPlayerActiveInGame(gameID, playerAddresses[j]);\n\n                    if (playerStatus == 2) { // Player already minted for TFC\n                        validRewardAddresses[i] = playerData[playerAddresses[j]].rewardAddress;\n                        // Increment the minutes played using lastMintTime\n                        uint256 minutesPlayed = lastMintTime / 60; // Convert seconds to minutes\n                        anonIDContract.incrementMinutesPlayed(playerAddresses[j], minutesPlayed);\n                        anonIDContract.updateLastPlayed(playerAddresses[j], gameID);\n\n                    } else if (playerStatus == 0) { // Player not in a game, flag as active\n                        anonIDContract.updateLastPlayed(playerAddresses[j], gameID);\n                        // block.timestamp - lastMintTime = i\n                        // Do not include this player in the reward addresses for this round\n                    }\n                    break; // Stop the inner loop once the player is processed\n                }\n            }\n        }\n\n        return validRewardAddresses;\n    }\n    // // Function to interact with AnonID contract\n    // function updateAnonIDData(address _user, uint256 _minutes, uint256 _gameId) public {\n    //     // Ensure the caller has permission to update AnonID data\n    //     anonIDContract.incrementMinutesPlayed(_user, _minutes);\n    //     anonIDContract.updateLastPlayed(_user, _gameId);\n    // }// validator does this\n\n    // Player Database functions\n    // Assuming IAnonID interface and anonIDContract are already defined and set up in your contract\n    function updateGameServerIP(\n        string memory serverIP,\n        bool add,\n        bytes32[2][256] calldata currentpub,\n        bytes[256] calldata sig,\n        bytes32 nextPKH\n    ) public {\n        // Calculate pkh from currentpub\n        bytes32 pkh = keccak256(abi.encodePacked(currentpub));\n\n        // Perform Lamport Oracle check with \"1\" as the prepacked value\n\n\n        // Retrieve oracle key index and type by PKH\n        (, , uint index) = lamportBase.getKeyAndIndexByPKH(pkh);\n\n        // Retrieve player's oracle key indices\n        (uint256 oracleKeyIndex1, uint256 oracleKeyIndex2) = getOracleKeyIndices(msg.sender);\n\n        // Ensure the current index matches one of the player's oracle key indices\n        require(\n            index == oracleKeyIndex1 || index == oracleKeyIndex2,\n            \"Caller's oracle key index does not match\"\n        );\n\n        // Proceed with the original logic after passing the oracle check and index match\n        require(playerData[msg.sender].isGameAdmin, \"Caller is not a game admin\");\n        require(\n            lamportBase.performLamportOracleCheck(\n                currentpub,\n                sig,\n                nextPKH,\n                abi.encodePacked(serverIP)\n            ),\n            \"Lamport oracle check failed\"\n        );\n        if (add) {\n            if (!gameServerIPs[serverIP]) {\n                gameServerIPs[serverIP] = true;\n                serverIPList.push(serverIP);\n            }\n        } else {\n            if (gameServerIPs[serverIP]) {\n                gameServerIPs[serverIP] = false;\n                removeServerIPFromArray(serverIP);\n            }\n        }\n    }\n    // Helper function to remove a server IP from the array\n    function removeServerIPFromArray(string memory serverIP) private {\n\n        require(playerData[msg.sender].isGameAdmin, \"Caller is not a game admin\");\n        for (uint i = 0; i < serverIPList.length; i++) {\n            if (keccak256(abi.encodePacked(serverIPList[i])) == keccak256(abi.encodePacked(serverIP))) {\n                // Update the mapping to reflect the server IP is no longer registered\n                gameServerIPs[serverIP] = false;\n\n                // Remove the server IP from the array\n                serverIPList[i] = serverIPList[serverIPList.length - 1];\n                serverIPList.pop();\n                break;\n            }\n        }\n    }\n\n    // Function to get the full list of server IPs\n    function getAllServerIPs() public view returns (string[] memory) {\n        return serverIPList;\n    }\n    // function addOrUpdatePlayer(address _address, string memory _steamID, bool _isValidator, bool _isRegistered, string memory _playerName) public {\n    //     require(msg.sender == onrampContract, \"Only the onramp contract can add/update players\");\n    //     require(anonIDContract.isWhitelisted(_address), \"Address not whitelisted in AnonID\");\n\n    //     Player storage player = playerData[_address];\n    //     bool alreadyRegistered = player.isRegistered;\n\n    //     playerData[_address] = Player({\n    //         steamID: _steamID,\n    //         isValidator: _isValidator,\n    //         isRegistered: _isRegistered,\n    //         rewardAddress: _address,\n    //         playerName: _playerName,\n    //         // Zero out or set default values for the non-argument fields\n    //         isModerator: false,\n    //         isTourneyMod: false,\n    //         isGameAdmin: false,\n    //         forumKey: 0 // Assuming 0 is the default value for forumKey\n    //     });\n\n    //     if (!alreadyRegistered) {\n    //         playerAddresses.push(_address);\n    //     }\n    // }\n    function addOrUpdatePlayer(\n        address _address,\n        string memory _steamID,\n        string memory _playerName,\n        uint256 _oracleKeyIndex1, // Revert for new players if this is 0\n        uint256 _oracleKeyIndex2,\n        address _rewardAddress\n    ) \n        public \n    {\n        require(msg.sender == onrampContract, \"Only the onramp contract can add/update players\");\n        require(anonIDContract.isWhitelisted(_address), \"Address not whitelisted in AnonID\");\n\n        Player storage player = playerData[_address];\n        if (player.isRegistered) {\n            // Update existing player data\n            player.steamID = _steamID;\n            player.playerName = _playerName;\n            if (_rewardAddress != address(0)) {\n                player.rewardAddress = _rewardAddress;\n            }\n            else player.rewardAddress = _address;\n            // If _oracleKeyIndex is not 0, update the oracleKeyIndex. Otherwise, leave it unchanged.\n            if (_oracleKeyIndex1 != 0) {\n                player.oracleKeyIndex1 = _oracleKeyIndex1;\n            }\n            if (_oracleKeyIndex2 != 0) {\n                player.oracleKeyIndex2 = _oracleKeyIndex2;\n            }\n            // No additional action required for existing players with _oracleKeyIndex = 0\n        } else {\n            // For a new player, revert the transaction if _oracleKeyIndex is 0\n            require(_oracleKeyIndex1 != 0 || _oracleKeyIndex2 != 0, \"Oracle key index cannot be zero for new players\");\n\n            // Since we're here, _oracleKeyIndex is guaranteed not to be 0\n            playerData[_address] = Player({\n                steamID: _steamID,\n                isValidator: false,\n                isRegistered: true,\n                rewardAddress: _address,\n                playerName: _playerName,\n                isModerator: false,\n                isTourneyMod: false,\n                isGameAdmin: false,\n                isOnboardQueuer: false,\n                isOnboardRegistrar: false,\n                forumKey: 0,\n                oracleKeyIndex1: _oracleKeyIndex1, // Directly set the provided index\n                oracleKeyIndex2: _oracleKeyIndex2\n            });\n            playerAddresses.push(_address);\n        }\n    }\n\n\n    // Function to delete a player by address\n    function deletePlayer(address _address) public {\n        require(msg.sender == onrampContract, \"Only the onramp contract can delete players\");\n\n        delete playerData[_address]; // Remove player data from mapping\n\n        // Find and remove address from playerAddresses array\n        for (uint i = 0; i < playerAddresses.length; i++) {\n            if (playerAddresses[i] == _address) {\n                playerAddresses[i] = playerAddresses[playerAddresses.length - 1]; // Swap with the last element\n                playerAddresses.pop(); // Remove the last element\n                break;\n            }\n        }\n    }\n\n\n    function getAllPlayerNames() public view returns (string[] memory) {\n        string[] memory playerNames = new string[](playerAddresses.length);\n\n        for (uint i = 0; i < playerAddresses.length; i++) {\n            Player storage player = playerData[playerAddresses[i]];\n            playerNames[i] = player.playerName;\n        }\n\n        return playerNames;\n    }\n    // ... [Other Player Database functions]\n    // Function to set the AnonID contract address\n\n    function updateAnonIDContractAddressStepOne(\n        bytes32[2][256] calldata currentpub,\n        bytes[256] calldata sig,\n        bytes32 nextPKH,\n        address _anonIDContract\n    ) public {\n        // Encode the new contract address to bytes\n        bytes memory prepacked = abi.encodePacked(_anonIDContract);\n\n        // Directly call performLamportMasterCheck\n        bool isAuthorized = lamportBase.performLamportMasterCheck(currentpub, sig, nextPKH, prepacked);\n        \n        // Ensure that the Lamport Master Check passed\n        require(isAuthorized, \"LamportBase: Authorization failed\");\n\n        // Save the proposed AnonID contract address in a global variable\n        proposedAnonIDContractAddresses[msg.sender] = _anonIDContract;\n        lastUsedNextPKH = nextPKH;\n    }\n\n    function updateAnonIDContractAddressStepTwo(\n        bytes32[2][256] calldata currentpub,\n        bytes[256] calldata sig,\n        bytes32 nextPKH,\n        address _anonIDContract\n    ) public {\n        // Encode the new contract address to bytes\n        bytes memory prepacked = abi.encodePacked(_anonIDContract);\n\n\n        // Check that the proposed contract address matches the address in the current call\n        require(proposedAnonIDContractAddresses[msg.sender] == _anonIDContract, \"Proposed AnonID contract address mismatch\");\n\n        // Check if the used NextPKH matches the last used PKH to prevent replay with the same keys\n        bytes32 currentPKH = keccak256(abi.encodePacked(currentpub));\n        require(lastUsedNextPKH != currentPKH, \"LamportBase: PKH matches last used PKH (use separate second key)\");\n        // Perform the Lamport Master Check again\n        bool isAuthorized = lamportBase.performLamportMasterCheck(currentpub, sig, nextPKH, prepacked);\n\n        // Ensure that the Lamport Master Check passed\n        require(isAuthorized, \"LamportBase: Authorization failed\");\n        \n        // Update the AnonID contract address\n        anonIDContract = IAnonID(_anonIDContract);\n        emit AnonIDContractUpdated(_anonIDContract);\n\n        // Clear the temporary storage\n        delete proposedAnonIDContractAddresses[msg.sender];\n        lastUsedNextPKH = bytes32(0);\n    }\n\n\n    function updateGameValContractAddressStepOne(\n        bytes32[2][256] calldata currentpub,\n        bytes[256] calldata sig,\n        bytes32 nextPKH,\n        address _gameValContract\n    ) public {\n        // Encode the new contract address to bytes for the Lamport check\n        bytes memory prepacked = abi.encodePacked(_gameValContract);\n\n        // Directly call performLamportMasterCheck from lamportBase\n        bool isAuthorized = lamportBase.performLamportMasterCheck(currentpub, sig, nextPKH, prepacked);\n        \n        // Ensure that the Lamport Master Check passed\n        require(isAuthorized, \"Authorization failed for proposed GameVal contract address\");\n\n        // Store the proposed GameVal contract address for the sender\n        proposedGameValContractAddresses[msg.sender] = _gameValContract;\n        lastUsedNextPKH = nextPKH;\n    }\n\n    function updateGameValContractAddressStepTwo(\n        bytes32[2][256] calldata currentpub,\n        bytes[256] calldata sig,\n        bytes32 nextPKH,\n        address _gameValContract\n    ) public {\n        // Encode the new contract address to bytes for the Lamport check\n        bytes memory prepacked = abi.encodePacked(_gameValContract);\n\n        // Perform the Lamport Master Check again\n\n        // Check that the proposed contract address matches the address being confirmed\n        require(proposedGameValContractAddresses[msg.sender] == _gameValContract, \"Proposed GameVal contract address mismatch\");\n\n        // Check if the used NextPKH matches the last used PKH to ensure a different key is used\n        bytes32 currentPKH = keccak256(abi.encodePacked(currentpub));\n        require(lastUsedNextPKH != currentPKH, \"Same PKH used for both steps; use a separate key for confirmation\");\n        bool isAuthorized = lamportBase.performLamportMasterCheck(currentpub, sig, nextPKH, prepacked);\n\n        // Ensure that the Lamport Master Check passed\n        require(isAuthorized, \"Authorization failed on confirmation of GameVal contract address\");\n\n        // Update the GameVal contract address\n        gameValContract = _gameValContract;\n        emit GameValContractUpdated(_gameValContract);\n\n        // Clear the temporary storage\n        delete proposedGameValContractAddresses[msg.sender];\n        lastUsedNextPKH = bytes32(0);\n    }\n\n\n    function updateOnrampContractAddressStepOne(\n        bytes32[2][256] calldata currentpub,\n        bytes[256] calldata sig,\n        bytes32 nextPKH,\n        address _onrampContract\n    ) public {\n        // Encode the new contract address to bytes for the Lamport check\n        bytes memory prepacked = abi.encodePacked(_onrampContract);\n\n        // Perform the Lamport Master Check directly calling lamportBase\n        bool isAuthorized = lamportBase.performLamportMasterCheck(currentpub, sig, nextPKH, prepacked);\n        \n        // Ensure that the Lamport Master Check passed\n        require(isAuthorized, \"Authorization failed for updating Onramp contract address\");\n\n        // Temporarily store the proposed Onramp contract address for the sender\n        proposedOnrampContractAddresses[msg.sender] = _onrampContract;\n        lastUsedNextPKH = nextPKH;\n    }\n    function updateOnrampContractAddressStepTwo(\n        bytes32[2][256] calldata currentpub,\n        bytes[256] calldata sig,\n        bytes32 nextPKH,\n        address _onrampContract\n    ) public {\n        // Encode the new contract address to bytes for the Lamport check\n        bytes memory prepacked = abi.encodePacked(_onrampContract);\n\n        // Perform the Lamport Master Check again\n\n        // Verify that the proposed contract address matches the address being confirmed\n        require(proposedOnrampContractAddresses[msg.sender] == _onrampContract, \"Onramp contract address update mismatch\");\n\n        // Ensure a different key is used for the confirmation step\n        bytes32 currentPKH = keccak256(abi.encodePacked(currentpub));\n        require(lastUsedNextPKH != currentPKH, \"Same PKH used for both steps; use a separate key for confirmation\");\n        bool isAuthorized = lamportBase.performLamportMasterCheck(currentpub, sig, nextPKH, prepacked);\n\n        // Ensure that the Lamport Master Check passed\n        require(isAuthorized, \"Authorization failed on confirmation of Onramp contract address update\");\n\n        // Officially update the Onramp contract address\n        onrampContract = _onrampContract;\n        emit OnrampContractUpdated(_onrampContract);\n\n        // Clear the temporary storage\n        delete proposedOnrampContractAddresses[msg.sender];\n        lastUsedNextPKH = bytes32(0);\n    }\n\n    function updateForumContractAddressStepOne(\n        bytes32[2][256] calldata currentpub,\n        bytes[256] calldata sig,\n        bytes32 nextPKH,\n        address _forumContract\n    ) public {\n        // Encode the new contract address to bytes for the Lamport check\n        bytes memory prepacked = abi.encodePacked(_forumContract);\n\n        // Perform the Lamport Master Check directly calling lamportBase\n        bool isAuthorized = lamportBase.performLamportMasterCheck(currentpub, sig, nextPKH, prepacked);\n        \n        // Ensure that the Lamport Master Check passed\n        require(isAuthorized, \"Authorization failed for proposed update of Forum contract address\");\n\n        // Temporarily store the proposed Forum contract address for the sender\n        proposedForumContractAddresses[msg.sender] = _forumContract;\n        lastUsedNextPKH = nextPKH;\n    }\n\n    function updateForumContractAddressStepTwo(\n        bytes32[2][256] calldata currentpub,\n        bytes[256] calldata sig,\n        bytes32 nextPKH,\n        address _forumContract\n    ) public {\n        // Encode the new contract address to bytes for the Lamport check\n        bytes memory prepacked = abi.encodePacked(_forumContract);\n\n        // Perform the Lamport Master Check again\n\n        // Verify that the proposed contract address matches the address being confirmed\n        require(proposedForumContractAddresses[msg.sender] == _forumContract, \"Forum contract address update mismatch\");\n\n        // Ensure a different key is used for the confirmation step\n        bytes32 currentPKH = keccak256(abi.encodePacked(currentpub));\n        require(lastUsedNextPKH != currentPKH, \"Same PKH used for both steps; use a separate key for confirmation\");\n        bool isAuthorized = lamportBase.performLamportMasterCheck(currentpub, sig, nextPKH, prepacked);\n\n        // Ensure that the Lamport Master Check passed\n        require(isAuthorized, \"Authorization failed on confirmation of Forum contract address update\");\n\n        // Officially update the Forum contract address\n        forumContract = _forumContract;\n        emit ForumContractUpdated(_forumContract);\n\n        // Clear the temporary storage\n        delete proposedForumContractAddresses[msg.sender];\n        lastUsedNextPKH = bytes32(0);\n    }\n    // ... [Previous variables and functions]\n\n    // ... [Rest of the existing contract]\n\n\n    // Function to change a player's moderator status\n    function setModeratorStatus(address _player, bool _status) external {\n        require(msg.sender == forumContract, \"Only the forum contract can modify moderator status\");\n        playerData[_player].isModerator = _status;\n    }\n\n    // Function to change a player's tournament moderator status\n    function setTourneyModStatus(address _player, bool _status) external {\n        require(msg.sender == forumContract, \"Only the forum contract can modify tournament moderator status\");\n        playerData[_player].isTourneyMod = _status;\n    }\n\n    // Function to set or update a player's forum key\n    function setForumKey(address _player, bytes32 _key) external {\n        require(msg.sender == forumContract, \"Only the forum contract can set forum key\");\n        playerData[_player].forumKey = _key;\n    }\n    function setGameAdminStatus(address admin, bool status) external {\n        require(msg.sender == onrampContract, \"Only the onramp contract can change Admin status\");\n        // Add security check to ensure only authorized contract or account can call this\n        playerData[admin].isGameAdmin = status;\n    }\n\n    function setValidatorStatus(address validator, bool status) external {\n        require(msg.sender == onrampContract, \"Only the onramp contract can change Game Validator status\");\n        // Add security check to ensure only authorized contract or account can call this\n        playerData[validator].isValidator = status;\n    }\n    \n    function setOnboardQueuerStatus(address oracle, bool status) external {\n        require(msg.sender == onrampContract, \"Only the onramp contract can change Onboard Queuer status\");\n        // Add security check to ensure only authorized contract or account can call this\n        playerData[oracle].isOnboardQueuer = status;\n    }\n    \n    function setOnboardRegistrarStatus(address oracle, bool status) external {\n        require(msg.sender == onrampContract, \"Only the onramp contract can change Onboard Registrar Status\");\n        // Add security check to ensure only authorized contract or account can call this\n        playerData[oracle].isOnboardRegistrar = status;\n    }\n    // ... [Additional functions and security checks as necessary]\n}\n// pragma solidity ^0.8.0;\n\n// contract TFCPlayAndEarn {\n//     // Other contract variables...\n\n//     struct Submission {\n//         address validator;\n//         string[] names;\n//     }\n//     Submission[] submissions;\n\n//     function processSubmissions(string[] memory rawNames, address validator) public {\n//         require(isValidator(validator), \"Not a validator\");\n//         string[] memory sanitizedNames = sanitizeNames(rawNames);\n        \n//         // Store the sanitized names along with the validator's address\n//         submissions.push(Submission({\n//             validator: validator,\n//             names: sanitizedNames\n//         }));\n//     }\n\n//     function sanitizeNames(string[] memory rawNames) private pure returns (string[] memory) {\n//         string[] memory sanitizedNames = new string[](rawNames.length);\n\n//         for (uint i = 0; i < rawNames.length; i++) {\n//             // Implement sanitation logic\n//             // This might include removing or replacing brackets, punctuation, etc.\n//             sanitizedNames[i] = sanitize(rawNames[i]);\n//         }\n\n//         return sanitizedNames;\n//     }\n\n//     function sanitize(string memory name) private pure returns (string memory) {\n//         // Detailed implementation of the sanitization logic\n//         // Could involve regex replacements or character filtering\n//         // Solidity does not natively support regex, so this might require character-by-character processing\n//     }\n\n//     // Additional functions like isValidator, auditSubmissions, etc.\n// }\n",
  "sourcePath": "contracts/5_Activity_PlayerDatabase.sol",
  "type": "contract"
}