{
  "abi": [
    {
      "inputs": [
        {
          "internalType": "address",
          "name": "_lamportBase",
          "type": "address"
        },
        {
          "internalType": "address",
          "name": "_anonID",
          "type": "address"
        }
      ],
      "stateMutability": "nonpayable",
      "type": "constructor"
    },
    {
      "anonymous": false,
      "inputs": [
        {
          "indexed": true,
          "internalType": "address",
          "name": "newAnonIDContract",
          "type": "address"
        }
      ],
      "name": "AnonIDContractUpdated",
      "type": "event"
    },
    {
      "anonymous": false,
      "inputs": [
        {
          "indexed": true,
          "internalType": "address",
          "name": "owner",
          "type": "address"
        },
        {
          "indexed": true,
          "internalType": "address",
          "name": "spender",
          "type": "address"
        },
        {
          "indexed": false,
          "internalType": "uint256",
          "name": "value",
          "type": "uint256"
        }
      ],
      "name": "Approval",
      "type": "event"
    },
    {
      "anonymous": false,
      "inputs": [
        {
          "indexed": true,
          "internalType": "address",
          "name": "newForumContract",
          "type": "address"
        }
      ],
      "name": "ForumContractUpdated",
      "type": "event"
    },
    {
      "anonymous": false,
      "inputs": [
        {
          "indexed": true,
          "internalType": "address",
          "name": "newGameValContract",
          "type": "address"
        }
      ],
      "name": "GameValContractUpdated",
      "type": "event"
    },
    {
      "anonymous": false,
      "inputs": [
        {
          "indexed": true,
          "internalType": "address",
          "name": "newOnrampContract",
          "type": "address"
        }
      ],
      "name": "OnrampContractUpdated",
      "type": "event"
    },
    {
      "anonymous": false,
      "inputs": [
        {
          "indexed": true,
          "internalType": "address",
          "name": "from",
          "type": "address"
        },
        {
          "indexed": true,
          "internalType": "address",
          "name": "to",
          "type": "address"
        },
        {
          "indexed": false,
          "internalType": "uint256",
          "name": "value",
          "type": "uint256"
        }
      ],
      "name": "Transfer",
      "type": "event"
    },
    {
      "inputs": [
        {
          "internalType": "address",
          "name": "_address",
          "type": "address"
        },
        {
          "internalType": "string",
          "name": "_steamID",
          "type": "string"
        },
        {
          "internalType": "string",
          "name": "_playerName",
          "type": "string"
        },
        {
          "internalType": "uint256",
          "name": "_oracleKeyIndex1",
          "type": "uint256"
        },
        {
          "internalType": "uint256",
          "name": "_oracleKeyIndex2",
          "type": "uint256"
        },
        {
          "internalType": "address",
          "name": "_rewardAddress",
          "type": "address"
        }
      ],
      "name": "addOrUpdatePlayer",
      "outputs": [],
      "stateMutability": "nonpayable",
      "type": "function"
    },
    {
      "inputs": [
        {
          "internalType": "address",
          "name": "",
          "type": "address"
        },
        {
          "internalType": "address",
          "name": "",
          "type": "address"
        }
      ],
      "name": "allowance",
      "outputs": [
        {
          "internalType": "uint256",
          "name": "",
          "type": "uint256"
        }
      ],
      "stateMutability": "view",
      "type": "function"
    },
    {
      "inputs": [],
      "name": "anonIDContract",
      "outputs": [
        {
          "internalType": "contract IAnonID",
          "name": "",
          "type": "address"
        }
      ],
      "stateMutability": "view",
      "type": "function"
    },
    {
      "inputs": [
        {
          "internalType": "address",
          "name": "",
          "type": "address"
        }
      ],
      "name": "balanceOf",
      "outputs": [
        {
          "internalType": "uint256",
          "name": "",
          "type": "uint256"
        }
      ],
      "stateMutability": "view",
      "type": "function"
    },
    {
      "inputs": [],
      "name": "coinCommission_",
      "outputs": [
        {
          "internalType": "uint256",
          "name": "",
          "type": "uint256"
        }
      ],
      "stateMutability": "view",
      "type": "function"
    },
    {
      "inputs": [],
      "name": "commissionAddress_",
      "outputs": [
        {
          "internalType": "address",
          "name": "",
          "type": "address"
        }
      ],
      "stateMutability": "view",
      "type": "function"
    },
    {
      "inputs": [
        {
          "internalType": "address",
          "name": "_address",
          "type": "address"
        }
      ],
      "name": "deletePlayer",
      "outputs": [],
      "stateMutability": "nonpayable",
      "type": "function"
    },
    {
      "inputs": [],
      "name": "forumContract",
      "outputs": [
        {
          "internalType": "address",
          "name": "",
          "type": "address"
        }
      ],
      "stateMutability": "view",
      "type": "function"
    },
    {
      "inputs": [
        {
          "internalType": "string",
          "name": "",
          "type": "string"
        }
      ],
      "name": "gameServerIPs",
      "outputs": [
        {
          "internalType": "bool",
          "name": "",
          "type": "bool"
        }
      ],
      "stateMutability": "view",
      "type": "function"
    },
    {
      "inputs": [],
      "name": "gameValContract",
      "outputs": [
        {
          "internalType": "address",
          "name": "",
          "type": "address"
        }
      ],
      "stateMutability": "view",
      "type": "function"
    },
    {
      "inputs": [],
      "name": "getAllPlayerNames",
      "outputs": [
        {
          "internalType": "string[]",
          "name": "",
          "type": "string[]"
        }
      ],
      "stateMutability": "view",
      "type": "function"
    },
    {
      "inputs": [],
      "name": "getAllServerIPs",
      "outputs": [
        {
          "internalType": "string[]",
          "name": "",
          "type": "string[]"
        }
      ],
      "stateMutability": "view",
      "type": "function"
    },
    {
      "inputs": [
        {
          "internalType": "address",
          "name": "_address",
          "type": "address"
        }
      ],
      "name": "getOracleKeyIndices",
      "outputs": [
        {
          "internalType": "uint256",
          "name": "",
          "type": "uint256"
        },
        {
          "internalType": "uint256",
          "name": "",
          "type": "uint256"
        }
      ],
      "stateMutability": "view",
      "type": "function"
    },
    {
      "inputs": [
        {
          "internalType": "string[]",
          "name": "playerNames",
          "type": "string[]"
        },
        {
          "internalType": "uint256",
          "name": "lastMintTime",
          "type": "uint256"
        }
      ],
      "name": "getValidRewardAddressesByNames",
      "outputs": [
        {
          "internalType": "address[]",
          "name": "",
          "type": "address[]"
        }
      ],
      "stateMutability": "nonpayable",
      "type": "function"
    },
    {
      "inputs": [
        {
          "internalType": "address",
          "name": "_address",
          "type": "address"
        }
      ],
      "name": "isGameAdmin",
      "outputs": [
        {
          "internalType": "bool",
          "name": "",
          "type": "bool"
        }
      ],
      "stateMutability": "view",
      "type": "function"
    },
    {
      "inputs": [
        {
          "internalType": "address",
          "name": "_address",
          "type": "address"
        }
      ],
      "name": "isModerator",
      "outputs": [
        {
          "internalType": "bool",
          "name": "",
          "type": "bool"
        }
      ],
      "stateMutability": "view",
      "type": "function"
    },
    {
      "inputs": [
        {
          "internalType": "address",
          "name": "_address",
          "type": "address"
        }
      ],
      "name": "isOnboardQueuer",
      "outputs": [
        {
          "internalType": "bool",
          "name": "",
          "type": "bool"
        }
      ],
      "stateMutability": "view",
      "type": "function"
    },
    {
      "inputs": [
        {
          "internalType": "address",
          "name": "_address",
          "type": "address"
        }
      ],
      "name": "isOnboardRegistrar",
      "outputs": [
        {
          "internalType": "bool",
          "name": "",
          "type": "bool"
        }
      ],
      "stateMutability": "view",
      "type": "function"
    },
    {
      "inputs": [
        {
          "internalType": "address",
          "name": "_address",
          "type": "address"
        }
      ],
      "name": "isRegistered",
      "outputs": [
        {
          "internalType": "bool",
          "name": "",
          "type": "bool"
        }
      ],
      "stateMutability": "view",
      "type": "function"
    },
    {
      "inputs": [
        {
          "internalType": "address",
          "name": "_address",
          "type": "address"
        }
      ],
      "name": "isTourneyMod",
      "outputs": [
        {
          "internalType": "bool",
          "name": "",
          "type": "bool"
        }
      ],
      "stateMutability": "view",
      "type": "function"
    },
    {
      "inputs": [
        {
          "internalType": "address",
          "name": "_address",
          "type": "address"
        }
      ],
      "name": "isValidator",
      "outputs": [
        {
          "internalType": "bool",
          "name": "",
          "type": "bool"
        }
      ],
      "stateMutability": "view",
      "type": "function"
    },
    {
      "inputs": [],
      "name": "lamportBase",
      "outputs": [
        {
          "internalType": "contract ILamportBase",
          "name": "",
          "type": "address"
        }
      ],
      "stateMutability": "view",
      "type": "function"
    },
    {
      "inputs": [],
      "name": "onrampContract",
      "outputs": [
        {
          "internalType": "address",
          "name": "",
          "type": "address"
        }
      ],
      "stateMutability": "view",
      "type": "function"
    },
    {
      "inputs": [
        {
          "internalType": "uint256",
          "name": "",
          "type": "uint256"
        }
      ],
      "name": "playerAddresses",
      "outputs": [
        {
          "internalType": "address",
          "name": "",
          "type": "address"
        }
      ],
      "stateMutability": "view",
      "type": "function"
    },
    {
      "inputs": [
        {
          "internalType": "address",
          "name": "",
          "type": "address"
        }
      ],
      "name": "playerData",
      "outputs": [
        {
          "internalType": "bool",
          "name": "isRegistered",
          "type": "bool"
        },
        {
          "internalType": "bool",
          "name": "isValidator",
          "type": "bool"
        },
        {
          "internalType": "bool",
          "name": "isModerator",
          "type": "bool"
        },
        {
          "internalType": "bool",
          "name": "isTourneyMod",
          "type": "bool"
        },
        {
          "internalType": "bool",
          "name": "isGameAdmin",
          "type": "bool"
        },
        {
          "internalType": "bool",
          "name": "isOnboardQueuer",
          "type": "bool"
        },
        {
          "internalType": "bool",
          "name": "isOnboardRegistrar",
          "type": "bool"
        },
        {
          "internalType": "string",
          "name": "playerName",
          "type": "string"
        },
        {
          "internalType": "bytes32",
          "name": "forumKey",
          "type": "bytes32"
        },
        {
          "internalType": "string",
          "name": "steamID",
          "type": "string"
        },
        {
          "internalType": "address",
          "name": "rewardAddress",
          "type": "address"
        },
        {
          "internalType": "uint256",
          "name": "oracleKeyIndex1",
          "type": "uint256"
        },
        {
          "internalType": "uint256",
          "name": "oracleKeyIndex2",
          "type": "uint256"
        }
      ],
      "stateMutability": "view",
      "type": "function"
    },
    {
      "inputs": [
        {
          "internalType": "uint256",
          "name": "",
          "type": "uint256"
        }
      ],
      "name": "serverIPList",
      "outputs": [
        {
          "internalType": "string",
          "name": "",
          "type": "string"
        }
      ],
      "stateMutability": "view",
      "type": "function"
    },
    {
      "inputs": [
        {
          "internalType": "address",
          "name": "_player",
          "type": "address"
        },
        {
          "internalType": "bytes32",
          "name": "_key",
          "type": "bytes32"
        }
      ],
      "name": "setForumKey",
      "outputs": [],
      "stateMutability": "nonpayable",
      "type": "function"
    },
    {
      "inputs": [
        {
          "internalType": "address",
          "name": "admin",
          "type": "address"
        },
        {
          "internalType": "bool",
          "name": "status",
          "type": "bool"
        }
      ],
      "name": "setGameAdminStatus",
      "outputs": [],
      "stateMutability": "nonpayable",
      "type": "function"
    },
    {
      "inputs": [
        {
          "internalType": "address",
          "name": "_player",
          "type": "address"
        },
        {
          "internalType": "bool",
          "name": "_status",
          "type": "bool"
        }
      ],
      "name": "setModeratorStatus",
      "outputs": [],
      "stateMutability": "nonpayable",
      "type": "function"
    },
    {
      "inputs": [
        {
          "internalType": "address",
          "name": "oracle",
          "type": "address"
        },
        {
          "internalType": "bool",
          "name": "status",
          "type": "bool"
        }
      ],
      "name": "setOnboardQueuerStatus",
      "outputs": [],
      "stateMutability": "nonpayable",
      "type": "function"
    },
    {
      "inputs": [
        {
          "internalType": "address",
          "name": "oracle",
          "type": "address"
        },
        {
          "internalType": "bool",
          "name": "status",
          "type": "bool"
        }
      ],
      "name": "setOnboardRegistrarStatus",
      "outputs": [],
      "stateMutability": "nonpayable",
      "type": "function"
    },
    {
      "inputs": [
        {
          "internalType": "address",
          "name": "_player",
          "type": "address"
        },
        {
          "internalType": "bool",
          "name": "_status",
          "type": "bool"
        }
      ],
      "name": "setTourneyModStatus",
      "outputs": [],
      "stateMutability": "nonpayable",
      "type": "function"
    },
    {
      "inputs": [
        {
          "internalType": "address",
          "name": "validator",
          "type": "address"
        },
        {
          "internalType": "bool",
          "name": "status",
          "type": "bool"
        }
      ],
      "name": "setValidatorStatus",
      "outputs": [],
      "stateMutability": "nonpayable",
      "type": "function"
    },
    {
      "inputs": [
        {
          "internalType": "bytes32[2][256]",
          "name": "currentpub",
          "type": "bytes32[2][256]"
        },
        {
          "internalType": "bytes[256]",
          "name": "sig",
          "type": "bytes[256]"
        },
        {
          "internalType": "bytes32",
          "name": "nextPKH",
          "type": "bytes32"
        },
        {
          "internalType": "address",
          "name": "_anonIDContract",
          "type": "address"
        }
      ],
      "name": "updateAnonIDContractAddressStepOne",
      "outputs": [],
      "stateMutability": "nonpayable",
      "type": "function"
    },
    {
      "inputs": [
        {
          "internalType": "bytes32[2][256]",
          "name": "currentpub",
          "type": "bytes32[2][256]"
        },
        {
          "internalType": "bytes[256]",
          "name": "sig",
          "type": "bytes[256]"
        },
        {
          "internalType": "bytes32",
          "name": "nextPKH",
          "type": "bytes32"
        },
        {
          "internalType": "address",
          "name": "_anonIDContract",
          "type": "address"
        }
      ],
      "name": "updateAnonIDContractAddressStepTwo",
      "outputs": [],
      "stateMutability": "nonpayable",
      "type": "function"
    },
    {
      "inputs": [
        {
          "internalType": "bytes32[2][256]",
          "name": "currentpub",
          "type": "bytes32[2][256]"
        },
        {
          "internalType": "bytes[256]",
          "name": "sig",
          "type": "bytes[256]"
        },
        {
          "internalType": "bytes32",
          "name": "nextPKH",
          "type": "bytes32"
        },
        {
          "internalType": "address",
          "name": "_forumContract",
          "type": "address"
        }
      ],
      "name": "updateForumContractAddressStepOne",
      "outputs": [],
      "stateMutability": "nonpayable",
      "type": "function"
    },
    {
      "inputs": [
        {
          "internalType": "bytes32[2][256]",
          "name": "currentpub",
          "type": "bytes32[2][256]"
        },
        {
          "internalType": "bytes[256]",
          "name": "sig",
          "type": "bytes[256]"
        },
        {
          "internalType": "bytes32",
          "name": "nextPKH",
          "type": "bytes32"
        },
        {
          "internalType": "address",
          "name": "_forumContract",
          "type": "address"
        }
      ],
      "name": "updateForumContractAddressStepTwo",
      "outputs": [],
      "stateMutability": "nonpayable",
      "type": "function"
    },
    {
      "inputs": [
        {
          "internalType": "string",
          "name": "serverIP",
          "type": "string"
        },
        {
          "internalType": "bool",
          "name": "add",
          "type": "bool"
        },
        {
          "internalType": "bytes32[2][256]",
          "name": "currentpub",
          "type": "bytes32[2][256]"
        },
        {
          "internalType": "bytes[256]",
          "name": "sig",
          "type": "bytes[256]"
        },
        {
          "internalType": "bytes32",
          "name": "nextPKH",
          "type": "bytes32"
        }
      ],
      "name": "updateGameServerIP",
      "outputs": [],
      "stateMutability": "nonpayable",
      "type": "function"
    },
    {
      "inputs": [
        {
          "internalType": "bytes32[2][256]",
          "name": "currentpub",
          "type": "bytes32[2][256]"
        },
        {
          "internalType": "bytes[256]",
          "name": "sig",
          "type": "bytes[256]"
        },
        {
          "internalType": "bytes32",
          "name": "nextPKH",
          "type": "bytes32"
        },
        {
          "internalType": "address",
          "name": "_gameValContract",
          "type": "address"
        }
      ],
      "name": "updateGameValContractAddressStepOne",
      "outputs": [],
      "stateMutability": "nonpayable",
      "type": "function"
    },
    {
      "inputs": [
        {
          "internalType": "bytes32[2][256]",
          "name": "currentpub",
          "type": "bytes32[2][256]"
        },
        {
          "internalType": "bytes[256]",
          "name": "sig",
          "type": "bytes[256]"
        },
        {
          "internalType": "bytes32",
          "name": "nextPKH",
          "type": "bytes32"
        },
        {
          "internalType": "address",
          "name": "_gameValContract",
          "type": "address"
        }
      ],
      "name": "updateGameValContractAddressStepTwo",
      "outputs": [],
      "stateMutability": "nonpayable",
      "type": "function"
    },
    {
      "inputs": [
        {
          "internalType": "bytes32[2][256]",
          "name": "currentpub",
          "type": "bytes32[2][256]"
        },
        {
          "internalType": "bytes[256]",
          "name": "sig",
          "type": "bytes[256]"
        },
        {
          "internalType": "bytes32",
          "name": "nextPKH",
          "type": "bytes32"
        },
        {
          "internalType": "address",
          "name": "_onrampContract",
          "type": "address"
        }
      ],
      "name": "updateOnrampContractAddressStepOne",
      "outputs": [],
      "stateMutability": "nonpayable",
      "type": "function"
    },
    {
      "inputs": [
        {
          "internalType": "bytes32[2][256]",
          "name": "currentpub",
          "type": "bytes32[2][256]"
        },
        {
          "internalType": "bytes[256]",
          "name": "sig",
          "type": "bytes[256]"
        },
        {
          "internalType": "bytes32",
          "name": "nextPKH",
          "type": "bytes32"
        },
        {
          "internalType": "address",
          "name": "_onrampContract",
          "type": "address"
        }
      ],
      "name": "updateOnrampContractAddressStepTwo",
      "outputs": [],
      "stateMutability": "nonpayable",
      "type": "function"
    }
  ],
  "bytecode": "60c0604052600360809081526254464360e81b60a0526007906100229082610120565b5034801561002f57600080fd5b50604051613fa3380380613fa383398101604081905261004e916101fb565b600f80546001600160a01b039384166001600160a01b031991821617909155600c805492909316911617905561022e565b634e487b7160e01b600052604160045260246000fd5b600181811c908216806100a957607f821691505b6020821081036100c957634e487b7160e01b600052602260045260246000fd5b50919050565b601f82111561011b576000816000526020600020601f850160051c810160208610156100f85750805b601f850160051c820191505b8181101561011757828155600101610104565b5050505b505050565b81516001600160401b038111156101395761013961007f565b61014d816101478454610095565b846100cf565b602080601f831160018114610182576000841561016a5750858301515b600019600386901b1c1916600185901b178555610117565b600085815260208120601f198616915b828110156101b157888601518255948401946001909101908401610192565b50858210156101cf5787850151600019600388901b60f8161c191681555b5050505050600190811b01905550565b80516001600160a01b03811681146101f657600080fd5b919050565b6000806040838503121561020e57600080fd5b610217836101df565b9150610225602084016101df565b90509250929050565b613d668061023d6000396000f3fe608060405234801561001057600080fd5b506004361061025e5760003560e01c80637f97ecc311610146578063bac7e032116100c3578063dd62ed3e11610087578063dd62ed3e14610639578063e9fc174e14610664578063f107f87714610677578063f34c9fbe1461068a578063fa6f39361461069d578063facd743b146106cf57600080fd5b8063bac7e032146105b4578063bb517946146105c7578063c3c5a547146105da578063d90afa2b14610606578063da76a7001461061957600080fd5b806395df06401161010a57806395df064014610540578063ac2c34ef14610573578063ac4bcd0114610586578063aca2490b1461058e578063aeb15a6d146105a157600080fd5b80637f97ecc3146104b25780638098dcff146104e557806385d8f13d146104fa578063862dfd3e1461051a578063910fcd5a1461052d57600080fd5b806334a88c5b116101df578063451b6373116101a3578063451b6373146103ed57806356bf7b5714610403578063573088da146104165780635889fb341461044b5780635d3f33961461045e57806370a082311461049257600080fd5b806334a88c5b1461034057806338a0b5c6146103685780633a45e156146103a65780633fe7829f146103ae578063424aeded146103c157600080fd5b80631ccee0cc116102265780631ccee0cc146102e157806325aacfa3146102f4578063285edaa6146103075780632b864feb1461031a57806330a3db7e1461032d57600080fd5b806302b8c2611461026357806307fd3bbf1461027857806312243b671461028b57806315c6aee21461029e5780631881f255146102ce575b600080fd5b610276610271366004613068565b610700565b005b6102766102863660046130c5565b6107ac565b610276610299366004613134565b6108f7565b6102b16102ac366004613158565b610ad4565b6040516001600160a01b0390911681526020015b60405180910390f35b6102766102dc366004613171565b610afe565b6102766102ef3660046130c5565b610b89565b6102766103023660046130c5565b610de0565b610276610315366004613068565b610f2b565b6102766103283660046130c5565b610fd4565b61027661033b366004613254565b61112a565b61035361034e366004613134565b6115bf565b604080519283526020830191909152016102c5565b6103966103763660046132f1565b805160208183018101805160008252928201919093012091525460ff1681565b60405190151581526020016102c5565b6102b1611651565b600d546102b1906001600160a01b031681565b6103d46103cf366004613134565b6116c4565b6040516102c59d9c9b9a9998979695949392919061337e565b6103f561185c565b6040519081526020016102c5565b600f546102b1906001600160a01b031681565b610396610424366004613134565b6001600160a01b031660009081526009602052604090205465010000000000900460ff1690565b610276610459366004613068565b6118ca565b61039661046c366004613134565b6001600160a01b0316600090815260096020526040902054640100000000900460ff1690565b6103f56104a0366004613134565b60016020526000908152604090205481565b6103966104c0366004613134565b6001600160a01b0316600090815260096020526040902054600160301b900460ff1690565b6104ed611962565b6040516102c5919061341c565b61050d610508366004613480565b611ac0565b6040516102c59190613549565b600c546102b1906001600160a01b031681565b61027661053b366004613596565b611f71565b61039661054e366004613134565b6001600160a01b03166000908152600960205260409020546301000000900460ff1690565b610276610581366004613068565b6122ea565b6104ed612390565b61027661059c366004613068565b612469565b6102766105af3660046130c5565b612508565b6102766105c23660046130c5565b612755565b600e546102b1906001600160a01b031681565b6103966105e8366004613134565b6001600160a01b031660009081526009602052604090205460ff1690565b6102766106143660046130c5565b6129aa565b61062c610627366004613158565b612a9f565b6040516102c5919061362c565b6103f561064736600461363f565b600260209081526000928352604080842090915290825290205481565b610276610672366004613068565b612b4b565b600b546102b1906001600160a01b031681565b6102766106983660046130c5565b612c00565b6103966106ab366004613134565b6001600160a01b031660009081526009602052604090205462010000900460ff1690565b6103966106dd366004613134565b6001600160a01b0316600090815260096020526040902054610100900460ff1690565b600d546001600160a01b031633146107735760405162461bcd60e51b81526020600482015260396024820152600080516020613d1183398151915260448201527f6e6765204f6e626f61726420517565756572207374617475730000000000000060648201526084015b60405180910390fd5b6001600160a01b0390911660009081526009602052604090208054911515650100000000000265ff000000000019909216919091179055565b6000816040516020016107bf919061366d565b60408051601f1981840301815290829052600f5463333f611160e01b83529092506000916001600160a01b039091169063333f6111906108099089908990899088906004016136b3565b6020604051808303816000875af1158015610828573d6000803e3d6000fd5b505050506040513d601f19601f8201168201806040525081019061084c9190613794565b9050806108c15760405162461bcd60e51b815260206004820152603960248201527f417574686f72697a6174696f6e206661696c656420666f72207570646174696e60448201527f67204f6e72616d7020636f6e7472616374206164647265737300000000000000606482015260840161076a565b505033600090815260056020526040902080546001600160a01b0319166001600160a01b03929092169190911790556010555050565b600d546001600160a01b031633146109655760405162461bcd60e51b815260206004820152602b60248201527f4f6e6c7920746865206f6e72616d7020636f6e74726163742063616e2064656c60448201526a65746520706c617965727360a81b606482015260840161076a565b6001600160a01b0381166000908152600960205260408120805466ffffffffffffff19168155906109996001830182612fef565b60028201600090556003820160006109b19190612fef565b506004810180546001600160a01b031916905560006005820181905560069091018190555b600a54811015610ad057816001600160a01b0316600a82815481106109fd576109fd6137b1565b6000918252602090912001546001600160a01b031603610ac857600a8054610a27906001906137c7565b81548110610a3757610a376137b1565b600091825260209091200154600a80546001600160a01b039092169183908110610a6357610a636137b1565b9060005260206000200160006101000a8154816001600160a01b0302191690836001600160a01b03160217905550600a805480610aa257610aa26137e8565b600082815260209020810160001990810180546001600160a01b03191690550190555050565b6001016109d6565b5050565b600a8181548110610ae457600080fd5b6000918252602090912001546001600160a01b0316905081565b600e546001600160a01b03163314610b6a5760405162461bcd60e51b815260206004820152602960248201527f4f6e6c792074686520666f72756d20636f6e74726163742063616e2073657420604482015268666f72756d206b657960b81b606482015260840161076a565b6001600160a01b03909116600090815260096020526040902060020155565b600081604051602001610b9c919061366d565b60408051808303601f19018152918152336000908152600560205220549091506001600160a01b03838116911614610c265760405162461bcd60e51b815260206004820152602760248201527f4f6e72616d7020636f6e7472616374206164647265737320757064617465206d6044820152660d2e6dac2e8c6d60cb1b606482015260840161076a565b600085604051602001610c3991906137fe565b6040516020818303038152906040528051906020012090508060105403610c725760405162461bcd60e51b815260040161076a90613835565b600f5460405163333f611160e01b81526000916001600160a01b03169063333f611190610ca9908a908a908a9089906004016136b3565b6020604051808303816000875af1158015610cc8573d6000803e3d6000fd5b505050506040513d601f19601f82011682018060405250810190610cec9190613794565b905080610d705760405162461bcd60e51b815260206004820152604660248201527f417574686f72697a6174696f6e206661696c6564206f6e20636f6e6669726d6160448201527f74696f6e206f66204f6e72616d7020636f6e747261637420616464726573732060648201526575706461746560d01b608482015260a40161076a565b600d80546001600160a01b0319166001600160a01b0386169081179091556040517f5959e7554218adbe3edb157f744a698c903698e2be92d199d2938afb8b0312ab90600090a2505033600090815260056020526040812080546001600160a01b03191690556010555050505050565b600081604051602001610df3919061366d565b60408051601f1981840301815290829052600f5463333f611160e01b83529092506000916001600160a01b039091169063333f611190610e3d9089908990899088906004016136b3565b6020604051808303816000875af1158015610e5c573d6000803e3d6000fd5b505050506040513d601f19601f82011682018060405250810190610e809190613794565b905080610ef55760405162461bcd60e51b815260206004820152603a60248201527f417574686f72697a6174696f6e206661696c656420666f722070726f706f736560448201527f642047616d6556616c20636f6e74726163742061646472657373000000000000606482015260840161076a565b505033600090815260046020526040902080546001600160a01b0319166001600160a01b03929092169190911790556010555050565b600e546001600160a01b03163314610fa15760405162461bcd60e51b815260206004820152603360248201527f4f6e6c792074686520666f72756d20636f6e74726163742063616e206d6f64696044820152726679206d6f64657261746f722073746174757360681b606482015260840161076a565b6001600160a01b0390911660009081526009602052604090208054911515620100000262ff000019909216919091179055565b600081604051602001610fe7919061366d565b60408051601f1981840301815290829052600f5463333f611160e01b83529092506000916001600160a01b039091169063333f6111906110319089908990899088906004016136b3565b6020604051808303816000875af1158015611050573d6000803e3d6000fd5b505050506040513d601f19601f820116820180604052508101906110749190613794565b9050806110f45760405162461bcd60e51b815260206004820152604260248201527f417574686f72697a6174696f6e206661696c656420666f722070726f706f736560448201527f6420757064617465206f6620466f72756d20636f6e7472616374206164647265606482015261737360f01b608482015260a40161076a565b505033600090815260066020526040902080546001600160a01b0319166001600160a01b03929092169190911790556010555050565b600d546001600160a01b0316331461119c5760405162461bcd60e51b815260206004820152602f60248201527f4f6e6c7920746865206f6e72616d7020636f6e74726163742063616e2061646460448201526e2f75706461746520706c617965727360881b606482015260840161076a565b600c54604051633af32abf60e01b81526001600160a01b03888116600483015290911690633af32abf90602401602060405180830381865afa1580156111e6573d6000803e3d6000fd5b505050506040513d601f19601f8201168201806040525081019061120a9190613794565b6112605760405162461bcd60e51b815260206004820152602160248201527f41646472657373206e6f742077686974656c697374656420696e20416e6f6e496044820152601160fa1b606482015260840161076a565b6001600160a01b0386166000908152600960205260409020805460ff161561131057600381016112908782613921565b506001810161129f8682613921565b506001600160a01b038216156112d1576004810180546001600160a01b0319166001600160a01b0384161790556112ef565b6004810180546001600160a01b0319166001600160a01b0389161790555b83156112fd57600581018490555b821561130b57600681018390555b6115b6565b8315158061131d57508215155b6113815760405162461bcd60e51b815260206004820152602f60248201527f4f7261636c65206b657920696e6465782063616e6e6f74206265207a65726f2060448201526e666f72206e657720706c617965727360881b606482015260840161076a565b604051806101a001604052806001151581526020016000151581526020016000151581526020016000151581526020016000151581526020016000151581526020016000151581526020018681526020016000801b8152602001878152602001886001600160a01b031681526020018581526020018481525060096000896001600160a01b03166001600160a01b0316815260200190815260200160002060008201518160000160006101000a81548160ff02191690831515021790555060208201518160000160016101000a81548160ff02191690831515021790555060408201518160000160026101000a81548160ff02191690831515021790555060608201518160000160036101000a81548160ff02191690831515021790555060808201518160000160046101000a81548160ff02191690831515021790555060a08201518160000160056101000a81548160ff02191690831515021790555060c08201518160000160066101000a81548160ff02191690831515021790555060e08201518160010190816115149190613921565b50610100820151600282015561012082015160038201906115359082613921565b506101408201516004820180546001600160a01b03199081166001600160a01b0393841617909155610160840151600584015561018090930151600690920191909155600a80546001810182556000919091527fc65a7bb8d6351c1cf70c95a316cc6a92839c986682d98bc35f958f4883f9d2a80180549092169089161790555b50505050505050565b6001600160a01b038116600090815260096020526040812054819060ff166116295760405162461bcd60e51b815260206004820152601860248201527f506c61796572206973206e6f7420726567697374657265640000000000000000604482015260640161076a565b50506001600160a01b0316600090815260096020526040902060058101546006909101549091565b600c546040805163931742d360e01b815290516000926001600160a01b03169163931742d39160048083019260209291908290030181865afa15801561169b573d6000803e3d6000fd5b505050506040513d601f19601f820116820180604052508101906116bf91906139e1565b905090565b6009602052600090815260409020805460018201805460ff808416946101008504821694620100008104831694630100000082048416946401000000008304851694650100000000008404811694600160301b909404169291906117279061389c565b80601f01602080910402602001604051908101604052809291908181526020018280546117539061389c565b80156117a05780601f10611775576101008083540402835291602001916117a0565b820191906000526020600020905b81548152906001019060200180831161178357829003601f168201915b5050505050908060020154908060030180546117bb9061389c565b80601f01602080910402602001604051908101604052809291908181526020018280546117e79061389c565b80156118345780601f1061180957610100808354040283529160200191611834565b820191906000526020600020905b81548152906001019060200180831161181757829003601f168201915b505050506004830154600584015460069094015492936001600160a01b03909116929091508d565b600c5460408051638705d94560e01b815290516000926001600160a01b031691638705d9459160048083019260209291908290030181865afa1580156118a6573d6000803e3d6000fd5b505050506040513d601f19601f820116820180604052508101906116bf91906139fe565b600d546001600160a01b0316331461192b5760405162461bcd60e51b81526020600482015260306024820152600080516020613d1183398151915260448201526f6e67652041646d696e2073746174757360801b606482015260840161076a565b6001600160a01b03909116600090815260096020526040902080549115156401000000000264ff0000000019909216919091179055565b600a5460609060009067ffffffffffffffff8111156119835761198361319d565b6040519080825280602002602001820160405280156119b657816020015b60608152602001906001900390816119a15790505b50905060005b600a54811015611aba57600060096000600a84815481106119df576119df6137b1565b60009182526020808320909101546001600160a01b03168352820192909252604001902060018101805491925090611a169061389c565b80601f0160208091040260200160405190810160405280929190818152602001828054611a429061389c565b8015611a8f5780601f10611a6457610100808354040283529160200191611a8f565b820191906000526020600020905b815481529060010190602001808311611a7257829003601f168201915b5050505050838381518110611aa657611aa66137b1565b6020908102919091010152506001016119bc565b50919050565b600b546060906001600160a01b03163314611b3b5760405162461bcd60e51b815260206004820152603560248201527f4f6e6c79207468652067616d652076616c696461746f7220636f6e74726163746044820152740818d85b881858d8d95cdcc81d1a1a5cc81b1a5cdd605a1b606482015260840161076a565b6000835167ffffffffffffffff811115611b5757611b5761319d565b604051908082528060200260200182016040528015611b80578160200160208202803683370190505b50905060005b8451811015611f675760005b600a54811015611f5e57858281518110611bae57611bae6137b1565b6020026020010151604051602001611bc69190613a17565b6040516020818303038152906040528051906020012060096000600a8481548110611bf357611bf36137b1565b60009182526020808320909101546001600160a01b0316835282810193909352604091820190209051611c2d926001929092019101613a33565b6040516020818303038152906040528051906020012003611f5657600c54600a80546000926001600160a01b031691635a725b07916007919086908110611c7657611c766137b1565b6000918252602090912001546040516001600160e01b031960e085901b168152611cad92916001600160a01b031690600401613b26565b602060405180830381865afa158015611cca573d6000803e3d6000fd5b505050506040513d601f19601f82011682018060405250810190611cee9190613b50565b90508060ff16600203611eaf5760096000600a8481548110611d1257611d126137b1565b60009182526020808320909101546001600160a01b0390811684529083019390935260409091019020600401548551911690859085908110611d5657611d566137b1565b6001600160a01b03909216602092830291909101909101526000611d7b603c88613b73565b600c54600a80549293506001600160a01b039091169163d47b2e99919086908110611da857611da86137b1565b60009182526020909120015460405160e083901b6001600160e01b03191681526001600160a01b03909116600482015260248101849052604401600060405180830381600087803b158015611dfc57600080fd5b505af1158015611e10573d6000803e3d6000fd5b5050600c54600a80546001600160a01b039092169350632eb4b54f92509086908110611e3e57611e3e6137b1565b6000918252602090912001546040516001600160e01b031960e084901b168152611e77916001600160a01b031690600790600401613b95565b600060405180830381600087803b158015611e9157600080fd5b505af1158015611ea5573d6000803e3d6000fd5b5050505050611f50565b8060ff16600003611f5057600c54600a80546001600160a01b0390921691632eb4b54f919085908110611ee457611ee46137b1565b6000918252602090912001546040516001600160e01b031960e084901b168152611f1d916001600160a01b031690600790600401613b95565b600060405180830381600087803b158015611f3757600080fd5b505af1158015611f4b573d6000803e3d6000fd5b505050505b50611f5e565b600101611b92565b50600101611b86565b5090505b92915050565b600083604051602001611f8491906137fe565b60408051808303601f19018152908290528051602090910120600f5463b9d57c5f60e01b8352600483018290529092506000916001600160a01b039091169063b9d57c5f90602401606060405180830381865afa158015611fe9573d6000803e3d6000fd5b505050506040513d601f19601f8201168201806040525081019061200d9190613bb9565b9250505060008061201d336115bf565b915091508183148061202e57508083145b61208b5760405162461bcd60e51b815260206004820152602860248201527f43616c6c65722773206f7261636c65206b657920696e64657820646f6573206e6044820152670dee840dac2e8c6d60c31b606482015260840161076a565b33600090815260096020526040902054640100000000900460ff166120f25760405162461bcd60e51b815260206004820152601a60248201527f43616c6c6572206973206e6f7420612067616d652061646d696e000000000000604482015260640161076a565b600f546040516001600160a01b0390911690634a89d52b9089908990899061211e908f90602001613a17565b6040516020818303038152906040526040518563ffffffff1660e01b815260040161214c94939291906136b3565b6020604051808303816000875af115801561216b573d6000803e3d6000fd5b505050506040513d601f19601f8201168201806040525081019061218f9190613794565b6121db5760405162461bcd60e51b815260206004820152601b60248201527f4c616d706f7274206f7261636c6520636865636b206661696c65640000000000604482015260640161076a565b871561227d576000896040516121f19190613a17565b9081526040519081900360200190205460ff1661227857600160008a60405161221a9190613a17565b908152604051908190036020019020805491151560ff19909216919091179055600880546001810182556000919091527ff3f7a9fe364faab93b216da50a3214154f22a0a2b415b23a84c8169e8b636ee3016122768a82613921565b505b6122df565b60008960405161228d9190613a17565b9081526040519081900360200190205460ff16156122df576000808a6040516122b69190613a17565b908152604051908190036020019020805491151560ff199092169190911790556122df89612e4c565b505050505050505050565b600d546001600160a01b031633146123585760405162461bcd60e51b815260206004820152603c6024820152600080516020613d1183398151915260448201527f6e6765204f6e626f617264205265676973747261722053746174757300000000606482015260840161076a565b6001600160a01b0390911660009081526009602052604090208054911515600160301b0266ff00000000000019909216919091179055565b60606008805480602002602001604051908101604052809291908181526020016000905b828210156124605783829060005260206000200180546123d39061389c565b80601f01602080910402602001604051908101604052809291908181526020018280546123ff9061389c565b801561244c5780601f106124215761010080835404028352916020019161244c565b820191906000526020600020905b81548152906001019060200180831161242f57829003601f168201915b5050505050815260200190600101906123b4565b50505050905090565b600d546001600160a01b031633146124d75760405162461bcd60e51b81526020600482015260396024820152600080516020613d1183398151915260448201527f6e67652047616d652056616c696461746f722073746174757300000000000000606482015260840161076a565b6001600160a01b03909116600090815260096020526040902080549115156101000261ff0019909216919091179055565b60008160405160200161251b919061366d565b60408051808303601f19018152918152336000908152600460205220549091506001600160a01b038381169116146125a85760405162461bcd60e51b815260206004820152602a60248201527f50726f706f7365642047616d6556616c20636f6e7472616374206164647265736044820152690e640dad2e6dac2e8c6d60b31b606482015260840161076a565b6000856040516020016125bb91906137fe565b60405160208183030381529060405280519060200120905080601054036125f45760405162461bcd60e51b815260040161076a90613835565b600f5460405163333f611160e01b81526000916001600160a01b03169063333f61119061262b908a908a908a9089906004016136b3565b6020604051808303816000875af115801561264a573d6000803e3d6000fd5b505050506040513d601f19601f8201168201806040525081019061266e9190613794565b9050806126e5576040805162461bcd60e51b81526020600482015260248101919091527f417574686f72697a6174696f6e206661696c6564206f6e20636f6e6669726d6160448201527f74696f6e206f662047616d6556616c20636f6e74726163742061646472657373606482015260840161076a565b600b80546001600160a01b0319166001600160a01b0386169081179091556040517f6f1895f9314e8b91a7a1c3a67319510d05c9d6729515f83cc2eaca70d3e81f8790600090a2505033600090815260046020526040812080546001600160a01b03191690556010555050505050565b600081604051602001612768919061366d565b60408051808303601f19018152918152336000908152600660205220549091506001600160a01b038381169116146127f15760405162461bcd60e51b815260206004820152602660248201527f466f72756d20636f6e7472616374206164647265737320757064617465206d696044820152650e6dac2e8c6d60d31b606482015260840161076a565b60008560405160200161280491906137fe565b604051602081830303815290604052805190602001209050806010540361283d5760405162461bcd60e51b815260040161076a90613835565b600f5460405163333f611160e01b81526000916001600160a01b03169063333f611190612874908a908a908a9089906004016136b3565b6020604051808303816000875af1158015612893573d6000803e3d6000fd5b505050506040513d601f19601f820116820180604052508101906128b79190613794565b90508061293a5760405162461bcd60e51b815260206004820152604560248201527f417574686f72697a6174696f6e206661696c6564206f6e20636f6e6669726d6160448201527f74696f6e206f6620466f72756d20636f6e747261637420616464726573732075606482015264706461746560d81b608482015260a40161076a565b600e80546001600160a01b0319166001600160a01b0386169081179091556040517f78e5262e53e14d17b3058c6b8cf7cd3c2fb92a4172fa393fddd75cb57523b1c690600090a2505033600090815260066020526040812080546001600160a01b03191690556010555050505050565b6000816040516020016129bd919061366d565b60408051601f1981840301815290829052600f5463333f611160e01b83529092506000916001600160a01b039091169063333f611190612a079089908990899088906004016136b3565b6020604051808303816000875af1158015612a26573d6000803e3d6000fd5b505050506040513d601f19601f82011682018060405250810190612a4a9190613794565b905080612a695760405162461bcd60e51b815260040161076a90613bf4565b505033600090815260036020526040902080546001600160a01b0319166001600160a01b03929092169190911790556010555050565b60088181548110612aaf57600080fd5b906000526020600020016000915090508054612aca9061389c565b80601f0160208091040260200160405190810160405280929190818152602001828054612af69061389c565b8015612b435780601f10612b1857610100808354040283529160200191612b43565b820191906000526020600020905b815481529060010190602001808311612b2657829003601f168201915b505050505081565b600e546001600160a01b03163314612bcb5760405162461bcd60e51b815260206004820152603e60248201527f4f6e6c792074686520666f72756d20636f6e74726163742063616e206d6f646960448201527f667920746f75726e616d656e74206d6f64657261746f72207374617475730000606482015260840161076a565b6001600160a01b039091166000908152600960205260409020805491151563010000000263ff00000019909216919091179055565b600081604051602001612c13919061366d565b60408051808303601f19018152918152336000908152600360205220549091506001600160a01b03838116911614612c9f5760405162461bcd60e51b815260206004820152602960248201527f50726f706f73656420416e6f6e494420636f6e74726163742061646472657373604482015268040dad2e6dac2e8c6d60bb1b606482015260840161076a565b600085604051602001612cb291906137fe565b6040516020818303038152906040528051906020012090508060105403612d43576040805162461bcd60e51b81526020600482015260248101919091527f4c616d706f7274426173653a20504b48206d617463686573206c61737420757360448201527f656420504b482028757365207365706172617465207365636f6e64206b657929606482015260840161076a565b600f5460405163333f611160e01b81526000916001600160a01b03169063333f611190612d7a908a908a908a9089906004016136b3565b6020604051808303816000875af1158015612d99573d6000803e3d6000fd5b505050506040513d601f19601f82011682018060405250810190612dbd9190613794565b905080612ddc5760405162461bcd60e51b815260040161076a90613bf4565b600c80546001600160a01b0319166001600160a01b0386169081179091556040517febc4468d0c46ed1b5177ed98bdb5d4ccfc7dd4f9da4caa02b6fd46b1e7be0d4e90600090a2505033600090815260036020526040812080546001600160a01b03191690556010555050505050565b33600090815260096020526040902054640100000000900460ff16612eb35760405162461bcd60e51b815260206004820152601a60248201527f43616c6c6572206973206e6f7420612067616d652061646d696e000000000000604482015260640161076a565b60005b600854811015610ad05781604051602001612ed19190613a17565b6040516020818303038152906040528051906020012060088281548110612efa57612efa6137b1565b90600052602060002001604051602001612f149190613a33565b6040516020818303038152906040528051906020012003612fe75760008083604051612f409190613a17565b908152604051908190036020019020805491151560ff1990921691909117905560088054612f70906001906137c7565b81548110612f8057612f806137b1565b9060005260206000200160088281548110612f9d57612f9d6137b1565b906000526020600020019081612fb39190613c35565b506008805480612fc557612fc56137e8565b600190038181906000526020600020016000612fe19190612fef565b90555050565b600101612eb6565b508054612ffb9061389c565b6000825580601f1061300b575050565b601f016020900490600052602060002090810190613029919061302c565b50565b5b80821115613041576000815560010161302d565b5090565b6001600160a01b038116811461302957600080fd5b801515811461302957600080fd5b6000806040838503121561307b57600080fd5b823561308681613045565b915060208301356130968161305a565b809150509250929050565b806140008101831015611f6b57600080fd5b806120008101831015611f6b57600080fd5b60008060008061406085870312156130dc57600080fd5b6130e686866130a1565b935061400085013567ffffffffffffffff81111561310357600080fd5b61310f878288016130b3565b935050614020850135915061404085013561312981613045565b939692955090935050565b60006020828403121561314657600080fd5b813561315181613045565b9392505050565b60006020828403121561316a57600080fd5b5035919050565b6000806040838503121561318457600080fd5b823561318f81613045565b946020939093013593505050565b634e487b7160e01b600052604160045260246000fd5b604051601f8201601f1916810167ffffffffffffffff811182821017156131dc576131dc61319d565b604052919050565b600082601f8301126131f557600080fd5b813567ffffffffffffffff81111561320f5761320f61319d565b613222601f8201601f19166020016131b3565b81815284602083860101111561323757600080fd5b816020850160208301376000918101602001919091529392505050565b60008060008060008060c0878903121561326d57600080fd5b863561327881613045565b9550602087013567ffffffffffffffff8082111561329557600080fd5b6132a18a838b016131e4565b965060408901359150808211156132b757600080fd5b506132c489828a016131e4565b945050606087013592506080870135915060a08701356132e381613045565b809150509295509295509295565b60006020828403121561330357600080fd5b813567ffffffffffffffff81111561331a57600080fd5b613326848285016131e4565b949350505050565b60005b83811015613349578181015183820152602001613331565b50506000910152565b6000815180845261336a81602086016020860161332e565b601f01601f19169290920160200192915050565b8d151581528c151560208201528b1515604082015260006101a08c151560608401528b151560808401528a151560a084015289151560c08401528060e08401526133ca8184018a613352565b9050876101008401528281036101208401526133e68188613352565b9150506133ff6101408301866001600160a01b03169052565b61016082019390935261018001529b9a5050505050505050505050565b600060208083016020845280855180835260408601915060408160051b87010192506020870160005b8281101561347357603f19888603018452613461858351613352565b94509285019290850190600101613445565b5092979650505050505050565b6000806040838503121561349357600080fd5b823567ffffffffffffffff808211156134ab57600080fd5b818501915085601f8301126134bf57600080fd5b81356020828211156134d3576134d361319d565b8160051b6134e28282016131b3565b928352848101820192828101908a8511156134fc57600080fd5b83870192505b848310156135385782358681111561351a5760008081fd5b6135288c86838b01016131e4565b8352509183019190830190613502565b9a9890920135985050505050505050565b6020808252825182820181905260009190848201906040850190845b8181101561358a5783516001600160a01b031683529284019291840191600101613565565b50909695505050505050565b600080600080600061408086880312156135af57600080fd5b853567ffffffffffffffff808211156135c757600080fd5b6135d389838a016131e4565b9650602088013591506135e58261305a565b8195506135f58960408a016130a1565b945061404088013591508082111561360c57600080fd5b50613619888289016130b3565b9598949750929561406001359392505050565b6020815260006131516020830184613352565b6000806040838503121561365257600080fd5b823561365d81613045565b9150602083013561309681613045565b60609190911b6bffffffffffffffffffffffff1916815260140190565b81835281816020850137506000828201602090810191909152601f909101601f19169091010190565b60006140608281018388845b6101008110156136e0576040808385379283019291909101906001016136bf565b50505061400084019190915261606083018660005b61010081101561376c5785830361405f190184528135368a9003601e1901811261371e57600080fd5b8901602081810191359067ffffffffffffffff82111561373d57600080fd5b81360383131561374c57600080fd5b61375786838561368a565b968101969550939093019250506001016136f5565b5050856140208501528381036140408501526137888186613352565b98975050505050505050565b6000602082840312156137a657600080fd5b81516131518161305a565b634e487b7160e01b600052603260045260246000fd5b81810381811115611f6b57634e487b7160e01b600052601160045260246000fd5b634e487b7160e01b600052603160045260246000fd5b60008183825b61010081101561382557604080838537928301929190910190600101613804565b5050506140008201905092915050565b60208082526041908201527f53616d6520504b48207573656420666f7220626f74682073746570733b20757360408201527f652061207365706172617465206b657920666f7220636f6e6669726d6174696f6060820152603760f91b608082015260a00190565b600181811c908216806138b057607f821691505b602082108103611aba57634e487b7160e01b600052602260045260246000fd5b601f82111561391c576000816000526020600020601f850160051c810160208610156138f95750805b601f850160051c820191505b8181101561391857828155600101613905565b5050505b505050565b815167ffffffffffffffff81111561393b5761393b61319d565b61394f81613949845461389c565b846138d0565b602080601f831160018114613984576000841561396c5750858301515b600019600386901b1c1916600185901b178555613918565b600085815260208120601f198616915b828110156139b357888601518255948401946001909101908401613994565b50858210156139d15787850151600019600388901b60f8161c191681555b5050505050600190811b01905550565b6000602082840312156139f357600080fd5b815161315181613045565b600060208284031215613a1057600080fd5b5051919050565b60008251613a2981846020870161332e565b9190910192915050565b6000808354613a418161389c565b60018281168015613a595760018114613a6e57613a9d565b60ff1984168752821515830287019450613a9d565b8760005260208060002060005b85811015613a945781548a820152908401908201613a7b565b50505082870194505b50929695505050505050565b60008154613ab68161389c565b808552602060018381168015613ad35760018114613aed57613b1b565b60ff1985168884015283151560051b880183019550613b1b565b866000528260002060005b85811015613b135781548a8201860152908301908401613af8565b890184019650505b505050505092915050565b604081526000613b396040830185613aa9565b905060018060a01b03831660208301529392505050565b600060208284031215613b6257600080fd5b815160ff8116811461315157600080fd5b600082613b9057634e487b7160e01b600052601260045260246000fd5b500490565b6001600160a01b038316815260406020820181905260009061332690830184613aa9565b600080600060608486031215613bce57600080fd5b835160038110613bdd57600080fd5b602085015160409095015190969495509392505050565b60208082526021908201527f4c616d706f7274426173653a20417574686f72697a6174696f6e206661696c656040820152601960fa1b606082015260800190565b818103613c40575050565b613c4a825461389c565b67ffffffffffffffff811115613c6257613c6261319d565b613c7081613949845461389c565b6000601f821160018114613ca45760008315613c8c5750848201545b600019600385901b1c1916600184901b178455613d09565b600085815260209020601f19841690600086815260209020845b83811015613cde5782860154825560019586019590910190602001613cbe565b5085831015613cfc5781850154600019600388901b60f8161c191681555b50505060018360011b0184555b505050505056fe4f6e6c7920746865206f6e72616d7020636f6e74726163742063616e20636861a2646970667358221220fd37b8ab3b441d40df44eded3591aca679228373ecd9edc55425a1fab4b6e62d64736f6c63430008190033",
  "bytecodeSha1": "87157a7b749e70b01841a6bd88e312e56b7081c6",
  "compiler": {
    "evm_version": "istanbul",
    "optimizer": {
      "enabled": true,
      "runs": 200
    },
    "version": "0.8.25+commit.b61c2a91"
  },
  "contractName": "PlayerDatabase",
  "language": "Solidity",
  "natspec": {
    "kind": "dev",
    "methods": {},
    "version": 1
  },
  "opcodes": "PUSH1 0x80 PUSH1 0x40 MSTORE CALLVALUE DUP1 ISZERO PUSH2 0x10 JUMPI PUSH1 0x0 DUP1 REVERT JUMPDEST POP PUSH1 0x4 CALLDATASIZE LT PUSH2 0x25E JUMPI PUSH1 0x0 CALLDATALOAD PUSH1 0xE0 SHR DUP1 PUSH4 0x7F97ECC3 GT PUSH2 0x146 JUMPI DUP1 PUSH4 0xBAC7E032 GT PUSH2 0xC3 JUMPI DUP1 PUSH4 0xDD62ED3E GT PUSH2 0x87 JUMPI DUP1 PUSH4 0xDD62ED3E EQ PUSH2 0x639 JUMPI DUP1 PUSH4 0xE9FC174E EQ PUSH2 0x664 JUMPI DUP1 PUSH4 0xF107F877 EQ PUSH2 0x677 JUMPI DUP1 PUSH4 0xF34C9FBE EQ PUSH2 0x68A JUMPI DUP1 PUSH4 0xFA6F3936 EQ PUSH2 0x69D JUMPI DUP1 PUSH4 0xFACD743B EQ PUSH2 0x6CF JUMPI PUSH1 0x0 DUP1 REVERT JUMPDEST DUP1 PUSH4 0xBAC7E032 EQ PUSH2 0x5B4 JUMPI DUP1 PUSH4 0xBB517946 EQ PUSH2 0x5C7 JUMPI DUP1 PUSH4 0xC3C5A547 EQ PUSH2 0x5DA JUMPI DUP1 PUSH4 0xD90AFA2B EQ PUSH2 0x606 JUMPI DUP1 PUSH4 0xDA76A700 EQ PUSH2 0x619 JUMPI PUSH1 0x0 DUP1 REVERT JUMPDEST DUP1 PUSH4 0x95DF0640 GT PUSH2 0x10A JUMPI DUP1 PUSH4 0x95DF0640 EQ PUSH2 0x540 JUMPI DUP1 PUSH4 0xAC2C34EF EQ PUSH2 0x573 JUMPI DUP1 PUSH4 0xAC4BCD01 EQ PUSH2 0x586 JUMPI DUP1 PUSH4 0xACA2490B EQ PUSH2 0x58E JUMPI DUP1 PUSH4 0xAEB15A6D EQ PUSH2 0x5A1 JUMPI PUSH1 0x0 DUP1 REVERT JUMPDEST DUP1 PUSH4 0x7F97ECC3 EQ PUSH2 0x4B2 JUMPI DUP1 PUSH4 0x8098DCFF EQ PUSH2 0x4E5 JUMPI DUP1 PUSH4 0x85D8F13D EQ PUSH2 0x4FA JUMPI DUP1 PUSH4 0x862DFD3E EQ PUSH2 0x51A JUMPI DUP1 PUSH4 0x910FCD5A EQ PUSH2 0x52D JUMPI PUSH1 0x0 DUP1 REVERT JUMPDEST DUP1 PUSH4 0x34A88C5B GT PUSH2 0x1DF JUMPI DUP1 PUSH4 0x451B6373 GT PUSH2 0x1A3 JUMPI DUP1 PUSH4 0x451B6373 EQ PUSH2 0x3ED JUMPI DUP1 PUSH4 0x56BF7B57 EQ PUSH2 0x403 JUMPI DUP1 PUSH4 0x573088DA EQ PUSH2 0x416 JUMPI DUP1 PUSH4 0x5889FB34 EQ PUSH2 0x44B JUMPI DUP1 PUSH4 0x5D3F3396 EQ PUSH2 0x45E JUMPI DUP1 PUSH4 0x70A08231 EQ PUSH2 0x492 JUMPI PUSH1 0x0 DUP1 REVERT JUMPDEST DUP1 PUSH4 0x34A88C5B EQ PUSH2 0x340 JUMPI DUP1 PUSH4 0x38A0B5C6 EQ PUSH2 0x368 JUMPI DUP1 PUSH4 0x3A45E156 EQ PUSH2 0x3A6 JUMPI DUP1 PUSH4 0x3FE7829F EQ PUSH2 0x3AE JUMPI DUP1 PUSH4 0x424AEDED EQ PUSH2 0x3C1 JUMPI PUSH1 0x0 DUP1 REVERT JUMPDEST DUP1 PUSH4 0x1CCEE0CC GT PUSH2 0x226 JUMPI DUP1 PUSH4 0x1CCEE0CC EQ PUSH2 0x2E1 JUMPI DUP1 PUSH4 0x25AACFA3 EQ PUSH2 0x2F4 JUMPI DUP1 PUSH4 0x285EDAA6 EQ PUSH2 0x307 JUMPI DUP1 PUSH4 0x2B864FEB EQ PUSH2 0x31A JUMPI DUP1 PUSH4 0x30A3DB7E EQ PUSH2 0x32D JUMPI PUSH1 0x0 DUP1 REVERT JUMPDEST DUP1 PUSH4 0x2B8C261 EQ PUSH2 0x263 JUMPI DUP1 PUSH4 0x7FD3BBF EQ PUSH2 0x278 JUMPI DUP1 PUSH4 0x12243B67 EQ PUSH2 0x28B JUMPI DUP1 PUSH4 0x15C6AEE2 EQ PUSH2 0x29E JUMPI DUP1 PUSH4 0x1881F255 EQ PUSH2 0x2CE JUMPI JUMPDEST PUSH1 0x0 DUP1 REVERT JUMPDEST PUSH2 0x276 PUSH2 0x271 CALLDATASIZE PUSH1 0x4 PUSH2 0x3068 JUMP JUMPDEST PUSH2 0x700 JUMP JUMPDEST STOP JUMPDEST PUSH2 0x276 PUSH2 0x286 CALLDATASIZE PUSH1 0x4 PUSH2 0x30C5 JUMP JUMPDEST PUSH2 0x7AC JUMP JUMPDEST PUSH2 0x276 PUSH2 0x299 CALLDATASIZE PUSH1 0x4 PUSH2 0x3134 JUMP JUMPDEST PUSH2 0x8F7 JUMP JUMPDEST PUSH2 0x2B1 PUSH2 0x2AC CALLDATASIZE PUSH1 0x4 PUSH2 0x3158 JUMP JUMPDEST PUSH2 0xAD4 JUMP JUMPDEST PUSH1 0x40 MLOAD PUSH1 0x1 PUSH1 0x1 PUSH1 0xA0 SHL SUB SWAP1 SWAP2 AND DUP2 MSTORE PUSH1 0x20 ADD JUMPDEST PUSH1 0x40 MLOAD DUP1 SWAP2 SUB SWAP1 RETURN JUMPDEST PUSH2 0x276 PUSH2 0x2DC CALLDATASIZE PUSH1 0x4 PUSH2 0x3171 JUMP JUMPDEST PUSH2 0xAFE JUMP JUMPDEST PUSH2 0x276 PUSH2 0x2EF CALLDATASIZE PUSH1 0x4 PUSH2 0x30C5 JUMP JUMPDEST PUSH2 0xB89 JUMP JUMPDEST PUSH2 0x276 PUSH2 0x302 CALLDATASIZE PUSH1 0x4 PUSH2 0x30C5 JUMP JUMPDEST PUSH2 0xDE0 JUMP JUMPDEST PUSH2 0x276 PUSH2 0x315 CALLDATASIZE PUSH1 0x4 PUSH2 0x3068 JUMP JUMPDEST PUSH2 0xF2B JUMP JUMPDEST PUSH2 0x276 PUSH2 0x328 CALLDATASIZE PUSH1 0x4 PUSH2 0x30C5 JUMP JUMPDEST PUSH2 0xFD4 JUMP JUMPDEST PUSH2 0x276 PUSH2 0x33B CALLDATASIZE PUSH1 0x4 PUSH2 0x3254 JUMP JUMPDEST PUSH2 0x112A JUMP JUMPDEST PUSH2 0x353 PUSH2 0x34E CALLDATASIZE PUSH1 0x4 PUSH2 0x3134 JUMP JUMPDEST PUSH2 0x15BF JUMP JUMPDEST PUSH1 0x40 DUP1 MLOAD SWAP3 DUP4 MSTORE PUSH1 0x20 DUP4 ADD SWAP2 SWAP1 SWAP2 MSTORE ADD PUSH2 0x2C5 JUMP JUMPDEST PUSH2 0x396 PUSH2 0x376 CALLDATASIZE PUSH1 0x4 PUSH2 0x32F1 JUMP JUMPDEST DUP1 MLOAD PUSH1 0x20 DUP2 DUP4 ADD DUP2 ADD DUP1 MLOAD PUSH1 0x0 DUP3 MSTORE SWAP3 DUP3 ADD SWAP2 SWAP1 SWAP4 ADD KECCAK256 SWAP2 MSTORE SLOAD PUSH1 0xFF AND DUP2 JUMP JUMPDEST PUSH1 0x40 MLOAD SWAP1 ISZERO ISZERO DUP2 MSTORE PUSH1 0x20 ADD PUSH2 0x2C5 JUMP JUMPDEST PUSH2 0x2B1 PUSH2 0x1651 JUMP JUMPDEST PUSH1 0xD SLOAD PUSH2 0x2B1 SWAP1 PUSH1 0x1 PUSH1 0x1 PUSH1 0xA0 SHL SUB AND DUP2 JUMP JUMPDEST PUSH2 0x3D4 PUSH2 0x3CF CALLDATASIZE PUSH1 0x4 PUSH2 0x3134 JUMP JUMPDEST PUSH2 0x16C4 JUMP JUMPDEST PUSH1 0x40 MLOAD PUSH2 0x2C5 SWAP14 SWAP13 SWAP12 SWAP11 SWAP10 SWAP9 SWAP8 SWAP7 SWAP6 SWAP5 SWAP4 SWAP3 SWAP2 SWAP1 PUSH2 0x337E JUMP JUMPDEST PUSH2 0x3F5 PUSH2 0x185C JUMP JUMPDEST PUSH1 0x40 MLOAD SWAP1 DUP2 MSTORE PUSH1 0x20 ADD PUSH2 0x2C5 JUMP JUMPDEST PUSH1 0xF SLOAD PUSH2 0x2B1 SWAP1 PUSH1 0x1 PUSH1 0x1 PUSH1 0xA0 SHL SUB AND DUP2 JUMP JUMPDEST PUSH2 0x396 PUSH2 0x424 CALLDATASIZE PUSH1 0x4 PUSH2 0x3134 JUMP JUMPDEST PUSH1 0x1 PUSH1 0x1 PUSH1 0xA0 SHL SUB AND PUSH1 0x0 SWAP1 DUP2 MSTORE PUSH1 0x9 PUSH1 0x20 MSTORE PUSH1 0x40 SWAP1 KECCAK256 SLOAD PUSH6 0x10000000000 SWAP1 DIV PUSH1 0xFF AND SWAP1 JUMP JUMPDEST PUSH2 0x276 PUSH2 0x459 CALLDATASIZE PUSH1 0x4 PUSH2 0x3068 JUMP JUMPDEST PUSH2 0x18CA JUMP JUMPDEST PUSH2 0x396 PUSH2 0x46C CALLDATASIZE PUSH1 0x4 PUSH2 0x3134 JUMP JUMPDEST PUSH1 0x1 PUSH1 0x1 PUSH1 0xA0 SHL SUB AND PUSH1 0x0 SWAP1 DUP2 MSTORE PUSH1 0x9 PUSH1 0x20 MSTORE PUSH1 0x40 SWAP1 KECCAK256 SLOAD PUSH5 0x100000000 SWAP1 DIV PUSH1 0xFF AND SWAP1 JUMP JUMPDEST PUSH2 0x3F5 PUSH2 0x4A0 CALLDATASIZE PUSH1 0x4 PUSH2 0x3134 JUMP JUMPDEST PUSH1 0x1 PUSH1 0x20 MSTORE PUSH1 0x0 SWAP1 DUP2 MSTORE PUSH1 0x40 SWAP1 KECCAK256 SLOAD DUP2 JUMP JUMPDEST PUSH2 0x396 PUSH2 0x4C0 CALLDATASIZE PUSH1 0x4 PUSH2 0x3134 JUMP JUMPDEST PUSH1 0x1 PUSH1 0x1 PUSH1 0xA0 SHL SUB AND PUSH1 0x0 SWAP1 DUP2 MSTORE PUSH1 0x9 PUSH1 0x20 MSTORE PUSH1 0x40 SWAP1 KECCAK256 SLOAD PUSH1 0x1 PUSH1 0x30 SHL SWAP1 DIV PUSH1 0xFF AND SWAP1 JUMP JUMPDEST PUSH2 0x4ED PUSH2 0x1962 JUMP JUMPDEST PUSH1 0x40 MLOAD PUSH2 0x2C5 SWAP2 SWAP1 PUSH2 0x341C JUMP JUMPDEST PUSH2 0x50D PUSH2 0x508 CALLDATASIZE PUSH1 0x4 PUSH2 0x3480 JUMP JUMPDEST PUSH2 0x1AC0 JUMP JUMPDEST PUSH1 0x40 MLOAD PUSH2 0x2C5 SWAP2 SWAP1 PUSH2 0x3549 JUMP JUMPDEST PUSH1 0xC SLOAD PUSH2 0x2B1 SWAP1 PUSH1 0x1 PUSH1 0x1 PUSH1 0xA0 SHL SUB AND DUP2 JUMP JUMPDEST PUSH2 0x276 PUSH2 0x53B CALLDATASIZE PUSH1 0x4 PUSH2 0x3596 JUMP JUMPDEST PUSH2 0x1F71 JUMP JUMPDEST PUSH2 0x396 PUSH2 0x54E CALLDATASIZE PUSH1 0x4 PUSH2 0x3134 JUMP JUMPDEST PUSH1 0x1 PUSH1 0x1 PUSH1 0xA0 SHL SUB AND PUSH1 0x0 SWAP1 DUP2 MSTORE PUSH1 0x9 PUSH1 0x20 MSTORE PUSH1 0x40 SWAP1 KECCAK256 SLOAD PUSH4 0x1000000 SWAP1 DIV PUSH1 0xFF AND SWAP1 JUMP JUMPDEST PUSH2 0x276 PUSH2 0x581 CALLDATASIZE PUSH1 0x4 PUSH2 0x3068 JUMP JUMPDEST PUSH2 0x22EA JUMP JUMPDEST PUSH2 0x4ED PUSH2 0x2390 JUMP JUMPDEST PUSH2 0x276 PUSH2 0x59C CALLDATASIZE PUSH1 0x4 PUSH2 0x3068 JUMP JUMPDEST PUSH2 0x2469 JUMP JUMPDEST PUSH2 0x276 PUSH2 0x5AF CALLDATASIZE PUSH1 0x4 PUSH2 0x30C5 JUMP JUMPDEST PUSH2 0x2508 JUMP JUMPDEST PUSH2 0x276 PUSH2 0x5C2 CALLDATASIZE PUSH1 0x4 PUSH2 0x30C5 JUMP JUMPDEST PUSH2 0x2755 JUMP JUMPDEST PUSH1 0xE SLOAD PUSH2 0x2B1 SWAP1 PUSH1 0x1 PUSH1 0x1 PUSH1 0xA0 SHL SUB AND DUP2 JUMP JUMPDEST PUSH2 0x396 PUSH2 0x5E8 CALLDATASIZE PUSH1 0x4 PUSH2 0x3134 JUMP JUMPDEST PUSH1 0x1 PUSH1 0x1 PUSH1 0xA0 SHL SUB AND PUSH1 0x0 SWAP1 DUP2 MSTORE PUSH1 0x9 PUSH1 0x20 MSTORE PUSH1 0x40 SWAP1 KECCAK256 SLOAD PUSH1 0xFF AND SWAP1 JUMP JUMPDEST PUSH2 0x276 PUSH2 0x614 CALLDATASIZE PUSH1 0x4 PUSH2 0x30C5 JUMP JUMPDEST PUSH2 0x29AA JUMP JUMPDEST PUSH2 0x62C PUSH2 0x627 CALLDATASIZE PUSH1 0x4 PUSH2 0x3158 JUMP JUMPDEST PUSH2 0x2A9F JUMP JUMPDEST PUSH1 0x40 MLOAD PUSH2 0x2C5 SWAP2 SWAP1 PUSH2 0x362C JUMP JUMPDEST PUSH2 0x3F5 PUSH2 0x647 CALLDATASIZE PUSH1 0x4 PUSH2 0x363F JUMP JUMPDEST PUSH1 0x2 PUSH1 0x20 SWAP1 DUP2 MSTORE PUSH1 0x0 SWAP3 DUP4 MSTORE PUSH1 0x40 DUP1 DUP5 KECCAK256 SWAP1 SWAP2 MSTORE SWAP1 DUP3 MSTORE SWAP1 KECCAK256 SLOAD DUP2 JUMP JUMPDEST PUSH2 0x276 PUSH2 0x672 CALLDATASIZE PUSH1 0x4 PUSH2 0x3068 JUMP JUMPDEST PUSH2 0x2B4B JUMP JUMPDEST PUSH1 0xB SLOAD PUSH2 0x2B1 SWAP1 PUSH1 0x1 PUSH1 0x1 PUSH1 0xA0 SHL SUB AND DUP2 JUMP JUMPDEST PUSH2 0x276 PUSH2 0x698 CALLDATASIZE PUSH1 0x4 PUSH2 0x30C5 JUMP JUMPDEST PUSH2 0x2C00 JUMP JUMPDEST PUSH2 0x396 PUSH2 0x6AB CALLDATASIZE PUSH1 0x4 PUSH2 0x3134 JUMP JUMPDEST PUSH1 0x1 PUSH1 0x1 PUSH1 0xA0 SHL SUB AND PUSH1 0x0 SWAP1 DUP2 MSTORE PUSH1 0x9 PUSH1 0x20 MSTORE PUSH1 0x40 SWAP1 KECCAK256 SLOAD PUSH3 0x10000 SWAP1 DIV PUSH1 0xFF AND SWAP1 JUMP JUMPDEST PUSH2 0x396 PUSH2 0x6DD CALLDATASIZE PUSH1 0x4 PUSH2 0x3134 JUMP JUMPDEST PUSH1 0x1 PUSH1 0x1 PUSH1 0xA0 SHL SUB AND PUSH1 0x0 SWAP1 DUP2 MSTORE PUSH1 0x9 PUSH1 0x20 MSTORE PUSH1 0x40 SWAP1 KECCAK256 SLOAD PUSH2 0x100 SWAP1 DIV PUSH1 0xFF AND SWAP1 JUMP JUMPDEST PUSH1 0xD SLOAD PUSH1 0x1 PUSH1 0x1 PUSH1 0xA0 SHL SUB AND CALLER EQ PUSH2 0x773 JUMPI PUSH1 0x40 MLOAD PUSH3 0x461BCD PUSH1 0xE5 SHL DUP2 MSTORE PUSH1 0x20 PUSH1 0x4 DUP3 ADD MSTORE PUSH1 0x39 PUSH1 0x24 DUP3 ADD MSTORE PUSH1 0x0 DUP1 MLOAD PUSH1 0x20 PUSH2 0x3D11 DUP4 CODECOPY DUP2 MLOAD SWAP2 MSTORE PUSH1 0x44 DUP3 ADD MSTORE PUSH32 0x6E6765204F6E626F617264205175657565722073746174757300000000000000 PUSH1 0x64 DUP3 ADD MSTORE PUSH1 0x84 ADD JUMPDEST PUSH1 0x40 MLOAD DUP1 SWAP2 SUB SWAP1 REVERT JUMPDEST PUSH1 0x1 PUSH1 0x1 PUSH1 0xA0 SHL SUB SWAP1 SWAP2 AND PUSH1 0x0 SWAP1 DUP2 MSTORE PUSH1 0x9 PUSH1 0x20 MSTORE PUSH1 0x40 SWAP1 KECCAK256 DUP1 SLOAD SWAP2 ISZERO ISZERO PUSH6 0x10000000000 MUL PUSH6 0xFF0000000000 NOT SWAP1 SWAP3 AND SWAP2 SWAP1 SWAP2 OR SWAP1 SSTORE JUMP JUMPDEST PUSH1 0x0 DUP2 PUSH1 0x40 MLOAD PUSH1 0x20 ADD PUSH2 0x7BF SWAP2 SWAP1 PUSH2 0x366D JUMP JUMPDEST PUSH1 0x40 DUP1 MLOAD PUSH1 0x1F NOT DUP2 DUP5 SUB ADD DUP2 MSTORE SWAP1 DUP3 SWAP1 MSTORE PUSH1 0xF SLOAD PUSH4 0x333F6111 PUSH1 0xE0 SHL DUP4 MSTORE SWAP1 SWAP3 POP PUSH1 0x0 SWAP2 PUSH1 0x1 PUSH1 0x1 PUSH1 0xA0 SHL SUB SWAP1 SWAP2 AND SWAP1 PUSH4 0x333F6111 SWAP1 PUSH2 0x809 SWAP1 DUP10 SWAP1 DUP10 SWAP1 DUP10 SWAP1 DUP9 SWAP1 PUSH1 0x4 ADD PUSH2 0x36B3 JUMP JUMPDEST PUSH1 0x20 PUSH1 0x40 MLOAD DUP1 DUP4 SUB DUP2 PUSH1 0x0 DUP8 GAS CALL ISZERO DUP1 ISZERO PUSH2 0x828 JUMPI RETURNDATASIZE PUSH1 0x0 DUP1 RETURNDATACOPY RETURNDATASIZE PUSH1 0x0 REVERT JUMPDEST POP POP POP POP PUSH1 0x40 MLOAD RETURNDATASIZE PUSH1 0x1F NOT PUSH1 0x1F DUP3 ADD AND DUP3 ADD DUP1 PUSH1 0x40 MSTORE POP DUP2 ADD SWAP1 PUSH2 0x84C SWAP2 SWAP1 PUSH2 0x3794 JUMP JUMPDEST SWAP1 POP DUP1 PUSH2 0x8C1 JUMPI PUSH1 0x40 MLOAD PUSH3 0x461BCD PUSH1 0xE5 SHL DUP2 MSTORE PUSH1 0x20 PUSH1 0x4 DUP3 ADD MSTORE PUSH1 0x39 PUSH1 0x24 DUP3 ADD MSTORE PUSH32 0x417574686F72697A6174696F6E206661696C656420666F72207570646174696E PUSH1 0x44 DUP3 ADD MSTORE PUSH32 0x67204F6E72616D7020636F6E7472616374206164647265737300000000000000 PUSH1 0x64 DUP3 ADD MSTORE PUSH1 0x84 ADD PUSH2 0x76A JUMP JUMPDEST POP POP CALLER PUSH1 0x0 SWAP1 DUP2 MSTORE PUSH1 0x5 PUSH1 0x20 MSTORE PUSH1 0x40 SWAP1 KECCAK256 DUP1 SLOAD PUSH1 0x1 PUSH1 0x1 PUSH1 0xA0 SHL SUB NOT AND PUSH1 0x1 PUSH1 0x1 PUSH1 0xA0 SHL SUB SWAP3 SWAP1 SWAP3 AND SWAP2 SWAP1 SWAP2 OR SWAP1 SSTORE PUSH1 0x10 SSTORE POP POP JUMP JUMPDEST PUSH1 0xD SLOAD PUSH1 0x1 PUSH1 0x1 PUSH1 0xA0 SHL SUB AND CALLER EQ PUSH2 0x965 JUMPI PUSH1 0x40 MLOAD PUSH3 0x461BCD PUSH1 0xE5 SHL DUP2 MSTORE PUSH1 0x20 PUSH1 0x4 DUP3 ADD MSTORE PUSH1 0x2B PUSH1 0x24 DUP3 ADD MSTORE PUSH32 0x4F6E6C7920746865206F6E72616D7020636F6E74726163742063616E2064656C PUSH1 0x44 DUP3 ADD MSTORE PUSH11 0x65746520706C6179657273 PUSH1 0xA8 SHL PUSH1 0x64 DUP3 ADD MSTORE PUSH1 0x84 ADD PUSH2 0x76A JUMP JUMPDEST PUSH1 0x1 PUSH1 0x1 PUSH1 0xA0 SHL SUB DUP2 AND PUSH1 0x0 SWAP1 DUP2 MSTORE PUSH1 0x9 PUSH1 0x20 MSTORE PUSH1 0x40 DUP2 KECCAK256 DUP1 SLOAD PUSH7 0xFFFFFFFFFFFFFF NOT AND DUP2 SSTORE SWAP1 PUSH2 0x999 PUSH1 0x1 DUP4 ADD DUP3 PUSH2 0x2FEF JUMP JUMPDEST PUSH1 0x2 DUP3 ADD PUSH1 0x0 SWAP1 SSTORE PUSH1 0x3 DUP3 ADD PUSH1 0x0 PUSH2 0x9B1 SWAP2 SWAP1 PUSH2 0x2FEF JUMP JUMPDEST POP PUSH1 0x4 DUP2 ADD DUP1 SLOAD PUSH1 0x1 PUSH1 0x1 PUSH1 0xA0 SHL SUB NOT AND SWAP1 SSTORE PUSH1 0x0 PUSH1 0x5 DUP3 ADD DUP2 SWAP1 SSTORE PUSH1 0x6 SWAP1 SWAP2 ADD DUP2 SWAP1 SSTORE JUMPDEST PUSH1 0xA SLOAD DUP2 LT ISZERO PUSH2 0xAD0 JUMPI DUP2 PUSH1 0x1 PUSH1 0x1 PUSH1 0xA0 SHL SUB AND PUSH1 0xA DUP3 DUP2 SLOAD DUP2 LT PUSH2 0x9FD JUMPI PUSH2 0x9FD PUSH2 0x37B1 JUMP JUMPDEST PUSH1 0x0 SWAP2 DUP3 MSTORE PUSH1 0x20 SWAP1 SWAP2 KECCAK256 ADD SLOAD PUSH1 0x1 PUSH1 0x1 PUSH1 0xA0 SHL SUB AND SUB PUSH2 0xAC8 JUMPI PUSH1 0xA DUP1 SLOAD PUSH2 0xA27 SWAP1 PUSH1 0x1 SWAP1 PUSH2 0x37C7 JUMP JUMPDEST DUP2 SLOAD DUP2 LT PUSH2 0xA37 JUMPI PUSH2 0xA37 PUSH2 0x37B1 JUMP JUMPDEST PUSH1 0x0 SWAP2 DUP3 MSTORE PUSH1 0x20 SWAP1 SWAP2 KECCAK256 ADD SLOAD PUSH1 0xA DUP1 SLOAD PUSH1 0x1 PUSH1 0x1 PUSH1 0xA0 SHL SUB SWAP1 SWAP3 AND SWAP2 DUP4 SWAP1 DUP2 LT PUSH2 0xA63 JUMPI PUSH2 0xA63 PUSH2 0x37B1 JUMP JUMPDEST SWAP1 PUSH1 0x0 MSTORE PUSH1 0x20 PUSH1 0x0 KECCAK256 ADD PUSH1 0x0 PUSH2 0x100 EXP DUP2 SLOAD DUP2 PUSH1 0x1 PUSH1 0x1 PUSH1 0xA0 SHL SUB MUL NOT AND SWAP1 DUP4 PUSH1 0x1 PUSH1 0x1 PUSH1 0xA0 SHL SUB AND MUL OR SWAP1 SSTORE POP PUSH1 0xA DUP1 SLOAD DUP1 PUSH2 0xAA2 JUMPI PUSH2 0xAA2 PUSH2 0x37E8 JUMP JUMPDEST PUSH1 0x0 DUP3 DUP2 MSTORE PUSH1 0x20 SWAP1 KECCAK256 DUP2 ADD PUSH1 0x0 NOT SWAP1 DUP2 ADD DUP1 SLOAD PUSH1 0x1 PUSH1 0x1 PUSH1 0xA0 SHL SUB NOT AND SWAP1 SSTORE ADD SWAP1 SSTORE POP POP JUMP JUMPDEST PUSH1 0x1 ADD PUSH2 0x9D6 JUMP JUMPDEST POP POP JUMP JUMPDEST PUSH1 0xA DUP2 DUP2 SLOAD DUP2 LT PUSH2 0xAE4 JUMPI PUSH1 0x0 DUP1 REVERT JUMPDEST PUSH1 0x0 SWAP2 DUP3 MSTORE PUSH1 0x20 SWAP1 SWAP2 KECCAK256 ADD SLOAD PUSH1 0x1 PUSH1 0x1 PUSH1 0xA0 SHL SUB AND SWAP1 POP DUP2 JUMP JUMPDEST PUSH1 0xE SLOAD PUSH1 0x1 PUSH1 0x1 PUSH1 0xA0 SHL SUB AND CALLER EQ PUSH2 0xB6A JUMPI PUSH1 0x40 MLOAD PUSH3 0x461BCD PUSH1 0xE5 SHL DUP2 MSTORE PUSH1 0x20 PUSH1 0x4 DUP3 ADD MSTORE PUSH1 0x29 PUSH1 0x24 DUP3 ADD MSTORE PUSH32 0x4F6E6C792074686520666F72756D20636F6E74726163742063616E2073657420 PUSH1 0x44 DUP3 ADD MSTORE PUSH9 0x666F72756D206B6579 PUSH1 0xB8 SHL PUSH1 0x64 DUP3 ADD MSTORE PUSH1 0x84 ADD PUSH2 0x76A JUMP JUMPDEST PUSH1 0x1 PUSH1 0x1 PUSH1 0xA0 SHL SUB SWAP1 SWAP2 AND PUSH1 0x0 SWAP1 DUP2 MSTORE PUSH1 0x9 PUSH1 0x20 MSTORE PUSH1 0x40 SWAP1 KECCAK256 PUSH1 0x2 ADD SSTORE JUMP JUMPDEST PUSH1 0x0 DUP2 PUSH1 0x40 MLOAD PUSH1 0x20 ADD PUSH2 0xB9C SWAP2 SWAP1 PUSH2 0x366D JUMP JUMPDEST PUSH1 0x40 DUP1 MLOAD DUP1 DUP4 SUB PUSH1 0x1F NOT ADD DUP2 MSTORE SWAP2 DUP2 MSTORE CALLER PUSH1 0x0 SWAP1 DUP2 MSTORE PUSH1 0x5 PUSH1 0x20 MSTORE KECCAK256 SLOAD SWAP1 SWAP2 POP PUSH1 0x1 PUSH1 0x1 PUSH1 0xA0 SHL SUB DUP4 DUP2 AND SWAP2 AND EQ PUSH2 0xC26 JUMPI PUSH1 0x40 MLOAD PUSH3 0x461BCD PUSH1 0xE5 SHL DUP2 MSTORE PUSH1 0x20 PUSH1 0x4 DUP3 ADD MSTORE PUSH1 0x27 PUSH1 0x24 DUP3 ADD MSTORE PUSH32 0x4F6E72616D7020636F6E7472616374206164647265737320757064617465206D PUSH1 0x44 DUP3 ADD MSTORE PUSH7 0xD2E6DAC2E8C6D PUSH1 0xCB SHL PUSH1 0x64 DUP3 ADD MSTORE PUSH1 0x84 ADD PUSH2 0x76A JUMP JUMPDEST PUSH1 0x0 DUP6 PUSH1 0x40 MLOAD PUSH1 0x20 ADD PUSH2 0xC39 SWAP2 SWAP1 PUSH2 0x37FE JUMP JUMPDEST PUSH1 0x40 MLOAD PUSH1 0x20 DUP2 DUP4 SUB SUB DUP2 MSTORE SWAP1 PUSH1 0x40 MSTORE DUP1 MLOAD SWAP1 PUSH1 0x20 ADD KECCAK256 SWAP1 POP DUP1 PUSH1 0x10 SLOAD SUB PUSH2 0xC72 JUMPI PUSH1 0x40 MLOAD PUSH3 0x461BCD PUSH1 0xE5 SHL DUP2 MSTORE PUSH1 0x4 ADD PUSH2 0x76A SWAP1 PUSH2 0x3835 JUMP JUMPDEST PUSH1 0xF SLOAD PUSH1 0x40 MLOAD PUSH4 0x333F6111 PUSH1 0xE0 SHL DUP2 MSTORE PUSH1 0x0 SWAP2 PUSH1 0x1 PUSH1 0x1 PUSH1 0xA0 SHL SUB AND SWAP1 PUSH4 0x333F6111 SWAP1 PUSH2 0xCA9 SWAP1 DUP11 SWAP1 DUP11 SWAP1 DUP11 SWAP1 DUP10 SWAP1 PUSH1 0x4 ADD PUSH2 0x36B3 JUMP JUMPDEST PUSH1 0x20 PUSH1 0x40 MLOAD DUP1 DUP4 SUB DUP2 PUSH1 0x0 DUP8 GAS CALL ISZERO DUP1 ISZERO PUSH2 0xCC8 JUMPI RETURNDATASIZE PUSH1 0x0 DUP1 RETURNDATACOPY RETURNDATASIZE PUSH1 0x0 REVERT JUMPDEST POP POP POP POP PUSH1 0x40 MLOAD RETURNDATASIZE PUSH1 0x1F NOT PUSH1 0x1F DUP3 ADD AND DUP3 ADD DUP1 PUSH1 0x40 MSTORE POP DUP2 ADD SWAP1 PUSH2 0xCEC SWAP2 SWAP1 PUSH2 0x3794 JUMP JUMPDEST SWAP1 POP DUP1 PUSH2 0xD70 JUMPI PUSH1 0x40 MLOAD PUSH3 0x461BCD PUSH1 0xE5 SHL DUP2 MSTORE PUSH1 0x20 PUSH1 0x4 DUP3 ADD MSTORE PUSH1 0x46 PUSH1 0x24 DUP3 ADD MSTORE PUSH32 0x417574686F72697A6174696F6E206661696C6564206F6E20636F6E6669726D61 PUSH1 0x44 DUP3 ADD MSTORE PUSH32 0x74696F6E206F66204F6E72616D7020636F6E7472616374206164647265737320 PUSH1 0x64 DUP3 ADD MSTORE PUSH6 0x757064617465 PUSH1 0xD0 SHL PUSH1 0x84 DUP3 ADD MSTORE PUSH1 0xA4 ADD PUSH2 0x76A JUMP JUMPDEST PUSH1 0xD DUP1 SLOAD PUSH1 0x1 PUSH1 0x1 PUSH1 0xA0 SHL SUB NOT AND PUSH1 0x1 PUSH1 0x1 PUSH1 0xA0 SHL SUB DUP7 AND SWAP1 DUP2 OR SWAP1 SWAP2 SSTORE PUSH1 0x40 MLOAD PUSH32 0x5959E7554218ADBE3EDB157F744A698C903698E2BE92D199D2938AFB8B0312AB SWAP1 PUSH1 0x0 SWAP1 LOG2 POP POP CALLER PUSH1 0x0 SWAP1 DUP2 MSTORE PUSH1 0x5 PUSH1 0x20 MSTORE PUSH1 0x40 DUP2 KECCAK256 DUP1 SLOAD PUSH1 0x1 PUSH1 0x1 PUSH1 0xA0 SHL SUB NOT AND SWAP1 SSTORE PUSH1 0x10 SSTORE POP POP POP POP POP JUMP JUMPDEST PUSH1 0x0 DUP2 PUSH1 0x40 MLOAD PUSH1 0x20 ADD PUSH2 0xDF3 SWAP2 SWAP1 PUSH2 0x366D JUMP JUMPDEST PUSH1 0x40 DUP1 MLOAD PUSH1 0x1F NOT DUP2 DUP5 SUB ADD DUP2 MSTORE SWAP1 DUP3 SWAP1 MSTORE PUSH1 0xF SLOAD PUSH4 0x333F6111 PUSH1 0xE0 SHL DUP4 MSTORE SWAP1 SWAP3 POP PUSH1 0x0 SWAP2 PUSH1 0x1 PUSH1 0x1 PUSH1 0xA0 SHL SUB SWAP1 SWAP2 AND SWAP1 PUSH4 0x333F6111 SWAP1 PUSH2 0xE3D SWAP1 DUP10 SWAP1 DUP10 SWAP1 DUP10 SWAP1 DUP9 SWAP1 PUSH1 0x4 ADD PUSH2 0x36B3 JUMP JUMPDEST PUSH1 0x20 PUSH1 0x40 MLOAD DUP1 DUP4 SUB DUP2 PUSH1 0x0 DUP8 GAS CALL ISZERO DUP1 ISZERO PUSH2 0xE5C JUMPI RETURNDATASIZE PUSH1 0x0 DUP1 RETURNDATACOPY RETURNDATASIZE PUSH1 0x0 REVERT JUMPDEST POP POP POP POP PUSH1 0x40 MLOAD RETURNDATASIZE PUSH1 0x1F NOT PUSH1 0x1F DUP3 ADD AND DUP3 ADD DUP1 PUSH1 0x40 MSTORE POP DUP2 ADD SWAP1 PUSH2 0xE80 SWAP2 SWAP1 PUSH2 0x3794 JUMP JUMPDEST SWAP1 POP DUP1 PUSH2 0xEF5 JUMPI PUSH1 0x40 MLOAD PUSH3 0x461BCD PUSH1 0xE5 SHL DUP2 MSTORE PUSH1 0x20 PUSH1 0x4 DUP3 ADD MSTORE PUSH1 0x3A PUSH1 0x24 DUP3 ADD MSTORE PUSH32 0x417574686F72697A6174696F6E206661696C656420666F722070726F706F7365 PUSH1 0x44 DUP3 ADD MSTORE PUSH32 0x642047616D6556616C20636F6E74726163742061646472657373000000000000 PUSH1 0x64 DUP3 ADD MSTORE PUSH1 0x84 ADD PUSH2 0x76A JUMP JUMPDEST POP POP CALLER PUSH1 0x0 SWAP1 DUP2 MSTORE PUSH1 0x4 PUSH1 0x20 MSTORE PUSH1 0x40 SWAP1 KECCAK256 DUP1 SLOAD PUSH1 0x1 PUSH1 0x1 PUSH1 0xA0 SHL SUB NOT AND PUSH1 0x1 PUSH1 0x1 PUSH1 0xA0 SHL SUB SWAP3 SWAP1 SWAP3 AND SWAP2 SWAP1 SWAP2 OR SWAP1 SSTORE PUSH1 0x10 SSTORE POP POP JUMP JUMPDEST PUSH1 0xE SLOAD PUSH1 0x1 PUSH1 0x1 PUSH1 0xA0 SHL SUB AND CALLER EQ PUSH2 0xFA1 JUMPI PUSH1 0x40 MLOAD PUSH3 0x461BCD PUSH1 0xE5 SHL DUP2 MSTORE PUSH1 0x20 PUSH1 0x4 DUP3 ADD MSTORE PUSH1 0x33 PUSH1 0x24 DUP3 ADD MSTORE PUSH32 0x4F6E6C792074686520666F72756D20636F6E74726163742063616E206D6F6469 PUSH1 0x44 DUP3 ADD MSTORE PUSH19 0x6679206D6F64657261746F7220737461747573 PUSH1 0x68 SHL PUSH1 0x64 DUP3 ADD MSTORE PUSH1 0x84 ADD PUSH2 0x76A JUMP JUMPDEST PUSH1 0x1 PUSH1 0x1 PUSH1 0xA0 SHL SUB SWAP1 SWAP2 AND PUSH1 0x0 SWAP1 DUP2 MSTORE PUSH1 0x9 PUSH1 0x20 MSTORE PUSH1 0x40 SWAP1 KECCAK256 DUP1 SLOAD SWAP2 ISZERO ISZERO PUSH3 0x10000 MUL PUSH3 0xFF0000 NOT SWAP1 SWAP3 AND SWAP2 SWAP1 SWAP2 OR SWAP1 SSTORE JUMP JUMPDEST PUSH1 0x0 DUP2 PUSH1 0x40 MLOAD PUSH1 0x20 ADD PUSH2 0xFE7 SWAP2 SWAP1 PUSH2 0x366D JUMP JUMPDEST PUSH1 0x40 DUP1 MLOAD PUSH1 0x1F NOT DUP2 DUP5 SUB ADD DUP2 MSTORE SWAP1 DUP3 SWAP1 MSTORE PUSH1 0xF SLOAD PUSH4 0x333F6111 PUSH1 0xE0 SHL DUP4 MSTORE SWAP1 SWAP3 POP PUSH1 0x0 SWAP2 PUSH1 0x1 PUSH1 0x1 PUSH1 0xA0 SHL SUB SWAP1 SWAP2 AND SWAP1 PUSH4 0x333F6111 SWAP1 PUSH2 0x1031 SWAP1 DUP10 SWAP1 DUP10 SWAP1 DUP10 SWAP1 DUP9 SWAP1 PUSH1 0x4 ADD PUSH2 0x36B3 JUMP JUMPDEST PUSH1 0x20 PUSH1 0x40 MLOAD DUP1 DUP4 SUB DUP2 PUSH1 0x0 DUP8 GAS CALL ISZERO DUP1 ISZERO PUSH2 0x1050 JUMPI RETURNDATASIZE PUSH1 0x0 DUP1 RETURNDATACOPY RETURNDATASIZE PUSH1 0x0 REVERT JUMPDEST POP POP POP POP PUSH1 0x40 MLOAD RETURNDATASIZE PUSH1 0x1F NOT PUSH1 0x1F DUP3 ADD AND DUP3 ADD DUP1 PUSH1 0x40 MSTORE POP DUP2 ADD SWAP1 PUSH2 0x1074 SWAP2 SWAP1 PUSH2 0x3794 JUMP JUMPDEST SWAP1 POP DUP1 PUSH2 0x10F4 JUMPI PUSH1 0x40 MLOAD PUSH3 0x461BCD PUSH1 0xE5 SHL DUP2 MSTORE PUSH1 0x20 PUSH1 0x4 DUP3 ADD MSTORE PUSH1 0x42 PUSH1 0x24 DUP3 ADD MSTORE PUSH32 0x417574686F72697A6174696F6E206661696C656420666F722070726F706F7365 PUSH1 0x44 DUP3 ADD MSTORE PUSH32 0x6420757064617465206F6620466F72756D20636F6E7472616374206164647265 PUSH1 0x64 DUP3 ADD MSTORE PUSH2 0x7373 PUSH1 0xF0 SHL PUSH1 0x84 DUP3 ADD MSTORE PUSH1 0xA4 ADD PUSH2 0x76A JUMP JUMPDEST POP POP CALLER PUSH1 0x0 SWAP1 DUP2 MSTORE PUSH1 0x6 PUSH1 0x20 MSTORE PUSH1 0x40 SWAP1 KECCAK256 DUP1 SLOAD PUSH1 0x1 PUSH1 0x1 PUSH1 0xA0 SHL SUB NOT AND PUSH1 0x1 PUSH1 0x1 PUSH1 0xA0 SHL SUB SWAP3 SWAP1 SWAP3 AND SWAP2 SWAP1 SWAP2 OR SWAP1 SSTORE PUSH1 0x10 SSTORE POP POP JUMP JUMPDEST PUSH1 0xD SLOAD PUSH1 0x1 PUSH1 0x1 PUSH1 0xA0 SHL SUB AND CALLER EQ PUSH2 0x119C JUMPI PUSH1 0x40 MLOAD PUSH3 0x461BCD PUSH1 0xE5 SHL DUP2 MSTORE PUSH1 0x20 PUSH1 0x4 DUP3 ADD MSTORE PUSH1 0x2F PUSH1 0x24 DUP3 ADD MSTORE PUSH32 0x4F6E6C7920746865206F6E72616D7020636F6E74726163742063616E20616464 PUSH1 0x44 DUP3 ADD MSTORE PUSH15 0x2F75706461746520706C6179657273 PUSH1 0x88 SHL PUSH1 0x64 DUP3 ADD MSTORE PUSH1 0x84 ADD PUSH2 0x76A JUMP JUMPDEST PUSH1 0xC SLOAD PUSH1 0x40 MLOAD PUSH4 0x3AF32ABF PUSH1 0xE0 SHL DUP2 MSTORE PUSH1 0x1 PUSH1 0x1 PUSH1 0xA0 SHL SUB DUP9 DUP2 AND PUSH1 0x4 DUP4 ADD MSTORE SWAP1 SWAP2 AND SWAP1 PUSH4 0x3AF32ABF SWAP1 PUSH1 0x24 ADD PUSH1 0x20 PUSH1 0x40 MLOAD DUP1 DUP4 SUB DUP2 DUP7 GAS STATICCALL ISZERO DUP1 ISZERO PUSH2 0x11E6 JUMPI RETURNDATASIZE PUSH1 0x0 DUP1 RETURNDATACOPY RETURNDATASIZE PUSH1 0x0 REVERT JUMPDEST POP POP POP POP PUSH1 0x40 MLOAD RETURNDATASIZE PUSH1 0x1F NOT PUSH1 0x1F DUP3 ADD AND DUP3 ADD DUP1 PUSH1 0x40 MSTORE POP DUP2 ADD SWAP1 PUSH2 0x120A SWAP2 SWAP1 PUSH2 0x3794 JUMP JUMPDEST PUSH2 0x1260 JUMPI PUSH1 0x40 MLOAD PUSH3 0x461BCD PUSH1 0xE5 SHL DUP2 MSTORE PUSH1 0x20 PUSH1 0x4 DUP3 ADD MSTORE PUSH1 0x21 PUSH1 0x24 DUP3 ADD MSTORE PUSH32 0x41646472657373206E6F742077686974656C697374656420696E20416E6F6E49 PUSH1 0x44 DUP3 ADD MSTORE PUSH1 0x11 PUSH1 0xFA SHL PUSH1 0x64 DUP3 ADD MSTORE PUSH1 0x84 ADD PUSH2 0x76A JUMP JUMPDEST PUSH1 0x1 PUSH1 0x1 PUSH1 0xA0 SHL SUB DUP7 AND PUSH1 0x0 SWAP1 DUP2 MSTORE PUSH1 0x9 PUSH1 0x20 MSTORE PUSH1 0x40 SWAP1 KECCAK256 DUP1 SLOAD PUSH1 0xFF AND ISZERO PUSH2 0x1310 JUMPI PUSH1 0x3 DUP2 ADD PUSH2 0x1290 DUP8 DUP3 PUSH2 0x3921 JUMP JUMPDEST POP PUSH1 0x1 DUP2 ADD PUSH2 0x129F DUP7 DUP3 PUSH2 0x3921 JUMP JUMPDEST POP PUSH1 0x1 PUSH1 0x1 PUSH1 0xA0 SHL SUB DUP3 AND ISZERO PUSH2 0x12D1 JUMPI PUSH1 0x4 DUP2 ADD DUP1 SLOAD PUSH1 0x1 PUSH1 0x1 PUSH1 0xA0 SHL SUB NOT AND PUSH1 0x1 PUSH1 0x1 PUSH1 0xA0 SHL SUB DUP5 AND OR SWAP1 SSTORE PUSH2 0x12EF JUMP JUMPDEST PUSH1 0x4 DUP2 ADD DUP1 SLOAD PUSH1 0x1 PUSH1 0x1 PUSH1 0xA0 SHL SUB NOT AND PUSH1 0x1 PUSH1 0x1 PUSH1 0xA0 SHL SUB DUP10 AND OR SWAP1 SSTORE JUMPDEST DUP4 ISZERO PUSH2 0x12FD JUMPI PUSH1 0x5 DUP2 ADD DUP5 SWAP1 SSTORE JUMPDEST DUP3 ISZERO PUSH2 0x130B JUMPI PUSH1 0x6 DUP2 ADD DUP4 SWAP1 SSTORE JUMPDEST PUSH2 0x15B6 JUMP JUMPDEST DUP4 ISZERO ISZERO DUP1 PUSH2 0x131D JUMPI POP DUP3 ISZERO ISZERO JUMPDEST PUSH2 0x1381 JUMPI PUSH1 0x40 MLOAD PUSH3 0x461BCD PUSH1 0xE5 SHL DUP2 MSTORE PUSH1 0x20 PUSH1 0x4 DUP3 ADD MSTORE PUSH1 0x2F PUSH1 0x24 DUP3 ADD MSTORE PUSH32 0x4F7261636C65206B657920696E6465782063616E6E6F74206265207A65726F20 PUSH1 0x44 DUP3 ADD MSTORE PUSH15 0x666F72206E657720706C6179657273 PUSH1 0x88 SHL PUSH1 0x64 DUP3 ADD MSTORE PUSH1 0x84 ADD PUSH2 0x76A JUMP JUMPDEST PUSH1 0x40 MLOAD DUP1 PUSH2 0x1A0 ADD PUSH1 0x40 MSTORE DUP1 PUSH1 0x1 ISZERO ISZERO DUP2 MSTORE PUSH1 0x20 ADD PUSH1 0x0 ISZERO ISZERO DUP2 MSTORE PUSH1 0x20 ADD PUSH1 0x0 ISZERO ISZERO DUP2 MSTORE PUSH1 0x20 ADD PUSH1 0x0 ISZERO ISZERO DUP2 MSTORE PUSH1 0x20 ADD PUSH1 0x0 ISZERO ISZERO DUP2 MSTORE PUSH1 0x20 ADD PUSH1 0x0 ISZERO ISZERO DUP2 MSTORE PUSH1 0x20 ADD PUSH1 0x0 ISZERO ISZERO DUP2 MSTORE PUSH1 0x20 ADD DUP7 DUP2 MSTORE PUSH1 0x20 ADD PUSH1 0x0 DUP1 SHL DUP2 MSTORE PUSH1 0x20 ADD DUP8 DUP2 MSTORE PUSH1 0x20 ADD DUP9 PUSH1 0x1 PUSH1 0x1 PUSH1 0xA0 SHL SUB AND DUP2 MSTORE PUSH1 0x20 ADD DUP6 DUP2 MSTORE PUSH1 0x20 ADD DUP5 DUP2 MSTORE POP PUSH1 0x9 PUSH1 0x0 DUP10 PUSH1 0x1 PUSH1 0x1 PUSH1 0xA0 SHL SUB AND PUSH1 0x1 PUSH1 0x1 PUSH1 0xA0 SHL SUB AND DUP2 MSTORE PUSH1 0x20 ADD SWAP1 DUP2 MSTORE PUSH1 0x20 ADD PUSH1 0x0 KECCAK256 PUSH1 0x0 DUP3 ADD MLOAD DUP2 PUSH1 0x0 ADD PUSH1 0x0 PUSH2 0x100 EXP DUP2 SLOAD DUP2 PUSH1 0xFF MUL NOT AND SWAP1 DUP4 ISZERO ISZERO MUL OR SWAP1 SSTORE POP PUSH1 0x20 DUP3 ADD MLOAD DUP2 PUSH1 0x0 ADD PUSH1 0x1 PUSH2 0x100 EXP DUP2 SLOAD DUP2 PUSH1 0xFF MUL NOT AND SWAP1 DUP4 ISZERO ISZERO MUL OR SWAP1 SSTORE POP PUSH1 0x40 DUP3 ADD MLOAD DUP2 PUSH1 0x0 ADD PUSH1 0x2 PUSH2 0x100 EXP DUP2 SLOAD DUP2 PUSH1 0xFF MUL NOT AND SWAP1 DUP4 ISZERO ISZERO MUL OR SWAP1 SSTORE POP PUSH1 0x60 DUP3 ADD MLOAD DUP2 PUSH1 0x0 ADD PUSH1 0x3 PUSH2 0x100 EXP DUP2 SLOAD DUP2 PUSH1 0xFF MUL NOT AND SWAP1 DUP4 ISZERO ISZERO MUL OR SWAP1 SSTORE POP PUSH1 0x80 DUP3 ADD MLOAD DUP2 PUSH1 0x0 ADD PUSH1 0x4 PUSH2 0x100 EXP DUP2 SLOAD DUP2 PUSH1 0xFF MUL NOT AND SWAP1 DUP4 ISZERO ISZERO MUL OR SWAP1 SSTORE POP PUSH1 0xA0 DUP3 ADD MLOAD DUP2 PUSH1 0x0 ADD PUSH1 0x5 PUSH2 0x100 EXP DUP2 SLOAD DUP2 PUSH1 0xFF MUL NOT AND SWAP1 DUP4 ISZERO ISZERO MUL OR SWAP1 SSTORE POP PUSH1 0xC0 DUP3 ADD MLOAD DUP2 PUSH1 0x0 ADD PUSH1 0x6 PUSH2 0x100 EXP DUP2 SLOAD DUP2 PUSH1 0xFF MUL NOT AND SWAP1 DUP4 ISZERO ISZERO MUL OR SWAP1 SSTORE POP PUSH1 0xE0 DUP3 ADD MLOAD DUP2 PUSH1 0x1 ADD SWAP1 DUP2 PUSH2 0x1514 SWAP2 SWAP1 PUSH2 0x3921 JUMP JUMPDEST POP PUSH2 0x100 DUP3 ADD MLOAD PUSH1 0x2 DUP3 ADD SSTORE PUSH2 0x120 DUP3 ADD MLOAD PUSH1 0x3 DUP3 ADD SWAP1 PUSH2 0x1535 SWAP1 DUP3 PUSH2 0x3921 JUMP JUMPDEST POP PUSH2 0x140 DUP3 ADD MLOAD PUSH1 0x4 DUP3 ADD DUP1 SLOAD PUSH1 0x1 PUSH1 0x1 PUSH1 0xA0 SHL SUB NOT SWAP1 DUP2 AND PUSH1 0x1 PUSH1 0x1 PUSH1 0xA0 SHL SUB SWAP4 DUP5 AND OR SWAP1 SWAP2 SSTORE PUSH2 0x160 DUP5 ADD MLOAD PUSH1 0x5 DUP5 ADD SSTORE PUSH2 0x180 SWAP1 SWAP4 ADD MLOAD PUSH1 0x6 SWAP1 SWAP3 ADD SWAP2 SWAP1 SWAP2 SSTORE PUSH1 0xA DUP1 SLOAD PUSH1 0x1 DUP2 ADD DUP3 SSTORE PUSH1 0x0 SWAP2 SWAP1 SWAP2 MSTORE PUSH32 0xC65A7BB8D6351C1CF70C95A316CC6A92839C986682D98BC35F958F4883F9D2A8 ADD DUP1 SLOAD SWAP1 SWAP3 AND SWAP1 DUP10 AND OR SWAP1 SSTORE JUMPDEST POP POP POP POP POP POP POP JUMP JUMPDEST PUSH1 0x1 PUSH1 0x1 PUSH1 0xA0 SHL SUB DUP2 AND PUSH1 0x0 SWAP1 DUP2 MSTORE PUSH1 0x9 PUSH1 0x20 MSTORE PUSH1 0x40 DUP2 KECCAK256 SLOAD DUP2 SWAP1 PUSH1 0xFF AND PUSH2 0x1629 JUMPI PUSH1 0x40 MLOAD PUSH3 0x461BCD PUSH1 0xE5 SHL DUP2 MSTORE PUSH1 0x20 PUSH1 0x4 DUP3 ADD MSTORE PUSH1 0x18 PUSH1 0x24 DUP3 ADD MSTORE PUSH32 0x506C61796572206973206E6F7420726567697374657265640000000000000000 PUSH1 0x44 DUP3 ADD MSTORE PUSH1 0x64 ADD PUSH2 0x76A JUMP JUMPDEST POP POP PUSH1 0x1 PUSH1 0x1 PUSH1 0xA0 SHL SUB AND PUSH1 0x0 SWAP1 DUP2 MSTORE PUSH1 0x9 PUSH1 0x20 MSTORE PUSH1 0x40 SWAP1 KECCAK256 PUSH1 0x5 DUP2 ADD SLOAD PUSH1 0x6 SWAP1 SWAP2 ADD SLOAD SWAP1 SWAP2 JUMP JUMPDEST PUSH1 0xC SLOAD PUSH1 0x40 DUP1 MLOAD PUSH4 0x931742D3 PUSH1 0xE0 SHL DUP2 MSTORE SWAP1 MLOAD PUSH1 0x0 SWAP3 PUSH1 0x1 PUSH1 0x1 PUSH1 0xA0 SHL SUB AND SWAP2 PUSH4 0x931742D3 SWAP2 PUSH1 0x4 DUP1 DUP4 ADD SWAP3 PUSH1 0x20 SWAP3 SWAP2 SWAP1 DUP3 SWAP1 SUB ADD DUP2 DUP7 GAS STATICCALL ISZERO DUP1 ISZERO PUSH2 0x169B JUMPI RETURNDATASIZE PUSH1 0x0 DUP1 RETURNDATACOPY RETURNDATASIZE PUSH1 0x0 REVERT JUMPDEST POP POP POP POP PUSH1 0x40 MLOAD RETURNDATASIZE PUSH1 0x1F NOT PUSH1 0x1F DUP3 ADD AND DUP3 ADD DUP1 PUSH1 0x40 MSTORE POP DUP2 ADD SWAP1 PUSH2 0x16BF SWAP2 SWAP1 PUSH2 0x39E1 JUMP JUMPDEST SWAP1 POP SWAP1 JUMP JUMPDEST PUSH1 0x9 PUSH1 0x20 MSTORE PUSH1 0x0 SWAP1 DUP2 MSTORE PUSH1 0x40 SWAP1 KECCAK256 DUP1 SLOAD PUSH1 0x1 DUP3 ADD DUP1 SLOAD PUSH1 0xFF DUP1 DUP5 AND SWAP5 PUSH2 0x100 DUP6 DIV DUP3 AND SWAP5 PUSH3 0x10000 DUP2 DIV DUP4 AND SWAP5 PUSH4 0x1000000 DUP3 DIV DUP5 AND SWAP5 PUSH5 0x100000000 DUP4 DIV DUP6 AND SWAP5 PUSH6 0x10000000000 DUP5 DIV DUP2 AND SWAP5 PUSH1 0x1 PUSH1 0x30 SHL SWAP1 SWAP5 DIV AND SWAP3 SWAP2 SWAP1 PUSH2 0x1727 SWAP1 PUSH2 0x389C JUMP JUMPDEST DUP1 PUSH1 0x1F ADD PUSH1 0x20 DUP1 SWAP2 DIV MUL PUSH1 0x20 ADD PUSH1 0x40 MLOAD SWAP1 DUP2 ADD PUSH1 0x40 MSTORE DUP1 SWAP3 SWAP2 SWAP1 DUP2 DUP2 MSTORE PUSH1 0x20 ADD DUP3 DUP1 SLOAD PUSH2 0x1753 SWAP1 PUSH2 0x389C JUMP JUMPDEST DUP1 ISZERO PUSH2 0x17A0 JUMPI DUP1 PUSH1 0x1F LT PUSH2 0x1775 JUMPI PUSH2 0x100 DUP1 DUP4 SLOAD DIV MUL DUP4 MSTORE SWAP2 PUSH1 0x20 ADD SWAP2 PUSH2 0x17A0 JUMP JUMPDEST DUP3 ADD SWAP2 SWAP1 PUSH1 0x0 MSTORE PUSH1 0x20 PUSH1 0x0 KECCAK256 SWAP1 JUMPDEST DUP2 SLOAD DUP2 MSTORE SWAP1 PUSH1 0x1 ADD SWAP1 PUSH1 0x20 ADD DUP1 DUP4 GT PUSH2 0x1783 JUMPI DUP3 SWAP1 SUB PUSH1 0x1F AND DUP3 ADD SWAP2 JUMPDEST POP POP POP POP POP SWAP1 DUP1 PUSH1 0x2 ADD SLOAD SWAP1 DUP1 PUSH1 0x3 ADD DUP1 SLOAD PUSH2 0x17BB SWAP1 PUSH2 0x389C JUMP JUMPDEST DUP1 PUSH1 0x1F ADD PUSH1 0x20 DUP1 SWAP2 DIV MUL PUSH1 0x20 ADD PUSH1 0x40 MLOAD SWAP1 DUP2 ADD PUSH1 0x40 MSTORE DUP1 SWAP3 SWAP2 SWAP1 DUP2 DUP2 MSTORE PUSH1 0x20 ADD DUP3 DUP1 SLOAD PUSH2 0x17E7 SWAP1 PUSH2 0x389C JUMP JUMPDEST DUP1 ISZERO PUSH2 0x1834 JUMPI DUP1 PUSH1 0x1F LT PUSH2 0x1809 JUMPI PUSH2 0x100 DUP1 DUP4 SLOAD DIV MUL DUP4 MSTORE SWAP2 PUSH1 0x20 ADD SWAP2 PUSH2 0x1834 JUMP JUMPDEST DUP3 ADD SWAP2 SWAP1 PUSH1 0x0 MSTORE PUSH1 0x20 PUSH1 0x0 KECCAK256 SWAP1 JUMPDEST DUP2 SLOAD DUP2 MSTORE SWAP1 PUSH1 0x1 ADD SWAP1 PUSH1 0x20 ADD DUP1 DUP4 GT PUSH2 0x1817 JUMPI DUP3 SWAP1 SUB PUSH1 0x1F AND DUP3 ADD SWAP2 JUMPDEST POP POP POP POP PUSH1 0x4 DUP4 ADD SLOAD PUSH1 0x5 DUP5 ADD SLOAD PUSH1 0x6 SWAP1 SWAP5 ADD SLOAD SWAP3 SWAP4 PUSH1 0x1 PUSH1 0x1 PUSH1 0xA0 SHL SUB SWAP1 SWAP2 AND SWAP3 SWAP1 SWAP2 POP DUP14 JUMP JUMPDEST PUSH1 0xC SLOAD PUSH1 0x40 DUP1 MLOAD PUSH4 0x8705D945 PUSH1 0xE0 SHL DUP2 MSTORE SWAP1 MLOAD PUSH1 0x0 SWAP3 PUSH1 0x1 PUSH1 0x1 PUSH1 0xA0 SHL SUB AND SWAP2 PUSH4 0x8705D945 SWAP2 PUSH1 0x4 DUP1 DUP4 ADD SWAP3 PUSH1 0x20 SWAP3 SWAP2 SWAP1 DUP3 SWAP1 SUB ADD DUP2 DUP7 GAS STATICCALL ISZERO DUP1 ISZERO PUSH2 0x18A6 JUMPI RETURNDATASIZE PUSH1 0x0 DUP1 RETURNDATACOPY RETURNDATASIZE PUSH1 0x0 REVERT JUMPDEST POP POP POP POP PUSH1 0x40 MLOAD RETURNDATASIZE PUSH1 0x1F NOT PUSH1 0x1F DUP3 ADD AND DUP3 ADD DUP1 PUSH1 0x40 MSTORE POP DUP2 ADD SWAP1 PUSH2 0x16BF SWAP2 SWAP1 PUSH2 0x39FE JUMP JUMPDEST PUSH1 0xD SLOAD PUSH1 0x1 PUSH1 0x1 PUSH1 0xA0 SHL SUB AND CALLER EQ PUSH2 0x192B JUMPI PUSH1 0x40 MLOAD PUSH3 0x461BCD PUSH1 0xE5 SHL DUP2 MSTORE PUSH1 0x20 PUSH1 0x4 DUP3 ADD MSTORE PUSH1 0x30 PUSH1 0x24 DUP3 ADD MSTORE PUSH1 0x0 DUP1 MLOAD PUSH1 0x20 PUSH2 0x3D11 DUP4 CODECOPY DUP2 MLOAD SWAP2 MSTORE PUSH1 0x44 DUP3 ADD MSTORE PUSH16 0x6E67652041646D696E20737461747573 PUSH1 0x80 SHL PUSH1 0x64 DUP3 ADD MSTORE PUSH1 0x84 ADD PUSH2 0x76A JUMP JUMPDEST PUSH1 0x1 PUSH1 0x1 PUSH1 0xA0 SHL SUB SWAP1 SWAP2 AND PUSH1 0x0 SWAP1 DUP2 MSTORE PUSH1 0x9 PUSH1 0x20 MSTORE PUSH1 0x40 SWAP1 KECCAK256 DUP1 SLOAD SWAP2 ISZERO ISZERO PUSH5 0x100000000 MUL PUSH5 0xFF00000000 NOT SWAP1 SWAP3 AND SWAP2 SWAP1 SWAP2 OR SWAP1 SSTORE JUMP JUMPDEST PUSH1 0xA SLOAD PUSH1 0x60 SWAP1 PUSH1 0x0 SWAP1 PUSH8 0xFFFFFFFFFFFFFFFF DUP2 GT ISZERO PUSH2 0x1983 JUMPI PUSH2 0x1983 PUSH2 0x319D JUMP JUMPDEST PUSH1 0x40 MLOAD SWAP1 DUP1 DUP3 MSTORE DUP1 PUSH1 0x20 MUL PUSH1 0x20 ADD DUP3 ADD PUSH1 0x40 MSTORE DUP1 ISZERO PUSH2 0x19B6 JUMPI DUP2 PUSH1 0x20 ADD JUMPDEST PUSH1 0x60 DUP2 MSTORE PUSH1 0x20 ADD SWAP1 PUSH1 0x1 SWAP1 SUB SWAP1 DUP2 PUSH2 0x19A1 JUMPI SWAP1 POP JUMPDEST POP SWAP1 POP PUSH1 0x0 JUMPDEST PUSH1 0xA SLOAD DUP2 LT ISZERO PUSH2 0x1ABA JUMPI PUSH1 0x0 PUSH1 0x9 PUSH1 0x0 PUSH1 0xA DUP5 DUP2 SLOAD DUP2 LT PUSH2 0x19DF JUMPI PUSH2 0x19DF PUSH2 0x37B1 JUMP JUMPDEST PUSH1 0x0 SWAP2 DUP3 MSTORE PUSH1 0x20 DUP1 DUP4 KECCAK256 SWAP1 SWAP2 ADD SLOAD PUSH1 0x1 PUSH1 0x1 PUSH1 0xA0 SHL SUB AND DUP4 MSTORE DUP3 ADD SWAP3 SWAP1 SWAP3 MSTORE PUSH1 0x40 ADD SWAP1 KECCAK256 PUSH1 0x1 DUP2 ADD DUP1 SLOAD SWAP2 SWAP3 POP SWAP1 PUSH2 0x1A16 SWAP1 PUSH2 0x389C JUMP JUMPDEST DUP1 PUSH1 0x1F ADD PUSH1 0x20 DUP1 SWAP2 DIV MUL PUSH1 0x20 ADD PUSH1 0x40 MLOAD SWAP1 DUP2 ADD PUSH1 0x40 MSTORE DUP1 SWAP3 SWAP2 SWAP1 DUP2 DUP2 MSTORE PUSH1 0x20 ADD DUP3 DUP1 SLOAD PUSH2 0x1A42 SWAP1 PUSH2 0x389C JUMP JUMPDEST DUP1 ISZERO PUSH2 0x1A8F JUMPI DUP1 PUSH1 0x1F LT PUSH2 0x1A64 JUMPI PUSH2 0x100 DUP1 DUP4 SLOAD DIV MUL DUP4 MSTORE SWAP2 PUSH1 0x20 ADD SWAP2 PUSH2 0x1A8F JUMP JUMPDEST DUP3 ADD SWAP2 SWAP1 PUSH1 0x0 MSTORE PUSH1 0x20 PUSH1 0x0 KECCAK256 SWAP1 JUMPDEST DUP2 SLOAD DUP2 MSTORE SWAP1 PUSH1 0x1 ADD SWAP1 PUSH1 0x20 ADD DUP1 DUP4 GT PUSH2 0x1A72 JUMPI DUP3 SWAP1 SUB PUSH1 0x1F AND DUP3 ADD SWAP2 JUMPDEST POP POP POP POP POP DUP4 DUP4 DUP2 MLOAD DUP2 LT PUSH2 0x1AA6 JUMPI PUSH2 0x1AA6 PUSH2 0x37B1 JUMP JUMPDEST PUSH1 0x20 SWAP1 DUP2 MUL SWAP2 SWAP1 SWAP2 ADD ADD MSTORE POP PUSH1 0x1 ADD PUSH2 0x19BC JUMP JUMPDEST POP SWAP2 SWAP1 POP JUMP JUMPDEST PUSH1 0xB SLOAD PUSH1 0x60 SWAP1 PUSH1 0x1 PUSH1 0x1 PUSH1 0xA0 SHL SUB AND CALLER EQ PUSH2 0x1B3B JUMPI PUSH1 0x40 MLOAD PUSH3 0x461BCD PUSH1 0xE5 SHL DUP2 MSTORE PUSH1 0x20 PUSH1 0x4 DUP3 ADD MSTORE PUSH1 0x35 PUSH1 0x24 DUP3 ADD MSTORE PUSH32 0x4F6E6C79207468652067616D652076616C696461746F7220636F6E7472616374 PUSH1 0x44 DUP3 ADD MSTORE PUSH21 0x818D85B881858D8D95CDCC81D1A1A5CC81B1A5CDD PUSH1 0x5A SHL PUSH1 0x64 DUP3 ADD MSTORE PUSH1 0x84 ADD PUSH2 0x76A JUMP JUMPDEST PUSH1 0x0 DUP4 MLOAD PUSH8 0xFFFFFFFFFFFFFFFF DUP2 GT ISZERO PUSH2 0x1B57 JUMPI PUSH2 0x1B57 PUSH2 0x319D JUMP JUMPDEST PUSH1 0x40 MLOAD SWAP1 DUP1 DUP3 MSTORE DUP1 PUSH1 0x20 MUL PUSH1 0x20 ADD DUP3 ADD PUSH1 0x40 MSTORE DUP1 ISZERO PUSH2 0x1B80 JUMPI DUP2 PUSH1 0x20 ADD PUSH1 0x20 DUP3 MUL DUP1 CALLDATASIZE DUP4 CALLDATACOPY ADD SWAP1 POP JUMPDEST POP SWAP1 POP PUSH1 0x0 JUMPDEST DUP5 MLOAD DUP2 LT ISZERO PUSH2 0x1F67 JUMPI PUSH1 0x0 JUMPDEST PUSH1 0xA SLOAD DUP2 LT ISZERO PUSH2 0x1F5E JUMPI DUP6 DUP3 DUP2 MLOAD DUP2 LT PUSH2 0x1BAE JUMPI PUSH2 0x1BAE PUSH2 0x37B1 JUMP JUMPDEST PUSH1 0x20 MUL PUSH1 0x20 ADD ADD MLOAD PUSH1 0x40 MLOAD PUSH1 0x20 ADD PUSH2 0x1BC6 SWAP2 SWAP1 PUSH2 0x3A17 JUMP JUMPDEST PUSH1 0x40 MLOAD PUSH1 0x20 DUP2 DUP4 SUB SUB DUP2 MSTORE SWAP1 PUSH1 0x40 MSTORE DUP1 MLOAD SWAP1 PUSH1 0x20 ADD KECCAK256 PUSH1 0x9 PUSH1 0x0 PUSH1 0xA DUP5 DUP2 SLOAD DUP2 LT PUSH2 0x1BF3 JUMPI PUSH2 0x1BF3 PUSH2 0x37B1 JUMP JUMPDEST PUSH1 0x0 SWAP2 DUP3 MSTORE PUSH1 0x20 DUP1 DUP4 KECCAK256 SWAP1 SWAP2 ADD SLOAD PUSH1 0x1 PUSH1 0x1 PUSH1 0xA0 SHL SUB AND DUP4 MSTORE DUP3 DUP2 ADD SWAP4 SWAP1 SWAP4 MSTORE PUSH1 0x40 SWAP2 DUP3 ADD SWAP1 KECCAK256 SWAP1 MLOAD PUSH2 0x1C2D SWAP3 PUSH1 0x1 SWAP3 SWAP1 SWAP3 ADD SWAP2 ADD PUSH2 0x3A33 JUMP JUMPDEST PUSH1 0x40 MLOAD PUSH1 0x20 DUP2 DUP4 SUB SUB DUP2 MSTORE SWAP1 PUSH1 0x40 MSTORE DUP1 MLOAD SWAP1 PUSH1 0x20 ADD KECCAK256 SUB PUSH2 0x1F56 JUMPI PUSH1 0xC SLOAD PUSH1 0xA DUP1 SLOAD PUSH1 0x0 SWAP3 PUSH1 0x1 PUSH1 0x1 PUSH1 0xA0 SHL SUB AND SWAP2 PUSH4 0x5A725B07 SWAP2 PUSH1 0x7 SWAP2 SWAP1 DUP7 SWAP1 DUP2 LT PUSH2 0x1C76 JUMPI PUSH2 0x1C76 PUSH2 0x37B1 JUMP JUMPDEST PUSH1 0x0 SWAP2 DUP3 MSTORE PUSH1 0x20 SWAP1 SWAP2 KECCAK256 ADD SLOAD PUSH1 0x40 MLOAD PUSH1 0x1 PUSH1 0x1 PUSH1 0xE0 SHL SUB NOT PUSH1 0xE0 DUP6 SWAP1 SHL AND DUP2 MSTORE PUSH2 0x1CAD SWAP3 SWAP2 PUSH1 0x1 PUSH1 0x1 PUSH1 0xA0 SHL SUB AND SWAP1 PUSH1 0x4 ADD PUSH2 0x3B26 JUMP JUMPDEST PUSH1 0x20 PUSH1 0x40 MLOAD DUP1 DUP4 SUB DUP2 DUP7 GAS STATICCALL ISZERO DUP1 ISZERO PUSH2 0x1CCA JUMPI RETURNDATASIZE PUSH1 0x0 DUP1 RETURNDATACOPY RETURNDATASIZE PUSH1 0x0 REVERT JUMPDEST POP POP POP POP PUSH1 0x40 MLOAD RETURNDATASIZE PUSH1 0x1F NOT PUSH1 0x1F DUP3 ADD AND DUP3 ADD DUP1 PUSH1 0x40 MSTORE POP DUP2 ADD SWAP1 PUSH2 0x1CEE SWAP2 SWAP1 PUSH2 0x3B50 JUMP JUMPDEST SWAP1 POP DUP1 PUSH1 0xFF AND PUSH1 0x2 SUB PUSH2 0x1EAF JUMPI PUSH1 0x9 PUSH1 0x0 PUSH1 0xA DUP5 DUP2 SLOAD DUP2 LT PUSH2 0x1D12 JUMPI PUSH2 0x1D12 PUSH2 0x37B1 JUMP JUMPDEST PUSH1 0x0 SWAP2 DUP3 MSTORE PUSH1 0x20 DUP1 DUP4 KECCAK256 SWAP1 SWAP2 ADD SLOAD PUSH1 0x1 PUSH1 0x1 PUSH1 0xA0 SHL SUB SWAP1 DUP2 AND DUP5 MSTORE SWAP1 DUP4 ADD SWAP4 SWAP1 SWAP4 MSTORE PUSH1 0x40 SWAP1 SWAP2 ADD SWAP1 KECCAK256 PUSH1 0x4 ADD SLOAD DUP6 MLOAD SWAP2 AND SWAP1 DUP6 SWAP1 DUP6 SWAP1 DUP2 LT PUSH2 0x1D56 JUMPI PUSH2 0x1D56 PUSH2 0x37B1 JUMP JUMPDEST PUSH1 0x1 PUSH1 0x1 PUSH1 0xA0 SHL SUB SWAP1 SWAP3 AND PUSH1 0x20 SWAP3 DUP4 MUL SWAP2 SWAP1 SWAP2 ADD SWAP1 SWAP2 ADD MSTORE PUSH1 0x0 PUSH2 0x1D7B PUSH1 0x3C DUP9 PUSH2 0x3B73 JUMP JUMPDEST PUSH1 0xC SLOAD PUSH1 0xA DUP1 SLOAD SWAP3 SWAP4 POP PUSH1 0x1 PUSH1 0x1 PUSH1 0xA0 SHL SUB SWAP1 SWAP2 AND SWAP2 PUSH4 0xD47B2E99 SWAP2 SWAP1 DUP7 SWAP1 DUP2 LT PUSH2 0x1DA8 JUMPI PUSH2 0x1DA8 PUSH2 0x37B1 JUMP JUMPDEST PUSH1 0x0 SWAP2 DUP3 MSTORE PUSH1 0x20 SWAP1 SWAP2 KECCAK256 ADD SLOAD PUSH1 0x40 MLOAD PUSH1 0xE0 DUP4 SWAP1 SHL PUSH1 0x1 PUSH1 0x1 PUSH1 0xE0 SHL SUB NOT AND DUP2 MSTORE PUSH1 0x1 PUSH1 0x1 PUSH1 0xA0 SHL SUB SWAP1 SWAP2 AND PUSH1 0x4 DUP3 ADD MSTORE PUSH1 0x24 DUP2 ADD DUP5 SWAP1 MSTORE PUSH1 0x44 ADD PUSH1 0x0 PUSH1 0x40 MLOAD DUP1 DUP4 SUB DUP2 PUSH1 0x0 DUP8 DUP1 EXTCODESIZE ISZERO DUP1 ISZERO PUSH2 0x1DFC JUMPI PUSH1 0x0 DUP1 REVERT JUMPDEST POP GAS CALL ISZERO DUP1 ISZERO PUSH2 0x1E10 JUMPI RETURNDATASIZE PUSH1 0x0 DUP1 RETURNDATACOPY RETURNDATASIZE PUSH1 0x0 REVERT JUMPDEST POP POP PUSH1 0xC SLOAD PUSH1 0xA DUP1 SLOAD PUSH1 0x1 PUSH1 0x1 PUSH1 0xA0 SHL SUB SWAP1 SWAP3 AND SWAP4 POP PUSH4 0x2EB4B54F SWAP3 POP SWAP1 DUP7 SWAP1 DUP2 LT PUSH2 0x1E3E JUMPI PUSH2 0x1E3E PUSH2 0x37B1 JUMP JUMPDEST PUSH1 0x0 SWAP2 DUP3 MSTORE PUSH1 0x20 SWAP1 SWAP2 KECCAK256 ADD SLOAD PUSH1 0x40 MLOAD PUSH1 0x1 PUSH1 0x1 PUSH1 0xE0 SHL SUB NOT PUSH1 0xE0 DUP5 SWAP1 SHL AND DUP2 MSTORE PUSH2 0x1E77 SWAP2 PUSH1 0x1 PUSH1 0x1 PUSH1 0xA0 SHL SUB AND SWAP1 PUSH1 0x7 SWAP1 PUSH1 0x4 ADD PUSH2 0x3B95 JUMP JUMPDEST PUSH1 0x0 PUSH1 0x40 MLOAD DUP1 DUP4 SUB DUP2 PUSH1 0x0 DUP8 DUP1 EXTCODESIZE ISZERO DUP1 ISZERO PUSH2 0x1E91 JUMPI PUSH1 0x0 DUP1 REVERT JUMPDEST POP GAS CALL ISZERO DUP1 ISZERO PUSH2 0x1EA5 JUMPI RETURNDATASIZE PUSH1 0x0 DUP1 RETURNDATACOPY RETURNDATASIZE PUSH1 0x0 REVERT JUMPDEST POP POP POP POP POP PUSH2 0x1F50 JUMP JUMPDEST DUP1 PUSH1 0xFF AND PUSH1 0x0 SUB PUSH2 0x1F50 JUMPI PUSH1 0xC SLOAD PUSH1 0xA DUP1 SLOAD PUSH1 0x1 PUSH1 0x1 PUSH1 0xA0 SHL SUB SWAP1 SWAP3 AND SWAP2 PUSH4 0x2EB4B54F SWAP2 SWAP1 DUP6 SWAP1 DUP2 LT PUSH2 0x1EE4 JUMPI PUSH2 0x1EE4 PUSH2 0x37B1 JUMP JUMPDEST PUSH1 0x0 SWAP2 DUP3 MSTORE PUSH1 0x20 SWAP1 SWAP2 KECCAK256 ADD SLOAD PUSH1 0x40 MLOAD PUSH1 0x1 PUSH1 0x1 PUSH1 0xE0 SHL SUB NOT PUSH1 0xE0 DUP5 SWAP1 SHL AND DUP2 MSTORE PUSH2 0x1F1D SWAP2 PUSH1 0x1 PUSH1 0x1 PUSH1 0xA0 SHL SUB AND SWAP1 PUSH1 0x7 SWAP1 PUSH1 0x4 ADD PUSH2 0x3B95 JUMP JUMPDEST PUSH1 0x0 PUSH1 0x40 MLOAD DUP1 DUP4 SUB DUP2 PUSH1 0x0 DUP8 DUP1 EXTCODESIZE ISZERO DUP1 ISZERO PUSH2 0x1F37 JUMPI PUSH1 0x0 DUP1 REVERT JUMPDEST POP GAS CALL ISZERO DUP1 ISZERO PUSH2 0x1F4B JUMPI RETURNDATASIZE PUSH1 0x0 DUP1 RETURNDATACOPY RETURNDATASIZE PUSH1 0x0 REVERT JUMPDEST POP POP POP POP JUMPDEST POP PUSH2 0x1F5E JUMP JUMPDEST PUSH1 0x1 ADD PUSH2 0x1B92 JUMP JUMPDEST POP PUSH1 0x1 ADD PUSH2 0x1B86 JUMP JUMPDEST POP SWAP1 POP JUMPDEST SWAP3 SWAP2 POP POP JUMP JUMPDEST PUSH1 0x0 DUP4 PUSH1 0x40 MLOAD PUSH1 0x20 ADD PUSH2 0x1F84 SWAP2 SWAP1 PUSH2 0x37FE JUMP JUMPDEST PUSH1 0x40 DUP1 MLOAD DUP1 DUP4 SUB PUSH1 0x1F NOT ADD DUP2 MSTORE SWAP1 DUP3 SWAP1 MSTORE DUP1 MLOAD PUSH1 0x20 SWAP1 SWAP2 ADD KECCAK256 PUSH1 0xF SLOAD PUSH4 0xB9D57C5F PUSH1 0xE0 SHL DUP4 MSTORE PUSH1 0x4 DUP4 ADD DUP3 SWAP1 MSTORE SWAP1 SWAP3 POP PUSH1 0x0 SWAP2 PUSH1 0x1 PUSH1 0x1 PUSH1 0xA0 SHL SUB SWAP1 SWAP2 AND SWAP1 PUSH4 0xB9D57C5F SWAP1 PUSH1 0x24 ADD PUSH1 0x60 PUSH1 0x40 MLOAD DUP1 DUP4 SUB DUP2 DUP7 GAS STATICCALL ISZERO DUP1 ISZERO PUSH2 0x1FE9 JUMPI RETURNDATASIZE PUSH1 0x0 DUP1 RETURNDATACOPY RETURNDATASIZE PUSH1 0x0 REVERT JUMPDEST POP POP POP POP PUSH1 0x40 MLOAD RETURNDATASIZE PUSH1 0x1F NOT PUSH1 0x1F DUP3 ADD AND DUP3 ADD DUP1 PUSH1 0x40 MSTORE POP DUP2 ADD SWAP1 PUSH2 0x200D SWAP2 SWAP1 PUSH2 0x3BB9 JUMP JUMPDEST SWAP3 POP POP POP PUSH1 0x0 DUP1 PUSH2 0x201D CALLER PUSH2 0x15BF JUMP JUMPDEST SWAP2 POP SWAP2 POP DUP2 DUP4 EQ DUP1 PUSH2 0x202E JUMPI POP DUP1 DUP4 EQ JUMPDEST PUSH2 0x208B JUMPI PUSH1 0x40 MLOAD PUSH3 0x461BCD PUSH1 0xE5 SHL DUP2 MSTORE PUSH1 0x20 PUSH1 0x4 DUP3 ADD MSTORE PUSH1 0x28 PUSH1 0x24 DUP3 ADD MSTORE PUSH32 0x43616C6C65722773206F7261636C65206B657920696E64657820646F6573206E PUSH1 0x44 DUP3 ADD MSTORE PUSH8 0xDEE840DAC2E8C6D PUSH1 0xC3 SHL PUSH1 0x64 DUP3 ADD MSTORE PUSH1 0x84 ADD PUSH2 0x76A JUMP JUMPDEST CALLER PUSH1 0x0 SWAP1 DUP2 MSTORE PUSH1 0x9 PUSH1 0x20 MSTORE PUSH1 0x40 SWAP1 KECCAK256 SLOAD PUSH5 0x100000000 SWAP1 DIV PUSH1 0xFF AND PUSH2 0x20F2 JUMPI PUSH1 0x40 MLOAD PUSH3 0x461BCD PUSH1 0xE5 SHL DUP2 MSTORE PUSH1 0x20 PUSH1 0x4 DUP3 ADD MSTORE PUSH1 0x1A PUSH1 0x24 DUP3 ADD MSTORE PUSH32 0x43616C6C6572206973206E6F7420612067616D652061646D696E000000000000 PUSH1 0x44 DUP3 ADD MSTORE PUSH1 0x64 ADD PUSH2 0x76A JUMP JUMPDEST PUSH1 0xF SLOAD PUSH1 0x40 MLOAD PUSH1 0x1 PUSH1 0x1 PUSH1 0xA0 SHL SUB SWAP1 SWAP2 AND SWAP1 PUSH4 0x4A89D52B SWAP1 DUP10 SWAP1 DUP10 SWAP1 DUP10 SWAP1 PUSH2 0x211E SWAP1 DUP16 SWAP1 PUSH1 0x20 ADD PUSH2 0x3A17 JUMP JUMPDEST PUSH1 0x40 MLOAD PUSH1 0x20 DUP2 DUP4 SUB SUB DUP2 MSTORE SWAP1 PUSH1 0x40 MSTORE PUSH1 0x40 MLOAD DUP6 PUSH4 0xFFFFFFFF AND PUSH1 0xE0 SHL DUP2 MSTORE PUSH1 0x4 ADD PUSH2 0x214C SWAP5 SWAP4 SWAP3 SWAP2 SWAP1 PUSH2 0x36B3 JUMP JUMPDEST PUSH1 0x20 PUSH1 0x40 MLOAD DUP1 DUP4 SUB DUP2 PUSH1 0x0 DUP8 GAS CALL ISZERO DUP1 ISZERO PUSH2 0x216B JUMPI RETURNDATASIZE PUSH1 0x0 DUP1 RETURNDATACOPY RETURNDATASIZE PUSH1 0x0 REVERT JUMPDEST POP POP POP POP PUSH1 0x40 MLOAD RETURNDATASIZE PUSH1 0x1F NOT PUSH1 0x1F DUP3 ADD AND DUP3 ADD DUP1 PUSH1 0x40 MSTORE POP DUP2 ADD SWAP1 PUSH2 0x218F SWAP2 SWAP1 PUSH2 0x3794 JUMP JUMPDEST PUSH2 0x21DB JUMPI PUSH1 0x40 MLOAD PUSH3 0x461BCD PUSH1 0xE5 SHL DUP2 MSTORE PUSH1 0x20 PUSH1 0x4 DUP3 ADD MSTORE PUSH1 0x1B PUSH1 0x24 DUP3 ADD MSTORE PUSH32 0x4C616D706F7274206F7261636C6520636865636B206661696C65640000000000 PUSH1 0x44 DUP3 ADD MSTORE PUSH1 0x64 ADD PUSH2 0x76A JUMP JUMPDEST DUP8 ISZERO PUSH2 0x227D JUMPI PUSH1 0x0 DUP10 PUSH1 0x40 MLOAD PUSH2 0x21F1 SWAP2 SWAP1 PUSH2 0x3A17 JUMP JUMPDEST SWAP1 DUP2 MSTORE PUSH1 0x40 MLOAD SWAP1 DUP2 SWAP1 SUB PUSH1 0x20 ADD SWAP1 KECCAK256 SLOAD PUSH1 0xFF AND PUSH2 0x2278 JUMPI PUSH1 0x1 PUSH1 0x0 DUP11 PUSH1 0x40 MLOAD PUSH2 0x221A SWAP2 SWAP1 PUSH2 0x3A17 JUMP JUMPDEST SWAP1 DUP2 MSTORE PUSH1 0x40 MLOAD SWAP1 DUP2 SWAP1 SUB PUSH1 0x20 ADD SWAP1 KECCAK256 DUP1 SLOAD SWAP2 ISZERO ISZERO PUSH1 0xFF NOT SWAP1 SWAP3 AND SWAP2 SWAP1 SWAP2 OR SWAP1 SSTORE PUSH1 0x8 DUP1 SLOAD PUSH1 0x1 DUP2 ADD DUP3 SSTORE PUSH1 0x0 SWAP2 SWAP1 SWAP2 MSTORE PUSH32 0xF3F7A9FE364FAAB93B216DA50A3214154F22A0A2B415B23A84C8169E8B636EE3 ADD PUSH2 0x2276 DUP11 DUP3 PUSH2 0x3921 JUMP JUMPDEST POP JUMPDEST PUSH2 0x22DF JUMP JUMPDEST PUSH1 0x0 DUP10 PUSH1 0x40 MLOAD PUSH2 0x228D SWAP2 SWAP1 PUSH2 0x3A17 JUMP JUMPDEST SWAP1 DUP2 MSTORE PUSH1 0x40 MLOAD SWAP1 DUP2 SWAP1 SUB PUSH1 0x20 ADD SWAP1 KECCAK256 SLOAD PUSH1 0xFF AND ISZERO PUSH2 0x22DF JUMPI PUSH1 0x0 DUP1 DUP11 PUSH1 0x40 MLOAD PUSH2 0x22B6 SWAP2 SWAP1 PUSH2 0x3A17 JUMP JUMPDEST SWAP1 DUP2 MSTORE PUSH1 0x40 MLOAD SWAP1 DUP2 SWAP1 SUB PUSH1 0x20 ADD SWAP1 KECCAK256 DUP1 SLOAD SWAP2 ISZERO ISZERO PUSH1 0xFF NOT SWAP1 SWAP3 AND SWAP2 SWAP1 SWAP2 OR SWAP1 SSTORE PUSH2 0x22DF DUP10 PUSH2 0x2E4C JUMP JUMPDEST POP POP POP POP POP POP POP POP POP JUMP JUMPDEST PUSH1 0xD SLOAD PUSH1 0x1 PUSH1 0x1 PUSH1 0xA0 SHL SUB AND CALLER EQ PUSH2 0x2358 JUMPI PUSH1 0x40 MLOAD PUSH3 0x461BCD PUSH1 0xE5 SHL DUP2 MSTORE PUSH1 0x20 PUSH1 0x4 DUP3 ADD MSTORE PUSH1 0x3C PUSH1 0x24 DUP3 ADD MSTORE PUSH1 0x0 DUP1 MLOAD PUSH1 0x20 PUSH2 0x3D11 DUP4 CODECOPY DUP2 MLOAD SWAP2 MSTORE PUSH1 0x44 DUP3 ADD MSTORE PUSH32 0x6E6765204F6E626F617264205265676973747261722053746174757300000000 PUSH1 0x64 DUP3 ADD MSTORE PUSH1 0x84 ADD PUSH2 0x76A JUMP JUMPDEST PUSH1 0x1 PUSH1 0x1 PUSH1 0xA0 SHL SUB SWAP1 SWAP2 AND PUSH1 0x0 SWAP1 DUP2 MSTORE PUSH1 0x9 PUSH1 0x20 MSTORE PUSH1 0x40 SWAP1 KECCAK256 DUP1 SLOAD SWAP2 ISZERO ISZERO PUSH1 0x1 PUSH1 0x30 SHL MUL PUSH7 0xFF000000000000 NOT SWAP1 SWAP3 AND SWAP2 SWAP1 SWAP2 OR SWAP1 SSTORE JUMP JUMPDEST PUSH1 0x60 PUSH1 0x8 DUP1 SLOAD DUP1 PUSH1 0x20 MUL PUSH1 0x20 ADD PUSH1 0x40 MLOAD SWAP1 DUP2 ADD PUSH1 0x40 MSTORE DUP1 SWAP3 SWAP2 SWAP1 DUP2 DUP2 MSTORE PUSH1 0x20 ADD PUSH1 0x0 SWAP1 JUMPDEST DUP3 DUP3 LT ISZERO PUSH2 0x2460 JUMPI DUP4 DUP3 SWAP1 PUSH1 0x0 MSTORE PUSH1 0x20 PUSH1 0x0 KECCAK256 ADD DUP1 SLOAD PUSH2 0x23D3 SWAP1 PUSH2 0x389C JUMP JUMPDEST DUP1 PUSH1 0x1F ADD PUSH1 0x20 DUP1 SWAP2 DIV MUL PUSH1 0x20 ADD PUSH1 0x40 MLOAD SWAP1 DUP2 ADD PUSH1 0x40 MSTORE DUP1 SWAP3 SWAP2 SWAP1 DUP2 DUP2 MSTORE PUSH1 0x20 ADD DUP3 DUP1 SLOAD PUSH2 0x23FF SWAP1 PUSH2 0x389C JUMP JUMPDEST DUP1 ISZERO PUSH2 0x244C JUMPI DUP1 PUSH1 0x1F LT PUSH2 0x2421 JUMPI PUSH2 0x100 DUP1 DUP4 SLOAD DIV MUL DUP4 MSTORE SWAP2 PUSH1 0x20 ADD SWAP2 PUSH2 0x244C JUMP JUMPDEST DUP3 ADD SWAP2 SWAP1 PUSH1 0x0 MSTORE PUSH1 0x20 PUSH1 0x0 KECCAK256 SWAP1 JUMPDEST DUP2 SLOAD DUP2 MSTORE SWAP1 PUSH1 0x1 ADD SWAP1 PUSH1 0x20 ADD DUP1 DUP4 GT PUSH2 0x242F JUMPI DUP3 SWAP1 SUB PUSH1 0x1F AND DUP3 ADD SWAP2 JUMPDEST POP POP POP POP POP DUP2 MSTORE PUSH1 0x20 ADD SWAP1 PUSH1 0x1 ADD SWAP1 PUSH2 0x23B4 JUMP JUMPDEST POP POP POP POP SWAP1 POP SWAP1 JUMP JUMPDEST PUSH1 0xD SLOAD PUSH1 0x1 PUSH1 0x1 PUSH1 0xA0 SHL SUB AND CALLER EQ PUSH2 0x24D7 JUMPI PUSH1 0x40 MLOAD PUSH3 0x461BCD PUSH1 0xE5 SHL DUP2 MSTORE PUSH1 0x20 PUSH1 0x4 DUP3 ADD MSTORE PUSH1 0x39 PUSH1 0x24 DUP3 ADD MSTORE PUSH1 0x0 DUP1 MLOAD PUSH1 0x20 PUSH2 0x3D11 DUP4 CODECOPY DUP2 MLOAD SWAP2 MSTORE PUSH1 0x44 DUP3 ADD MSTORE PUSH32 0x6E67652047616D652056616C696461746F722073746174757300000000000000 PUSH1 0x64 DUP3 ADD MSTORE PUSH1 0x84 ADD PUSH2 0x76A JUMP JUMPDEST PUSH1 0x1 PUSH1 0x1 PUSH1 0xA0 SHL SUB SWAP1 SWAP2 AND PUSH1 0x0 SWAP1 DUP2 MSTORE PUSH1 0x9 PUSH1 0x20 MSTORE PUSH1 0x40 SWAP1 KECCAK256 DUP1 SLOAD SWAP2 ISZERO ISZERO PUSH2 0x100 MUL PUSH2 0xFF00 NOT SWAP1 SWAP3 AND SWAP2 SWAP1 SWAP2 OR SWAP1 SSTORE JUMP JUMPDEST PUSH1 0x0 DUP2 PUSH1 0x40 MLOAD PUSH1 0x20 ADD PUSH2 0x251B SWAP2 SWAP1 PUSH2 0x366D JUMP JUMPDEST PUSH1 0x40 DUP1 MLOAD DUP1 DUP4 SUB PUSH1 0x1F NOT ADD DUP2 MSTORE SWAP2 DUP2 MSTORE CALLER PUSH1 0x0 SWAP1 DUP2 MSTORE PUSH1 0x4 PUSH1 0x20 MSTORE KECCAK256 SLOAD SWAP1 SWAP2 POP PUSH1 0x1 PUSH1 0x1 PUSH1 0xA0 SHL SUB DUP4 DUP2 AND SWAP2 AND EQ PUSH2 0x25A8 JUMPI PUSH1 0x40 MLOAD PUSH3 0x461BCD PUSH1 0xE5 SHL DUP2 MSTORE PUSH1 0x20 PUSH1 0x4 DUP3 ADD MSTORE PUSH1 0x2A PUSH1 0x24 DUP3 ADD MSTORE PUSH32 0x50726F706F7365642047616D6556616C20636F6E747261637420616464726573 PUSH1 0x44 DUP3 ADD MSTORE PUSH10 0xE640DAD2E6DAC2E8C6D PUSH1 0xB3 SHL PUSH1 0x64 DUP3 ADD MSTORE PUSH1 0x84 ADD PUSH2 0x76A JUMP JUMPDEST PUSH1 0x0 DUP6 PUSH1 0x40 MLOAD PUSH1 0x20 ADD PUSH2 0x25BB SWAP2 SWAP1 PUSH2 0x37FE JUMP JUMPDEST PUSH1 0x40 MLOAD PUSH1 0x20 DUP2 DUP4 SUB SUB DUP2 MSTORE SWAP1 PUSH1 0x40 MSTORE DUP1 MLOAD SWAP1 PUSH1 0x20 ADD KECCAK256 SWAP1 POP DUP1 PUSH1 0x10 SLOAD SUB PUSH2 0x25F4 JUMPI PUSH1 0x40 MLOAD PUSH3 0x461BCD PUSH1 0xE5 SHL DUP2 MSTORE PUSH1 0x4 ADD PUSH2 0x76A SWAP1 PUSH2 0x3835 JUMP JUMPDEST PUSH1 0xF SLOAD PUSH1 0x40 MLOAD PUSH4 0x333F6111 PUSH1 0xE0 SHL DUP2 MSTORE PUSH1 0x0 SWAP2 PUSH1 0x1 PUSH1 0x1 PUSH1 0xA0 SHL SUB AND SWAP1 PUSH4 0x333F6111 SWAP1 PUSH2 0x262B SWAP1 DUP11 SWAP1 DUP11 SWAP1 DUP11 SWAP1 DUP10 SWAP1 PUSH1 0x4 ADD PUSH2 0x36B3 JUMP JUMPDEST PUSH1 0x20 PUSH1 0x40 MLOAD DUP1 DUP4 SUB DUP2 PUSH1 0x0 DUP8 GAS CALL ISZERO DUP1 ISZERO PUSH2 0x264A JUMPI RETURNDATASIZE PUSH1 0x0 DUP1 RETURNDATACOPY RETURNDATASIZE PUSH1 0x0 REVERT JUMPDEST POP POP POP POP PUSH1 0x40 MLOAD RETURNDATASIZE PUSH1 0x1F NOT PUSH1 0x1F DUP3 ADD AND DUP3 ADD DUP1 PUSH1 0x40 MSTORE POP DUP2 ADD SWAP1 PUSH2 0x266E SWAP2 SWAP1 PUSH2 0x3794 JUMP JUMPDEST SWAP1 POP DUP1 PUSH2 0x26E5 JUMPI PUSH1 0x40 DUP1 MLOAD PUSH3 0x461BCD PUSH1 0xE5 SHL DUP2 MSTORE PUSH1 0x20 PUSH1 0x4 DUP3 ADD MSTORE PUSH1 0x24 DUP2 ADD SWAP2 SWAP1 SWAP2 MSTORE PUSH32 0x417574686F72697A6174696F6E206661696C6564206F6E20636F6E6669726D61 PUSH1 0x44 DUP3 ADD MSTORE PUSH32 0x74696F6E206F662047616D6556616C20636F6E74726163742061646472657373 PUSH1 0x64 DUP3 ADD MSTORE PUSH1 0x84 ADD PUSH2 0x76A JUMP JUMPDEST PUSH1 0xB DUP1 SLOAD PUSH1 0x1 PUSH1 0x1 PUSH1 0xA0 SHL SUB NOT AND PUSH1 0x1 PUSH1 0x1 PUSH1 0xA0 SHL SUB DUP7 AND SWAP1 DUP2 OR SWAP1 SWAP2 SSTORE PUSH1 0x40 MLOAD PUSH32 0x6F1895F9314E8B91A7A1C3A67319510D05C9D6729515F83CC2EACA70D3E81F87 SWAP1 PUSH1 0x0 SWAP1 LOG2 POP POP CALLER PUSH1 0x0 SWAP1 DUP2 MSTORE PUSH1 0x4 PUSH1 0x20 MSTORE PUSH1 0x40 DUP2 KECCAK256 DUP1 SLOAD PUSH1 0x1 PUSH1 0x1 PUSH1 0xA0 SHL SUB NOT AND SWAP1 SSTORE PUSH1 0x10 SSTORE POP POP POP POP POP JUMP JUMPDEST PUSH1 0x0 DUP2 PUSH1 0x40 MLOAD PUSH1 0x20 ADD PUSH2 0x2768 SWAP2 SWAP1 PUSH2 0x366D JUMP JUMPDEST PUSH1 0x40 DUP1 MLOAD DUP1 DUP4 SUB PUSH1 0x1F NOT ADD DUP2 MSTORE SWAP2 DUP2 MSTORE CALLER PUSH1 0x0 SWAP1 DUP2 MSTORE PUSH1 0x6 PUSH1 0x20 MSTORE KECCAK256 SLOAD SWAP1 SWAP2 POP PUSH1 0x1 PUSH1 0x1 PUSH1 0xA0 SHL SUB DUP4 DUP2 AND SWAP2 AND EQ PUSH2 0x27F1 JUMPI PUSH1 0x40 MLOAD PUSH3 0x461BCD PUSH1 0xE5 SHL DUP2 MSTORE PUSH1 0x20 PUSH1 0x4 DUP3 ADD MSTORE PUSH1 0x26 PUSH1 0x24 DUP3 ADD MSTORE PUSH32 0x466F72756D20636F6E7472616374206164647265737320757064617465206D69 PUSH1 0x44 DUP3 ADD MSTORE PUSH6 0xE6DAC2E8C6D PUSH1 0xD3 SHL PUSH1 0x64 DUP3 ADD MSTORE PUSH1 0x84 ADD PUSH2 0x76A JUMP JUMPDEST PUSH1 0x0 DUP6 PUSH1 0x40 MLOAD PUSH1 0x20 ADD PUSH2 0x2804 SWAP2 SWAP1 PUSH2 0x37FE JUMP JUMPDEST PUSH1 0x40 MLOAD PUSH1 0x20 DUP2 DUP4 SUB SUB DUP2 MSTORE SWAP1 PUSH1 0x40 MSTORE DUP1 MLOAD SWAP1 PUSH1 0x20 ADD KECCAK256 SWAP1 POP DUP1 PUSH1 0x10 SLOAD SUB PUSH2 0x283D JUMPI PUSH1 0x40 MLOAD PUSH3 0x461BCD PUSH1 0xE5 SHL DUP2 MSTORE PUSH1 0x4 ADD PUSH2 0x76A SWAP1 PUSH2 0x3835 JUMP JUMPDEST PUSH1 0xF SLOAD PUSH1 0x40 MLOAD PUSH4 0x333F6111 PUSH1 0xE0 SHL DUP2 MSTORE PUSH1 0x0 SWAP2 PUSH1 0x1 PUSH1 0x1 PUSH1 0xA0 SHL SUB AND SWAP1 PUSH4 0x333F6111 SWAP1 PUSH2 0x2874 SWAP1 DUP11 SWAP1 DUP11 SWAP1 DUP11 SWAP1 DUP10 SWAP1 PUSH1 0x4 ADD PUSH2 0x36B3 JUMP JUMPDEST PUSH1 0x20 PUSH1 0x40 MLOAD DUP1 DUP4 SUB DUP2 PUSH1 0x0 DUP8 GAS CALL ISZERO DUP1 ISZERO PUSH2 0x2893 JUMPI RETURNDATASIZE PUSH1 0x0 DUP1 RETURNDATACOPY RETURNDATASIZE PUSH1 0x0 REVERT JUMPDEST POP POP POP POP PUSH1 0x40 MLOAD RETURNDATASIZE PUSH1 0x1F NOT PUSH1 0x1F DUP3 ADD AND DUP3 ADD DUP1 PUSH1 0x40 MSTORE POP DUP2 ADD SWAP1 PUSH2 0x28B7 SWAP2 SWAP1 PUSH2 0x3794 JUMP JUMPDEST SWAP1 POP DUP1 PUSH2 0x293A JUMPI PUSH1 0x40 MLOAD PUSH3 0x461BCD PUSH1 0xE5 SHL DUP2 MSTORE PUSH1 0x20 PUSH1 0x4 DUP3 ADD MSTORE PUSH1 0x45 PUSH1 0x24 DUP3 ADD MSTORE PUSH32 0x417574686F72697A6174696F6E206661696C6564206F6E20636F6E6669726D61 PUSH1 0x44 DUP3 ADD MSTORE PUSH32 0x74696F6E206F6620466F72756D20636F6E747261637420616464726573732075 PUSH1 0x64 DUP3 ADD MSTORE PUSH5 0x7064617465 PUSH1 0xD8 SHL PUSH1 0x84 DUP3 ADD MSTORE PUSH1 0xA4 ADD PUSH2 0x76A JUMP JUMPDEST PUSH1 0xE DUP1 SLOAD PUSH1 0x1 PUSH1 0x1 PUSH1 0xA0 SHL SUB NOT AND PUSH1 0x1 PUSH1 0x1 PUSH1 0xA0 SHL SUB DUP7 AND SWAP1 DUP2 OR SWAP1 SWAP2 SSTORE PUSH1 0x40 MLOAD PUSH32 0x78E5262E53E14D17B3058C6B8CF7CD3C2FB92A4172FA393FDDD75CB57523B1C6 SWAP1 PUSH1 0x0 SWAP1 LOG2 POP POP CALLER PUSH1 0x0 SWAP1 DUP2 MSTORE PUSH1 0x6 PUSH1 0x20 MSTORE PUSH1 0x40 DUP2 KECCAK256 DUP1 SLOAD PUSH1 0x1 PUSH1 0x1 PUSH1 0xA0 SHL SUB NOT AND SWAP1 SSTORE PUSH1 0x10 SSTORE POP POP POP POP POP JUMP JUMPDEST PUSH1 0x0 DUP2 PUSH1 0x40 MLOAD PUSH1 0x20 ADD PUSH2 0x29BD SWAP2 SWAP1 PUSH2 0x366D JUMP JUMPDEST PUSH1 0x40 DUP1 MLOAD PUSH1 0x1F NOT DUP2 DUP5 SUB ADD DUP2 MSTORE SWAP1 DUP3 SWAP1 MSTORE PUSH1 0xF SLOAD PUSH4 0x333F6111 PUSH1 0xE0 SHL DUP4 MSTORE SWAP1 SWAP3 POP PUSH1 0x0 SWAP2 PUSH1 0x1 PUSH1 0x1 PUSH1 0xA0 SHL SUB SWAP1 SWAP2 AND SWAP1 PUSH4 0x333F6111 SWAP1 PUSH2 0x2A07 SWAP1 DUP10 SWAP1 DUP10 SWAP1 DUP10 SWAP1 DUP9 SWAP1 PUSH1 0x4 ADD PUSH2 0x36B3 JUMP JUMPDEST PUSH1 0x20 PUSH1 0x40 MLOAD DUP1 DUP4 SUB DUP2 PUSH1 0x0 DUP8 GAS CALL ISZERO DUP1 ISZERO PUSH2 0x2A26 JUMPI RETURNDATASIZE PUSH1 0x0 DUP1 RETURNDATACOPY RETURNDATASIZE PUSH1 0x0 REVERT JUMPDEST POP POP POP POP PUSH1 0x40 MLOAD RETURNDATASIZE PUSH1 0x1F NOT PUSH1 0x1F DUP3 ADD AND DUP3 ADD DUP1 PUSH1 0x40 MSTORE POP DUP2 ADD SWAP1 PUSH2 0x2A4A SWAP2 SWAP1 PUSH2 0x3794 JUMP JUMPDEST SWAP1 POP DUP1 PUSH2 0x2A69 JUMPI PUSH1 0x40 MLOAD PUSH3 0x461BCD PUSH1 0xE5 SHL DUP2 MSTORE PUSH1 0x4 ADD PUSH2 0x76A SWAP1 PUSH2 0x3BF4 JUMP JUMPDEST POP POP CALLER PUSH1 0x0 SWAP1 DUP2 MSTORE PUSH1 0x3 PUSH1 0x20 MSTORE PUSH1 0x40 SWAP1 KECCAK256 DUP1 SLOAD PUSH1 0x1 PUSH1 0x1 PUSH1 0xA0 SHL SUB NOT AND PUSH1 0x1 PUSH1 0x1 PUSH1 0xA0 SHL SUB SWAP3 SWAP1 SWAP3 AND SWAP2 SWAP1 SWAP2 OR SWAP1 SSTORE PUSH1 0x10 SSTORE POP POP JUMP JUMPDEST PUSH1 0x8 DUP2 DUP2 SLOAD DUP2 LT PUSH2 0x2AAF JUMPI PUSH1 0x0 DUP1 REVERT JUMPDEST SWAP1 PUSH1 0x0 MSTORE PUSH1 0x20 PUSH1 0x0 KECCAK256 ADD PUSH1 0x0 SWAP2 POP SWAP1 POP DUP1 SLOAD PUSH2 0x2ACA SWAP1 PUSH2 0x389C JUMP JUMPDEST DUP1 PUSH1 0x1F ADD PUSH1 0x20 DUP1 SWAP2 DIV MUL PUSH1 0x20 ADD PUSH1 0x40 MLOAD SWAP1 DUP2 ADD PUSH1 0x40 MSTORE DUP1 SWAP3 SWAP2 SWAP1 DUP2 DUP2 MSTORE PUSH1 0x20 ADD DUP3 DUP1 SLOAD PUSH2 0x2AF6 SWAP1 PUSH2 0x389C JUMP JUMPDEST DUP1 ISZERO PUSH2 0x2B43 JUMPI DUP1 PUSH1 0x1F LT PUSH2 0x2B18 JUMPI PUSH2 0x100 DUP1 DUP4 SLOAD DIV MUL DUP4 MSTORE SWAP2 PUSH1 0x20 ADD SWAP2 PUSH2 0x2B43 JUMP JUMPDEST DUP3 ADD SWAP2 SWAP1 PUSH1 0x0 MSTORE PUSH1 0x20 PUSH1 0x0 KECCAK256 SWAP1 JUMPDEST DUP2 SLOAD DUP2 MSTORE SWAP1 PUSH1 0x1 ADD SWAP1 PUSH1 0x20 ADD DUP1 DUP4 GT PUSH2 0x2B26 JUMPI DUP3 SWAP1 SUB PUSH1 0x1F AND DUP3 ADD SWAP2 JUMPDEST POP POP POP POP POP DUP2 JUMP JUMPDEST PUSH1 0xE SLOAD PUSH1 0x1 PUSH1 0x1 PUSH1 0xA0 SHL SUB AND CALLER EQ PUSH2 0x2BCB JUMPI PUSH1 0x40 MLOAD PUSH3 0x461BCD PUSH1 0xE5 SHL DUP2 MSTORE PUSH1 0x20 PUSH1 0x4 DUP3 ADD MSTORE PUSH1 0x3E PUSH1 0x24 DUP3 ADD MSTORE PUSH32 0x4F6E6C792074686520666F72756D20636F6E74726163742063616E206D6F6469 PUSH1 0x44 DUP3 ADD MSTORE PUSH32 0x667920746F75726E616D656E74206D6F64657261746F72207374617475730000 PUSH1 0x64 DUP3 ADD MSTORE PUSH1 0x84 ADD PUSH2 0x76A JUMP JUMPDEST PUSH1 0x1 PUSH1 0x1 PUSH1 0xA0 SHL SUB SWAP1 SWAP2 AND PUSH1 0x0 SWAP1 DUP2 MSTORE PUSH1 0x9 PUSH1 0x20 MSTORE PUSH1 0x40 SWAP1 KECCAK256 DUP1 SLOAD SWAP2 ISZERO ISZERO PUSH4 0x1000000 MUL PUSH4 0xFF000000 NOT SWAP1 SWAP3 AND SWAP2 SWAP1 SWAP2 OR SWAP1 SSTORE JUMP JUMPDEST PUSH1 0x0 DUP2 PUSH1 0x40 MLOAD PUSH1 0x20 ADD PUSH2 0x2C13 SWAP2 SWAP1 PUSH2 0x366D JUMP JUMPDEST PUSH1 0x40 DUP1 MLOAD DUP1 DUP4 SUB PUSH1 0x1F NOT ADD DUP2 MSTORE SWAP2 DUP2 MSTORE CALLER PUSH1 0x0 SWAP1 DUP2 MSTORE PUSH1 0x3 PUSH1 0x20 MSTORE KECCAK256 SLOAD SWAP1 SWAP2 POP PUSH1 0x1 PUSH1 0x1 PUSH1 0xA0 SHL SUB DUP4 DUP2 AND SWAP2 AND EQ PUSH2 0x2C9F JUMPI PUSH1 0x40 MLOAD PUSH3 0x461BCD PUSH1 0xE5 SHL DUP2 MSTORE PUSH1 0x20 PUSH1 0x4 DUP3 ADD MSTORE PUSH1 0x29 PUSH1 0x24 DUP3 ADD MSTORE PUSH32 0x50726F706F73656420416E6F6E494420636F6E74726163742061646472657373 PUSH1 0x44 DUP3 ADD MSTORE PUSH9 0x40DAD2E6DAC2E8C6D PUSH1 0xBB SHL PUSH1 0x64 DUP3 ADD MSTORE PUSH1 0x84 ADD PUSH2 0x76A JUMP JUMPDEST PUSH1 0x0 DUP6 PUSH1 0x40 MLOAD PUSH1 0x20 ADD PUSH2 0x2CB2 SWAP2 SWAP1 PUSH2 0x37FE JUMP JUMPDEST PUSH1 0x40 MLOAD PUSH1 0x20 DUP2 DUP4 SUB SUB DUP2 MSTORE SWAP1 PUSH1 0x40 MSTORE DUP1 MLOAD SWAP1 PUSH1 0x20 ADD KECCAK256 SWAP1 POP DUP1 PUSH1 0x10 SLOAD SUB PUSH2 0x2D43 JUMPI PUSH1 0x40 DUP1 MLOAD PUSH3 0x461BCD PUSH1 0xE5 SHL DUP2 MSTORE PUSH1 0x20 PUSH1 0x4 DUP3 ADD MSTORE PUSH1 0x24 DUP2 ADD SWAP2 SWAP1 SWAP2 MSTORE PUSH32 0x4C616D706F7274426173653A20504B48206D617463686573206C617374207573 PUSH1 0x44 DUP3 ADD MSTORE PUSH32 0x656420504B482028757365207365706172617465207365636F6E64206B657929 PUSH1 0x64 DUP3 ADD MSTORE PUSH1 0x84 ADD PUSH2 0x76A JUMP JUMPDEST PUSH1 0xF SLOAD PUSH1 0x40 MLOAD PUSH4 0x333F6111 PUSH1 0xE0 SHL DUP2 MSTORE PUSH1 0x0 SWAP2 PUSH1 0x1 PUSH1 0x1 PUSH1 0xA0 SHL SUB AND SWAP1 PUSH4 0x333F6111 SWAP1 PUSH2 0x2D7A SWAP1 DUP11 SWAP1 DUP11 SWAP1 DUP11 SWAP1 DUP10 SWAP1 PUSH1 0x4 ADD PUSH2 0x36B3 JUMP JUMPDEST PUSH1 0x20 PUSH1 0x40 MLOAD DUP1 DUP4 SUB DUP2 PUSH1 0x0 DUP8 GAS CALL ISZERO DUP1 ISZERO PUSH2 0x2D99 JUMPI RETURNDATASIZE PUSH1 0x0 DUP1 RETURNDATACOPY RETURNDATASIZE PUSH1 0x0 REVERT JUMPDEST POP POP POP POP PUSH1 0x40 MLOAD RETURNDATASIZE PUSH1 0x1F NOT PUSH1 0x1F DUP3 ADD AND DUP3 ADD DUP1 PUSH1 0x40 MSTORE POP DUP2 ADD SWAP1 PUSH2 0x2DBD SWAP2 SWAP1 PUSH2 0x3794 JUMP JUMPDEST SWAP1 POP DUP1 PUSH2 0x2DDC JUMPI PUSH1 0x40 MLOAD PUSH3 0x461BCD PUSH1 0xE5 SHL DUP2 MSTORE PUSH1 0x4 ADD PUSH2 0x76A SWAP1 PUSH2 0x3BF4 JUMP JUMPDEST PUSH1 0xC DUP1 SLOAD PUSH1 0x1 PUSH1 0x1 PUSH1 0xA0 SHL SUB NOT AND PUSH1 0x1 PUSH1 0x1 PUSH1 0xA0 SHL SUB DUP7 AND SWAP1 DUP2 OR SWAP1 SWAP2 SSTORE PUSH1 0x40 MLOAD PUSH32 0xEBC4468D0C46ED1B5177ED98BDB5D4CCFC7DD4F9DA4CAA02B6FD46B1E7BE0D4E SWAP1 PUSH1 0x0 SWAP1 LOG2 POP POP CALLER PUSH1 0x0 SWAP1 DUP2 MSTORE PUSH1 0x3 PUSH1 0x20 MSTORE PUSH1 0x40 DUP2 KECCAK256 DUP1 SLOAD PUSH1 0x1 PUSH1 0x1 PUSH1 0xA0 SHL SUB NOT AND SWAP1 SSTORE PUSH1 0x10 SSTORE POP POP POP POP POP JUMP JUMPDEST CALLER PUSH1 0x0 SWAP1 DUP2 MSTORE PUSH1 0x9 PUSH1 0x20 MSTORE PUSH1 0x40 SWAP1 KECCAK256 SLOAD PUSH5 0x100000000 SWAP1 DIV PUSH1 0xFF AND PUSH2 0x2EB3 JUMPI PUSH1 0x40 MLOAD PUSH3 0x461BCD PUSH1 0xE5 SHL DUP2 MSTORE PUSH1 0x20 PUSH1 0x4 DUP3 ADD MSTORE PUSH1 0x1A PUSH1 0x24 DUP3 ADD MSTORE PUSH32 0x43616C6C6572206973206E6F7420612067616D652061646D696E000000000000 PUSH1 0x44 DUP3 ADD MSTORE PUSH1 0x64 ADD PUSH2 0x76A JUMP JUMPDEST PUSH1 0x0 JUMPDEST PUSH1 0x8 SLOAD DUP2 LT ISZERO PUSH2 0xAD0 JUMPI DUP2 PUSH1 0x40 MLOAD PUSH1 0x20 ADD PUSH2 0x2ED1 SWAP2 SWAP1 PUSH2 0x3A17 JUMP JUMPDEST PUSH1 0x40 MLOAD PUSH1 0x20 DUP2 DUP4 SUB SUB DUP2 MSTORE SWAP1 PUSH1 0x40 MSTORE DUP1 MLOAD SWAP1 PUSH1 0x20 ADD KECCAK256 PUSH1 0x8 DUP3 DUP2 SLOAD DUP2 LT PUSH2 0x2EFA JUMPI PUSH2 0x2EFA PUSH2 0x37B1 JUMP JUMPDEST SWAP1 PUSH1 0x0 MSTORE PUSH1 0x20 PUSH1 0x0 KECCAK256 ADD PUSH1 0x40 MLOAD PUSH1 0x20 ADD PUSH2 0x2F14 SWAP2 SWAP1 PUSH2 0x3A33 JUMP JUMPDEST PUSH1 0x40 MLOAD PUSH1 0x20 DUP2 DUP4 SUB SUB DUP2 MSTORE SWAP1 PUSH1 0x40 MSTORE DUP1 MLOAD SWAP1 PUSH1 0x20 ADD KECCAK256 SUB PUSH2 0x2FE7 JUMPI PUSH1 0x0 DUP1 DUP4 PUSH1 0x40 MLOAD PUSH2 0x2F40 SWAP2 SWAP1 PUSH2 0x3A17 JUMP JUMPDEST SWAP1 DUP2 MSTORE PUSH1 0x40 MLOAD SWAP1 DUP2 SWAP1 SUB PUSH1 0x20 ADD SWAP1 KECCAK256 DUP1 SLOAD SWAP2 ISZERO ISZERO PUSH1 0xFF NOT SWAP1 SWAP3 AND SWAP2 SWAP1 SWAP2 OR SWAP1 SSTORE PUSH1 0x8 DUP1 SLOAD PUSH2 0x2F70 SWAP1 PUSH1 0x1 SWAP1 PUSH2 0x37C7 JUMP JUMPDEST DUP2 SLOAD DUP2 LT PUSH2 0x2F80 JUMPI PUSH2 0x2F80 PUSH2 0x37B1 JUMP JUMPDEST SWAP1 PUSH1 0x0 MSTORE PUSH1 0x20 PUSH1 0x0 KECCAK256 ADD PUSH1 0x8 DUP3 DUP2 SLOAD DUP2 LT PUSH2 0x2F9D JUMPI PUSH2 0x2F9D PUSH2 0x37B1 JUMP JUMPDEST SWAP1 PUSH1 0x0 MSTORE PUSH1 0x20 PUSH1 0x0 KECCAK256 ADD SWAP1 DUP2 PUSH2 0x2FB3 SWAP2 SWAP1 PUSH2 0x3C35 JUMP JUMPDEST POP PUSH1 0x8 DUP1 SLOAD DUP1 PUSH2 0x2FC5 JUMPI PUSH2 0x2FC5 PUSH2 0x37E8 JUMP JUMPDEST PUSH1 0x1 SWAP1 SUB DUP2 DUP2 SWAP1 PUSH1 0x0 MSTORE PUSH1 0x20 PUSH1 0x0 KECCAK256 ADD PUSH1 0x0 PUSH2 0x2FE1 SWAP2 SWAP1 PUSH2 0x2FEF JUMP JUMPDEST SWAP1 SSTORE POP POP JUMP JUMPDEST PUSH1 0x1 ADD PUSH2 0x2EB6 JUMP JUMPDEST POP DUP1 SLOAD PUSH2 0x2FFB SWAP1 PUSH2 0x389C JUMP JUMPDEST PUSH1 0x0 DUP3 SSTORE DUP1 PUSH1 0x1F LT PUSH2 0x300B JUMPI POP POP JUMP JUMPDEST PUSH1 0x1F ADD PUSH1 0x20 SWAP1 DIV SWAP1 PUSH1 0x0 MSTORE PUSH1 0x20 PUSH1 0x0 KECCAK256 SWAP1 DUP2 ADD SWAP1 PUSH2 0x3029 SWAP2 SWAP1 PUSH2 0x302C JUMP JUMPDEST POP JUMP JUMPDEST JUMPDEST DUP1 DUP3 GT ISZERO PUSH2 0x3041 JUMPI PUSH1 0x0 DUP2 SSTORE PUSH1 0x1 ADD PUSH2 0x302D JUMP JUMPDEST POP SWAP1 JUMP JUMPDEST PUSH1 0x1 PUSH1 0x1 PUSH1 0xA0 SHL SUB DUP2 AND DUP2 EQ PUSH2 0x3029 JUMPI PUSH1 0x0 DUP1 REVERT JUMPDEST DUP1 ISZERO ISZERO DUP2 EQ PUSH2 0x3029 JUMPI PUSH1 0x0 DUP1 REVERT JUMPDEST PUSH1 0x0 DUP1 PUSH1 0x40 DUP4 DUP6 SUB SLT ISZERO PUSH2 0x307B JUMPI PUSH1 0x0 DUP1 REVERT JUMPDEST DUP3 CALLDATALOAD PUSH2 0x3086 DUP2 PUSH2 0x3045 JUMP JUMPDEST SWAP2 POP PUSH1 0x20 DUP4 ADD CALLDATALOAD PUSH2 0x3096 DUP2 PUSH2 0x305A JUMP JUMPDEST DUP1 SWAP2 POP POP SWAP3 POP SWAP3 SWAP1 POP JUMP JUMPDEST DUP1 PUSH2 0x4000 DUP2 ADD DUP4 LT ISZERO PUSH2 0x1F6B JUMPI PUSH1 0x0 DUP1 REVERT JUMPDEST DUP1 PUSH2 0x2000 DUP2 ADD DUP4 LT ISZERO PUSH2 0x1F6B JUMPI PUSH1 0x0 DUP1 REVERT JUMPDEST PUSH1 0x0 DUP1 PUSH1 0x0 DUP1 PUSH2 0x4060 DUP6 DUP8 SUB SLT ISZERO PUSH2 0x30DC JUMPI PUSH1 0x0 DUP1 REVERT JUMPDEST PUSH2 0x30E6 DUP7 DUP7 PUSH2 0x30A1 JUMP JUMPDEST SWAP4 POP PUSH2 0x4000 DUP6 ADD CALLDATALOAD PUSH8 0xFFFFFFFFFFFFFFFF DUP2 GT ISZERO PUSH2 0x3103 JUMPI PUSH1 0x0 DUP1 REVERT JUMPDEST PUSH2 0x310F DUP8 DUP3 DUP9 ADD PUSH2 0x30B3 JUMP JUMPDEST SWAP4 POP POP PUSH2 0x4020 DUP6 ADD CALLDATALOAD SWAP2 POP PUSH2 0x4040 DUP6 ADD CALLDATALOAD PUSH2 0x3129 DUP2 PUSH2 0x3045 JUMP JUMPDEST SWAP4 SWAP7 SWAP3 SWAP6 POP SWAP1 SWAP4 POP POP JUMP JUMPDEST PUSH1 0x0 PUSH1 0x20 DUP3 DUP5 SUB SLT ISZERO PUSH2 0x3146 JUMPI PUSH1 0x0 DUP1 REVERT JUMPDEST DUP2 CALLDATALOAD PUSH2 0x3151 DUP2 PUSH2 0x3045 JUMP JUMPDEST SWAP4 SWAP3 POP POP POP JUMP JUMPDEST PUSH1 0x0 PUSH1 0x20 DUP3 DUP5 SUB SLT ISZERO PUSH2 0x316A JUMPI PUSH1 0x0 DUP1 REVERT JUMPDEST POP CALLDATALOAD SWAP2 SWAP1 POP JUMP JUMPDEST PUSH1 0x0 DUP1 PUSH1 0x40 DUP4 DUP6 SUB SLT ISZERO PUSH2 0x3184 JUMPI PUSH1 0x0 DUP1 REVERT JUMPDEST DUP3 CALLDATALOAD PUSH2 0x318F DUP2 PUSH2 0x3045 JUMP JUMPDEST SWAP5 PUSH1 0x20 SWAP4 SWAP1 SWAP4 ADD CALLDATALOAD SWAP4 POP POP POP JUMP JUMPDEST PUSH4 0x4E487B71 PUSH1 0xE0 SHL PUSH1 0x0 MSTORE PUSH1 0x41 PUSH1 0x4 MSTORE PUSH1 0x24 PUSH1 0x0 REVERT JUMPDEST PUSH1 0x40 MLOAD PUSH1 0x1F DUP3 ADD PUSH1 0x1F NOT AND DUP2 ADD PUSH8 0xFFFFFFFFFFFFFFFF DUP2 GT DUP3 DUP3 LT OR ISZERO PUSH2 0x31DC JUMPI PUSH2 0x31DC PUSH2 0x319D JUMP JUMPDEST PUSH1 0x40 MSTORE SWAP2 SWAP1 POP JUMP JUMPDEST PUSH1 0x0 DUP3 PUSH1 0x1F DUP4 ADD SLT PUSH2 0x31F5 JUMPI PUSH1 0x0 DUP1 REVERT JUMPDEST DUP2 CALLDATALOAD PUSH8 0xFFFFFFFFFFFFFFFF DUP2 GT ISZERO PUSH2 0x320F JUMPI PUSH2 0x320F PUSH2 0x319D JUMP JUMPDEST PUSH2 0x3222 PUSH1 0x1F DUP3 ADD PUSH1 0x1F NOT AND PUSH1 0x20 ADD PUSH2 0x31B3 JUMP JUMPDEST DUP2 DUP2 MSTORE DUP5 PUSH1 0x20 DUP4 DUP7 ADD ADD GT ISZERO PUSH2 0x3237 JUMPI PUSH1 0x0 DUP1 REVERT JUMPDEST DUP2 PUSH1 0x20 DUP6 ADD PUSH1 0x20 DUP4 ADD CALLDATACOPY PUSH1 0x0 SWAP2 DUP2 ADD PUSH1 0x20 ADD SWAP2 SWAP1 SWAP2 MSTORE SWAP4 SWAP3 POP POP POP JUMP JUMPDEST PUSH1 0x0 DUP1 PUSH1 0x0 DUP1 PUSH1 0x0 DUP1 PUSH1 0xC0 DUP8 DUP10 SUB SLT ISZERO PUSH2 0x326D JUMPI PUSH1 0x0 DUP1 REVERT JUMPDEST DUP7 CALLDATALOAD PUSH2 0x3278 DUP2 PUSH2 0x3045 JUMP JUMPDEST SWAP6 POP PUSH1 0x20 DUP8 ADD CALLDATALOAD PUSH8 0xFFFFFFFFFFFFFFFF DUP1 DUP3 GT ISZERO PUSH2 0x3295 JUMPI PUSH1 0x0 DUP1 REVERT JUMPDEST PUSH2 0x32A1 DUP11 DUP4 DUP12 ADD PUSH2 0x31E4 JUMP JUMPDEST SWAP7 POP PUSH1 0x40 DUP10 ADD CALLDATALOAD SWAP2 POP DUP1 DUP3 GT ISZERO PUSH2 0x32B7 JUMPI PUSH1 0x0 DUP1 REVERT JUMPDEST POP PUSH2 0x32C4 DUP10 DUP3 DUP11 ADD PUSH2 0x31E4 JUMP JUMPDEST SWAP5 POP POP PUSH1 0x60 DUP8 ADD CALLDATALOAD SWAP3 POP PUSH1 0x80 DUP8 ADD CALLDATALOAD SWAP2 POP PUSH1 0xA0 DUP8 ADD CALLDATALOAD PUSH2 0x32E3 DUP2 PUSH2 0x3045 JUMP JUMPDEST DUP1 SWAP2 POP POP SWAP3 SWAP6 POP SWAP3 SWAP6 POP SWAP3 SWAP6 JUMP JUMPDEST PUSH1 0x0 PUSH1 0x20 DUP3 DUP5 SUB SLT ISZERO PUSH2 0x3303 JUMPI PUSH1 0x0 DUP1 REVERT JUMPDEST DUP2 CALLDATALOAD PUSH8 0xFFFFFFFFFFFFFFFF DUP2 GT ISZERO PUSH2 0x331A JUMPI PUSH1 0x0 DUP1 REVERT JUMPDEST PUSH2 0x3326 DUP5 DUP3 DUP6 ADD PUSH2 0x31E4 JUMP JUMPDEST SWAP5 SWAP4 POP POP POP POP JUMP JUMPDEST PUSH1 0x0 JUMPDEST DUP4 DUP2 LT ISZERO PUSH2 0x3349 JUMPI DUP2 DUP2 ADD MLOAD DUP4 DUP3 ADD MSTORE PUSH1 0x20 ADD PUSH2 0x3331 JUMP JUMPDEST POP POP PUSH1 0x0 SWAP2 ADD MSTORE JUMP JUMPDEST PUSH1 0x0 DUP2 MLOAD DUP1 DUP5 MSTORE PUSH2 0x336A DUP2 PUSH1 0x20 DUP7 ADD PUSH1 0x20 DUP7 ADD PUSH2 0x332E JUMP JUMPDEST PUSH1 0x1F ADD PUSH1 0x1F NOT AND SWAP3 SWAP1 SWAP3 ADD PUSH1 0x20 ADD SWAP3 SWAP2 POP POP JUMP JUMPDEST DUP14 ISZERO ISZERO DUP2 MSTORE DUP13 ISZERO ISZERO PUSH1 0x20 DUP3 ADD MSTORE DUP12 ISZERO ISZERO PUSH1 0x40 DUP3 ADD MSTORE PUSH1 0x0 PUSH2 0x1A0 DUP13 ISZERO ISZERO PUSH1 0x60 DUP5 ADD MSTORE DUP12 ISZERO ISZERO PUSH1 0x80 DUP5 ADD MSTORE DUP11 ISZERO ISZERO PUSH1 0xA0 DUP5 ADD MSTORE DUP10 ISZERO ISZERO PUSH1 0xC0 DUP5 ADD MSTORE DUP1 PUSH1 0xE0 DUP5 ADD MSTORE PUSH2 0x33CA DUP2 DUP5 ADD DUP11 PUSH2 0x3352 JUMP JUMPDEST SWAP1 POP DUP8 PUSH2 0x100 DUP5 ADD MSTORE DUP3 DUP2 SUB PUSH2 0x120 DUP5 ADD MSTORE PUSH2 0x33E6 DUP2 DUP9 PUSH2 0x3352 JUMP JUMPDEST SWAP2 POP POP PUSH2 0x33FF PUSH2 0x140 DUP4 ADD DUP7 PUSH1 0x1 PUSH1 0x1 PUSH1 0xA0 SHL SUB AND SWAP1 MSTORE JUMP JUMPDEST PUSH2 0x160 DUP3 ADD SWAP4 SWAP1 SWAP4 MSTORE PUSH2 0x180 ADD MSTORE SWAP12 SWAP11 POP POP POP POP POP POP POP POP POP POP POP JUMP JUMPDEST PUSH1 0x0 PUSH1 0x20 DUP1 DUP4 ADD PUSH1 0x20 DUP5 MSTORE DUP1 DUP6 MLOAD DUP1 DUP4 MSTORE PUSH1 0x40 DUP7 ADD SWAP2 POP PUSH1 0x40 DUP2 PUSH1 0x5 SHL DUP8 ADD ADD SWAP3 POP PUSH1 0x20 DUP8 ADD PUSH1 0x0 JUMPDEST DUP3 DUP2 LT ISZERO PUSH2 0x3473 JUMPI PUSH1 0x3F NOT DUP9 DUP7 SUB ADD DUP5 MSTORE PUSH2 0x3461 DUP6 DUP4 MLOAD PUSH2 0x3352 JUMP JUMPDEST SWAP5 POP SWAP3 DUP6 ADD SWAP3 SWAP1 DUP6 ADD SWAP1 PUSH1 0x1 ADD PUSH2 0x3445 JUMP JUMPDEST POP SWAP3 SWAP8 SWAP7 POP POP POP POP POP POP POP JUMP JUMPDEST PUSH1 0x0 DUP1 PUSH1 0x40 DUP4 DUP6 SUB SLT ISZERO PUSH2 0x3493 JUMPI PUSH1 0x0 DUP1 REVERT JUMPDEST DUP3 CALLDATALOAD PUSH8 0xFFFFFFFFFFFFFFFF DUP1 DUP3 GT ISZERO PUSH2 0x34AB JUMPI PUSH1 0x0 DUP1 REVERT JUMPDEST DUP2 DUP6 ADD SWAP2 POP DUP6 PUSH1 0x1F DUP4 ADD SLT PUSH2 0x34BF JUMPI PUSH1 0x0 DUP1 REVERT JUMPDEST DUP2 CALLDATALOAD PUSH1 0x20 DUP3 DUP3 GT ISZERO PUSH2 0x34D3 JUMPI PUSH2 0x34D3 PUSH2 0x319D JUMP JUMPDEST DUP2 PUSH1 0x5 SHL PUSH2 0x34E2 DUP3 DUP3 ADD PUSH2 0x31B3 JUMP JUMPDEST SWAP3 DUP4 MSTORE DUP5 DUP2 ADD DUP3 ADD SWAP3 DUP3 DUP2 ADD SWAP1 DUP11 DUP6 GT ISZERO PUSH2 0x34FC JUMPI PUSH1 0x0 DUP1 REVERT JUMPDEST DUP4 DUP8 ADD SWAP3 POP JUMPDEST DUP5 DUP4 LT ISZERO PUSH2 0x3538 JUMPI DUP3 CALLDATALOAD DUP7 DUP2 GT ISZERO PUSH2 0x351A JUMPI PUSH1 0x0 DUP1 DUP2 REVERT JUMPDEST PUSH2 0x3528 DUP13 DUP7 DUP4 DUP12 ADD ADD PUSH2 0x31E4 JUMP JUMPDEST DUP4 MSTORE POP SWAP2 DUP4 ADD SWAP2 SWAP1 DUP4 ADD SWAP1 PUSH2 0x3502 JUMP JUMPDEST SWAP11 SWAP9 SWAP1 SWAP3 ADD CALLDATALOAD SWAP9 POP POP POP POP POP POP POP POP JUMP JUMPDEST PUSH1 0x20 DUP1 DUP3 MSTORE DUP3 MLOAD DUP3 DUP3 ADD DUP2 SWAP1 MSTORE PUSH1 0x0 SWAP2 SWAP1 DUP5 DUP3 ADD SWAP1 PUSH1 0x40 DUP6 ADD SWAP1 DUP5 JUMPDEST DUP2 DUP2 LT ISZERO PUSH2 0x358A JUMPI DUP4 MLOAD PUSH1 0x1 PUSH1 0x1 PUSH1 0xA0 SHL SUB AND DUP4 MSTORE SWAP3 DUP5 ADD SWAP3 SWAP2 DUP5 ADD SWAP2 PUSH1 0x1 ADD PUSH2 0x3565 JUMP JUMPDEST POP SWAP1 SWAP7 SWAP6 POP POP POP POP POP POP JUMP JUMPDEST PUSH1 0x0 DUP1 PUSH1 0x0 DUP1 PUSH1 0x0 PUSH2 0x4080 DUP7 DUP9 SUB SLT ISZERO PUSH2 0x35AF JUMPI PUSH1 0x0 DUP1 REVERT JUMPDEST DUP6 CALLDATALOAD PUSH8 0xFFFFFFFFFFFFFFFF DUP1 DUP3 GT ISZERO PUSH2 0x35C7 JUMPI PUSH1 0x0 DUP1 REVERT JUMPDEST PUSH2 0x35D3 DUP10 DUP4 DUP11 ADD PUSH2 0x31E4 JUMP JUMPDEST SWAP7 POP PUSH1 0x20 DUP9 ADD CALLDATALOAD SWAP2 POP PUSH2 0x35E5 DUP3 PUSH2 0x305A JUMP JUMPDEST DUP2 SWAP6 POP PUSH2 0x35F5 DUP10 PUSH1 0x40 DUP11 ADD PUSH2 0x30A1 JUMP JUMPDEST SWAP5 POP PUSH2 0x4040 DUP9 ADD CALLDATALOAD SWAP2 POP DUP1 DUP3 GT ISZERO PUSH2 0x360C JUMPI PUSH1 0x0 DUP1 REVERT JUMPDEST POP PUSH2 0x3619 DUP9 DUP3 DUP10 ADD PUSH2 0x30B3 JUMP JUMPDEST SWAP6 SWAP9 SWAP5 SWAP8 POP SWAP3 SWAP6 PUSH2 0x4060 ADD CALLDATALOAD SWAP4 SWAP3 POP POP POP JUMP JUMPDEST PUSH1 0x20 DUP2 MSTORE PUSH1 0x0 PUSH2 0x3151 PUSH1 0x20 DUP4 ADD DUP5 PUSH2 0x3352 JUMP JUMPDEST PUSH1 0x0 DUP1 PUSH1 0x40 DUP4 DUP6 SUB SLT ISZERO PUSH2 0x3652 JUMPI PUSH1 0x0 DUP1 REVERT JUMPDEST DUP3 CALLDATALOAD PUSH2 0x365D DUP2 PUSH2 0x3045 JUMP JUMPDEST SWAP2 POP PUSH1 0x20 DUP4 ADD CALLDATALOAD PUSH2 0x3096 DUP2 PUSH2 0x3045 JUMP JUMPDEST PUSH1 0x60 SWAP2 SWAP1 SWAP2 SHL PUSH12 0xFFFFFFFFFFFFFFFFFFFFFFFF NOT AND DUP2 MSTORE PUSH1 0x14 ADD SWAP1 JUMP JUMPDEST DUP2 DUP4 MSTORE DUP2 DUP2 PUSH1 0x20 DUP6 ADD CALLDATACOPY POP PUSH1 0x0 DUP3 DUP3 ADD PUSH1 0x20 SWAP1 DUP2 ADD SWAP2 SWAP1 SWAP2 MSTORE PUSH1 0x1F SWAP1 SWAP2 ADD PUSH1 0x1F NOT AND SWAP1 SWAP2 ADD ADD SWAP1 JUMP JUMPDEST PUSH1 0x0 PUSH2 0x4060 DUP3 DUP2 ADD DUP4 DUP9 DUP5 JUMPDEST PUSH2 0x100 DUP2 LT ISZERO PUSH2 0x36E0 JUMPI PUSH1 0x40 DUP1 DUP4 DUP6 CALLDATACOPY SWAP3 DUP4 ADD SWAP3 SWAP2 SWAP1 SWAP2 ADD SWAP1 PUSH1 0x1 ADD PUSH2 0x36BF JUMP JUMPDEST POP POP POP PUSH2 0x4000 DUP5 ADD SWAP2 SWAP1 SWAP2 MSTORE PUSH2 0x6060 DUP4 ADD DUP7 PUSH1 0x0 JUMPDEST PUSH2 0x100 DUP2 LT ISZERO PUSH2 0x376C JUMPI DUP6 DUP4 SUB PUSH2 0x405F NOT ADD DUP5 MSTORE DUP2 CALLDATALOAD CALLDATASIZE DUP11 SWAP1 SUB PUSH1 0x1E NOT ADD DUP2 SLT PUSH2 0x371E JUMPI PUSH1 0x0 DUP1 REVERT JUMPDEST DUP10 ADD PUSH1 0x20 DUP2 DUP2 ADD SWAP2 CALLDATALOAD SWAP1 PUSH8 0xFFFFFFFFFFFFFFFF DUP3 GT ISZERO PUSH2 0x373D JUMPI PUSH1 0x0 DUP1 REVERT JUMPDEST DUP2 CALLDATASIZE SUB DUP4 SGT ISZERO PUSH2 0x374C JUMPI PUSH1 0x0 DUP1 REVERT JUMPDEST PUSH2 0x3757 DUP7 DUP4 DUP6 PUSH2 0x368A JUMP JUMPDEST SWAP7 DUP2 ADD SWAP7 SWAP6 POP SWAP4 SWAP1 SWAP4 ADD SWAP3 POP POP PUSH1 0x1 ADD PUSH2 0x36F5 JUMP JUMPDEST POP POP DUP6 PUSH2 0x4020 DUP6 ADD MSTORE DUP4 DUP2 SUB PUSH2 0x4040 DUP6 ADD MSTORE PUSH2 0x3788 DUP2 DUP7 PUSH2 0x3352 JUMP JUMPDEST SWAP9 SWAP8 POP POP POP POP POP POP POP POP JUMP JUMPDEST PUSH1 0x0 PUSH1 0x20 DUP3 DUP5 SUB SLT ISZERO PUSH2 0x37A6 JUMPI PUSH1 0x0 DUP1 REVERT JUMPDEST DUP2 MLOAD PUSH2 0x3151 DUP2 PUSH2 0x305A JUMP JUMPDEST PUSH4 0x4E487B71 PUSH1 0xE0 SHL PUSH1 0x0 MSTORE PUSH1 0x32 PUSH1 0x4 MSTORE PUSH1 0x24 PUSH1 0x0 REVERT JUMPDEST DUP2 DUP2 SUB DUP2 DUP2 GT ISZERO PUSH2 0x1F6B JUMPI PUSH4 0x4E487B71 PUSH1 0xE0 SHL PUSH1 0x0 MSTORE PUSH1 0x11 PUSH1 0x4 MSTORE PUSH1 0x24 PUSH1 0x0 REVERT JUMPDEST PUSH4 0x4E487B71 PUSH1 0xE0 SHL PUSH1 0x0 MSTORE PUSH1 0x31 PUSH1 0x4 MSTORE PUSH1 0x24 PUSH1 0x0 REVERT JUMPDEST PUSH1 0x0 DUP2 DUP4 DUP3 JUMPDEST PUSH2 0x100 DUP2 LT ISZERO PUSH2 0x3825 JUMPI PUSH1 0x40 DUP1 DUP4 DUP6 CALLDATACOPY SWAP3 DUP4 ADD SWAP3 SWAP2 SWAP1 SWAP2 ADD SWAP1 PUSH1 0x1 ADD PUSH2 0x3804 JUMP JUMPDEST POP POP POP PUSH2 0x4000 DUP3 ADD SWAP1 POP SWAP3 SWAP2 POP POP JUMP JUMPDEST PUSH1 0x20 DUP1 DUP3 MSTORE PUSH1 0x41 SWAP1 DUP3 ADD MSTORE PUSH32 0x53616D6520504B48207573656420666F7220626F74682073746570733B207573 PUSH1 0x40 DUP3 ADD MSTORE PUSH32 0x652061207365706172617465206B657920666F7220636F6E6669726D6174696F PUSH1 0x60 DUP3 ADD MSTORE PUSH1 0x37 PUSH1 0xF9 SHL PUSH1 0x80 DUP3 ADD MSTORE PUSH1 0xA0 ADD SWAP1 JUMP JUMPDEST PUSH1 0x1 DUP2 DUP2 SHR SWAP1 DUP3 AND DUP1 PUSH2 0x38B0 JUMPI PUSH1 0x7F DUP3 AND SWAP2 POP JUMPDEST PUSH1 0x20 DUP3 LT DUP2 SUB PUSH2 0x1ABA JUMPI PUSH4 0x4E487B71 PUSH1 0xE0 SHL PUSH1 0x0 MSTORE PUSH1 0x22 PUSH1 0x4 MSTORE PUSH1 0x24 PUSH1 0x0 REVERT JUMPDEST PUSH1 0x1F DUP3 GT ISZERO PUSH2 0x391C JUMPI PUSH1 0x0 DUP2 PUSH1 0x0 MSTORE PUSH1 0x20 PUSH1 0x0 KECCAK256 PUSH1 0x1F DUP6 ADD PUSH1 0x5 SHR DUP2 ADD PUSH1 0x20 DUP7 LT ISZERO PUSH2 0x38F9 JUMPI POP DUP1 JUMPDEST PUSH1 0x1F DUP6 ADD PUSH1 0x5 SHR DUP3 ADD SWAP2 POP JUMPDEST DUP2 DUP2 LT ISZERO PUSH2 0x3918 JUMPI DUP3 DUP2 SSTORE PUSH1 0x1 ADD PUSH2 0x3905 JUMP JUMPDEST POP POP POP JUMPDEST POP POP POP JUMP JUMPDEST DUP2 MLOAD PUSH8 0xFFFFFFFFFFFFFFFF DUP2 GT ISZERO PUSH2 0x393B JUMPI PUSH2 0x393B PUSH2 0x319D JUMP JUMPDEST PUSH2 0x394F DUP2 PUSH2 0x3949 DUP5 SLOAD PUSH2 0x389C JUMP JUMPDEST DUP5 PUSH2 0x38D0 JUMP JUMPDEST PUSH1 0x20 DUP1 PUSH1 0x1F DUP4 GT PUSH1 0x1 DUP2 EQ PUSH2 0x3984 JUMPI PUSH1 0x0 DUP5 ISZERO PUSH2 0x396C JUMPI POP DUP6 DUP4 ADD MLOAD JUMPDEST PUSH1 0x0 NOT PUSH1 0x3 DUP7 SWAP1 SHL SHR NOT AND PUSH1 0x1 DUP6 SWAP1 SHL OR DUP6 SSTORE PUSH2 0x3918 JUMP JUMPDEST PUSH1 0x0 DUP6 DUP2 MSTORE PUSH1 0x20 DUP2 KECCAK256 PUSH1 0x1F NOT DUP7 AND SWAP2 JUMPDEST DUP3 DUP2 LT ISZERO PUSH2 0x39B3 JUMPI DUP9 DUP7 ADD MLOAD DUP3 SSTORE SWAP5 DUP5 ADD SWAP5 PUSH1 0x1 SWAP1 SWAP2 ADD SWAP1 DUP5 ADD PUSH2 0x3994 JUMP JUMPDEST POP DUP6 DUP3 LT ISZERO PUSH2 0x39D1 JUMPI DUP8 DUP6 ADD MLOAD PUSH1 0x0 NOT PUSH1 0x3 DUP9 SWAP1 SHL PUSH1 0xF8 AND SHR NOT AND DUP2 SSTORE JUMPDEST POP POP POP POP POP PUSH1 0x1 SWAP1 DUP2 SHL ADD SWAP1 SSTORE POP JUMP JUMPDEST PUSH1 0x0 PUSH1 0x20 DUP3 DUP5 SUB SLT ISZERO PUSH2 0x39F3 JUMPI PUSH1 0x0 DUP1 REVERT JUMPDEST DUP2 MLOAD PUSH2 0x3151 DUP2 PUSH2 0x3045 JUMP JUMPDEST PUSH1 0x0 PUSH1 0x20 DUP3 DUP5 SUB SLT ISZERO PUSH2 0x3A10 JUMPI PUSH1 0x0 DUP1 REVERT JUMPDEST POP MLOAD SWAP2 SWAP1 POP JUMP JUMPDEST PUSH1 0x0 DUP3 MLOAD PUSH2 0x3A29 DUP2 DUP5 PUSH1 0x20 DUP8 ADD PUSH2 0x332E JUMP JUMPDEST SWAP2 SWAP1 SWAP2 ADD SWAP3 SWAP2 POP POP JUMP JUMPDEST PUSH1 0x0 DUP1 DUP4 SLOAD PUSH2 0x3A41 DUP2 PUSH2 0x389C JUMP JUMPDEST PUSH1 0x1 DUP3 DUP2 AND DUP1 ISZERO PUSH2 0x3A59 JUMPI PUSH1 0x1 DUP2 EQ PUSH2 0x3A6E JUMPI PUSH2 0x3A9D JUMP JUMPDEST PUSH1 0xFF NOT DUP5 AND DUP8 MSTORE DUP3 ISZERO ISZERO DUP4 MUL DUP8 ADD SWAP5 POP PUSH2 0x3A9D JUMP JUMPDEST DUP8 PUSH1 0x0 MSTORE PUSH1 0x20 DUP1 PUSH1 0x0 KECCAK256 PUSH1 0x0 JUMPDEST DUP6 DUP2 LT ISZERO PUSH2 0x3A94 JUMPI DUP2 SLOAD DUP11 DUP3 ADD MSTORE SWAP1 DUP5 ADD SWAP1 DUP3 ADD PUSH2 0x3A7B JUMP JUMPDEST POP POP POP DUP3 DUP8 ADD SWAP5 POP JUMPDEST POP SWAP3 SWAP7 SWAP6 POP POP POP POP POP POP JUMP JUMPDEST PUSH1 0x0 DUP2 SLOAD PUSH2 0x3AB6 DUP2 PUSH2 0x389C JUMP JUMPDEST DUP1 DUP6 MSTORE PUSH1 0x20 PUSH1 0x1 DUP4 DUP2 AND DUP1 ISZERO PUSH2 0x3AD3 JUMPI PUSH1 0x1 DUP2 EQ PUSH2 0x3AED JUMPI PUSH2 0x3B1B JUMP JUMPDEST PUSH1 0xFF NOT DUP6 AND DUP9 DUP5 ADD MSTORE DUP4 ISZERO ISZERO PUSH1 0x5 SHL DUP9 ADD DUP4 ADD SWAP6 POP PUSH2 0x3B1B JUMP JUMPDEST DUP7 PUSH1 0x0 MSTORE DUP3 PUSH1 0x0 KECCAK256 PUSH1 0x0 JUMPDEST DUP6 DUP2 LT ISZERO PUSH2 0x3B13 JUMPI DUP2 SLOAD DUP11 DUP3 ADD DUP7 ADD MSTORE SWAP1 DUP4 ADD SWAP1 DUP5 ADD PUSH2 0x3AF8 JUMP JUMPDEST DUP10 ADD DUP5 ADD SWAP7 POP POP JUMPDEST POP POP POP POP POP SWAP3 SWAP2 POP POP JUMP JUMPDEST PUSH1 0x40 DUP2 MSTORE PUSH1 0x0 PUSH2 0x3B39 PUSH1 0x40 DUP4 ADD DUP6 PUSH2 0x3AA9 JUMP JUMPDEST SWAP1 POP PUSH1 0x1 DUP1 PUSH1 0xA0 SHL SUB DUP4 AND PUSH1 0x20 DUP4 ADD MSTORE SWAP4 SWAP3 POP POP POP JUMP JUMPDEST PUSH1 0x0 PUSH1 0x20 DUP3 DUP5 SUB SLT ISZERO PUSH2 0x3B62 JUMPI PUSH1 0x0 DUP1 REVERT JUMPDEST DUP2 MLOAD PUSH1 0xFF DUP2 AND DUP2 EQ PUSH2 0x3151 JUMPI PUSH1 0x0 DUP1 REVERT JUMPDEST PUSH1 0x0 DUP3 PUSH2 0x3B90 JUMPI PUSH4 0x4E487B71 PUSH1 0xE0 SHL PUSH1 0x0 MSTORE PUSH1 0x12 PUSH1 0x4 MSTORE PUSH1 0x24 PUSH1 0x0 REVERT JUMPDEST POP DIV SWAP1 JUMP JUMPDEST PUSH1 0x1 PUSH1 0x1 PUSH1 0xA0 SHL SUB DUP4 AND DUP2 MSTORE PUSH1 0x40 PUSH1 0x20 DUP3 ADD DUP2 SWAP1 MSTORE PUSH1 0x0 SWAP1 PUSH2 0x3326 SWAP1 DUP4 ADD DUP5 PUSH2 0x3AA9 JUMP JUMPDEST PUSH1 0x0 DUP1 PUSH1 0x0 PUSH1 0x60 DUP5 DUP7 SUB SLT ISZERO PUSH2 0x3BCE JUMPI PUSH1 0x0 DUP1 REVERT JUMPDEST DUP4 MLOAD PUSH1 0x3 DUP2 LT PUSH2 0x3BDD JUMPI PUSH1 0x0 DUP1 REVERT JUMPDEST PUSH1 0x20 DUP6 ADD MLOAD PUSH1 0x40 SWAP1 SWAP6 ADD MLOAD SWAP1 SWAP7 SWAP5 SWAP6 POP SWAP4 SWAP3 POP POP POP JUMP JUMPDEST PUSH1 0x20 DUP1 DUP3 MSTORE PUSH1 0x21 SWAP1 DUP3 ADD MSTORE PUSH32 0x4C616D706F7274426173653A20417574686F72697A6174696F6E206661696C65 PUSH1 0x40 DUP3 ADD MSTORE PUSH1 0x19 PUSH1 0xFA SHL PUSH1 0x60 DUP3 ADD MSTORE PUSH1 0x80 ADD SWAP1 JUMP JUMPDEST DUP2 DUP2 SUB PUSH2 0x3C40 JUMPI POP POP JUMP JUMPDEST PUSH2 0x3C4A DUP3 SLOAD PUSH2 0x389C JUMP JUMPDEST PUSH8 0xFFFFFFFFFFFFFFFF DUP2 GT ISZERO PUSH2 0x3C62 JUMPI PUSH2 0x3C62 PUSH2 0x319D JUMP JUMPDEST PUSH2 0x3C70 DUP2 PUSH2 0x3949 DUP5 SLOAD PUSH2 0x389C JUMP JUMPDEST PUSH1 0x0 PUSH1 0x1F DUP3 GT PUSH1 0x1 DUP2 EQ PUSH2 0x3CA4 JUMPI PUSH1 0x0 DUP4 ISZERO PUSH2 0x3C8C JUMPI POP DUP5 DUP3 ADD SLOAD JUMPDEST PUSH1 0x0 NOT PUSH1 0x3 DUP6 SWAP1 SHL SHR NOT AND PUSH1 0x1 DUP5 SWAP1 SHL OR DUP5 SSTORE PUSH2 0x3D09 JUMP JUMPDEST PUSH1 0x0 DUP6 DUP2 MSTORE PUSH1 0x20 SWAP1 KECCAK256 PUSH1 0x1F NOT DUP5 AND SWAP1 PUSH1 0x0 DUP7 DUP2 MSTORE PUSH1 0x20 SWAP1 KECCAK256 DUP5 JUMPDEST DUP4 DUP2 LT ISZERO PUSH2 0x3CDE JUMPI DUP3 DUP7 ADD SLOAD DUP3 SSTORE PUSH1 0x1 SWAP6 DUP7 ADD SWAP6 SWAP1 SWAP2 ADD SWAP1 PUSH1 0x20 ADD PUSH2 0x3CBE JUMP JUMPDEST POP DUP6 DUP4 LT ISZERO PUSH2 0x3CFC JUMPI DUP2 DUP6 ADD SLOAD PUSH1 0x0 NOT PUSH1 0x3 DUP9 SWAP1 SHL PUSH1 0xF8 AND SHR NOT AND DUP2 SSTORE JUMPDEST POP POP POP PUSH1 0x1 DUP4 PUSH1 0x1 SHL ADD DUP5 SSTORE JUMPDEST POP POP POP POP POP JUMP INVALID 0x4F PUSH15 0x6C7920746865206F6E72616D702063 PUSH16 0x6E74726163742063616E20636861A264 PUSH10 0x70667358221220FD37B8 0xAB EXTCODESIZE DIFFICULTY SAR BLOCKHASH 0xDF DIFFICULTY 0xED 0xED CALLDATALOAD SWAP2 0xAC 0xA6 PUSH26 0x228373ECD9EDC55425A1FAB4B6E62D64736F6C63430008190033 ",
  "sha1": "c472bcaff9f98c07a08f8304ec405231c686e19a",
  "source": "// SPDX-License-Identifier: MIT\n\npragma solidity ^0.8.0;\n\ninterface ILamportBase {\n\n    enum KeyType { MASTER, ORACLE, DELETED }\n\n    function performLamportMasterCheck(\n        bytes32[2][256] calldata currentpub,\n        bytes[256] calldata sig,\n        bytes32 nextPKH,\n        bytes memory prepacked\n    ) external returns (bool);\n    \n    function performLamportOracleCheck(\n        bytes32[2][256] calldata currentpub,\n        bytes[256] calldata sig,\n        bytes32 nextPKH,\n        bytes memory prepacked\n    ) external returns (bool);\n\n    function getKeyAndIndexByPKH(bytes32 pkh) external view returns (KeyType, bytes32, uint);\n}\n\ninterface IAnonID {\n    function incrementMinutesPlayed(address user, uint256 _minutes) external;\n    function updateLastPlayed(address _address, string memory _gameId) external;\n    function isWhitelisted(address _address) external view returns (bool);\n    function isPlayerActiveInGame(string memory gameID, address player) external view returns (uint8);\n    function commissionAddress() external view returns (address);\n    function coinCommission() external view returns (uint256);\n}\n// MintyDatabase contract inheriting from AnonID\ncontract PlayerDatabase  {\n    // ERC20 Token variables\n    // string public name;\n    // string public symbol;\n    // uint8 public decimals;\n    // uint256 public totalSupply;\n    //uint256 public gameID; // Variable to store the game ID \n    mapping(string => bool) public gameServerIPs; // Mapping to store game server IPs\n    mapping(address => uint256) public balanceOf;\n    mapping(address => mapping(address => uint256)) public allowance;\n    mapping(address => address) private proposedAnonIDContractAddresses;\n    mapping(address => address) private proposedGameValContractAddresses;\n    mapping(address => address) private proposedOnrampContractAddresses;\n    mapping(address => address) private proposedForumContractAddresses;\n\n\n\n    string gameID = \"TFC\"; // Define your game ID for TFC\n    string[] public serverIPList; // Array for listing all server IPs\n\n    // Player Database variables\n    struct Player {\n        bool isRegistered;\n        bool isValidator;\n        bool isModerator;\n        bool isTourneyMod;\n        bool isGameAdmin;\n        bool isOnboardQueuer;\n        bool isOnboardRegistrar;\n        string playerName; // Name of the player\n        bytes32 forumKey; // Unique key for forum entitlements\n        string steamID;\n        address rewardAddress;\n        uint256 oracleKeyIndex1;\n        uint256 oracleKeyIndex2;\n    }\n\n    mapping(address => Player) public playerData;\n    address[] public playerAddresses;\n\n    // Shared variables\n    address public gameValContract; // Address of the game subcontractor\n    IAnonID public anonIDContract; // Reference to the AnonID contract\n    address public onrampContract; // Address of the onramp contract\n    address public forumContract; // Address of the forum contract\n    ILamportBase public lamportBase; // Reference to the lamportBase contract\n    bytes32 private lastUsedNextPKH;\n\n    // Events\n    event ForumContractUpdated(address indexed newForumContract);\n    event AnonIDContractUpdated(address indexed newAnonIDContract);\n    event GameValContractUpdated(address indexed newGameValContract);\n    event OnrampContractUpdated(address indexed newOnrampContract);\n    event Transfer(address indexed from, address indexed to, uint256 value);\n    event Approval(address indexed owner, address indexed spender, uint256 value);\n\n\n    // Constructor\n    //constructor(string memory _name, string memory _symbol, uint8 _decimals) { //}, uint256 _totalSupply) {\n    constructor(address _lamportBase, address _anonID) {\n        lamportBase = ILamportBase(_lamportBase);\n        anonIDContract = IAnonID(_anonID);\n    }\n    function isValidator(address _address) public view returns (bool) {\n        return playerData[_address].isValidator;\n    }\n    function isModerator(address _address) public view returns (bool) {\n        return playerData[_address].isModerator;\n    }\n\n    function isRegistered(address _address) public view returns (bool) {\n        return playerData[_address].isRegistered;\n    }\n    \n    function isTourneyMod(address _address) public view returns (bool) {\n        return playerData[_address].isTourneyMod;\n    }\n    \n    function isGameAdmin(address _address) public view returns (bool) {\n        return playerData[_address].isGameAdmin;\n    }\n    \n    function isOnboardQueuer(address _address) public view returns (bool) {\n        return playerData[_address].isOnboardQueuer;\n    }\n    \n    function isOnboardRegistrar(address _address) public view returns (bool) {\n        return playerData[_address].isOnboardRegistrar;\n    }\n\n    function commissionAddress_() external view returns (address) {\n        return anonIDContract.commissionAddress();\n    }\n\n    function coinCommission_() external view returns (uint256) {\n        return anonIDContract.coinCommission();\n    }\n    function getOracleKeyIndices(address _address) public view returns (uint256, uint256) {\n        require(isRegistered(_address), \"Player is not registered\");\n        return (playerData[_address].oracleKeyIndex1, playerData[_address].oracleKeyIndex2);\n    }\n    // function getRewardAddressesByNames(string[] memory playerNames) public view returns (address[] memory) {\n    //     address[] memory rewardAddresses = new address[](playerNames.length);\n\n    //     for (uint i = 0; i < playerNames.length; i++) {\n    //         for (uint j = 0; j < playerAddresses.length; j++) {\n    //             if (keccak256(abi.encodePacked(playerData[playerAddresses[j]].playerName)) == keccak256(abi.encodePacked(playerNames[i]))) {\n    //                 rewardAddresses[i] = playerData[playerAddresses[j]].rewardAddress;\n    //                 break; // Stop the inner loop once the address is found\n    //             }\n    //         }\n    //     }\n\n    //     return rewardAddresses;\n    // }\n    function getValidRewardAddressesByNames(string[] memory playerNames, uint256 lastMintTime) public returns (address[] memory) {\n\n        require(msg.sender == gameValContract, \"Only the game validator contract can access this list\");\n    \n        address[] memory validRewardAddresses = new address[](playerNames.length);\n\n        for (uint i = 0; i < playerNames.length; i++) {\n            for (uint j = 0; j < playerAddresses.length; j++) {\n                if (keccak256(abi.encodePacked(playerData[playerAddresses[j]].playerName)) == keccak256(abi.encodePacked(playerNames[i]))) {\n                    uint8 playerStatus = anonIDContract.isPlayerActiveInGame(gameID, playerAddresses[j]);\n\n                    if (playerStatus == 2) { // Player already minted for TFC\n                        validRewardAddresses[i] = playerData[playerAddresses[j]].rewardAddress;\n                        // Increment the minutes played using lastMintTime\n                        uint256 minutesPlayed = lastMintTime / 60; // Convert seconds to minutes\n                        anonIDContract.incrementMinutesPlayed(playerAddresses[j], minutesPlayed);\n                        anonIDContract.updateLastPlayed(playerAddresses[j], gameID);\n\n                    } else if (playerStatus == 0) { // Player not in a game, flag as active\n                        anonIDContract.updateLastPlayed(playerAddresses[j], gameID);\n                        // block.timestamp - lastMintTime = i\n                        // Do not include this player in the reward addresses for this round\n                    }\n                    break; // Stop the inner loop once the player is processed\n                }\n            }\n        }\n\n        return validRewardAddresses;\n    }\n    // // Function to interact with AnonID contract\n    // function updateAnonIDData(address _user, uint256 _minutes, uint256 _gameId) public {\n    //     // Ensure the caller has permission to update AnonID data\n    //     anonIDContract.incrementMinutesPlayed(_user, _minutes);\n    //     anonIDContract.updateLastPlayed(_user, _gameId);\n    // }// validator does this\n\n    // Player Database functions\n    // Assuming IAnonID interface and anonIDContract are already defined and set up in your contract\n    function updateGameServerIP(\n        string memory serverIP,\n        bool add,\n        bytes32[2][256] calldata currentpub,\n        bytes[256] calldata sig,\n        bytes32 nextPKH\n    ) public {\n        // Calculate pkh from currentpub\n        bytes32 pkh = keccak256(abi.encodePacked(currentpub));\n\n        // Perform Lamport Oracle check with \"1\" as the prepacked value\n\n\n        // Retrieve oracle key index and type by PKH\n        (, , uint index) = lamportBase.getKeyAndIndexByPKH(pkh);\n\n        // Retrieve player's oracle key indices\n        (uint256 oracleKeyIndex1, uint256 oracleKeyIndex2) = getOracleKeyIndices(msg.sender);\n\n        // Ensure the current index matches one of the player's oracle key indices\n        require(\n            index == oracleKeyIndex1 || index == oracleKeyIndex2,\n            \"Caller's oracle key index does not match\"\n        );\n\n        // Proceed with the original logic after passing the oracle check and index match\n        require(playerData[msg.sender].isGameAdmin, \"Caller is not a game admin\");\n        require(\n            lamportBase.performLamportOracleCheck(\n                currentpub,\n                sig,\n                nextPKH,\n                abi.encodePacked(serverIP)\n            ),\n            \"Lamport oracle check failed\"\n        );\n        if (add) {\n            if (!gameServerIPs[serverIP]) {\n                gameServerIPs[serverIP] = true;\n                serverIPList.push(serverIP);\n            }\n        } else {\n            if (gameServerIPs[serverIP]) {\n                gameServerIPs[serverIP] = false;\n                removeServerIPFromArray(serverIP);\n            }\n        }\n    }\n    // Helper function to remove a server IP from the array\n    function removeServerIPFromArray(string memory serverIP) private {\n\n        require(playerData[msg.sender].isGameAdmin, \"Caller is not a game admin\");\n        for (uint i = 0; i < serverIPList.length; i++) {\n            if (keccak256(abi.encodePacked(serverIPList[i])) == keccak256(abi.encodePacked(serverIP))) {\n                // Update the mapping to reflect the server IP is no longer registered\n                gameServerIPs[serverIP] = false;\n\n                // Remove the server IP from the array\n                serverIPList[i] = serverIPList[serverIPList.length - 1];\n                serverIPList.pop();\n                break;\n            }\n        }\n    }\n\n    // Function to get the full list of server IPs\n    function getAllServerIPs() public view returns (string[] memory) {\n        return serverIPList;\n    }\n    // function addOrUpdatePlayer(address _address, string memory _steamID, bool _isValidator, bool _isRegistered, string memory _playerName) public {\n    //     require(msg.sender == onrampContract, \"Only the onramp contract can add/update players\");\n    //     require(anonIDContract.isWhitelisted(_address), \"Address not whitelisted in AnonID\");\n\n    //     Player storage player = playerData[_address];\n    //     bool alreadyRegistered = player.isRegistered;\n\n    //     playerData[_address] = Player({\n    //         steamID: _steamID,\n    //         isValidator: _isValidator,\n    //         isRegistered: _isRegistered,\n    //         rewardAddress: _address,\n    //         playerName: _playerName,\n    //         // Zero out or set default values for the non-argument fields\n    //         isModerator: false,\n    //         isTourneyMod: false,\n    //         isGameAdmin: false,\n    //         forumKey: 0 // Assuming 0 is the default value for forumKey\n    //     });\n\n    //     if (!alreadyRegistered) {\n    //         playerAddresses.push(_address);\n    //     }\n    // }\n    function addOrUpdatePlayer(\n        address _address,\n        string memory _steamID,\n        string memory _playerName,\n        uint256 _oracleKeyIndex1, // Revert for new players if this is 0\n        uint256 _oracleKeyIndex2,\n        address _rewardAddress\n    ) \n        public \n    {\n        require(msg.sender == onrampContract, \"Only the onramp contract can add/update players\");\n        require(anonIDContract.isWhitelisted(_address), \"Address not whitelisted in AnonID\");\n\n        Player storage player = playerData[_address];\n        if (player.isRegistered) {\n            // Update existing player data\n            player.steamID = _steamID;\n            player.playerName = _playerName;\n            if (_rewardAddress != address(0)) {\n                player.rewardAddress = _rewardAddress;\n            }\n            else player.rewardAddress = _address;\n            // If _oracleKeyIndex is not 0, update the oracleKeyIndex. Otherwise, leave it unchanged.\n            if (_oracleKeyIndex1 != 0) {\n                player.oracleKeyIndex1 = _oracleKeyIndex1;\n            }\n            if (_oracleKeyIndex2 != 0) {\n                player.oracleKeyIndex2 = _oracleKeyIndex2;\n            }\n            // No additional action required for existing players with _oracleKeyIndex = 0\n        } else {\n            // For a new player, revert the transaction if _oracleKeyIndex is 0\n            require(_oracleKeyIndex1 != 0 || _oracleKeyIndex2 != 0, \"Oracle key index cannot be zero for new players\");\n\n            // Since we're here, _oracleKeyIndex is guaranteed not to be 0\n            playerData[_address] = Player({\n                steamID: _steamID,\n                isValidator: false,\n                isRegistered: true,\n                rewardAddress: _address,\n                playerName: _playerName,\n                isModerator: false,\n                isTourneyMod: false,\n                isGameAdmin: false,\n                isOnboardQueuer: false,\n                isOnboardRegistrar: false,\n                forumKey: 0,\n                oracleKeyIndex1: _oracleKeyIndex1, // Directly set the provided index\n                oracleKeyIndex2: _oracleKeyIndex2\n            });\n            playerAddresses.push(_address);\n        }\n    }\n\n\n    // Function to delete a player by address\n    function deletePlayer(address _address) public {\n        require(msg.sender == onrampContract, \"Only the onramp contract can delete players\");\n\n        delete playerData[_address]; // Remove player data from mapping\n\n        // Find and remove address from playerAddresses array\n        for (uint i = 0; i < playerAddresses.length; i++) {\n            if (playerAddresses[i] == _address) {\n                playerAddresses[i] = playerAddresses[playerAddresses.length - 1]; // Swap with the last element\n                playerAddresses.pop(); // Remove the last element\n                break;\n            }\n        }\n    }\n\n\n    function getAllPlayerNames() public view returns (string[] memory) {\n        string[] memory playerNames = new string[](playerAddresses.length);\n\n        for (uint i = 0; i < playerAddresses.length; i++) {\n            Player storage player = playerData[playerAddresses[i]];\n            playerNames[i] = player.playerName;\n        }\n\n        return playerNames;\n    }\n    // ... [Other Player Database functions]\n    // Function to set the AnonID contract address\n\n    function updateAnonIDContractAddressStepOne(\n        bytes32[2][256] calldata currentpub,\n        bytes[256] calldata sig,\n        bytes32 nextPKH,\n        address _anonIDContract\n    ) public {\n        // Encode the new contract address to bytes\n        bytes memory prepacked = abi.encodePacked(_anonIDContract);\n\n        // Directly call performLamportMasterCheck\n        bool isAuthorized = lamportBase.performLamportMasterCheck(currentpub, sig, nextPKH, prepacked);\n        \n        // Ensure that the Lamport Master Check passed\n        require(isAuthorized, \"LamportBase: Authorization failed\");\n\n        // Save the proposed AnonID contract address in a global variable\n        proposedAnonIDContractAddresses[msg.sender] = _anonIDContract;\n        lastUsedNextPKH = nextPKH;\n    }\n\n    function updateAnonIDContractAddressStepTwo(\n        bytes32[2][256] calldata currentpub,\n        bytes[256] calldata sig,\n        bytes32 nextPKH,\n        address _anonIDContract\n    ) public {\n        // Encode the new contract address to bytes\n        bytes memory prepacked = abi.encodePacked(_anonIDContract);\n\n\n        // Check that the proposed contract address matches the address in the current call\n        require(proposedAnonIDContractAddresses[msg.sender] == _anonIDContract, \"Proposed AnonID contract address mismatch\");\n\n        // Check if the used NextPKH matches the last used PKH to prevent replay with the same keys\n        bytes32 currentPKH = keccak256(abi.encodePacked(currentpub));\n        require(lastUsedNextPKH != currentPKH, \"LamportBase: PKH matches last used PKH (use separate second key)\");\n        // Perform the Lamport Master Check again\n        bool isAuthorized = lamportBase.performLamportMasterCheck(currentpub, sig, nextPKH, prepacked);\n\n        // Ensure that the Lamport Master Check passed\n        require(isAuthorized, \"LamportBase: Authorization failed\");\n        \n        // Update the AnonID contract address\n        anonIDContract = IAnonID(_anonIDContract);\n        emit AnonIDContractUpdated(_anonIDContract);\n\n        // Clear the temporary storage\n        delete proposedAnonIDContractAddresses[msg.sender];\n        lastUsedNextPKH = bytes32(0);\n    }\n\n\n    function updateGameValContractAddressStepOne(\n        bytes32[2][256] calldata currentpub,\n        bytes[256] calldata sig,\n        bytes32 nextPKH,\n        address _gameValContract\n    ) public {\n        // Encode the new contract address to bytes for the Lamport check\n        bytes memory prepacked = abi.encodePacked(_gameValContract);\n\n        // Directly call performLamportMasterCheck from lamportBase\n        bool isAuthorized = lamportBase.performLamportMasterCheck(currentpub, sig, nextPKH, prepacked);\n        \n        // Ensure that the Lamport Master Check passed\n        require(isAuthorized, \"Authorization failed for proposed GameVal contract address\");\n\n        // Store the proposed GameVal contract address for the sender\n        proposedGameValContractAddresses[msg.sender] = _gameValContract;\n        lastUsedNextPKH = nextPKH;\n    }\n\n    function updateGameValContractAddressStepTwo(\n        bytes32[2][256] calldata currentpub,\n        bytes[256] calldata sig,\n        bytes32 nextPKH,\n        address _gameValContract\n    ) public {\n        // Encode the new contract address to bytes for the Lamport check\n        bytes memory prepacked = abi.encodePacked(_gameValContract);\n\n        // Perform the Lamport Master Check again\n\n        // Check that the proposed contract address matches the address being confirmed\n        require(proposedGameValContractAddresses[msg.sender] == _gameValContract, \"Proposed GameVal contract address mismatch\");\n\n        // Check if the used NextPKH matches the last used PKH to ensure a different key is used\n        bytes32 currentPKH = keccak256(abi.encodePacked(currentpub));\n        require(lastUsedNextPKH != currentPKH, \"Same PKH used for both steps; use a separate key for confirmation\");\n        bool isAuthorized = lamportBase.performLamportMasterCheck(currentpub, sig, nextPKH, prepacked);\n\n        // Ensure that the Lamport Master Check passed\n        require(isAuthorized, \"Authorization failed on confirmation of GameVal contract address\");\n\n        // Update the GameVal contract address\n        gameValContract = _gameValContract;\n        emit GameValContractUpdated(_gameValContract);\n\n        // Clear the temporary storage\n        delete proposedGameValContractAddresses[msg.sender];\n        lastUsedNextPKH = bytes32(0);\n    }\n\n\n    function updateOnrampContractAddressStepOne(\n        bytes32[2][256] calldata currentpub,\n        bytes[256] calldata sig,\n        bytes32 nextPKH,\n        address _onrampContract\n    ) public {\n        // Encode the new contract address to bytes for the Lamport check\n        bytes memory prepacked = abi.encodePacked(_onrampContract);\n\n        // Perform the Lamport Master Check directly calling lamportBase\n        bool isAuthorized = lamportBase.performLamportMasterCheck(currentpub, sig, nextPKH, prepacked);\n        \n        // Ensure that the Lamport Master Check passed\n        require(isAuthorized, \"Authorization failed for updating Onramp contract address\");\n\n        // Temporarily store the proposed Onramp contract address for the sender\n        proposedOnrampContractAddresses[msg.sender] = _onrampContract;\n        lastUsedNextPKH = nextPKH;\n    }\n    function updateOnrampContractAddressStepTwo(\n        bytes32[2][256] calldata currentpub,\n        bytes[256] calldata sig,\n        bytes32 nextPKH,\n        address _onrampContract\n    ) public {\n        // Encode the new contract address to bytes for the Lamport check\n        bytes memory prepacked = abi.encodePacked(_onrampContract);\n\n        // Perform the Lamport Master Check again\n\n        // Verify that the proposed contract address matches the address being confirmed\n        require(proposedOnrampContractAddresses[msg.sender] == _onrampContract, \"Onramp contract address update mismatch\");\n\n        // Ensure a different key is used for the confirmation step\n        bytes32 currentPKH = keccak256(abi.encodePacked(currentpub));\n        require(lastUsedNextPKH != currentPKH, \"Same PKH used for both steps; use a separate key for confirmation\");\n        bool isAuthorized = lamportBase.performLamportMasterCheck(currentpub, sig, nextPKH, prepacked);\n\n        // Ensure that the Lamport Master Check passed\n        require(isAuthorized, \"Authorization failed on confirmation of Onramp contract address update\");\n\n        // Officially update the Onramp contract address\n        onrampContract = _onrampContract;\n        emit OnrampContractUpdated(_onrampContract);\n\n        // Clear the temporary storage\n        delete proposedOnrampContractAddresses[msg.sender];\n        lastUsedNextPKH = bytes32(0);\n    }\n\n    function updateForumContractAddressStepOne(\n        bytes32[2][256] calldata currentpub,\n        bytes[256] calldata sig,\n        bytes32 nextPKH,\n        address _forumContract\n    ) public {\n        // Encode the new contract address to bytes for the Lamport check\n        bytes memory prepacked = abi.encodePacked(_forumContract);\n\n        // Perform the Lamport Master Check directly calling lamportBase\n        bool isAuthorized = lamportBase.performLamportMasterCheck(currentpub, sig, nextPKH, prepacked);\n        \n        // Ensure that the Lamport Master Check passed\n        require(isAuthorized, \"Authorization failed for proposed update of Forum contract address\");\n\n        // Temporarily store the proposed Forum contract address for the sender\n        proposedForumContractAddresses[msg.sender] = _forumContract;\n        lastUsedNextPKH = nextPKH;\n    }\n\n    function updateForumContractAddressStepTwo(\n        bytes32[2][256] calldata currentpub,\n        bytes[256] calldata sig,\n        bytes32 nextPKH,\n        address _forumContract\n    ) public {\n        // Encode the new contract address to bytes for the Lamport check\n        bytes memory prepacked = abi.encodePacked(_forumContract);\n\n        // Perform the Lamport Master Check again\n\n        // Verify that the proposed contract address matches the address being confirmed\n        require(proposedForumContractAddresses[msg.sender] == _forumContract, \"Forum contract address update mismatch\");\n\n        // Ensure a different key is used for the confirmation step\n        bytes32 currentPKH = keccak256(abi.encodePacked(currentpub));\n        require(lastUsedNextPKH != currentPKH, \"Same PKH used for both steps; use a separate key for confirmation\");\n        bool isAuthorized = lamportBase.performLamportMasterCheck(currentpub, sig, nextPKH, prepacked);\n\n        // Ensure that the Lamport Master Check passed\n        require(isAuthorized, \"Authorization failed on confirmation of Forum contract address update\");\n\n        // Officially update the Forum contract address\n        forumContract = _forumContract;\n        emit ForumContractUpdated(_forumContract);\n\n        // Clear the temporary storage\n        delete proposedForumContractAddresses[msg.sender];\n        lastUsedNextPKH = bytes32(0);\n    }\n    // ... [Previous variables and functions]\n\n    // ... [Rest of the existing contract]\n\n\n    // Function to change a player's moderator status\n    function setModeratorStatus(address _player, bool _status) external {\n        require(msg.sender == forumContract, \"Only the forum contract can modify moderator status\");\n        playerData[_player].isModerator = _status;\n    }\n\n    // Function to change a player's tournament moderator status\n    function setTourneyModStatus(address _player, bool _status) external {\n        require(msg.sender == forumContract, \"Only the forum contract can modify tournament moderator status\");\n        playerData[_player].isTourneyMod = _status;\n    }\n\n    // Function to set or update a player's forum key\n    function setForumKey(address _player, bytes32 _key) external {\n        require(msg.sender == forumContract, \"Only the forum contract can set forum key\");\n        playerData[_player].forumKey = _key;\n    }\n    function setGameAdminStatus(address admin, bool status) external {\n        require(msg.sender == onrampContract, \"Only the onramp contract can change Admin status\");\n        // Add security check to ensure only authorized contract or account can call this\n        playerData[admin].isGameAdmin = status;\n    }\n\n    function setValidatorStatus(address validator, bool status) external {\n        require(msg.sender == onrampContract, \"Only the onramp contract can change Game Validator status\");\n        // Add security check to ensure only authorized contract or account can call this\n        playerData[validator].isValidator = status;\n    }\n    \n    function setOnboardQueuerStatus(address oracle, bool status) external {\n        require(msg.sender == onrampContract, \"Only the onramp contract can change Onboard Queuer status\");\n        // Add security check to ensure only authorized contract or account can call this\n        playerData[oracle].isOnboardQueuer = status;\n    }\n    \n    function setOnboardRegistrarStatus(address oracle, bool status) external {\n        require(msg.sender == onrampContract, \"Only the onramp contract can change Onboard Registrar Status\");\n        // Add security check to ensure only authorized contract or account can call this\n        playerData[oracle].isOnboardRegistrar = status;\n    }\n    // ... [Additional functions and security checks as necessary]\n}\n// pragma solidity ^0.8.0;\n\n// contract TFCPlayAndEarn {\n//     // Other contract variables...\n\n//     struct Submission {\n//         address validator;\n//         string[] names;\n//     }\n//     Submission[] submissions;\n\n//     function processSubmissions(string[] memory rawNames, address validator) public {\n//         require(isValidator(validator), \"Not a validator\");\n//         string[] memory sanitizedNames = sanitizeNames(rawNames);\n        \n//         // Store the sanitized names along with the validator's address\n//         submissions.push(Submission({\n//             validator: validator,\n//             names: sanitizedNames\n//         }));\n//     }\n\n//     function sanitizeNames(string[] memory rawNames) private pure returns (string[] memory) {\n//         string[] memory sanitizedNames = new string[](rawNames.length);\n\n//         for (uint i = 0; i < rawNames.length; i++) {\n//             // Implement sanitation logic\n//             // This might include removing or replacing brackets, punctuation, etc.\n//             sanitizedNames[i] = sanitize(rawNames[i]);\n//         }\n\n//         return sanitizedNames;\n//     }\n\n//     function sanitize(string memory name) private pure returns (string memory) {\n//         // Detailed implementation of the sanitization logic\n//         // Could involve regex replacements or character filtering\n//         // Solidity does not natively support regex, so this might require character-by-character processing\n//     }\n\n//     // Additional functions like isValidator, auditSubmissions, etc.\n// }\n",
  "sourcePath": "contracts/5_Activity_PlayerDatabase.sol",
  "type": "contract"
}