{
  "abi": [
    {
      "inputs": [
        {
          "internalType": "address",
          "name": "_lamportBase",
          "type": "address"
        },
        {
          "internalType": "address",
          "name": "_anonID",
          "type": "address"
        }
      ],
      "stateMutability": "nonpayable",
      "type": "constructor"
    },
    {
      "anonymous": false,
      "inputs": [
        {
          "indexed": true,
          "internalType": "address",
          "name": "newAnonIDContract",
          "type": "address"
        }
      ],
      "name": "AnonIDContractUpdated",
      "type": "event"
    },
    {
      "anonymous": false,
      "inputs": [
        {
          "indexed": true,
          "internalType": "address",
          "name": "owner",
          "type": "address"
        },
        {
          "indexed": true,
          "internalType": "address",
          "name": "spender",
          "type": "address"
        },
        {
          "indexed": false,
          "internalType": "uint256",
          "name": "value",
          "type": "uint256"
        }
      ],
      "name": "Approval",
      "type": "event"
    },
    {
      "anonymous": false,
      "inputs": [
        {
          "indexed": false,
          "internalType": "string",
          "name": "serverIP",
          "type": "string"
        },
        {
          "indexed": false,
          "internalType": "bytes",
          "name": "encodedServerIP",
          "type": "bytes"
        }
      ],
      "name": "EncodedServerIP",
      "type": "event"
    },
    {
      "anonymous": false,
      "inputs": [
        {
          "indexed": false,
          "internalType": "string",
          "name": "errorType",
          "type": "string"
        },
        {
          "indexed": true,
          "internalType": "address",
          "name": "player",
          "type": "address"
        },
        {
          "indexed": false,
          "internalType": "uint256",
          "name": "retrievedIndex",
          "type": "uint256"
        },
        {
          "indexed": false,
          "internalType": "uint256",
          "name": "oracleKeyIndex1",
          "type": "uint256"
        },
        {
          "indexed": false,
          "internalType": "uint256",
          "name": "oracleKeyIndex2",
          "type": "uint256"
        }
      ],
      "name": "Error",
      "type": "event"
    },
    {
      "anonymous": false,
      "inputs": [
        {
          "indexed": true,
          "internalType": "address",
          "name": "newForumContract",
          "type": "address"
        }
      ],
      "name": "ForumContractUpdated",
      "type": "event"
    },
    {
      "anonymous": false,
      "inputs": [
        {
          "indexed": false,
          "internalType": "string",
          "name": "serverIP",
          "type": "string"
        },
        {
          "indexed": false,
          "internalType": "bool",
          "name": "added",
          "type": "bool"
        }
      ],
      "name": "GameServerIPUpdated",
      "type": "event"
    },
    {
      "anonymous": false,
      "inputs": [
        {
          "indexed": true,
          "internalType": "address",
          "name": "newGameValContract",
          "type": "address"
        }
      ],
      "name": "GameValContractUpdated",
      "type": "event"
    },
    {
      "anonymous": false,
      "inputs": [
        {
          "indexed": true,
          "internalType": "address",
          "name": "newOnrampContract",
          "type": "address"
        }
      ],
      "name": "OnrampContractUpdated",
      "type": "event"
    },
    {
      "anonymous": false,
      "inputs": [
        {
          "indexed": false,
          "internalType": "bool",
          "name": "success",
          "type": "bool"
        },
        {
          "indexed": false,
          "internalType": "string",
          "name": "message",
          "type": "string"
        }
      ],
      "name": "OperationResult",
      "type": "event"
    },
    {
      "anonymous": false,
      "inputs": [
        {
          "indexed": true,
          "internalType": "address",
          "name": "player",
          "type": "address"
        },
        {
          "indexed": false,
          "internalType": "uint256",
          "name": "oracleKeyIndex1",
          "type": "uint256"
        },
        {
          "indexed": false,
          "internalType": "uint256",
          "name": "oracleKeyIndex2",
          "type": "uint256"
        },
        {
          "indexed": false,
          "internalType": "uint256",
          "name": "retrievedIndex",
          "type": "uint256"
        }
      ],
      "name": "OracleKeyIndicesRetrieved",
      "type": "event"
    },
    {
      "anonymous": false,
      "inputs": [
        {
          "indexed": true,
          "internalType": "address",
          "name": "from",
          "type": "address"
        },
        {
          "indexed": true,
          "internalType": "address",
          "name": "to",
          "type": "address"
        },
        {
          "indexed": false,
          "internalType": "uint256",
          "name": "value",
          "type": "uint256"
        }
      ],
      "name": "Transfer",
      "type": "event"
    },
    {
      "inputs": [
        {
          "internalType": "address",
          "name": "_address",
          "type": "address"
        },
        {
          "internalType": "string",
          "name": "_steamID",
          "type": "string"
        },
        {
          "internalType": "string",
          "name": "_playerName",
          "type": "string"
        },
        {
          "internalType": "uint256",
          "name": "_oracleKeyIndex1",
          "type": "uint256"
        },
        {
          "internalType": "uint256",
          "name": "_oracleKeyIndex2",
          "type": "uint256"
        },
        {
          "internalType": "address",
          "name": "_rewardAddress",
          "type": "address"
        }
      ],
      "name": "addOrUpdatePlayer",
      "outputs": [],
      "stateMutability": "nonpayable",
      "type": "function"
    },
    {
      "inputs": [
        {
          "internalType": "address",
          "name": "",
          "type": "address"
        },
        {
          "internalType": "address",
          "name": "",
          "type": "address"
        }
      ],
      "name": "allowance",
      "outputs": [
        {
          "internalType": "uint256",
          "name": "",
          "type": "uint256"
        }
      ],
      "stateMutability": "view",
      "type": "function"
    },
    {
      "inputs": [],
      "name": "anonIDContract",
      "outputs": [
        {
          "internalType": "contract IAnonID",
          "name": "",
          "type": "address"
        }
      ],
      "stateMutability": "view",
      "type": "function"
    },
    {
      "inputs": [
        {
          "internalType": "address",
          "name": "",
          "type": "address"
        }
      ],
      "name": "balanceOf",
      "outputs": [
        {
          "internalType": "uint256",
          "name": "",
          "type": "uint256"
        }
      ],
      "stateMutability": "view",
      "type": "function"
    },
    {
      "inputs": [],
      "name": "coinCommission_",
      "outputs": [
        {
          "internalType": "uint256",
          "name": "",
          "type": "uint256"
        }
      ],
      "stateMutability": "view",
      "type": "function"
    },
    {
      "inputs": [],
      "name": "commissionAddress_",
      "outputs": [
        {
          "internalType": "address",
          "name": "",
          "type": "address"
        }
      ],
      "stateMutability": "view",
      "type": "function"
    },
    {
      "inputs": [
        {
          "internalType": "address",
          "name": "_address",
          "type": "address"
        }
      ],
      "name": "deletePlayer",
      "outputs": [],
      "stateMutability": "nonpayable",
      "type": "function"
    },
    {
      "inputs": [],
      "name": "forumContract",
      "outputs": [
        {
          "internalType": "address",
          "name": "",
          "type": "address"
        }
      ],
      "stateMutability": "view",
      "type": "function"
    },
    {
      "inputs": [
        {
          "internalType": "string",
          "name": "",
          "type": "string"
        }
      ],
      "name": "gameServerIPs",
      "outputs": [
        {
          "internalType": "bool",
          "name": "",
          "type": "bool"
        }
      ],
      "stateMutability": "view",
      "type": "function"
    },
    {
      "inputs": [],
      "name": "gameValContract",
      "outputs": [
        {
          "internalType": "address",
          "name": "",
          "type": "address"
        }
      ],
      "stateMutability": "view",
      "type": "function"
    },
    {
      "inputs": [],
      "name": "getAllPlayerNames",
      "outputs": [
        {
          "internalType": "string[]",
          "name": "",
          "type": "string[]"
        }
      ],
      "stateMutability": "view",
      "type": "function"
    },
    {
      "inputs": [
        {
          "internalType": "address",
          "name": "_address",
          "type": "address"
        }
      ],
      "name": "getOracleKeyIndices",
      "outputs": [
        {
          "internalType": "uint256",
          "name": "",
          "type": "uint256"
        },
        {
          "internalType": "uint256",
          "name": "",
          "type": "uint256"
        }
      ],
      "stateMutability": "view",
      "type": "function"
    },
    {
      "inputs": [],
      "name": "getServerIPList",
      "outputs": [
        {
          "internalType": "string[]",
          "name": "",
          "type": "string[]"
        }
      ],
      "stateMutability": "view",
      "type": "function"
    },
    {
      "inputs": [
        {
          "internalType": "string[]",
          "name": "playerNames",
          "type": "string[]"
        }
      ],
      "name": "getValidRewardAddressesByNames",
      "outputs": [
        {
          "internalType": "address[]",
          "name": "",
          "type": "address[]"
        }
      ],
      "stateMutability": "nonpayable",
      "type": "function"
    },
    {
      "inputs": [
        {
          "internalType": "address",
          "name": "_address",
          "type": "address"
        }
      ],
      "name": "isGameAdmin",
      "outputs": [
        {
          "internalType": "bool",
          "name": "",
          "type": "bool"
        }
      ],
      "stateMutability": "view",
      "type": "function"
    },
    {
      "inputs": [
        {
          "internalType": "address",
          "name": "_address",
          "type": "address"
        }
      ],
      "name": "isModerator",
      "outputs": [
        {
          "internalType": "bool",
          "name": "",
          "type": "bool"
        }
      ],
      "stateMutability": "view",
      "type": "function"
    },
    {
      "inputs": [
        {
          "internalType": "address",
          "name": "_address",
          "type": "address"
        }
      ],
      "name": "isOnboardQueuer",
      "outputs": [
        {
          "internalType": "bool",
          "name": "",
          "type": "bool"
        }
      ],
      "stateMutability": "view",
      "type": "function"
    },
    {
      "inputs": [
        {
          "internalType": "address",
          "name": "_address",
          "type": "address"
        }
      ],
      "name": "isOnboardRegistrar",
      "outputs": [
        {
          "internalType": "bool",
          "name": "",
          "type": "bool"
        }
      ],
      "stateMutability": "view",
      "type": "function"
    },
    {
      "inputs": [
        {
          "internalType": "address",
          "name": "_address",
          "type": "address"
        }
      ],
      "name": "isRegistered",
      "outputs": [
        {
          "internalType": "bool",
          "name": "",
          "type": "bool"
        }
      ],
      "stateMutability": "view",
      "type": "function"
    },
    {
      "inputs": [
        {
          "internalType": "address",
          "name": "_address",
          "type": "address"
        }
      ],
      "name": "isTourneyMod",
      "outputs": [
        {
          "internalType": "bool",
          "name": "",
          "type": "bool"
        }
      ],
      "stateMutability": "view",
      "type": "function"
    },
    {
      "inputs": [
        {
          "internalType": "address",
          "name": "_address",
          "type": "address"
        }
      ],
      "name": "isValidator",
      "outputs": [
        {
          "internalType": "bool",
          "name": "",
          "type": "bool"
        }
      ],
      "stateMutability": "view",
      "type": "function"
    },
    {
      "inputs": [],
      "name": "lamportBase",
      "outputs": [
        {
          "internalType": "contract ILamportBase",
          "name": "",
          "type": "address"
        }
      ],
      "stateMutability": "view",
      "type": "function"
    },
    {
      "inputs": [],
      "name": "onrampContract",
      "outputs": [
        {
          "internalType": "address",
          "name": "",
          "type": "address"
        }
      ],
      "stateMutability": "view",
      "type": "function"
    },
    {
      "inputs": [
        {
          "internalType": "uint256",
          "name": "",
          "type": "uint256"
        }
      ],
      "name": "playerAddresses",
      "outputs": [
        {
          "internalType": "address",
          "name": "",
          "type": "address"
        }
      ],
      "stateMutability": "view",
      "type": "function"
    },
    {
      "inputs": [
        {
          "internalType": "address",
          "name": "",
          "type": "address"
        }
      ],
      "name": "playerData",
      "outputs": [
        {
          "internalType": "bool",
          "name": "isRegistered",
          "type": "bool"
        },
        {
          "internalType": "bool",
          "name": "isValidator",
          "type": "bool"
        },
        {
          "internalType": "bool",
          "name": "isModerator",
          "type": "bool"
        },
        {
          "internalType": "bool",
          "name": "isTourneyMod",
          "type": "bool"
        },
        {
          "internalType": "bool",
          "name": "isGameAdmin",
          "type": "bool"
        },
        {
          "internalType": "bool",
          "name": "isOnboardQueuer",
          "type": "bool"
        },
        {
          "internalType": "bool",
          "name": "isOnboardRegistrar",
          "type": "bool"
        },
        {
          "internalType": "string",
          "name": "playerName",
          "type": "string"
        },
        {
          "internalType": "bytes32",
          "name": "forumKey",
          "type": "bytes32"
        },
        {
          "internalType": "string",
          "name": "steamID",
          "type": "string"
        },
        {
          "internalType": "address",
          "name": "rewardAddress",
          "type": "address"
        },
        {
          "internalType": "uint256",
          "name": "oracleKeyIndex1",
          "type": "uint256"
        },
        {
          "internalType": "uint256",
          "name": "oracleKeyIndex2",
          "type": "uint256"
        },
        {
          "internalType": "uint256",
          "name": "lastMintTime",
          "type": "uint256"
        }
      ],
      "stateMutability": "view",
      "type": "function"
    },
    {
      "inputs": [
        {
          "internalType": "uint256",
          "name": "",
          "type": "uint256"
        }
      ],
      "name": "serverIPList",
      "outputs": [
        {
          "internalType": "string",
          "name": "",
          "type": "string"
        }
      ],
      "stateMutability": "view",
      "type": "function"
    },
    {
      "inputs": [
        {
          "internalType": "address",
          "name": "_player",
          "type": "address"
        },
        {
          "internalType": "bytes32",
          "name": "_key",
          "type": "bytes32"
        }
      ],
      "name": "setForumKey",
      "outputs": [],
      "stateMutability": "nonpayable",
      "type": "function"
    },
    {
      "inputs": [
        {
          "internalType": "address",
          "name": "admin",
          "type": "address"
        },
        {
          "internalType": "bool",
          "name": "status",
          "type": "bool"
        }
      ],
      "name": "setGameAdminStatus",
      "outputs": [],
      "stateMutability": "nonpayable",
      "type": "function"
    },
    {
      "inputs": [
        {
          "internalType": "address",
          "name": "_player",
          "type": "address"
        },
        {
          "internalType": "bool",
          "name": "_status",
          "type": "bool"
        }
      ],
      "name": "setModeratorStatus",
      "outputs": [],
      "stateMutability": "nonpayable",
      "type": "function"
    },
    {
      "inputs": [
        {
          "internalType": "address",
          "name": "oracle",
          "type": "address"
        },
        {
          "internalType": "bool",
          "name": "status",
          "type": "bool"
        }
      ],
      "name": "setOnboardQueuerStatus",
      "outputs": [],
      "stateMutability": "nonpayable",
      "type": "function"
    },
    {
      "inputs": [
        {
          "internalType": "address",
          "name": "oracle",
          "type": "address"
        },
        {
          "internalType": "bool",
          "name": "status",
          "type": "bool"
        }
      ],
      "name": "setOnboardRegistrarStatus",
      "outputs": [],
      "stateMutability": "nonpayable",
      "type": "function"
    },
    {
      "inputs": [
        {
          "internalType": "address",
          "name": "_player",
          "type": "address"
        },
        {
          "internalType": "bool",
          "name": "_status",
          "type": "bool"
        }
      ],
      "name": "setTourneyModStatus",
      "outputs": [],
      "stateMutability": "nonpayable",
      "type": "function"
    },
    {
      "inputs": [
        {
          "internalType": "address",
          "name": "validator",
          "type": "address"
        },
        {
          "internalType": "bool",
          "name": "status",
          "type": "bool"
        }
      ],
      "name": "setValidatorStatus",
      "outputs": [],
      "stateMutability": "nonpayable",
      "type": "function"
    },
    {
      "inputs": [
        {
          "internalType": "bytes32[2][256]",
          "name": "currentpub",
          "type": "bytes32[2][256]"
        },
        {
          "internalType": "bytes[256]",
          "name": "sig",
          "type": "bytes[256]"
        },
        {
          "internalType": "bytes32",
          "name": "nextPKH",
          "type": "bytes32"
        },
        {
          "internalType": "address",
          "name": "_anonIDContract",
          "type": "address"
        }
      ],
      "name": "updateAnonIDContractAddressStepOne",
      "outputs": [],
      "stateMutability": "nonpayable",
      "type": "function"
    },
    {
      "inputs": [
        {
          "internalType": "bytes32[2][256]",
          "name": "currentpub",
          "type": "bytes32[2][256]"
        },
        {
          "internalType": "bytes[256]",
          "name": "sig",
          "type": "bytes[256]"
        },
        {
          "internalType": "bytes32",
          "name": "nextPKH",
          "type": "bytes32"
        },
        {
          "internalType": "address",
          "name": "_anonIDContract",
          "type": "address"
        }
      ],
      "name": "updateAnonIDContractAddressStepTwo",
      "outputs": [],
      "stateMutability": "nonpayable",
      "type": "function"
    },
    {
      "inputs": [
        {
          "internalType": "bytes32[2][256]",
          "name": "currentpub",
          "type": "bytes32[2][256]"
        },
        {
          "internalType": "bytes[256]",
          "name": "sig",
          "type": "bytes[256]"
        },
        {
          "internalType": "bytes32",
          "name": "nextPKH",
          "type": "bytes32"
        },
        {
          "internalType": "address",
          "name": "_forumContract",
          "type": "address"
        }
      ],
      "name": "updateForumContractAddressStepOne",
      "outputs": [],
      "stateMutability": "nonpayable",
      "type": "function"
    },
    {
      "inputs": [
        {
          "internalType": "bytes32[2][256]",
          "name": "currentpub",
          "type": "bytes32[2][256]"
        },
        {
          "internalType": "bytes[256]",
          "name": "sig",
          "type": "bytes[256]"
        },
        {
          "internalType": "bytes32",
          "name": "nextPKH",
          "type": "bytes32"
        },
        {
          "internalType": "address",
          "name": "_forumContract",
          "type": "address"
        }
      ],
      "name": "updateForumContractAddressStepTwo",
      "outputs": [],
      "stateMutability": "nonpayable",
      "type": "function"
    },
    {
      "inputs": [
        {
          "internalType": "string",
          "name": "serverIP",
          "type": "string"
        },
        {
          "internalType": "bool",
          "name": "add",
          "type": "bool"
        },
        {
          "internalType": "bytes32[2][256]",
          "name": "currentpub",
          "type": "bytes32[2][256]"
        },
        {
          "internalType": "bytes[256]",
          "name": "sig",
          "type": "bytes[256]"
        },
        {
          "internalType": "bytes32",
          "name": "nextPKH",
          "type": "bytes32"
        }
      ],
      "name": "updateGameServerIP",
      "outputs": [],
      "stateMutability": "nonpayable",
      "type": "function"
    },
    {
      "inputs": [
        {
          "internalType": "bytes32[2][256]",
          "name": "currentpub",
          "type": "bytes32[2][256]"
        },
        {
          "internalType": "bytes[256]",
          "name": "sig",
          "type": "bytes[256]"
        },
        {
          "internalType": "bytes32",
          "name": "nextPKH",
          "type": "bytes32"
        },
        {
          "internalType": "address",
          "name": "_gameValContract",
          "type": "address"
        }
      ],
      "name": "updateGameValContractAddressStepOne",
      "outputs": [],
      "stateMutability": "nonpayable",
      "type": "function"
    },
    {
      "inputs": [
        {
          "internalType": "bytes32[2][256]",
          "name": "currentpub",
          "type": "bytes32[2][256]"
        },
        {
          "internalType": "bytes[256]",
          "name": "sig",
          "type": "bytes[256]"
        },
        {
          "internalType": "bytes32",
          "name": "nextPKH",
          "type": "bytes32"
        },
        {
          "internalType": "address",
          "name": "_gameValContract",
          "type": "address"
        }
      ],
      "name": "updateGameValContractAddressStepTwo",
      "outputs": [],
      "stateMutability": "nonpayable",
      "type": "function"
    },
    {
      "inputs": [
        {
          "internalType": "bytes32[2][256]",
          "name": "currentpub",
          "type": "bytes32[2][256]"
        },
        {
          "internalType": "bytes[256]",
          "name": "sig",
          "type": "bytes[256]"
        },
        {
          "internalType": "bytes32",
          "name": "nextPKH",
          "type": "bytes32"
        },
        {
          "internalType": "address",
          "name": "_onrampContract",
          "type": "address"
        }
      ],
      "name": "updateOnrampContractAddressStepOne",
      "outputs": [],
      "stateMutability": "nonpayable",
      "type": "function"
    },
    {
      "inputs": [
        {
          "internalType": "bytes32[2][256]",
          "name": "currentpub",
          "type": "bytes32[2][256]"
        },
        {
          "internalType": "bytes[256]",
          "name": "sig",
          "type": "bytes[256]"
        },
        {
          "internalType": "bytes32",
          "name": "nextPKH",
          "type": "bytes32"
        },
        {
          "internalType": "address",
          "name": "_onrampContract",
          "type": "address"
        }
      ],
      "name": "updateOnrampContractAddressStepTwo",
      "outputs": [],
      "stateMutability": "nonpayable",
      "type": "function"
    }
  ],
  "bytecode": "60c0604052600360809081526254464360e81b60a052600790620000249082620002bb565b503480156200003257600080fd5b50604051620044ca380380620044ca8339810160408190526200005591620003a4565b600f80546001600160a01b038085166001600160a01b031992831617909255600c8054928416929091169190911790556008805460018101825560009190915260408051808201909152601481527f3137322e39332e3130312e3139343a32373031350000000000000000000000006020820152600080516020620044aa83398151915290910190620000e99082620002bb565b506008805460018101825560009190915260408051808201909152601381527f36332e3134332e35362e3132343a3237303135000000000000000000000000006020820152600080516020620044aa833981519152909101906200014e9082620002bb565b506008805460018101825560009190915260408051808201909152601281527136342e33312e32382e3137393a323730313560701b6020820152600080516020620044aa83398151915290910190620001a89082620002bb565b506008805460018101825560009190915260408051808201909152601481527f3137322e3233332e3232342e38333a32373031350000000000000000000000006020820152600080516020620044aa833981519152909101906200020d9082620002bb565b505050620003dc565b634e487b7160e01b600052604160045260246000fd5b600181811c908216806200024157607f821691505b6020821081036200026257634e487b7160e01b600052602260045260246000fd5b50919050565b601f821115620002b657600081815260208120601f850160051c81016020861015620002915750805b601f850160051c820191505b81811015620002b2578281556001016200029d565b5050505b505050565b81516001600160401b03811115620002d757620002d762000216565b620002ef81620002e884546200022c565b8462000268565b602080601f8311600181146200032757600084156200030e5750858301515b600019600386901b1c1916600185901b178555620002b2565b600085815260208120601f198616915b82811015620003585788860151825594840194600190910190840162000337565b5085821015620003775787850151600019600388901b60f8161c191681555b5050505050600190811b01905550565b80516001600160a01b03811681146200039f57600080fd5b919050565b60008060408385031215620003b857600080fd5b620003c38362000387565b9150620003d36020840162000387565b90509250929050565b6140be80620003ec6000396000f3fe608060405234801561001057600080fd5b506004361061025e5760003560e01c80635d3f339611610146578063bac7e032116100c3578063dd62ed3e11610087578063dd62ed3e1461063a578063e9fc174e14610665578063f107f87714610678578063f34c9fbe1461068b578063fa6f39361461069e578063facd743b146106d057600080fd5b8063bac7e032146105b5578063bb517946146105c8578063c3c5a547146105db578063d90afa2b14610607578063da76a7001461061a57600080fd5b8063910fcd5a1161010a578063910fcd5a1461053657806395df064014610549578063ac2c34ef1461057c578063aca2490b1461058f578063aeb15a6d146105a257600080fd5b80635d3f33961461049457806370a08231146104c85780637f97ecc3146104e85780638098dcff1461051b578063862dfd3e1461052357600080fd5b806334a88c5b116101df5780633fe7829f116101a35780633fe7829f146103e3578063424aeded146103f6578063451b63731461042357806356bf7b5714610439578063573088da1461044c5780635889fb341461048157600080fd5b806334a88c5b146103405780633592696d1461036857806338a0b5c6146103885780633a45e156146103c65780633dc0ff7d146103ce57600080fd5b80631ccee0cc116102265780631ccee0cc146102e157806325aacfa3146102f4578063285edaa6146103075780632b864feb1461031a57806330a3db7e1461032d57600080fd5b806302b8c2611461026357806307fd3bbf1461027857806312243b671461028b57806315c6aee21461029e5780631881f255146102ce575b600080fd5b6102766102713660046132a5565b610701565b005b610276610286366004613308565b6107ad565b610276610299366004613377565b6108f8565b6102b16102ac36600461339b565b610ae6565b6040516001600160a01b0390911681526020015b60405180910390f35b6102766102dc3660046133b4565b610b10565b6102766102ef366004613308565b610b9b565b610276610302366004613308565b610df2565b6102766103153660046132a5565b610f3d565b610276610328366004613308565b610fe6565b61027661033b366004613497565b61113c565b61035361034e366004613377565b6115e2565b604080519283526020830191909152016102c5565b61037b610376366004613534565b611674565b6040516102c591906135f7565b6103b6610396366004613644565b805160208183018101805160008252928201919093012091525460ff1681565b60405190151581526020016102c5565b6102b1611bc8565b6103d6611c3b565b6040516102c591906136d1565b600d546102b1906001600160a01b031681565b610409610404366004613377565b611d14565b6040516102c59e9d9c9b9a99989796959493929190613733565b61042b611eb1565b6040519081526020016102c5565b600f546102b1906001600160a01b031681565b6103b661045a366004613377565b6001600160a01b031660009081526009602052604090205465010000000000900460ff1690565b61027661048f3660046132a5565b611f1f565b6103b66104a2366004613377565b6001600160a01b0316600090815260096020526040902054640100000000900460ff1690565b61042b6104d6366004613377565b60016020526000908152604090205481565b6103b66104f6366004613377565b6001600160a01b0316600090815260096020526040902054600160301b900460ff1690565b6103d6611fb7565b600c546102b1906001600160a01b031681565b6102766105443660046137db565b612120565b6103b6610557366004613377565b6001600160a01b03166000908152600960205260409020546301000000900460ff1690565b61027661058a3660046132a5565b612626565b61027661059d3660046132a5565b6126cc565b6102766105b0366004613308565b61276b565b6102766105c3366004613308565b6129b8565b600e546102b1906001600160a01b031681565b6103b66105e9366004613377565b6001600160a01b031660009081526009602052604090205460ff1690565b610276610615366004613308565b612c0d565b61062d61062836600461339b565b612d02565b6040516102c59190613871565b61042b610648366004613884565b600260209081526000928352604080842090915290825290205481565b6102766106733660046132a5565b612dae565b600b546102b1906001600160a01b031681565b610276610699366004613308565b612e63565b6103b66106ac366004613377565b6001600160a01b031660009081526009602052604090205462010000900460ff1690565b6103b66106de366004613377565b6001600160a01b0316600090815260096020526040902054610100900460ff1690565b600d546001600160a01b031633146107745760405162461bcd60e51b8152602060048201526039602482015260008051602061404983398151915260448201527f6e6765204f6e626f61726420517565756572207374617475730000000000000060648201526084015b60405180910390fd5b6001600160a01b0390911660009081526009602052604090208054911515650100000000000265ff000000000019909216919091179055565b6000816040516020016107c091906138b2565b60408051601f1981840301815290829052600f5463333f611160e01b83529092506000916001600160a01b039091169063333f61119061080a9089908990899088906004016138f8565b6020604051808303816000875af1158015610829573d6000803e3d6000fd5b505050506040513d601f19601f8201168201806040525081019061084d91906139d9565b9050806108c25760405162461bcd60e51b815260206004820152603960248201527f417574686f72697a6174696f6e206661696c656420666f72207570646174696e60448201527f67204f6e72616d7020636f6e7472616374206164647265737300000000000000606482015260840161076b565b505033600090815260056020526040902080546001600160a01b0319166001600160a01b03929092169190911790556010555050565b600d546001600160a01b031633146109665760405162461bcd60e51b815260206004820152602b60248201527f4f6e6c7920746865206f6e72616d7020636f6e74726163742063616e2064656c60448201526a65746520706c617965727360a81b606482015260840161076b565b6001600160a01b0381166000908152600960205260408120805466ffffffffffffff191681559061099a600183018261322c565b60028201600090556003820160006109b2919061322c565b506004810180546001600160a01b03191690556000600582018190556006820181905560079091018190555b600a54811015610ae257816001600160a01b0316600a8281548110610a0557610a056139f6565b6000918252602090912001546001600160a01b031603610ad057600a8054610a2f90600190613a22565b81548110610a3f57610a3f6139f6565b600091825260209091200154600a80546001600160a01b039092169183908110610a6b57610a6b6139f6565b9060005260206000200160006101000a8154816001600160a01b0302191690836001600160a01b03160217905550600a805480610aaa57610aaa613a35565b600082815260209020810160001990810180546001600160a01b03191690550190555050565b80610ada81613a4b565b9150506109de565b5050565b600a8181548110610af657600080fd5b6000918252602090912001546001600160a01b0316905081565b600e546001600160a01b03163314610b7c5760405162461bcd60e51b815260206004820152602960248201527f4f6e6c792074686520666f72756d20636f6e74726163742063616e2073657420604482015268666f72756d206b657960b81b606482015260840161076b565b6001600160a01b03909116600090815260096020526040902060020155565b600081604051602001610bae91906138b2565b60408051808303601f19018152918152336000908152600560205220549091506001600160a01b03838116911614610c385760405162461bcd60e51b815260206004820152602760248201527f4f6e72616d7020636f6e7472616374206164647265737320757064617465206d6044820152660d2e6dac2e8c6d60cb1b606482015260840161076b565b600085604051602001610c4b9190613a64565b6040516020818303038152906040528051906020012090508060105403610c845760405162461bcd60e51b815260040161076b90613a9b565b600f5460405163333f611160e01b81526000916001600160a01b03169063333f611190610cbb908a908a908a9089906004016138f8565b6020604051808303816000875af1158015610cda573d6000803e3d6000fd5b505050506040513d601f19601f82011682018060405250810190610cfe91906139d9565b905080610d825760405162461bcd60e51b815260206004820152604660248201527f417574686f72697a6174696f6e206661696c6564206f6e20636f6e6669726d6160448201527f74696f6e206f66204f6e72616d7020636f6e747261637420616464726573732060648201526575706461746560d01b608482015260a40161076b565b600d80546001600160a01b0319166001600160a01b0386169081179091556040517f5959e7554218adbe3edb157f744a698c903698e2be92d199d2938afb8b0312ab90600090a2505033600090815260056020526040812080546001600160a01b03191690556010555050505050565b600081604051602001610e0591906138b2565b60408051601f1981840301815290829052600f5463333f611160e01b83529092506000916001600160a01b039091169063333f611190610e4f9089908990899088906004016138f8565b6020604051808303816000875af1158015610e6e573d6000803e3d6000fd5b505050506040513d601f19601f82011682018060405250810190610e9291906139d9565b905080610f075760405162461bcd60e51b815260206004820152603a60248201527f417574686f72697a6174696f6e206661696c656420666f722070726f706f736560448201527f642047616d6556616c20636f6e74726163742061646472657373000000000000606482015260840161076b565b505033600090815260046020526040902080546001600160a01b0319166001600160a01b03929092169190911790556010555050565b600e546001600160a01b03163314610fb35760405162461bcd60e51b815260206004820152603360248201527f4f6e6c792074686520666f72756d20636f6e74726163742063616e206d6f64696044820152726679206d6f64657261746f722073746174757360681b606482015260840161076b565b6001600160a01b0390911660009081526009602052604090208054911515620100000262ff000019909216919091179055565b600081604051602001610ff991906138b2565b60408051601f1981840301815290829052600f5463333f611160e01b83529092506000916001600160a01b039091169063333f6111906110439089908990899088906004016138f8565b6020604051808303816000875af1158015611062573d6000803e3d6000fd5b505050506040513d601f19601f8201168201806040525081019061108691906139d9565b9050806111065760405162461bcd60e51b815260206004820152604260248201527f417574686f72697a6174696f6e206661696c656420666f722070726f706f736560448201527f6420757064617465206f6620466f72756d20636f6e7472616374206164647265606482015261737360f01b608482015260a40161076b565b505033600090815260066020526040902080546001600160a01b0319166001600160a01b03929092169190911790556010555050565b600d546001600160a01b031633146111ae5760405162461bcd60e51b815260206004820152602f60248201527f4f6e6c7920746865206f6e72616d7020636f6e74726163742063616e2061646460448201526e2f75706461746520706c617965727360881b606482015260840161076b565b600c54604051633af32abf60e01b81526001600160a01b03888116600483015290911690633af32abf90602401602060405180830381865afa1580156111f8573d6000803e3d6000fd5b505050506040513d601f19601f8201168201806040525081019061121c91906139d9565b6112725760405162461bcd60e51b815260206004820152602160248201527f41646472657373206e6f742077686974656c697374656420696e20416e6f6e496044820152601160fa1b606482015260840161076b565b6001600160a01b0386166000908152600960205260409020805460ff161561132257600381016112a28782613b85565b50600181016112b18682613b85565b506001600160a01b038216156112e3576004810180546001600160a01b0319166001600160a01b038416179055611301565b6004810180546001600160a01b0319166001600160a01b0389161790555b831561130f57600581018490555b821561131d57600681018390555b6115d9565b8315158061132f57508215155b6113935760405162461bcd60e51b815260206004820152602f60248201527f4f7261636c65206b657920696e6465782063616e6e6f74206265207a65726f2060448201526e666f72206e657720706c617965727360881b606482015260840161076b565b604051806101c001604052806001151581526020016000151581526020016000151581526020016000151581526020016000151581526020016000151581526020016000151581526020018681526020016000801b8152602001878152602001886001600160a01b031681526020018581526020018481526020014281525060096000896001600160a01b03166001600160a01b0316815260200190815260200160002060008201518160000160006101000a81548160ff02191690831515021790555060208201518160000160016101000a81548160ff02191690831515021790555060408201518160000160026101000a81548160ff02191690831515021790555060608201518160000160036101000a81548160ff02191690831515021790555060808201518160000160046101000a81548160ff02191690831515021790555060a08201518160000160056101000a81548160ff02191690831515021790555060c08201518160000160066101000a81548160ff02191690831515021790555060e082015181600101908161152c9190613b85565b506101008201516002820155610120820151600382019061154d9082613b85565b506101408201516004820180546001600160a01b03199081166001600160a01b0393841617909155610160840151600584015561018084015160068401556101a090930151600790920191909155600a80546001810182556000919091527fc65a7bb8d6351c1cf70c95a316cc6a92839c986682d98bc35f958f4883f9d2a80180549092169089161790555b50505050505050565b6001600160a01b038116600090815260096020526040812054819060ff1661164c5760405162461bcd60e51b815260206004820152601860248201527f506c61796572206973206e6f7420726567697374657265640000000000000000604482015260640161076b565b50506001600160a01b0316600090815260096020526040902060058101546006909101549091565b600b546060906001600160a01b031633146116ef5760405162461bcd60e51b815260206004820152603560248201527f4f6e6c79207468652067616d652076616c696461746f7220636f6e74726163746044820152740818d85b881858d8d95cdcc81d1a1a5cc81b1a5cdd605a1b606482015260840161076b565b6000825167ffffffffffffffff81111561170b5761170b6133e0565b604051908082528060200260200182016040528015611734578160200160208202803683370190505b50905060005b8351811015611bc15760005b600a54811015611bae57848281518110611762576117626139f6565b602002602001015160405160200161177a9190613c45565b6040516020818303038152906040528051906020012060096000600a84815481106117a7576117a76139f6565b60009182526020808320909101546001600160a01b03168352828101939093526040918201902090516117e1926001929092019101613c61565b6040516020818303038152906040528051906020012003611b9c57600c54600a80546000926001600160a01b031691635a725b0791600791908690811061182a5761182a6139f6565b6000918252602090912001546040516001600160e01b031960e085901b16815261186192916001600160a01b031690600401613d54565b602060405180830381865afa15801561187e573d6000803e3d6000fd5b505050506040513d601f19601f820116820180604052508101906118a29190613d7e565b90508060ff16600203611af55760096000600a84815481106118c6576118c66139f6565b60009182526020808320909101546001600160a01b039081168452908301939093526040909101902060040154855191169085908590811061190a5761190a6139f6565b60200260200101906001600160a01b031690816001600160a01b0316815250506000603c60096000600a8681548110611945576119456139f6565b60009182526020808320909101546001600160a01b031683528201929092526040019020600701546119779042613a22565b6119819190613da1565b600c54600a80549293506001600160a01b039091169163d47b2e999190869081106119ae576119ae6139f6565b60009182526020909120015460405160e083901b6001600160e01b03191681526001600160a01b03909116600482015260248101849052604401600060405180830381600087803b158015611a0257600080fd5b505af1158015611a16573d6000803e3d6000fd5b5050600c54600a80546001600160a01b039092169350632eb4b54f92509086908110611a4457611a446139f6565b6000918252602090912001546040516001600160e01b031960e084901b168152611a7d916001600160a01b031690600790600401613dc3565b600060405180830381600087803b158015611a9757600080fd5b505af1158015611aab573d6000803e3d6000fd5b505050504260096000600a8681548110611ac757611ac76139f6565b60009182526020808320909101546001600160a01b0316835282019290925260400190206007015550611b96565b8060ff16600003611b9657600c54600a80546001600160a01b0390921691632eb4b54f919085908110611b2a57611b2a6139f6565b6000918252602090912001546040516001600160e01b031960e084901b168152611b63916001600160a01b031690600790600401613dc3565b600060405180830381600087803b158015611b7d57600080fd5b505af1158015611b91573d6000803e3d6000fd5b505050505b50611bae565b80611ba681613a4b565b915050611746565b5080611bb981613a4b565b91505061173a565b5092915050565b600c546040805163931742d360e01b815290516000926001600160a01b03169163931742d39160048083019260209291908290030181865afa158015611c12573d6000803e3d6000fd5b505050506040513d601f19601f82011682018060405250810190611c369190613de7565b905090565b60606008805480602002602001604051908101604052809291908181526020016000905b82821015611d0b578382906000526020600020018054611c7e90613b02565b80601f0160208091040260200160405190810160405280929190818152602001828054611caa90613b02565b8015611cf75780601f10611ccc57610100808354040283529160200191611cf7565b820191906000526020600020905b815481529060010190602001808311611cda57829003601f168201915b505050505081526020019060010190611c5f565b50505050905090565b6009602052600090815260409020805460018201805460ff808416946101008504821694620100008104831694630100000082048416946401000000008304851694650100000000008404811694600160301b90940416929190611d7790613b02565b80601f0160208091040260200160405190810160405280929190818152602001828054611da390613b02565b8015611df05780601f10611dc557610100808354040283529160200191611df0565b820191906000526020600020905b815481529060010190602001808311611dd357829003601f168201915b505050505090806002015490806003018054611e0b90613b02565b80601f0160208091040260200160405190810160405280929190818152602001828054611e3790613b02565b8015611e845780601f10611e5957610100808354040283529160200191611e84565b820191906000526020600020905b815481529060010190602001808311611e6757829003601f168201915b5050505060048301546005840154600685015460079095015493946001600160a01b03909216939092508e565b600c5460408051638705d94560e01b815290516000926001600160a01b031691638705d9459160048083019260209291908290030181865afa158015611efb573d6000803e3d6000fd5b505050506040513d601f19601f82011682018060405250810190611c369190613e04565b600d546001600160a01b03163314611f805760405162461bcd60e51b8152602060048201526030602482015260008051602061404983398151915260448201526f6e67652041646d696e2073746174757360801b606482015260840161076b565b6001600160a01b03909116600090815260096020526040902080549115156401000000000264ff0000000019909216919091179055565b600a5460609060009067ffffffffffffffff811115611fd857611fd86133e0565b60405190808252806020026020018201604052801561200b57816020015b6060815260200190600190039081611ff65790505b50905060005b600a5481101561211a57600060096000600a8481548110612034576120346139f6565b60009182526020808320909101546001600160a01b0316835282019290925260400190206001810180549192509061206b90613b02565b80601f016020809104026020016040519081016040528092919081815260200182805461209790613b02565b80156120e45780601f106120b9576101008083540402835291602001916120e4565b820191906000526020600020905b8154815290600101906020018083116120c757829003601f168201915b50505050508383815181106120fb576120fb6139f6565b602002602001018190525050808061211290613a4b565b915050612011565b50919050565b6000836040516020016121339190613a64565b6040516020818303038152906040528051906020012090506000600f60009054906101000a90046001600160a01b03166001600160a01b031663333f61118686868b6040516020016121859190613c45565b6040516020818303038152906040526040518563ffffffff1660e01b81526004016121b394939291906138f8565b6020604051808303816000875af11580156121d2573d6000803e3d6000fd5b505050506040513d601f19601f820116820180604052508101906121f691906139d9565b90508061225357600080516020614069833981519152600060405161224a9115158152604060208201819052601390820152724661696c6564206f7261636c6520636865636b60681b606082015260800190565b60405180910390a15b600f5460405163b9d57c5f60e01b8152600481018490526000916001600160a01b03169063b9d57c5f90602401606060405180830381865afa15801561229d573d6000803e3d6000fd5b505050506040513d601f19601f820116820180604052508101906122c19190613e1d565b925050506000806122d1336115e2565b6040805183815260208101839052908101869052919350915033907fff3fd26be599c7a3b223a0dc1b0751612c06f97f9438109a6b7aacf14e2c63aa9060600160405180910390a28183141580156123295750808314155b1561239f57600080516020614069833981519152600060405161239691151581526040602082018190526028908201527f43616c6c65722773206f7261636c65206b657920696e64657820646f6573206e6060820152670dee840dac2e8c6d60c31b608082015260a00190565b60405180910390a15b33600090815260096020526040902054640100000000900460ff166123e55760008051602061406983398151915260006040516123dc9190613e58565b60405180910390a15b60008a6040516020016123f89190613c45565b60405160208183030381529060405290507f601ad29ac23d5a9abd818d1d8e0dad199b65ae0c48dfb2b5e4989a558996526c8b8260405161243a929190613e9d565b60405180910390a1891561251e5760008b6040516124589190613c45565b9081526040519081900360200190205460ff1661251957600160008c6040516124819190613c45565b908152604051908190036020019020805491151560ff19909216919091179055600880546001810182556000919091527ff3f7a9fe364faab93b216da50a3214154f22a0a2b415b23a84c8169e8b636ee3016124dd8c82613b85565b507f88ca7d5ceaf520d74404b5feac3621664607a5ff216edcc1520638eafce56d238b6001604051612510929190613ecb565b60405180910390a15b6125bb565b60008b60405161252e9190613c45565b9081526040519081900360200190205460ff16156125bb576000808c6040516125579190613c45565b908152604051908190036020019020805491151560ff199092169190911790556125808b6130af565b7f88ca7d5ceaf520d74404b5feac3621664607a5ff216edcc1520638eafce56d238b60006040516125b2929190613ecb565b60405180910390a15b6000805160206140698339815191526001604051612611911515815260406020808301829052908201527f4f7065726174696f6e20636f6d706c657465642077697468206c6f6767696e67606082015260800190565b60405180910390a15050505050505050505050565b600d546001600160a01b031633146126945760405162461bcd60e51b815260206004820152603c602482015260008051602061404983398151915260448201527f6e6765204f6e626f617264205265676973747261722053746174757300000000606482015260840161076b565b6001600160a01b0390911660009081526009602052604090208054911515600160301b0266ff00000000000019909216919091179055565b600d546001600160a01b0316331461273a5760405162461bcd60e51b8152602060048201526039602482015260008051602061404983398151915260448201527f6e67652047616d652056616c696461746f722073746174757300000000000000606482015260840161076b565b6001600160a01b03909116600090815260096020526040902080549115156101000261ff0019909216919091179055565b60008160405160200161277e91906138b2565b60408051808303601f19018152918152336000908152600460205220549091506001600160a01b0383811691161461280b5760405162461bcd60e51b815260206004820152602a60248201527f50726f706f7365642047616d6556616c20636f6e7472616374206164647265736044820152690e640dad2e6dac2e8c6d60b31b606482015260840161076b565b60008560405160200161281e9190613a64565b60405160208183030381529060405280519060200120905080601054036128575760405162461bcd60e51b815260040161076b90613a9b565b600f5460405163333f611160e01b81526000916001600160a01b03169063333f61119061288e908a908a908a9089906004016138f8565b6020604051808303816000875af11580156128ad573d6000803e3d6000fd5b505050506040513d601f19601f820116820180604052508101906128d191906139d9565b905080612948576040805162461bcd60e51b81526020600482015260248101919091527f417574686f72697a6174696f6e206661696c6564206f6e20636f6e6669726d6160448201527f74696f6e206f662047616d6556616c20636f6e74726163742061646472657373606482015260840161076b565b600b80546001600160a01b0319166001600160a01b0386169081179091556040517f6f1895f9314e8b91a7a1c3a67319510d05c9d6729515f83cc2eaca70d3e81f8790600090a2505033600090815260046020526040812080546001600160a01b03191690556010555050505050565b6000816040516020016129cb91906138b2565b60408051808303601f19018152918152336000908152600660205220549091506001600160a01b03838116911614612a545760405162461bcd60e51b815260206004820152602660248201527f466f72756d20636f6e7472616374206164647265737320757064617465206d696044820152650e6dac2e8c6d60d31b606482015260840161076b565b600085604051602001612a679190613a64565b6040516020818303038152906040528051906020012090508060105403612aa05760405162461bcd60e51b815260040161076b90613a9b565b600f5460405163333f611160e01b81526000916001600160a01b03169063333f611190612ad7908a908a908a9089906004016138f8565b6020604051808303816000875af1158015612af6573d6000803e3d6000fd5b505050506040513d601f19601f82011682018060405250810190612b1a91906139d9565b905080612b9d5760405162461bcd60e51b815260206004820152604560248201527f417574686f72697a6174696f6e206661696c6564206f6e20636f6e6669726d6160448201527f74696f6e206f6620466f72756d20636f6e747261637420616464726573732075606482015264706461746560d81b608482015260a40161076b565b600e80546001600160a01b0319166001600160a01b0386169081179091556040517f78e5262e53e14d17b3058c6b8cf7cd3c2fb92a4172fa393fddd75cb57523b1c690600090a2505033600090815260066020526040812080546001600160a01b03191690556010555050505050565b600081604051602001612c2091906138b2565b60408051601f1981840301815290829052600f5463333f611160e01b83529092506000916001600160a01b039091169063333f611190612c6a9089908990899088906004016138f8565b6020604051808303816000875af1158015612c89573d6000803e3d6000fd5b505050506040513d601f19601f82011682018060405250810190612cad91906139d9565b905080612ccc5760405162461bcd60e51b815260040161076b90613eef565b505033600090815260036020526040902080546001600160a01b0319166001600160a01b03929092169190911790556010555050565b60088181548110612d1257600080fd5b906000526020600020016000915090508054612d2d90613b02565b80601f0160208091040260200160405190810160405280929190818152602001828054612d5990613b02565b8015612da65780601f10612d7b57610100808354040283529160200191612da6565b820191906000526020600020905b815481529060010190602001808311612d8957829003601f168201915b505050505081565b600e546001600160a01b03163314612e2e5760405162461bcd60e51b815260206004820152603e60248201527f4f6e6c792074686520666f72756d20636f6e74726163742063616e206d6f646960448201527f667920746f75726e616d656e74206d6f64657261746f72207374617475730000606482015260840161076b565b6001600160a01b039091166000908152600960205260409020805491151563010000000263ff00000019909216919091179055565b600081604051602001612e7691906138b2565b60408051808303601f19018152918152336000908152600360205220549091506001600160a01b03838116911614612f025760405162461bcd60e51b815260206004820152602960248201527f50726f706f73656420416e6f6e494420636f6e74726163742061646472657373604482015268040dad2e6dac2e8c6d60bb1b606482015260840161076b565b600085604051602001612f159190613a64565b6040516020818303038152906040528051906020012090508060105403612fa6576040805162461bcd60e51b81526020600482015260248101919091527f4c616d706f7274426173653a20504b48206d617463686573206c61737420757360448201527f656420504b482028757365207365706172617465207365636f6e64206b657929606482015260840161076b565b600f5460405163333f611160e01b81526000916001600160a01b03169063333f611190612fdd908a908a908a9089906004016138f8565b6020604051808303816000875af1158015612ffc573d6000803e3d6000fd5b505050506040513d601f19601f8201168201806040525081019061302091906139d9565b90508061303f5760405162461bcd60e51b815260040161076b90613eef565b600c80546001600160a01b0319166001600160a01b0386169081179091556040517febc4468d0c46ed1b5177ed98bdb5d4ccfc7dd4f9da4caa02b6fd46b1e7be0d4e90600090a2505033600090815260036020526040812080546001600160a01b03191690556010555050505050565b33600090815260096020526040902054640100000000900460ff166130e65760405162461bcd60e51b815260040161076b90613f30565b60005b600854811015610ae257816040516020016131049190613c45565b604051602081830303815290604052805190602001206008828154811061312d5761312d6139f6565b906000526020600020016040516020016131479190613c61565b604051602081830303815290604052805190602001200361321a57600080836040516131739190613c45565b908152604051908190036020019020805491151560ff19909216919091179055600880546131a390600190613a22565b815481106131b3576131b36139f6565b90600052602060002001600882815481106131d0576131d06139f6565b9060005260206000200190816131e69190613f6d565b5060088054806131f8576131f8613a35565b600190038181906000526020600020016000613214919061322c565b90555050565b8061322481613a4b565b9150506130e9565b50805461323890613b02565b6000825580601f10613248575050565b601f0160209004906000526020600020908101906132669190613269565b50565b5b8082111561327e576000815560010161326a565b5090565b6001600160a01b038116811461326657600080fd5b801515811461326657600080fd5b600080604083850312156132b857600080fd5b82356132c381613282565b915060208301356132d381613297565b809150509250929050565b8061400081018310156132f057600080fd5b92915050565b8061200081018310156132f057600080fd5b600080600080614060858703121561331f57600080fd5b61332986866132de565b935061400085013567ffffffffffffffff81111561334657600080fd5b613352878288016132f6565b935050614020850135915061404085013561336c81613282565b939692955090935050565b60006020828403121561338957600080fd5b813561339481613282565b9392505050565b6000602082840312156133ad57600080fd5b5035919050565b600080604083850312156133c757600080fd5b82356133d281613282565b946020939093013593505050565b634e487b7160e01b600052604160045260246000fd5b604051601f8201601f1916810167ffffffffffffffff8111828210171561341f5761341f6133e0565b604052919050565b600082601f83011261343857600080fd5b813567ffffffffffffffff811115613452576134526133e0565b613465601f8201601f19166020016133f6565b81815284602083860101111561347a57600080fd5b816020850160208301376000918101602001919091529392505050565b60008060008060008060c087890312156134b057600080fd5b86356134bb81613282565b9550602087013567ffffffffffffffff808211156134d857600080fd5b6134e48a838b01613427565b965060408901359150808211156134fa57600080fd5b5061350789828a01613427565b945050606087013592506080870135915060a087013561352681613282565b809150509295509295509295565b6000602080838503121561354757600080fd5b823567ffffffffffffffff8082111561355f57600080fd5b818501915085601f83011261357357600080fd5b813581811115613585576135856133e0565b8060051b6135948582016133f6565b91825283810185019185810190898411156135ae57600080fd5b86860192505b838310156135ea578235858111156135cc5760008081fd5b6135da8b89838a0101613427565b83525091860191908601906135b4565b9998505050505050505050565b6020808252825182820181905260009190848201906040850190845b818110156136385783516001600160a01b031683529284019291840191600101613613565b50909695505050505050565b60006020828403121561365657600080fd5b813567ffffffffffffffff81111561366d57600080fd5b61367984828501613427565b949350505050565b60005b8381101561369c578181015183820152602001613684565b50506000910152565b600081518084526136bd816020860160208601613681565b601f01601f19169290920160200192915050565b6000602080830181845280855180835260408601915060408160051b870101925083870160005b8281101561372657603f198886030184526137148583516136a5565b945092850192908501906001016136f8565b5092979650505050505050565b8e151581528d151560208201528c151560408201528b151560608201528a1515608082015289151560a082015288151560c08201526101c060e082015260006137806101c083018a6136a5565b8861010084015282810361012084015261379a81896136a5565b9150506137b36101408301876001600160a01b03169052565b8461016083015283610180830152826101a08301529f9e505050505050505050505050505050565b600080600080600061408086880312156137f457600080fd5b853567ffffffffffffffff8082111561380c57600080fd5b61381889838a01613427565b96506020880135915061382a82613297565b81955061383a8960408a016132de565b945061404088013591508082111561385157600080fd5b5061385e888289016132f6565b9598949750929561406001359392505050565b60208152600061339460208301846136a5565b6000806040838503121561389757600080fd5b82356138a281613282565b915060208301356132d381613282565b60609190911b6bffffffffffffffffffffffff1916815260140190565b81835281816020850137506000828201602090810191909152601f909101601f19169091010190565b60006140608281018388845b61010081101561392557604080838537928301929190910190600101613904565b50505061400084019190915261606083018660005b6101008110156139b15785830361405f190184528135368a9003601e1901811261396357600080fd5b8901602081810191359067ffffffffffffffff82111561398257600080fd5b81360383131561399157600080fd5b61399c8683856138cf565b9681019695509390930192505060010161393a565b5050856140208501528381036140408501526139cd81866136a5565b98975050505050505050565b6000602082840312156139eb57600080fd5b815161339481613297565b634e487b7160e01b600052603260045260246000fd5b634e487b7160e01b600052601160045260246000fd5b818103818111156132f0576132f0613a0c565b634e487b7160e01b600052603160045260246000fd5b600060018201613a5d57613a5d613a0c565b5060010190565b60008183825b610100811015613a8b57604080838537928301929190910190600101613a6a565b5050506140008201905092915050565b60208082526041908201527f53616d6520504b48207573656420666f7220626f74682073746570733b20757360408201527f652061207365706172617465206b657920666f7220636f6e6669726d6174696f6060820152603760f91b608082015260a00190565b600181811c90821680613b1657607f821691505b60208210810361211a57634e487b7160e01b600052602260045260246000fd5b601f821115613b8057600081815260208120601f850160051c81016020861015613b5d5750805b601f850160051c820191505b81811015613b7c57828155600101613b69565b5050505b505050565b815167ffffffffffffffff811115613b9f57613b9f6133e0565b613bb381613bad8454613b02565b84613b36565b602080601f831160018114613be85760008415613bd05750858301515b600019600386901b1c1916600185901b178555613b7c565b600085815260208120601f198616915b82811015613c1757888601518255948401946001909101908401613bf8565b5085821015613c355787850151600019600388901b60f8161c191681555b5050505050600190811b01905550565b60008251613c57818460208701613681565b9190910192915050565b6000808354613c6f81613b02565b60018281168015613c875760018114613c9c57613ccb565b60ff1984168752821515830287019450613ccb565b8760005260208060002060005b85811015613cc25781548a820152908401908201613ca9565b50505082870194505b50929695505050505050565b60008154613ce481613b02565b808552602060018381168015613d015760018114613d1b57613d49565b60ff1985168884015283151560051b880183019550613d49565b866000528260002060005b85811015613d415781548a8201860152908301908401613d26565b890184019650505b505050505092915050565b604081526000613d676040830185613cd7565b905060018060a01b03831660208301529392505050565b600060208284031215613d9057600080fd5b815160ff8116811461339457600080fd5b600082613dbe57634e487b7160e01b600052601260045260246000fd5b500490565b6001600160a01b038316815260406020820181905260009061367990830184613cd7565b600060208284031215613df957600080fd5b815161339481613282565b600060208284031215613e1657600080fd5b5051919050565b600080600060608486031215613e3257600080fd5b835160038110613e4157600080fd5b602085015160409095015190969495509392505050565b811515815260406020820152600061339460408301601a81527f43616c6c6572206973206e6f7420612067616d652061646d696e000000000000602082015260400190565b604081526000613eb060408301856136a5565b8281036020840152613ec281856136a5565b95945050505050565b604081526000613ede60408301856136a5565b905082151560208301529392505050565b60208082526021908201527f4c616d706f7274426173653a20417574686f72697a6174696f6e206661696c656040820152601960fa1b606082015260800190565b6020815260006132f060208301601a81527f43616c6c6572206973206e6f7420612067616d652061646d696e000000000000602082015260400190565b818103613f78575050565b613f828254613b02565b67ffffffffffffffff811115613f9a57613f9a6133e0565b613fa881613bad8454613b02565b6000601f821160018114613fdc5760008315613fc45750848201545b600019600385901b1c1916600184901b178455614041565b600085815260209020601f19841690600086815260209020845b838110156140165782860154825560019586019590910190602001613ff6565b50858310156140345781850154600019600388901b60f8161c191681555b50505060018360011b0184555b505050505056fe4f6e6c7920746865206f6e72616d7020636f6e74726163742063616e20636861d353110df4eda5869325be482c3fdd2f26ccbccc779d11b2d7afac5c7c5eb19da2646970667358221220a8c453adaa5cc7179db3be41df86c68653352b6a59c2174a62791c7b9a9e599164736f6c63430008140033f3f7a9fe364faab93b216da50a3214154f22a0a2b415b23a84c8169e8b636ee3",
  "bytecodeSha1": "da39a3ee5e6b4b0d3255bfef95601890afd80709",
  "compiler": {
    "evm_version": "istanbul",
    "optimizer": {
      "enabled": true,
      "runs": 200
    },
    "version": "0.8.20+commit.a1b79de6"
  },
  "contractName": "PlayerDatabase",
  "language": "Solidity",
  "natspec": {
    "kind": "dev",
    "methods": {},
    "version": 1
  },
  "opcodes": "PUSH1 0x80 PUSH1 0x40 MSTORE CALLVALUE DUP1 ISZERO PUSH2 0x10 JUMPI PUSH1 0x0 DUP1 REVERT JUMPDEST POP PUSH1 0x4 CALLDATASIZE LT PUSH2 0x25E JUMPI PUSH1 0x0 CALLDATALOAD PUSH1 0xE0 SHR DUP1 PUSH4 0x5D3F3396 GT PUSH2 0x146 JUMPI DUP1 PUSH4 0xBAC7E032 GT PUSH2 0xC3 JUMPI DUP1 PUSH4 0xDD62ED3E GT PUSH2 0x87 JUMPI DUP1 PUSH4 0xDD62ED3E EQ PUSH2 0x63A JUMPI DUP1 PUSH4 0xE9FC174E EQ PUSH2 0x665 JUMPI DUP1 PUSH4 0xF107F877 EQ PUSH2 0x678 JUMPI DUP1 PUSH4 0xF34C9FBE EQ PUSH2 0x68B JUMPI DUP1 PUSH4 0xFA6F3936 EQ PUSH2 0x69E JUMPI DUP1 PUSH4 0xFACD743B EQ PUSH2 0x6D0 JUMPI PUSH1 0x0 DUP1 REVERT JUMPDEST DUP1 PUSH4 0xBAC7E032 EQ PUSH2 0x5B5 JUMPI DUP1 PUSH4 0xBB517946 EQ PUSH2 0x5C8 JUMPI DUP1 PUSH4 0xC3C5A547 EQ PUSH2 0x5DB JUMPI DUP1 PUSH4 0xD90AFA2B EQ PUSH2 0x607 JUMPI DUP1 PUSH4 0xDA76A700 EQ PUSH2 0x61A JUMPI PUSH1 0x0 DUP1 REVERT JUMPDEST DUP1 PUSH4 0x910FCD5A GT PUSH2 0x10A JUMPI DUP1 PUSH4 0x910FCD5A EQ PUSH2 0x536 JUMPI DUP1 PUSH4 0x95DF0640 EQ PUSH2 0x549 JUMPI DUP1 PUSH4 0xAC2C34EF EQ PUSH2 0x57C JUMPI DUP1 PUSH4 0xACA2490B EQ PUSH2 0x58F JUMPI DUP1 PUSH4 0xAEB15A6D EQ PUSH2 0x5A2 JUMPI PUSH1 0x0 DUP1 REVERT JUMPDEST DUP1 PUSH4 0x5D3F3396 EQ PUSH2 0x494 JUMPI DUP1 PUSH4 0x70A08231 EQ PUSH2 0x4C8 JUMPI DUP1 PUSH4 0x7F97ECC3 EQ PUSH2 0x4E8 JUMPI DUP1 PUSH4 0x8098DCFF EQ PUSH2 0x51B JUMPI DUP1 PUSH4 0x862DFD3E EQ PUSH2 0x523 JUMPI PUSH1 0x0 DUP1 REVERT JUMPDEST DUP1 PUSH4 0x34A88C5B GT PUSH2 0x1DF JUMPI DUP1 PUSH4 0x3FE7829F GT PUSH2 0x1A3 JUMPI DUP1 PUSH4 0x3FE7829F EQ PUSH2 0x3E3 JUMPI DUP1 PUSH4 0x424AEDED EQ PUSH2 0x3F6 JUMPI DUP1 PUSH4 0x451B6373 EQ PUSH2 0x423 JUMPI DUP1 PUSH4 0x56BF7B57 EQ PUSH2 0x439 JUMPI DUP1 PUSH4 0x573088DA EQ PUSH2 0x44C JUMPI DUP1 PUSH4 0x5889FB34 EQ PUSH2 0x481 JUMPI PUSH1 0x0 DUP1 REVERT JUMPDEST DUP1 PUSH4 0x34A88C5B EQ PUSH2 0x340 JUMPI DUP1 PUSH4 0x3592696D EQ PUSH2 0x368 JUMPI DUP1 PUSH4 0x38A0B5C6 EQ PUSH2 0x388 JUMPI DUP1 PUSH4 0x3A45E156 EQ PUSH2 0x3C6 JUMPI DUP1 PUSH4 0x3DC0FF7D EQ PUSH2 0x3CE JUMPI PUSH1 0x0 DUP1 REVERT JUMPDEST DUP1 PUSH4 0x1CCEE0CC GT PUSH2 0x226 JUMPI DUP1 PUSH4 0x1CCEE0CC EQ PUSH2 0x2E1 JUMPI DUP1 PUSH4 0x25AACFA3 EQ PUSH2 0x2F4 JUMPI DUP1 PUSH4 0x285EDAA6 EQ PUSH2 0x307 JUMPI DUP1 PUSH4 0x2B864FEB EQ PUSH2 0x31A JUMPI DUP1 PUSH4 0x30A3DB7E EQ PUSH2 0x32D JUMPI PUSH1 0x0 DUP1 REVERT JUMPDEST DUP1 PUSH4 0x2B8C261 EQ PUSH2 0x263 JUMPI DUP1 PUSH4 0x7FD3BBF EQ PUSH2 0x278 JUMPI DUP1 PUSH4 0x12243B67 EQ PUSH2 0x28B JUMPI DUP1 PUSH4 0x15C6AEE2 EQ PUSH2 0x29E JUMPI DUP1 PUSH4 0x1881F255 EQ PUSH2 0x2CE JUMPI JUMPDEST PUSH1 0x0 DUP1 REVERT JUMPDEST PUSH2 0x276 PUSH2 0x271 CALLDATASIZE PUSH1 0x4 PUSH2 0x32A5 JUMP JUMPDEST PUSH2 0x701 JUMP JUMPDEST STOP JUMPDEST PUSH2 0x276 PUSH2 0x286 CALLDATASIZE PUSH1 0x4 PUSH2 0x3308 JUMP JUMPDEST PUSH2 0x7AD JUMP JUMPDEST PUSH2 0x276 PUSH2 0x299 CALLDATASIZE PUSH1 0x4 PUSH2 0x3377 JUMP JUMPDEST PUSH2 0x8F8 JUMP JUMPDEST PUSH2 0x2B1 PUSH2 0x2AC CALLDATASIZE PUSH1 0x4 PUSH2 0x339B JUMP JUMPDEST PUSH2 0xAE6 JUMP JUMPDEST PUSH1 0x40 MLOAD PUSH1 0x1 PUSH1 0x1 PUSH1 0xA0 SHL SUB SWAP1 SWAP2 AND DUP2 MSTORE PUSH1 0x20 ADD JUMPDEST PUSH1 0x40 MLOAD DUP1 SWAP2 SUB SWAP1 RETURN JUMPDEST PUSH2 0x276 PUSH2 0x2DC CALLDATASIZE PUSH1 0x4 PUSH2 0x33B4 JUMP JUMPDEST PUSH2 0xB10 JUMP JUMPDEST PUSH2 0x276 PUSH2 0x2EF CALLDATASIZE PUSH1 0x4 PUSH2 0x3308 JUMP JUMPDEST PUSH2 0xB9B JUMP JUMPDEST PUSH2 0x276 PUSH2 0x302 CALLDATASIZE PUSH1 0x4 PUSH2 0x3308 JUMP JUMPDEST PUSH2 0xDF2 JUMP JUMPDEST PUSH2 0x276 PUSH2 0x315 CALLDATASIZE PUSH1 0x4 PUSH2 0x32A5 JUMP JUMPDEST PUSH2 0xF3D JUMP JUMPDEST PUSH2 0x276 PUSH2 0x328 CALLDATASIZE PUSH1 0x4 PUSH2 0x3308 JUMP JUMPDEST PUSH2 0xFE6 JUMP JUMPDEST PUSH2 0x276 PUSH2 0x33B CALLDATASIZE PUSH1 0x4 PUSH2 0x3497 JUMP JUMPDEST PUSH2 0x113C JUMP JUMPDEST PUSH2 0x353 PUSH2 0x34E CALLDATASIZE PUSH1 0x4 PUSH2 0x3377 JUMP JUMPDEST PUSH2 0x15E2 JUMP JUMPDEST PUSH1 0x40 DUP1 MLOAD SWAP3 DUP4 MSTORE PUSH1 0x20 DUP4 ADD SWAP2 SWAP1 SWAP2 MSTORE ADD PUSH2 0x2C5 JUMP JUMPDEST PUSH2 0x37B PUSH2 0x376 CALLDATASIZE PUSH1 0x4 PUSH2 0x3534 JUMP JUMPDEST PUSH2 0x1674 JUMP JUMPDEST PUSH1 0x40 MLOAD PUSH2 0x2C5 SWAP2 SWAP1 PUSH2 0x35F7 JUMP JUMPDEST PUSH2 0x3B6 PUSH2 0x396 CALLDATASIZE PUSH1 0x4 PUSH2 0x3644 JUMP JUMPDEST DUP1 MLOAD PUSH1 0x20 DUP2 DUP4 ADD DUP2 ADD DUP1 MLOAD PUSH1 0x0 DUP3 MSTORE SWAP3 DUP3 ADD SWAP2 SWAP1 SWAP4 ADD KECCAK256 SWAP2 MSTORE SLOAD PUSH1 0xFF AND DUP2 JUMP JUMPDEST PUSH1 0x40 MLOAD SWAP1 ISZERO ISZERO DUP2 MSTORE PUSH1 0x20 ADD PUSH2 0x2C5 JUMP JUMPDEST PUSH2 0x2B1 PUSH2 0x1BC8 JUMP JUMPDEST PUSH2 0x3D6 PUSH2 0x1C3B JUMP JUMPDEST PUSH1 0x40 MLOAD PUSH2 0x2C5 SWAP2 SWAP1 PUSH2 0x36D1 JUMP JUMPDEST PUSH1 0xD SLOAD PUSH2 0x2B1 SWAP1 PUSH1 0x1 PUSH1 0x1 PUSH1 0xA0 SHL SUB AND DUP2 JUMP JUMPDEST PUSH2 0x409 PUSH2 0x404 CALLDATASIZE PUSH1 0x4 PUSH2 0x3377 JUMP JUMPDEST PUSH2 0x1D14 JUMP JUMPDEST PUSH1 0x40 MLOAD PUSH2 0x2C5 SWAP15 SWAP14 SWAP13 SWAP12 SWAP11 SWAP10 SWAP9 SWAP8 SWAP7 SWAP6 SWAP5 SWAP4 SWAP3 SWAP2 SWAP1 PUSH2 0x3733 JUMP JUMPDEST PUSH2 0x42B PUSH2 0x1EB1 JUMP JUMPDEST PUSH1 0x40 MLOAD SWAP1 DUP2 MSTORE PUSH1 0x20 ADD PUSH2 0x2C5 JUMP JUMPDEST PUSH1 0xF SLOAD PUSH2 0x2B1 SWAP1 PUSH1 0x1 PUSH1 0x1 PUSH1 0xA0 SHL SUB AND DUP2 JUMP JUMPDEST PUSH2 0x3B6 PUSH2 0x45A CALLDATASIZE PUSH1 0x4 PUSH2 0x3377 JUMP JUMPDEST PUSH1 0x1 PUSH1 0x1 PUSH1 0xA0 SHL SUB AND PUSH1 0x0 SWAP1 DUP2 MSTORE PUSH1 0x9 PUSH1 0x20 MSTORE PUSH1 0x40 SWAP1 KECCAK256 SLOAD PUSH6 0x10000000000 SWAP1 DIV PUSH1 0xFF AND SWAP1 JUMP JUMPDEST PUSH2 0x276 PUSH2 0x48F CALLDATASIZE PUSH1 0x4 PUSH2 0x32A5 JUMP JUMPDEST PUSH2 0x1F1F JUMP JUMPDEST PUSH2 0x3B6 PUSH2 0x4A2 CALLDATASIZE PUSH1 0x4 PUSH2 0x3377 JUMP JUMPDEST PUSH1 0x1 PUSH1 0x1 PUSH1 0xA0 SHL SUB AND PUSH1 0x0 SWAP1 DUP2 MSTORE PUSH1 0x9 PUSH1 0x20 MSTORE PUSH1 0x40 SWAP1 KECCAK256 SLOAD PUSH5 0x100000000 SWAP1 DIV PUSH1 0xFF AND SWAP1 JUMP JUMPDEST PUSH2 0x42B PUSH2 0x4D6 CALLDATASIZE PUSH1 0x4 PUSH2 0x3377 JUMP JUMPDEST PUSH1 0x1 PUSH1 0x20 MSTORE PUSH1 0x0 SWAP1 DUP2 MSTORE PUSH1 0x40 SWAP1 KECCAK256 SLOAD DUP2 JUMP JUMPDEST PUSH2 0x3B6 PUSH2 0x4F6 CALLDATASIZE PUSH1 0x4 PUSH2 0x3377 JUMP JUMPDEST PUSH1 0x1 PUSH1 0x1 PUSH1 0xA0 SHL SUB AND PUSH1 0x0 SWAP1 DUP2 MSTORE PUSH1 0x9 PUSH1 0x20 MSTORE PUSH1 0x40 SWAP1 KECCAK256 SLOAD PUSH1 0x1 PUSH1 0x30 SHL SWAP1 DIV PUSH1 0xFF AND SWAP1 JUMP JUMPDEST PUSH2 0x3D6 PUSH2 0x1FB7 JUMP JUMPDEST PUSH1 0xC SLOAD PUSH2 0x2B1 SWAP1 PUSH1 0x1 PUSH1 0x1 PUSH1 0xA0 SHL SUB AND DUP2 JUMP JUMPDEST PUSH2 0x276 PUSH2 0x544 CALLDATASIZE PUSH1 0x4 PUSH2 0x37DB JUMP JUMPDEST PUSH2 0x2120 JUMP JUMPDEST PUSH2 0x3B6 PUSH2 0x557 CALLDATASIZE PUSH1 0x4 PUSH2 0x3377 JUMP JUMPDEST PUSH1 0x1 PUSH1 0x1 PUSH1 0xA0 SHL SUB AND PUSH1 0x0 SWAP1 DUP2 MSTORE PUSH1 0x9 PUSH1 0x20 MSTORE PUSH1 0x40 SWAP1 KECCAK256 SLOAD PUSH4 0x1000000 SWAP1 DIV PUSH1 0xFF AND SWAP1 JUMP JUMPDEST PUSH2 0x276 PUSH2 0x58A CALLDATASIZE PUSH1 0x4 PUSH2 0x32A5 JUMP JUMPDEST PUSH2 0x2626 JUMP JUMPDEST PUSH2 0x276 PUSH2 0x59D CALLDATASIZE PUSH1 0x4 PUSH2 0x32A5 JUMP JUMPDEST PUSH2 0x26CC JUMP JUMPDEST PUSH2 0x276 PUSH2 0x5B0 CALLDATASIZE PUSH1 0x4 PUSH2 0x3308 JUMP JUMPDEST PUSH2 0x276B JUMP JUMPDEST PUSH2 0x276 PUSH2 0x5C3 CALLDATASIZE PUSH1 0x4 PUSH2 0x3308 JUMP JUMPDEST PUSH2 0x29B8 JUMP JUMPDEST PUSH1 0xE SLOAD PUSH2 0x2B1 SWAP1 PUSH1 0x1 PUSH1 0x1 PUSH1 0xA0 SHL SUB AND DUP2 JUMP JUMPDEST PUSH2 0x3B6 PUSH2 0x5E9 CALLDATASIZE PUSH1 0x4 PUSH2 0x3377 JUMP JUMPDEST PUSH1 0x1 PUSH1 0x1 PUSH1 0xA0 SHL SUB AND PUSH1 0x0 SWAP1 DUP2 MSTORE PUSH1 0x9 PUSH1 0x20 MSTORE PUSH1 0x40 SWAP1 KECCAK256 SLOAD PUSH1 0xFF AND SWAP1 JUMP JUMPDEST PUSH2 0x276 PUSH2 0x615 CALLDATASIZE PUSH1 0x4 PUSH2 0x3308 JUMP JUMPDEST PUSH2 0x2C0D JUMP JUMPDEST PUSH2 0x62D PUSH2 0x628 CALLDATASIZE PUSH1 0x4 PUSH2 0x339B JUMP JUMPDEST PUSH2 0x2D02 JUMP JUMPDEST PUSH1 0x40 MLOAD PUSH2 0x2C5 SWAP2 SWAP1 PUSH2 0x3871 JUMP JUMPDEST PUSH2 0x42B PUSH2 0x648 CALLDATASIZE PUSH1 0x4 PUSH2 0x3884 JUMP JUMPDEST PUSH1 0x2 PUSH1 0x20 SWAP1 DUP2 MSTORE PUSH1 0x0 SWAP3 DUP4 MSTORE PUSH1 0x40 DUP1 DUP5 KECCAK256 SWAP1 SWAP2 MSTORE SWAP1 DUP3 MSTORE SWAP1 KECCAK256 SLOAD DUP2 JUMP JUMPDEST PUSH2 0x276 PUSH2 0x673 CALLDATASIZE PUSH1 0x4 PUSH2 0x32A5 JUMP JUMPDEST PUSH2 0x2DAE JUMP JUMPDEST PUSH1 0xB SLOAD PUSH2 0x2B1 SWAP1 PUSH1 0x1 PUSH1 0x1 PUSH1 0xA0 SHL SUB AND DUP2 JUMP JUMPDEST PUSH2 0x276 PUSH2 0x699 CALLDATASIZE PUSH1 0x4 PUSH2 0x3308 JUMP JUMPDEST PUSH2 0x2E63 JUMP JUMPDEST PUSH2 0x3B6 PUSH2 0x6AC CALLDATASIZE PUSH1 0x4 PUSH2 0x3377 JUMP JUMPDEST PUSH1 0x1 PUSH1 0x1 PUSH1 0xA0 SHL SUB AND PUSH1 0x0 SWAP1 DUP2 MSTORE PUSH1 0x9 PUSH1 0x20 MSTORE PUSH1 0x40 SWAP1 KECCAK256 SLOAD PUSH3 0x10000 SWAP1 DIV PUSH1 0xFF AND SWAP1 JUMP JUMPDEST PUSH2 0x3B6 PUSH2 0x6DE CALLDATASIZE PUSH1 0x4 PUSH2 0x3377 JUMP JUMPDEST PUSH1 0x1 PUSH1 0x1 PUSH1 0xA0 SHL SUB AND PUSH1 0x0 SWAP1 DUP2 MSTORE PUSH1 0x9 PUSH1 0x20 MSTORE PUSH1 0x40 SWAP1 KECCAK256 SLOAD PUSH2 0x100 SWAP1 DIV PUSH1 0xFF AND SWAP1 JUMP JUMPDEST PUSH1 0xD SLOAD PUSH1 0x1 PUSH1 0x1 PUSH1 0xA0 SHL SUB AND CALLER EQ PUSH2 0x774 JUMPI PUSH1 0x40 MLOAD PUSH3 0x461BCD PUSH1 0xE5 SHL DUP2 MSTORE PUSH1 0x20 PUSH1 0x4 DUP3 ADD MSTORE PUSH1 0x39 PUSH1 0x24 DUP3 ADD MSTORE PUSH1 0x0 DUP1 MLOAD PUSH1 0x20 PUSH2 0x4049 DUP4 CODECOPY DUP2 MLOAD SWAP2 MSTORE PUSH1 0x44 DUP3 ADD MSTORE PUSH32 0x6E6765204F6E626F617264205175657565722073746174757300000000000000 PUSH1 0x64 DUP3 ADD MSTORE PUSH1 0x84 ADD JUMPDEST PUSH1 0x40 MLOAD DUP1 SWAP2 SUB SWAP1 REVERT JUMPDEST PUSH1 0x1 PUSH1 0x1 PUSH1 0xA0 SHL SUB SWAP1 SWAP2 AND PUSH1 0x0 SWAP1 DUP2 MSTORE PUSH1 0x9 PUSH1 0x20 MSTORE PUSH1 0x40 SWAP1 KECCAK256 DUP1 SLOAD SWAP2 ISZERO ISZERO PUSH6 0x10000000000 MUL PUSH6 0xFF0000000000 NOT SWAP1 SWAP3 AND SWAP2 SWAP1 SWAP2 OR SWAP1 SSTORE JUMP JUMPDEST PUSH1 0x0 DUP2 PUSH1 0x40 MLOAD PUSH1 0x20 ADD PUSH2 0x7C0 SWAP2 SWAP1 PUSH2 0x38B2 JUMP JUMPDEST PUSH1 0x40 DUP1 MLOAD PUSH1 0x1F NOT DUP2 DUP5 SUB ADD DUP2 MSTORE SWAP1 DUP3 SWAP1 MSTORE PUSH1 0xF SLOAD PUSH4 0x333F6111 PUSH1 0xE0 SHL DUP4 MSTORE SWAP1 SWAP3 POP PUSH1 0x0 SWAP2 PUSH1 0x1 PUSH1 0x1 PUSH1 0xA0 SHL SUB SWAP1 SWAP2 AND SWAP1 PUSH4 0x333F6111 SWAP1 PUSH2 0x80A SWAP1 DUP10 SWAP1 DUP10 SWAP1 DUP10 SWAP1 DUP9 SWAP1 PUSH1 0x4 ADD PUSH2 0x38F8 JUMP JUMPDEST PUSH1 0x20 PUSH1 0x40 MLOAD DUP1 DUP4 SUB DUP2 PUSH1 0x0 DUP8 GAS CALL ISZERO DUP1 ISZERO PUSH2 0x829 JUMPI RETURNDATASIZE PUSH1 0x0 DUP1 RETURNDATACOPY RETURNDATASIZE PUSH1 0x0 REVERT JUMPDEST POP POP POP POP PUSH1 0x40 MLOAD RETURNDATASIZE PUSH1 0x1F NOT PUSH1 0x1F DUP3 ADD AND DUP3 ADD DUP1 PUSH1 0x40 MSTORE POP DUP2 ADD SWAP1 PUSH2 0x84D SWAP2 SWAP1 PUSH2 0x39D9 JUMP JUMPDEST SWAP1 POP DUP1 PUSH2 0x8C2 JUMPI PUSH1 0x40 MLOAD PUSH3 0x461BCD PUSH1 0xE5 SHL DUP2 MSTORE PUSH1 0x20 PUSH1 0x4 DUP3 ADD MSTORE PUSH1 0x39 PUSH1 0x24 DUP3 ADD MSTORE PUSH32 0x417574686F72697A6174696F6E206661696C656420666F72207570646174696E PUSH1 0x44 DUP3 ADD MSTORE PUSH32 0x67204F6E72616D7020636F6E7472616374206164647265737300000000000000 PUSH1 0x64 DUP3 ADD MSTORE PUSH1 0x84 ADD PUSH2 0x76B JUMP JUMPDEST POP POP CALLER PUSH1 0x0 SWAP1 DUP2 MSTORE PUSH1 0x5 PUSH1 0x20 MSTORE PUSH1 0x40 SWAP1 KECCAK256 DUP1 SLOAD PUSH1 0x1 PUSH1 0x1 PUSH1 0xA0 SHL SUB NOT AND PUSH1 0x1 PUSH1 0x1 PUSH1 0xA0 SHL SUB SWAP3 SWAP1 SWAP3 AND SWAP2 SWAP1 SWAP2 OR SWAP1 SSTORE PUSH1 0x10 SSTORE POP POP JUMP JUMPDEST PUSH1 0xD SLOAD PUSH1 0x1 PUSH1 0x1 PUSH1 0xA0 SHL SUB AND CALLER EQ PUSH2 0x966 JUMPI PUSH1 0x40 MLOAD PUSH3 0x461BCD PUSH1 0xE5 SHL DUP2 MSTORE PUSH1 0x20 PUSH1 0x4 DUP3 ADD MSTORE PUSH1 0x2B PUSH1 0x24 DUP3 ADD MSTORE PUSH32 0x4F6E6C7920746865206F6E72616D7020636F6E74726163742063616E2064656C PUSH1 0x44 DUP3 ADD MSTORE PUSH11 0x65746520706C6179657273 PUSH1 0xA8 SHL PUSH1 0x64 DUP3 ADD MSTORE PUSH1 0x84 ADD PUSH2 0x76B JUMP JUMPDEST PUSH1 0x1 PUSH1 0x1 PUSH1 0xA0 SHL SUB DUP2 AND PUSH1 0x0 SWAP1 DUP2 MSTORE PUSH1 0x9 PUSH1 0x20 MSTORE PUSH1 0x40 DUP2 KECCAK256 DUP1 SLOAD PUSH7 0xFFFFFFFFFFFFFF NOT AND DUP2 SSTORE SWAP1 PUSH2 0x99A PUSH1 0x1 DUP4 ADD DUP3 PUSH2 0x322C JUMP JUMPDEST PUSH1 0x2 DUP3 ADD PUSH1 0x0 SWAP1 SSTORE PUSH1 0x3 DUP3 ADD PUSH1 0x0 PUSH2 0x9B2 SWAP2 SWAP1 PUSH2 0x322C JUMP JUMPDEST POP PUSH1 0x4 DUP2 ADD DUP1 SLOAD PUSH1 0x1 PUSH1 0x1 PUSH1 0xA0 SHL SUB NOT AND SWAP1 SSTORE PUSH1 0x0 PUSH1 0x5 DUP3 ADD DUP2 SWAP1 SSTORE PUSH1 0x6 DUP3 ADD DUP2 SWAP1 SSTORE PUSH1 0x7 SWAP1 SWAP2 ADD DUP2 SWAP1 SSTORE JUMPDEST PUSH1 0xA SLOAD DUP2 LT ISZERO PUSH2 0xAE2 JUMPI DUP2 PUSH1 0x1 PUSH1 0x1 PUSH1 0xA0 SHL SUB AND PUSH1 0xA DUP3 DUP2 SLOAD DUP2 LT PUSH2 0xA05 JUMPI PUSH2 0xA05 PUSH2 0x39F6 JUMP JUMPDEST PUSH1 0x0 SWAP2 DUP3 MSTORE PUSH1 0x20 SWAP1 SWAP2 KECCAK256 ADD SLOAD PUSH1 0x1 PUSH1 0x1 PUSH1 0xA0 SHL SUB AND SUB PUSH2 0xAD0 JUMPI PUSH1 0xA DUP1 SLOAD PUSH2 0xA2F SWAP1 PUSH1 0x1 SWAP1 PUSH2 0x3A22 JUMP JUMPDEST DUP2 SLOAD DUP2 LT PUSH2 0xA3F JUMPI PUSH2 0xA3F PUSH2 0x39F6 JUMP JUMPDEST PUSH1 0x0 SWAP2 DUP3 MSTORE PUSH1 0x20 SWAP1 SWAP2 KECCAK256 ADD SLOAD PUSH1 0xA DUP1 SLOAD PUSH1 0x1 PUSH1 0x1 PUSH1 0xA0 SHL SUB SWAP1 SWAP3 AND SWAP2 DUP4 SWAP1 DUP2 LT PUSH2 0xA6B JUMPI PUSH2 0xA6B PUSH2 0x39F6 JUMP JUMPDEST SWAP1 PUSH1 0x0 MSTORE PUSH1 0x20 PUSH1 0x0 KECCAK256 ADD PUSH1 0x0 PUSH2 0x100 EXP DUP2 SLOAD DUP2 PUSH1 0x1 PUSH1 0x1 PUSH1 0xA0 SHL SUB MUL NOT AND SWAP1 DUP4 PUSH1 0x1 PUSH1 0x1 PUSH1 0xA0 SHL SUB AND MUL OR SWAP1 SSTORE POP PUSH1 0xA DUP1 SLOAD DUP1 PUSH2 0xAAA JUMPI PUSH2 0xAAA PUSH2 0x3A35 JUMP JUMPDEST PUSH1 0x0 DUP3 DUP2 MSTORE PUSH1 0x20 SWAP1 KECCAK256 DUP2 ADD PUSH1 0x0 NOT SWAP1 DUP2 ADD DUP1 SLOAD PUSH1 0x1 PUSH1 0x1 PUSH1 0xA0 SHL SUB NOT AND SWAP1 SSTORE ADD SWAP1 SSTORE POP POP JUMP JUMPDEST DUP1 PUSH2 0xADA DUP2 PUSH2 0x3A4B JUMP JUMPDEST SWAP2 POP POP PUSH2 0x9DE JUMP JUMPDEST POP POP JUMP JUMPDEST PUSH1 0xA DUP2 DUP2 SLOAD DUP2 LT PUSH2 0xAF6 JUMPI PUSH1 0x0 DUP1 REVERT JUMPDEST PUSH1 0x0 SWAP2 DUP3 MSTORE PUSH1 0x20 SWAP1 SWAP2 KECCAK256 ADD SLOAD PUSH1 0x1 PUSH1 0x1 PUSH1 0xA0 SHL SUB AND SWAP1 POP DUP2 JUMP JUMPDEST PUSH1 0xE SLOAD PUSH1 0x1 PUSH1 0x1 PUSH1 0xA0 SHL SUB AND CALLER EQ PUSH2 0xB7C JUMPI PUSH1 0x40 MLOAD PUSH3 0x461BCD PUSH1 0xE5 SHL DUP2 MSTORE PUSH1 0x20 PUSH1 0x4 DUP3 ADD MSTORE PUSH1 0x29 PUSH1 0x24 DUP3 ADD MSTORE PUSH32 0x4F6E6C792074686520666F72756D20636F6E74726163742063616E2073657420 PUSH1 0x44 DUP3 ADD MSTORE PUSH9 0x666F72756D206B6579 PUSH1 0xB8 SHL PUSH1 0x64 DUP3 ADD MSTORE PUSH1 0x84 ADD PUSH2 0x76B JUMP JUMPDEST PUSH1 0x1 PUSH1 0x1 PUSH1 0xA0 SHL SUB SWAP1 SWAP2 AND PUSH1 0x0 SWAP1 DUP2 MSTORE PUSH1 0x9 PUSH1 0x20 MSTORE PUSH1 0x40 SWAP1 KECCAK256 PUSH1 0x2 ADD SSTORE JUMP JUMPDEST PUSH1 0x0 DUP2 PUSH1 0x40 MLOAD PUSH1 0x20 ADD PUSH2 0xBAE SWAP2 SWAP1 PUSH2 0x38B2 JUMP JUMPDEST PUSH1 0x40 DUP1 MLOAD DUP1 DUP4 SUB PUSH1 0x1F NOT ADD DUP2 MSTORE SWAP2 DUP2 MSTORE CALLER PUSH1 0x0 SWAP1 DUP2 MSTORE PUSH1 0x5 PUSH1 0x20 MSTORE KECCAK256 SLOAD SWAP1 SWAP2 POP PUSH1 0x1 PUSH1 0x1 PUSH1 0xA0 SHL SUB DUP4 DUP2 AND SWAP2 AND EQ PUSH2 0xC38 JUMPI PUSH1 0x40 MLOAD PUSH3 0x461BCD PUSH1 0xE5 SHL DUP2 MSTORE PUSH1 0x20 PUSH1 0x4 DUP3 ADD MSTORE PUSH1 0x27 PUSH1 0x24 DUP3 ADD MSTORE PUSH32 0x4F6E72616D7020636F6E7472616374206164647265737320757064617465206D PUSH1 0x44 DUP3 ADD MSTORE PUSH7 0xD2E6DAC2E8C6D PUSH1 0xCB SHL PUSH1 0x64 DUP3 ADD MSTORE PUSH1 0x84 ADD PUSH2 0x76B JUMP JUMPDEST PUSH1 0x0 DUP6 PUSH1 0x40 MLOAD PUSH1 0x20 ADD PUSH2 0xC4B SWAP2 SWAP1 PUSH2 0x3A64 JUMP JUMPDEST PUSH1 0x40 MLOAD PUSH1 0x20 DUP2 DUP4 SUB SUB DUP2 MSTORE SWAP1 PUSH1 0x40 MSTORE DUP1 MLOAD SWAP1 PUSH1 0x20 ADD KECCAK256 SWAP1 POP DUP1 PUSH1 0x10 SLOAD SUB PUSH2 0xC84 JUMPI PUSH1 0x40 MLOAD PUSH3 0x461BCD PUSH1 0xE5 SHL DUP2 MSTORE PUSH1 0x4 ADD PUSH2 0x76B SWAP1 PUSH2 0x3A9B JUMP JUMPDEST PUSH1 0xF SLOAD PUSH1 0x40 MLOAD PUSH4 0x333F6111 PUSH1 0xE0 SHL DUP2 MSTORE PUSH1 0x0 SWAP2 PUSH1 0x1 PUSH1 0x1 PUSH1 0xA0 SHL SUB AND SWAP1 PUSH4 0x333F6111 SWAP1 PUSH2 0xCBB SWAP1 DUP11 SWAP1 DUP11 SWAP1 DUP11 SWAP1 DUP10 SWAP1 PUSH1 0x4 ADD PUSH2 0x38F8 JUMP JUMPDEST PUSH1 0x20 PUSH1 0x40 MLOAD DUP1 DUP4 SUB DUP2 PUSH1 0x0 DUP8 GAS CALL ISZERO DUP1 ISZERO PUSH2 0xCDA JUMPI RETURNDATASIZE PUSH1 0x0 DUP1 RETURNDATACOPY RETURNDATASIZE PUSH1 0x0 REVERT JUMPDEST POP POP POP POP PUSH1 0x40 MLOAD RETURNDATASIZE PUSH1 0x1F NOT PUSH1 0x1F DUP3 ADD AND DUP3 ADD DUP1 PUSH1 0x40 MSTORE POP DUP2 ADD SWAP1 PUSH2 0xCFE SWAP2 SWAP1 PUSH2 0x39D9 JUMP JUMPDEST SWAP1 POP DUP1 PUSH2 0xD82 JUMPI PUSH1 0x40 MLOAD PUSH3 0x461BCD PUSH1 0xE5 SHL DUP2 MSTORE PUSH1 0x20 PUSH1 0x4 DUP3 ADD MSTORE PUSH1 0x46 PUSH1 0x24 DUP3 ADD MSTORE PUSH32 0x417574686F72697A6174696F6E206661696C6564206F6E20636F6E6669726D61 PUSH1 0x44 DUP3 ADD MSTORE PUSH32 0x74696F6E206F66204F6E72616D7020636F6E7472616374206164647265737320 PUSH1 0x64 DUP3 ADD MSTORE PUSH6 0x757064617465 PUSH1 0xD0 SHL PUSH1 0x84 DUP3 ADD MSTORE PUSH1 0xA4 ADD PUSH2 0x76B JUMP JUMPDEST PUSH1 0xD DUP1 SLOAD PUSH1 0x1 PUSH1 0x1 PUSH1 0xA0 SHL SUB NOT AND PUSH1 0x1 PUSH1 0x1 PUSH1 0xA0 SHL SUB DUP7 AND SWAP1 DUP2 OR SWAP1 SWAP2 SSTORE PUSH1 0x40 MLOAD PUSH32 0x5959E7554218ADBE3EDB157F744A698C903698E2BE92D199D2938AFB8B0312AB SWAP1 PUSH1 0x0 SWAP1 LOG2 POP POP CALLER PUSH1 0x0 SWAP1 DUP2 MSTORE PUSH1 0x5 PUSH1 0x20 MSTORE PUSH1 0x40 DUP2 KECCAK256 DUP1 SLOAD PUSH1 0x1 PUSH1 0x1 PUSH1 0xA0 SHL SUB NOT AND SWAP1 SSTORE PUSH1 0x10 SSTORE POP POP POP POP POP JUMP JUMPDEST PUSH1 0x0 DUP2 PUSH1 0x40 MLOAD PUSH1 0x20 ADD PUSH2 0xE05 SWAP2 SWAP1 PUSH2 0x38B2 JUMP JUMPDEST PUSH1 0x40 DUP1 MLOAD PUSH1 0x1F NOT DUP2 DUP5 SUB ADD DUP2 MSTORE SWAP1 DUP3 SWAP1 MSTORE PUSH1 0xF SLOAD PUSH4 0x333F6111 PUSH1 0xE0 SHL DUP4 MSTORE SWAP1 SWAP3 POP PUSH1 0x0 SWAP2 PUSH1 0x1 PUSH1 0x1 PUSH1 0xA0 SHL SUB SWAP1 SWAP2 AND SWAP1 PUSH4 0x333F6111 SWAP1 PUSH2 0xE4F SWAP1 DUP10 SWAP1 DUP10 SWAP1 DUP10 SWAP1 DUP9 SWAP1 PUSH1 0x4 ADD PUSH2 0x38F8 JUMP JUMPDEST PUSH1 0x20 PUSH1 0x40 MLOAD DUP1 DUP4 SUB DUP2 PUSH1 0x0 DUP8 GAS CALL ISZERO DUP1 ISZERO PUSH2 0xE6E JUMPI RETURNDATASIZE PUSH1 0x0 DUP1 RETURNDATACOPY RETURNDATASIZE PUSH1 0x0 REVERT JUMPDEST POP POP POP POP PUSH1 0x40 MLOAD RETURNDATASIZE PUSH1 0x1F NOT PUSH1 0x1F DUP3 ADD AND DUP3 ADD DUP1 PUSH1 0x40 MSTORE POP DUP2 ADD SWAP1 PUSH2 0xE92 SWAP2 SWAP1 PUSH2 0x39D9 JUMP JUMPDEST SWAP1 POP DUP1 PUSH2 0xF07 JUMPI PUSH1 0x40 MLOAD PUSH3 0x461BCD PUSH1 0xE5 SHL DUP2 MSTORE PUSH1 0x20 PUSH1 0x4 DUP3 ADD MSTORE PUSH1 0x3A PUSH1 0x24 DUP3 ADD MSTORE PUSH32 0x417574686F72697A6174696F6E206661696C656420666F722070726F706F7365 PUSH1 0x44 DUP3 ADD MSTORE PUSH32 0x642047616D6556616C20636F6E74726163742061646472657373000000000000 PUSH1 0x64 DUP3 ADD MSTORE PUSH1 0x84 ADD PUSH2 0x76B JUMP JUMPDEST POP POP CALLER PUSH1 0x0 SWAP1 DUP2 MSTORE PUSH1 0x4 PUSH1 0x20 MSTORE PUSH1 0x40 SWAP1 KECCAK256 DUP1 SLOAD PUSH1 0x1 PUSH1 0x1 PUSH1 0xA0 SHL SUB NOT AND PUSH1 0x1 PUSH1 0x1 PUSH1 0xA0 SHL SUB SWAP3 SWAP1 SWAP3 AND SWAP2 SWAP1 SWAP2 OR SWAP1 SSTORE PUSH1 0x10 SSTORE POP POP JUMP JUMPDEST PUSH1 0xE SLOAD PUSH1 0x1 PUSH1 0x1 PUSH1 0xA0 SHL SUB AND CALLER EQ PUSH2 0xFB3 JUMPI PUSH1 0x40 MLOAD PUSH3 0x461BCD PUSH1 0xE5 SHL DUP2 MSTORE PUSH1 0x20 PUSH1 0x4 DUP3 ADD MSTORE PUSH1 0x33 PUSH1 0x24 DUP3 ADD MSTORE PUSH32 0x4F6E6C792074686520666F72756D20636F6E74726163742063616E206D6F6469 PUSH1 0x44 DUP3 ADD MSTORE PUSH19 0x6679206D6F64657261746F7220737461747573 PUSH1 0x68 SHL PUSH1 0x64 DUP3 ADD MSTORE PUSH1 0x84 ADD PUSH2 0x76B JUMP JUMPDEST PUSH1 0x1 PUSH1 0x1 PUSH1 0xA0 SHL SUB SWAP1 SWAP2 AND PUSH1 0x0 SWAP1 DUP2 MSTORE PUSH1 0x9 PUSH1 0x20 MSTORE PUSH1 0x40 SWAP1 KECCAK256 DUP1 SLOAD SWAP2 ISZERO ISZERO PUSH3 0x10000 MUL PUSH3 0xFF0000 NOT SWAP1 SWAP3 AND SWAP2 SWAP1 SWAP2 OR SWAP1 SSTORE JUMP JUMPDEST PUSH1 0x0 DUP2 PUSH1 0x40 MLOAD PUSH1 0x20 ADD PUSH2 0xFF9 SWAP2 SWAP1 PUSH2 0x38B2 JUMP JUMPDEST PUSH1 0x40 DUP1 MLOAD PUSH1 0x1F NOT DUP2 DUP5 SUB ADD DUP2 MSTORE SWAP1 DUP3 SWAP1 MSTORE PUSH1 0xF SLOAD PUSH4 0x333F6111 PUSH1 0xE0 SHL DUP4 MSTORE SWAP1 SWAP3 POP PUSH1 0x0 SWAP2 PUSH1 0x1 PUSH1 0x1 PUSH1 0xA0 SHL SUB SWAP1 SWAP2 AND SWAP1 PUSH4 0x333F6111 SWAP1 PUSH2 0x1043 SWAP1 DUP10 SWAP1 DUP10 SWAP1 DUP10 SWAP1 DUP9 SWAP1 PUSH1 0x4 ADD PUSH2 0x38F8 JUMP JUMPDEST PUSH1 0x20 PUSH1 0x40 MLOAD DUP1 DUP4 SUB DUP2 PUSH1 0x0 DUP8 GAS CALL ISZERO DUP1 ISZERO PUSH2 0x1062 JUMPI RETURNDATASIZE PUSH1 0x0 DUP1 RETURNDATACOPY RETURNDATASIZE PUSH1 0x0 REVERT JUMPDEST POP POP POP POP PUSH1 0x40 MLOAD RETURNDATASIZE PUSH1 0x1F NOT PUSH1 0x1F DUP3 ADD AND DUP3 ADD DUP1 PUSH1 0x40 MSTORE POP DUP2 ADD SWAP1 PUSH2 0x1086 SWAP2 SWAP1 PUSH2 0x39D9 JUMP JUMPDEST SWAP1 POP DUP1 PUSH2 0x1106 JUMPI PUSH1 0x40 MLOAD PUSH3 0x461BCD PUSH1 0xE5 SHL DUP2 MSTORE PUSH1 0x20 PUSH1 0x4 DUP3 ADD MSTORE PUSH1 0x42 PUSH1 0x24 DUP3 ADD MSTORE PUSH32 0x417574686F72697A6174696F6E206661696C656420666F722070726F706F7365 PUSH1 0x44 DUP3 ADD MSTORE PUSH32 0x6420757064617465206F6620466F72756D20636F6E7472616374206164647265 PUSH1 0x64 DUP3 ADD MSTORE PUSH2 0x7373 PUSH1 0xF0 SHL PUSH1 0x84 DUP3 ADD MSTORE PUSH1 0xA4 ADD PUSH2 0x76B JUMP JUMPDEST POP POP CALLER PUSH1 0x0 SWAP1 DUP2 MSTORE PUSH1 0x6 PUSH1 0x20 MSTORE PUSH1 0x40 SWAP1 KECCAK256 DUP1 SLOAD PUSH1 0x1 PUSH1 0x1 PUSH1 0xA0 SHL SUB NOT AND PUSH1 0x1 PUSH1 0x1 PUSH1 0xA0 SHL SUB SWAP3 SWAP1 SWAP3 AND SWAP2 SWAP1 SWAP2 OR SWAP1 SSTORE PUSH1 0x10 SSTORE POP POP JUMP JUMPDEST PUSH1 0xD SLOAD PUSH1 0x1 PUSH1 0x1 PUSH1 0xA0 SHL SUB AND CALLER EQ PUSH2 0x11AE JUMPI PUSH1 0x40 MLOAD PUSH3 0x461BCD PUSH1 0xE5 SHL DUP2 MSTORE PUSH1 0x20 PUSH1 0x4 DUP3 ADD MSTORE PUSH1 0x2F PUSH1 0x24 DUP3 ADD MSTORE PUSH32 0x4F6E6C7920746865206F6E72616D7020636F6E74726163742063616E20616464 PUSH1 0x44 DUP3 ADD MSTORE PUSH15 0x2F75706461746520706C6179657273 PUSH1 0x88 SHL PUSH1 0x64 DUP3 ADD MSTORE PUSH1 0x84 ADD PUSH2 0x76B JUMP JUMPDEST PUSH1 0xC SLOAD PUSH1 0x40 MLOAD PUSH4 0x3AF32ABF PUSH1 0xE0 SHL DUP2 MSTORE PUSH1 0x1 PUSH1 0x1 PUSH1 0xA0 SHL SUB DUP9 DUP2 AND PUSH1 0x4 DUP4 ADD MSTORE SWAP1 SWAP2 AND SWAP1 PUSH4 0x3AF32ABF SWAP1 PUSH1 0x24 ADD PUSH1 0x20 PUSH1 0x40 MLOAD DUP1 DUP4 SUB DUP2 DUP7 GAS STATICCALL ISZERO DUP1 ISZERO PUSH2 0x11F8 JUMPI RETURNDATASIZE PUSH1 0x0 DUP1 RETURNDATACOPY RETURNDATASIZE PUSH1 0x0 REVERT JUMPDEST POP POP POP POP PUSH1 0x40 MLOAD RETURNDATASIZE PUSH1 0x1F NOT PUSH1 0x1F DUP3 ADD AND DUP3 ADD DUP1 PUSH1 0x40 MSTORE POP DUP2 ADD SWAP1 PUSH2 0x121C SWAP2 SWAP1 PUSH2 0x39D9 JUMP JUMPDEST PUSH2 0x1272 JUMPI PUSH1 0x40 MLOAD PUSH3 0x461BCD PUSH1 0xE5 SHL DUP2 MSTORE PUSH1 0x20 PUSH1 0x4 DUP3 ADD MSTORE PUSH1 0x21 PUSH1 0x24 DUP3 ADD MSTORE PUSH32 0x41646472657373206E6F742077686974656C697374656420696E20416E6F6E49 PUSH1 0x44 DUP3 ADD MSTORE PUSH1 0x11 PUSH1 0xFA SHL PUSH1 0x64 DUP3 ADD MSTORE PUSH1 0x84 ADD PUSH2 0x76B JUMP JUMPDEST PUSH1 0x1 PUSH1 0x1 PUSH1 0xA0 SHL SUB DUP7 AND PUSH1 0x0 SWAP1 DUP2 MSTORE PUSH1 0x9 PUSH1 0x20 MSTORE PUSH1 0x40 SWAP1 KECCAK256 DUP1 SLOAD PUSH1 0xFF AND ISZERO PUSH2 0x1322 JUMPI PUSH1 0x3 DUP2 ADD PUSH2 0x12A2 DUP8 DUP3 PUSH2 0x3B85 JUMP JUMPDEST POP PUSH1 0x1 DUP2 ADD PUSH2 0x12B1 DUP7 DUP3 PUSH2 0x3B85 JUMP JUMPDEST POP PUSH1 0x1 PUSH1 0x1 PUSH1 0xA0 SHL SUB DUP3 AND ISZERO PUSH2 0x12E3 JUMPI PUSH1 0x4 DUP2 ADD DUP1 SLOAD PUSH1 0x1 PUSH1 0x1 PUSH1 0xA0 SHL SUB NOT AND PUSH1 0x1 PUSH1 0x1 PUSH1 0xA0 SHL SUB DUP5 AND OR SWAP1 SSTORE PUSH2 0x1301 JUMP JUMPDEST PUSH1 0x4 DUP2 ADD DUP1 SLOAD PUSH1 0x1 PUSH1 0x1 PUSH1 0xA0 SHL SUB NOT AND PUSH1 0x1 PUSH1 0x1 PUSH1 0xA0 SHL SUB DUP10 AND OR SWAP1 SSTORE JUMPDEST DUP4 ISZERO PUSH2 0x130F JUMPI PUSH1 0x5 DUP2 ADD DUP5 SWAP1 SSTORE JUMPDEST DUP3 ISZERO PUSH2 0x131D JUMPI PUSH1 0x6 DUP2 ADD DUP4 SWAP1 SSTORE JUMPDEST PUSH2 0x15D9 JUMP JUMPDEST DUP4 ISZERO ISZERO DUP1 PUSH2 0x132F JUMPI POP DUP3 ISZERO ISZERO JUMPDEST PUSH2 0x1393 JUMPI PUSH1 0x40 MLOAD PUSH3 0x461BCD PUSH1 0xE5 SHL DUP2 MSTORE PUSH1 0x20 PUSH1 0x4 DUP3 ADD MSTORE PUSH1 0x2F PUSH1 0x24 DUP3 ADD MSTORE PUSH32 0x4F7261636C65206B657920696E6465782063616E6E6F74206265207A65726F20 PUSH1 0x44 DUP3 ADD MSTORE PUSH15 0x666F72206E657720706C6179657273 PUSH1 0x88 SHL PUSH1 0x64 DUP3 ADD MSTORE PUSH1 0x84 ADD PUSH2 0x76B JUMP JUMPDEST PUSH1 0x40 MLOAD DUP1 PUSH2 0x1C0 ADD PUSH1 0x40 MSTORE DUP1 PUSH1 0x1 ISZERO ISZERO DUP2 MSTORE PUSH1 0x20 ADD PUSH1 0x0 ISZERO ISZERO DUP2 MSTORE PUSH1 0x20 ADD PUSH1 0x0 ISZERO ISZERO DUP2 MSTORE PUSH1 0x20 ADD PUSH1 0x0 ISZERO ISZERO DUP2 MSTORE PUSH1 0x20 ADD PUSH1 0x0 ISZERO ISZERO DUP2 MSTORE PUSH1 0x20 ADD PUSH1 0x0 ISZERO ISZERO DUP2 MSTORE PUSH1 0x20 ADD PUSH1 0x0 ISZERO ISZERO DUP2 MSTORE PUSH1 0x20 ADD DUP7 DUP2 MSTORE PUSH1 0x20 ADD PUSH1 0x0 DUP1 SHL DUP2 MSTORE PUSH1 0x20 ADD DUP8 DUP2 MSTORE PUSH1 0x20 ADD DUP9 PUSH1 0x1 PUSH1 0x1 PUSH1 0xA0 SHL SUB AND DUP2 MSTORE PUSH1 0x20 ADD DUP6 DUP2 MSTORE PUSH1 0x20 ADD DUP5 DUP2 MSTORE PUSH1 0x20 ADD TIMESTAMP DUP2 MSTORE POP PUSH1 0x9 PUSH1 0x0 DUP10 PUSH1 0x1 PUSH1 0x1 PUSH1 0xA0 SHL SUB AND PUSH1 0x1 PUSH1 0x1 PUSH1 0xA0 SHL SUB AND DUP2 MSTORE PUSH1 0x20 ADD SWAP1 DUP2 MSTORE PUSH1 0x20 ADD PUSH1 0x0 KECCAK256 PUSH1 0x0 DUP3 ADD MLOAD DUP2 PUSH1 0x0 ADD PUSH1 0x0 PUSH2 0x100 EXP DUP2 SLOAD DUP2 PUSH1 0xFF MUL NOT AND SWAP1 DUP4 ISZERO ISZERO MUL OR SWAP1 SSTORE POP PUSH1 0x20 DUP3 ADD MLOAD DUP2 PUSH1 0x0 ADD PUSH1 0x1 PUSH2 0x100 EXP DUP2 SLOAD DUP2 PUSH1 0xFF MUL NOT AND SWAP1 DUP4 ISZERO ISZERO MUL OR SWAP1 SSTORE POP PUSH1 0x40 DUP3 ADD MLOAD DUP2 PUSH1 0x0 ADD PUSH1 0x2 PUSH2 0x100 EXP DUP2 SLOAD DUP2 PUSH1 0xFF MUL NOT AND SWAP1 DUP4 ISZERO ISZERO MUL OR SWAP1 SSTORE POP PUSH1 0x60 DUP3 ADD MLOAD DUP2 PUSH1 0x0 ADD PUSH1 0x3 PUSH2 0x100 EXP DUP2 SLOAD DUP2 PUSH1 0xFF MUL NOT AND SWAP1 DUP4 ISZERO ISZERO MUL OR SWAP1 SSTORE POP PUSH1 0x80 DUP3 ADD MLOAD DUP2 PUSH1 0x0 ADD PUSH1 0x4 PUSH2 0x100 EXP DUP2 SLOAD DUP2 PUSH1 0xFF MUL NOT AND SWAP1 DUP4 ISZERO ISZERO MUL OR SWAP1 SSTORE POP PUSH1 0xA0 DUP3 ADD MLOAD DUP2 PUSH1 0x0 ADD PUSH1 0x5 PUSH2 0x100 EXP DUP2 SLOAD DUP2 PUSH1 0xFF MUL NOT AND SWAP1 DUP4 ISZERO ISZERO MUL OR SWAP1 SSTORE POP PUSH1 0xC0 DUP3 ADD MLOAD DUP2 PUSH1 0x0 ADD PUSH1 0x6 PUSH2 0x100 EXP DUP2 SLOAD DUP2 PUSH1 0xFF MUL NOT AND SWAP1 DUP4 ISZERO ISZERO MUL OR SWAP1 SSTORE POP PUSH1 0xE0 DUP3 ADD MLOAD DUP2 PUSH1 0x1 ADD SWAP1 DUP2 PUSH2 0x152C SWAP2 SWAP1 PUSH2 0x3B85 JUMP JUMPDEST POP PUSH2 0x100 DUP3 ADD MLOAD PUSH1 0x2 DUP3 ADD SSTORE PUSH2 0x120 DUP3 ADD MLOAD PUSH1 0x3 DUP3 ADD SWAP1 PUSH2 0x154D SWAP1 DUP3 PUSH2 0x3B85 JUMP JUMPDEST POP PUSH2 0x140 DUP3 ADD MLOAD PUSH1 0x4 DUP3 ADD DUP1 SLOAD PUSH1 0x1 PUSH1 0x1 PUSH1 0xA0 SHL SUB NOT SWAP1 DUP2 AND PUSH1 0x1 PUSH1 0x1 PUSH1 0xA0 SHL SUB SWAP4 DUP5 AND OR SWAP1 SWAP2 SSTORE PUSH2 0x160 DUP5 ADD MLOAD PUSH1 0x5 DUP5 ADD SSTORE PUSH2 0x180 DUP5 ADD MLOAD PUSH1 0x6 DUP5 ADD SSTORE PUSH2 0x1A0 SWAP1 SWAP4 ADD MLOAD PUSH1 0x7 SWAP1 SWAP3 ADD SWAP2 SWAP1 SWAP2 SSTORE PUSH1 0xA DUP1 SLOAD PUSH1 0x1 DUP2 ADD DUP3 SSTORE PUSH1 0x0 SWAP2 SWAP1 SWAP2 MSTORE PUSH32 0xC65A7BB8D6351C1CF70C95A316CC6A92839C986682D98BC35F958F4883F9D2A8 ADD DUP1 SLOAD SWAP1 SWAP3 AND SWAP1 DUP10 AND OR SWAP1 SSTORE JUMPDEST POP POP POP POP POP POP POP JUMP JUMPDEST PUSH1 0x1 PUSH1 0x1 PUSH1 0xA0 SHL SUB DUP2 AND PUSH1 0x0 SWAP1 DUP2 MSTORE PUSH1 0x9 PUSH1 0x20 MSTORE PUSH1 0x40 DUP2 KECCAK256 SLOAD DUP2 SWAP1 PUSH1 0xFF AND PUSH2 0x164C JUMPI PUSH1 0x40 MLOAD PUSH3 0x461BCD PUSH1 0xE5 SHL DUP2 MSTORE PUSH1 0x20 PUSH1 0x4 DUP3 ADD MSTORE PUSH1 0x18 PUSH1 0x24 DUP3 ADD MSTORE PUSH32 0x506C61796572206973206E6F7420726567697374657265640000000000000000 PUSH1 0x44 DUP3 ADD MSTORE PUSH1 0x64 ADD PUSH2 0x76B JUMP JUMPDEST POP POP PUSH1 0x1 PUSH1 0x1 PUSH1 0xA0 SHL SUB AND PUSH1 0x0 SWAP1 DUP2 MSTORE PUSH1 0x9 PUSH1 0x20 MSTORE PUSH1 0x40 SWAP1 KECCAK256 PUSH1 0x5 DUP2 ADD SLOAD PUSH1 0x6 SWAP1 SWAP2 ADD SLOAD SWAP1 SWAP2 JUMP JUMPDEST PUSH1 0xB SLOAD PUSH1 0x60 SWAP1 PUSH1 0x1 PUSH1 0x1 PUSH1 0xA0 SHL SUB AND CALLER EQ PUSH2 0x16EF JUMPI PUSH1 0x40 MLOAD PUSH3 0x461BCD PUSH1 0xE5 SHL DUP2 MSTORE PUSH1 0x20 PUSH1 0x4 DUP3 ADD MSTORE PUSH1 0x35 PUSH1 0x24 DUP3 ADD MSTORE PUSH32 0x4F6E6C79207468652067616D652076616C696461746F7220636F6E7472616374 PUSH1 0x44 DUP3 ADD MSTORE PUSH21 0x818D85B881858D8D95CDCC81D1A1A5CC81B1A5CDD PUSH1 0x5A SHL PUSH1 0x64 DUP3 ADD MSTORE PUSH1 0x84 ADD PUSH2 0x76B JUMP JUMPDEST PUSH1 0x0 DUP3 MLOAD PUSH8 0xFFFFFFFFFFFFFFFF DUP2 GT ISZERO PUSH2 0x170B JUMPI PUSH2 0x170B PUSH2 0x33E0 JUMP JUMPDEST PUSH1 0x40 MLOAD SWAP1 DUP1 DUP3 MSTORE DUP1 PUSH1 0x20 MUL PUSH1 0x20 ADD DUP3 ADD PUSH1 0x40 MSTORE DUP1 ISZERO PUSH2 0x1734 JUMPI DUP2 PUSH1 0x20 ADD PUSH1 0x20 DUP3 MUL DUP1 CALLDATASIZE DUP4 CALLDATACOPY ADD SWAP1 POP JUMPDEST POP SWAP1 POP PUSH1 0x0 JUMPDEST DUP4 MLOAD DUP2 LT ISZERO PUSH2 0x1BC1 JUMPI PUSH1 0x0 JUMPDEST PUSH1 0xA SLOAD DUP2 LT ISZERO PUSH2 0x1BAE JUMPI DUP5 DUP3 DUP2 MLOAD DUP2 LT PUSH2 0x1762 JUMPI PUSH2 0x1762 PUSH2 0x39F6 JUMP JUMPDEST PUSH1 0x20 MUL PUSH1 0x20 ADD ADD MLOAD PUSH1 0x40 MLOAD PUSH1 0x20 ADD PUSH2 0x177A SWAP2 SWAP1 PUSH2 0x3C45 JUMP JUMPDEST PUSH1 0x40 MLOAD PUSH1 0x20 DUP2 DUP4 SUB SUB DUP2 MSTORE SWAP1 PUSH1 0x40 MSTORE DUP1 MLOAD SWAP1 PUSH1 0x20 ADD KECCAK256 PUSH1 0x9 PUSH1 0x0 PUSH1 0xA DUP5 DUP2 SLOAD DUP2 LT PUSH2 0x17A7 JUMPI PUSH2 0x17A7 PUSH2 0x39F6 JUMP JUMPDEST PUSH1 0x0 SWAP2 DUP3 MSTORE PUSH1 0x20 DUP1 DUP4 KECCAK256 SWAP1 SWAP2 ADD SLOAD PUSH1 0x1 PUSH1 0x1 PUSH1 0xA0 SHL SUB AND DUP4 MSTORE DUP3 DUP2 ADD SWAP4 SWAP1 SWAP4 MSTORE PUSH1 0x40 SWAP2 DUP3 ADD SWAP1 KECCAK256 SWAP1 MLOAD PUSH2 0x17E1 SWAP3 PUSH1 0x1 SWAP3 SWAP1 SWAP3 ADD SWAP2 ADD PUSH2 0x3C61 JUMP JUMPDEST PUSH1 0x40 MLOAD PUSH1 0x20 DUP2 DUP4 SUB SUB DUP2 MSTORE SWAP1 PUSH1 0x40 MSTORE DUP1 MLOAD SWAP1 PUSH1 0x20 ADD KECCAK256 SUB PUSH2 0x1B9C JUMPI PUSH1 0xC SLOAD PUSH1 0xA DUP1 SLOAD PUSH1 0x0 SWAP3 PUSH1 0x1 PUSH1 0x1 PUSH1 0xA0 SHL SUB AND SWAP2 PUSH4 0x5A725B07 SWAP2 PUSH1 0x7 SWAP2 SWAP1 DUP7 SWAP1 DUP2 LT PUSH2 0x182A JUMPI PUSH2 0x182A PUSH2 0x39F6 JUMP JUMPDEST PUSH1 0x0 SWAP2 DUP3 MSTORE PUSH1 0x20 SWAP1 SWAP2 KECCAK256 ADD SLOAD PUSH1 0x40 MLOAD PUSH1 0x1 PUSH1 0x1 PUSH1 0xE0 SHL SUB NOT PUSH1 0xE0 DUP6 SWAP1 SHL AND DUP2 MSTORE PUSH2 0x1861 SWAP3 SWAP2 PUSH1 0x1 PUSH1 0x1 PUSH1 0xA0 SHL SUB AND SWAP1 PUSH1 0x4 ADD PUSH2 0x3D54 JUMP JUMPDEST PUSH1 0x20 PUSH1 0x40 MLOAD DUP1 DUP4 SUB DUP2 DUP7 GAS STATICCALL ISZERO DUP1 ISZERO PUSH2 0x187E JUMPI RETURNDATASIZE PUSH1 0x0 DUP1 RETURNDATACOPY RETURNDATASIZE PUSH1 0x0 REVERT JUMPDEST POP POP POP POP PUSH1 0x40 MLOAD RETURNDATASIZE PUSH1 0x1F NOT PUSH1 0x1F DUP3 ADD AND DUP3 ADD DUP1 PUSH1 0x40 MSTORE POP DUP2 ADD SWAP1 PUSH2 0x18A2 SWAP2 SWAP1 PUSH2 0x3D7E JUMP JUMPDEST SWAP1 POP DUP1 PUSH1 0xFF AND PUSH1 0x2 SUB PUSH2 0x1AF5 JUMPI PUSH1 0x9 PUSH1 0x0 PUSH1 0xA DUP5 DUP2 SLOAD DUP2 LT PUSH2 0x18C6 JUMPI PUSH2 0x18C6 PUSH2 0x39F6 JUMP JUMPDEST PUSH1 0x0 SWAP2 DUP3 MSTORE PUSH1 0x20 DUP1 DUP4 KECCAK256 SWAP1 SWAP2 ADD SLOAD PUSH1 0x1 PUSH1 0x1 PUSH1 0xA0 SHL SUB SWAP1 DUP2 AND DUP5 MSTORE SWAP1 DUP4 ADD SWAP4 SWAP1 SWAP4 MSTORE PUSH1 0x40 SWAP1 SWAP2 ADD SWAP1 KECCAK256 PUSH1 0x4 ADD SLOAD DUP6 MLOAD SWAP2 AND SWAP1 DUP6 SWAP1 DUP6 SWAP1 DUP2 LT PUSH2 0x190A JUMPI PUSH2 0x190A PUSH2 0x39F6 JUMP JUMPDEST PUSH1 0x20 MUL PUSH1 0x20 ADD ADD SWAP1 PUSH1 0x1 PUSH1 0x1 PUSH1 0xA0 SHL SUB AND SWAP1 DUP2 PUSH1 0x1 PUSH1 0x1 PUSH1 0xA0 SHL SUB AND DUP2 MSTORE POP POP PUSH1 0x0 PUSH1 0x3C PUSH1 0x9 PUSH1 0x0 PUSH1 0xA DUP7 DUP2 SLOAD DUP2 LT PUSH2 0x1945 JUMPI PUSH2 0x1945 PUSH2 0x39F6 JUMP JUMPDEST PUSH1 0x0 SWAP2 DUP3 MSTORE PUSH1 0x20 DUP1 DUP4 KECCAK256 SWAP1 SWAP2 ADD SLOAD PUSH1 0x1 PUSH1 0x1 PUSH1 0xA0 SHL SUB AND DUP4 MSTORE DUP3 ADD SWAP3 SWAP1 SWAP3 MSTORE PUSH1 0x40 ADD SWAP1 KECCAK256 PUSH1 0x7 ADD SLOAD PUSH2 0x1977 SWAP1 TIMESTAMP PUSH2 0x3A22 JUMP JUMPDEST PUSH2 0x1981 SWAP2 SWAP1 PUSH2 0x3DA1 JUMP JUMPDEST PUSH1 0xC SLOAD PUSH1 0xA DUP1 SLOAD SWAP3 SWAP4 POP PUSH1 0x1 PUSH1 0x1 PUSH1 0xA0 SHL SUB SWAP1 SWAP2 AND SWAP2 PUSH4 0xD47B2E99 SWAP2 SWAP1 DUP7 SWAP1 DUP2 LT PUSH2 0x19AE JUMPI PUSH2 0x19AE PUSH2 0x39F6 JUMP JUMPDEST PUSH1 0x0 SWAP2 DUP3 MSTORE PUSH1 0x20 SWAP1 SWAP2 KECCAK256 ADD SLOAD PUSH1 0x40 MLOAD PUSH1 0xE0 DUP4 SWAP1 SHL PUSH1 0x1 PUSH1 0x1 PUSH1 0xE0 SHL SUB NOT AND DUP2 MSTORE PUSH1 0x1 PUSH1 0x1 PUSH1 0xA0 SHL SUB SWAP1 SWAP2 AND PUSH1 0x4 DUP3 ADD MSTORE PUSH1 0x24 DUP2 ADD DUP5 SWAP1 MSTORE PUSH1 0x44 ADD PUSH1 0x0 PUSH1 0x40 MLOAD DUP1 DUP4 SUB DUP2 PUSH1 0x0 DUP8 DUP1 EXTCODESIZE ISZERO DUP1 ISZERO PUSH2 0x1A02 JUMPI PUSH1 0x0 DUP1 REVERT JUMPDEST POP GAS CALL ISZERO DUP1 ISZERO PUSH2 0x1A16 JUMPI RETURNDATASIZE PUSH1 0x0 DUP1 RETURNDATACOPY RETURNDATASIZE PUSH1 0x0 REVERT JUMPDEST POP POP PUSH1 0xC SLOAD PUSH1 0xA DUP1 SLOAD PUSH1 0x1 PUSH1 0x1 PUSH1 0xA0 SHL SUB SWAP1 SWAP3 AND SWAP4 POP PUSH4 0x2EB4B54F SWAP3 POP SWAP1 DUP7 SWAP1 DUP2 LT PUSH2 0x1A44 JUMPI PUSH2 0x1A44 PUSH2 0x39F6 JUMP JUMPDEST PUSH1 0x0 SWAP2 DUP3 MSTORE PUSH1 0x20 SWAP1 SWAP2 KECCAK256 ADD SLOAD PUSH1 0x40 MLOAD PUSH1 0x1 PUSH1 0x1 PUSH1 0xE0 SHL SUB NOT PUSH1 0xE0 DUP5 SWAP1 SHL AND DUP2 MSTORE PUSH2 0x1A7D SWAP2 PUSH1 0x1 PUSH1 0x1 PUSH1 0xA0 SHL SUB AND SWAP1 PUSH1 0x7 SWAP1 PUSH1 0x4 ADD PUSH2 0x3DC3 JUMP JUMPDEST PUSH1 0x0 PUSH1 0x40 MLOAD DUP1 DUP4 SUB DUP2 PUSH1 0x0 DUP8 DUP1 EXTCODESIZE ISZERO DUP1 ISZERO PUSH2 0x1A97 JUMPI PUSH1 0x0 DUP1 REVERT JUMPDEST POP GAS CALL ISZERO DUP1 ISZERO PUSH2 0x1AAB JUMPI RETURNDATASIZE PUSH1 0x0 DUP1 RETURNDATACOPY RETURNDATASIZE PUSH1 0x0 REVERT JUMPDEST POP POP POP POP TIMESTAMP PUSH1 0x9 PUSH1 0x0 PUSH1 0xA DUP7 DUP2 SLOAD DUP2 LT PUSH2 0x1AC7 JUMPI PUSH2 0x1AC7 PUSH2 0x39F6 JUMP JUMPDEST PUSH1 0x0 SWAP2 DUP3 MSTORE PUSH1 0x20 DUP1 DUP4 KECCAK256 SWAP1 SWAP2 ADD SLOAD PUSH1 0x1 PUSH1 0x1 PUSH1 0xA0 SHL SUB AND DUP4 MSTORE DUP3 ADD SWAP3 SWAP1 SWAP3 MSTORE PUSH1 0x40 ADD SWAP1 KECCAK256 PUSH1 0x7 ADD SSTORE POP PUSH2 0x1B96 JUMP JUMPDEST DUP1 PUSH1 0xFF AND PUSH1 0x0 SUB PUSH2 0x1B96 JUMPI PUSH1 0xC SLOAD PUSH1 0xA DUP1 SLOAD PUSH1 0x1 PUSH1 0x1 PUSH1 0xA0 SHL SUB SWAP1 SWAP3 AND SWAP2 PUSH4 0x2EB4B54F SWAP2 SWAP1 DUP6 SWAP1 DUP2 LT PUSH2 0x1B2A JUMPI PUSH2 0x1B2A PUSH2 0x39F6 JUMP JUMPDEST PUSH1 0x0 SWAP2 DUP3 MSTORE PUSH1 0x20 SWAP1 SWAP2 KECCAK256 ADD SLOAD PUSH1 0x40 MLOAD PUSH1 0x1 PUSH1 0x1 PUSH1 0xE0 SHL SUB NOT PUSH1 0xE0 DUP5 SWAP1 SHL AND DUP2 MSTORE PUSH2 0x1B63 SWAP2 PUSH1 0x1 PUSH1 0x1 PUSH1 0xA0 SHL SUB AND SWAP1 PUSH1 0x7 SWAP1 PUSH1 0x4 ADD PUSH2 0x3DC3 JUMP JUMPDEST PUSH1 0x0 PUSH1 0x40 MLOAD DUP1 DUP4 SUB DUP2 PUSH1 0x0 DUP8 DUP1 EXTCODESIZE ISZERO DUP1 ISZERO PUSH2 0x1B7D JUMPI PUSH1 0x0 DUP1 REVERT JUMPDEST POP GAS CALL ISZERO DUP1 ISZERO PUSH2 0x1B91 JUMPI RETURNDATASIZE PUSH1 0x0 DUP1 RETURNDATACOPY RETURNDATASIZE PUSH1 0x0 REVERT JUMPDEST POP POP POP POP JUMPDEST POP PUSH2 0x1BAE JUMP JUMPDEST DUP1 PUSH2 0x1BA6 DUP2 PUSH2 0x3A4B JUMP JUMPDEST SWAP2 POP POP PUSH2 0x1746 JUMP JUMPDEST POP DUP1 PUSH2 0x1BB9 DUP2 PUSH2 0x3A4B JUMP JUMPDEST SWAP2 POP POP PUSH2 0x173A JUMP JUMPDEST POP SWAP3 SWAP2 POP POP JUMP JUMPDEST PUSH1 0xC SLOAD PUSH1 0x40 DUP1 MLOAD PUSH4 0x931742D3 PUSH1 0xE0 SHL DUP2 MSTORE SWAP1 MLOAD PUSH1 0x0 SWAP3 PUSH1 0x1 PUSH1 0x1 PUSH1 0xA0 SHL SUB AND SWAP2 PUSH4 0x931742D3 SWAP2 PUSH1 0x4 DUP1 DUP4 ADD SWAP3 PUSH1 0x20 SWAP3 SWAP2 SWAP1 DUP3 SWAP1 SUB ADD DUP2 DUP7 GAS STATICCALL ISZERO DUP1 ISZERO PUSH2 0x1C12 JUMPI RETURNDATASIZE PUSH1 0x0 DUP1 RETURNDATACOPY RETURNDATASIZE PUSH1 0x0 REVERT JUMPDEST POP POP POP POP PUSH1 0x40 MLOAD RETURNDATASIZE PUSH1 0x1F NOT PUSH1 0x1F DUP3 ADD AND DUP3 ADD DUP1 PUSH1 0x40 MSTORE POP DUP2 ADD SWAP1 PUSH2 0x1C36 SWAP2 SWAP1 PUSH2 0x3DE7 JUMP JUMPDEST SWAP1 POP SWAP1 JUMP JUMPDEST PUSH1 0x60 PUSH1 0x8 DUP1 SLOAD DUP1 PUSH1 0x20 MUL PUSH1 0x20 ADD PUSH1 0x40 MLOAD SWAP1 DUP2 ADD PUSH1 0x40 MSTORE DUP1 SWAP3 SWAP2 SWAP1 DUP2 DUP2 MSTORE PUSH1 0x20 ADD PUSH1 0x0 SWAP1 JUMPDEST DUP3 DUP3 LT ISZERO PUSH2 0x1D0B JUMPI DUP4 DUP3 SWAP1 PUSH1 0x0 MSTORE PUSH1 0x20 PUSH1 0x0 KECCAK256 ADD DUP1 SLOAD PUSH2 0x1C7E SWAP1 PUSH2 0x3B02 JUMP JUMPDEST DUP1 PUSH1 0x1F ADD PUSH1 0x20 DUP1 SWAP2 DIV MUL PUSH1 0x20 ADD PUSH1 0x40 MLOAD SWAP1 DUP2 ADD PUSH1 0x40 MSTORE DUP1 SWAP3 SWAP2 SWAP1 DUP2 DUP2 MSTORE PUSH1 0x20 ADD DUP3 DUP1 SLOAD PUSH2 0x1CAA SWAP1 PUSH2 0x3B02 JUMP JUMPDEST DUP1 ISZERO PUSH2 0x1CF7 JUMPI DUP1 PUSH1 0x1F LT PUSH2 0x1CCC JUMPI PUSH2 0x100 DUP1 DUP4 SLOAD DIV MUL DUP4 MSTORE SWAP2 PUSH1 0x20 ADD SWAP2 PUSH2 0x1CF7 JUMP JUMPDEST DUP3 ADD SWAP2 SWAP1 PUSH1 0x0 MSTORE PUSH1 0x20 PUSH1 0x0 KECCAK256 SWAP1 JUMPDEST DUP2 SLOAD DUP2 MSTORE SWAP1 PUSH1 0x1 ADD SWAP1 PUSH1 0x20 ADD DUP1 DUP4 GT PUSH2 0x1CDA JUMPI DUP3 SWAP1 SUB PUSH1 0x1F AND DUP3 ADD SWAP2 JUMPDEST POP POP POP POP POP DUP2 MSTORE PUSH1 0x20 ADD SWAP1 PUSH1 0x1 ADD SWAP1 PUSH2 0x1C5F JUMP JUMPDEST POP POP POP POP SWAP1 POP SWAP1 JUMP JUMPDEST PUSH1 0x9 PUSH1 0x20 MSTORE PUSH1 0x0 SWAP1 DUP2 MSTORE PUSH1 0x40 SWAP1 KECCAK256 DUP1 SLOAD PUSH1 0x1 DUP3 ADD DUP1 SLOAD PUSH1 0xFF DUP1 DUP5 AND SWAP5 PUSH2 0x100 DUP6 DIV DUP3 AND SWAP5 PUSH3 0x10000 DUP2 DIV DUP4 AND SWAP5 PUSH4 0x1000000 DUP3 DIV DUP5 AND SWAP5 PUSH5 0x100000000 DUP4 DIV DUP6 AND SWAP5 PUSH6 0x10000000000 DUP5 DIV DUP2 AND SWAP5 PUSH1 0x1 PUSH1 0x30 SHL SWAP1 SWAP5 DIV AND SWAP3 SWAP2 SWAP1 PUSH2 0x1D77 SWAP1 PUSH2 0x3B02 JUMP JUMPDEST DUP1 PUSH1 0x1F ADD PUSH1 0x20 DUP1 SWAP2 DIV MUL PUSH1 0x20 ADD PUSH1 0x40 MLOAD SWAP1 DUP2 ADD PUSH1 0x40 MSTORE DUP1 SWAP3 SWAP2 SWAP1 DUP2 DUP2 MSTORE PUSH1 0x20 ADD DUP3 DUP1 SLOAD PUSH2 0x1DA3 SWAP1 PUSH2 0x3B02 JUMP JUMPDEST DUP1 ISZERO PUSH2 0x1DF0 JUMPI DUP1 PUSH1 0x1F LT PUSH2 0x1DC5 JUMPI PUSH2 0x100 DUP1 DUP4 SLOAD DIV MUL DUP4 MSTORE SWAP2 PUSH1 0x20 ADD SWAP2 PUSH2 0x1DF0 JUMP JUMPDEST DUP3 ADD SWAP2 SWAP1 PUSH1 0x0 MSTORE PUSH1 0x20 PUSH1 0x0 KECCAK256 SWAP1 JUMPDEST DUP2 SLOAD DUP2 MSTORE SWAP1 PUSH1 0x1 ADD SWAP1 PUSH1 0x20 ADD DUP1 DUP4 GT PUSH2 0x1DD3 JUMPI DUP3 SWAP1 SUB PUSH1 0x1F AND DUP3 ADD SWAP2 JUMPDEST POP POP POP POP POP SWAP1 DUP1 PUSH1 0x2 ADD SLOAD SWAP1 DUP1 PUSH1 0x3 ADD DUP1 SLOAD PUSH2 0x1E0B SWAP1 PUSH2 0x3B02 JUMP JUMPDEST DUP1 PUSH1 0x1F ADD PUSH1 0x20 DUP1 SWAP2 DIV MUL PUSH1 0x20 ADD PUSH1 0x40 MLOAD SWAP1 DUP2 ADD PUSH1 0x40 MSTORE DUP1 SWAP3 SWAP2 SWAP1 DUP2 DUP2 MSTORE PUSH1 0x20 ADD DUP3 DUP1 SLOAD PUSH2 0x1E37 SWAP1 PUSH2 0x3B02 JUMP JUMPDEST DUP1 ISZERO PUSH2 0x1E84 JUMPI DUP1 PUSH1 0x1F LT PUSH2 0x1E59 JUMPI PUSH2 0x100 DUP1 DUP4 SLOAD DIV MUL DUP4 MSTORE SWAP2 PUSH1 0x20 ADD SWAP2 PUSH2 0x1E84 JUMP JUMPDEST DUP3 ADD SWAP2 SWAP1 PUSH1 0x0 MSTORE PUSH1 0x20 PUSH1 0x0 KECCAK256 SWAP1 JUMPDEST DUP2 SLOAD DUP2 MSTORE SWAP1 PUSH1 0x1 ADD SWAP1 PUSH1 0x20 ADD DUP1 DUP4 GT PUSH2 0x1E67 JUMPI DUP3 SWAP1 SUB PUSH1 0x1F AND DUP3 ADD SWAP2 JUMPDEST POP POP POP POP PUSH1 0x4 DUP4 ADD SLOAD PUSH1 0x5 DUP5 ADD SLOAD PUSH1 0x6 DUP6 ADD SLOAD PUSH1 0x7 SWAP1 SWAP6 ADD SLOAD SWAP4 SWAP5 PUSH1 0x1 PUSH1 0x1 PUSH1 0xA0 SHL SUB SWAP1 SWAP3 AND SWAP4 SWAP1 SWAP3 POP DUP15 JUMP JUMPDEST PUSH1 0xC SLOAD PUSH1 0x40 DUP1 MLOAD PUSH4 0x8705D945 PUSH1 0xE0 SHL DUP2 MSTORE SWAP1 MLOAD PUSH1 0x0 SWAP3 PUSH1 0x1 PUSH1 0x1 PUSH1 0xA0 SHL SUB AND SWAP2 PUSH4 0x8705D945 SWAP2 PUSH1 0x4 DUP1 DUP4 ADD SWAP3 PUSH1 0x20 SWAP3 SWAP2 SWAP1 DUP3 SWAP1 SUB ADD DUP2 DUP7 GAS STATICCALL ISZERO DUP1 ISZERO PUSH2 0x1EFB JUMPI RETURNDATASIZE PUSH1 0x0 DUP1 RETURNDATACOPY RETURNDATASIZE PUSH1 0x0 REVERT JUMPDEST POP POP POP POP PUSH1 0x40 MLOAD RETURNDATASIZE PUSH1 0x1F NOT PUSH1 0x1F DUP3 ADD AND DUP3 ADD DUP1 PUSH1 0x40 MSTORE POP DUP2 ADD SWAP1 PUSH2 0x1C36 SWAP2 SWAP1 PUSH2 0x3E04 JUMP JUMPDEST PUSH1 0xD SLOAD PUSH1 0x1 PUSH1 0x1 PUSH1 0xA0 SHL SUB AND CALLER EQ PUSH2 0x1F80 JUMPI PUSH1 0x40 MLOAD PUSH3 0x461BCD PUSH1 0xE5 SHL DUP2 MSTORE PUSH1 0x20 PUSH1 0x4 DUP3 ADD MSTORE PUSH1 0x30 PUSH1 0x24 DUP3 ADD MSTORE PUSH1 0x0 DUP1 MLOAD PUSH1 0x20 PUSH2 0x4049 DUP4 CODECOPY DUP2 MLOAD SWAP2 MSTORE PUSH1 0x44 DUP3 ADD MSTORE PUSH16 0x6E67652041646D696E20737461747573 PUSH1 0x80 SHL PUSH1 0x64 DUP3 ADD MSTORE PUSH1 0x84 ADD PUSH2 0x76B JUMP JUMPDEST PUSH1 0x1 PUSH1 0x1 PUSH1 0xA0 SHL SUB SWAP1 SWAP2 AND PUSH1 0x0 SWAP1 DUP2 MSTORE PUSH1 0x9 PUSH1 0x20 MSTORE PUSH1 0x40 SWAP1 KECCAK256 DUP1 SLOAD SWAP2 ISZERO ISZERO PUSH5 0x100000000 MUL PUSH5 0xFF00000000 NOT SWAP1 SWAP3 AND SWAP2 SWAP1 SWAP2 OR SWAP1 SSTORE JUMP JUMPDEST PUSH1 0xA SLOAD PUSH1 0x60 SWAP1 PUSH1 0x0 SWAP1 PUSH8 0xFFFFFFFFFFFFFFFF DUP2 GT ISZERO PUSH2 0x1FD8 JUMPI PUSH2 0x1FD8 PUSH2 0x33E0 JUMP JUMPDEST PUSH1 0x40 MLOAD SWAP1 DUP1 DUP3 MSTORE DUP1 PUSH1 0x20 MUL PUSH1 0x20 ADD DUP3 ADD PUSH1 0x40 MSTORE DUP1 ISZERO PUSH2 0x200B JUMPI DUP2 PUSH1 0x20 ADD JUMPDEST PUSH1 0x60 DUP2 MSTORE PUSH1 0x20 ADD SWAP1 PUSH1 0x1 SWAP1 SUB SWAP1 DUP2 PUSH2 0x1FF6 JUMPI SWAP1 POP JUMPDEST POP SWAP1 POP PUSH1 0x0 JUMPDEST PUSH1 0xA SLOAD DUP2 LT ISZERO PUSH2 0x211A JUMPI PUSH1 0x0 PUSH1 0x9 PUSH1 0x0 PUSH1 0xA DUP5 DUP2 SLOAD DUP2 LT PUSH2 0x2034 JUMPI PUSH2 0x2034 PUSH2 0x39F6 JUMP JUMPDEST PUSH1 0x0 SWAP2 DUP3 MSTORE PUSH1 0x20 DUP1 DUP4 KECCAK256 SWAP1 SWAP2 ADD SLOAD PUSH1 0x1 PUSH1 0x1 PUSH1 0xA0 SHL SUB AND DUP4 MSTORE DUP3 ADD SWAP3 SWAP1 SWAP3 MSTORE PUSH1 0x40 ADD SWAP1 KECCAK256 PUSH1 0x1 DUP2 ADD DUP1 SLOAD SWAP2 SWAP3 POP SWAP1 PUSH2 0x206B SWAP1 PUSH2 0x3B02 JUMP JUMPDEST DUP1 PUSH1 0x1F ADD PUSH1 0x20 DUP1 SWAP2 DIV MUL PUSH1 0x20 ADD PUSH1 0x40 MLOAD SWAP1 DUP2 ADD PUSH1 0x40 MSTORE DUP1 SWAP3 SWAP2 SWAP1 DUP2 DUP2 MSTORE PUSH1 0x20 ADD DUP3 DUP1 SLOAD PUSH2 0x2097 SWAP1 PUSH2 0x3B02 JUMP JUMPDEST DUP1 ISZERO PUSH2 0x20E4 JUMPI DUP1 PUSH1 0x1F LT PUSH2 0x20B9 JUMPI PUSH2 0x100 DUP1 DUP4 SLOAD DIV MUL DUP4 MSTORE SWAP2 PUSH1 0x20 ADD SWAP2 PUSH2 0x20E4 JUMP JUMPDEST DUP3 ADD SWAP2 SWAP1 PUSH1 0x0 MSTORE PUSH1 0x20 PUSH1 0x0 KECCAK256 SWAP1 JUMPDEST DUP2 SLOAD DUP2 MSTORE SWAP1 PUSH1 0x1 ADD SWAP1 PUSH1 0x20 ADD DUP1 DUP4 GT PUSH2 0x20C7 JUMPI DUP3 SWAP1 SUB PUSH1 0x1F AND DUP3 ADD SWAP2 JUMPDEST POP POP POP POP POP DUP4 DUP4 DUP2 MLOAD DUP2 LT PUSH2 0x20FB JUMPI PUSH2 0x20FB PUSH2 0x39F6 JUMP JUMPDEST PUSH1 0x20 MUL PUSH1 0x20 ADD ADD DUP2 SWAP1 MSTORE POP POP DUP1 DUP1 PUSH2 0x2112 SWAP1 PUSH2 0x3A4B JUMP JUMPDEST SWAP2 POP POP PUSH2 0x2011 JUMP JUMPDEST POP SWAP2 SWAP1 POP JUMP JUMPDEST PUSH1 0x0 DUP4 PUSH1 0x40 MLOAD PUSH1 0x20 ADD PUSH2 0x2133 SWAP2 SWAP1 PUSH2 0x3A64 JUMP JUMPDEST PUSH1 0x40 MLOAD PUSH1 0x20 DUP2 DUP4 SUB SUB DUP2 MSTORE SWAP1 PUSH1 0x40 MSTORE DUP1 MLOAD SWAP1 PUSH1 0x20 ADD KECCAK256 SWAP1 POP PUSH1 0x0 PUSH1 0xF PUSH1 0x0 SWAP1 SLOAD SWAP1 PUSH2 0x100 EXP SWAP1 DIV PUSH1 0x1 PUSH1 0x1 PUSH1 0xA0 SHL SUB AND PUSH1 0x1 PUSH1 0x1 PUSH1 0xA0 SHL SUB AND PUSH4 0x333F6111 DUP7 DUP7 DUP7 DUP12 PUSH1 0x40 MLOAD PUSH1 0x20 ADD PUSH2 0x2185 SWAP2 SWAP1 PUSH2 0x3C45 JUMP JUMPDEST PUSH1 0x40 MLOAD PUSH1 0x20 DUP2 DUP4 SUB SUB DUP2 MSTORE SWAP1 PUSH1 0x40 MSTORE PUSH1 0x40 MLOAD DUP6 PUSH4 0xFFFFFFFF AND PUSH1 0xE0 SHL DUP2 MSTORE PUSH1 0x4 ADD PUSH2 0x21B3 SWAP5 SWAP4 SWAP3 SWAP2 SWAP1 PUSH2 0x38F8 JUMP JUMPDEST PUSH1 0x20 PUSH1 0x40 MLOAD DUP1 DUP4 SUB DUP2 PUSH1 0x0 DUP8 GAS CALL ISZERO DUP1 ISZERO PUSH2 0x21D2 JUMPI RETURNDATASIZE PUSH1 0x0 DUP1 RETURNDATACOPY RETURNDATASIZE PUSH1 0x0 REVERT JUMPDEST POP POP POP POP PUSH1 0x40 MLOAD RETURNDATASIZE PUSH1 0x1F NOT PUSH1 0x1F DUP3 ADD AND DUP3 ADD DUP1 PUSH1 0x40 MSTORE POP DUP2 ADD SWAP1 PUSH2 0x21F6 SWAP2 SWAP1 PUSH2 0x39D9 JUMP JUMPDEST SWAP1 POP DUP1 PUSH2 0x2253 JUMPI PUSH1 0x0 DUP1 MLOAD PUSH1 0x20 PUSH2 0x4069 DUP4 CODECOPY DUP2 MLOAD SWAP2 MSTORE PUSH1 0x0 PUSH1 0x40 MLOAD PUSH2 0x224A SWAP2 ISZERO ISZERO DUP2 MSTORE PUSH1 0x40 PUSH1 0x20 DUP3 ADD DUP2 SWAP1 MSTORE PUSH1 0x13 SWAP1 DUP3 ADD MSTORE PUSH19 0x4661696C6564206F7261636C6520636865636B PUSH1 0x68 SHL PUSH1 0x60 DUP3 ADD MSTORE PUSH1 0x80 ADD SWAP1 JUMP JUMPDEST PUSH1 0x40 MLOAD DUP1 SWAP2 SUB SWAP1 LOG1 JUMPDEST PUSH1 0xF SLOAD PUSH1 0x40 MLOAD PUSH4 0xB9D57C5F PUSH1 0xE0 SHL DUP2 MSTORE PUSH1 0x4 DUP2 ADD DUP5 SWAP1 MSTORE PUSH1 0x0 SWAP2 PUSH1 0x1 PUSH1 0x1 PUSH1 0xA0 SHL SUB AND SWAP1 PUSH4 0xB9D57C5F SWAP1 PUSH1 0x24 ADD PUSH1 0x60 PUSH1 0x40 MLOAD DUP1 DUP4 SUB DUP2 DUP7 GAS STATICCALL ISZERO DUP1 ISZERO PUSH2 0x229D JUMPI RETURNDATASIZE PUSH1 0x0 DUP1 RETURNDATACOPY RETURNDATASIZE PUSH1 0x0 REVERT JUMPDEST POP POP POP POP PUSH1 0x40 MLOAD RETURNDATASIZE PUSH1 0x1F NOT PUSH1 0x1F DUP3 ADD AND DUP3 ADD DUP1 PUSH1 0x40 MSTORE POP DUP2 ADD SWAP1 PUSH2 0x22C1 SWAP2 SWAP1 PUSH2 0x3E1D JUMP JUMPDEST SWAP3 POP POP POP PUSH1 0x0 DUP1 PUSH2 0x22D1 CALLER PUSH2 0x15E2 JUMP JUMPDEST PUSH1 0x40 DUP1 MLOAD DUP4 DUP2 MSTORE PUSH1 0x20 DUP2 ADD DUP4 SWAP1 MSTORE SWAP1 DUP2 ADD DUP7 SWAP1 MSTORE SWAP2 SWAP4 POP SWAP2 POP CALLER SWAP1 PUSH32 0xFF3FD26BE599C7A3B223A0DC1B0751612C06F97F9438109A6B7AACF14E2C63AA SWAP1 PUSH1 0x60 ADD PUSH1 0x40 MLOAD DUP1 SWAP2 SUB SWAP1 LOG2 DUP2 DUP4 EQ ISZERO DUP1 ISZERO PUSH2 0x2329 JUMPI POP DUP1 DUP4 EQ ISZERO JUMPDEST ISZERO PUSH2 0x239F JUMPI PUSH1 0x0 DUP1 MLOAD PUSH1 0x20 PUSH2 0x4069 DUP4 CODECOPY DUP2 MLOAD SWAP2 MSTORE PUSH1 0x0 PUSH1 0x40 MLOAD PUSH2 0x2396 SWAP2 ISZERO ISZERO DUP2 MSTORE PUSH1 0x40 PUSH1 0x20 DUP3 ADD DUP2 SWAP1 MSTORE PUSH1 0x28 SWAP1 DUP3 ADD MSTORE PUSH32 0x43616C6C65722773206F7261636C65206B657920696E64657820646F6573206E PUSH1 0x60 DUP3 ADD MSTORE PUSH8 0xDEE840DAC2E8C6D PUSH1 0xC3 SHL PUSH1 0x80 DUP3 ADD MSTORE PUSH1 0xA0 ADD SWAP1 JUMP JUMPDEST PUSH1 0x40 MLOAD DUP1 SWAP2 SUB SWAP1 LOG1 JUMPDEST CALLER PUSH1 0x0 SWAP1 DUP2 MSTORE PUSH1 0x9 PUSH1 0x20 MSTORE PUSH1 0x40 SWAP1 KECCAK256 SLOAD PUSH5 0x100000000 SWAP1 DIV PUSH1 0xFF AND PUSH2 0x23E5 JUMPI PUSH1 0x0 DUP1 MLOAD PUSH1 0x20 PUSH2 0x4069 DUP4 CODECOPY DUP2 MLOAD SWAP2 MSTORE PUSH1 0x0 PUSH1 0x40 MLOAD PUSH2 0x23DC SWAP2 SWAP1 PUSH2 0x3E58 JUMP JUMPDEST PUSH1 0x40 MLOAD DUP1 SWAP2 SUB SWAP1 LOG1 JUMPDEST PUSH1 0x0 DUP11 PUSH1 0x40 MLOAD PUSH1 0x20 ADD PUSH2 0x23F8 SWAP2 SWAP1 PUSH2 0x3C45 JUMP JUMPDEST PUSH1 0x40 MLOAD PUSH1 0x20 DUP2 DUP4 SUB SUB DUP2 MSTORE SWAP1 PUSH1 0x40 MSTORE SWAP1 POP PUSH32 0x601AD29AC23D5A9ABD818D1D8E0DAD199B65AE0C48DFB2B5E4989A558996526C DUP12 DUP3 PUSH1 0x40 MLOAD PUSH2 0x243A SWAP3 SWAP2 SWAP1 PUSH2 0x3E9D JUMP JUMPDEST PUSH1 0x40 MLOAD DUP1 SWAP2 SUB SWAP1 LOG1 DUP10 ISZERO PUSH2 0x251E JUMPI PUSH1 0x0 DUP12 PUSH1 0x40 MLOAD PUSH2 0x2458 SWAP2 SWAP1 PUSH2 0x3C45 JUMP JUMPDEST SWAP1 DUP2 MSTORE PUSH1 0x40 MLOAD SWAP1 DUP2 SWAP1 SUB PUSH1 0x20 ADD SWAP1 KECCAK256 SLOAD PUSH1 0xFF AND PUSH2 0x2519 JUMPI PUSH1 0x1 PUSH1 0x0 DUP13 PUSH1 0x40 MLOAD PUSH2 0x2481 SWAP2 SWAP1 PUSH2 0x3C45 JUMP JUMPDEST SWAP1 DUP2 MSTORE PUSH1 0x40 MLOAD SWAP1 DUP2 SWAP1 SUB PUSH1 0x20 ADD SWAP1 KECCAK256 DUP1 SLOAD SWAP2 ISZERO ISZERO PUSH1 0xFF NOT SWAP1 SWAP3 AND SWAP2 SWAP1 SWAP2 OR SWAP1 SSTORE PUSH1 0x8 DUP1 SLOAD PUSH1 0x1 DUP2 ADD DUP3 SSTORE PUSH1 0x0 SWAP2 SWAP1 SWAP2 MSTORE PUSH32 0xF3F7A9FE364FAAB93B216DA50A3214154F22A0A2B415B23A84C8169E8B636EE3 ADD PUSH2 0x24DD DUP13 DUP3 PUSH2 0x3B85 JUMP JUMPDEST POP PUSH32 0x88CA7D5CEAF520D74404B5FEAC3621664607A5FF216EDCC1520638EAFCE56D23 DUP12 PUSH1 0x1 PUSH1 0x40 MLOAD PUSH2 0x2510 SWAP3 SWAP2 SWAP1 PUSH2 0x3ECB JUMP JUMPDEST PUSH1 0x40 MLOAD DUP1 SWAP2 SUB SWAP1 LOG1 JUMPDEST PUSH2 0x25BB JUMP JUMPDEST PUSH1 0x0 DUP12 PUSH1 0x40 MLOAD PUSH2 0x252E SWAP2 SWAP1 PUSH2 0x3C45 JUMP JUMPDEST SWAP1 DUP2 MSTORE PUSH1 0x40 MLOAD SWAP1 DUP2 SWAP1 SUB PUSH1 0x20 ADD SWAP1 KECCAK256 SLOAD PUSH1 0xFF AND ISZERO PUSH2 0x25BB JUMPI PUSH1 0x0 DUP1 DUP13 PUSH1 0x40 MLOAD PUSH2 0x2557 SWAP2 SWAP1 PUSH2 0x3C45 JUMP JUMPDEST SWAP1 DUP2 MSTORE PUSH1 0x40 MLOAD SWAP1 DUP2 SWAP1 SUB PUSH1 0x20 ADD SWAP1 KECCAK256 DUP1 SLOAD SWAP2 ISZERO ISZERO PUSH1 0xFF NOT SWAP1 SWAP3 AND SWAP2 SWAP1 SWAP2 OR SWAP1 SSTORE PUSH2 0x2580 DUP12 PUSH2 0x30AF JUMP JUMPDEST PUSH32 0x88CA7D5CEAF520D74404B5FEAC3621664607A5FF216EDCC1520638EAFCE56D23 DUP12 PUSH1 0x0 PUSH1 0x40 MLOAD PUSH2 0x25B2 SWAP3 SWAP2 SWAP1 PUSH2 0x3ECB JUMP JUMPDEST PUSH1 0x40 MLOAD DUP1 SWAP2 SUB SWAP1 LOG1 JUMPDEST PUSH1 0x0 DUP1 MLOAD PUSH1 0x20 PUSH2 0x4069 DUP4 CODECOPY DUP2 MLOAD SWAP2 MSTORE PUSH1 0x1 PUSH1 0x40 MLOAD PUSH2 0x2611 SWAP2 ISZERO ISZERO DUP2 MSTORE PUSH1 0x40 PUSH1 0x20 DUP1 DUP4 ADD DUP3 SWAP1 MSTORE SWAP1 DUP3 ADD MSTORE PUSH32 0x4F7065726174696F6E20636F6D706C657465642077697468206C6F6767696E67 PUSH1 0x60 DUP3 ADD MSTORE PUSH1 0x80 ADD SWAP1 JUMP JUMPDEST PUSH1 0x40 MLOAD DUP1 SWAP2 SUB SWAP1 LOG1 POP POP POP POP POP POP POP POP POP POP POP JUMP JUMPDEST PUSH1 0xD SLOAD PUSH1 0x1 PUSH1 0x1 PUSH1 0xA0 SHL SUB AND CALLER EQ PUSH2 0x2694 JUMPI PUSH1 0x40 MLOAD PUSH3 0x461BCD PUSH1 0xE5 SHL DUP2 MSTORE PUSH1 0x20 PUSH1 0x4 DUP3 ADD MSTORE PUSH1 0x3C PUSH1 0x24 DUP3 ADD MSTORE PUSH1 0x0 DUP1 MLOAD PUSH1 0x20 PUSH2 0x4049 DUP4 CODECOPY DUP2 MLOAD SWAP2 MSTORE PUSH1 0x44 DUP3 ADD MSTORE PUSH32 0x6E6765204F6E626F617264205265676973747261722053746174757300000000 PUSH1 0x64 DUP3 ADD MSTORE PUSH1 0x84 ADD PUSH2 0x76B JUMP JUMPDEST PUSH1 0x1 PUSH1 0x1 PUSH1 0xA0 SHL SUB SWAP1 SWAP2 AND PUSH1 0x0 SWAP1 DUP2 MSTORE PUSH1 0x9 PUSH1 0x20 MSTORE PUSH1 0x40 SWAP1 KECCAK256 DUP1 SLOAD SWAP2 ISZERO ISZERO PUSH1 0x1 PUSH1 0x30 SHL MUL PUSH7 0xFF000000000000 NOT SWAP1 SWAP3 AND SWAP2 SWAP1 SWAP2 OR SWAP1 SSTORE JUMP JUMPDEST PUSH1 0xD SLOAD PUSH1 0x1 PUSH1 0x1 PUSH1 0xA0 SHL SUB AND CALLER EQ PUSH2 0x273A JUMPI PUSH1 0x40 MLOAD PUSH3 0x461BCD PUSH1 0xE5 SHL DUP2 MSTORE PUSH1 0x20 PUSH1 0x4 DUP3 ADD MSTORE PUSH1 0x39 PUSH1 0x24 DUP3 ADD MSTORE PUSH1 0x0 DUP1 MLOAD PUSH1 0x20 PUSH2 0x4049 DUP4 CODECOPY DUP2 MLOAD SWAP2 MSTORE PUSH1 0x44 DUP3 ADD MSTORE PUSH32 0x6E67652047616D652056616C696461746F722073746174757300000000000000 PUSH1 0x64 DUP3 ADD MSTORE PUSH1 0x84 ADD PUSH2 0x76B JUMP JUMPDEST PUSH1 0x1 PUSH1 0x1 PUSH1 0xA0 SHL SUB SWAP1 SWAP2 AND PUSH1 0x0 SWAP1 DUP2 MSTORE PUSH1 0x9 PUSH1 0x20 MSTORE PUSH1 0x40 SWAP1 KECCAK256 DUP1 SLOAD SWAP2 ISZERO ISZERO PUSH2 0x100 MUL PUSH2 0xFF00 NOT SWAP1 SWAP3 AND SWAP2 SWAP1 SWAP2 OR SWAP1 SSTORE JUMP JUMPDEST PUSH1 0x0 DUP2 PUSH1 0x40 MLOAD PUSH1 0x20 ADD PUSH2 0x277E SWAP2 SWAP1 PUSH2 0x38B2 JUMP JUMPDEST PUSH1 0x40 DUP1 MLOAD DUP1 DUP4 SUB PUSH1 0x1F NOT ADD DUP2 MSTORE SWAP2 DUP2 MSTORE CALLER PUSH1 0x0 SWAP1 DUP2 MSTORE PUSH1 0x4 PUSH1 0x20 MSTORE KECCAK256 SLOAD SWAP1 SWAP2 POP PUSH1 0x1 PUSH1 0x1 PUSH1 0xA0 SHL SUB DUP4 DUP2 AND SWAP2 AND EQ PUSH2 0x280B JUMPI PUSH1 0x40 MLOAD PUSH3 0x461BCD PUSH1 0xE5 SHL DUP2 MSTORE PUSH1 0x20 PUSH1 0x4 DUP3 ADD MSTORE PUSH1 0x2A PUSH1 0x24 DUP3 ADD MSTORE PUSH32 0x50726F706F7365642047616D6556616C20636F6E747261637420616464726573 PUSH1 0x44 DUP3 ADD MSTORE PUSH10 0xE640DAD2E6DAC2E8C6D PUSH1 0xB3 SHL PUSH1 0x64 DUP3 ADD MSTORE PUSH1 0x84 ADD PUSH2 0x76B JUMP JUMPDEST PUSH1 0x0 DUP6 PUSH1 0x40 MLOAD PUSH1 0x20 ADD PUSH2 0x281E SWAP2 SWAP1 PUSH2 0x3A64 JUMP JUMPDEST PUSH1 0x40 MLOAD PUSH1 0x20 DUP2 DUP4 SUB SUB DUP2 MSTORE SWAP1 PUSH1 0x40 MSTORE DUP1 MLOAD SWAP1 PUSH1 0x20 ADD KECCAK256 SWAP1 POP DUP1 PUSH1 0x10 SLOAD SUB PUSH2 0x2857 JUMPI PUSH1 0x40 MLOAD PUSH3 0x461BCD PUSH1 0xE5 SHL DUP2 MSTORE PUSH1 0x4 ADD PUSH2 0x76B SWAP1 PUSH2 0x3A9B JUMP JUMPDEST PUSH1 0xF SLOAD PUSH1 0x40 MLOAD PUSH4 0x333F6111 PUSH1 0xE0 SHL DUP2 MSTORE PUSH1 0x0 SWAP2 PUSH1 0x1 PUSH1 0x1 PUSH1 0xA0 SHL SUB AND SWAP1 PUSH4 0x333F6111 SWAP1 PUSH2 0x288E SWAP1 DUP11 SWAP1 DUP11 SWAP1 DUP11 SWAP1 DUP10 SWAP1 PUSH1 0x4 ADD PUSH2 0x38F8 JUMP JUMPDEST PUSH1 0x20 PUSH1 0x40 MLOAD DUP1 DUP4 SUB DUP2 PUSH1 0x0 DUP8 GAS CALL ISZERO DUP1 ISZERO PUSH2 0x28AD JUMPI RETURNDATASIZE PUSH1 0x0 DUP1 RETURNDATACOPY RETURNDATASIZE PUSH1 0x0 REVERT JUMPDEST POP POP POP POP PUSH1 0x40 MLOAD RETURNDATASIZE PUSH1 0x1F NOT PUSH1 0x1F DUP3 ADD AND DUP3 ADD DUP1 PUSH1 0x40 MSTORE POP DUP2 ADD SWAP1 PUSH2 0x28D1 SWAP2 SWAP1 PUSH2 0x39D9 JUMP JUMPDEST SWAP1 POP DUP1 PUSH2 0x2948 JUMPI PUSH1 0x40 DUP1 MLOAD PUSH3 0x461BCD PUSH1 0xE5 SHL DUP2 MSTORE PUSH1 0x20 PUSH1 0x4 DUP3 ADD MSTORE PUSH1 0x24 DUP2 ADD SWAP2 SWAP1 SWAP2 MSTORE PUSH32 0x417574686F72697A6174696F6E206661696C6564206F6E20636F6E6669726D61 PUSH1 0x44 DUP3 ADD MSTORE PUSH32 0x74696F6E206F662047616D6556616C20636F6E74726163742061646472657373 PUSH1 0x64 DUP3 ADD MSTORE PUSH1 0x84 ADD PUSH2 0x76B JUMP JUMPDEST PUSH1 0xB DUP1 SLOAD PUSH1 0x1 PUSH1 0x1 PUSH1 0xA0 SHL SUB NOT AND PUSH1 0x1 PUSH1 0x1 PUSH1 0xA0 SHL SUB DUP7 AND SWAP1 DUP2 OR SWAP1 SWAP2 SSTORE PUSH1 0x40 MLOAD PUSH32 0x6F1895F9314E8B91A7A1C3A67319510D05C9D6729515F83CC2EACA70D3E81F87 SWAP1 PUSH1 0x0 SWAP1 LOG2 POP POP CALLER PUSH1 0x0 SWAP1 DUP2 MSTORE PUSH1 0x4 PUSH1 0x20 MSTORE PUSH1 0x40 DUP2 KECCAK256 DUP1 SLOAD PUSH1 0x1 PUSH1 0x1 PUSH1 0xA0 SHL SUB NOT AND SWAP1 SSTORE PUSH1 0x10 SSTORE POP POP POP POP POP JUMP JUMPDEST PUSH1 0x0 DUP2 PUSH1 0x40 MLOAD PUSH1 0x20 ADD PUSH2 0x29CB SWAP2 SWAP1 PUSH2 0x38B2 JUMP JUMPDEST PUSH1 0x40 DUP1 MLOAD DUP1 DUP4 SUB PUSH1 0x1F NOT ADD DUP2 MSTORE SWAP2 DUP2 MSTORE CALLER PUSH1 0x0 SWAP1 DUP2 MSTORE PUSH1 0x6 PUSH1 0x20 MSTORE KECCAK256 SLOAD SWAP1 SWAP2 POP PUSH1 0x1 PUSH1 0x1 PUSH1 0xA0 SHL SUB DUP4 DUP2 AND SWAP2 AND EQ PUSH2 0x2A54 JUMPI PUSH1 0x40 MLOAD PUSH3 0x461BCD PUSH1 0xE5 SHL DUP2 MSTORE PUSH1 0x20 PUSH1 0x4 DUP3 ADD MSTORE PUSH1 0x26 PUSH1 0x24 DUP3 ADD MSTORE PUSH32 0x466F72756D20636F6E7472616374206164647265737320757064617465206D69 PUSH1 0x44 DUP3 ADD MSTORE PUSH6 0xE6DAC2E8C6D PUSH1 0xD3 SHL PUSH1 0x64 DUP3 ADD MSTORE PUSH1 0x84 ADD PUSH2 0x76B JUMP JUMPDEST PUSH1 0x0 DUP6 PUSH1 0x40 MLOAD PUSH1 0x20 ADD PUSH2 0x2A67 SWAP2 SWAP1 PUSH2 0x3A64 JUMP JUMPDEST PUSH1 0x40 MLOAD PUSH1 0x20 DUP2 DUP4 SUB SUB DUP2 MSTORE SWAP1 PUSH1 0x40 MSTORE DUP1 MLOAD SWAP1 PUSH1 0x20 ADD KECCAK256 SWAP1 POP DUP1 PUSH1 0x10 SLOAD SUB PUSH2 0x2AA0 JUMPI PUSH1 0x40 MLOAD PUSH3 0x461BCD PUSH1 0xE5 SHL DUP2 MSTORE PUSH1 0x4 ADD PUSH2 0x76B SWAP1 PUSH2 0x3A9B JUMP JUMPDEST PUSH1 0xF SLOAD PUSH1 0x40 MLOAD PUSH4 0x333F6111 PUSH1 0xE0 SHL DUP2 MSTORE PUSH1 0x0 SWAP2 PUSH1 0x1 PUSH1 0x1 PUSH1 0xA0 SHL SUB AND SWAP1 PUSH4 0x333F6111 SWAP1 PUSH2 0x2AD7 SWAP1 DUP11 SWAP1 DUP11 SWAP1 DUP11 SWAP1 DUP10 SWAP1 PUSH1 0x4 ADD PUSH2 0x38F8 JUMP JUMPDEST PUSH1 0x20 PUSH1 0x40 MLOAD DUP1 DUP4 SUB DUP2 PUSH1 0x0 DUP8 GAS CALL ISZERO DUP1 ISZERO PUSH2 0x2AF6 JUMPI RETURNDATASIZE PUSH1 0x0 DUP1 RETURNDATACOPY RETURNDATASIZE PUSH1 0x0 REVERT JUMPDEST POP POP POP POP PUSH1 0x40 MLOAD RETURNDATASIZE PUSH1 0x1F NOT PUSH1 0x1F DUP3 ADD AND DUP3 ADD DUP1 PUSH1 0x40 MSTORE POP DUP2 ADD SWAP1 PUSH2 0x2B1A SWAP2 SWAP1 PUSH2 0x39D9 JUMP JUMPDEST SWAP1 POP DUP1 PUSH2 0x2B9D JUMPI PUSH1 0x40 MLOAD PUSH3 0x461BCD PUSH1 0xE5 SHL DUP2 MSTORE PUSH1 0x20 PUSH1 0x4 DUP3 ADD MSTORE PUSH1 0x45 PUSH1 0x24 DUP3 ADD MSTORE PUSH32 0x417574686F72697A6174696F6E206661696C6564206F6E20636F6E6669726D61 PUSH1 0x44 DUP3 ADD MSTORE PUSH32 0x74696F6E206F6620466F72756D20636F6E747261637420616464726573732075 PUSH1 0x64 DUP3 ADD MSTORE PUSH5 0x7064617465 PUSH1 0xD8 SHL PUSH1 0x84 DUP3 ADD MSTORE PUSH1 0xA4 ADD PUSH2 0x76B JUMP JUMPDEST PUSH1 0xE DUP1 SLOAD PUSH1 0x1 PUSH1 0x1 PUSH1 0xA0 SHL SUB NOT AND PUSH1 0x1 PUSH1 0x1 PUSH1 0xA0 SHL SUB DUP7 AND SWAP1 DUP2 OR SWAP1 SWAP2 SSTORE PUSH1 0x40 MLOAD PUSH32 0x78E5262E53E14D17B3058C6B8CF7CD3C2FB92A4172FA393FDDD75CB57523B1C6 SWAP1 PUSH1 0x0 SWAP1 LOG2 POP POP CALLER PUSH1 0x0 SWAP1 DUP2 MSTORE PUSH1 0x6 PUSH1 0x20 MSTORE PUSH1 0x40 DUP2 KECCAK256 DUP1 SLOAD PUSH1 0x1 PUSH1 0x1 PUSH1 0xA0 SHL SUB NOT AND SWAP1 SSTORE PUSH1 0x10 SSTORE POP POP POP POP POP JUMP JUMPDEST PUSH1 0x0 DUP2 PUSH1 0x40 MLOAD PUSH1 0x20 ADD PUSH2 0x2C20 SWAP2 SWAP1 PUSH2 0x38B2 JUMP JUMPDEST PUSH1 0x40 DUP1 MLOAD PUSH1 0x1F NOT DUP2 DUP5 SUB ADD DUP2 MSTORE SWAP1 DUP3 SWAP1 MSTORE PUSH1 0xF SLOAD PUSH4 0x333F6111 PUSH1 0xE0 SHL DUP4 MSTORE SWAP1 SWAP3 POP PUSH1 0x0 SWAP2 PUSH1 0x1 PUSH1 0x1 PUSH1 0xA0 SHL SUB SWAP1 SWAP2 AND SWAP1 PUSH4 0x333F6111 SWAP1 PUSH2 0x2C6A SWAP1 DUP10 SWAP1 DUP10 SWAP1 DUP10 SWAP1 DUP9 SWAP1 PUSH1 0x4 ADD PUSH2 0x38F8 JUMP JUMPDEST PUSH1 0x20 PUSH1 0x40 MLOAD DUP1 DUP4 SUB DUP2 PUSH1 0x0 DUP8 GAS CALL ISZERO DUP1 ISZERO PUSH2 0x2C89 JUMPI RETURNDATASIZE PUSH1 0x0 DUP1 RETURNDATACOPY RETURNDATASIZE PUSH1 0x0 REVERT JUMPDEST POP POP POP POP PUSH1 0x40 MLOAD RETURNDATASIZE PUSH1 0x1F NOT PUSH1 0x1F DUP3 ADD AND DUP3 ADD DUP1 PUSH1 0x40 MSTORE POP DUP2 ADD SWAP1 PUSH2 0x2CAD SWAP2 SWAP1 PUSH2 0x39D9 JUMP JUMPDEST SWAP1 POP DUP1 PUSH2 0x2CCC JUMPI PUSH1 0x40 MLOAD PUSH3 0x461BCD PUSH1 0xE5 SHL DUP2 MSTORE PUSH1 0x4 ADD PUSH2 0x76B SWAP1 PUSH2 0x3EEF JUMP JUMPDEST POP POP CALLER PUSH1 0x0 SWAP1 DUP2 MSTORE PUSH1 0x3 PUSH1 0x20 MSTORE PUSH1 0x40 SWAP1 KECCAK256 DUP1 SLOAD PUSH1 0x1 PUSH1 0x1 PUSH1 0xA0 SHL SUB NOT AND PUSH1 0x1 PUSH1 0x1 PUSH1 0xA0 SHL SUB SWAP3 SWAP1 SWAP3 AND SWAP2 SWAP1 SWAP2 OR SWAP1 SSTORE PUSH1 0x10 SSTORE POP POP JUMP JUMPDEST PUSH1 0x8 DUP2 DUP2 SLOAD DUP2 LT PUSH2 0x2D12 JUMPI PUSH1 0x0 DUP1 REVERT JUMPDEST SWAP1 PUSH1 0x0 MSTORE PUSH1 0x20 PUSH1 0x0 KECCAK256 ADD PUSH1 0x0 SWAP2 POP SWAP1 POP DUP1 SLOAD PUSH2 0x2D2D SWAP1 PUSH2 0x3B02 JUMP JUMPDEST DUP1 PUSH1 0x1F ADD PUSH1 0x20 DUP1 SWAP2 DIV MUL PUSH1 0x20 ADD PUSH1 0x40 MLOAD SWAP1 DUP2 ADD PUSH1 0x40 MSTORE DUP1 SWAP3 SWAP2 SWAP1 DUP2 DUP2 MSTORE PUSH1 0x20 ADD DUP3 DUP1 SLOAD PUSH2 0x2D59 SWAP1 PUSH2 0x3B02 JUMP JUMPDEST DUP1 ISZERO PUSH2 0x2DA6 JUMPI DUP1 PUSH1 0x1F LT PUSH2 0x2D7B JUMPI PUSH2 0x100 DUP1 DUP4 SLOAD DIV MUL DUP4 MSTORE SWAP2 PUSH1 0x20 ADD SWAP2 PUSH2 0x2DA6 JUMP JUMPDEST DUP3 ADD SWAP2 SWAP1 PUSH1 0x0 MSTORE PUSH1 0x20 PUSH1 0x0 KECCAK256 SWAP1 JUMPDEST DUP2 SLOAD DUP2 MSTORE SWAP1 PUSH1 0x1 ADD SWAP1 PUSH1 0x20 ADD DUP1 DUP4 GT PUSH2 0x2D89 JUMPI DUP3 SWAP1 SUB PUSH1 0x1F AND DUP3 ADD SWAP2 JUMPDEST POP POP POP POP POP DUP2 JUMP JUMPDEST PUSH1 0xE SLOAD PUSH1 0x1 PUSH1 0x1 PUSH1 0xA0 SHL SUB AND CALLER EQ PUSH2 0x2E2E JUMPI PUSH1 0x40 MLOAD PUSH3 0x461BCD PUSH1 0xE5 SHL DUP2 MSTORE PUSH1 0x20 PUSH1 0x4 DUP3 ADD MSTORE PUSH1 0x3E PUSH1 0x24 DUP3 ADD MSTORE PUSH32 0x4F6E6C792074686520666F72756D20636F6E74726163742063616E206D6F6469 PUSH1 0x44 DUP3 ADD MSTORE PUSH32 0x667920746F75726E616D656E74206D6F64657261746F72207374617475730000 PUSH1 0x64 DUP3 ADD MSTORE PUSH1 0x84 ADD PUSH2 0x76B JUMP JUMPDEST PUSH1 0x1 PUSH1 0x1 PUSH1 0xA0 SHL SUB SWAP1 SWAP2 AND PUSH1 0x0 SWAP1 DUP2 MSTORE PUSH1 0x9 PUSH1 0x20 MSTORE PUSH1 0x40 SWAP1 KECCAK256 DUP1 SLOAD SWAP2 ISZERO ISZERO PUSH4 0x1000000 MUL PUSH4 0xFF000000 NOT SWAP1 SWAP3 AND SWAP2 SWAP1 SWAP2 OR SWAP1 SSTORE JUMP JUMPDEST PUSH1 0x0 DUP2 PUSH1 0x40 MLOAD PUSH1 0x20 ADD PUSH2 0x2E76 SWAP2 SWAP1 PUSH2 0x38B2 JUMP JUMPDEST PUSH1 0x40 DUP1 MLOAD DUP1 DUP4 SUB PUSH1 0x1F NOT ADD DUP2 MSTORE SWAP2 DUP2 MSTORE CALLER PUSH1 0x0 SWAP1 DUP2 MSTORE PUSH1 0x3 PUSH1 0x20 MSTORE KECCAK256 SLOAD SWAP1 SWAP2 POP PUSH1 0x1 PUSH1 0x1 PUSH1 0xA0 SHL SUB DUP4 DUP2 AND SWAP2 AND EQ PUSH2 0x2F02 JUMPI PUSH1 0x40 MLOAD PUSH3 0x461BCD PUSH1 0xE5 SHL DUP2 MSTORE PUSH1 0x20 PUSH1 0x4 DUP3 ADD MSTORE PUSH1 0x29 PUSH1 0x24 DUP3 ADD MSTORE PUSH32 0x50726F706F73656420416E6F6E494420636F6E74726163742061646472657373 PUSH1 0x44 DUP3 ADD MSTORE PUSH9 0x40DAD2E6DAC2E8C6D PUSH1 0xBB SHL PUSH1 0x64 DUP3 ADD MSTORE PUSH1 0x84 ADD PUSH2 0x76B JUMP JUMPDEST PUSH1 0x0 DUP6 PUSH1 0x40 MLOAD PUSH1 0x20 ADD PUSH2 0x2F15 SWAP2 SWAP1 PUSH2 0x3A64 JUMP JUMPDEST PUSH1 0x40 MLOAD PUSH1 0x20 DUP2 DUP4 SUB SUB DUP2 MSTORE SWAP1 PUSH1 0x40 MSTORE DUP1 MLOAD SWAP1 PUSH1 0x20 ADD KECCAK256 SWAP1 POP DUP1 PUSH1 0x10 SLOAD SUB PUSH2 0x2FA6 JUMPI PUSH1 0x40 DUP1 MLOAD PUSH3 0x461BCD PUSH1 0xE5 SHL DUP2 MSTORE PUSH1 0x20 PUSH1 0x4 DUP3 ADD MSTORE PUSH1 0x24 DUP2 ADD SWAP2 SWAP1 SWAP2 MSTORE PUSH32 0x4C616D706F7274426173653A20504B48206D617463686573206C617374207573 PUSH1 0x44 DUP3 ADD MSTORE PUSH32 0x656420504B482028757365207365706172617465207365636F6E64206B657929 PUSH1 0x64 DUP3 ADD MSTORE PUSH1 0x84 ADD PUSH2 0x76B JUMP JUMPDEST PUSH1 0xF SLOAD PUSH1 0x40 MLOAD PUSH4 0x333F6111 PUSH1 0xE0 SHL DUP2 MSTORE PUSH1 0x0 SWAP2 PUSH1 0x1 PUSH1 0x1 PUSH1 0xA0 SHL SUB AND SWAP1 PUSH4 0x333F6111 SWAP1 PUSH2 0x2FDD SWAP1 DUP11 SWAP1 DUP11 SWAP1 DUP11 SWAP1 DUP10 SWAP1 PUSH1 0x4 ADD PUSH2 0x38F8 JUMP JUMPDEST PUSH1 0x20 PUSH1 0x40 MLOAD DUP1 DUP4 SUB DUP2 PUSH1 0x0 DUP8 GAS CALL ISZERO DUP1 ISZERO PUSH2 0x2FFC JUMPI RETURNDATASIZE PUSH1 0x0 DUP1 RETURNDATACOPY RETURNDATASIZE PUSH1 0x0 REVERT JUMPDEST POP POP POP POP PUSH1 0x40 MLOAD RETURNDATASIZE PUSH1 0x1F NOT PUSH1 0x1F DUP3 ADD AND DUP3 ADD DUP1 PUSH1 0x40 MSTORE POP DUP2 ADD SWAP1 PUSH2 0x3020 SWAP2 SWAP1 PUSH2 0x39D9 JUMP JUMPDEST SWAP1 POP DUP1 PUSH2 0x303F JUMPI PUSH1 0x40 MLOAD PUSH3 0x461BCD PUSH1 0xE5 SHL DUP2 MSTORE PUSH1 0x4 ADD PUSH2 0x76B SWAP1 PUSH2 0x3EEF JUMP JUMPDEST PUSH1 0xC DUP1 SLOAD PUSH1 0x1 PUSH1 0x1 PUSH1 0xA0 SHL SUB NOT AND PUSH1 0x1 PUSH1 0x1 PUSH1 0xA0 SHL SUB DUP7 AND SWAP1 DUP2 OR SWAP1 SWAP2 SSTORE PUSH1 0x40 MLOAD PUSH32 0xEBC4468D0C46ED1B5177ED98BDB5D4CCFC7DD4F9DA4CAA02B6FD46B1E7BE0D4E SWAP1 PUSH1 0x0 SWAP1 LOG2 POP POP CALLER PUSH1 0x0 SWAP1 DUP2 MSTORE PUSH1 0x3 PUSH1 0x20 MSTORE PUSH1 0x40 DUP2 KECCAK256 DUP1 SLOAD PUSH1 0x1 PUSH1 0x1 PUSH1 0xA0 SHL SUB NOT AND SWAP1 SSTORE PUSH1 0x10 SSTORE POP POP POP POP POP JUMP JUMPDEST CALLER PUSH1 0x0 SWAP1 DUP2 MSTORE PUSH1 0x9 PUSH1 0x20 MSTORE PUSH1 0x40 SWAP1 KECCAK256 SLOAD PUSH5 0x100000000 SWAP1 DIV PUSH1 0xFF AND PUSH2 0x30E6 JUMPI PUSH1 0x40 MLOAD PUSH3 0x461BCD PUSH1 0xE5 SHL DUP2 MSTORE PUSH1 0x4 ADD PUSH2 0x76B SWAP1 PUSH2 0x3F30 JUMP JUMPDEST PUSH1 0x0 JUMPDEST PUSH1 0x8 SLOAD DUP2 LT ISZERO PUSH2 0xAE2 JUMPI DUP2 PUSH1 0x40 MLOAD PUSH1 0x20 ADD PUSH2 0x3104 SWAP2 SWAP1 PUSH2 0x3C45 JUMP JUMPDEST PUSH1 0x40 MLOAD PUSH1 0x20 DUP2 DUP4 SUB SUB DUP2 MSTORE SWAP1 PUSH1 0x40 MSTORE DUP1 MLOAD SWAP1 PUSH1 0x20 ADD KECCAK256 PUSH1 0x8 DUP3 DUP2 SLOAD DUP2 LT PUSH2 0x312D JUMPI PUSH2 0x312D PUSH2 0x39F6 JUMP JUMPDEST SWAP1 PUSH1 0x0 MSTORE PUSH1 0x20 PUSH1 0x0 KECCAK256 ADD PUSH1 0x40 MLOAD PUSH1 0x20 ADD PUSH2 0x3147 SWAP2 SWAP1 PUSH2 0x3C61 JUMP JUMPDEST PUSH1 0x40 MLOAD PUSH1 0x20 DUP2 DUP4 SUB SUB DUP2 MSTORE SWAP1 PUSH1 0x40 MSTORE DUP1 MLOAD SWAP1 PUSH1 0x20 ADD KECCAK256 SUB PUSH2 0x321A JUMPI PUSH1 0x0 DUP1 DUP4 PUSH1 0x40 MLOAD PUSH2 0x3173 SWAP2 SWAP1 PUSH2 0x3C45 JUMP JUMPDEST SWAP1 DUP2 MSTORE PUSH1 0x40 MLOAD SWAP1 DUP2 SWAP1 SUB PUSH1 0x20 ADD SWAP1 KECCAK256 DUP1 SLOAD SWAP2 ISZERO ISZERO PUSH1 0xFF NOT SWAP1 SWAP3 AND SWAP2 SWAP1 SWAP2 OR SWAP1 SSTORE PUSH1 0x8 DUP1 SLOAD PUSH2 0x31A3 SWAP1 PUSH1 0x1 SWAP1 PUSH2 0x3A22 JUMP JUMPDEST DUP2 SLOAD DUP2 LT PUSH2 0x31B3 JUMPI PUSH2 0x31B3 PUSH2 0x39F6 JUMP JUMPDEST SWAP1 PUSH1 0x0 MSTORE PUSH1 0x20 PUSH1 0x0 KECCAK256 ADD PUSH1 0x8 DUP3 DUP2 SLOAD DUP2 LT PUSH2 0x31D0 JUMPI PUSH2 0x31D0 PUSH2 0x39F6 JUMP JUMPDEST SWAP1 PUSH1 0x0 MSTORE PUSH1 0x20 PUSH1 0x0 KECCAK256 ADD SWAP1 DUP2 PUSH2 0x31E6 SWAP2 SWAP1 PUSH2 0x3F6D JUMP JUMPDEST POP PUSH1 0x8 DUP1 SLOAD DUP1 PUSH2 0x31F8 JUMPI PUSH2 0x31F8 PUSH2 0x3A35 JUMP JUMPDEST PUSH1 0x1 SWAP1 SUB DUP2 DUP2 SWAP1 PUSH1 0x0 MSTORE PUSH1 0x20 PUSH1 0x0 KECCAK256 ADD PUSH1 0x0 PUSH2 0x3214 SWAP2 SWAP1 PUSH2 0x322C JUMP JUMPDEST SWAP1 SSTORE POP POP JUMP JUMPDEST DUP1 PUSH2 0x3224 DUP2 PUSH2 0x3A4B JUMP JUMPDEST SWAP2 POP POP PUSH2 0x30E9 JUMP JUMPDEST POP DUP1 SLOAD PUSH2 0x3238 SWAP1 PUSH2 0x3B02 JUMP JUMPDEST PUSH1 0x0 DUP3 SSTORE DUP1 PUSH1 0x1F LT PUSH2 0x3248 JUMPI POP POP JUMP JUMPDEST PUSH1 0x1F ADD PUSH1 0x20 SWAP1 DIV SWAP1 PUSH1 0x0 MSTORE PUSH1 0x20 PUSH1 0x0 KECCAK256 SWAP1 DUP2 ADD SWAP1 PUSH2 0x3266 SWAP2 SWAP1 PUSH2 0x3269 JUMP JUMPDEST POP JUMP JUMPDEST JUMPDEST DUP1 DUP3 GT ISZERO PUSH2 0x327E JUMPI PUSH1 0x0 DUP2 SSTORE PUSH1 0x1 ADD PUSH2 0x326A JUMP JUMPDEST POP SWAP1 JUMP JUMPDEST PUSH1 0x1 PUSH1 0x1 PUSH1 0xA0 SHL SUB DUP2 AND DUP2 EQ PUSH2 0x3266 JUMPI PUSH1 0x0 DUP1 REVERT JUMPDEST DUP1 ISZERO ISZERO DUP2 EQ PUSH2 0x3266 JUMPI PUSH1 0x0 DUP1 REVERT JUMPDEST PUSH1 0x0 DUP1 PUSH1 0x40 DUP4 DUP6 SUB SLT ISZERO PUSH2 0x32B8 JUMPI PUSH1 0x0 DUP1 REVERT JUMPDEST DUP3 CALLDATALOAD PUSH2 0x32C3 DUP2 PUSH2 0x3282 JUMP JUMPDEST SWAP2 POP PUSH1 0x20 DUP4 ADD CALLDATALOAD PUSH2 0x32D3 DUP2 PUSH2 0x3297 JUMP JUMPDEST DUP1 SWAP2 POP POP SWAP3 POP SWAP3 SWAP1 POP JUMP JUMPDEST DUP1 PUSH2 0x4000 DUP2 ADD DUP4 LT ISZERO PUSH2 0x32F0 JUMPI PUSH1 0x0 DUP1 REVERT JUMPDEST SWAP3 SWAP2 POP POP JUMP JUMPDEST DUP1 PUSH2 0x2000 DUP2 ADD DUP4 LT ISZERO PUSH2 0x32F0 JUMPI PUSH1 0x0 DUP1 REVERT JUMPDEST PUSH1 0x0 DUP1 PUSH1 0x0 DUP1 PUSH2 0x4060 DUP6 DUP8 SUB SLT ISZERO PUSH2 0x331F JUMPI PUSH1 0x0 DUP1 REVERT JUMPDEST PUSH2 0x3329 DUP7 DUP7 PUSH2 0x32DE JUMP JUMPDEST SWAP4 POP PUSH2 0x4000 DUP6 ADD CALLDATALOAD PUSH8 0xFFFFFFFFFFFFFFFF DUP2 GT ISZERO PUSH2 0x3346 JUMPI PUSH1 0x0 DUP1 REVERT JUMPDEST PUSH2 0x3352 DUP8 DUP3 DUP9 ADD PUSH2 0x32F6 JUMP JUMPDEST SWAP4 POP POP PUSH2 0x4020 DUP6 ADD CALLDATALOAD SWAP2 POP PUSH2 0x4040 DUP6 ADD CALLDATALOAD PUSH2 0x336C DUP2 PUSH2 0x3282 JUMP JUMPDEST SWAP4 SWAP7 SWAP3 SWAP6 POP SWAP1 SWAP4 POP POP JUMP JUMPDEST PUSH1 0x0 PUSH1 0x20 DUP3 DUP5 SUB SLT ISZERO PUSH2 0x3389 JUMPI PUSH1 0x0 DUP1 REVERT JUMPDEST DUP2 CALLDATALOAD PUSH2 0x3394 DUP2 PUSH2 0x3282 JUMP JUMPDEST SWAP4 SWAP3 POP POP POP JUMP JUMPDEST PUSH1 0x0 PUSH1 0x20 DUP3 DUP5 SUB SLT ISZERO PUSH2 0x33AD JUMPI PUSH1 0x0 DUP1 REVERT JUMPDEST POP CALLDATALOAD SWAP2 SWAP1 POP JUMP JUMPDEST PUSH1 0x0 DUP1 PUSH1 0x40 DUP4 DUP6 SUB SLT ISZERO PUSH2 0x33C7 JUMPI PUSH1 0x0 DUP1 REVERT JUMPDEST DUP3 CALLDATALOAD PUSH2 0x33D2 DUP2 PUSH2 0x3282 JUMP JUMPDEST SWAP5 PUSH1 0x20 SWAP4 SWAP1 SWAP4 ADD CALLDATALOAD SWAP4 POP POP POP JUMP JUMPDEST PUSH4 0x4E487B71 PUSH1 0xE0 SHL PUSH1 0x0 MSTORE PUSH1 0x41 PUSH1 0x4 MSTORE PUSH1 0x24 PUSH1 0x0 REVERT JUMPDEST PUSH1 0x40 MLOAD PUSH1 0x1F DUP3 ADD PUSH1 0x1F NOT AND DUP2 ADD PUSH8 0xFFFFFFFFFFFFFFFF DUP2 GT DUP3 DUP3 LT OR ISZERO PUSH2 0x341F JUMPI PUSH2 0x341F PUSH2 0x33E0 JUMP JUMPDEST PUSH1 0x40 MSTORE SWAP2 SWAP1 POP JUMP JUMPDEST PUSH1 0x0 DUP3 PUSH1 0x1F DUP4 ADD SLT PUSH2 0x3438 JUMPI PUSH1 0x0 DUP1 REVERT JUMPDEST DUP2 CALLDATALOAD PUSH8 0xFFFFFFFFFFFFFFFF DUP2 GT ISZERO PUSH2 0x3452 JUMPI PUSH2 0x3452 PUSH2 0x33E0 JUMP JUMPDEST PUSH2 0x3465 PUSH1 0x1F DUP3 ADD PUSH1 0x1F NOT AND PUSH1 0x20 ADD PUSH2 0x33F6 JUMP JUMPDEST DUP2 DUP2 MSTORE DUP5 PUSH1 0x20 DUP4 DUP7 ADD ADD GT ISZERO PUSH2 0x347A JUMPI PUSH1 0x0 DUP1 REVERT JUMPDEST DUP2 PUSH1 0x20 DUP6 ADD PUSH1 0x20 DUP4 ADD CALLDATACOPY PUSH1 0x0 SWAP2 DUP2 ADD PUSH1 0x20 ADD SWAP2 SWAP1 SWAP2 MSTORE SWAP4 SWAP3 POP POP POP JUMP JUMPDEST PUSH1 0x0 DUP1 PUSH1 0x0 DUP1 PUSH1 0x0 DUP1 PUSH1 0xC0 DUP8 DUP10 SUB SLT ISZERO PUSH2 0x34B0 JUMPI PUSH1 0x0 DUP1 REVERT JUMPDEST DUP7 CALLDATALOAD PUSH2 0x34BB DUP2 PUSH2 0x3282 JUMP JUMPDEST SWAP6 POP PUSH1 0x20 DUP8 ADD CALLDATALOAD PUSH8 0xFFFFFFFFFFFFFFFF DUP1 DUP3 GT ISZERO PUSH2 0x34D8 JUMPI PUSH1 0x0 DUP1 REVERT JUMPDEST PUSH2 0x34E4 DUP11 DUP4 DUP12 ADD PUSH2 0x3427 JUMP JUMPDEST SWAP7 POP PUSH1 0x40 DUP10 ADD CALLDATALOAD SWAP2 POP DUP1 DUP3 GT ISZERO PUSH2 0x34FA JUMPI PUSH1 0x0 DUP1 REVERT JUMPDEST POP PUSH2 0x3507 DUP10 DUP3 DUP11 ADD PUSH2 0x3427 JUMP JUMPDEST SWAP5 POP POP PUSH1 0x60 DUP8 ADD CALLDATALOAD SWAP3 POP PUSH1 0x80 DUP8 ADD CALLDATALOAD SWAP2 POP PUSH1 0xA0 DUP8 ADD CALLDATALOAD PUSH2 0x3526 DUP2 PUSH2 0x3282 JUMP JUMPDEST DUP1 SWAP2 POP POP SWAP3 SWAP6 POP SWAP3 SWAP6 POP SWAP3 SWAP6 JUMP JUMPDEST PUSH1 0x0 PUSH1 0x20 DUP1 DUP4 DUP6 SUB SLT ISZERO PUSH2 0x3547 JUMPI PUSH1 0x0 DUP1 REVERT JUMPDEST DUP3 CALLDATALOAD PUSH8 0xFFFFFFFFFFFFFFFF DUP1 DUP3 GT ISZERO PUSH2 0x355F JUMPI PUSH1 0x0 DUP1 REVERT JUMPDEST DUP2 DUP6 ADD SWAP2 POP DUP6 PUSH1 0x1F DUP4 ADD SLT PUSH2 0x3573 JUMPI PUSH1 0x0 DUP1 REVERT JUMPDEST DUP2 CALLDATALOAD DUP2 DUP2 GT ISZERO PUSH2 0x3585 JUMPI PUSH2 0x3585 PUSH2 0x33E0 JUMP JUMPDEST DUP1 PUSH1 0x5 SHL PUSH2 0x3594 DUP6 DUP3 ADD PUSH2 0x33F6 JUMP JUMPDEST SWAP2 DUP3 MSTORE DUP4 DUP2 ADD DUP6 ADD SWAP2 DUP6 DUP2 ADD SWAP1 DUP10 DUP5 GT ISZERO PUSH2 0x35AE JUMPI PUSH1 0x0 DUP1 REVERT JUMPDEST DUP7 DUP7 ADD SWAP3 POP JUMPDEST DUP4 DUP4 LT ISZERO PUSH2 0x35EA JUMPI DUP3 CALLDATALOAD DUP6 DUP2 GT ISZERO PUSH2 0x35CC JUMPI PUSH1 0x0 DUP1 DUP2 REVERT JUMPDEST PUSH2 0x35DA DUP12 DUP10 DUP4 DUP11 ADD ADD PUSH2 0x3427 JUMP JUMPDEST DUP4 MSTORE POP SWAP2 DUP7 ADD SWAP2 SWAP1 DUP7 ADD SWAP1 PUSH2 0x35B4 JUMP JUMPDEST SWAP10 SWAP9 POP POP POP POP POP POP POP POP POP JUMP JUMPDEST PUSH1 0x20 DUP1 DUP3 MSTORE DUP3 MLOAD DUP3 DUP3 ADD DUP2 SWAP1 MSTORE PUSH1 0x0 SWAP2 SWAP1 DUP5 DUP3 ADD SWAP1 PUSH1 0x40 DUP6 ADD SWAP1 DUP5 JUMPDEST DUP2 DUP2 LT ISZERO PUSH2 0x3638 JUMPI DUP4 MLOAD PUSH1 0x1 PUSH1 0x1 PUSH1 0xA0 SHL SUB AND DUP4 MSTORE SWAP3 DUP5 ADD SWAP3 SWAP2 DUP5 ADD SWAP2 PUSH1 0x1 ADD PUSH2 0x3613 JUMP JUMPDEST POP SWAP1 SWAP7 SWAP6 POP POP POP POP POP POP JUMP JUMPDEST PUSH1 0x0 PUSH1 0x20 DUP3 DUP5 SUB SLT ISZERO PUSH2 0x3656 JUMPI PUSH1 0x0 DUP1 REVERT JUMPDEST DUP2 CALLDATALOAD PUSH8 0xFFFFFFFFFFFFFFFF DUP2 GT ISZERO PUSH2 0x366D JUMPI PUSH1 0x0 DUP1 REVERT JUMPDEST PUSH2 0x3679 DUP5 DUP3 DUP6 ADD PUSH2 0x3427 JUMP JUMPDEST SWAP5 SWAP4 POP POP POP POP JUMP JUMPDEST PUSH1 0x0 JUMPDEST DUP4 DUP2 LT ISZERO PUSH2 0x369C JUMPI DUP2 DUP2 ADD MLOAD DUP4 DUP3 ADD MSTORE PUSH1 0x20 ADD PUSH2 0x3684 JUMP JUMPDEST POP POP PUSH1 0x0 SWAP2 ADD MSTORE JUMP JUMPDEST PUSH1 0x0 DUP2 MLOAD DUP1 DUP5 MSTORE PUSH2 0x36BD DUP2 PUSH1 0x20 DUP7 ADD PUSH1 0x20 DUP7 ADD PUSH2 0x3681 JUMP JUMPDEST PUSH1 0x1F ADD PUSH1 0x1F NOT AND SWAP3 SWAP1 SWAP3 ADD PUSH1 0x20 ADD SWAP3 SWAP2 POP POP JUMP JUMPDEST PUSH1 0x0 PUSH1 0x20 DUP1 DUP4 ADD DUP2 DUP5 MSTORE DUP1 DUP6 MLOAD DUP1 DUP4 MSTORE PUSH1 0x40 DUP7 ADD SWAP2 POP PUSH1 0x40 DUP2 PUSH1 0x5 SHL DUP8 ADD ADD SWAP3 POP DUP4 DUP8 ADD PUSH1 0x0 JUMPDEST DUP3 DUP2 LT ISZERO PUSH2 0x3726 JUMPI PUSH1 0x3F NOT DUP9 DUP7 SUB ADD DUP5 MSTORE PUSH2 0x3714 DUP6 DUP4 MLOAD PUSH2 0x36A5 JUMP JUMPDEST SWAP5 POP SWAP3 DUP6 ADD SWAP3 SWAP1 DUP6 ADD SWAP1 PUSH1 0x1 ADD PUSH2 0x36F8 JUMP JUMPDEST POP SWAP3 SWAP8 SWAP7 POP POP POP POP POP POP POP JUMP JUMPDEST DUP15 ISZERO ISZERO DUP2 MSTORE DUP14 ISZERO ISZERO PUSH1 0x20 DUP3 ADD MSTORE DUP13 ISZERO ISZERO PUSH1 0x40 DUP3 ADD MSTORE DUP12 ISZERO ISZERO PUSH1 0x60 DUP3 ADD MSTORE DUP11 ISZERO ISZERO PUSH1 0x80 DUP3 ADD MSTORE DUP10 ISZERO ISZERO PUSH1 0xA0 DUP3 ADD MSTORE DUP9 ISZERO ISZERO PUSH1 0xC0 DUP3 ADD MSTORE PUSH2 0x1C0 PUSH1 0xE0 DUP3 ADD MSTORE PUSH1 0x0 PUSH2 0x3780 PUSH2 0x1C0 DUP4 ADD DUP11 PUSH2 0x36A5 JUMP JUMPDEST DUP9 PUSH2 0x100 DUP5 ADD MSTORE DUP3 DUP2 SUB PUSH2 0x120 DUP5 ADD MSTORE PUSH2 0x379A DUP2 DUP10 PUSH2 0x36A5 JUMP JUMPDEST SWAP2 POP POP PUSH2 0x37B3 PUSH2 0x140 DUP4 ADD DUP8 PUSH1 0x1 PUSH1 0x1 PUSH1 0xA0 SHL SUB AND SWAP1 MSTORE JUMP JUMPDEST DUP5 PUSH2 0x160 DUP4 ADD MSTORE DUP4 PUSH2 0x180 DUP4 ADD MSTORE DUP3 PUSH2 0x1A0 DUP4 ADD MSTORE SWAP16 SWAP15 POP POP POP POP POP POP POP POP POP POP POP POP POP POP POP JUMP JUMPDEST PUSH1 0x0 DUP1 PUSH1 0x0 DUP1 PUSH1 0x0 PUSH2 0x4080 DUP7 DUP9 SUB SLT ISZERO PUSH2 0x37F4 JUMPI PUSH1 0x0 DUP1 REVERT JUMPDEST DUP6 CALLDATALOAD PUSH8 0xFFFFFFFFFFFFFFFF DUP1 DUP3 GT ISZERO PUSH2 0x380C JUMPI PUSH1 0x0 DUP1 REVERT JUMPDEST PUSH2 0x3818 DUP10 DUP4 DUP11 ADD PUSH2 0x3427 JUMP JUMPDEST SWAP7 POP PUSH1 0x20 DUP9 ADD CALLDATALOAD SWAP2 POP PUSH2 0x382A DUP3 PUSH2 0x3297 JUMP JUMPDEST DUP2 SWAP6 POP PUSH2 0x383A DUP10 PUSH1 0x40 DUP11 ADD PUSH2 0x32DE JUMP JUMPDEST SWAP5 POP PUSH2 0x4040 DUP9 ADD CALLDATALOAD SWAP2 POP DUP1 DUP3 GT ISZERO PUSH2 0x3851 JUMPI PUSH1 0x0 DUP1 REVERT JUMPDEST POP PUSH2 0x385E DUP9 DUP3 DUP10 ADD PUSH2 0x32F6 JUMP JUMPDEST SWAP6 SWAP9 SWAP5 SWAP8 POP SWAP3 SWAP6 PUSH2 0x4060 ADD CALLDATALOAD SWAP4 SWAP3 POP POP POP JUMP JUMPDEST PUSH1 0x20 DUP2 MSTORE PUSH1 0x0 PUSH2 0x3394 PUSH1 0x20 DUP4 ADD DUP5 PUSH2 0x36A5 JUMP JUMPDEST PUSH1 0x0 DUP1 PUSH1 0x40 DUP4 DUP6 SUB SLT ISZERO PUSH2 0x3897 JUMPI PUSH1 0x0 DUP1 REVERT JUMPDEST DUP3 CALLDATALOAD PUSH2 0x38A2 DUP2 PUSH2 0x3282 JUMP JUMPDEST SWAP2 POP PUSH1 0x20 DUP4 ADD CALLDATALOAD PUSH2 0x32D3 DUP2 PUSH2 0x3282 JUMP JUMPDEST PUSH1 0x60 SWAP2 SWAP1 SWAP2 SHL PUSH12 0xFFFFFFFFFFFFFFFFFFFFFFFF NOT AND DUP2 MSTORE PUSH1 0x14 ADD SWAP1 JUMP JUMPDEST DUP2 DUP4 MSTORE DUP2 DUP2 PUSH1 0x20 DUP6 ADD CALLDATACOPY POP PUSH1 0x0 DUP3 DUP3 ADD PUSH1 0x20 SWAP1 DUP2 ADD SWAP2 SWAP1 SWAP2 MSTORE PUSH1 0x1F SWAP1 SWAP2 ADD PUSH1 0x1F NOT AND SWAP1 SWAP2 ADD ADD SWAP1 JUMP JUMPDEST PUSH1 0x0 PUSH2 0x4060 DUP3 DUP2 ADD DUP4 DUP9 DUP5 JUMPDEST PUSH2 0x100 DUP2 LT ISZERO PUSH2 0x3925 JUMPI PUSH1 0x40 DUP1 DUP4 DUP6 CALLDATACOPY SWAP3 DUP4 ADD SWAP3 SWAP2 SWAP1 SWAP2 ADD SWAP1 PUSH1 0x1 ADD PUSH2 0x3904 JUMP JUMPDEST POP POP POP PUSH2 0x4000 DUP5 ADD SWAP2 SWAP1 SWAP2 MSTORE PUSH2 0x6060 DUP4 ADD DUP7 PUSH1 0x0 JUMPDEST PUSH2 0x100 DUP2 LT ISZERO PUSH2 0x39B1 JUMPI DUP6 DUP4 SUB PUSH2 0x405F NOT ADD DUP5 MSTORE DUP2 CALLDATALOAD CALLDATASIZE DUP11 SWAP1 SUB PUSH1 0x1E NOT ADD DUP2 SLT PUSH2 0x3963 JUMPI PUSH1 0x0 DUP1 REVERT JUMPDEST DUP10 ADD PUSH1 0x20 DUP2 DUP2 ADD SWAP2 CALLDATALOAD SWAP1 PUSH8 0xFFFFFFFFFFFFFFFF DUP3 GT ISZERO PUSH2 0x3982 JUMPI PUSH1 0x0 DUP1 REVERT JUMPDEST DUP2 CALLDATASIZE SUB DUP4 SGT ISZERO PUSH2 0x3991 JUMPI PUSH1 0x0 DUP1 REVERT JUMPDEST PUSH2 0x399C DUP7 DUP4 DUP6 PUSH2 0x38CF JUMP JUMPDEST SWAP7 DUP2 ADD SWAP7 SWAP6 POP SWAP4 SWAP1 SWAP4 ADD SWAP3 POP POP PUSH1 0x1 ADD PUSH2 0x393A JUMP JUMPDEST POP POP DUP6 PUSH2 0x4020 DUP6 ADD MSTORE DUP4 DUP2 SUB PUSH2 0x4040 DUP6 ADD MSTORE PUSH2 0x39CD DUP2 DUP7 PUSH2 0x36A5 JUMP JUMPDEST SWAP9 SWAP8 POP POP POP POP POP POP POP POP JUMP JUMPDEST PUSH1 0x0 PUSH1 0x20 DUP3 DUP5 SUB SLT ISZERO PUSH2 0x39EB JUMPI PUSH1 0x0 DUP1 REVERT JUMPDEST DUP2 MLOAD PUSH2 0x3394 DUP2 PUSH2 0x3297 JUMP JUMPDEST PUSH4 0x4E487B71 PUSH1 0xE0 SHL PUSH1 0x0 MSTORE PUSH1 0x32 PUSH1 0x4 MSTORE PUSH1 0x24 PUSH1 0x0 REVERT JUMPDEST PUSH4 0x4E487B71 PUSH1 0xE0 SHL PUSH1 0x0 MSTORE PUSH1 0x11 PUSH1 0x4 MSTORE PUSH1 0x24 PUSH1 0x0 REVERT JUMPDEST DUP2 DUP2 SUB DUP2 DUP2 GT ISZERO PUSH2 0x32F0 JUMPI PUSH2 0x32F0 PUSH2 0x3A0C JUMP JUMPDEST PUSH4 0x4E487B71 PUSH1 0xE0 SHL PUSH1 0x0 MSTORE PUSH1 0x31 PUSH1 0x4 MSTORE PUSH1 0x24 PUSH1 0x0 REVERT JUMPDEST PUSH1 0x0 PUSH1 0x1 DUP3 ADD PUSH2 0x3A5D JUMPI PUSH2 0x3A5D PUSH2 0x3A0C JUMP JUMPDEST POP PUSH1 0x1 ADD SWAP1 JUMP JUMPDEST PUSH1 0x0 DUP2 DUP4 DUP3 JUMPDEST PUSH2 0x100 DUP2 LT ISZERO PUSH2 0x3A8B JUMPI PUSH1 0x40 DUP1 DUP4 DUP6 CALLDATACOPY SWAP3 DUP4 ADD SWAP3 SWAP2 SWAP1 SWAP2 ADD SWAP1 PUSH1 0x1 ADD PUSH2 0x3A6A JUMP JUMPDEST POP POP POP PUSH2 0x4000 DUP3 ADD SWAP1 POP SWAP3 SWAP2 POP POP JUMP JUMPDEST PUSH1 0x20 DUP1 DUP3 MSTORE PUSH1 0x41 SWAP1 DUP3 ADD MSTORE PUSH32 0x53616D6520504B48207573656420666F7220626F74682073746570733B207573 PUSH1 0x40 DUP3 ADD MSTORE PUSH32 0x652061207365706172617465206B657920666F7220636F6E6669726D6174696F PUSH1 0x60 DUP3 ADD MSTORE PUSH1 0x37 PUSH1 0xF9 SHL PUSH1 0x80 DUP3 ADD MSTORE PUSH1 0xA0 ADD SWAP1 JUMP JUMPDEST PUSH1 0x1 DUP2 DUP2 SHR SWAP1 DUP3 AND DUP1 PUSH2 0x3B16 JUMPI PUSH1 0x7F DUP3 AND SWAP2 POP JUMPDEST PUSH1 0x20 DUP3 LT DUP2 SUB PUSH2 0x211A JUMPI PUSH4 0x4E487B71 PUSH1 0xE0 SHL PUSH1 0x0 MSTORE PUSH1 0x22 PUSH1 0x4 MSTORE PUSH1 0x24 PUSH1 0x0 REVERT JUMPDEST PUSH1 0x1F DUP3 GT ISZERO PUSH2 0x3B80 JUMPI PUSH1 0x0 DUP2 DUP2 MSTORE PUSH1 0x20 DUP2 KECCAK256 PUSH1 0x1F DUP6 ADD PUSH1 0x5 SHR DUP2 ADD PUSH1 0x20 DUP7 LT ISZERO PUSH2 0x3B5D JUMPI POP DUP1 JUMPDEST PUSH1 0x1F DUP6 ADD PUSH1 0x5 SHR DUP3 ADD SWAP2 POP JUMPDEST DUP2 DUP2 LT ISZERO PUSH2 0x3B7C JUMPI DUP3 DUP2 SSTORE PUSH1 0x1 ADD PUSH2 0x3B69 JUMP JUMPDEST POP POP POP JUMPDEST POP POP POP JUMP JUMPDEST DUP2 MLOAD PUSH8 0xFFFFFFFFFFFFFFFF DUP2 GT ISZERO PUSH2 0x3B9F JUMPI PUSH2 0x3B9F PUSH2 0x33E0 JUMP JUMPDEST PUSH2 0x3BB3 DUP2 PUSH2 0x3BAD DUP5 SLOAD PUSH2 0x3B02 JUMP JUMPDEST DUP5 PUSH2 0x3B36 JUMP JUMPDEST PUSH1 0x20 DUP1 PUSH1 0x1F DUP4 GT PUSH1 0x1 DUP2 EQ PUSH2 0x3BE8 JUMPI PUSH1 0x0 DUP5 ISZERO PUSH2 0x3BD0 JUMPI POP DUP6 DUP4 ADD MLOAD JUMPDEST PUSH1 0x0 NOT PUSH1 0x3 DUP7 SWAP1 SHL SHR NOT AND PUSH1 0x1 DUP6 SWAP1 SHL OR DUP6 SSTORE PUSH2 0x3B7C JUMP JUMPDEST PUSH1 0x0 DUP6 DUP2 MSTORE PUSH1 0x20 DUP2 KECCAK256 PUSH1 0x1F NOT DUP7 AND SWAP2 JUMPDEST DUP3 DUP2 LT ISZERO PUSH2 0x3C17 JUMPI DUP9 DUP7 ADD MLOAD DUP3 SSTORE SWAP5 DUP5 ADD SWAP5 PUSH1 0x1 SWAP1 SWAP2 ADD SWAP1 DUP5 ADD PUSH2 0x3BF8 JUMP JUMPDEST POP DUP6 DUP3 LT ISZERO PUSH2 0x3C35 JUMPI DUP8 DUP6 ADD MLOAD PUSH1 0x0 NOT PUSH1 0x3 DUP9 SWAP1 SHL PUSH1 0xF8 AND SHR NOT AND DUP2 SSTORE JUMPDEST POP POP POP POP POP PUSH1 0x1 SWAP1 DUP2 SHL ADD SWAP1 SSTORE POP JUMP JUMPDEST PUSH1 0x0 DUP3 MLOAD PUSH2 0x3C57 DUP2 DUP5 PUSH1 0x20 DUP8 ADD PUSH2 0x3681 JUMP JUMPDEST SWAP2 SWAP1 SWAP2 ADD SWAP3 SWAP2 POP POP JUMP JUMPDEST PUSH1 0x0 DUP1 DUP4 SLOAD PUSH2 0x3C6F DUP2 PUSH2 0x3B02 JUMP JUMPDEST PUSH1 0x1 DUP3 DUP2 AND DUP1 ISZERO PUSH2 0x3C87 JUMPI PUSH1 0x1 DUP2 EQ PUSH2 0x3C9C JUMPI PUSH2 0x3CCB JUMP JUMPDEST PUSH1 0xFF NOT DUP5 AND DUP8 MSTORE DUP3 ISZERO ISZERO DUP4 MUL DUP8 ADD SWAP5 POP PUSH2 0x3CCB JUMP JUMPDEST DUP8 PUSH1 0x0 MSTORE PUSH1 0x20 DUP1 PUSH1 0x0 KECCAK256 PUSH1 0x0 JUMPDEST DUP6 DUP2 LT ISZERO PUSH2 0x3CC2 JUMPI DUP2 SLOAD DUP11 DUP3 ADD MSTORE SWAP1 DUP5 ADD SWAP1 DUP3 ADD PUSH2 0x3CA9 JUMP JUMPDEST POP POP POP DUP3 DUP8 ADD SWAP5 POP JUMPDEST POP SWAP3 SWAP7 SWAP6 POP POP POP POP POP POP JUMP JUMPDEST PUSH1 0x0 DUP2 SLOAD PUSH2 0x3CE4 DUP2 PUSH2 0x3B02 JUMP JUMPDEST DUP1 DUP6 MSTORE PUSH1 0x20 PUSH1 0x1 DUP4 DUP2 AND DUP1 ISZERO PUSH2 0x3D01 JUMPI PUSH1 0x1 DUP2 EQ PUSH2 0x3D1B JUMPI PUSH2 0x3D49 JUMP JUMPDEST PUSH1 0xFF NOT DUP6 AND DUP9 DUP5 ADD MSTORE DUP4 ISZERO ISZERO PUSH1 0x5 SHL DUP9 ADD DUP4 ADD SWAP6 POP PUSH2 0x3D49 JUMP JUMPDEST DUP7 PUSH1 0x0 MSTORE DUP3 PUSH1 0x0 KECCAK256 PUSH1 0x0 JUMPDEST DUP6 DUP2 LT ISZERO PUSH2 0x3D41 JUMPI DUP2 SLOAD DUP11 DUP3 ADD DUP7 ADD MSTORE SWAP1 DUP4 ADD SWAP1 DUP5 ADD PUSH2 0x3D26 JUMP JUMPDEST DUP10 ADD DUP5 ADD SWAP7 POP POP JUMPDEST POP POP POP POP POP SWAP3 SWAP2 POP POP JUMP JUMPDEST PUSH1 0x40 DUP2 MSTORE PUSH1 0x0 PUSH2 0x3D67 PUSH1 0x40 DUP4 ADD DUP6 PUSH2 0x3CD7 JUMP JUMPDEST SWAP1 POP PUSH1 0x1 DUP1 PUSH1 0xA0 SHL SUB DUP4 AND PUSH1 0x20 DUP4 ADD MSTORE SWAP4 SWAP3 POP POP POP JUMP JUMPDEST PUSH1 0x0 PUSH1 0x20 DUP3 DUP5 SUB SLT ISZERO PUSH2 0x3D90 JUMPI PUSH1 0x0 DUP1 REVERT JUMPDEST DUP2 MLOAD PUSH1 0xFF DUP2 AND DUP2 EQ PUSH2 0x3394 JUMPI PUSH1 0x0 DUP1 REVERT JUMPDEST PUSH1 0x0 DUP3 PUSH2 0x3DBE JUMPI PUSH4 0x4E487B71 PUSH1 0xE0 SHL PUSH1 0x0 MSTORE PUSH1 0x12 PUSH1 0x4 MSTORE PUSH1 0x24 PUSH1 0x0 REVERT JUMPDEST POP DIV SWAP1 JUMP JUMPDEST PUSH1 0x1 PUSH1 0x1 PUSH1 0xA0 SHL SUB DUP4 AND DUP2 MSTORE PUSH1 0x40 PUSH1 0x20 DUP3 ADD DUP2 SWAP1 MSTORE PUSH1 0x0 SWAP1 PUSH2 0x3679 SWAP1 DUP4 ADD DUP5 PUSH2 0x3CD7 JUMP JUMPDEST PUSH1 0x0 PUSH1 0x20 DUP3 DUP5 SUB SLT ISZERO PUSH2 0x3DF9 JUMPI PUSH1 0x0 DUP1 REVERT JUMPDEST DUP2 MLOAD PUSH2 0x3394 DUP2 PUSH2 0x3282 JUMP JUMPDEST PUSH1 0x0 PUSH1 0x20 DUP3 DUP5 SUB SLT ISZERO PUSH2 0x3E16 JUMPI PUSH1 0x0 DUP1 REVERT JUMPDEST POP MLOAD SWAP2 SWAP1 POP JUMP JUMPDEST PUSH1 0x0 DUP1 PUSH1 0x0 PUSH1 0x60 DUP5 DUP7 SUB SLT ISZERO PUSH2 0x3E32 JUMPI PUSH1 0x0 DUP1 REVERT JUMPDEST DUP4 MLOAD PUSH1 0x3 DUP2 LT PUSH2 0x3E41 JUMPI PUSH1 0x0 DUP1 REVERT JUMPDEST PUSH1 0x20 DUP6 ADD MLOAD PUSH1 0x40 SWAP1 SWAP6 ADD MLOAD SWAP1 SWAP7 SWAP5 SWAP6 POP SWAP4 SWAP3 POP POP POP JUMP JUMPDEST DUP2 ISZERO ISZERO DUP2 MSTORE PUSH1 0x40 PUSH1 0x20 DUP3 ADD MSTORE PUSH1 0x0 PUSH2 0x3394 PUSH1 0x40 DUP4 ADD PUSH1 0x1A DUP2 MSTORE PUSH32 0x43616C6C6572206973206E6F7420612067616D652061646D696E000000000000 PUSH1 0x20 DUP3 ADD MSTORE PUSH1 0x40 ADD SWAP1 JUMP JUMPDEST PUSH1 0x40 DUP2 MSTORE PUSH1 0x0 PUSH2 0x3EB0 PUSH1 0x40 DUP4 ADD DUP6 PUSH2 0x36A5 JUMP JUMPDEST DUP3 DUP2 SUB PUSH1 0x20 DUP5 ADD MSTORE PUSH2 0x3EC2 DUP2 DUP6 PUSH2 0x36A5 JUMP JUMPDEST SWAP6 SWAP5 POP POP POP POP POP JUMP JUMPDEST PUSH1 0x40 DUP2 MSTORE PUSH1 0x0 PUSH2 0x3EDE PUSH1 0x40 DUP4 ADD DUP6 PUSH2 0x36A5 JUMP JUMPDEST SWAP1 POP DUP3 ISZERO ISZERO PUSH1 0x20 DUP4 ADD MSTORE SWAP4 SWAP3 POP POP POP JUMP JUMPDEST PUSH1 0x20 DUP1 DUP3 MSTORE PUSH1 0x21 SWAP1 DUP3 ADD MSTORE PUSH32 0x4C616D706F7274426173653A20417574686F72697A6174696F6E206661696C65 PUSH1 0x40 DUP3 ADD MSTORE PUSH1 0x19 PUSH1 0xFA SHL PUSH1 0x60 DUP3 ADD MSTORE PUSH1 0x80 ADD SWAP1 JUMP JUMPDEST PUSH1 0x20 DUP2 MSTORE PUSH1 0x0 PUSH2 0x32F0 PUSH1 0x20 DUP4 ADD PUSH1 0x1A DUP2 MSTORE PUSH32 0x43616C6C6572206973206E6F7420612067616D652061646D696E000000000000 PUSH1 0x20 DUP3 ADD MSTORE PUSH1 0x40 ADD SWAP1 JUMP JUMPDEST DUP2 DUP2 SUB PUSH2 0x3F78 JUMPI POP POP JUMP JUMPDEST PUSH2 0x3F82 DUP3 SLOAD PUSH2 0x3B02 JUMP JUMPDEST PUSH8 0xFFFFFFFFFFFFFFFF DUP2 GT ISZERO PUSH2 0x3F9A JUMPI PUSH2 0x3F9A PUSH2 0x33E0 JUMP JUMPDEST PUSH2 0x3FA8 DUP2 PUSH2 0x3BAD DUP5 SLOAD PUSH2 0x3B02 JUMP JUMPDEST PUSH1 0x0 PUSH1 0x1F DUP3 GT PUSH1 0x1 DUP2 EQ PUSH2 0x3FDC JUMPI PUSH1 0x0 DUP4 ISZERO PUSH2 0x3FC4 JUMPI POP DUP5 DUP3 ADD SLOAD JUMPDEST PUSH1 0x0 NOT PUSH1 0x3 DUP6 SWAP1 SHL SHR NOT AND PUSH1 0x1 DUP5 SWAP1 SHL OR DUP5 SSTORE PUSH2 0x4041 JUMP JUMPDEST PUSH1 0x0 DUP6 DUP2 MSTORE PUSH1 0x20 SWAP1 KECCAK256 PUSH1 0x1F NOT DUP5 AND SWAP1 PUSH1 0x0 DUP7 DUP2 MSTORE PUSH1 0x20 SWAP1 KECCAK256 DUP5 JUMPDEST DUP4 DUP2 LT ISZERO PUSH2 0x4016 JUMPI DUP3 DUP7 ADD SLOAD DUP3 SSTORE PUSH1 0x1 SWAP6 DUP7 ADD SWAP6 SWAP1 SWAP2 ADD SWAP1 PUSH1 0x20 ADD PUSH2 0x3FF6 JUMP JUMPDEST POP DUP6 DUP4 LT ISZERO PUSH2 0x4034 JUMPI DUP2 DUP6 ADD SLOAD PUSH1 0x0 NOT PUSH1 0x3 DUP9 SWAP1 SHL PUSH1 0xF8 AND SHR NOT AND DUP2 SSTORE JUMPDEST POP POP POP PUSH1 0x1 DUP4 PUSH1 0x1 SHL ADD DUP5 SSTORE JUMPDEST POP POP POP POP POP JUMP INVALID 0x4F PUSH15 0x6C7920746865206F6E72616D702063 PUSH16 0x6E74726163742063616E20636861D353 GT 0xD DELEGATECALL 0xED 0xA5 DUP7 SWAP4 0x25 0xBE BASEFEE 0x2C EXTCODEHASH 0xDD 0x2F 0x26 0xCC 0xBC 0xCC PUSH24 0x9D11B2D7AFAC5C7C5EB19DA2646970667358221220A8C453 0xAD 0xAA 0x5C 0xC7 OR SWAP14 0xB3 0xBE COINBASE 0xDF DUP7 0xC6 DUP7 MSTORE8 CALLDATALOAD 0x2B PUSH11 0x59C2174A62791C7B9A9E59 SWAP2 PUSH5 0x736F6C6343 STOP ADDMOD EQ STOP CALLER ",
  "sha1": "27f1455e94cb6a95ce4f79171c7865208c5a2bdb",
  "source": "// SPDX-License-Identifier: MIT\n\npragma solidity ^0.8.0;\n\ninterface ILamportBase {\n\n    enum KeyType { MASTER, ORACLE, DELETED }\n\n    function performLamportMasterCheck(\n        bytes32[2][256] calldata currentpub,\n        bytes[256] calldata sig,\n        bytes32 nextPKH,\n        bytes memory prepacked\n    ) external returns (bool);\n    \n    function performLamportOracleCheck(\n        bytes32[2][256] calldata currentpub,\n        bytes[256] calldata sig,\n        bytes32 nextPKH,\n        bytes memory prepacked\n    ) external returns (bool);\n\n    function getKeyAndIndexByPKH(bytes32 pkh) external view returns (KeyType, bytes32, uint);\n}\n\ninterface IAnonID {\n    function incrementMinutesPlayed(address user, uint256 _minutes) external;\n    function updateLastPlayed(address _address, string memory _gameId) external;\n    function isWhitelisted(address _address) external view returns (bool);\n    function isPlayerActiveInGame(string memory gameID, address player) external view returns (uint8);\n    function commissionAddress() external view returns (address);\n    function coinCommission() external view returns (uint256);\n}\n\ncontract PlayerDatabase  {\n    mapping(string => bool) public gameServerIPs; // Mapping to store game server IPs\n    mapping(address => uint256) public balanceOf;\n    mapping(address => mapping(address => uint256)) public allowance;\n    mapping(address => address) private proposedAnonIDContractAddresses;\n    mapping(address => address) private proposedGameValContractAddresses;\n    mapping(address => address) private proposedOnrampContractAddresses;\n    mapping(address => address) private proposedForumContractAddresses;\n\n    string gameID = \"TFC\"; // Define your game ID for TFC\n    string[] public serverIPList; // Array for listing all server IPs\n\n    // Player Database variables\n    struct Player {\n        bool isRegistered;\n        bool isValidator;\n        bool isModerator;\n        bool isTourneyMod;\n        bool isGameAdmin;\n        bool isOnboardQueuer;\n        bool isOnboardRegistrar;\n        string playerName; // Name of the player\n        bytes32 forumKey; // Unique key for forum entitlements\n        string steamID;\n        address rewardAddress;\n        uint256 oracleKeyIndex1;\n        uint256 oracleKeyIndex2;\n        uint256 lastMintTime; // Adding lastMintTime to the Player struct\n    }\n\n    mapping(address => Player) public playerData;\n    address[] public playerAddresses;\n\n    // Shared variables\n    address public gameValContract; // Address of the game subcontractor\n    IAnonID public anonIDContract; // Reference to the AnonID contract\n    address public onrampContract; // Address of the onramp contract\n    address public forumContract; // Address of the forum contract\n    ILamportBase public lamportBase; // Reference to the lamportBase contract\n    bytes32 private lastUsedNextPKH;\n\n    // Events\n    event ForumContractUpdated(address indexed newForumContract);\n    event AnonIDContractUpdated(address indexed newAnonIDContract);\n    event GameValContractUpdated(address indexed newGameValContract);\n    event OnrampContractUpdated(address indexed newOnrampContract);\n    event Transfer(address indexed from, address indexed to, uint256 value);\n    event Approval(address indexed owner, address indexed spender, uint256 value);\n    event OracleKeyIndicesRetrieved(\n        address indexed player,\n        uint256 oracleKeyIndex1,\n        uint256 oracleKeyIndex2,\n        uint256 retrievedIndex\n    );\n\n    event Error(\n        string errorType,\n        address indexed player,\n        uint256 retrievedIndex,\n        uint256 oracleKeyIndex1,\n        uint256 oracleKeyIndex2\n    );\n\n    event GameServerIPUpdated(\n        string serverIP,\n        bool added\n        //address indexed player\n    );\n\n    event EncodedServerIP(\n        string serverIP,\n        bytes encodedServerIP\n    );\n    event OperationResult(bool success, string message);\n\n    // Constructor\n    constructor(address _lamportBase, address _anonID) {\n        lamportBase = ILamportBase(_lamportBase);\n        anonIDContract = IAnonID(_anonID);\n        serverIPList.push(\"172.93.101.194:27015\");\n        serverIPList.push(\"63.143.56.124:27015\");\n        serverIPList.push(\"64.31.28.179:27015\");\n        serverIPList.push(\"172.233.224.83:27015\");\n    }\n    \n    function isValidator(address _address) public view returns (bool) {\n        return playerData[_address].isValidator;\n    }\n    function isModerator(address _address) public view returns (bool) {\n        return playerData[_address].isModerator;\n    }\n\n    function isRegistered(address _address) public view returns (bool) {\n        return playerData[_address].isRegistered;\n    }\n    \n    function isTourneyMod(address _address) public view returns (bool) {\n        return playerData[_address].isTourneyMod;\n    }\n    \n    function isGameAdmin(address _address) public view returns (bool) {\n        return playerData[_address].isGameAdmin;\n    }\n    \n    function isOnboardQueuer(address _address) public view returns (bool) {\n        return playerData[_address].isOnboardQueuer;\n    }\n    \n    function isOnboardRegistrar(address _address) public view returns (bool) {\n        return playerData[_address].isOnboardRegistrar;\n    }\n\n    function commissionAddress_() external view returns (address) {\n        return anonIDContract.commissionAddress();\n    }\n\n    function coinCommission_() external view returns (uint256) {\n        return anonIDContract.coinCommission();\n    }\n    \n    function getOracleKeyIndices(address _address) public view returns (uint256, uint256) {\n        require(isRegistered(_address), \"Player is not registered\");\n        return (playerData[_address].oracleKeyIndex1, playerData[_address].oracleKeyIndex2);\n    }\n\n    function getValidRewardAddressesByNames(string[] memory playerNames) external returns (address[] memory) {\n        require(msg.sender == gameValContract, \"Only the game validator contract can access this list\");\n\n        address[] memory validRewardAddresses = new address[](playerNames.length);\n\n        for (uint i = 0; i < playerNames.length; i++) {\n            for (uint j = 0; j < playerAddresses.length; j++) {\n                if (keccak256(abi.encodePacked(playerData[playerAddresses[j]].playerName)) == keccak256(abi.encodePacked(playerNames[i]))) {\n                    uint8 playerStatus = anonIDContract.isPlayerActiveInGame(gameID, playerAddresses[j]);\n\n                    if (playerStatus == 2) { // Player already minted for TFC\n                        validRewardAddresses[i] = playerData[playerAddresses[j]].rewardAddress;\n                        // Increment the minutes played using block.timestamp\n                        uint256 minutesPlayed = (block.timestamp - playerData[playerAddresses[j]].lastMintTime) / 60; // Convert seconds to minutes\n                        anonIDContract.incrementMinutesPlayed(playerAddresses[j], minutesPlayed);\n                        anonIDContract.updateLastPlayed(playerAddresses[j], gameID);\n                        playerData[playerAddresses[j]].lastMintTime = block.timestamp; // Update the lastMintTime after minting\n\n                    } else if (playerStatus == 0) { // Player not in a game, flag as active\n                        anonIDContract.updateLastPlayed(playerAddresses[j], gameID);\n                        // Do not include this player in the reward addresses for this round\n                    }\n                    break; // Stop the inner loop once the player is processed\n                }\n            }\n        }\n\n        return validRewardAddresses;\n    }\n\n    function updateGameServerIP(\n        string memory serverIP,\n        bool add,\n        bytes32[2][256] calldata currentpub,\n        bytes[256] calldata sig,\n        bytes32 nextPKH\n    ) public {\n        // Calculate pkh from currentpub\n        bytes32 pkh = keccak256(abi.encodePacked(currentpub));\n\n        // Perform Lamport Oracle check with \"1\" as the prepacked value\n        (bool oracleCheckPassed) = lamportBase.performLamportMasterCheck(\n            currentpub,\n            sig,\n            nextPKH,\n            abi.encodePacked(serverIP)\n        );\n\n        if (!oracleCheckPassed) {\n            emit OperationResult(false, \"Failed oracle check\");\n            // Do not exit, just log and continue\n        }\n\n        // Retrieve oracle key index and type by PKH\n        (, , uint index) = lamportBase.getKeyAndIndexByPKH(pkh);\n\n        // Retrieve player's oracle key indices\n        (uint256 oracleKeyIndex1, uint256 oracleKeyIndex2) = getOracleKeyIndices(msg.sender);\n\n        // Emit the oracle key indices before the first require statement\n        emit OracleKeyIndicesRetrieved(msg.sender, oracleKeyIndex1, oracleKeyIndex2, index);\n\n        // Ensure the current index matches one of the player's oracle key indices\n        if (index != oracleKeyIndex1 && index != oracleKeyIndex2) {\n            emit OperationResult(false, \"Caller's oracle key index does not match\");\n            // Do not exit, just log and continue\n        }\n\n        // Proceed with the original logic after passing the oracle check and index match\n        if (!playerData[msg.sender].isGameAdmin) {\n            emit OperationResult(false, \"Caller is not a game admin\");\n            // Do not exit, just log and continue\n        }\n\n        bytes memory encodedServerIP = abi.encodePacked(serverIP);\n        emit EncodedServerIP(serverIP, encodedServerIP);\n\n        if (add) {\n            if (!gameServerIPs[serverIP]) {\n                gameServerIPs[serverIP] = true;\n                serverIPList.push(serverIP);\n                emit GameServerIPUpdated(serverIP, true);\n            }\n        } else {\n            if (gameServerIPs[serverIP]) {\n                gameServerIPs[serverIP] = false;\n                removeServerIPFromArray(serverIP);\n                emit GameServerIPUpdated(serverIP, false);\n            }\n        }\n\n        emit OperationResult(true, \"Operation completed with logging\");\n    }\n\n    // Helper function to remove a server IP from the array\n    function removeServerIPFromArray(string memory serverIP) private {\n        require(playerData[msg.sender].isGameAdmin, \"Caller is not a game admin\");\n        for (uint i = 0; i < serverIPList.length; i++) {\n            if (keccak256(abi.encodePacked(serverIPList[i])) == keccak256(abi.encodePacked(serverIP))) {\n                // Update the mapping to reflect the server IP is no longer registered\n                gameServerIPs[serverIP] = false;\n\n                // Remove the server IP from the array\n                serverIPList[i] = serverIPList[serverIPList.length - 1];\n                serverIPList.pop();\n                break;\n            }\n        }\n    }\n\n    // Function to get the full list of server IPs\n    function getServerIPList() external view returns (string[] memory) {\n        return serverIPList;\n    }\n\n    function addOrUpdatePlayer(\n        address _address,\n        string memory _steamID,\n        string memory _playerName,\n        uint256 _oracleKeyIndex1, // Revert for new players if this is 0\n        uint256 _oracleKeyIndex2,\n        address _rewardAddress\n    ) \n        public \n    {\n        require(msg.sender == onrampContract, \"Only the onramp contract can add/update players\");\n        require(anonIDContract.isWhitelisted(_address), \"Address not whitelisted in AnonID\");\n\n        Player storage player = playerData[_address];\n        if (player.isRegistered) {\n            // Update existing player data\n            player.steamID = _steamID;\n            player.playerName = _playerName;\n            if (_rewardAddress != address(0)) {\n                player.rewardAddress = _rewardAddress;\n            }\n            else player.rewardAddress = _address;\n            // If _oracleKeyIndex is not 0, update the oracleKeyIndex. Otherwise, leave it unchanged.\n            if (_oracleKeyIndex1 != 0) {\n                player.oracleKeyIndex1 = _oracleKeyIndex1;\n            }\n            if (_oracleKeyIndex2 != 0) {\n                player.oracleKeyIndex2 = _oracleKeyIndex2;\n            }\n            // No additional action required for existing players with _oracleKeyIndex = 0\n        } else {\n            // For a new player, revert the transaction if _oracleKeyIndex is 0\n            require(_oracleKeyIndex1 != 0 || _oracleKeyIndex2 != 0, \"Oracle key index cannot be zero for new players\");\n\n            // Since we're here, _oracleKeyIndex is guaranteed not to be 0\n            playerData[_address] = Player({\n                steamID: _steamID,\n                isValidator: false,\n                isRegistered: true,\n                rewardAddress: _address,\n                playerName: _playerName,\n                isModerator: false,\n                isTourneyMod: false,\n                isGameAdmin: false,\n                isOnboardQueuer: false,\n                isOnboardRegistrar: false,\n                forumKey: 0,\n                oracleKeyIndex1: _oracleKeyIndex1, // Directly set the provided index\n                oracleKeyIndex2: _oracleKeyIndex2,\n                lastMintTime: block.timestamp // Initialize lastMintTime to the current timestamp for new players\n            });\n            playerAddresses.push(_address);\n        }\n    }\n\n    function deletePlayer(address _address) public {\n        require(msg.sender == onrampContract, \"Only the onramp contract can delete players\");\n\n        delete playerData[_address]; // Remove player data from mapping\n\n        // Find and remove address from playerAddresses array\n        for (uint i = 0; i < playerAddresses.length; i++) {\n            if (playerAddresses[i] == _address) {\n                playerAddresses[i] = playerAddresses[playerAddresses.length - 1]; // Swap with the last element\n                playerAddresses.pop(); // Remove the last element\n                break;\n            }\n        }\n    }\n\n    function getAllPlayerNames() public view returns (string[] memory) {\n        string[] memory playerNames = new string[](playerAddresses.length);\n\n        for (uint i = 0; i < playerAddresses.length; i++) {\n            Player storage player = playerData[playerAddresses[i]];\n            playerNames[i] = player.playerName;\n        }\n\n        return playerNames;\n    }\n\n    function updateAnonIDContractAddressStepOne(\n        bytes32[2][256] calldata currentpub,\n        bytes[256] calldata sig,\n        bytes32 nextPKH,\n        address _anonIDContract\n    ) public {\n        // Encode the new contract address to bytes\n        bytes memory prepacked = abi.encodePacked(_anonIDContract);\n\n        // Directly call performLamportMasterCheck\n        bool isAuthorized = lamportBase.performLamportMasterCheck(currentpub, sig, nextPKH, prepacked);\n        \n        // Ensure that the Lamport Master Check passed\n        require(isAuthorized, \"LamportBase: Authorization failed\");\n\n        // Save the proposed AnonID contract address in a global variable\n        proposedAnonIDContractAddresses[msg.sender] = _anonIDContract;\n        lastUsedNextPKH = nextPKH;\n    }\n\n    function updateAnonIDContractAddressStepTwo(\n        bytes32[2][256] calldata currentpub,\n        bytes[256] calldata sig,\n        bytes32 nextPKH,\n        address _anonIDContract\n    ) public {\n        // Encode the new contract address to bytes\n        bytes memory prepacked = abi.encodePacked(_anonIDContract);\n\n        // Check that the proposed contract address matches the address in the current call\n        require(proposedAnonIDContractAddresses[msg.sender] == _anonIDContract, \"Proposed AnonID contract address mismatch\");\n\n        // Check if the used NextPKH matches the last used PKH to prevent replay with the same keys\n        bytes32 currentPKH = keccak256(abi.encodePacked(currentpub));\n        require(lastUsedNextPKH != currentPKH, \"LamportBase: PKH matches last used PKH (use separate second key)\");\n        // Perform the Lamport Master Check again\n        bool isAuthorized = lamportBase.performLamportMasterCheck(currentpub, sig, nextPKH, prepacked);\n\n        // Ensure that the Lamport Master Check passed\n        require(isAuthorized, \"LamportBase: Authorization failed\");\n        \n        // Update the AnonID contract address\n        anonIDContract = IAnonID(_anonIDContract);\n        emit AnonIDContractUpdated(_anonIDContract);\n\n        // Clear the temporary storage\n        delete proposedAnonIDContractAddresses[msg.sender];\n        lastUsedNextPKH = bytes32(0);\n    }\n\n    function updateGameValContractAddressStepOne(\n        bytes32[2][256] calldata currentpub,\n        bytes[256] calldata sig,\n        bytes32 nextPKH,\n        address _gameValContract\n    ) public {\n        // Encode the new contract address to bytes for the Lamport check\n        bytes memory prepacked = abi.encodePacked(_gameValContract);\n\n        // Directly call performLamportMasterCheck from lamportBase\n        bool isAuthorized = lamportBase.performLamportMasterCheck(currentpub, sig, nextPKH, prepacked);\n        \n        // Ensure that the Lamport Master Check passed\n        require(isAuthorized, \"Authorization failed for proposed GameVal contract address\");\n\n        // Store the proposed GameVal contract address for the sender\n        proposedGameValContractAddresses[msg.sender] = _gameValContract;\n        lastUsedNextPKH = nextPKH;\n    }\n\n    function updateGameValContractAddressStepTwo(\n        bytes32[2][256] calldata currentpub,\n        bytes[256] calldata sig,\n        bytes32 nextPKH,\n        address _gameValContract\n    ) public {\n        // Encode the new contract address to bytes for the Lamport check\n        bytes memory prepacked = abi.encodePacked(_gameValContract);\n\n        // Perform the Lamport Master Check again\n\n        // Check that the proposed contract address matches the address being confirmed\n        require(proposedGameValContractAddresses[msg.sender] == _gameValContract, \"Proposed GameVal contract address mismatch\");\n\n        // Check if the used NextPKH matches the last used PKH to ensure a different key is used\n        bytes32 currentPKH = keccak256(abi.encodePacked(currentpub));\n        require(lastUsedNextPKH != currentPKH, \"Same PKH used for both steps; use a separate key for confirmation\");\n        bool isAuthorized = lamportBase.performLamportMasterCheck(currentpub, sig, nextPKH, prepacked);\n\n        // Ensure that the Lamport Master Check passed\n        require(isAuthorized, \"Authorization failed on confirmation of GameVal contract address\");\n\n        // Update the GameVal contract address\n        gameValContract = _gameValContract;\n        emit GameValContractUpdated(_gameValContract);\n\n        // Clear the temporary storage\n        delete proposedGameValContractAddresses[msg.sender];\n        lastUsedNextPKH = bytes32(0);\n    }\n\n    function updateOnrampContractAddressStepOne(\n        bytes32[2][256] calldata currentpub,\n        bytes[256] calldata sig,\n        bytes32 nextPKH,\n        address _onrampContract\n    ) public {\n        // Encode the new contract address to bytes for the Lamport check\n        bytes memory prepacked = abi.encodePacked(_onrampContract);\n\n        // Perform the Lamport Master Check directly calling lamportBase\n        bool isAuthorized = lamportBase.performLamportMasterCheck(currentpub, sig, nextPKH, prepacked);\n        \n        // Ensure that the Lamport Master Check passed\n        require(isAuthorized, \"Authorization failed for updating Onramp contract address\");\n\n        // Temporarily store the proposed Onramp contract address for the sender\n        proposedOnrampContractAddresses[msg.sender] = _onrampContract;\n        lastUsedNextPKH = nextPKH;\n    }\n\n    function updateOnrampContractAddressStepTwo(\n        bytes32[2][256] calldata currentpub,\n        bytes[256] calldata sig,\n        bytes32 nextPKH,\n        address _onrampContract\n    ) public {\n        // Encode the new contract address to bytes for the Lamport check\n        bytes memory prepacked = abi.encodePacked(_onrampContract);\n\n        // Perform the Lamport Master Check again\n\n        // Verify that the proposed contract address matches the address being confirmed\n        require(proposedOnrampContractAddresses[msg.sender] == _onrampContract, \"Onramp contract address update mismatch\");\n\n        // Ensure a different key is used for the confirmation step\n        bytes32 currentPKH = keccak256(abi.encodePacked(currentpub));\n        require(lastUsedNextPKH != currentPKH, \"Same PKH used for both steps; use a separate key for confirmation\");\n        bool isAuthorized = lamportBase.performLamportMasterCheck(currentpub, sig, nextPKH, prepacked);\n\n        // Ensure that the Lamport Master Check passed\n        require(isAuthorized, \"Authorization failed on confirmation of Onramp contract address update\");\n\n        // Officially update the Onramp contract address\n        onrampContract = _onrampContract;\n        emit OnrampContractUpdated(_onrampContract);\n\n        // Clear the temporary storage\n        delete proposedOnrampContractAddresses[msg.sender];\n        lastUsedNextPKH = bytes32(0);\n    }\n\n    function updateForumContractAddressStepOne(\n        bytes32[2][256] calldata currentpub,\n        bytes[256] calldata sig,\n        bytes32 nextPKH,\n        address _forumContract\n    ) public {\n        // Encode the new contract address to bytes for the Lamport check\n        bytes memory prepacked = abi.encodePacked(_forumContract);\n\n        // Perform the Lamport Master Check directly calling lamportBase\n        bool isAuthorized = lamportBase.performLamportMasterCheck(currentpub, sig, nextPKH, prepacked);\n        \n        // Ensure that the Lamport Master Check passed\n        require(isAuthorized, \"Authorization failed for proposed update of Forum contract address\");\n\n        // Temporarily store the proposed Forum contract address for the sender\n        proposedForumContractAddresses[msg.sender] = _forumContract;\n        lastUsedNextPKH = nextPKH;\n    }\n\n    function updateForumContractAddressStepTwo(\n        bytes32[2][256] calldata currentpub,\n        bytes[256] calldata sig,\n        bytes32 nextPKH,\n        address _forumContract\n    ) public {\n        // Encode the new contract address to bytes for the Lamport check\n        bytes memory prepacked = abi.encodePacked(_forumContract);\n\n        // Perform the Lamport Master Check again\n\n        // Verify that the proposed contract address matches the address being confirmed\n        require(proposedForumContractAddresses[msg.sender] == _forumContract, \"Forum contract address update mismatch\");\n\n        // Ensure a different key is used for the confirmation step\n        bytes32 currentPKH = keccak256(abi.encodePacked(currentpub));\n        require(lastUsedNextPKH != currentPKH, \"Same PKH used for both steps; use a separate key for confirmation\");\n        bool isAuthorized = lamportBase.performLamportMasterCheck(currentpub, sig, nextPKH, prepacked);\n\n        // Ensure that the Lamport Master Check passed\n        require(isAuthorized, \"Authorization failed on confirmation of Forum contract address update\");\n\n        // Officially update the Forum contract address\n        forumContract = _forumContract;\n        emit ForumContractUpdated(_forumContract);\n\n        // Clear the temporary storage\n        delete proposedForumContractAddresses[msg.sender];\n        lastUsedNextPKH = bytes32(0);\n    }\n\n    function setModeratorStatus(address _player, bool _status) external {\n        require(msg.sender == forumContract, \"Only the forum contract can modify moderator status\");\n        playerData[_player].isModerator = _status;\n    }\n\n    function setTourneyModStatus(address _player, bool _status) external {\n        require(msg.sender == forumContract, \"Only the forum contract can modify tournament moderator status\");\n        playerData[_player].isTourneyMod = _status;\n    }\n\n    function setForumKey(address _player, bytes32 _key) external {\n        require(msg.sender == forumContract, \"Only the forum contract can set forum key\");\n        playerData[_player].forumKey = _key;\n    }\n\n    function setGameAdminStatus(address admin, bool status) external {\n        require(msg.sender == onrampContract, \"Only the onramp contract can change Admin status\");\n        playerData[admin].isGameAdmin = status;\n    }\n\n    function setValidatorStatus(address validator, bool status) external {\n        require(msg.sender == onrampContract, \"Only the onramp contract can change Game Validator status\");\n        playerData[validator].isValidator = status;\n    }\n    \n    function setOnboardQueuerStatus(address oracle, bool status) external {\n        require(msg.sender == onrampContract, \"Only the onramp contract can change Onboard Queuer status\");\n        playerData[oracle].isOnboardQueuer = status;\n    }\n    \n    function setOnboardRegistrarStatus(address oracle, bool status) external {\n        require(msg.sender == onrampContract, \"Only the onramp contract can change Onboard Registrar Status\");\n        playerData[oracle].isOnboardRegistrar = status;\n    }\n}\n",
  "sourcePath": "contracts/5_Activity_PlayerDatabase3.sol",
  "type": "contract"
}