{
  "abi": [
    {
      "inputs": [
        {
          "internalType": "address",
          "name": "_systemContractAddress",
          "type": "address"
        }
      ],
      "stateMutability": "nonpayable",
      "type": "constructor"
    },
    {
      "anonymous": false,
      "inputs": [
        {
          "indexed": false,
          "internalType": "string",
          "name": "action",
          "type": "string"
        },
        {
          "indexed": false,
          "internalType": "string",
          "name": "error",
          "type": "string"
        }
      ],
      "name": "ErrorCaught",
      "type": "event"
    },
    {
      "anonymous": false,
      "inputs": [
        {
          "indexed": false,
          "internalType": "bool",
          "name": "success",
          "type": "bool"
        },
        {
          "indexed": false,
          "internalType": "string",
          "name": "message",
          "type": "string"
        }
      ],
      "name": "OperationResult",
      "type": "event"
    },
    {
      "inputs": [
        {
          "internalType": "address",
          "name": "_address",
          "type": "address"
        },
        {
          "internalType": "string",
          "name": "anonID",
          "type": "string"
        }
      ],
      "name": "addAddressToWhitelist",
      "outputs": [],
      "stateMutability": "nonpayable",
      "type": "function"
    },
    {
      "inputs": [
        {
          "internalType": "address",
          "name": "user",
          "type": "address"
        },
        {
          "internalType": "uint256",
          "name": "_minutes",
          "type": "uint256"
        }
      ],
      "name": "addMinutesPlayed",
      "outputs": [],
      "stateMutability": "nonpayable",
      "type": "function"
    },
    {
      "inputs": [
        {
          "internalType": "address",
          "name": "_address",
          "type": "address"
        }
      ],
      "name": "removeAddressFromWhitelist",
      "outputs": [],
      "stateMutability": "nonpayable",
      "type": "function"
    }
  ],
  "bytecode": "6080604052348015600f57600080fd5b50604051610b05380380610b05833981016040819052602c916050565b600080546001600160a01b0319166001600160a01b0392909216919091179055607e565b600060208284031215606157600080fd5b81516001600160a01b0381168114607757600080fd5b9392505050565b610a788061008d6000396000f3fe608060405234801561001057600080fd5b50600436106100415760003560e01c806306d6e51e14610046578063286dd3f51461005b578063e6d4d2171461006e575b600080fd5b610059610054366004610626565b610081565b005b610059610069366004610650565b61026c565b61005961007c3660046106b5565b61044c565b60005460405163d47b2e9960e01b81526001600160a01b038481166004830152602482018490529091169063d47b2e9990604401600060405180830381600087803b1580156100cf57600080fd5b505af19250505080156100e0575060015b61020b576100ec61075f565b806308c379a00361015d575061010061077b565b8061010b575061015f565b600080516020610a2383398151915260008260405161012b92919061084b565b60405180910390a1600080516020610a0383398151915281604051610150919061086e565b60405180910390a1505050565b505b600080516020610a2383398151915260006040516101dc9115158152604060208201819052603e908201527f696e6372656d656e744d696e75746573506c61796564206661696c656420776960608201527f74686f757420612073706563696669632072657665727420726561736f6e0000608082015260a00190565b60405180910390a1600080516020610a038339815191526040516101ff906108b0565b60405180910390a15050565b600080516020610a2383398151915260016040516101ff91151581526040602082018190526021908201527f4d696e7574657320706c61796564206164646564207375636365737366756c6c6060820152607960f81b608082015260a00190565b600054604051638ab1d68160e01b81526001600160a01b03838116600483015290911690638ab1d68190602401600060405180830381600087803b1580156102b357600080fd5b505af19250505080156102c4575060015b6103e1576102d061075f565b806308c379a00361033457506102e461077b565b806102ef5750610336565b600080516020610a2383398151915260008260405161030f92919061084b565b60405180910390a1600080516020610a03833981519152816040516101ff919061090e565b505b600080516020610a2383398151915260006040516103b39115158152604060208201819052603b908201527f72656d6f766546726f6d57686974656c697374206661696c656420776974686f60608201527f757420612073706563696669632072657665727420726561736f6e0000000000608082015260a00190565b60405180910390a1600080516020610a038339815191526040516103d690610941565b60405180910390a150565b600080516020610a2383398151915260016040516103d69115158152604060208201819052602b908201527f41646472657373207375636365737366756c6c792072656d6f7665642066726f60608201526a1b481dda1a5d195b1a5cdd60aa1b608082015260a00190565b600054604051630d299ed560e11b81526001600160a01b0390911690631a533daa9061047e9085908590600401610974565b600060405180830381600087803b15801561049857600080fd5b505af19250505080156104a9575060015b6105b4576104b561075f565b806308c379a00361051957506104c961077b565b806104d4575061051b565b600080516020610a238339815191526000826040516104f492919061084b565b60405180910390a1600080516020610a03833981519152816040516101509190610998565b505b600080516020610a23833981519152600060405161059191151581526040602082018190526036908201527f616464546f57686974656c697374206661696c656420776974686f757420612060608201527539b832b1b4b334b1903932bb32b93a103932b0b9b7b760511b608082015260a00190565b60405180910390a1600080516020610a038339815191526040516101ff906109cd565b600080516020610a2383398151915260016040516101ff911515815260406020808301829052908201527f41646472657373207375636365737366756c6c792077686974656c6973746564606082015260800190565b80356001600160a01b038116811461062157600080fd5b919050565b6000806040838503121561063957600080fd5b6106428361060a565b946020939093013593505050565b60006020828403121561066257600080fd5b61066b8261060a565b9392505050565b634e487b7160e01b600052604160045260246000fd5b601f8201601f1916810167ffffffffffffffff811182821017156106ae576106ae610672565b6040525050565b600080604083850312156106c857600080fd5b6106d18361060a565b915060208084013567ffffffffffffffff808211156106ef57600080fd5b818601915086601f83011261070357600080fd5b81358181111561071557610715610672565b604051915061072d601f8201601f1916850183610688565b808252878482850101111561074157600080fd5b80848401858401376000848284010152508093505050509250929050565b600060033d11156107785760046000803e5060005160e01c5b90565b600060443d10156107895790565b6040516003193d81016004833e81513d67ffffffffffffffff81602484011181841117156107b957505050505090565b82850191508151818111156107d15750505050505090565b843d87010160208285010111156107eb5750505050505090565b6107fa60208286010187610688565b509095945050505050565b6000815180845260005b8181101561082b5760208185018101518683018201520161080f565b506000602082860101526020601f19601f83011685010191505092915050565b82151581526040602082015260006108666040830184610805565b949350505050565b60408152600061089e60408301601081526f185919135a5b9d5d195cd41b185e595960821b602082015260400190565b82810360208401526108668185610805565b6040815260006108e060408301601081526f185919135a5b9d5d195cd41b185e595960821b602082015260400190565b828103602084015261066b81600f81526e556e6b6e6f776e206661696c75726560881b602082015260400190565b60408152600061089e6040830160138152721c995b5bdd99519c9bdb55da1a5d195b1a5cdd606a1b602082015260400190565b6040815260006108e06040830160138152721c995b5bdd99519c9bdb55da1a5d195b1a5cdd606a1b602082015260400190565b6001600160a01b038316815260406020820181905260009061086690830184610805565b60408152600061089e6040830160158152741859191059191c995cdcd51bd5da1a5d195b1a5cdd605a1b602082015260400190565b6040815260006108e06040830160158152741859191059191c995cdcd51bd5da1a5d195b1a5cdd605a1b60208201526040019056fef00fda5e9c179d3911a7894f0560c8ebfa4926cbcc2cf5169adb000b440cc9a4d353110df4eda5869325be482c3fdd2f26ccbccc779d11b2d7afac5c7c5eb19da264697066735822122050ff6d71219ce7c898c3376389ccaba4d8d9e7bd0cf6bb937c58d0a8160669f564736f6c63430008190033",
  "bytecodeSha1": "c930345e161ba69f09dc1930039feef0b3359de9",
  "compiler": {
    "evm_version": "istanbul",
    "optimizer": {
      "enabled": true,
      "runs": 200
    },
    "version": "0.8.25+commit.b61c2a91"
  },
  "contractName": "Whitelist",
  "language": "Solidity",
  "natspec": {
    "kind": "dev",
    "methods": {},
    "version": 1
  },
  "opcodes": "PUSH1 0x80 PUSH1 0x40 MSTORE CALLVALUE DUP1 ISZERO PUSH2 0x10 JUMPI PUSH1 0x0 DUP1 REVERT JUMPDEST POP PUSH1 0x4 CALLDATASIZE LT PUSH2 0x41 JUMPI PUSH1 0x0 CALLDATALOAD PUSH1 0xE0 SHR DUP1 PUSH4 0x6D6E51E EQ PUSH2 0x46 JUMPI DUP1 PUSH4 0x286DD3F5 EQ PUSH2 0x5B JUMPI DUP1 PUSH4 0xE6D4D217 EQ PUSH2 0x6E JUMPI JUMPDEST PUSH1 0x0 DUP1 REVERT JUMPDEST PUSH2 0x59 PUSH2 0x54 CALLDATASIZE PUSH1 0x4 PUSH2 0x626 JUMP JUMPDEST PUSH2 0x81 JUMP JUMPDEST STOP JUMPDEST PUSH2 0x59 PUSH2 0x69 CALLDATASIZE PUSH1 0x4 PUSH2 0x650 JUMP JUMPDEST PUSH2 0x26C JUMP JUMPDEST PUSH2 0x59 PUSH2 0x7C CALLDATASIZE PUSH1 0x4 PUSH2 0x6B5 JUMP JUMPDEST PUSH2 0x44C JUMP JUMPDEST PUSH1 0x0 SLOAD PUSH1 0x40 MLOAD PUSH4 0xD47B2E99 PUSH1 0xE0 SHL DUP2 MSTORE PUSH1 0x1 PUSH1 0x1 PUSH1 0xA0 SHL SUB DUP5 DUP2 AND PUSH1 0x4 DUP4 ADD MSTORE PUSH1 0x24 DUP3 ADD DUP5 SWAP1 MSTORE SWAP1 SWAP2 AND SWAP1 PUSH4 0xD47B2E99 SWAP1 PUSH1 0x44 ADD PUSH1 0x0 PUSH1 0x40 MLOAD DUP1 DUP4 SUB DUP2 PUSH1 0x0 DUP8 DUP1 EXTCODESIZE ISZERO DUP1 ISZERO PUSH2 0xCF JUMPI PUSH1 0x0 DUP1 REVERT JUMPDEST POP GAS CALL SWAP3 POP POP POP DUP1 ISZERO PUSH2 0xE0 JUMPI POP PUSH1 0x1 JUMPDEST PUSH2 0x20B JUMPI PUSH2 0xEC PUSH2 0x75F JUMP JUMPDEST DUP1 PUSH4 0x8C379A0 SUB PUSH2 0x15D JUMPI POP PUSH2 0x100 PUSH2 0x77B JUMP JUMPDEST DUP1 PUSH2 0x10B JUMPI POP PUSH2 0x15F JUMP JUMPDEST PUSH1 0x0 DUP1 MLOAD PUSH1 0x20 PUSH2 0xA23 DUP4 CODECOPY DUP2 MLOAD SWAP2 MSTORE PUSH1 0x0 DUP3 PUSH1 0x40 MLOAD PUSH2 0x12B SWAP3 SWAP2 SWAP1 PUSH2 0x84B JUMP JUMPDEST PUSH1 0x40 MLOAD DUP1 SWAP2 SUB SWAP1 LOG1 PUSH1 0x0 DUP1 MLOAD PUSH1 0x20 PUSH2 0xA03 DUP4 CODECOPY DUP2 MLOAD SWAP2 MSTORE DUP2 PUSH1 0x40 MLOAD PUSH2 0x150 SWAP2 SWAP1 PUSH2 0x86E JUMP JUMPDEST PUSH1 0x40 MLOAD DUP1 SWAP2 SUB SWAP1 LOG1 POP POP POP JUMP JUMPDEST POP JUMPDEST PUSH1 0x0 DUP1 MLOAD PUSH1 0x20 PUSH2 0xA23 DUP4 CODECOPY DUP2 MLOAD SWAP2 MSTORE PUSH1 0x0 PUSH1 0x40 MLOAD PUSH2 0x1DC SWAP2 ISZERO ISZERO DUP2 MSTORE PUSH1 0x40 PUSH1 0x20 DUP3 ADD DUP2 SWAP1 MSTORE PUSH1 0x3E SWAP1 DUP3 ADD MSTORE PUSH32 0x696E6372656D656E744D696E75746573506C61796564206661696C6564207769 PUSH1 0x60 DUP3 ADD MSTORE PUSH32 0x74686F757420612073706563696669632072657665727420726561736F6E0000 PUSH1 0x80 DUP3 ADD MSTORE PUSH1 0xA0 ADD SWAP1 JUMP JUMPDEST PUSH1 0x40 MLOAD DUP1 SWAP2 SUB SWAP1 LOG1 PUSH1 0x0 DUP1 MLOAD PUSH1 0x20 PUSH2 0xA03 DUP4 CODECOPY DUP2 MLOAD SWAP2 MSTORE PUSH1 0x40 MLOAD PUSH2 0x1FF SWAP1 PUSH2 0x8B0 JUMP JUMPDEST PUSH1 0x40 MLOAD DUP1 SWAP2 SUB SWAP1 LOG1 POP POP JUMP JUMPDEST PUSH1 0x0 DUP1 MLOAD PUSH1 0x20 PUSH2 0xA23 DUP4 CODECOPY DUP2 MLOAD SWAP2 MSTORE PUSH1 0x1 PUSH1 0x40 MLOAD PUSH2 0x1FF SWAP2 ISZERO ISZERO DUP2 MSTORE PUSH1 0x40 PUSH1 0x20 DUP3 ADD DUP2 SWAP1 MSTORE PUSH1 0x21 SWAP1 DUP3 ADD MSTORE PUSH32 0x4D696E7574657320706C61796564206164646564207375636365737366756C6C PUSH1 0x60 DUP3 ADD MSTORE PUSH1 0x79 PUSH1 0xF8 SHL PUSH1 0x80 DUP3 ADD MSTORE PUSH1 0xA0 ADD SWAP1 JUMP JUMPDEST PUSH1 0x0 SLOAD PUSH1 0x40 MLOAD PUSH4 0x8AB1D681 PUSH1 0xE0 SHL DUP2 MSTORE PUSH1 0x1 PUSH1 0x1 PUSH1 0xA0 SHL SUB DUP4 DUP2 AND PUSH1 0x4 DUP4 ADD MSTORE SWAP1 SWAP2 AND SWAP1 PUSH4 0x8AB1D681 SWAP1 PUSH1 0x24 ADD PUSH1 0x0 PUSH1 0x40 MLOAD DUP1 DUP4 SUB DUP2 PUSH1 0x0 DUP8 DUP1 EXTCODESIZE ISZERO DUP1 ISZERO PUSH2 0x2B3 JUMPI PUSH1 0x0 DUP1 REVERT JUMPDEST POP GAS CALL SWAP3 POP POP POP DUP1 ISZERO PUSH2 0x2C4 JUMPI POP PUSH1 0x1 JUMPDEST PUSH2 0x3E1 JUMPI PUSH2 0x2D0 PUSH2 0x75F JUMP JUMPDEST DUP1 PUSH4 0x8C379A0 SUB PUSH2 0x334 JUMPI POP PUSH2 0x2E4 PUSH2 0x77B JUMP JUMPDEST DUP1 PUSH2 0x2EF JUMPI POP PUSH2 0x336 JUMP JUMPDEST PUSH1 0x0 DUP1 MLOAD PUSH1 0x20 PUSH2 0xA23 DUP4 CODECOPY DUP2 MLOAD SWAP2 MSTORE PUSH1 0x0 DUP3 PUSH1 0x40 MLOAD PUSH2 0x30F SWAP3 SWAP2 SWAP1 PUSH2 0x84B JUMP JUMPDEST PUSH1 0x40 MLOAD DUP1 SWAP2 SUB SWAP1 LOG1 PUSH1 0x0 DUP1 MLOAD PUSH1 0x20 PUSH2 0xA03 DUP4 CODECOPY DUP2 MLOAD SWAP2 MSTORE DUP2 PUSH1 0x40 MLOAD PUSH2 0x1FF SWAP2 SWAP1 PUSH2 0x90E JUMP JUMPDEST POP JUMPDEST PUSH1 0x0 DUP1 MLOAD PUSH1 0x20 PUSH2 0xA23 DUP4 CODECOPY DUP2 MLOAD SWAP2 MSTORE PUSH1 0x0 PUSH1 0x40 MLOAD PUSH2 0x3B3 SWAP2 ISZERO ISZERO DUP2 MSTORE PUSH1 0x40 PUSH1 0x20 DUP3 ADD DUP2 SWAP1 MSTORE PUSH1 0x3B SWAP1 DUP3 ADD MSTORE PUSH32 0x72656D6F766546726F6D57686974656C697374206661696C656420776974686F PUSH1 0x60 DUP3 ADD MSTORE PUSH32 0x757420612073706563696669632072657665727420726561736F6E0000000000 PUSH1 0x80 DUP3 ADD MSTORE PUSH1 0xA0 ADD SWAP1 JUMP JUMPDEST PUSH1 0x40 MLOAD DUP1 SWAP2 SUB SWAP1 LOG1 PUSH1 0x0 DUP1 MLOAD PUSH1 0x20 PUSH2 0xA03 DUP4 CODECOPY DUP2 MLOAD SWAP2 MSTORE PUSH1 0x40 MLOAD PUSH2 0x3D6 SWAP1 PUSH2 0x941 JUMP JUMPDEST PUSH1 0x40 MLOAD DUP1 SWAP2 SUB SWAP1 LOG1 POP JUMP JUMPDEST PUSH1 0x0 DUP1 MLOAD PUSH1 0x20 PUSH2 0xA23 DUP4 CODECOPY DUP2 MLOAD SWAP2 MSTORE PUSH1 0x1 PUSH1 0x40 MLOAD PUSH2 0x3D6 SWAP2 ISZERO ISZERO DUP2 MSTORE PUSH1 0x40 PUSH1 0x20 DUP3 ADD DUP2 SWAP1 MSTORE PUSH1 0x2B SWAP1 DUP3 ADD MSTORE PUSH32 0x41646472657373207375636365737366756C6C792072656D6F7665642066726F PUSH1 0x60 DUP3 ADD MSTORE PUSH11 0x1B481DDA1A5D195B1A5CDD PUSH1 0xAA SHL PUSH1 0x80 DUP3 ADD MSTORE PUSH1 0xA0 ADD SWAP1 JUMP JUMPDEST PUSH1 0x0 SLOAD PUSH1 0x40 MLOAD PUSH4 0xD299ED5 PUSH1 0xE1 SHL DUP2 MSTORE PUSH1 0x1 PUSH1 0x1 PUSH1 0xA0 SHL SUB SWAP1 SWAP2 AND SWAP1 PUSH4 0x1A533DAA SWAP1 PUSH2 0x47E SWAP1 DUP6 SWAP1 DUP6 SWAP1 PUSH1 0x4 ADD PUSH2 0x974 JUMP JUMPDEST PUSH1 0x0 PUSH1 0x40 MLOAD DUP1 DUP4 SUB DUP2 PUSH1 0x0 DUP8 DUP1 EXTCODESIZE ISZERO DUP1 ISZERO PUSH2 0x498 JUMPI PUSH1 0x0 DUP1 REVERT JUMPDEST POP GAS CALL SWAP3 POP POP POP DUP1 ISZERO PUSH2 0x4A9 JUMPI POP PUSH1 0x1 JUMPDEST PUSH2 0x5B4 JUMPI PUSH2 0x4B5 PUSH2 0x75F JUMP JUMPDEST DUP1 PUSH4 0x8C379A0 SUB PUSH2 0x519 JUMPI POP PUSH2 0x4C9 PUSH2 0x77B JUMP JUMPDEST DUP1 PUSH2 0x4D4 JUMPI POP PUSH2 0x51B JUMP JUMPDEST PUSH1 0x0 DUP1 MLOAD PUSH1 0x20 PUSH2 0xA23 DUP4 CODECOPY DUP2 MLOAD SWAP2 MSTORE PUSH1 0x0 DUP3 PUSH1 0x40 MLOAD PUSH2 0x4F4 SWAP3 SWAP2 SWAP1 PUSH2 0x84B JUMP JUMPDEST PUSH1 0x40 MLOAD DUP1 SWAP2 SUB SWAP1 LOG1 PUSH1 0x0 DUP1 MLOAD PUSH1 0x20 PUSH2 0xA03 DUP4 CODECOPY DUP2 MLOAD SWAP2 MSTORE DUP2 PUSH1 0x40 MLOAD PUSH2 0x150 SWAP2 SWAP1 PUSH2 0x998 JUMP JUMPDEST POP JUMPDEST PUSH1 0x0 DUP1 MLOAD PUSH1 0x20 PUSH2 0xA23 DUP4 CODECOPY DUP2 MLOAD SWAP2 MSTORE PUSH1 0x0 PUSH1 0x40 MLOAD PUSH2 0x591 SWAP2 ISZERO ISZERO DUP2 MSTORE PUSH1 0x40 PUSH1 0x20 DUP3 ADD DUP2 SWAP1 MSTORE PUSH1 0x36 SWAP1 DUP3 ADD MSTORE PUSH32 0x616464546F57686974656C697374206661696C656420776974686F7574206120 PUSH1 0x60 DUP3 ADD MSTORE PUSH22 0x39B832B1B4B334B1903932BB32B93A103932B0B9B7B7 PUSH1 0x51 SHL PUSH1 0x80 DUP3 ADD MSTORE PUSH1 0xA0 ADD SWAP1 JUMP JUMPDEST PUSH1 0x40 MLOAD DUP1 SWAP2 SUB SWAP1 LOG1 PUSH1 0x0 DUP1 MLOAD PUSH1 0x20 PUSH2 0xA03 DUP4 CODECOPY DUP2 MLOAD SWAP2 MSTORE PUSH1 0x40 MLOAD PUSH2 0x1FF SWAP1 PUSH2 0x9CD JUMP JUMPDEST PUSH1 0x0 DUP1 MLOAD PUSH1 0x20 PUSH2 0xA23 DUP4 CODECOPY DUP2 MLOAD SWAP2 MSTORE PUSH1 0x1 PUSH1 0x40 MLOAD PUSH2 0x1FF SWAP2 ISZERO ISZERO DUP2 MSTORE PUSH1 0x40 PUSH1 0x20 DUP1 DUP4 ADD DUP3 SWAP1 MSTORE SWAP1 DUP3 ADD MSTORE PUSH32 0x41646472657373207375636365737366756C6C792077686974656C6973746564 PUSH1 0x60 DUP3 ADD MSTORE PUSH1 0x80 ADD SWAP1 JUMP JUMPDEST DUP1 CALLDATALOAD PUSH1 0x1 PUSH1 0x1 PUSH1 0xA0 SHL SUB DUP2 AND DUP2 EQ PUSH2 0x621 JUMPI PUSH1 0x0 DUP1 REVERT JUMPDEST SWAP2 SWAP1 POP JUMP JUMPDEST PUSH1 0x0 DUP1 PUSH1 0x40 DUP4 DUP6 SUB SLT ISZERO PUSH2 0x639 JUMPI PUSH1 0x0 DUP1 REVERT JUMPDEST PUSH2 0x642 DUP4 PUSH2 0x60A JUMP JUMPDEST SWAP5 PUSH1 0x20 SWAP4 SWAP1 SWAP4 ADD CALLDATALOAD SWAP4 POP POP POP JUMP JUMPDEST PUSH1 0x0 PUSH1 0x20 DUP3 DUP5 SUB SLT ISZERO PUSH2 0x662 JUMPI PUSH1 0x0 DUP1 REVERT JUMPDEST PUSH2 0x66B DUP3 PUSH2 0x60A JUMP JUMPDEST SWAP4 SWAP3 POP POP POP JUMP JUMPDEST PUSH4 0x4E487B71 PUSH1 0xE0 SHL PUSH1 0x0 MSTORE PUSH1 0x41 PUSH1 0x4 MSTORE PUSH1 0x24 PUSH1 0x0 REVERT JUMPDEST PUSH1 0x1F DUP3 ADD PUSH1 0x1F NOT AND DUP2 ADD PUSH8 0xFFFFFFFFFFFFFFFF DUP2 GT DUP3 DUP3 LT OR ISZERO PUSH2 0x6AE JUMPI PUSH2 0x6AE PUSH2 0x672 JUMP JUMPDEST PUSH1 0x40 MSTORE POP POP JUMP JUMPDEST PUSH1 0x0 DUP1 PUSH1 0x40 DUP4 DUP6 SUB SLT ISZERO PUSH2 0x6C8 JUMPI PUSH1 0x0 DUP1 REVERT JUMPDEST PUSH2 0x6D1 DUP4 PUSH2 0x60A JUMP JUMPDEST SWAP2 POP PUSH1 0x20 DUP1 DUP5 ADD CALLDATALOAD PUSH8 0xFFFFFFFFFFFFFFFF DUP1 DUP3 GT ISZERO PUSH2 0x6EF JUMPI PUSH1 0x0 DUP1 REVERT JUMPDEST DUP2 DUP7 ADD SWAP2 POP DUP7 PUSH1 0x1F DUP4 ADD SLT PUSH2 0x703 JUMPI PUSH1 0x0 DUP1 REVERT JUMPDEST DUP2 CALLDATALOAD DUP2 DUP2 GT ISZERO PUSH2 0x715 JUMPI PUSH2 0x715 PUSH2 0x672 JUMP JUMPDEST PUSH1 0x40 MLOAD SWAP2 POP PUSH2 0x72D PUSH1 0x1F DUP3 ADD PUSH1 0x1F NOT AND DUP6 ADD DUP4 PUSH2 0x688 JUMP JUMPDEST DUP1 DUP3 MSTORE DUP8 DUP5 DUP3 DUP6 ADD ADD GT ISZERO PUSH2 0x741 JUMPI PUSH1 0x0 DUP1 REVERT JUMPDEST DUP1 DUP5 DUP5 ADD DUP6 DUP5 ADD CALLDATACOPY PUSH1 0x0 DUP5 DUP3 DUP5 ADD ADD MSTORE POP DUP1 SWAP4 POP POP POP POP SWAP3 POP SWAP3 SWAP1 POP JUMP JUMPDEST PUSH1 0x0 PUSH1 0x3 RETURNDATASIZE GT ISZERO PUSH2 0x778 JUMPI PUSH1 0x4 PUSH1 0x0 DUP1 RETURNDATACOPY POP PUSH1 0x0 MLOAD PUSH1 0xE0 SHR JUMPDEST SWAP1 JUMP JUMPDEST PUSH1 0x0 PUSH1 0x44 RETURNDATASIZE LT ISZERO PUSH2 0x789 JUMPI SWAP1 JUMP JUMPDEST PUSH1 0x40 MLOAD PUSH1 0x3 NOT RETURNDATASIZE DUP2 ADD PUSH1 0x4 DUP4 RETURNDATACOPY DUP2 MLOAD RETURNDATASIZE PUSH8 0xFFFFFFFFFFFFFFFF DUP2 PUSH1 0x24 DUP5 ADD GT DUP2 DUP5 GT OR ISZERO PUSH2 0x7B9 JUMPI POP POP POP POP POP SWAP1 JUMP JUMPDEST DUP3 DUP6 ADD SWAP2 POP DUP2 MLOAD DUP2 DUP2 GT ISZERO PUSH2 0x7D1 JUMPI POP POP POP POP POP POP SWAP1 JUMP JUMPDEST DUP5 RETURNDATASIZE DUP8 ADD ADD PUSH1 0x20 DUP3 DUP6 ADD ADD GT ISZERO PUSH2 0x7EB JUMPI POP POP POP POP POP POP SWAP1 JUMP JUMPDEST PUSH2 0x7FA PUSH1 0x20 DUP3 DUP7 ADD ADD DUP8 PUSH2 0x688 JUMP JUMPDEST POP SWAP1 SWAP6 SWAP5 POP POP POP POP POP JUMP JUMPDEST PUSH1 0x0 DUP2 MLOAD DUP1 DUP5 MSTORE PUSH1 0x0 JUMPDEST DUP2 DUP2 LT ISZERO PUSH2 0x82B JUMPI PUSH1 0x20 DUP2 DUP6 ADD DUP2 ADD MLOAD DUP7 DUP4 ADD DUP3 ADD MSTORE ADD PUSH2 0x80F JUMP JUMPDEST POP PUSH1 0x0 PUSH1 0x20 DUP3 DUP7 ADD ADD MSTORE PUSH1 0x20 PUSH1 0x1F NOT PUSH1 0x1F DUP4 ADD AND DUP6 ADD ADD SWAP2 POP POP SWAP3 SWAP2 POP POP JUMP JUMPDEST DUP3 ISZERO ISZERO DUP2 MSTORE PUSH1 0x40 PUSH1 0x20 DUP3 ADD MSTORE PUSH1 0x0 PUSH2 0x866 PUSH1 0x40 DUP4 ADD DUP5 PUSH2 0x805 JUMP JUMPDEST SWAP5 SWAP4 POP POP POP POP JUMP JUMPDEST PUSH1 0x40 DUP2 MSTORE PUSH1 0x0 PUSH2 0x89E PUSH1 0x40 DUP4 ADD PUSH1 0x10 DUP2 MSTORE PUSH16 0x185919135A5B9D5D195CD41B185E5959 PUSH1 0x82 SHL PUSH1 0x20 DUP3 ADD MSTORE PUSH1 0x40 ADD SWAP1 JUMP JUMPDEST DUP3 DUP2 SUB PUSH1 0x20 DUP5 ADD MSTORE PUSH2 0x866 DUP2 DUP6 PUSH2 0x805 JUMP JUMPDEST PUSH1 0x40 DUP2 MSTORE PUSH1 0x0 PUSH2 0x8E0 PUSH1 0x40 DUP4 ADD PUSH1 0x10 DUP2 MSTORE PUSH16 0x185919135A5B9D5D195CD41B185E5959 PUSH1 0x82 SHL PUSH1 0x20 DUP3 ADD MSTORE PUSH1 0x40 ADD SWAP1 JUMP JUMPDEST DUP3 DUP2 SUB PUSH1 0x20 DUP5 ADD MSTORE PUSH2 0x66B DUP2 PUSH1 0xF DUP2 MSTORE PUSH15 0x556E6B6E6F776E206661696C757265 PUSH1 0x88 SHL PUSH1 0x20 DUP3 ADD MSTORE PUSH1 0x40 ADD SWAP1 JUMP JUMPDEST PUSH1 0x40 DUP2 MSTORE PUSH1 0x0 PUSH2 0x89E PUSH1 0x40 DUP4 ADD PUSH1 0x13 DUP2 MSTORE PUSH19 0x1C995B5BDD99519C9BDB55DA1A5D195B1A5CDD PUSH1 0x6A SHL PUSH1 0x20 DUP3 ADD MSTORE PUSH1 0x40 ADD SWAP1 JUMP JUMPDEST PUSH1 0x40 DUP2 MSTORE PUSH1 0x0 PUSH2 0x8E0 PUSH1 0x40 DUP4 ADD PUSH1 0x13 DUP2 MSTORE PUSH19 0x1C995B5BDD99519C9BDB55DA1A5D195B1A5CDD PUSH1 0x6A SHL PUSH1 0x20 DUP3 ADD MSTORE PUSH1 0x40 ADD SWAP1 JUMP JUMPDEST PUSH1 0x1 PUSH1 0x1 PUSH1 0xA0 SHL SUB DUP4 AND DUP2 MSTORE PUSH1 0x40 PUSH1 0x20 DUP3 ADD DUP2 SWAP1 MSTORE PUSH1 0x0 SWAP1 PUSH2 0x866 SWAP1 DUP4 ADD DUP5 PUSH2 0x805 JUMP JUMPDEST PUSH1 0x40 DUP2 MSTORE PUSH1 0x0 PUSH2 0x89E PUSH1 0x40 DUP4 ADD PUSH1 0x15 DUP2 MSTORE PUSH21 0x1859191059191C995CDCD51BD5DA1A5D195B1A5CDD PUSH1 0x5A SHL PUSH1 0x20 DUP3 ADD MSTORE PUSH1 0x40 ADD SWAP1 JUMP JUMPDEST PUSH1 0x40 DUP2 MSTORE PUSH1 0x0 PUSH2 0x8E0 PUSH1 0x40 DUP4 ADD PUSH1 0x15 DUP2 MSTORE PUSH21 0x1859191059191C995CDCD51BD5DA1A5D195B1A5CDD PUSH1 0x5A SHL PUSH1 0x20 DUP3 ADD MSTORE PUSH1 0x40 ADD SWAP1 JUMP INVALID CREATE 0xF 0xDA MCOPY SWAP13 OR SWAP14 CODECOPY GT 0xA7 DUP10 0x4F SDIV PUSH1 0xC8 0xEB STATICCALL BLOBHASH 0x26 0xCB 0xCC 0x2C CREATE2 AND SWAP11 0xDB STOP SIGNEXTEND DIFFICULTY 0xC 0xC9 LOG4 0xD3 MSTORE8 GT 0xD DELEGATECALL 0xED 0xA5 DUP7 SWAP4 0x25 0xBE BASEFEE 0x2C EXTCODEHASH 0xDD 0x2F 0x26 0xCC 0xBC 0xCC PUSH24 0x9D11B2D7AFAC5C7C5EB19DA264697066735822122050FF6D PUSH18 0x219CE7C898C3376389CCABA4D8D9E7BD0CF6 0xBB SWAP4 PUSH29 0x58D0A8160669F564736F6C634300081900330000000000000000000000 ",
  "sha1": "3731d43b95614f0b7a63cc22829e6b379e1b5122",
  "source": "// SPDX-License-Identifier: MIT\npragma solidity ^0.8.0;\n\ninterface IAnonIDContract {\n    function addToWhitelist(address _address, string calldata anonID) external;\n    function removeFromWhitelist(address _address) external;\n    function incrementMinutesPlayed(address user, uint256 _minutes) external;\n}\n\ncontract Whitelist {\n    IAnonIDContract anonIDContract;\n\n    event OperationResult(bool success, string message);\n    event ErrorCaught(string action, string error);\n\n    constructor(address _systemContractAddress) {\n        anonIDContract = IAnonIDContract(_systemContractAddress);\n    }\n\n    function addAddressToWhitelist(address _address, string memory anonID) public {\n        try anonIDContract.addToWhitelist(_address, anonID) {\n            emit OperationResult(true, \"Address successfully whitelisted\");\n        } catch Error(string memory reason) {\n            emit OperationResult(false, reason);\n            emit ErrorCaught(\"addAddressToWhitelist\", reason);\n        } catch {\n            emit OperationResult(false, \"addToWhitelist failed without a specific revert reason\");\n            emit ErrorCaught(\"addAddressToWhitelist\", \"Unknown failure\");\n        }\n    }\n\n    function removeAddressFromWhitelist(address _address) public {\n        try anonIDContract.removeFromWhitelist(_address) {\n            emit OperationResult(true, \"Address successfully removed from whitelist\");\n        } catch Error(string memory reason) {\n            emit OperationResult(false, reason);\n            emit ErrorCaught(\"removeFromWhitelist\", reason);\n        } catch {\n            emit OperationResult(false, \"removeFromWhitelist failed without a specific revert reason\");\n            emit ErrorCaught(\"removeFromWhitelist\", \"Unknown failure\");\n        }\n    }\n\n    function addMinutesPlayed(address user, uint256 _minutes) public {\n        try anonIDContract.incrementMinutesPlayed(user, _minutes) {\n            emit OperationResult(true, \"Minutes played added successfully\");\n        } catch Error(string memory reason) {\n            emit OperationResult(false, reason);\n            emit ErrorCaught(\"addMinutesPlayed\", reason);\n        } catch {\n            emit OperationResult(false, \"incrementMinutesPlayed failed without a specific revert reason\");\n            emit ErrorCaught(\"addMinutesPlayed\", \"Unknown failure\");\n        }\n    }\n}\n",
  "sourcePath": "contracts/9_Whitelist_test.sol",
  "type": "contract"
}