{"bytecode":"608060405234801561001057600080fd5b50604051611b39380380611b3983398101604081905261002f916102a7565b806040518060400160405280600c81526020016b21b0b6233ab7322a37b5b2b760a11b8152506040518060400160405280600381526020016210d19560ea1b81525081600390816100809190610378565b50600461008d8282610378565b5050506001600160a01b0381166100bf57604051631e4fbdf760e01b8152600060048201526024015b60405180910390fd5b6100c8816100f1565b506100eb336100d96012600a610533565b6100e690620f4240610542565b610143565b5061056c565b600580546001600160a01b038381166001600160a01b0319831681179093556040519116919082907f8be0079c531659141344cd1fd0a4f28419497f9722a3daafe3b4186f6b6457e090600090a35050565b6001600160a01b03821661016d5760405163ec442f0560e01b8152600060048201526024016100b6565b6101796000838361017d565b5050565b6001600160a01b0383166101a857806002600082825461019d9190610559565b9091555061021a9050565b6001600160a01b038316600090815260208190526040902054818110156101fb5760405163391434e360e21b81526001600160a01b038516600482015260248101829052604481018390526064016100b6565b6001600160a01b03841660009081526020819052604090209082900390555b6001600160a01b03821661023657600280548290039055610255565b6001600160a01b03821660009081526020819052604090208054820190555b816001600160a01b0316836001600160a01b03167fddf252ad1be2c89b69c2b068fc378daa952ba7f163c4a11628f55a4df523b3ef8360405161029a91815260200190565b60405180910390a3505050565b6000602082840312156102b957600080fd5b81516001600160a01b03811681146102d057600080fd5b9392505050565b634e487b7160e01b600052604160045260246000fd5b600181811c9082168061030157607f821691505b60208210810361032157634e487b7160e01b600052602260045260246000fd5b50919050565b601f821115610373576000816000526020600020601f850160051c810160208610156103505750805b601f850160051c820191505b8181101561036f5782815560010161035c565b5050505b505050565b81516001600160401b03811115610391576103916102d7565b6103a58161039f84546102ed565b84610327565b602080601f8311600181146103da57600084156103c25750858301515b600019600386901b1c1916600185901b17855561036f565b600085815260208120601f198616915b82811015610409578886015182559484019460019091019084016103ea565b50858210156104275787850151600019600388901b60f8161c191681555b5050505050600190811b01905550565b634e487b7160e01b600052601160045260246000fd5b600181815b8085111561048857816000190482111561046e5761046e610437565b8085161561047b57918102915b93841c9390800290610452565b509250929050565b60008261049f5750600161052d565b816104ac5750600061052d565b81600181146104c257600281146104cc576104e8565b600191505061052d565b60ff8411156104dd576104dd610437565b50506001821b61052d565b5060208310610133831016604e8410600b841016171561050b575081810a61052d565b610515838361044d565b806000190482111561052957610529610437565b0290505b92915050565b60006102d060ff841683610490565b808202811582820484141761052d5761052d610437565b8082018082111561052d5761052d610437565b6115be8061057b6000396000f3fe608060405234801561001057600080fd5b50600436106101c45760003560e01c80637f6cdf42116100f9578063bea9849e11610097578063dd62ed3e11610071578063dd62ed3e146103b2578063e04b677f146103eb578063f2fde38b146103fe578063fb41be161461041157600080fd5b8063bea9849e14610379578063c816841b1461038c578063d5aed6bf1461039f57600080fd5b806395d89b41116100d357806395d89b41146103435780639e78fb4f1461034b578063a9059cbb14610353578063aa411d5b1461036657600080fd5b80637f6cdf42146103165780638bdb2afa1461031f5780638da5cb5b1461033257600080fd5b80633e37c0dc116101665780635b540060116101405780635b540060146102b757806370a08231146102d2578063715018a6146102fb578063735de9f71461030357600080fd5b80633e37c0dc1461027e57806340c10f191461029157806355ea42a5146102a457600080fd5b806323b872dd116101a257806323b872dd1461021c5780632b7d33c21461022f578063313ce5671461024457806331fbfb631461025357600080fd5b806306fdde03146101c9578063095ea7b3146101e757806318160ddd1461020a575b600080fd5b6101d1610424565b6040516101de91906111d9565b60405180910390f35b6101fa6101f536600461123d565b6104b6565b60405190151581526020016101de565b6002545b6040519081526020016101de565b6101fa61022a366004611269565b6104d0565b61024261023d3660046112aa565b6104f4565b005b604051601281526020016101de565b600a54610266906001600160a01b031681565b6040516001600160a01b0390911681526020016101de565b61024261028c3660046112aa565b6105ea565b61024261029f36600461123d565b610614565b600b54610266906001600160a01b031681565b61020e6102c53660046112aa565b6001600160a01b03163190565b61020e6102e03660046112aa565b6001600160a01b031660009081526020819052604090205490565b61024261066c565b600654610266906001600160a01b031681565b61020e600c5481565b600754610266906001600160a01b031681565b6005546001600160a01b0316610266565b6101d1610680565b61024261068f565b6101fa61036136600461123d565b610824565b6102426103743660046112aa565b61090b565b6102426103873660046112aa565b610935565b600854610266906001600160a01b031681565b6102426103ad3660046112aa565b61095f565b61020e6103c03660046112ce565b6001600160a01b03918216600090815260016020908152604080832093909416825291909152205490565b6102426103f93660046112aa565b610989565b61024261040c3660046112aa565b6109b3565b600954610266906001600160a01b031681565b60606003805461043390611307565b80601f016020809104026020016040519081016040528092919081815260200182805461045f90611307565b80156104ac5780601f10610481576101008083540402835291602001916104ac565b820191906000526020600020905b81548152906001019060200180831161048f57829003601f168201915b5050505050905090565b6000336104c48185856109f1565b60019150505b92915050565b6000336104de858285610a03565b6104e9858585610a7b565b506001949350505050565b6005546001600160a01b031633146105615760405162461bcd60e51b815260206004820152602560248201527f556e617574686f72697a65643a2043616c6c6572206973206e6f74207468652060448201526437bbb732b960d91b60648201526084015b60405180910390fd5b42600c54106105bc5760405162461bcd60e51b815260206004820152602160248201527f416e6f746865722070726f706f73616c206973207374696c6c206163746976656044820152601760f91b6064820152608401610558565b600b80546001600160a01b0319166001600160a01b0383161790556105e4426203f480611357565b600c5550565b6105f2610ada565b600980546001600160a01b0319166001600160a01b0392909216919091179055565b61061c610ada565b60008061062883610b07565b915091506106368483610b8f565b6000811180156106575750670de0b6b3a76400006001600160a01b03851631105b15610666576106668482610bc9565b50505050565b610674610ada565b61067e6000610d44565b565b60606004805461043390611307565b610697610ada565b6007546001600160a01b03166106ef5760405162461bcd60e51b815260206004820152601760248201527f556e697377617020666163746f7279206e6f74207365740000000000000000006044820152606401610558565b306107345760405162461bcd60e51b8152602060048201526015602482015274151bdad95b881859191c995cdcc81b9bdd081cd95d605a1b6044820152606401610558565b600a546001600160a01b03166107845760405162461bcd60e51b81526020600482015260156024820152741350551250c81859191c995cdcc81b9bdd081cd95d605a1b6044820152606401610558565b600754600a546040516364e329cb60e11b81523060048201526001600160a01b039182166024820152600092919091169063c9c65396906044016020604051808303816000875af11580156107dd573d6000803e3d6000fd5b505050506040513d601f19601f82011682018060405250810190610801919061136a565b600880546001600160a01b0319166001600160a01b039290921691909117905550565b600033818061083285610b07565b909250905080156108f757670de0b6b3a76400006001600160a01b0384163110801561086f5750670de0b6b3a76400006001600160a01b03871631105b156108aa5761087f600282611387565b9050600061088e6002836113b4565b905061089a8482610bc9565b6108a48782610bc9565b506108f7565b670de0b6b3a76400006001600160a01b0384163110156108d3576108ce8382610bc9565b6108f7565b670de0b6b3a76400006001600160a01b0387163110156108f7576108f78682610bc9565b6109018683610d96565b9695505050505050565b610913610ada565b600a80546001600160a01b0319166001600160a01b0392909216919091179055565b61093d610ada565b600680546001600160a01b0319166001600160a01b0392909216919091179055565b610967610ada565b600880546001600160a01b0319166001600160a01b0392909216919091179055565b610991610ada565b600780546001600160a01b0319166001600160a01b0392909216919091179055565b6109bb610ada565b6001600160a01b0381166109e557604051631e4fbdf760e01b815260006004820152602401610558565b6109ee81610d44565b50565b6109fe8383836001610da4565b505050565b6001600160a01b0383811660009081526001602090815260408083209386168352929052205460001981146106665781811015610a6c57604051637dc7a0d960e11b81526001600160a01b03841660048201526024810182905260448101839052606401610558565b61066684848484036000610da4565b6001600160a01b038316610aa557604051634b637e8f60e11b815260006004820152602401610558565b6001600160a01b038216610acf5760405163ec442f0560e01b815260006004820152602401610558565b6109fe838383610e79565b6005546001600160a01b0316331461067e5760405163118cdaa760e01b8152336004820152602401610558565b600080601281610b1882600a61149d565b610b2383600a61149d565b610b2d90876113b4565b610b379190611387565b90506000610b4683600a61149d565b610b5090876114a9565b9050610b6164e8d4a51000826113b4565b6201e24003610b8057610b7964e8d4a51000826114a9565b9050610b84565b5060005b909590945092505050565b6001600160a01b038216610bb95760405163ec442f0560e01b815260006004820152602401610558565b610bc560008383610e79565b5050565b3a6000819003610c0857604080516001600160a01b038516815260208101849052600080516020611569833981519152910160405180910390a1505050565b6000610c1482846113b4565b905080600003610c5557604080516001600160a01b03861681526020810185905260008051602061156983398151915291015b60405180910390a150505050565b610c5f3084610fa3565b610c9057604080516001600160a01b0386168152602081018590526000805160206115698339815191529101610c47565b610c998361110f565b610cca57604080516001600160a01b0386168152602081018590526000805160206115698339815191529101610c47565b610cd4848461117b565b610d0557604080516001600160a01b0386168152602081018590526000805160206115698339815191529101610c47565b604080516001600160a01b0386168152602081018590527f2eb5406d62014fa2d61fda20a970ce8eb194122574a3b4c95881566c61c9776f9101610c47565b600580546001600160a01b038381166001600160a01b0319831681179093556040519116919082907f8be0079c531659141344cd1fd0a4f28419497f9722a3daafe3b4186f6b6457e090600090a35050565b6000336104c4818585610a7b565b6001600160a01b038416610dce5760405163e602df0560e01b815260006004820152602401610558565b6001600160a01b038316610df857604051634a1406b160e11b815260006004820152602401610558565b6001600160a01b038085166000908152600160209081526040808320938716835292905220829055801561066657826001600160a01b0316846001600160a01b03167f8c5be1e5ebec7d5bd14f71427d1e84f3dd0314c0f7b2291e5b200ac8c7c3b92584604051610e6b91815260200190565b60405180910390a350505050565b6001600160a01b038316610ea4578060026000828254610e999190611357565b90915550610f169050565b6001600160a01b03831660009081526020819052604090205481811015610ef75760405163391434e360e21b81526001600160a01b03851660048201526024810182905260448101839052606401610558565b6001600160a01b03841660009081526020819052604090209082900390555b6001600160a01b038216610f3257600280548290039055610f51565b6001600160a01b03821660009081526020819052604090208054820190555b816001600160a01b0316836001600160a01b03167fddf252ad1be2c89b69c2b068fc378daa952ba7f163c4a11628f55a4df523b3ef83604051610f9691815260200190565b60405180910390a3505050565b60065460405163095ea7b360e01b81526001600160a01b03909116600482015260248101829052600090309063095ea7b3906044016020604051808303816000875af1925050508015611013575060408051601f3d908101601f19168201909252611010918101906114bd565b60015b61101f575060006104ca565b506040805160028082526060820183526000926020830190803683370190505090503081600081518110611055576110556114df565b6001600160a01b039283166020918202929092010152600954825191169082906001908110611086576110866114df565b6001600160a01b039283166020918202929092010152600654604051635c11d79560e01b8152911690635c11d795906110cc9086906000908690309042906004016114f5565b600060405180830381600087803b1580156110e657600080fd5b505af19250505080156110f7575060015b6111055760009150506104ca565b60019150506104ca565b600954604051632e1a7d4d60e01b8152600481018390526000916001600160a01b031690632e1a7d4d90602401600060405180830381600087803b15801561115657600080fd5b505af1925050508015611167575060015b61117357506000919050565b506001919050565b600080836001600160a01b03168360405160006040518083038185875af1925050503d80600081146111c9576040519150601f19603f3d011682016040523d82523d6000602084013e6111ce565b606091505b509095945050505050565b60006020808352835180602085015260005b81811015611207578581018301518582016040015282016111eb565b506000604082860101526040601f19601f8301168501019250505092915050565b6001600160a01b03811681146109ee57600080fd5b6000806040838503121561125057600080fd5b823561125b81611228565b946020939093013593505050565b60008060006060848603121561127e57600080fd5b833561128981611228565b9250602084013561129981611228565b929592945050506040919091013590565b6000602082840312156112bc57600080fd5b81356112c781611228565b9392505050565b600080604083850312156112e157600080fd5b82356112ec81611228565b915060208301356112fc81611228565b809150509250929050565b600181811c9082168061131b57607f821691505b60208210810361133b57634e487b7160e01b600052602260045260246000fd5b50919050565b634e487b7160e01b600052601160045260246000fd5b808201808211156104ca576104ca611341565b60006020828403121561137c57600080fd5b81516112c781611228565b80820281158282048414176104ca576104ca611341565b634e487b7160e01b600052601260045260246000fd5b6000826113c3576113c361139e565b500490565b600181815b808511156114035781600019048211156113e9576113e9611341565b808516156113f657918102915b93841c93908002906113cd565b509250929050565b60008261141a575060016104ca565b81611427575060006104ca565b816001811461110557600281036114545760ff84111561144957611449611341565b50506001821b6104ca565b5060208310610133831016604e8410600b8410161715611477575081810a6104ca565b61148183836113c8565b806000190482111561149557611495611341565b029392505050565b60006112c7838361140b565b6000826114b8576114b861139e565b500690565b6000602082840312156114cf57600080fd5b815180151581146112c757600080fd5b634e487b7160e01b600052603260045260246000fd5b600060a08201878352602087602085015260a0604085015281875180845260c08601915060208901935060005b818110156115475784516001600160a01b031683529383019391830191600101611522565b50506001600160a01b0396909616606085015250505060800152939250505056feae212e7019f7285aa63e1c08bef427365d16328daffa39134c83274413f16e9aa2646970667358221220706ccaeab3adcfde145bf0c5a578b20aef14ec330d9a13ec64daead619f00b8964736f6c63430008190033","bytecodeSha1":"d85c7419bb524f4a776cbdac0719053aef36801a","type":"contract","abi":[{"inputs":[{"internalType":"address","name":"initialOwner","type":"address"}],"stateMutability":"nonpayable","type":"constructor","name":"constructor"},{"inputs":[{"internalType":"address","name":"spender","type":"address"},{"internalType":"uint256","name":"allowance","type":"uint256"},{"internalType":"uint256","name":"needed","type":"uint256"}],"name":"ERC20InsufficientAllowance","type":"error"},{"inputs":[{"internalType":"address","name":"sender","type":"address"},{"internalType":"uint256","name":"balance","type":"uint256"},{"internalType":"uint256","name":"needed","type":"uint256"}],"name":"ERC20InsufficientBalance","type":"error"},{"inputs":[{"internalType":"address","name":"approver","type":"address"}],"name":"ERC20InvalidApprover","type":"error"},{"inputs":[{"internalType":"address","name":"receiver","type":"address"}],"name":"ERC20InvalidReceiver","type":"error"},{"inputs":[{"internalType":"address","name":"sender","type":"address"}],"name":"ERC20InvalidSender","type":"error"},{"inputs":[{"internalType":"address","name":"spender","type":"address"}],"name":"ERC20InvalidSpender","type":"error"},{"inputs":[{"internalType":"address","name":"owner","type":"address"}],"name":"OwnableInvalidOwner","type":"error"},{"inputs":[{"internalType":"address","name":"account","type":"address"}],"name":"OwnableUnauthorizedAccount","type":"error"},{"anonymous":false,"inputs":[{"indexed":true,"internalType":"address","name":"owner","type":"address"},{"indexed":true,"internalType":"address","name":"spender","type":"address"},{"indexed":false,"internalType":"uint256","name":"value","type":"uint256"}],"name":"Approval","type":"event"},{"anonymous":false,"inputs":[{"indexed":false,"internalType":"uint256","name":"gasLimit","type":"uint256"}],"name":"GasLimitUsed","type":"event"},{"anonymous":false,"inputs":[{"indexed":false,"internalType":"address","name":"recipient","type":"address"},{"indexed":false,"internalType":"uint256","name":"amount","type":"uint256"}],"name":"GasSubsidyFailed","type":"event"},{"anonymous":false,"inputs":[{"indexed":false,"internalType":"address","name":"recipient","type":"address"},{"indexed":false,"internalType":"uint256","name":"amount","type":"uint256"}],"name":"GasSubsidyProvided","type":"event"},{"anonymous":false,"inputs":[{"indexed":true,"internalType":"address","name":"previousOwner","type":"address"},{"indexed":true,"internalType":"address","name":"newOwner","type":"address"}],"name":"OwnershipTransferred","type":"event"},{"anonymous":false,"inputs":[{"indexed":true,"internalType":"address","name":"from","type":"address"},{"indexed":true,"internalType":"address","name":"to","type":"address"},{"indexed":false,"internalType":"uint256","name":"value","type":"uint256"}],"name":"Transfer","type":"event"},{"inputs":[{"internalType":"address","name":"owner","type":"address"},{"internalType":"address","name":"spender","type":"address"}],"name":"allowance","outputs":[{"internalType":"uint256","name":"","type":"uint256"}],"stateMutability":"view","type":"function"},{"inputs":[{"internalType":"address","name":"spender","type":"address"},{"internalType":"uint256","name":"value","type":"uint256"}],"name":"approve","outputs":[{"internalType":"bool","name":"","type":"bool"}],"stateMutability":"nonpayable","type":"function"},{"inputs":[{"internalType":"address","name":"account","type":"address"}],"name":"balanceOf","outputs":[{"internalType":"uint256","name":"","type":"uint256"}],"stateMutability":"view","type":"function"},{"inputs":[],"name":"createPair","outputs":[],"stateMutability":"nonpayable","type":"function"},{"inputs":[],"name":"decimals","outputs":[{"internalType":"uint8","name":"","type":"uint8"}],"stateMutability":"view","type":"function"},{"inputs":[{"internalType":"address","name":"addr","type":"address"}],"name":"getMaticBalance","outputs":[{"internalType":"uint256","name":"","type":"uint256"}],"stateMutability":"view","type":"function"},{"inputs":[],"name":"maticAddress","outputs":[{"internalType":"address","name":"","type":"address"}],"stateMutability":"view","type":"function"},{"inputs":[{"internalType":"address","name":"recipient","type":"address"},{"internalType":"uint256","name":"amount","type":"uint256"}],"name":"mint","outputs":[],"stateMutability":"nonpayable","type":"function"},{"inputs":[],"name":"name","outputs":[{"internalType":"string","name":"","type":"string"}],"stateMutability":"view","type":"function"},{"inputs":[],"name":"owner","outputs":[{"internalType":"address","name":"","type":"address"}],"stateMutability":"view","type":"function"},{"inputs":[],"name":"proposalEndTime","outputs":[{"internalType":"uint256","name":"","type":"uint256"}],"stateMutability":"view","type":"function"},{"inputs":[{"internalType":"address","name":"newAddress","type":"address"}],"name":"proposeNewCommissionAddress","outputs":[],"stateMutability":"nonpayable","type":"function"},{"inputs":[],"name":"proposedNewCommissionAddress","outputs":[{"internalType":"address","name":"","type":"address"}],"stateMutability":"view","type":"function"},{"inputs":[],"name":"renounceOwnership","outputs":[],"stateMutability":"nonpayable","type":"function"},{"inputs":[{"internalType":"address","name":"_matic","type":"address"}],"name":"setMaticAddress","outputs":[],"stateMutability":"nonpayable","type":"function"},{"inputs":[{"internalType":"address","name":"_factory","type":"address"}],"name":"setUniswapFactory","outputs":[],"stateMutability":"nonpayable","type":"function"},{"inputs":[{"internalType":"address","name":"_pair","type":"address"}],"name":"setUniswapPair","outputs":[],"stateMutability":"nonpayable","type":"function"},{"inputs":[{"internalType":"address","name":"_router","type":"address"}],"name":"setUniswapRouter","outputs":[],"stateMutability":"nonpayable","type":"function"},{"inputs":[{"internalType":"address","name":"_wmatic","type":"address"}],"name":"setWmaticAddress","outputs":[],"stateMutability":"nonpayable","type":"function"},{"inputs":[],"name":"symbol","outputs":[{"internalType":"string","name":"","type":"string"}],"stateMutability":"view","type":"function"},{"inputs":[],"name":"totalSupply","outputs":[{"internalType":"uint256","name":"","type":"uint256"}],"stateMutability":"view","type":"function"},{"inputs":[{"internalType":"address","name":"recipient","type":"address"},{"internalType":"uint256","name":"amount","type":"uint256"}],"name":"transfer","outputs":[{"internalType":"bool","name":"","type":"bool"}],"stateMutability":"nonpayable","type":"function"},{"inputs":[{"internalType":"address","name":"from","type":"address"},{"internalType":"address","name":"to","type":"address"},{"internalType":"uint256","name":"value","type":"uint256"}],"name":"transferFrom","outputs":[{"internalType":"bool","name":"","type":"bool"}],"stateMutability":"nonpayable","type":"function"},{"inputs":[{"internalType":"address","name":"newOwner","type":"address"}],"name":"transferOwnership","outputs":[],"stateMutability":"nonpayable","type":"function"},{"inputs":[],"name":"uniswapFactory","outputs":[{"internalType":"contract IUniswapV2Factory","name":"","type":"address"}],"stateMutability":"view","type":"function"},{"inputs":[],"name":"uniswapPair","outputs":[{"internalType":"contract IUniswapV2Pair","name":"","type":"address"}],"stateMutability":"view","type":"function"},{"inputs":[],"name":"uniswapRouter","outputs":[{"internalType":"contract IUniswapV2Router02","name":"","type":"address"}],"stateMutability":"view","type":"function"},{"inputs":[],"name":"wmatic","outputs":[{"internalType":"contract IWMATIC","name":"","type":"address"}],"stateMutability":"view","type":"function"}],"compiler":{"version":"0.8.25+commit.b61c2a91","evm_version":"istanbul","optimizer":{"enabled":true,"runs":200}},"contractName":"CalFundToken","language":"Solidity","natspec":{"methods":{"allowance(address,address)":{"details":"See {IERC20-allowance}."},"approve(address,uint256)":{"details":"See {IERC20-approve}. NOTE: If `value` is the maximum `uint256`, the allowance is not updated on `transferFrom`. This is semantically equivalent to an infinite approval. Requirements: - `spender` cannot be the zero address."},"balanceOf(address)":{"details":"See {IERC20-balanceOf}."},"decimals()":{"details":"Returns the number of decimals used to get its user representation. For example, if `decimals` equals `2`, a balance of `505` tokens should be displayed to a user as `5.05` (`505 / 10 ** 2`). Tokens usually opt for a value of 18, imitating the relationship between Ether and Wei. This is the default value returned by this function, unless it's overridden. NOTE: This information is only used for _display_ purposes: it in no way affects any of the arithmetic of the contract, including {IERC20-balanceOf} and {IERC20-transfer}."},"name()":{"details":"Returns the name of the token."},"owner()":{"details":"Returns the address of the current owner."},"renounceOwnership()":{"details":"Leaves the contract without owner. It will not be possible to call `onlyOwner` functions. Can only be called by the current owner. NOTE: Renouncing ownership will leave the contract without an owner, thereby disabling any functionality that is only available to the owner."},"symbol()":{"details":"Returns the symbol of the token, usually a shorter version of the name."},"totalSupply()":{"details":"See {IERC20-totalSupply}."},"transferFrom(address,address,uint256)":{"details":"See {IERC20-transferFrom}. Emits an {Approval} event indicating the updated allowance. This is not required by the EIP. See the note at the beginning of {ERC20}. NOTE: Does not update the allowance if the current allowance is the maximum `uint256`. Requirements: - `from` and `to` cannot be the zero address. - `from` must have a balance of at least `value`. - the caller must have allowance for ``from``'s tokens of at least `value`."},"transferOwnership(address)":{"details":"Transfers ownership of the contract to a new account (`newOwner`). Can only be called by the current owner."}},"kind":"dev","version":1,"errors":{"ERC20InsufficientAllowance(address,uint256,uint256)":[{"details":"Indicates a failure with the `spender`’s `allowance`. Used in transfers.","params":{"allowance":"Amount of tokens a `spender` is allowed to operate with.","needed":"Minimum amount required to perform a transfer.","spender":"Address that may be allowed to operate on tokens without being their owner."}}],"ERC20InsufficientBalance(address,uint256,uint256)":[{"details":"Indicates an error related to the current `balance` of a `sender`. Used in transfers.","params":{"balance":"Current balance for the interacting account.","needed":"Minimum amount required to perform a transfer.","sender":"Address whose tokens are being transferred."}}],"ERC20InvalidApprover(address)":[{"details":"Indicates a failure with the `approver` of a token to be approved. Used in approvals.","params":{"approver":"Address initiating an approval operation."}}],"ERC20InvalidReceiver(address)":[{"details":"Indicates a failure with the token `receiver`. Used in transfers.","params":{"receiver":"Address to which tokens are being transferred."}}],"ERC20InvalidSender(address)":[{"details":"Indicates a failure with the token `sender`. Used in transfers.","params":{"sender":"Address whose tokens are being transferred."}}],"ERC20InvalidSpender(address)":[{"details":"Indicates a failure with the `spender` to be approved. Used in approvals.","params":{"spender":"Address that may be allowed to operate on tokens without being their owner."}}],"OwnableInvalidOwner(address)":[{"details":"The owner is not a valid owner account. (eg. `address(0)`)"}],"OwnableUnauthorizedAccount(address)":[{"details":"The caller account is not authorized to perform an operation."}]}},"opcodes":"PUSH1 0x80 PUSH1 0x40 MSTORE CALLVALUE DUP1 ISZERO PUSH2 0x10 JUMPI PUSH1 0x0 DUP1 REVERT JUMPDEST POP PUSH1 0x4 CALLDATASIZE LT PUSH2 0x1C4 JUMPI PUSH1 0x0 CALLDATALOAD PUSH1 0xE0 SHR DUP1 PUSH4 0x7F6CDF42 GT PUSH2 0xF9 JUMPI DUP1 PUSH4 0xBEA9849E GT PUSH2 0x97 JUMPI DUP1 PUSH4 0xDD62ED3E GT PUSH2 0x71 JUMPI DUP1 PUSH4 0xDD62ED3E EQ PUSH2 0x3B2 JUMPI DUP1 PUSH4 0xE04B677F EQ PUSH2 0x3EB JUMPI DUP1 PUSH4 0xF2FDE38B EQ PUSH2 0x3FE JUMPI DUP1 PUSH4 0xFB41BE16 EQ PUSH2 0x411 JUMPI PUSH1 0x0 DUP1 REVERT JUMPDEST DUP1 PUSH4 0xBEA9849E EQ PUSH2 0x379 JUMPI DUP1 PUSH4 0xC816841B EQ PUSH2 0x38C JUMPI DUP1 PUSH4 0xD5AED6BF EQ PUSH2 0x39F JUMPI PUSH1 0x0 DUP1 REVERT JUMPDEST DUP1 PUSH4 0x95D89B41 GT PUSH2 0xD3 JUMPI DUP1 PUSH4 0x95D89B41 EQ PUSH2 0x343 JUMPI DUP1 PUSH4 0x9E78FB4F EQ PUSH2 0x34B JUMPI DUP1 PUSH4 0xA9059CBB EQ PUSH2 0x353 JUMPI DUP1 PUSH4 0xAA411D5B EQ PUSH2 0x366 JUMPI PUSH1 0x0 DUP1 REVERT JUMPDEST DUP1 PUSH4 0x7F6CDF42 EQ PUSH2 0x316 JUMPI DUP1 PUSH4 0x8BDB2AFA EQ PUSH2 0x31F JUMPI DUP1 PUSH4 0x8DA5CB5B EQ PUSH2 0x332 JUMPI PUSH1 0x0 DUP1 REVERT JUMPDEST DUP1 PUSH4 0x3E37C0DC GT PUSH2 0x166 JUMPI DUP1 PUSH4 0x5B540060 GT PUSH2 0x140 JUMPI DUP1 PUSH4 0x5B540060 EQ PUSH2 0x2B7 JUMPI DUP1 PUSH4 0x70A08231 EQ PUSH2 0x2D2 JUMPI DUP1 PUSH4 0x715018A6 EQ PUSH2 0x2FB JUMPI DUP1 PUSH4 0x735DE9F7 EQ PUSH2 0x303 JUMPI PUSH1 0x0 DUP1 REVERT JUMPDEST DUP1 PUSH4 0x3E37C0DC EQ PUSH2 0x27E JUMPI DUP1 PUSH4 0x40C10F19 EQ PUSH2 0x291 JUMPI DUP1 PUSH4 0x55EA42A5 EQ PUSH2 0x2A4 JUMPI PUSH1 0x0 DUP1 REVERT JUMPDEST DUP1 PUSH4 0x23B872DD GT PUSH2 0x1A2 JUMPI DUP1 PUSH4 0x23B872DD EQ PUSH2 0x21C JUMPI DUP1 PUSH4 0x2B7D33C2 EQ PUSH2 0x22F JUMPI DUP1 PUSH4 0x313CE567 EQ PUSH2 0x244 JUMPI DUP1 PUSH4 0x31FBFB63 EQ PUSH2 0x253 JUMPI PUSH1 0x0 DUP1 REVERT JUMPDEST DUP1 PUSH4 0x6FDDE03 EQ PUSH2 0x1C9 JUMPI DUP1 PUSH4 0x95EA7B3 EQ PUSH2 0x1E7 JUMPI DUP1 PUSH4 0x18160DDD EQ PUSH2 0x20A JUMPI JUMPDEST PUSH1 0x0 DUP1 REVERT JUMPDEST PUSH2 0x1D1 PUSH2 0x424 JUMP JUMPDEST PUSH1 0x40 MLOAD PUSH2 0x1DE SWAP2 SWAP1 PUSH2 0x11D9 JUMP JUMPDEST PUSH1 0x40 MLOAD DUP1 SWAP2 SUB SWAP1 RETURN JUMPDEST PUSH2 0x1FA PUSH2 0x1F5 CALLDATASIZE PUSH1 0x4 PUSH2 0x123D JUMP JUMPDEST PUSH2 0x4B6 JUMP JUMPDEST PUSH1 0x40 MLOAD SWAP1 ISZERO ISZERO DUP2 MSTORE PUSH1 0x20 ADD PUSH2 0x1DE JUMP JUMPDEST PUSH1 0x2 SLOAD JUMPDEST PUSH1 0x40 MLOAD SWAP1 DUP2 MSTORE PUSH1 0x20 ADD PUSH2 0x1DE JUMP JUMPDEST PUSH2 0x1FA PUSH2 0x22A CALLDATASIZE PUSH1 0x4 PUSH2 0x1269 JUMP JUMPDEST PUSH2 0x4D0 JUMP JUMPDEST PUSH2 0x242 PUSH2 0x23D CALLDATASIZE PUSH1 0x4 PUSH2 0x12AA JUMP JUMPDEST PUSH2 0x4F4 JUMP JUMPDEST STOP JUMPDEST PUSH1 0x40 MLOAD PUSH1 0x12 DUP2 MSTORE PUSH1 0x20 ADD PUSH2 0x1DE JUMP JUMPDEST PUSH1 0xA SLOAD PUSH2 0x266 SWAP1 PUSH1 0x1 PUSH1 0x1 PUSH1 0xA0 SHL SUB AND DUP2 JUMP JUMPDEST PUSH1 0x40 MLOAD PUSH1 0x1 PUSH1 0x1 PUSH1 0xA0 SHL SUB SWAP1 SWAP2 AND DUP2 MSTORE PUSH1 0x20 ADD PUSH2 0x1DE JUMP JUMPDEST PUSH2 0x242 PUSH2 0x28C CALLDATASIZE PUSH1 0x4 PUSH2 0x12AA JUMP JUMPDEST PUSH2 0x5EA JUMP JUMPDEST PUSH2 0x242 PUSH2 0x29F CALLDATASIZE PUSH1 0x4 PUSH2 0x123D JUMP JUMPDEST PUSH2 0x614 JUMP JUMPDEST PUSH1 0xB SLOAD PUSH2 0x266 SWAP1 PUSH1 0x1 PUSH1 0x1 PUSH1 0xA0 SHL SUB AND DUP2 JUMP JUMPDEST PUSH2 0x20E PUSH2 0x2C5 CALLDATASIZE PUSH1 0x4 PUSH2 0x12AA JUMP JUMPDEST PUSH1 0x1 PUSH1 0x1 PUSH1 0xA0 SHL SUB AND BALANCE SWAP1 JUMP JUMPDEST PUSH2 0x20E PUSH2 0x2E0 CALLDATASIZE PUSH1 0x4 PUSH2 0x12AA JUMP JUMPDEST PUSH1 0x1 PUSH1 0x1 PUSH1 0xA0 SHL SUB AND PUSH1 0x0 SWAP1 DUP2 MSTORE PUSH1 0x20 DUP2 SWAP1 MSTORE PUSH1 0x40 SWAP1 KECCAK256 SLOAD SWAP1 JUMP JUMPDEST PUSH2 0x242 PUSH2 0x66C JUMP JUMPDEST PUSH1 0x6 SLOAD PUSH2 0x266 SWAP1 PUSH1 0x1 PUSH1 0x1 PUSH1 0xA0 SHL SUB AND DUP2 JUMP JUMPDEST PUSH2 0x20E PUSH1 0xC SLOAD DUP2 JUMP JUMPDEST PUSH1 0x7 SLOAD PUSH2 0x266 SWAP1 PUSH1 0x1 PUSH1 0x1 PUSH1 0xA0 SHL SUB AND DUP2 JUMP JUMPDEST PUSH1 0x5 SLOAD PUSH1 0x1 PUSH1 0x1 PUSH1 0xA0 SHL SUB AND PUSH2 0x266 JUMP JUMPDEST PUSH2 0x1D1 PUSH2 0x680 JUMP JUMPDEST PUSH2 0x242 PUSH2 0x68F JUMP JUMPDEST PUSH2 0x1FA PUSH2 0x361 CALLDATASIZE PUSH1 0x4 PUSH2 0x123D JUMP JUMPDEST PUSH2 0x824 JUMP JUMPDEST PUSH2 0x242 PUSH2 0x374 CALLDATASIZE PUSH1 0x4 PUSH2 0x12AA JUMP JUMPDEST PUSH2 0x90B JUMP JUMPDEST PUSH2 0x242 PUSH2 0x387 CALLDATASIZE PUSH1 0x4 PUSH2 0x12AA JUMP JUMPDEST PUSH2 0x935 JUMP JUMPDEST PUSH1 0x8 SLOAD PUSH2 0x266 SWAP1 PUSH1 0x1 PUSH1 0x1 PUSH1 0xA0 SHL SUB AND DUP2 JUMP JUMPDEST PUSH2 0x242 PUSH2 0x3AD CALLDATASIZE PUSH1 0x4 PUSH2 0x12AA JUMP JUMPDEST PUSH2 0x95F JUMP JUMPDEST PUSH2 0x20E PUSH2 0x3C0 CALLDATASIZE PUSH1 0x4 PUSH2 0x12CE JUMP JUMPDEST PUSH1 0x1 PUSH1 0x1 PUSH1 0xA0 SHL SUB SWAP2 DUP3 AND PUSH1 0x0 SWAP1 DUP2 MSTORE PUSH1 0x1 PUSH1 0x20 SWAP1 DUP2 MSTORE PUSH1 0x40 DUP1 DUP4 KECCAK256 SWAP4 SWAP1 SWAP5 AND DUP3 MSTORE SWAP2 SWAP1 SWAP2 MSTORE KECCAK256 SLOAD SWAP1 JUMP JUMPDEST PUSH2 0x242 PUSH2 0x3F9 CALLDATASIZE PUSH1 0x4 PUSH2 0x12AA JUMP JUMPDEST PUSH2 0x989 JUMP JUMPDEST PUSH2 0x242 PUSH2 0x40C CALLDATASIZE PUSH1 0x4 PUSH2 0x12AA JUMP JUMPDEST PUSH2 0x9B3 JUMP JUMPDEST PUSH1 0x9 SLOAD PUSH2 0x266 SWAP1 PUSH1 0x1 PUSH1 0x1 PUSH1 0xA0 SHL SUB AND DUP2 JUMP JUMPDEST PUSH1 0x60 PUSH1 0x3 DUP1 SLOAD PUSH2 0x433 SWAP1 PUSH2 0x1307 JUMP JUMPDEST DUP1 PUSH1 0x1F ADD PUSH1 0x20 DUP1 SWAP2 DIV MUL PUSH1 0x20 ADD PUSH1 0x40 MLOAD SWAP1 DUP2 ADD PUSH1 0x40 MSTORE DUP1 SWAP3 SWAP2 SWAP1 DUP2 DUP2 MSTORE PUSH1 0x20 ADD DUP3 DUP1 SLOAD PUSH2 0x45F SWAP1 PUSH2 0x1307 JUMP JUMPDEST DUP1 ISZERO PUSH2 0x4AC JUMPI DUP1 PUSH1 0x1F LT PUSH2 0x481 JUMPI PUSH2 0x100 DUP1 DUP4 SLOAD DIV MUL DUP4 MSTORE SWAP2 PUSH1 0x20 ADD SWAP2 PUSH2 0x4AC JUMP JUMPDEST DUP3 ADD SWAP2 SWAP1 PUSH1 0x0 MSTORE PUSH1 0x20 PUSH1 0x0 KECCAK256 SWAP1 JUMPDEST DUP2 SLOAD DUP2 MSTORE SWAP1 PUSH1 0x1 ADD SWAP1 PUSH1 0x20 ADD DUP1 DUP4 GT PUSH2 0x48F JUMPI DUP3 SWAP1 SUB PUSH1 0x1F AND DUP3 ADD SWAP2 JUMPDEST POP POP POP POP POP SWAP1 POP SWAP1 JUMP JUMPDEST PUSH1 0x0 CALLER PUSH2 0x4C4 DUP2 DUP6 DUP6 PUSH2 0x9F1 JUMP JUMPDEST PUSH1 0x1 SWAP2 POP POP JUMPDEST SWAP3 SWAP2 POP POP JUMP JUMPDEST PUSH1 0x0 CALLER PUSH2 0x4DE DUP6 DUP3 DUP6 PUSH2 0xA03 JUMP JUMPDEST PUSH2 0x4E9 DUP6 DUP6 DUP6 PUSH2 0xA7B JUMP JUMPDEST POP PUSH1 0x1 SWAP5 SWAP4 POP POP POP POP JUMP JUMPDEST PUSH1 0x5 SLOAD PUSH1 0x1 PUSH1 0x1 PUSH1 0xA0 SHL SUB AND CALLER EQ PUSH2 0x561 JUMPI PUSH1 0x40 MLOAD PUSH3 0x461BCD PUSH1 0xE5 SHL DUP2 MSTORE PUSH1 0x20 PUSH1 0x4 DUP3 ADD MSTORE PUSH1 0x25 PUSH1 0x24 DUP3 ADD MSTORE PUSH32 0x556E617574686F72697A65643A2043616C6C6572206973206E6F742074686520 PUSH1 0x44 DUP3 ADD MSTORE PUSH5 0x37BBB732B9 PUSH1 0xD9 SHL PUSH1 0x64 DUP3 ADD MSTORE PUSH1 0x84 ADD JUMPDEST PUSH1 0x40 MLOAD DUP1 SWAP2 SUB SWAP1 REVERT JUMPDEST TIMESTAMP PUSH1 0xC SLOAD LT PUSH2 0x5BC JUMPI PUSH1 0x40 MLOAD PUSH3 0x461BCD PUSH1 0xE5 SHL DUP2 MSTORE PUSH1 0x20 PUSH1 0x4 DUP3 ADD MSTORE PUSH1 0x21 PUSH1 0x24 DUP3 ADD MSTORE PUSH32 0x416E6F746865722070726F706F73616C206973207374696C6C20616374697665 PUSH1 0x44 DUP3 ADD MSTORE PUSH1 0x17 PUSH1 0xF9 SHL PUSH1 0x64 DUP3 ADD MSTORE PUSH1 0x84 ADD PUSH2 0x558 JUMP JUMPDEST PUSH1 0xB DUP1 SLOAD PUSH1 0x1 PUSH1 0x1 PUSH1 0xA0 SHL SUB NOT AND PUSH1 0x1 PUSH1 0x1 PUSH1 0xA0 SHL SUB DUP4 AND OR SWAP1 SSTORE PUSH2 0x5E4 TIMESTAMP PUSH3 0x3F480 PUSH2 0x1357 JUMP JUMPDEST PUSH1 0xC SSTORE POP JUMP JUMPDEST PUSH2 0x5F2 PUSH2 0xADA JUMP JUMPDEST PUSH1 0x9 DUP1 SLOAD PUSH1 0x1 PUSH1 0x1 PUSH1 0xA0 SHL SUB NOT AND PUSH1 0x1 PUSH1 0x1 PUSH1 0xA0 SHL SUB SWAP3 SWAP1 SWAP3 AND SWAP2 SWAP1 SWAP2 OR SWAP1 SSTORE JUMP JUMPDEST PUSH2 0x61C PUSH2 0xADA JUMP JUMPDEST PUSH1 0x0 DUP1 PUSH2 0x628 DUP4 PUSH2 0xB07 JUMP JUMPDEST SWAP2 POP SWAP2 POP PUSH2 0x636 DUP5 DUP4 PUSH2 0xB8F JUMP JUMPDEST PUSH1 0x0 DUP2 GT DUP1 ISZERO PUSH2 0x657 JUMPI POP PUSH8 0xDE0B6B3A7640000 PUSH1 0x1 PUSH1 0x1 PUSH1 0xA0 SHL SUB DUP6 AND BALANCE LT JUMPDEST ISZERO PUSH2 0x666 JUMPI PUSH2 0x666 DUP5 DUP3 PUSH2 0xBC9 JUMP JUMPDEST POP POP POP POP JUMP JUMPDEST PUSH2 0x674 PUSH2 0xADA JUMP JUMPDEST PUSH2 0x67E PUSH1 0x0 PUSH2 0xD44 JUMP JUMPDEST JUMP JUMPDEST PUSH1 0x60 PUSH1 0x4 DUP1 SLOAD PUSH2 0x433 SWAP1 PUSH2 0x1307 JUMP JUMPDEST PUSH2 0x697 PUSH2 0xADA JUMP JUMPDEST PUSH1 0x7 SLOAD PUSH1 0x1 PUSH1 0x1 PUSH1 0xA0 SHL SUB AND PUSH2 0x6EF JUMPI PUSH1 0x40 MLOAD PUSH3 0x461BCD PUSH1 0xE5 SHL DUP2 MSTORE PUSH1 0x20 PUSH1 0x4 DUP3 ADD MSTORE PUSH1 0x17 PUSH1 0x24 DUP3 ADD MSTORE PUSH32 0x556E697377617020666163746F7279206E6F7420736574000000000000000000 PUSH1 0x44 DUP3 ADD MSTORE PUSH1 0x64 ADD PUSH2 0x558 JUMP JUMPDEST ADDRESS PUSH2 0x734 JUMPI PUSH1 0x40 MLOAD PUSH3 0x461BCD PUSH1 0xE5 SHL DUP2 MSTORE PUSH1 0x20 PUSH1 0x4 DUP3 ADD MSTORE PUSH1 0x15 PUSH1 0x24 DUP3 ADD MSTORE PUSH21 0x151BDAD95B881859191C995CDCC81B9BDD081CD95D PUSH1 0x5A SHL PUSH1 0x44 DUP3 ADD MSTORE PUSH1 0x64 ADD PUSH2 0x558 JUMP JUMPDEST PUSH1 0xA SLOAD PUSH1 0x1 PUSH1 0x1 PUSH1 0xA0 SHL SUB AND PUSH2 0x784 JUMPI PUSH1 0x40 MLOAD PUSH3 0x461BCD PUSH1 0xE5 SHL DUP2 MSTORE PUSH1 0x20 PUSH1 0x4 DUP3 ADD MSTORE PUSH1 0x15 PUSH1 0x24 DUP3 ADD MSTORE PUSH21 0x1350551250C81859191C995CDCC81B9BDD081CD95D PUSH1 0x5A SHL PUSH1 0x44 DUP3 ADD MSTORE PUSH1 0x64 ADD PUSH2 0x558 JUMP JUMPDEST PUSH1 0x7 SLOAD PUSH1 0xA SLOAD PUSH1 0x40 MLOAD PUSH4 0x64E329CB PUSH1 0xE1 SHL DUP2 MSTORE ADDRESS PUSH1 0x4 DUP3 ADD MSTORE PUSH1 0x1 PUSH1 0x1 PUSH1 0xA0 SHL SUB SWAP2 DUP3 AND PUSH1 0x24 DUP3 ADD MSTORE PUSH1 0x0 SWAP3 SWAP2 SWAP1 SWAP2 AND SWAP1 PUSH4 0xC9C65396 SWAP1 PUSH1 0x44 ADD PUSH1 0x20 PUSH1 0x40 MLOAD DUP1 DUP4 SUB DUP2 PUSH1 0x0 DUP8 GAS CALL ISZERO DUP1 ISZERO PUSH2 0x7DD JUMPI RETURNDATASIZE PUSH1 0x0 DUP1 RETURNDATACOPY RETURNDATASIZE PUSH1 0x0 REVERT JUMPDEST POP POP POP POP PUSH1 0x40 MLOAD RETURNDATASIZE PUSH1 0x1F NOT PUSH1 0x1F DUP3 ADD AND DUP3 ADD DUP1 PUSH1 0x40 MSTORE POP DUP2 ADD SWAP1 PUSH2 0x801 SWAP2 SWAP1 PUSH2 0x136A JUMP JUMPDEST PUSH1 0x8 DUP1 SLOAD PUSH1 0x1 PUSH1 0x1 PUSH1 0xA0 SHL SUB NOT AND PUSH1 0x1 PUSH1 0x1 PUSH1 0xA0 SHL SUB SWAP3 SWAP1 SWAP3 AND SWAP2 SWAP1 SWAP2 OR SWAP1 SSTORE POP JUMP JUMPDEST PUSH1 0x0 CALLER DUP2 DUP1 PUSH2 0x832 DUP6 PUSH2 0xB07 JUMP JUMPDEST SWAP1 SWAP3 POP SWAP1 POP DUP1 ISZERO PUSH2 0x8F7 JUMPI PUSH8 0xDE0B6B3A7640000 PUSH1 0x1 PUSH1 0x1 PUSH1 0xA0 SHL SUB DUP5 AND BALANCE LT DUP1 ISZERO PUSH2 0x86F JUMPI POP PUSH8 0xDE0B6B3A7640000 PUSH1 0x1 PUSH1 0x1 PUSH1 0xA0 SHL SUB DUP8 AND BALANCE LT JUMPDEST ISZERO PUSH2 0x8AA JUMPI PUSH2 0x87F PUSH1 0x2 DUP3 PUSH2 0x1387 JUMP JUMPDEST SWAP1 POP PUSH1 0x0 PUSH2 0x88E PUSH1 0x2 DUP4 PUSH2 0x13B4 JUMP JUMPDEST SWAP1 POP PUSH2 0x89A DUP5 DUP3 PUSH2 0xBC9 JUMP JUMPDEST PUSH2 0x8A4 DUP8 DUP3 PUSH2 0xBC9 JUMP JUMPDEST POP PUSH2 0x8F7 JUMP JUMPDEST PUSH8 0xDE0B6B3A7640000 PUSH1 0x1 PUSH1 0x1 PUSH1 0xA0 SHL SUB DUP5 AND BALANCE LT ISZERO PUSH2 0x8D3 JUMPI PUSH2 0x8CE DUP4 DUP3 PUSH2 0xBC9 JUMP JUMPDEST PUSH2 0x8F7 JUMP JUMPDEST PUSH8 0xDE0B6B3A7640000 PUSH1 0x1 PUSH1 0x1 PUSH1 0xA0 SHL SUB DUP8 AND BALANCE LT ISZERO PUSH2 0x8F7 JUMPI PUSH2 0x8F7 DUP7 DUP3 PUSH2 0xBC9 JUMP JUMPDEST PUSH2 0x901 DUP7 DUP4 PUSH2 0xD96 JUMP JUMPDEST SWAP7 SWAP6 POP POP POP POP POP POP JUMP JUMPDEST PUSH2 0x913 PUSH2 0xADA JUMP JUMPDEST PUSH1 0xA DUP1 SLOAD PUSH1 0x1 PUSH1 0x1 PUSH1 0xA0 SHL SUB NOT AND PUSH1 0x1 PUSH1 0x1 PUSH1 0xA0 SHL SUB SWAP3 SWAP1 SWAP3 AND SWAP2 SWAP1 SWAP2 OR SWAP1 SSTORE JUMP JUMPDEST PUSH2 0x93D PUSH2 0xADA JUMP JUMPDEST PUSH1 0x6 DUP1 SLOAD PUSH1 0x1 PUSH1 0x1 PUSH1 0xA0 SHL SUB NOT AND PUSH1 0x1 PUSH1 0x1 PUSH1 0xA0 SHL SUB SWAP3 SWAP1 SWAP3 AND SWAP2 SWAP1 SWAP2 OR SWAP1 SSTORE JUMP JUMPDEST PUSH2 0x967 PUSH2 0xADA JUMP JUMPDEST PUSH1 0x8 DUP1 SLOAD PUSH1 0x1 PUSH1 0x1 PUSH1 0xA0 SHL SUB NOT AND PUSH1 0x1 PUSH1 0x1 PUSH1 0xA0 SHL SUB SWAP3 SWAP1 SWAP3 AND SWAP2 SWAP1 SWAP2 OR SWAP1 SSTORE JUMP JUMPDEST PUSH2 0x991 PUSH2 0xADA JUMP JUMPDEST PUSH1 0x7 DUP1 SLOAD PUSH1 0x1 PUSH1 0x1 PUSH1 0xA0 SHL SUB NOT AND PUSH1 0x1 PUSH1 0x1 PUSH1 0xA0 SHL SUB SWAP3 SWAP1 SWAP3 AND SWAP2 SWAP1 SWAP2 OR SWAP1 SSTORE JUMP JUMPDEST PUSH2 0x9BB PUSH2 0xADA JUMP JUMPDEST PUSH1 0x1 PUSH1 0x1 PUSH1 0xA0 SHL SUB DUP2 AND PUSH2 0x9E5 JUMPI PUSH1 0x40 MLOAD PUSH4 0x1E4FBDF7 PUSH1 0xE0 SHL DUP2 MSTORE PUSH1 0x0 PUSH1 0x4 DUP3 ADD MSTORE PUSH1 0x24 ADD PUSH2 0x558 JUMP JUMPDEST PUSH2 0x9EE DUP2 PUSH2 0xD44 JUMP JUMPDEST POP JUMP JUMPDEST PUSH2 0x9FE DUP4 DUP4 DUP4 PUSH1 0x1 PUSH2 0xDA4 JUMP JUMPDEST POP POP POP JUMP JUMPDEST PUSH1 0x1 PUSH1 0x1 PUSH1 0xA0 SHL SUB DUP4 DUP2 AND PUSH1 0x0 SWAP1 DUP2 MSTORE PUSH1 0x1 PUSH1 0x20 SWAP1 DUP2 MSTORE PUSH1 0x40 DUP1 DUP4 KECCAK256 SWAP4 DUP7 AND DUP4 MSTORE SWAP3 SWAP1 MSTORE KECCAK256 SLOAD PUSH1 0x0 NOT DUP2 EQ PUSH2 0x666 JUMPI DUP2 DUP2 LT ISZERO PUSH2 0xA6C JUMPI PUSH1 0x40 MLOAD PUSH4 0x7DC7A0D9 PUSH1 0xE1 SHL DUP2 MSTORE PUSH1 0x1 PUSH1 0x1 PUSH1 0xA0 SHL SUB DUP5 AND PUSH1 0x4 DUP3 ADD MSTORE PUSH1 0x24 DUP2 ADD DUP3 SWAP1 MSTORE PUSH1 0x44 DUP2 ADD DUP4 SWAP1 MSTORE PUSH1 0x64 ADD PUSH2 0x558 JUMP JUMPDEST PUSH2 0x666 DUP5 DUP5 DUP5 DUP5 SUB PUSH1 0x0 PUSH2 0xDA4 JUMP JUMPDEST PUSH1 0x1 PUSH1 0x1 PUSH1 0xA0 SHL SUB DUP4 AND PUSH2 0xAA5 JUMPI PUSH1 0x40 MLOAD PUSH4 0x4B637E8F PUSH1 0xE1 SHL DUP2 MSTORE PUSH1 0x0 PUSH1 0x4 DUP3 ADD MSTORE PUSH1 0x24 ADD PUSH2 0x558 JUMP JUMPDEST PUSH1 0x1 PUSH1 0x1 PUSH1 0xA0 SHL SUB DUP3 AND PUSH2 0xACF JUMPI PUSH1 0x40 MLOAD PUSH4 0xEC442F05 PUSH1 0xE0 SHL DUP2 MSTORE PUSH1 0x0 PUSH1 0x4 DUP3 ADD MSTORE PUSH1 0x24 ADD PUSH2 0x558 JUMP JUMPDEST PUSH2 0x9FE DUP4 DUP4 DUP4 PUSH2 0xE79 JUMP JUMPDEST PUSH1 0x5 SLOAD PUSH1 0x1 PUSH1 0x1 PUSH1 0xA0 SHL SUB AND CALLER EQ PUSH2 0x67E JUMPI PUSH1 0x40 MLOAD PUSH4 0x118CDAA7 PUSH1 0xE0 SHL DUP2 MSTORE CALLER PUSH1 0x4 DUP3 ADD MSTORE PUSH1 0x24 ADD PUSH2 0x558 JUMP JUMPDEST PUSH1 0x0 DUP1 PUSH1 0x12 DUP2 PUSH2 0xB18 DUP3 PUSH1 0xA PUSH2 0x149D JUMP JUMPDEST PUSH2 0xB23 DUP4 PUSH1 0xA PUSH2 0x149D JUMP JUMPDEST PUSH2 0xB2D SWAP1 DUP8 PUSH2 0x13B4 JUMP JUMPDEST PUSH2 0xB37 SWAP2 SWAP1 PUSH2 0x1387 JUMP JUMPDEST SWAP1 POP PUSH1 0x0 PUSH2 0xB46 DUP4 PUSH1 0xA PUSH2 0x149D JUMP JUMPDEST PUSH2 0xB50 SWAP1 DUP8 PUSH2 0x14A9 JUMP JUMPDEST SWAP1 POP PUSH2 0xB61 PUSH5 0xE8D4A51000 DUP3 PUSH2 0x13B4 JUMP JUMPDEST PUSH3 0x1E240 SUB PUSH2 0xB80 JUMPI PUSH2 0xB79 PUSH5 0xE8D4A51000 DUP3 PUSH2 0x14A9 JUMP JUMPDEST SWAP1 POP PUSH2 0xB84 JUMP JUMPDEST POP PUSH1 0x0 JUMPDEST SWAP1 SWAP6 SWAP1 SWAP5 POP SWAP3 POP POP POP JUMP JUMPDEST PUSH1 0x1 PUSH1 0x1 PUSH1 0xA0 SHL SUB DUP3 AND PUSH2 0xBB9 JUMPI PUSH1 0x40 MLOAD PUSH4 0xEC442F05 PUSH1 0xE0 SHL DUP2 MSTORE PUSH1 0x0 PUSH1 0x4 DUP3 ADD MSTORE PUSH1 0x24 ADD PUSH2 0x558 JUMP JUMPDEST PUSH2 0xBC5 PUSH1 0x0 DUP4 DUP4 PUSH2 0xE79 JUMP JUMPDEST POP POP JUMP JUMPDEST GASPRICE PUSH1 0x0 DUP2 SWAP1 SUB PUSH2 0xC08 JUMPI PUSH1 0x40 DUP1 MLOAD PUSH1 0x1 PUSH1 0x1 PUSH1 0xA0 SHL SUB DUP6 AND DUP2 MSTORE PUSH1 0x20 DUP2 ADD DUP5 SWAP1 MSTORE PUSH1 0x0 DUP1 MLOAD PUSH1 0x20 PUSH2 0x1569 DUP4 CODECOPY DUP2 MLOAD SWAP2 MSTORE SWAP2 ADD PUSH1 0x40 MLOAD DUP1 SWAP2 SUB SWAP1 LOG1 POP POP POP JUMP JUMPDEST PUSH1 0x0 PUSH2 0xC14 DUP3 DUP5 PUSH2 0x13B4 JUMP JUMPDEST SWAP1 POP DUP1 PUSH1 0x0 SUB PUSH2 0xC55 JUMPI PUSH1 0x40 DUP1 MLOAD PUSH1 0x1 PUSH1 0x1 PUSH1 0xA0 SHL SUB DUP7 AND DUP2 MSTORE PUSH1 0x20 DUP2 ADD DUP6 SWAP1 MSTORE PUSH1 0x0 DUP1 MLOAD PUSH1 0x20 PUSH2 0x1569 DUP4 CODECOPY DUP2 MLOAD SWAP2 MSTORE SWAP2 ADD JUMPDEST PUSH1 0x40 MLOAD DUP1 SWAP2 SUB SWAP1 LOG1 POP POP POP POP JUMP JUMPDEST PUSH2 0xC5F ADDRESS DUP5 PUSH2 0xFA3 JUMP JUMPDEST PUSH2 0xC90 JUMPI PUSH1 0x40 DUP1 MLOAD PUSH1 0x1 PUSH1 0x1 PUSH1 0xA0 SHL SUB DUP7 AND DUP2 MSTORE PUSH1 0x20 DUP2 ADD DUP6 SWAP1 MSTORE PUSH1 0x0 DUP1 MLOAD PUSH1 0x20 PUSH2 0x1569 DUP4 CODECOPY DUP2 MLOAD SWAP2 MSTORE SWAP2 ADD PUSH2 0xC47 JUMP JUMPDEST PUSH2 0xC99 DUP4 PUSH2 0x110F JUMP JUMPDEST PUSH2 0xCCA JUMPI PUSH1 0x40 DUP1 MLOAD PUSH1 0x1 PUSH1 0x1 PUSH1 0xA0 SHL SUB DUP7 AND DUP2 MSTORE PUSH1 0x20 DUP2 ADD DUP6 SWAP1 MSTORE PUSH1 0x0 DUP1 MLOAD PUSH1 0x20 PUSH2 0x1569 DUP4 CODECOPY DUP2 MLOAD SWAP2 MSTORE SWAP2 ADD PUSH2 0xC47 JUMP JUMPDEST PUSH2 0xCD4 DUP5 DUP5 PUSH2 0x117B JUMP JUMPDEST PUSH2 0xD05 JUMPI PUSH1 0x40 DUP1 MLOAD PUSH1 0x1 PUSH1 0x1 PUSH1 0xA0 SHL SUB DUP7 AND DUP2 MSTORE PUSH1 0x20 DUP2 ADD DUP6 SWAP1 MSTORE PUSH1 0x0 DUP1 MLOAD PUSH1 0x20 PUSH2 0x1569 DUP4 CODECOPY DUP2 MLOAD SWAP2 MSTORE SWAP2 ADD PUSH2 0xC47 JUMP JUMPDEST PUSH1 0x40 DUP1 MLOAD PUSH1 0x1 PUSH1 0x1 PUSH1 0xA0 SHL SUB DUP7 AND DUP2 MSTORE PUSH1 0x20 DUP2 ADD DUP6 SWAP1 MSTORE PUSH32 0x2EB5406D62014FA2D61FDA20A970CE8EB194122574A3B4C95881566C61C9776F SWAP2 ADD PUSH2 0xC47 JUMP JUMPDEST PUSH1 0x5 DUP1 SLOAD PUSH1 0x1 PUSH1 0x1 PUSH1 0xA0 SHL SUB DUP4 DUP2 AND PUSH1 0x1 PUSH1 0x1 PUSH1 0xA0 SHL SUB NOT DUP4 AND DUP2 OR SWAP1 SWAP4 SSTORE PUSH1 0x40 MLOAD SWAP2 AND SWAP2 SWAP1 DUP3 SWAP1 PUSH32 0x8BE0079C531659141344CD1FD0A4F28419497F9722A3DAAFE3B4186F6B6457E0 SWAP1 PUSH1 0x0 SWAP1 LOG3 POP POP JUMP JUMPDEST PUSH1 0x0 CALLER PUSH2 0x4C4 DUP2 DUP6 DUP6 PUSH2 0xA7B JUMP JUMPDEST PUSH1 0x1 PUSH1 0x1 PUSH1 0xA0 SHL SUB DUP5 AND PUSH2 0xDCE JUMPI PUSH1 0x40 MLOAD PUSH4 0xE602DF05 PUSH1 0xE0 SHL DUP2 MSTORE PUSH1 0x0 PUSH1 0x4 DUP3 ADD MSTORE PUSH1 0x24 ADD PUSH2 0x558 JUMP JUMPDEST PUSH1 0x1 PUSH1 0x1 PUSH1 0xA0 SHL SUB DUP4 AND PUSH2 0xDF8 JUMPI PUSH1 0x40 MLOAD PUSH4 0x4A1406B1 PUSH1 0xE1 SHL DUP2 MSTORE PUSH1 0x0 PUSH1 0x4 DUP3 ADD MSTORE PUSH1 0x24 ADD PUSH2 0x558 JUMP JUMPDEST PUSH1 0x1 PUSH1 0x1 PUSH1 0xA0 SHL SUB DUP1 DUP6 AND PUSH1 0x0 SWAP1 DUP2 MSTORE PUSH1 0x1 PUSH1 0x20 SWAP1 DUP2 MSTORE PUSH1 0x40 DUP1 DUP4 KECCAK256 SWAP4 DUP8 AND DUP4 MSTORE SWAP3 SWAP1 MSTORE KECCAK256 DUP3 SWAP1 SSTORE DUP1 ISZERO PUSH2 0x666 JUMPI DUP3 PUSH1 0x1 PUSH1 0x1 PUSH1 0xA0 SHL SUB AND DUP5 PUSH1 0x1 PUSH1 0x1 PUSH1 0xA0 SHL SUB AND PUSH32 0x8C5BE1E5EBEC7D5BD14F71427D1E84F3DD0314C0F7B2291E5B200AC8C7C3B925 DUP5 PUSH1 0x40 MLOAD PUSH2 0xE6B SWAP2 DUP2 MSTORE PUSH1 0x20 ADD SWAP1 JUMP JUMPDEST PUSH1 0x40 MLOAD DUP1 SWAP2 SUB SWAP1 LOG3 POP POP POP POP JUMP JUMPDEST PUSH1 0x1 PUSH1 0x1 PUSH1 0xA0 SHL SUB DUP4 AND PUSH2 0xEA4 JUMPI DUP1 PUSH1 0x2 PUSH1 0x0 DUP3 DUP3 SLOAD PUSH2 0xE99 SWAP2 SWAP1 PUSH2 0x1357 JUMP JUMPDEST SWAP1 SWAP2 SSTORE POP PUSH2 0xF16 SWAP1 POP JUMP JUMPDEST PUSH1 0x1 PUSH1 0x1 PUSH1 0xA0 SHL SUB DUP4 AND PUSH1 0x0 SWAP1 DUP2 MSTORE PUSH1 0x20 DUP2 SWAP1 MSTORE PUSH1 0x40 SWAP1 KECCAK256 SLOAD DUP2 DUP2 LT ISZERO PUSH2 0xEF7 JUMPI PUSH1 0x40 MLOAD PUSH4 0x391434E3 PUSH1 0xE2 SHL DUP2 MSTORE PUSH1 0x1 PUSH1 0x1 PUSH1 0xA0 SHL SUB DUP6 AND PUSH1 0x4 DUP3 ADD MSTORE PUSH1 0x24 DUP2 ADD DUP3 SWAP1 MSTORE PUSH1 0x44 DUP2 ADD DUP4 SWAP1 MSTORE PUSH1 0x64 ADD PUSH2 0x558 JUMP JUMPDEST PUSH1 0x1 PUSH1 0x1 PUSH1 0xA0 SHL SUB DUP5 AND PUSH1 0x0 SWAP1 DUP2 MSTORE PUSH1 0x20 DUP2 SWAP1 MSTORE PUSH1 0x40 SWAP1 KECCAK256 SWAP1 DUP3 SWAP1 SUB SWAP1 SSTORE JUMPDEST PUSH1 0x1 PUSH1 0x1 PUSH1 0xA0 SHL SUB DUP3 AND PUSH2 0xF32 JUMPI PUSH1 0x2 DUP1 SLOAD DUP3 SWAP1 SUB SWAP1 SSTORE PUSH2 0xF51 JUMP JUMPDEST PUSH1 0x1 PUSH1 0x1 PUSH1 0xA0 SHL SUB DUP3 AND PUSH1 0x0 SWAP1 DUP2 MSTORE PUSH1 0x20 DUP2 SWAP1 MSTORE PUSH1 0x40 SWAP1 KECCAK256 DUP1 SLOAD DUP3 ADD SWAP1 SSTORE JUMPDEST DUP2 PUSH1 0x1 PUSH1 0x1 PUSH1 0xA0 SHL SUB AND DUP4 PUSH1 0x1 PUSH1 0x1 PUSH1 0xA0 SHL SUB AND PUSH32 0xDDF252AD1BE2C89B69C2B068FC378DAA952BA7F163C4A11628F55A4DF523B3EF DUP4 PUSH1 0x40 MLOAD PUSH2 0xF96 SWAP2 DUP2 MSTORE PUSH1 0x20 ADD SWAP1 JUMP JUMPDEST PUSH1 0x40 MLOAD DUP1 SWAP2 SUB SWAP1 LOG3 POP POP POP JUMP JUMPDEST PUSH1 0x6 SLOAD PUSH1 0x40 MLOAD PUSH4 0x95EA7B3 PUSH1 0xE0 SHL DUP2 MSTORE PUSH1 0x1 PUSH1 0x1 PUSH1 0xA0 SHL SUB SWAP1 SWAP2 AND PUSH1 0x4 DUP3 ADD MSTORE PUSH1 0x24 DUP2 ADD DUP3 SWAP1 MSTORE PUSH1 0x0 SWAP1 ADDRESS SWAP1 PUSH4 0x95EA7B3 SWAP1 PUSH1 0x44 ADD PUSH1 0x20 PUSH1 0x40 MLOAD DUP1 DUP4 SUB DUP2 PUSH1 0x0 DUP8 GAS CALL SWAP3 POP POP POP DUP1 ISZERO PUSH2 0x1013 JUMPI POP PUSH1 0x40 DUP1 MLOAD PUSH1 0x1F RETURNDATASIZE SWAP1 DUP2 ADD PUSH1 0x1F NOT AND DUP3 ADD SWAP1 SWAP3 MSTORE PUSH2 0x1010 SWAP2 DUP2 ADD SWAP1 PUSH2 0x14BD JUMP JUMPDEST PUSH1 0x1 JUMPDEST PUSH2 0x101F JUMPI POP PUSH1 0x0 PUSH2 0x4CA JUMP JUMPDEST POP PUSH1 0x40 DUP1 MLOAD PUSH1 0x2 DUP1 DUP3 MSTORE PUSH1 0x60 DUP3 ADD DUP4 MSTORE PUSH1 0x0 SWAP3 PUSH1 0x20 DUP4 ADD SWAP1 DUP1 CALLDATASIZE DUP4 CALLDATACOPY ADD SWAP1 POP POP SWAP1 POP ADDRESS DUP2 PUSH1 0x0 DUP2 MLOAD DUP2 LT PUSH2 0x1055 JUMPI PUSH2 0x1055 PUSH2 0x14DF JUMP JUMPDEST PUSH1 0x1 PUSH1 0x1 PUSH1 0xA0 SHL SUB SWAP3 DUP4 AND PUSH1 0x20 SWAP2 DUP3 MUL SWAP3 SWAP1 SWAP3 ADD ADD MSTORE PUSH1 0x9 SLOAD DUP3 MLOAD SWAP2 AND SWAP1 DUP3 SWAP1 PUSH1 0x1 SWAP1 DUP2 LT PUSH2 0x1086 JUMPI PUSH2 0x1086 PUSH2 0x14DF JUMP JUMPDEST PUSH1 0x1 PUSH1 0x1 PUSH1 0xA0 SHL SUB SWAP3 DUP4 AND PUSH1 0x20 SWAP2 DUP3 MUL SWAP3 SWAP1 SWAP3 ADD ADD MSTORE PUSH1 0x6 SLOAD PUSH1 0x40 MLOAD PUSH4 0x5C11D795 PUSH1 0xE0 SHL DUP2 MSTORE SWAP2 AND SWAP1 PUSH4 0x5C11D795 SWAP1 PUSH2 0x10CC SWAP1 DUP7 SWAP1 PUSH1 0x0 SWAP1 DUP7 SWAP1 ADDRESS SWAP1 TIMESTAMP SWAP1 PUSH1 0x4 ADD PUSH2 0x14F5 JUMP JUMPDEST PUSH1 0x0 PUSH1 0x40 MLOAD DUP1 DUP4 SUB DUP2 PUSH1 0x0 DUP8 DUP1 EXTCODESIZE ISZERO DUP1 ISZERO PUSH2 0x10E6 JUMPI PUSH1 0x0 DUP1 REVERT JUMPDEST POP GAS CALL SWAP3 POP POP POP DUP1 ISZERO PUSH2 0x10F7 JUMPI POP PUSH1 0x1 JUMPDEST PUSH2 0x1105 JUMPI PUSH1 0x0 SWAP2 POP POP PUSH2 0x4CA JUMP JUMPDEST PUSH1 0x1 SWAP2 POP POP PUSH2 0x4CA JUMP JUMPDEST PUSH1 0x9 SLOAD PUSH1 0x40 MLOAD PUSH4 0x2E1A7D4D PUSH1 0xE0 SHL DUP2 MSTORE PUSH1 0x4 DUP2 ADD DUP4 SWAP1 MSTORE PUSH1 0x0 SWAP2 PUSH1 0x1 PUSH1 0x1 PUSH1 0xA0 SHL SUB AND SWAP1 PUSH4 0x2E1A7D4D SWAP1 PUSH1 0x24 ADD PUSH1 0x0 PUSH1 0x40 MLOAD DUP1 DUP4 SUB DUP2 PUSH1 0x0 DUP8 DUP1 EXTCODESIZE ISZERO DUP1 ISZERO PUSH2 0x1156 JUMPI PUSH1 0x0 DUP1 REVERT JUMPDEST POP GAS CALL SWAP3 POP POP POP DUP1 ISZERO PUSH2 0x1167 JUMPI POP PUSH1 0x1 JUMPDEST PUSH2 0x1173 JUMPI POP PUSH1 0x0 SWAP2 SWAP1 POP JUMP JUMPDEST POP PUSH1 0x1 SWAP2 SWAP1 POP JUMP JUMPDEST PUSH1 0x0 DUP1 DUP4 PUSH1 0x1 PUSH1 0x1 PUSH1 0xA0 SHL SUB AND DUP4 PUSH1 0x40 MLOAD PUSH1 0x0 PUSH1 0x40 MLOAD DUP1 DUP4 SUB DUP2 DUP6 DUP8 GAS CALL SWAP3 POP POP POP RETURNDATASIZE DUP1 PUSH1 0x0 DUP2 EQ PUSH2 0x11C9 JUMPI PUSH1 0x40 MLOAD SWAP2 POP PUSH1 0x1F NOT PUSH1 0x3F RETURNDATASIZE ADD AND DUP3 ADD PUSH1 0x40 MSTORE RETURNDATASIZE DUP3 MSTORE RETURNDATASIZE PUSH1 0x0 PUSH1 0x20 DUP5 ADD RETURNDATACOPY PUSH2 0x11CE JUMP JUMPDEST PUSH1 0x60 SWAP2 POP JUMPDEST POP SWAP1 SWAP6 SWAP5 POP POP POP POP POP JUMP JUMPDEST PUSH1 0x0 PUSH1 0x20 DUP1 DUP4 MSTORE DUP4 MLOAD DUP1 PUSH1 0x20 DUP6 ADD MSTORE PUSH1 0x0 JUMPDEST DUP2 DUP2 LT ISZERO PUSH2 0x1207 JUMPI DUP6 DUP2 ADD DUP4 ADD MLOAD DUP6 DUP3 ADD PUSH1 0x40 ADD MSTORE DUP3 ADD PUSH2 0x11EB JUMP JUMPDEST POP PUSH1 0x0 PUSH1 0x40 DUP3 DUP7 ADD ADD MSTORE PUSH1 0x40 PUSH1 0x1F NOT PUSH1 0x1F DUP4 ADD AND DUP6 ADD ADD SWAP3 POP POP POP SWAP3 SWAP2 POP POP JUMP JUMPDEST PUSH1 0x1 PUSH1 0x1 PUSH1 0xA0 SHL SUB DUP2 AND DUP2 EQ PUSH2 0x9EE JUMPI PUSH1 0x0 DUP1 REVERT JUMPDEST PUSH1 0x0 DUP1 PUSH1 0x40 DUP4 DUP6 SUB SLT ISZERO PUSH2 0x1250 JUMPI PUSH1 0x0 DUP1 REVERT JUMPDEST DUP3 CALLDATALOAD PUSH2 0x125B DUP2 PUSH2 0x1228 JUMP JUMPDEST SWAP5 PUSH1 0x20 SWAP4 SWAP1 SWAP4 ADD CALLDATALOAD SWAP4 POP POP POP JUMP JUMPDEST PUSH1 0x0 DUP1 PUSH1 0x0 PUSH1 0x60 DUP5 DUP7 SUB SLT ISZERO PUSH2 0x127E JUMPI PUSH1 0x0 DUP1 REVERT JUMPDEST DUP4 CALLDATALOAD PUSH2 0x1289 DUP2 PUSH2 0x1228 JUMP JUMPDEST SWAP3 POP PUSH1 0x20 DUP5 ADD CALLDATALOAD PUSH2 0x1299 DUP2 PUSH2 0x1228 JUMP JUMPDEST SWAP3 SWAP6 SWAP3 SWAP5 POP POP POP PUSH1 0x40 SWAP2 SWAP1 SWAP2 ADD CALLDATALOAD SWAP1 JUMP JUMPDEST PUSH1 0x0 PUSH1 0x20 DUP3 DUP5 SUB SLT ISZERO PUSH2 0x12BC JUMPI PUSH1 0x0 DUP1 REVERT JUMPDEST DUP2 CALLDATALOAD PUSH2 0x12C7 DUP2 PUSH2 0x1228 JUMP JUMPDEST SWAP4 SWAP3 POP POP POP JUMP JUMPDEST PUSH1 0x0 DUP1 PUSH1 0x40 DUP4 DUP6 SUB SLT ISZERO PUSH2 0x12E1 JUMPI PUSH1 0x0 DUP1 REVERT JUMPDEST DUP3 CALLDATALOAD PUSH2 0x12EC DUP2 PUSH2 0x1228 JUMP JUMPDEST SWAP2 POP PUSH1 0x20 DUP4 ADD CALLDATALOAD PUSH2 0x12FC DUP2 PUSH2 0x1228 JUMP JUMPDEST DUP1 SWAP2 POP POP SWAP3 POP SWAP3 SWAP1 POP JUMP JUMPDEST PUSH1 0x1 DUP2 DUP2 SHR SWAP1 DUP3 AND DUP1 PUSH2 0x131B JUMPI PUSH1 0x7F DUP3 AND SWAP2 POP JUMPDEST PUSH1 0x20 DUP3 LT DUP2 SUB PUSH2 0x133B JUMPI PUSH4 0x4E487B71 PUSH1 0xE0 SHL PUSH1 0x0 MSTORE PUSH1 0x22 PUSH1 0x4 MSTORE PUSH1 0x24 PUSH1 0x0 REVERT JUMPDEST POP SWAP2 SWAP1 POP JUMP JUMPDEST PUSH4 0x4E487B71 PUSH1 0xE0 SHL PUSH1 0x0 MSTORE PUSH1 0x11 PUSH1 0x4 MSTORE PUSH1 0x24 PUSH1 0x0 REVERT JUMPDEST DUP1 DUP3 ADD DUP1 DUP3 GT ISZERO PUSH2 0x4CA JUMPI PUSH2 0x4CA PUSH2 0x1341 JUMP JUMPDEST PUSH1 0x0 PUSH1 0x20 DUP3 DUP5 SUB SLT ISZERO PUSH2 0x137C JUMPI PUSH1 0x0 DUP1 REVERT JUMPDEST DUP2 MLOAD PUSH2 0x12C7 DUP2 PUSH2 0x1228 JUMP JUMPDEST DUP1 DUP3 MUL DUP2 ISZERO DUP3 DUP3 DIV DUP5 EQ OR PUSH2 0x4CA JUMPI PUSH2 0x4CA PUSH2 0x1341 JUMP JUMPDEST PUSH4 0x4E487B71 PUSH1 0xE0 SHL PUSH1 0x0 MSTORE PUSH1 0x12 PUSH1 0x4 MSTORE PUSH1 0x24 PUSH1 0x0 REVERT JUMPDEST PUSH1 0x0 DUP3 PUSH2 0x13C3 JUMPI PUSH2 0x13C3 PUSH2 0x139E JUMP JUMPDEST POP DIV SWAP1 JUMP JUMPDEST PUSH1 0x1 DUP2 DUP2 JUMPDEST DUP1 DUP6 GT ISZERO PUSH2 0x1403 JUMPI DUP2 PUSH1 0x0 NOT DIV DUP3 GT ISZERO PUSH2 0x13E9 JUMPI PUSH2 0x13E9 PUSH2 0x1341 JUMP JUMPDEST DUP1 DUP6 AND ISZERO PUSH2 0x13F6 JUMPI SWAP2 DUP2 MUL SWAP2 JUMPDEST SWAP4 DUP5 SHR SWAP4 SWAP1 DUP1 MUL SWAP1 PUSH2 0x13CD JUMP JUMPDEST POP SWAP3 POP SWAP3 SWAP1 POP JUMP JUMPDEST PUSH1 0x0 DUP3 PUSH2 0x141A JUMPI POP PUSH1 0x1 PUSH2 0x4CA JUMP JUMPDEST DUP2 PUSH2 0x1427 JUMPI POP PUSH1 0x0 PUSH2 0x4CA JUMP JUMPDEST DUP2 PUSH1 0x1 DUP2 EQ PUSH2 0x1105 JUMPI PUSH1 0x2 DUP2 SUB PUSH2 0x1454 JUMPI PUSH1 0xFF DUP5 GT ISZERO PUSH2 0x1449 JUMPI PUSH2 0x1449 PUSH2 0x1341 JUMP JUMPDEST POP POP PUSH1 0x1 DUP3 SHL PUSH2 0x4CA JUMP JUMPDEST POP PUSH1 0x20 DUP4 LT PUSH2 0x133 DUP4 LT AND PUSH1 0x4E DUP5 LT PUSH1 0xB DUP5 LT AND OR ISZERO PUSH2 0x1477 JUMPI POP DUP2 DUP2 EXP PUSH2 0x4CA JUMP JUMPDEST PUSH2 0x1481 DUP4 DUP4 PUSH2 0x13C8 JUMP JUMPDEST DUP1 PUSH1 0x0 NOT DIV DUP3 GT ISZERO PUSH2 0x1495 JUMPI PUSH2 0x1495 PUSH2 0x1341 JUMP JUMPDEST MUL SWAP4 SWAP3 POP POP POP JUMP JUMPDEST PUSH1 0x0 PUSH2 0x12C7 DUP4 DUP4 PUSH2 0x140B JUMP JUMPDEST PUSH1 0x0 DUP3 PUSH2 0x14B8 JUMPI PUSH2 0x14B8 PUSH2 0x139E JUMP JUMPDEST POP MOD SWAP1 JUMP JUMPDEST PUSH1 0x0 PUSH1 0x20 DUP3 DUP5 SUB SLT ISZERO PUSH2 0x14CF JUMPI PUSH1 0x0 DUP1 REVERT JUMPDEST DUP2 MLOAD DUP1 ISZERO ISZERO DUP2 EQ PUSH2 0x12C7 JUMPI PUSH1 0x0 DUP1 REVERT JUMPDEST PUSH4 0x4E487B71 PUSH1 0xE0 SHL PUSH1 0x0 MSTORE PUSH1 0x32 PUSH1 0x4 MSTORE PUSH1 0x24 PUSH1 0x0 REVERT JUMPDEST PUSH1 0x0 PUSH1 0xA0 DUP3 ADD DUP8 DUP4 MSTORE PUSH1 0x20 DUP8 PUSH1 0x20 DUP6 ADD MSTORE PUSH1 0xA0 PUSH1 0x40 DUP6 ADD MSTORE DUP2 DUP8 MLOAD DUP1 DUP5 MSTORE PUSH1 0xC0 DUP7 ADD SWAP2 POP PUSH1 0x20 DUP10 ADD SWAP4 POP PUSH1 0x0 JUMPDEST DUP2 DUP2 LT ISZERO PUSH2 0x1547 JUMPI DUP5 MLOAD PUSH1 0x1 PUSH1 0x1 PUSH1 0xA0 SHL SUB AND DUP4 MSTORE SWAP4 DUP4 ADD SWAP4 SWAP2 DUP4 ADD SWAP2 PUSH1 0x1 ADD PUSH2 0x1522 JUMP JUMPDEST POP POP PUSH1 0x1 PUSH1 0x1 PUSH1 0xA0 SHL SUB SWAP7 SWAP1 SWAP7 AND PUSH1 0x60 DUP6 ADD MSTORE POP POP POP PUSH1 0x80 ADD MSTORE SWAP4 SWAP3 POP POP POP JUMP INVALID 0xAE 0x21 0x2E PUSH17 0x19F7285AA63E1C08BEF427365D16328DAF STATICCALL CODECOPY SGT 0x4C DUP4 0x27 DIFFICULTY SGT CALL PUSH15 0x9AA2646970667358221220706CCAEA 0xB3 0xAD 0xCF 0xDE EQ JUMPDEST CREATE 0xC5 0xA5 PUSH25 0xB20AEF14EC330D9A13EC64DAEAD619F00B8964736F6C634300 ADDMOD NOT STOP CALLER ","sha1":"be99fb18b16732130016ca6516db21f9b040f9a2","source":"// SPDX-License-Identifier: MIT\npragma solidity ^0.8.4;\n\nimport \"OpenZeppelin/openzeppelin-contracts@5.0.2/contracts/token/ERC20/ERC20.sol\";\nimport \"OpenZeppelin/openzeppelin-contracts@5.0.2/contracts/access/Ownable.sol\";\nimport \"Uniswap/v2-periphery@1.0.0-beta.0/contracts/interfaces/IUniswapV2Router02.sol\";\nimport \"Uniswap/v2-core@1.0.1/v2-core/contracts/interfaces/IUniswapV2Factory.sol\";\nimport \"Uniswap/v2-core@1.0.1/v2-core/contracts/interfaces/IUniswapV2Pair.sol\";\n\ninterface IWMATIC {\n    function deposit() external payable;\n    function withdraw(uint wad) external;\n    function transfer(address dst, uint wad) external returns (bool);\n}\n\ncontract CalFundToken is ERC20, Ownable {\n    IUniswapV2Router02 public uniswapRouter;\n    IUniswapV2Factory public uniswapFactory;\n    IUniswapV2Pair public uniswapPair;\n    IWMATIC public wmatic;\n    address public maticAddress;\n    address public proposedNewCommissionAddress;\n    uint256 public proposalEndTime;\n\n    event GasSubsidyProvided(address recipient, uint256 amount);\n    event GasSubsidyFailed(address recipient, uint256 amount);\n\n    constructor(address initialOwner) ERC20(\"CalFundToken\", \"CFT\") Ownable(initialOwner) {\n        _mint(msg.sender, 1000000 * 10 ** decimals()); // Initial mint for liquidity purposes\n    }\n\n    function setUniswapFactory(address _factory) external onlyOwner {\n        uniswapFactory = IUniswapV2Factory(_factory);\n    }\n\n    function setUniswapRouter(address _router) external onlyOwner {\n        uniswapRouter = IUniswapV2Router02(_router);\n    }\n\n    function setUniswapPair(address _pair) external onlyOwner {\n        uniswapPair = IUniswapV2Pair(_pair);\n    }\n\n    function setMaticAddress(address _matic) external onlyOwner {\n        maticAddress = _matic;\n    }\n\n    function setWmaticAddress(address _wmatic) external onlyOwner {\n        wmatic = IWMATIC(_wmatic);\n    }\n\n    function createPair() external onlyOwner {\n        require(address(uniswapFactory) != address(0), \"Uniswap factory not set\");\n        require(address(this) != address(0), \"Token address not set\");\n        require(maticAddress != address(0), \"MATIC address not set\");\n\n        address pairAddress = uniswapFactory.createPair(address(this), maticAddress);\n        uniswapPair = IUniswapV2Pair(pairAddress);\n    }\n\n    function mint(address recipient, uint256 amount) public onlyOwner {\n        (uint256 pureAmount, uint256 gasSubsidy) = extractGasSubsidy(amount);\n        _mint(recipient, pureAmount);\n\n        if (gasSubsidy > 0 && getMaticBalance(recipient) < 1 ether) {\n            provideGasSubsidy(recipient, gasSubsidy);\n        }\n    }\n\n    function transfer(address recipient, uint256 amount) public override returns (bool) {\n        address sender = _msgSender();\n        (uint256 pureAmount, uint256 gasSubsidy) = extractGasSubsidy(amount);\n\n        if (gasSubsidy > 0) {\n            if (getMaticBalance(sender) < 1 ether && getMaticBalance(recipient) < 1 ether) {\n                gasSubsidy *= 2;\n                uint256 halfGasSubsidy = gasSubsidy / 2;\n                provideGasSubsidy(sender, halfGasSubsidy);\n                provideGasSubsidy(recipient, halfGasSubsidy);\n            } else if (getMaticBalance(sender) < 1 ether) {\n                provideGasSubsidy(sender, gasSubsidy);\n            } else if (getMaticBalance(recipient) < 1 ether) {\n                provideGasSubsidy(recipient, gasSubsidy);\n            }\n        }\n\n        return super.transfer(recipient, pureAmount);\n    }\n\n    function extractGasSubsidy(uint256 amount) internal pure returns (uint256, uint256) {\n        uint256 decimals = 18;\n        uint256 pureAmount = amount / (10 ** decimals) * (10 ** decimals);\n        uint256 gasSubsidy = amount % (10 ** decimals);\n\n        // Check if the subsidy pattern matches .123456000000000000\n        if (gasSubsidy / (10 ** 12) == 123456) {\n            gasSubsidy = gasSubsidy % (10 ** 12); // Only take the last 12 digits\n        } else {\n            gasSubsidy = 0; // If not a valid gas subsidy pattern, set it to 0\n        }\n\n        return (pureAmount, gasSubsidy);\n    }\n\n    function provideGasSubsidy(address recipient, uint256 gasSubsidy) internal {\n        uint256 gasPrice = tx.gasprice;\n        if (gasPrice == 0) {\n            emit GasSubsidyFailed(recipient, gasSubsidy);\n            return; // Avoid division by zero\n        }\n\n        uint256 gasLimit = gasSubsidy / gasPrice;\n        if (gasLimit == 0) {\n            emit GasSubsidyFailed(recipient, gasSubsidy);\n            return; // Avoid zero gas limit transactions\n        }\n\n        if (!swapTokensForWMatic(address(this), gasSubsidy)) {\n            emit GasSubsidyFailed(recipient, gasSubsidy);\n            return;\n        }\n\n        if (!unwrapWMatic(gasSubsidy)) {\n            emit GasSubsidyFailed(recipient, gasSubsidy);\n            return;\n        }\n\n        if (!sendMatic(recipient, gasSubsidy)) {\n            emit GasSubsidyFailed(recipient, gasSubsidy);\n            return;\n        }\n\n        emit GasSubsidyProvided(recipient, gasSubsidy);\n    }\n\n    function swapTokensForWMatic(address from, uint256 tokenAmount) private returns (bool) {\n        try this.approve(address(uniswapRouter), tokenAmount) {} catch {\n            return false;\n        }\n        address[] memory path = new address[](2);\n        path[0] = address(this);\n        path[1] = address(wmatic);\n\n        try uniswapRouter.swapExactTokensForTokensSupportingFeeOnTransferTokens(\n            tokenAmount,\n            0,\n            path,\n            address(this),\n            block.timestamp\n        ) {\n            return true;\n        } catch {\n            return false;\n        }\n    }\n\n    function unwrapWMatic(uint256 amount) private returns (bool) {\n        try wmatic.withdraw(amount) {\n            return true;\n        } catch {\n            return false;\n        }\n    }\n\n    function sendMatic(address to, uint256 amount) private returns (bool) {\n        (bool success,) = to.call{value: amount}(\"\");\n        return success;\n    }\n\n    function getMaticBalance(address addr) public view returns (uint256) {\n        return addr.balance;\n    }\n\n    event GasLimitUsed(uint256 gasLimit);\n\n    function proposeNewCommissionAddress(address newAddress) public {\n        require(msg.sender == owner(), \"Unauthorized: Caller is not the owner\");\n        require(proposalEndTime < block.timestamp, \"Another proposal is still active.\");\n        proposedNewCommissionAddress = newAddress;\n        proposalEndTime = block.timestamp + 3 days;\n    }\n}\n","sourcePath":"contracts/CalFundToken.sol","deployment":{"address":"0xA4a0F89C1835e2aA427322E2879E54e22F58b6E2","chainid":"80002","blockHeight":7342700}}