{"abi":[{"inputs":[{"internalType":"address","name":"initialOwner","type":"address"}],"stateMutability":"nonpayable","type":"constructor","name":"constructor"},{"inputs":[{"internalType":"address","name":"spender","type":"address"},{"internalType":"uint256","name":"allowance","type":"uint256"},{"internalType":"uint256","name":"needed","type":"uint256"}],"name":"ERC20InsufficientAllowance","type":"error"},{"inputs":[{"internalType":"address","name":"sender","type":"address"},{"internalType":"uint256","name":"balance","type":"uint256"},{"internalType":"uint256","name":"needed","type":"uint256"}],"name":"ERC20InsufficientBalance","type":"error"},{"inputs":[{"internalType":"address","name":"approver","type":"address"}],"name":"ERC20InvalidApprover","type":"error"},{"inputs":[{"internalType":"address","name":"receiver","type":"address"}],"name":"ERC20InvalidReceiver","type":"error"},{"inputs":[{"internalType":"address","name":"sender","type":"address"}],"name":"ERC20InvalidSender","type":"error"},{"inputs":[{"internalType":"address","name":"spender","type":"address"}],"name":"ERC20InvalidSpender","type":"error"},{"inputs":[{"internalType":"address","name":"owner","type":"address"}],"name":"OwnableInvalidOwner","type":"error"},{"inputs":[{"internalType":"address","name":"account","type":"address"}],"name":"OwnableUnauthorizedAccount","type":"error"},{"anonymous":false,"inputs":[{"indexed":true,"internalType":"address","name":"owner","type":"address"},{"indexed":true,"internalType":"address","name":"spender","type":"address"},{"indexed":false,"internalType":"uint256","name":"value","type":"uint256"}],"name":"Approval","type":"event"},{"anonymous":false,"inputs":[{"indexed":false,"internalType":"string","name":"message","type":"string"}],"name":"DexFailure","type":"event"},{"anonymous":false,"inputs":[{"indexed":true,"internalType":"address","name":"previousOwner","type":"address"},{"indexed":true,"internalType":"address","name":"newOwner","type":"address"}],"name":"OwnershipTransferred","type":"event"},{"anonymous":false,"inputs":[{"indexed":true,"internalType":"address","name":"from","type":"address"},{"indexed":true,"internalType":"address","name":"to","type":"address"},{"indexed":false,"internalType":"uint256","name":"value","type":"uint256"}],"name":"Transfer","type":"event"},{"inputs":[{"internalType":"address","name":"owner","type":"address"},{"internalType":"address","name":"spender","type":"address"}],"name":"allowance","outputs":[{"internalType":"uint256","name":"","type":"uint256"}],"stateMutability":"view","type":"function"},{"inputs":[{"internalType":"address","name":"spender","type":"address"},{"internalType":"uint256","name":"value","type":"uint256"}],"name":"approve","outputs":[{"internalType":"bool","name":"","type":"bool"}],"stateMutability":"nonpayable","type":"function"},{"inputs":[{"internalType":"address","name":"account","type":"address"}],"name":"balanceOf","outputs":[{"internalType":"uint256","name":"","type":"uint256"}],"stateMutability":"view","type":"function"},{"inputs":[],"name":"createPair","outputs":[],"stateMutability":"nonpayable","type":"function"},{"inputs":[],"name":"decimals","outputs":[{"internalType":"uint8","name":"","type":"uint8"}],"stateMutability":"view","type":"function"},{"inputs":[{"internalType":"address","name":"addr","type":"address"}],"name":"getMaticBalance","outputs":[{"internalType":"uint256","name":"","type":"uint256"}],"stateMutability":"view","type":"function"},{"inputs":[],"name":"maticAddress","outputs":[{"internalType":"address","name":"","type":"address"}],"stateMutability":"view","type":"function"},{"inputs":[{"internalType":"address","name":"recipient","type":"address"},{"internalType":"uint256","name":"amount","type":"uint256"}],"name":"mint","outputs":[],"stateMutability":"nonpayable","type":"function"},{"inputs":[],"name":"name","outputs":[{"internalType":"string","name":"","type":"string"}],"stateMutability":"view","type":"function"},{"inputs":[],"name":"owner","outputs":[{"internalType":"address","name":"","type":"address"}],"stateMutability":"view","type":"function"},{"inputs":[],"name":"proposalEndTime","outputs":[{"internalType":"uint256","name":"","type":"uint256"}],"stateMutability":"view","type":"function"},{"inputs":[],"name":"proposedNewCommissionAddress","outputs":[{"internalType":"address","name":"","type":"address"}],"stateMutability":"view","type":"function"},{"inputs":[],"name":"renounceOwnership","outputs":[],"stateMutability":"nonpayable","type":"function"},{"inputs":[{"internalType":"address","name":"_matic","type":"address"}],"name":"setMaticAddress","outputs":[],"stateMutability":"nonpayable","type":"function"},{"inputs":[{"internalType":"address","name":"_factory","type":"address"}],"name":"setUniswapFactory","outputs":[],"stateMutability":"nonpayable","type":"function"},{"inputs":[{"internalType":"address","name":"_pair","type":"address"}],"name":"setUniswapPair","outputs":[],"stateMutability":"nonpayable","type":"function"},{"inputs":[{"internalType":"address","name":"_router","type":"address"}],"name":"setUniswapRouter","outputs":[],"stateMutability":"nonpayable","type":"function"},{"inputs":[{"internalType":"address","name":"_wmatic","type":"address"}],"name":"setWmaticAddress","outputs":[],"stateMutability":"nonpayable","type":"function"},{"inputs":[],"name":"symbol","outputs":[{"internalType":"string","name":"","type":"string"}],"stateMutability":"view","type":"function"},{"inputs":[],"name":"totalSupply","outputs":[{"internalType":"uint256","name":"","type":"uint256"}],"stateMutability":"view","type":"function"},{"inputs":[{"internalType":"address","name":"recipient","type":"address"},{"internalType":"uint256","name":"amount","type":"uint256"}],"name":"transfer","outputs":[{"internalType":"bool","name":"","type":"bool"}],"stateMutability":"nonpayable","type":"function"},{"inputs":[{"internalType":"address","name":"from","type":"address"},{"internalType":"address","name":"to","type":"address"},{"internalType":"uint256","name":"value","type":"uint256"}],"name":"transferFrom","outputs":[{"internalType":"bool","name":"","type":"bool"}],"stateMutability":"nonpayable","type":"function"},{"inputs":[{"internalType":"address","name":"newOwner","type":"address"}],"name":"transferOwnership","outputs":[],"stateMutability":"nonpayable","type":"function"},{"inputs":[],"name":"uniswapFactory","outputs":[{"internalType":"contract IUniswapV2Factory","name":"","type":"address"}],"stateMutability":"view","type":"function"},{"inputs":[],"name":"uniswapPair","outputs":[{"internalType":"contract IUniswapV2Pair","name":"","type":"address"}],"stateMutability":"view","type":"function"},{"inputs":[],"name":"uniswapRouter","outputs":[{"internalType":"contract IUniswapV2Router02","name":"","type":"address"}],"stateMutability":"view","type":"function"},{"inputs":[],"name":"wmatic","outputs":[{"internalType":"contract IWMATIC","name":"","type":"address"}],"stateMutability":"view","type":"function"}],"bytecode":"608060405234801561001057600080fd5b506040516118db3803806118db83398101604081905261002f91610299565b806040518060400160405280600c81526020016b21b0b6233ab7322a37b5b2b760a11b8152506040518060400160405280600381526020016210d19560ea1b8152508160039081610080919061036a565b50600461008d828261036a565b5050506001600160a01b0381166100bf57604051631e4fbdf760e01b8152600060048201526024015b60405180910390fd5b6100c8816100e3565b506100dd3369d3c21bcecceda1000000610135565b50610450565b600580546001600160a01b038381166001600160a01b0319831681179093556040519116919082907f8be0079c531659141344cd1fd0a4f28419497f9722a3daafe3b4186f6b6457e090600090a35050565b6001600160a01b03821661015f5760405163ec442f0560e01b8152600060048201526024016100b6565b61016b6000838361016f565b5050565b6001600160a01b03831661019a57806002600082825461018f9190610429565b9091555061020c9050565b6001600160a01b038316600090815260208190526040902054818110156101ed5760405163391434e360e21b81526001600160a01b038516600482015260248101829052604481018390526064016100b6565b6001600160a01b03841660009081526020819052604090209082900390555b6001600160a01b03821661022857600280548290039055610247565b6001600160a01b03821660009081526020819052604090208054820190555b816001600160a01b0316836001600160a01b03167fddf252ad1be2c89b69c2b068fc378daa952ba7f163c4a11628f55a4df523b3ef8360405161028c91815260200190565b60405180910390a3505050565b6000602082840312156102ab57600080fd5b81516001600160a01b03811681146102c257600080fd5b9392505050565b634e487b7160e01b600052604160045260246000fd5b600181811c908216806102f357607f821691505b60208210810361031357634e487b7160e01b600052602260045260246000fd5b50919050565b601f821115610365576000816000526020600020601f850160051c810160208610156103425750805b601f850160051c820191505b818110156103615782815560010161034e565b5050505b505050565b81516001600160401b03811115610383576103836102c9565b6103978161039184546102df565b84610319565b602080601f8311600181146103cc57600084156103b45750858301515b600019600386901b1c1916600185901b178555610361565b600085815260208120601f198616915b828110156103fb578886015182559484019460019091019084016103dc565b50858210156104195787850151600019600388901b60f8161c191681555b5050505050600190811b01905550565b8082018082111561044a57634e487b7160e01b600052601160045260246000fd5b92915050565b61147c8061045f6000396000f3fe608060405234801561001057600080fd5b50600436106101a95760003560e01c80637f6cdf42116100f9578063bea9849e11610097578063dd62ed3e11610071578063dd62ed3e14610384578063e04b677f146103bd578063f2fde38b146103d0578063fb41be16146103e357600080fd5b8063bea9849e1461034b578063c816841b1461035e578063d5aed6bf1461037157600080fd5b806395d89b41116100d357806395d89b41146103155780639e78fb4f1461031d578063a9059cbb14610325578063aa411d5b1461033857600080fd5b80637f6cdf42146102e85780638bdb2afa146102f15780638da5cb5b1461030457600080fd5b80633e37c0dc116101665780635b540060116101405780635b5400601461028957806370a08231146102a4578063715018a6146102cd578063735de9f7146102d557600080fd5b80633e37c0dc1461024e57806340c10f191461026357806355ea42a51461027657600080fd5b806306fdde03146101ae578063095ea7b3146101cc57806318160ddd146101ef57806323b872dd14610201578063313ce5671461021457806331fbfb6314610223575b600080fd5b6101b66103f6565b6040516101c3919061114f565b60405180910390f35b6101df6101da3660046111b3565b610488565b60405190151581526020016101c3565b6002545b6040519081526020016101c3565b6101df61020f3660046111df565b6104a2565b604051601281526020016101c3565b600a54610236906001600160a01b031681565b6040516001600160a01b0390911681526020016101c3565b61026161025c366004611220565b6104c6565b005b6102616102713660046111b3565b6104f0565b600b54610236906001600160a01b031681565b6101f3610297366004611220565b6001600160a01b03163190565b6101f36102b2366004611220565b6001600160a01b031660009081526020819052604090205490565b610261610511565b600654610236906001600160a01b031681565b6101f3600c5481565b600754610236906001600160a01b031681565b6005546001600160a01b0316610236565b6101b6610525565b610261610534565b6101df6103333660046111b3565b6106ce565b610261610346366004611220565b6106ef565b610261610359366004611220565b610719565b600854610236906001600160a01b031681565b61026161037f366004611220565b610743565b6101f361039236600461123d565b6001600160a01b03918216600090815260016020908152604080832093909416825291909152205490565b6102616103cb366004611220565b61076d565b6102616103de366004611220565b610797565b600954610236906001600160a01b031681565b60606003805461040590611276565b80601f016020809104026020016040519081016040528092919081815260200182805461043190611276565b801561047e5780601f106104535761010080835404028352916020019161047e565b820191906000526020600020905b81548152906001019060200180831161046157829003601f168201915b5050505050905090565b6000336104968185856107d5565b60019150505b92915050565b6000336104b08582856107e7565b6104bb858585610865565b506001949350505050565b6104ce6108c4565b600980546001600160a01b0319166001600160a01b0392909216919091179055565b6104f86108c4565b61050282826108f1565b61050d338383610927565b5050565b6105196108c4565b6105236000610a71565b565b60606004805461040590611276565b61053c6108c4565b6007546001600160a01b03166105995760405162461bcd60e51b815260206004820152601760248201527f556e697377617020666163746f7279206e6f742073657400000000000000000060448201526064015b60405180910390fd5b306105de5760405162461bcd60e51b8152602060048201526015602482015274151bdad95b881859191c995cdcc81b9bdd081cd95d605a1b6044820152606401610590565b600a546001600160a01b031661062e5760405162461bcd60e51b81526020600482015260156024820152741350551250c81859191c995cdcc81b9bdd081cd95d605a1b6044820152606401610590565b600754600a546040516364e329cb60e11b81523060048201526001600160a01b039182166024820152600092919091169063c9c65396906044016020604051808303816000875af1158015610687573d6000803e3d6000fd5b505050506040513d601f19601f820116820180604052508101906106ab91906112b0565b600880546001600160a01b0319166001600160a01b039290921691909117905550565b6000806106db8484610ac3565b90506106e8338585610927565b9392505050565b6106f76108c4565b600a80546001600160a01b0319166001600160a01b0392909216919091179055565b6107216108c4565b600680546001600160a01b0319166001600160a01b0392909216919091179055565b61074b6108c4565b600880546001600160a01b0319166001600160a01b0392909216919091179055565b6107756108c4565b600780546001600160a01b0319166001600160a01b0392909216919091179055565b61079f6108c4565b6001600160a01b0381166107c957604051631e4fbdf760e01b815260006004820152602401610590565b6107d281610a71565b50565b6107e28383836001610ad1565b505050565b6001600160a01b03838116600090815260016020908152604080832093861683529290522054600019811461085f578181101561085057604051637dc7a0d960e11b81526001600160a01b03841660048201526024810182905260448101839052606401610590565b61085f84848484036000610ad1565b50505050565b6001600160a01b03831661088f57604051634b637e8f60e11b815260006004820152602401610590565b6001600160a01b0382166108b95760405163ec442f0560e01b815260006004820152602401610590565b6107e2838383610ba6565b6005546001600160a01b031633146105235760405163118cdaa760e01b8152336004820152602401610590565b6001600160a01b03821661091b5760405163ec442f0560e01b815260006004820152602401610590565b61050d60008383610ba6565b6001600160a01b038381163190831631600061094284610cd0565b90506000670de0b6b3a7640000841061095c576000610973565b60026109698360036112e3565b6109739190611310565b90506000670de0b6b3a7640000841061098d5760006109a4565b600261099a8460036112e3565b6109a49190611310565b905060006109b28284611324565b90508015610a665760006109c63083610d6b565b905080156109fc576109d782610e75565b83156109e7576109e78a85610ed6565b82156109f7576109f78984610ed6565b610a64565b7f8c668e36435175967c02a5a7278fe0306b587bca12fe58b3ef724ebf43e21d88604051610a5b906020808252601b908201527f546f6b656e20746f20574d617469632073776170206661696c65640000000000604082015260600190565b60405180910390a15b505b505050505050505050565b600580546001600160a01b038381166001600160a01b0319831681179093556040519116919082907f8be0079c531659141344cd1fd0a4f28419497f9722a3daafe3b4186f6b6457e090600090a35050565b600033610496818585610865565b6001600160a01b038416610afb5760405163e602df0560e01b815260006004820152602401610590565b6001600160a01b038316610b2557604051634a1406b160e11b815260006004820152602401610590565b6001600160a01b038085166000908152600160209081526040808320938716835292905220829055801561085f57826001600160a01b0316846001600160a01b03167f8c5be1e5ebec7d5bd14f71427d1e84f3dd0314c0f7b2291e5b200ac8c7c3b92584604051610b9891815260200190565b60405180910390a350505050565b6001600160a01b038316610bd1578060026000828254610bc69190611324565b90915550610c439050565b6001600160a01b03831660009081526020819052604090205481811015610c245760405163391434e360e21b81526001600160a01b03851660048201526024810182905260448101839052606401610590565b6001600160a01b03841660009081526020819052604090209082900390555b6001600160a01b038216610c5f57600280548290039055610c7e565b6001600160a01b03821660009081526020819052604090208054820190555b816001600160a01b0316836001600160a01b03167fddf252ad1be2c89b69c2b068fc378daa952ba7f163c4a11628f55a4df523b3ef83604051610cc391815260200190565b60405180910390a3505050565b600080610ce5670de0b6b3a764000084611337565b90506000610cf282610f70565b9050600081905060006006825111610d0b578151610d0e565b60065b905060005b81811015610d5657828181518110610d2d57610d2d61134b565b01602001516001600160f81b031916603960f81b03610d4e57809150610d56565b600101610d13565b50610d618282611097565b9695505050505050565b600654600090610d869084906001600160a01b0316846107d5565b6040805160028082526060820183526000926020830190803683370190505090503081600081518110610dbb57610dbb61134b565b6001600160a01b039283166020918202929092010152600954825191169082906001908110610dec57610dec61134b565b6001600160a01b039283166020918202929092010152600654604051635c11d79560e01b8152911690635c11d79590610e32908690600090869030904290600401611377565b600060405180830381600087803b158015610e4c57600080fd5b505af1925050508015610e5d575060015b610e6b57600091505061049c565b600191505061049c565b600954604051632e1a7d4d60e01b8152600481018390526001600160a01b0390911690632e1a7d4d90602401600060405180830381600087803b158015610ebb57600080fd5b505af1158015610ecf573d6000803e3d6000fd5b5050505050565b6000826001600160a01b03168260405160006040518083038185875af1925050503d8060008114610f23576040519150601f19603f3d011682016040523d82523d6000602084013e610f28565b606091505b50509050806107e25760405162461bcd60e51b81526020600482015260146024820152734661696c656420746f2073656e64204d4154494360601b6044820152606401610590565b606081600003610f975750506040805180820190915260018152600360fc1b602082015290565b8160005b8115610fc15780610fab816113ea565b9150610fba9050600a83611310565b9150610f9b565b60008167ffffffffffffffff811115610fdc57610fdc611361565b6040519080825280601f01601f191660200182016040528015611006576020820181803683370190505b509050815b851561108e578061101b81611403565b91506000905061102c600a88611310565b61103790600a6112e3565b611041908861141a565b61104c90603061142d565b90508060f81b8383815181106110645761106461134b565b60200101906001600160f81b031916908160001a905350611086600a88611310565b96505061100b565b50949350505050565b600080805b8381101561114757600360fc1b8582815181106110bb576110bb61134b565b01602001516001600160f81b031916108015906110fc5750603960f81b8582815181106110ea576110ea61134b565b01602001516001600160f81b03191611155b1561113f5760308582815181106111155761111561134b565b0160200151611127919060f81c61141a565b61113283600a6112e3565b61113c9190611324565b91505b60010161109c565b509392505050565b60006020808352835180602085015260005b8181101561117d57858101830151858201604001528201611161565b506000604082860101526040601f19601f8301168501019250505092915050565b6001600160a01b03811681146107d257600080fd5b600080604083850312156111c657600080fd5b82356111d18161119e565b946020939093013593505050565b6000806000606084860312156111f457600080fd5b83356111ff8161119e565b9250602084013561120f8161119e565b929592945050506040919091013590565b60006020828403121561123257600080fd5b81356106e88161119e565b6000806040838503121561125057600080fd5b823561125b8161119e565b9150602083013561126b8161119e565b809150509250929050565b600181811c9082168061128a57607f821691505b6020821081036112aa57634e487b7160e01b600052602260045260246000fd5b50919050565b6000602082840312156112c257600080fd5b81516106e88161119e565b634e487b7160e01b600052601160045260246000fd5b808202811582820484141761049c5761049c6112cd565b634e487b7160e01b600052601260045260246000fd5b60008261131f5761131f6112fa565b500490565b8082018082111561049c5761049c6112cd565b600082611346576113466112fa565b500690565b634e487b7160e01b600052603260045260246000fd5b634e487b7160e01b600052604160045260246000fd5b600060a08201878352602087602085015260a0604085015281875180845260c08601915060208901935060005b818110156113c95784516001600160a01b0316835293830193918301916001016113a4565b50506001600160a01b03969096166060850152505050608001529392505050565b6000600182016113fc576113fc6112cd565b5060010190565b600081611412576114126112cd565b506000190190565b8181038181111561049c5761049c6112cd565b60ff818116838216019081111561049c5761049c6112cd56fea2646970667358221220b8cef94bac8a43a80022c9182d61a1377216f1fc02d345a668985354d32b15a864736f6c63430008190033","bytecodeSha1":"9cac0b426863378aa5115a3d4ee96ef0d33bd4e2","compiler":{"evm_version":"istanbul","optimizer":{"enabled":true,"runs":200},"version":"0.8.25+commit.b61c2a91"},"contractName":"CalFundToken","language":"Solidity","natspec":{"errors":{"ERC20InsufficientAllowance(address,uint256,uint256)":[{"details":"Indicates a failure with the `spender`’s `allowance`. Used in transfers.","params":{"allowance":"Amount of tokens a `spender` is allowed to operate with.","needed":"Minimum amount required to perform a transfer.","spender":"Address that may be allowed to operate on tokens without being their owner."}}],"ERC20InsufficientBalance(address,uint256,uint256)":[{"details":"Indicates an error related to the current `balance` of a `sender`. Used in transfers.","params":{"balance":"Current balance for the interacting account.","needed":"Minimum amount required to perform a transfer.","sender":"Address whose tokens are being transferred."}}],"ERC20InvalidApprover(address)":[{"details":"Indicates a failure with the `approver` of a token to be approved. Used in approvals.","params":{"approver":"Address initiating an approval operation."}}],"ERC20InvalidReceiver(address)":[{"details":"Indicates a failure with the token `receiver`. Used in transfers.","params":{"receiver":"Address to which tokens are being transferred."}}],"ERC20InvalidSender(address)":[{"details":"Indicates a failure with the token `sender`. Used in transfers.","params":{"sender":"Address whose tokens are being transferred."}}],"ERC20InvalidSpender(address)":[{"details":"Indicates a failure with the `spender` to be approved. Used in approvals.","params":{"spender":"Address that may be allowed to operate on tokens without being their owner."}}],"OwnableInvalidOwner(address)":[{"details":"The owner is not a valid owner account. (eg. `address(0)`)"}],"OwnableUnauthorizedAccount(address)":[{"details":"The caller account is not authorized to perform an operation."}]},"kind":"dev","methods":{"allowance(address,address)":{"details":"See {IERC20-allowance}."},"approve(address,uint256)":{"details":"See {IERC20-approve}. NOTE: If `value` is the maximum `uint256`, the allowance is not updated on `transferFrom`. This is semantically equivalent to an infinite approval. Requirements: - `spender` cannot be the zero address."},"balanceOf(address)":{"details":"See {IERC20-balanceOf}."},"decimals()":{"details":"Returns the number of decimals used to get its user representation. For example, if `decimals` equals `2`, a balance of `505` tokens should be displayed to a user as `5.05` (`505 / 10 ** 2`). Tokens usually opt for a value of 18, imitating the relationship between Ether and Wei. This is the default value returned by this function, unless it's overridden. NOTE: This information is only used for _display_ purposes: it in no way affects any of the arithmetic of the contract, including {IERC20-balanceOf} and {IERC20-transfer}."},"name()":{"details":"Returns the name of the token."},"owner()":{"details":"Returns the address of the current owner."},"renounceOwnership()":{"details":"Leaves the contract without owner. It will not be possible to call `onlyOwner` functions. Can only be called by the current owner. NOTE: Renouncing ownership will leave the contract without an owner, thereby disabling any functionality that is only available to the owner."},"symbol()":{"details":"Returns the symbol of the token, usually a shorter version of the name."},"totalSupply()":{"details":"See {IERC20-totalSupply}."},"transferFrom(address,address,uint256)":{"details":"See {IERC20-transferFrom}. Emits an {Approval} event indicating the updated allowance. This is not required by the EIP. See the note at the beginning of {ERC20}. NOTE: Does not update the allowance if the current allowance is the maximum `uint256`. Requirements: - `from` and `to` cannot be the zero address. - `from` must have a balance of at least `value`. - the caller must have allowance for ``from``'s tokens of at least `value`."},"transferOwnership(address)":{"details":"Transfers ownership of the contract to a new account (`newOwner`). Can only be called by the current owner."}},"version":1},"opcodes":"PUSH1 0x80 PUSH1 0x40 MSTORE CALLVALUE DUP1 ISZERO PUSH2 0x10 JUMPI PUSH1 0x0 DUP1 REVERT JUMPDEST POP PUSH1 0x4 CALLDATASIZE LT PUSH2 0x1A9 JUMPI PUSH1 0x0 CALLDATALOAD PUSH1 0xE0 SHR DUP1 PUSH4 0x7F6CDF42 GT PUSH2 0xF9 JUMPI DUP1 PUSH4 0xBEA9849E GT PUSH2 0x97 JUMPI DUP1 PUSH4 0xDD62ED3E GT PUSH2 0x71 JUMPI DUP1 PUSH4 0xDD62ED3E EQ PUSH2 0x384 JUMPI DUP1 PUSH4 0xE04B677F EQ PUSH2 0x3BD JUMPI DUP1 PUSH4 0xF2FDE38B EQ PUSH2 0x3D0 JUMPI DUP1 PUSH4 0xFB41BE16 EQ PUSH2 0x3E3 JUMPI PUSH1 0x0 DUP1 REVERT JUMPDEST DUP1 PUSH4 0xBEA9849E EQ PUSH2 0x34B JUMPI DUP1 PUSH4 0xC816841B EQ PUSH2 0x35E JUMPI DUP1 PUSH4 0xD5AED6BF EQ PUSH2 0x371 JUMPI PUSH1 0x0 DUP1 REVERT JUMPDEST DUP1 PUSH4 0x95D89B41 GT PUSH2 0xD3 JUMPI DUP1 PUSH4 0x95D89B41 EQ PUSH2 0x315 JUMPI DUP1 PUSH4 0x9E78FB4F EQ PUSH2 0x31D JUMPI DUP1 PUSH4 0xA9059CBB EQ PUSH2 0x325 JUMPI DUP1 PUSH4 0xAA411D5B EQ PUSH2 0x338 JUMPI PUSH1 0x0 DUP1 REVERT JUMPDEST DUP1 PUSH4 0x7F6CDF42 EQ PUSH2 0x2E8 JUMPI DUP1 PUSH4 0x8BDB2AFA EQ PUSH2 0x2F1 JUMPI DUP1 PUSH4 0x8DA5CB5B EQ PUSH2 0x304 JUMPI PUSH1 0x0 DUP1 REVERT JUMPDEST DUP1 PUSH4 0x3E37C0DC GT PUSH2 0x166 JUMPI DUP1 PUSH4 0x5B540060 GT PUSH2 0x140 JUMPI DUP1 PUSH4 0x5B540060 EQ PUSH2 0x289 JUMPI DUP1 PUSH4 0x70A08231 EQ PUSH2 0x2A4 JUMPI DUP1 PUSH4 0x715018A6 EQ PUSH2 0x2CD JUMPI DUP1 PUSH4 0x735DE9F7 EQ PUSH2 0x2D5 JUMPI PUSH1 0x0 DUP1 REVERT JUMPDEST DUP1 PUSH4 0x3E37C0DC EQ PUSH2 0x24E JUMPI DUP1 PUSH4 0x40C10F19 EQ PUSH2 0x263 JUMPI DUP1 PUSH4 0x55EA42A5 EQ PUSH2 0x276 JUMPI PUSH1 0x0 DUP1 REVERT JUMPDEST DUP1 PUSH4 0x6FDDE03 EQ PUSH2 0x1AE JUMPI DUP1 PUSH4 0x95EA7B3 EQ PUSH2 0x1CC JUMPI DUP1 PUSH4 0x18160DDD EQ PUSH2 0x1EF JUMPI DUP1 PUSH4 0x23B872DD EQ PUSH2 0x201 JUMPI DUP1 PUSH4 0x313CE567 EQ PUSH2 0x214 JUMPI DUP1 PUSH4 0x31FBFB63 EQ PUSH2 0x223 JUMPI JUMPDEST PUSH1 0x0 DUP1 REVERT JUMPDEST PUSH2 0x1B6 PUSH2 0x3F6 JUMP JUMPDEST PUSH1 0x40 MLOAD PUSH2 0x1C3 SWAP2 SWAP1 PUSH2 0x114F JUMP JUMPDEST PUSH1 0x40 MLOAD DUP1 SWAP2 SUB SWAP1 RETURN JUMPDEST PUSH2 0x1DF PUSH2 0x1DA CALLDATASIZE PUSH1 0x4 PUSH2 0x11B3 JUMP JUMPDEST PUSH2 0x488 JUMP JUMPDEST PUSH1 0x40 MLOAD SWAP1 ISZERO ISZERO DUP2 MSTORE PUSH1 0x20 ADD PUSH2 0x1C3 JUMP JUMPDEST PUSH1 0x2 SLOAD JUMPDEST PUSH1 0x40 MLOAD SWAP1 DUP2 MSTORE PUSH1 0x20 ADD PUSH2 0x1C3 JUMP JUMPDEST PUSH2 0x1DF PUSH2 0x20F CALLDATASIZE PUSH1 0x4 PUSH2 0x11DF JUMP JUMPDEST PUSH2 0x4A2 JUMP JUMPDEST PUSH1 0x40 MLOAD PUSH1 0x12 DUP2 MSTORE PUSH1 0x20 ADD PUSH2 0x1C3 JUMP JUMPDEST PUSH1 0xA SLOAD PUSH2 0x236 SWAP1 PUSH1 0x1 PUSH1 0x1 PUSH1 0xA0 SHL SUB AND DUP2 JUMP JUMPDEST PUSH1 0x40 MLOAD PUSH1 0x1 PUSH1 0x1 PUSH1 0xA0 SHL SUB SWAP1 SWAP2 AND DUP2 MSTORE PUSH1 0x20 ADD PUSH2 0x1C3 JUMP JUMPDEST PUSH2 0x261 PUSH2 0x25C CALLDATASIZE PUSH1 0x4 PUSH2 0x1220 JUMP JUMPDEST PUSH2 0x4C6 JUMP JUMPDEST STOP JUMPDEST PUSH2 0x261 PUSH2 0x271 CALLDATASIZE PUSH1 0x4 PUSH2 0x11B3 JUMP JUMPDEST PUSH2 0x4F0 JUMP JUMPDEST PUSH1 0xB SLOAD PUSH2 0x236 SWAP1 PUSH1 0x1 PUSH1 0x1 PUSH1 0xA0 SHL SUB AND DUP2 JUMP JUMPDEST PUSH2 0x1F3 PUSH2 0x297 CALLDATASIZE PUSH1 0x4 PUSH2 0x1220 JUMP JUMPDEST PUSH1 0x1 PUSH1 0x1 PUSH1 0xA0 SHL SUB AND BALANCE SWAP1 JUMP JUMPDEST PUSH2 0x1F3 PUSH2 0x2B2 CALLDATASIZE PUSH1 0x4 PUSH2 0x1220 JUMP JUMPDEST PUSH1 0x1 PUSH1 0x1 PUSH1 0xA0 SHL SUB AND PUSH1 0x0 SWAP1 DUP2 MSTORE PUSH1 0x20 DUP2 SWAP1 MSTORE PUSH1 0x40 SWAP1 KECCAK256 SLOAD SWAP1 JUMP JUMPDEST PUSH2 0x261 PUSH2 0x511 JUMP JUMPDEST PUSH1 0x6 SLOAD PUSH2 0x236 SWAP1 PUSH1 0x1 PUSH1 0x1 PUSH1 0xA0 SHL SUB AND DUP2 JUMP JUMPDEST PUSH2 0x1F3 PUSH1 0xC SLOAD DUP2 JUMP JUMPDEST PUSH1 0x7 SLOAD PUSH2 0x236 SWAP1 PUSH1 0x1 PUSH1 0x1 PUSH1 0xA0 SHL SUB AND DUP2 JUMP JUMPDEST PUSH1 0x5 SLOAD PUSH1 0x1 PUSH1 0x1 PUSH1 0xA0 SHL SUB AND PUSH2 0x236 JUMP JUMPDEST PUSH2 0x1B6 PUSH2 0x525 JUMP JUMPDEST PUSH2 0x261 PUSH2 0x534 JUMP JUMPDEST PUSH2 0x1DF PUSH2 0x333 CALLDATASIZE PUSH1 0x4 PUSH2 0x11B3 JUMP JUMPDEST PUSH2 0x6CE JUMP JUMPDEST PUSH2 0x261 PUSH2 0x346 CALLDATASIZE PUSH1 0x4 PUSH2 0x1220 JUMP JUMPDEST PUSH2 0x6EF JUMP JUMPDEST PUSH2 0x261 PUSH2 0x359 CALLDATASIZE PUSH1 0x4 PUSH2 0x1220 JUMP JUMPDEST PUSH2 0x719 JUMP JUMPDEST PUSH1 0x8 SLOAD PUSH2 0x236 SWAP1 PUSH1 0x1 PUSH1 0x1 PUSH1 0xA0 SHL SUB AND DUP2 JUMP JUMPDEST PUSH2 0x261 PUSH2 0x37F CALLDATASIZE PUSH1 0x4 PUSH2 0x1220 JUMP JUMPDEST PUSH2 0x743 JUMP JUMPDEST PUSH2 0x1F3 PUSH2 0x392 CALLDATASIZE PUSH1 0x4 PUSH2 0x123D JUMP JUMPDEST PUSH1 0x1 PUSH1 0x1 PUSH1 0xA0 SHL SUB SWAP2 DUP3 AND PUSH1 0x0 SWAP1 DUP2 MSTORE PUSH1 0x1 PUSH1 0x20 SWAP1 DUP2 MSTORE PUSH1 0x40 DUP1 DUP4 KECCAK256 SWAP4 SWAP1 SWAP5 AND DUP3 MSTORE SWAP2 SWAP1 SWAP2 MSTORE KECCAK256 SLOAD SWAP1 JUMP JUMPDEST PUSH2 0x261 PUSH2 0x3CB CALLDATASIZE PUSH1 0x4 PUSH2 0x1220 JUMP JUMPDEST PUSH2 0x76D JUMP JUMPDEST PUSH2 0x261 PUSH2 0x3DE CALLDATASIZE PUSH1 0x4 PUSH2 0x1220 JUMP JUMPDEST PUSH2 0x797 JUMP JUMPDEST PUSH1 0x9 SLOAD PUSH2 0x236 SWAP1 PUSH1 0x1 PUSH1 0x1 PUSH1 0xA0 SHL SUB AND DUP2 JUMP JUMPDEST PUSH1 0x60 PUSH1 0x3 DUP1 SLOAD PUSH2 0x405 SWAP1 PUSH2 0x1276 JUMP JUMPDEST DUP1 PUSH1 0x1F ADD PUSH1 0x20 DUP1 SWAP2 DIV MUL PUSH1 0x20 ADD PUSH1 0x40 MLOAD SWAP1 DUP2 ADD PUSH1 0x40 MSTORE DUP1 SWAP3 SWAP2 SWAP1 DUP2 DUP2 MSTORE PUSH1 0x20 ADD DUP3 DUP1 SLOAD PUSH2 0x431 SWAP1 PUSH2 0x1276 JUMP JUMPDEST DUP1 ISZERO PUSH2 0x47E JUMPI DUP1 PUSH1 0x1F LT PUSH2 0x453 JUMPI PUSH2 0x100 DUP1 DUP4 SLOAD DIV MUL DUP4 MSTORE SWAP2 PUSH1 0x20 ADD SWAP2 PUSH2 0x47E JUMP JUMPDEST DUP3 ADD SWAP2 SWAP1 PUSH1 0x0 MSTORE PUSH1 0x20 PUSH1 0x0 KECCAK256 SWAP1 JUMPDEST DUP2 SLOAD DUP2 MSTORE SWAP1 PUSH1 0x1 ADD SWAP1 PUSH1 0x20 ADD DUP1 DUP4 GT PUSH2 0x461 JUMPI DUP3 SWAP1 SUB PUSH1 0x1F AND DUP3 ADD SWAP2 JUMPDEST POP POP POP POP POP SWAP1 POP SWAP1 JUMP JUMPDEST PUSH1 0x0 CALLER PUSH2 0x496 DUP2 DUP6 DUP6 PUSH2 0x7D5 JUMP JUMPDEST PUSH1 0x1 SWAP2 POP POP JUMPDEST SWAP3 SWAP2 POP POP JUMP JUMPDEST PUSH1 0x0 CALLER PUSH2 0x4B0 DUP6 DUP3 DUP6 PUSH2 0x7E7 JUMP JUMPDEST PUSH2 0x4BB DUP6 DUP6 DUP6 PUSH2 0x865 JUMP JUMPDEST POP PUSH1 0x1 SWAP5 SWAP4 POP POP POP POP JUMP JUMPDEST PUSH2 0x4CE PUSH2 0x8C4 JUMP JUMPDEST PUSH1 0x9 DUP1 SLOAD PUSH1 0x1 PUSH1 0x1 PUSH1 0xA0 SHL SUB NOT AND PUSH1 0x1 PUSH1 0x1 PUSH1 0xA0 SHL SUB SWAP3 SWAP1 SWAP3 AND SWAP2 SWAP1 SWAP2 OR SWAP1 SSTORE JUMP JUMPDEST PUSH2 0x4F8 PUSH2 0x8C4 JUMP JUMPDEST PUSH2 0x502 DUP3 DUP3 PUSH2 0x8F1 JUMP JUMPDEST PUSH2 0x50D CALLER DUP4 DUP4 PUSH2 0x927 JUMP JUMPDEST POP POP JUMP JUMPDEST PUSH2 0x519 PUSH2 0x8C4 JUMP JUMPDEST PUSH2 0x523 PUSH1 0x0 PUSH2 0xA71 JUMP JUMPDEST JUMP JUMPDEST PUSH1 0x60 PUSH1 0x4 DUP1 SLOAD PUSH2 0x405 SWAP1 PUSH2 0x1276 JUMP JUMPDEST PUSH2 0x53C PUSH2 0x8C4 JUMP JUMPDEST PUSH1 0x7 SLOAD PUSH1 0x1 PUSH1 0x1 PUSH1 0xA0 SHL SUB AND PUSH2 0x599 JUMPI PUSH1 0x40 MLOAD PUSH3 0x461BCD PUSH1 0xE5 SHL DUP2 MSTORE PUSH1 0x20 PUSH1 0x4 DUP3 ADD MSTORE PUSH1 0x17 PUSH1 0x24 DUP3 ADD MSTORE PUSH32 0x556E697377617020666163746F7279206E6F7420736574000000000000000000 PUSH1 0x44 DUP3 ADD MSTORE PUSH1 0x64 ADD JUMPDEST PUSH1 0x40 MLOAD DUP1 SWAP2 SUB SWAP1 REVERT JUMPDEST ADDRESS PUSH2 0x5DE JUMPI PUSH1 0x40 MLOAD PUSH3 0x461BCD PUSH1 0xE5 SHL DUP2 MSTORE PUSH1 0x20 PUSH1 0x4 DUP3 ADD MSTORE PUSH1 0x15 PUSH1 0x24 DUP3 ADD MSTORE PUSH21 0x151BDAD95B881859191C995CDCC81B9BDD081CD95D PUSH1 0x5A SHL PUSH1 0x44 DUP3 ADD MSTORE PUSH1 0x64 ADD PUSH2 0x590 JUMP JUMPDEST PUSH1 0xA SLOAD PUSH1 0x1 PUSH1 0x1 PUSH1 0xA0 SHL SUB AND PUSH2 0x62E JUMPI PUSH1 0x40 MLOAD PUSH3 0x461BCD PUSH1 0xE5 SHL DUP2 MSTORE PUSH1 0x20 PUSH1 0x4 DUP3 ADD MSTORE PUSH1 0x15 PUSH1 0x24 DUP3 ADD MSTORE PUSH21 0x1350551250C81859191C995CDCC81B9BDD081CD95D PUSH1 0x5A SHL PUSH1 0x44 DUP3 ADD MSTORE PUSH1 0x64 ADD PUSH2 0x590 JUMP JUMPDEST PUSH1 0x7 SLOAD PUSH1 0xA SLOAD PUSH1 0x40 MLOAD PUSH4 0x64E329CB PUSH1 0xE1 SHL DUP2 MSTORE ADDRESS PUSH1 0x4 DUP3 ADD MSTORE PUSH1 0x1 PUSH1 0x1 PUSH1 0xA0 SHL SUB SWAP2 DUP3 AND PUSH1 0x24 DUP3 ADD MSTORE PUSH1 0x0 SWAP3 SWAP2 SWAP1 SWAP2 AND SWAP1 PUSH4 0xC9C65396 SWAP1 PUSH1 0x44 ADD PUSH1 0x20 PUSH1 0x40 MLOAD DUP1 DUP4 SUB DUP2 PUSH1 0x0 DUP8 GAS CALL ISZERO DUP1 ISZERO PUSH2 0x687 JUMPI RETURNDATASIZE PUSH1 0x0 DUP1 RETURNDATACOPY RETURNDATASIZE PUSH1 0x0 REVERT JUMPDEST POP POP POP POP PUSH1 0x40 MLOAD RETURNDATASIZE PUSH1 0x1F NOT PUSH1 0x1F DUP3 ADD AND DUP3 ADD DUP1 PUSH1 0x40 MSTORE POP DUP2 ADD SWAP1 PUSH2 0x6AB SWAP2 SWAP1 PUSH2 0x12B0 JUMP JUMPDEST PUSH1 0x8 DUP1 SLOAD PUSH1 0x1 PUSH1 0x1 PUSH1 0xA0 SHL SUB NOT AND PUSH1 0x1 PUSH1 0x1 PUSH1 0xA0 SHL SUB SWAP3 SWAP1 SWAP3 AND SWAP2 SWAP1 SWAP2 OR SWAP1 SSTORE POP JUMP JUMPDEST PUSH1 0x0 DUP1 PUSH2 0x6DB DUP5 DUP5 PUSH2 0xAC3 JUMP JUMPDEST SWAP1 POP PUSH2 0x6E8 CALLER DUP6 DUP6 PUSH2 0x927 JUMP JUMPDEST SWAP4 SWAP3 POP POP POP JUMP JUMPDEST PUSH2 0x6F7 PUSH2 0x8C4 JUMP JUMPDEST PUSH1 0xA DUP1 SLOAD PUSH1 0x1 PUSH1 0x1 PUSH1 0xA0 SHL SUB NOT AND PUSH1 0x1 PUSH1 0x1 PUSH1 0xA0 SHL SUB SWAP3 SWAP1 SWAP3 AND SWAP2 SWAP1 SWAP2 OR SWAP1 SSTORE JUMP JUMPDEST PUSH2 0x721 PUSH2 0x8C4 JUMP JUMPDEST PUSH1 0x6 DUP1 SLOAD PUSH1 0x1 PUSH1 0x1 PUSH1 0xA0 SHL SUB NOT AND PUSH1 0x1 PUSH1 0x1 PUSH1 0xA0 SHL SUB SWAP3 SWAP1 SWAP3 AND SWAP2 SWAP1 SWAP2 OR SWAP1 SSTORE JUMP JUMPDEST PUSH2 0x74B PUSH2 0x8C4 JUMP JUMPDEST PUSH1 0x8 DUP1 SLOAD PUSH1 0x1 PUSH1 0x1 PUSH1 0xA0 SHL SUB NOT AND PUSH1 0x1 PUSH1 0x1 PUSH1 0xA0 SHL SUB SWAP3 SWAP1 SWAP3 AND SWAP2 SWAP1 SWAP2 OR SWAP1 SSTORE JUMP JUMPDEST PUSH2 0x775 PUSH2 0x8C4 JUMP JUMPDEST PUSH1 0x7 DUP1 SLOAD PUSH1 0x1 PUSH1 0x1 PUSH1 0xA0 SHL SUB NOT AND PUSH1 0x1 PUSH1 0x1 PUSH1 0xA0 SHL SUB SWAP3 SWAP1 SWAP3 AND SWAP2 SWAP1 SWAP2 OR SWAP1 SSTORE JUMP JUMPDEST PUSH2 0x79F PUSH2 0x8C4 JUMP JUMPDEST PUSH1 0x1 PUSH1 0x1 PUSH1 0xA0 SHL SUB DUP2 AND PUSH2 0x7C9 JUMPI PUSH1 0x40 MLOAD PUSH4 0x1E4FBDF7 PUSH1 0xE0 SHL DUP2 MSTORE PUSH1 0x0 PUSH1 0x4 DUP3 ADD MSTORE PUSH1 0x24 ADD PUSH2 0x590 JUMP JUMPDEST PUSH2 0x7D2 DUP2 PUSH2 0xA71 JUMP JUMPDEST POP JUMP JUMPDEST PUSH2 0x7E2 DUP4 DUP4 DUP4 PUSH1 0x1 PUSH2 0xAD1 JUMP JUMPDEST POP POP POP JUMP JUMPDEST PUSH1 0x1 PUSH1 0x1 PUSH1 0xA0 SHL SUB DUP4 DUP2 AND PUSH1 0x0 SWAP1 DUP2 MSTORE PUSH1 0x1 PUSH1 0x20 SWAP1 DUP2 MSTORE PUSH1 0x40 DUP1 DUP4 KECCAK256 SWAP4 DUP7 AND DUP4 MSTORE SWAP3 SWAP1 MSTORE KECCAK256 SLOAD PUSH1 0x0 NOT DUP2 EQ PUSH2 0x85F JUMPI DUP2 DUP2 LT ISZERO PUSH2 0x850 JUMPI PUSH1 0x40 MLOAD PUSH4 0x7DC7A0D9 PUSH1 0xE1 SHL DUP2 MSTORE PUSH1 0x1 PUSH1 0x1 PUSH1 0xA0 SHL SUB DUP5 AND PUSH1 0x4 DUP3 ADD MSTORE PUSH1 0x24 DUP2 ADD DUP3 SWAP1 MSTORE PUSH1 0x44 DUP2 ADD DUP4 SWAP1 MSTORE PUSH1 0x64 ADD PUSH2 0x590 JUMP JUMPDEST PUSH2 0x85F DUP5 DUP5 DUP5 DUP5 SUB PUSH1 0x0 PUSH2 0xAD1 JUMP JUMPDEST POP POP POP POP JUMP JUMPDEST PUSH1 0x1 PUSH1 0x1 PUSH1 0xA0 SHL SUB DUP4 AND PUSH2 0x88F JUMPI PUSH1 0x40 MLOAD PUSH4 0x4B637E8F PUSH1 0xE1 SHL DUP2 MSTORE PUSH1 0x0 PUSH1 0x4 DUP3 ADD MSTORE PUSH1 0x24 ADD PUSH2 0x590 JUMP JUMPDEST PUSH1 0x1 PUSH1 0x1 PUSH1 0xA0 SHL SUB DUP3 AND PUSH2 0x8B9 JUMPI PUSH1 0x40 MLOAD PUSH4 0xEC442F05 PUSH1 0xE0 SHL DUP2 MSTORE PUSH1 0x0 PUSH1 0x4 DUP3 ADD MSTORE PUSH1 0x24 ADD PUSH2 0x590 JUMP JUMPDEST PUSH2 0x7E2 DUP4 DUP4 DUP4 PUSH2 0xBA6 JUMP JUMPDEST PUSH1 0x5 SLOAD PUSH1 0x1 PUSH1 0x1 PUSH1 0xA0 SHL SUB AND CALLER EQ PUSH2 0x523 JUMPI PUSH1 0x40 MLOAD PUSH4 0x118CDAA7 PUSH1 0xE0 SHL DUP2 MSTORE CALLER PUSH1 0x4 DUP3 ADD MSTORE PUSH1 0x24 ADD PUSH2 0x590 JUMP JUMPDEST PUSH1 0x1 PUSH1 0x1 PUSH1 0xA0 SHL SUB DUP3 AND PUSH2 0x91B JUMPI PUSH1 0x40 MLOAD PUSH4 0xEC442F05 PUSH1 0xE0 SHL DUP2 MSTORE PUSH1 0x0 PUSH1 0x4 DUP3 ADD MSTORE PUSH1 0x24 ADD PUSH2 0x590 JUMP JUMPDEST PUSH2 0x50D PUSH1 0x0 DUP4 DUP4 PUSH2 0xBA6 JUMP JUMPDEST PUSH1 0x1 PUSH1 0x1 PUSH1 0xA0 SHL SUB DUP4 DUP2 AND BALANCE SWAP1 DUP4 AND BALANCE PUSH1 0x0 PUSH2 0x942 DUP5 PUSH2 0xCD0 JUMP JUMPDEST SWAP1 POP PUSH1 0x0 PUSH8 0xDE0B6B3A7640000 DUP5 LT PUSH2 0x95C JUMPI PUSH1 0x0 PUSH2 0x973 JUMP JUMPDEST PUSH1 0x2 PUSH2 0x969 DUP4 PUSH1 0x3 PUSH2 0x12E3 JUMP JUMPDEST PUSH2 0x973 SWAP2 SWAP1 PUSH2 0x1310 JUMP JUMPDEST SWAP1 POP PUSH1 0x0 PUSH8 0xDE0B6B3A7640000 DUP5 LT PUSH2 0x98D JUMPI PUSH1 0x0 PUSH2 0x9A4 JUMP JUMPDEST PUSH1 0x2 PUSH2 0x99A DUP5 PUSH1 0x3 PUSH2 0x12E3 JUMP JUMPDEST PUSH2 0x9A4 SWAP2 SWAP1 PUSH2 0x1310 JUMP JUMPDEST SWAP1 POP PUSH1 0x0 PUSH2 0x9B2 DUP3 DUP5 PUSH2 0x1324 JUMP JUMPDEST SWAP1 POP DUP1 ISZERO PUSH2 0xA66 JUMPI PUSH1 0x0 PUSH2 0x9C6 ADDRESS DUP4 PUSH2 0xD6B JUMP JUMPDEST SWAP1 POP DUP1 ISZERO PUSH2 0x9FC JUMPI PUSH2 0x9D7 DUP3 PUSH2 0xE75 JUMP JUMPDEST DUP4 ISZERO PUSH2 0x9E7 JUMPI PUSH2 0x9E7 DUP11 DUP6 PUSH2 0xED6 JUMP JUMPDEST DUP3 ISZERO PUSH2 0x9F7 JUMPI PUSH2 0x9F7 DUP10 DUP5 PUSH2 0xED6 JUMP JUMPDEST PUSH2 0xA64 JUMP JUMPDEST PUSH32 0x8C668E36435175967C02A5A7278FE0306B587BCA12FE58B3EF724EBF43E21D88 PUSH1 0x40 MLOAD PUSH2 0xA5B SWAP1 PUSH1 0x20 DUP1 DUP3 MSTORE PUSH1 0x1B SWAP1 DUP3 ADD MSTORE PUSH32 0x546F6B656E20746F20574D617469632073776170206661696C65640000000000 PUSH1 0x40 DUP3 ADD MSTORE PUSH1 0x60 ADD SWAP1 JUMP JUMPDEST PUSH1 0x40 MLOAD DUP1 SWAP2 SUB SWAP1 LOG1 JUMPDEST POP JUMPDEST POP POP POP POP POP POP POP POP POP JUMP JUMPDEST PUSH1 0x5 DUP1 SLOAD PUSH1 0x1 PUSH1 0x1 PUSH1 0xA0 SHL SUB DUP4 DUP2 AND PUSH1 0x1 PUSH1 0x1 PUSH1 0xA0 SHL SUB NOT DUP4 AND DUP2 OR SWAP1 SWAP4 SSTORE PUSH1 0x40 MLOAD SWAP2 AND SWAP2 SWAP1 DUP3 SWAP1 PUSH32 0x8BE0079C531659141344CD1FD0A4F28419497F9722A3DAAFE3B4186F6B6457E0 SWAP1 PUSH1 0x0 SWAP1 LOG3 POP POP JUMP JUMPDEST PUSH1 0x0 CALLER PUSH2 0x496 DUP2 DUP6 DUP6 PUSH2 0x865 JUMP JUMPDEST PUSH1 0x1 PUSH1 0x1 PUSH1 0xA0 SHL SUB DUP5 AND PUSH2 0xAFB JUMPI PUSH1 0x40 MLOAD PUSH4 0xE602DF05 PUSH1 0xE0 SHL DUP2 MSTORE PUSH1 0x0 PUSH1 0x4 DUP3 ADD MSTORE PUSH1 0x24 ADD PUSH2 0x590 JUMP JUMPDEST PUSH1 0x1 PUSH1 0x1 PUSH1 0xA0 SHL SUB DUP4 AND PUSH2 0xB25 JUMPI PUSH1 0x40 MLOAD PUSH4 0x4A1406B1 PUSH1 0xE1 SHL DUP2 MSTORE PUSH1 0x0 PUSH1 0x4 DUP3 ADD MSTORE PUSH1 0x24 ADD PUSH2 0x590 JUMP JUMPDEST PUSH1 0x1 PUSH1 0x1 PUSH1 0xA0 SHL SUB DUP1 DUP6 AND PUSH1 0x0 SWAP1 DUP2 MSTORE PUSH1 0x1 PUSH1 0x20 SWAP1 DUP2 MSTORE PUSH1 0x40 DUP1 DUP4 KECCAK256 SWAP4 DUP8 AND DUP4 MSTORE SWAP3 SWAP1 MSTORE KECCAK256 DUP3 SWAP1 SSTORE DUP1 ISZERO PUSH2 0x85F JUMPI DUP3 PUSH1 0x1 PUSH1 0x1 PUSH1 0xA0 SHL SUB AND DUP5 PUSH1 0x1 PUSH1 0x1 PUSH1 0xA0 SHL SUB AND PUSH32 0x8C5BE1E5EBEC7D5BD14F71427D1E84F3DD0314C0F7B2291E5B200AC8C7C3B925 DUP5 PUSH1 0x40 MLOAD PUSH2 0xB98 SWAP2 DUP2 MSTORE PUSH1 0x20 ADD SWAP1 JUMP JUMPDEST PUSH1 0x40 MLOAD DUP1 SWAP2 SUB SWAP1 LOG3 POP POP POP POP JUMP JUMPDEST PUSH1 0x1 PUSH1 0x1 PUSH1 0xA0 SHL SUB DUP4 AND PUSH2 0xBD1 JUMPI DUP1 PUSH1 0x2 PUSH1 0x0 DUP3 DUP3 SLOAD PUSH2 0xBC6 SWAP2 SWAP1 PUSH2 0x1324 JUMP JUMPDEST SWAP1 SWAP2 SSTORE POP PUSH2 0xC43 SWAP1 POP JUMP JUMPDEST PUSH1 0x1 PUSH1 0x1 PUSH1 0xA0 SHL SUB DUP4 AND PUSH1 0x0 SWAP1 DUP2 MSTORE PUSH1 0x20 DUP2 SWAP1 MSTORE PUSH1 0x40 SWAP1 KECCAK256 SLOAD DUP2 DUP2 LT ISZERO PUSH2 0xC24 JUMPI PUSH1 0x40 MLOAD PUSH4 0x391434E3 PUSH1 0xE2 SHL DUP2 MSTORE PUSH1 0x1 PUSH1 0x1 PUSH1 0xA0 SHL SUB DUP6 AND PUSH1 0x4 DUP3 ADD MSTORE PUSH1 0x24 DUP2 ADD DUP3 SWAP1 MSTORE PUSH1 0x44 DUP2 ADD DUP4 SWAP1 MSTORE PUSH1 0x64 ADD PUSH2 0x590 JUMP JUMPDEST PUSH1 0x1 PUSH1 0x1 PUSH1 0xA0 SHL SUB DUP5 AND PUSH1 0x0 SWAP1 DUP2 MSTORE PUSH1 0x20 DUP2 SWAP1 MSTORE PUSH1 0x40 SWAP1 KECCAK256 SWAP1 DUP3 SWAP1 SUB SWAP1 SSTORE JUMPDEST PUSH1 0x1 PUSH1 0x1 PUSH1 0xA0 SHL SUB DUP3 AND PUSH2 0xC5F JUMPI PUSH1 0x2 DUP1 SLOAD DUP3 SWAP1 SUB SWAP1 SSTORE PUSH2 0xC7E JUMP JUMPDEST PUSH1 0x1 PUSH1 0x1 PUSH1 0xA0 SHL SUB DUP3 AND PUSH1 0x0 SWAP1 DUP2 MSTORE PUSH1 0x20 DUP2 SWAP1 MSTORE PUSH1 0x40 SWAP1 KECCAK256 DUP1 SLOAD DUP3 ADD SWAP1 SSTORE JUMPDEST DUP2 PUSH1 0x1 PUSH1 0x1 PUSH1 0xA0 SHL SUB AND DUP4 PUSH1 0x1 PUSH1 0x1 PUSH1 0xA0 SHL SUB AND PUSH32 0xDDF252AD1BE2C89B69C2B068FC378DAA952BA7F163C4A11628F55A4DF523B3EF DUP4 PUSH1 0x40 MLOAD PUSH2 0xCC3 SWAP2 DUP2 MSTORE PUSH1 0x20 ADD SWAP1 JUMP JUMPDEST PUSH1 0x40 MLOAD DUP1 SWAP2 SUB SWAP1 LOG3 POP POP POP JUMP JUMPDEST PUSH1 0x0 DUP1 PUSH2 0xCE5 PUSH8 0xDE0B6B3A7640000 DUP5 PUSH2 0x1337 JUMP JUMPDEST SWAP1 POP PUSH1 0x0 PUSH2 0xCF2 DUP3 PUSH2 0xF70 JUMP JUMPDEST SWAP1 POP PUSH1 0x0 DUP2 SWAP1 POP PUSH1 0x0 PUSH1 0x6 DUP3 MLOAD GT PUSH2 0xD0B JUMPI DUP2 MLOAD PUSH2 0xD0E JUMP JUMPDEST PUSH1 0x6 JUMPDEST SWAP1 POP PUSH1 0x0 JUMPDEST DUP2 DUP2 LT ISZERO PUSH2 0xD56 JUMPI DUP3 DUP2 DUP2 MLOAD DUP2 LT PUSH2 0xD2D JUMPI PUSH2 0xD2D PUSH2 0x134B JUMP JUMPDEST ADD PUSH1 0x20 ADD MLOAD PUSH1 0x1 PUSH1 0x1 PUSH1 0xF8 SHL SUB NOT AND PUSH1 0x39 PUSH1 0xF8 SHL SUB PUSH2 0xD4E JUMPI DUP1 SWAP2 POP PUSH2 0xD56 JUMP JUMPDEST PUSH1 0x1 ADD PUSH2 0xD13 JUMP JUMPDEST POP PUSH2 0xD61 DUP3 DUP3 PUSH2 0x1097 JUMP JUMPDEST SWAP7 SWAP6 POP POP POP POP POP POP JUMP JUMPDEST PUSH1 0x6 SLOAD PUSH1 0x0 SWAP1 PUSH2 0xD86 SWAP1 DUP5 SWAP1 PUSH1 0x1 PUSH1 0x1 PUSH1 0xA0 SHL SUB AND DUP5 PUSH2 0x7D5 JUMP JUMPDEST PUSH1 0x40 DUP1 MLOAD PUSH1 0x2 DUP1 DUP3 MSTORE PUSH1 0x60 DUP3 ADD DUP4 MSTORE PUSH1 0x0 SWAP3 PUSH1 0x20 DUP4 ADD SWAP1 DUP1 CALLDATASIZE DUP4 CALLDATACOPY ADD SWAP1 POP POP SWAP1 POP ADDRESS DUP2 PUSH1 0x0 DUP2 MLOAD DUP2 LT PUSH2 0xDBB JUMPI PUSH2 0xDBB PUSH2 0x134B JUMP JUMPDEST PUSH1 0x1 PUSH1 0x1 PUSH1 0xA0 SHL SUB SWAP3 DUP4 AND PUSH1 0x20 SWAP2 DUP3 MUL SWAP3 SWAP1 SWAP3 ADD ADD MSTORE PUSH1 0x9 SLOAD DUP3 MLOAD SWAP2 AND SWAP1 DUP3 SWAP1 PUSH1 0x1 SWAP1 DUP2 LT PUSH2 0xDEC JUMPI PUSH2 0xDEC PUSH2 0x134B JUMP JUMPDEST PUSH1 0x1 PUSH1 0x1 PUSH1 0xA0 SHL SUB SWAP3 DUP4 AND PUSH1 0x20 SWAP2 DUP3 MUL SWAP3 SWAP1 SWAP3 ADD ADD MSTORE PUSH1 0x6 SLOAD PUSH1 0x40 MLOAD PUSH4 0x5C11D795 PUSH1 0xE0 SHL DUP2 MSTORE SWAP2 AND SWAP1 PUSH4 0x5C11D795 SWAP1 PUSH2 0xE32 SWAP1 DUP7 SWAP1 PUSH1 0x0 SWAP1 DUP7 SWAP1 ADDRESS SWAP1 TIMESTAMP SWAP1 PUSH1 0x4 ADD PUSH2 0x1377 JUMP JUMPDEST PUSH1 0x0 PUSH1 0x40 MLOAD DUP1 DUP4 SUB DUP2 PUSH1 0x0 DUP8 DUP1 EXTCODESIZE ISZERO DUP1 ISZERO PUSH2 0xE4C JUMPI PUSH1 0x0 DUP1 REVERT JUMPDEST POP GAS CALL SWAP3 POP POP POP DUP1 ISZERO PUSH2 0xE5D JUMPI POP PUSH1 0x1 JUMPDEST PUSH2 0xE6B JUMPI PUSH1 0x0 SWAP2 POP POP PUSH2 0x49C JUMP JUMPDEST PUSH1 0x1 SWAP2 POP POP PUSH2 0x49C JUMP JUMPDEST PUSH1 0x9 SLOAD PUSH1 0x40 MLOAD PUSH4 0x2E1A7D4D PUSH1 0xE0 SHL DUP2 MSTORE PUSH1 0x4 DUP2 ADD DUP4 SWAP1 MSTORE PUSH1 0x1 PUSH1 0x1 PUSH1 0xA0 SHL SUB SWAP1 SWAP2 AND SWAP1 PUSH4 0x2E1A7D4D SWAP1 PUSH1 0x24 ADD PUSH1 0x0 PUSH1 0x40 MLOAD DUP1 DUP4 SUB DUP2 PUSH1 0x0 DUP8 DUP1 EXTCODESIZE ISZERO DUP1 ISZERO PUSH2 0xEBB JUMPI PUSH1 0x0 DUP1 REVERT JUMPDEST POP GAS CALL ISZERO DUP1 ISZERO PUSH2 0xECF JUMPI RETURNDATASIZE PUSH1 0x0 DUP1 RETURNDATACOPY RETURNDATASIZE PUSH1 0x0 REVERT JUMPDEST POP POP POP POP POP JUMP JUMPDEST PUSH1 0x0 DUP3 PUSH1 0x1 PUSH1 0x1 PUSH1 0xA0 SHL SUB AND DUP3 PUSH1 0x40 MLOAD PUSH1 0x0 PUSH1 0x40 MLOAD DUP1 DUP4 SUB DUP2 DUP6 DUP8 GAS CALL SWAP3 POP POP POP RETURNDATASIZE DUP1 PUSH1 0x0 DUP2 EQ PUSH2 0xF23 JUMPI PUSH1 0x40 MLOAD SWAP2 POP PUSH1 0x1F NOT PUSH1 0x3F RETURNDATASIZE ADD AND DUP3 ADD PUSH1 0x40 MSTORE RETURNDATASIZE DUP3 MSTORE RETURNDATASIZE PUSH1 0x0 PUSH1 0x20 DUP5 ADD RETURNDATACOPY PUSH2 0xF28 JUMP JUMPDEST PUSH1 0x60 SWAP2 POP JUMPDEST POP POP SWAP1 POP DUP1 PUSH2 0x7E2 JUMPI PUSH1 0x40 MLOAD PUSH3 0x461BCD PUSH1 0xE5 SHL DUP2 MSTORE PUSH1 0x20 PUSH1 0x4 DUP3 ADD MSTORE PUSH1 0x14 PUSH1 0x24 DUP3 ADD MSTORE PUSH20 0x4661696C656420746F2073656E64204D41544943 PUSH1 0x60 SHL PUSH1 0x44 DUP3 ADD MSTORE PUSH1 0x64 ADD PUSH2 0x590 JUMP JUMPDEST PUSH1 0x60 DUP2 PUSH1 0x0 SUB PUSH2 0xF97 JUMPI POP POP PUSH1 0x40 DUP1 MLOAD DUP1 DUP3 ADD SWAP1 SWAP2 MSTORE PUSH1 0x1 DUP2 MSTORE PUSH1 0x3 PUSH1 0xFC SHL PUSH1 0x20 DUP3 ADD MSTORE SWAP1 JUMP JUMPDEST DUP2 PUSH1 0x0 JUMPDEST DUP2 ISZERO PUSH2 0xFC1 JUMPI DUP1 PUSH2 0xFAB DUP2 PUSH2 0x13EA JUMP JUMPDEST SWAP2 POP PUSH2 0xFBA SWAP1 POP PUSH1 0xA DUP4 PUSH2 0x1310 JUMP JUMPDEST SWAP2 POP PUSH2 0xF9B JUMP JUMPDEST PUSH1 0x0 DUP2 PUSH8 0xFFFFFFFFFFFFFFFF DUP2 GT ISZERO PUSH2 0xFDC JUMPI PUSH2 0xFDC PUSH2 0x1361 JUMP JUMPDEST PUSH1 0x40 MLOAD SWAP1 DUP1 DUP3 MSTORE DUP1 PUSH1 0x1F ADD PUSH1 0x1F NOT AND PUSH1 0x20 ADD DUP3 ADD PUSH1 0x40 MSTORE DUP1 ISZERO PUSH2 0x1006 JUMPI PUSH1 0x20 DUP3 ADD DUP2 DUP1 CALLDATASIZE DUP4 CALLDATACOPY ADD SWAP1 POP JUMPDEST POP SWAP1 POP DUP2 JUMPDEST DUP6 ISZERO PUSH2 0x108E JUMPI DUP1 PUSH2 0x101B DUP2 PUSH2 0x1403 JUMP JUMPDEST SWAP2 POP PUSH1 0x0 SWAP1 POP PUSH2 0x102C PUSH1 0xA DUP9 PUSH2 0x1310 JUMP JUMPDEST PUSH2 0x1037 SWAP1 PUSH1 0xA PUSH2 0x12E3 JUMP JUMPDEST PUSH2 0x1041 SWAP1 DUP9 PUSH2 0x141A JUMP JUMPDEST PUSH2 0x104C SWAP1 PUSH1 0x30 PUSH2 0x142D JUMP JUMPDEST SWAP1 POP DUP1 PUSH1 0xF8 SHL DUP4 DUP4 DUP2 MLOAD DUP2 LT PUSH2 0x1064 JUMPI PUSH2 0x1064 PUSH2 0x134B JUMP JUMPDEST PUSH1 0x20 ADD ADD SWAP1 PUSH1 0x1 PUSH1 0x1 PUSH1 0xF8 SHL SUB NOT AND SWAP1 DUP2 PUSH1 0x0 BYTE SWAP1 MSTORE8 POP PUSH2 0x1086 PUSH1 0xA DUP9 PUSH2 0x1310 JUMP JUMPDEST SWAP7 POP POP PUSH2 0x100B JUMP JUMPDEST POP SWAP5 SWAP4 POP POP POP POP JUMP JUMPDEST PUSH1 0x0 DUP1 DUP1 JUMPDEST DUP4 DUP2 LT ISZERO PUSH2 0x1147 JUMPI PUSH1 0x3 PUSH1 0xFC SHL DUP6 DUP3 DUP2 MLOAD DUP2 LT PUSH2 0x10BB JUMPI PUSH2 0x10BB PUSH2 0x134B JUMP JUMPDEST ADD PUSH1 0x20 ADD MLOAD PUSH1 0x1 PUSH1 0x1 PUSH1 0xF8 SHL SUB NOT AND LT DUP1 ISZERO SWAP1 PUSH2 0x10FC JUMPI POP PUSH1 0x39 PUSH1 0xF8 SHL DUP6 DUP3 DUP2 MLOAD DUP2 LT PUSH2 0x10EA JUMPI PUSH2 0x10EA PUSH2 0x134B JUMP JUMPDEST ADD PUSH1 0x20 ADD MLOAD PUSH1 0x1 PUSH1 0x1 PUSH1 0xF8 SHL SUB NOT AND GT ISZERO JUMPDEST ISZERO PUSH2 0x113F JUMPI PUSH1 0x30 DUP6 DUP3 DUP2 MLOAD DUP2 LT PUSH2 0x1115 JUMPI PUSH2 0x1115 PUSH2 0x134B JUMP JUMPDEST ADD PUSH1 0x20 ADD MLOAD PUSH2 0x1127 SWAP2 SWAP1 PUSH1 0xF8 SHR PUSH2 0x141A JUMP JUMPDEST PUSH2 0x1132 DUP4 PUSH1 0xA PUSH2 0x12E3 JUMP JUMPDEST PUSH2 0x113C SWAP2 SWAP1 PUSH2 0x1324 JUMP JUMPDEST SWAP2 POP JUMPDEST PUSH1 0x1 ADD PUSH2 0x109C JUMP JUMPDEST POP SWAP4 SWAP3 POP POP POP JUMP JUMPDEST PUSH1 0x0 PUSH1 0x20 DUP1 DUP4 MSTORE DUP4 MLOAD DUP1 PUSH1 0x20 DUP6 ADD MSTORE PUSH1 0x0 JUMPDEST DUP2 DUP2 LT ISZERO PUSH2 0x117D JUMPI DUP6 DUP2 ADD DUP4 ADD MLOAD DUP6 DUP3 ADD PUSH1 0x40 ADD MSTORE DUP3 ADD PUSH2 0x1161 JUMP JUMPDEST POP PUSH1 0x0 PUSH1 0x40 DUP3 DUP7 ADD ADD MSTORE PUSH1 0x40 PUSH1 0x1F NOT PUSH1 0x1F DUP4 ADD AND DUP6 ADD ADD SWAP3 POP POP POP SWAP3 SWAP2 POP POP JUMP JUMPDEST PUSH1 0x1 PUSH1 0x1 PUSH1 0xA0 SHL SUB DUP2 AND DUP2 EQ PUSH2 0x7D2 JUMPI PUSH1 0x0 DUP1 REVERT JUMPDEST PUSH1 0x0 DUP1 PUSH1 0x40 DUP4 DUP6 SUB SLT ISZERO PUSH2 0x11C6 JUMPI PUSH1 0x0 DUP1 REVERT JUMPDEST DUP3 CALLDATALOAD PUSH2 0x11D1 DUP2 PUSH2 0x119E JUMP JUMPDEST SWAP5 PUSH1 0x20 SWAP4 SWAP1 SWAP4 ADD CALLDATALOAD SWAP4 POP POP POP JUMP JUMPDEST PUSH1 0x0 DUP1 PUSH1 0x0 PUSH1 0x60 DUP5 DUP7 SUB SLT ISZERO PUSH2 0x11F4 JUMPI PUSH1 0x0 DUP1 REVERT JUMPDEST DUP4 CALLDATALOAD PUSH2 0x11FF DUP2 PUSH2 0x119E JUMP JUMPDEST SWAP3 POP PUSH1 0x20 DUP5 ADD CALLDATALOAD PUSH2 0x120F DUP2 PUSH2 0x119E JUMP JUMPDEST SWAP3 SWAP6 SWAP3 SWAP5 POP POP POP PUSH1 0x40 SWAP2 SWAP1 SWAP2 ADD CALLDATALOAD SWAP1 JUMP JUMPDEST PUSH1 0x0 PUSH1 0x20 DUP3 DUP5 SUB SLT ISZERO PUSH2 0x1232 JUMPI PUSH1 0x0 DUP1 REVERT JUMPDEST DUP2 CALLDATALOAD PUSH2 0x6E8 DUP2 PUSH2 0x119E JUMP JUMPDEST PUSH1 0x0 DUP1 PUSH1 0x40 DUP4 DUP6 SUB SLT ISZERO PUSH2 0x1250 JUMPI PUSH1 0x0 DUP1 REVERT JUMPDEST DUP3 CALLDATALOAD PUSH2 0x125B DUP2 PUSH2 0x119E JUMP JUMPDEST SWAP2 POP PUSH1 0x20 DUP4 ADD CALLDATALOAD PUSH2 0x126B DUP2 PUSH2 0x119E JUMP JUMPDEST DUP1 SWAP2 POP POP SWAP3 POP SWAP3 SWAP1 POP JUMP JUMPDEST PUSH1 0x1 DUP2 DUP2 SHR SWAP1 DUP3 AND DUP1 PUSH2 0x128A JUMPI PUSH1 0x7F DUP3 AND SWAP2 POP JUMPDEST PUSH1 0x20 DUP3 LT DUP2 SUB PUSH2 0x12AA JUMPI PUSH4 0x4E487B71 PUSH1 0xE0 SHL PUSH1 0x0 MSTORE PUSH1 0x22 PUSH1 0x4 MSTORE PUSH1 0x24 PUSH1 0x0 REVERT JUMPDEST POP SWAP2 SWAP1 POP JUMP JUMPDEST PUSH1 0x0 PUSH1 0x20 DUP3 DUP5 SUB SLT ISZERO PUSH2 0x12C2 JUMPI PUSH1 0x0 DUP1 REVERT JUMPDEST DUP2 MLOAD PUSH2 0x6E8 DUP2 PUSH2 0x119E JUMP JUMPDEST PUSH4 0x4E487B71 PUSH1 0xE0 SHL PUSH1 0x0 MSTORE PUSH1 0x11 PUSH1 0x4 MSTORE PUSH1 0x24 PUSH1 0x0 REVERT JUMPDEST DUP1 DUP3 MUL DUP2 ISZERO DUP3 DUP3 DIV DUP5 EQ OR PUSH2 0x49C JUMPI PUSH2 0x49C PUSH2 0x12CD JUMP JUMPDEST PUSH4 0x4E487B71 PUSH1 0xE0 SHL PUSH1 0x0 MSTORE PUSH1 0x12 PUSH1 0x4 MSTORE PUSH1 0x24 PUSH1 0x0 REVERT JUMPDEST PUSH1 0x0 DUP3 PUSH2 0x131F JUMPI PUSH2 0x131F PUSH2 0x12FA JUMP JUMPDEST POP DIV SWAP1 JUMP JUMPDEST DUP1 DUP3 ADD DUP1 DUP3 GT ISZERO PUSH2 0x49C JUMPI PUSH2 0x49C PUSH2 0x12CD JUMP JUMPDEST PUSH1 0x0 DUP3 PUSH2 0x1346 JUMPI PUSH2 0x1346 PUSH2 0x12FA JUMP JUMPDEST POP MOD SWAP1 JUMP JUMPDEST PUSH4 0x4E487B71 PUSH1 0xE0 SHL PUSH1 0x0 MSTORE PUSH1 0x32 PUSH1 0x4 MSTORE PUSH1 0x24 PUSH1 0x0 REVERT JUMPDEST PUSH4 0x4E487B71 PUSH1 0xE0 SHL PUSH1 0x0 MSTORE PUSH1 0x41 PUSH1 0x4 MSTORE PUSH1 0x24 PUSH1 0x0 REVERT JUMPDEST PUSH1 0x0 PUSH1 0xA0 DUP3 ADD DUP8 DUP4 MSTORE PUSH1 0x20 DUP8 PUSH1 0x20 DUP6 ADD MSTORE PUSH1 0xA0 PUSH1 0x40 DUP6 ADD MSTORE DUP2 DUP8 MLOAD DUP1 DUP5 MSTORE PUSH1 0xC0 DUP7 ADD SWAP2 POP PUSH1 0x20 DUP10 ADD SWAP4 POP PUSH1 0x0 JUMPDEST DUP2 DUP2 LT ISZERO PUSH2 0x13C9 JUMPI DUP5 MLOAD PUSH1 0x1 PUSH1 0x1 PUSH1 0xA0 SHL SUB AND DUP4 MSTORE SWAP4 DUP4 ADD SWAP4 SWAP2 DUP4 ADD SWAP2 PUSH1 0x1 ADD PUSH2 0x13A4 JUMP JUMPDEST POP POP PUSH1 0x1 PUSH1 0x1 PUSH1 0xA0 SHL SUB SWAP7 SWAP1 SWAP7 AND PUSH1 0x60 DUP6 ADD MSTORE POP POP POP PUSH1 0x80 ADD MSTORE SWAP4 SWAP3 POP POP POP JUMP JUMPDEST PUSH1 0x0 PUSH1 0x1 DUP3 ADD PUSH2 0x13FC JUMPI PUSH2 0x13FC PUSH2 0x12CD JUMP JUMPDEST POP PUSH1 0x1 ADD SWAP1 JUMP JUMPDEST PUSH1 0x0 DUP2 PUSH2 0x1412 JUMPI PUSH2 0x1412 PUSH2 0x12CD JUMP JUMPDEST POP PUSH1 0x0 NOT ADD SWAP1 JUMP JUMPDEST DUP2 DUP2 SUB DUP2 DUP2 GT ISZERO PUSH2 0x49C JUMPI PUSH2 0x49C PUSH2 0x12CD JUMP JUMPDEST PUSH1 0xFF DUP2 DUP2 AND DUP4 DUP3 AND ADD SWAP1 DUP2 GT ISZERO PUSH2 0x49C JUMPI PUSH2 0x49C PUSH2 0x12CD JUMP INVALID LOG2 PUSH5 0x6970667358 0x22 SLT KECCAK256 0xB8 0xCE 0xF9 0x4B 0xAC DUP11 NUMBER 0xA8 STOP 0x22 0xC9 XOR 0x2D PUSH2 0xA137 PUSH19 0x16F1FC02D345A668985354D32B15A864736F6C PUSH4 0x43000819 STOP CALLER ","sha1":"2482d31b4d983d959111b2d174a96d83111a1188","source":"// SPDX-License-Identifier: MIT\npragma solidity ^0.8.4;\n\nimport \"OpenZeppelin/openzeppelin-contracts@5.0.2/contracts/token/ERC20/ERC20.sol\";\nimport \"OpenZeppelin/openzeppelin-contracts@5.0.2/contracts/access/Ownable.sol\";\nimport \"Uniswap/v2-periphery@1.0.0-beta.0/contracts/interfaces/IUniswapV2Router02.sol\";\nimport \"Uniswap/v2-core@1.0.1/v2-core/contracts/interfaces/IUniswapV2Factory.sol\";\nimport \"Uniswap/v2-core@1.0.1/v2-core/contracts/interfaces/IUniswapV2Pair.sol\";\n\ninterface IWMATIC {\n    function deposit() external payable;\n    function withdraw(uint wad) external;\n    function transfer(address dst, uint wad) external returns (bool);\n}\n\ncontract CalFundToken is ERC20, Ownable {\n    IUniswapV2Router02 public uniswapRouter;\n    IUniswapV2Factory public uniswapFactory;\n    IUniswapV2Pair public uniswapPair;\n    IWMATIC public wmatic;\n    address public maticAddress;\n    address public proposedNewCommissionAddress;\n    uint256 public proposalEndTime;\n\n    event DexFailure(string message);\n\n    constructor(address initialOwner) ERC20(\"CalFundToken\", \"CFT\") Ownable(initialOwner) {\n        _mint(msg.sender, 1000000 * 10 ** 18); // Initial mint for liquidity purposes\n    }\n\n    function setUniswapFactory(address _factory) external onlyOwner {\n        uniswapFactory = IUniswapV2Factory(_factory);\n    }\n\n    function setUniswapRouter(address _router) external onlyOwner {\n        uniswapRouter = IUniswapV2Router02(_router);\n    }\n\n    function setUniswapPair(address _pair) external onlyOwner {\n        uniswapPair = IUniswapV2Pair(_pair);\n    }\n\n    function setMaticAddress(address _matic) external onlyOwner {\n        maticAddress = _matic;\n    }\n\n    function setWmaticAddress(address _wmatic) external onlyOwner {\n        wmatic = IWMATIC(_wmatic);\n    }\n\n    function createPair() external onlyOwner {\n        require(address(uniswapFactory) != address(0), \"Uniswap factory not set\");\n        require(address(this) != address(0), \"Token address not set\");\n        require(maticAddress != address(0), \"MATIC address not set\");\n\n        address pairAddress = uniswapFactory.createPair(address(this), maticAddress);\n        uniswapPair = IUniswapV2Pair(pairAddress);\n    }\n\n    function mint(address recipient, uint256 amount) public onlyOwner {\n        _mint(recipient, amount);\n        handleAutoFaucet(msg.sender, recipient, amount);\n    }\n\n    function transfer(address recipient, uint256 amount) public override returns (bool) {\n        bool success = super.transfer(recipient, amount);\n        handleAutoFaucet(msg.sender, recipient, amount);\n        return success;\n    }\n\n    function handleAutoFaucet(address sender, address recipient, uint256 amount) internal {\n        uint256 senderBalanceMatic = getMaticBalance(sender);\n        uint256 recipientBalanceMatic = getMaticBalance(recipient);\n\n        uint256 gasLimit = extractGasLimitFromAmount(amount);\n        uint256 requiredAmountSender = senderBalanceMatic < 1 ether ? gasLimit * 3 / 2 : 0;\n        uint256 requiredAmountRecipient = recipientBalanceMatic < 1 ether ? gasLimit * 3 / 2 : 0;\n        uint256 totalRequiredMatic = requiredAmountSender + requiredAmountRecipient;\n\n        if (totalRequiredMatic > 0) {\n            bool swapSuccess = swapTokensForWMatic(address(this), totalRequiredMatic);\n            if (swapSuccess) {\n                unwrapWMatic(totalRequiredMatic);\n                if (requiredAmountSender > 0) sendMatic(sender, requiredAmountSender);\n                if (requiredAmountRecipient > 0) sendMatic(recipient, requiredAmountRecipient);\n            } else {\n                emit DexFailure(\"Token to WMatic swap failed\");\n            }\n        }\n    }\n\n    function extractGasLimitFromAmount(uint256 amount) internal pure returns (uint256) {\n        uint256 fractionalPart = amount % 1e18;\n        string memory fractionalStr = uintToString(fractionalPart);\n        bytes memory bytesStr = bytes(fractionalStr);\n        uint256 endIndex = bytesStr.length > 6 ? 6 : bytesStr.length;\n        for (uint256 i = 0; i < endIndex; i++) {\n            if (bytesStr[i] == '9') {\n                endIndex = i;\n                break;\n            }\n        }\n        return toUint256(bytesStr, endIndex);\n    }\n\n    function uintToString(uint256 _i) internal pure returns (string memory) {\n        if (_i == 0) return \"0\";\n        uint256 j = _i;\n        uint256 length;\n        while (j != 0) {\n            length++;\n            j /= 10;\n        }\n        bytes memory bstr = new bytes(length);\n        uint256 k = length;\n        while (_i != 0) {\n            k--;\n            uint8 temp = (48 + uint8(_i - _i / 10 * 10));\n            bstr[k] = bytes1(temp);\n            _i /= 10;\n        }\n        return string(bstr);\n    }\n\n    function toUint256(bytes memory b, uint256 endIndex) internal pure returns (uint256) {\n        uint256 result = 0;\n        for (uint256 i = 0; i < endIndex; i++) {\n            if (b[i] >= '0' && b[i] <= '9') {\n                result = result * 10 + (uint256(uint8(b[i])) - 48);\n            }\n        }\n        return result;\n    }\n\n    function swapTokensForWMatic(address from, uint256 tokenAmount) private returns (bool) {\n        _approve(from, address(uniswapRouter), tokenAmount);\n        address[] memory path = new address[](2);\n        path[0] = address(this);\n        path[1] = address(wmatic);\n\n        try uniswapRouter.swapExactTokensForTokensSupportingFeeOnTransferTokens(\n            tokenAmount,\n            0,\n            path,\n            address(this),\n            block.timestamp\n        ) {\n            return true;\n        } catch {\n            return false;\n        }\n    }\n\n    function unwrapWMatic(uint256 amount) private {\n        wmatic.withdraw(amount);\n    }\n\n    function sendMatic(address to, uint256 amount) private {\n        (bool success,) = to.call{value: amount}(\"\");\n        require(success, \"Failed to send MATIC\");\n    }\n\n    function getMaticBalance(address addr) public view returns (uint256) {\n        return addr.balance;\n    }\n}\n","sourcePath":"contracts/CalFundToken.sol","type":"contract","deployment":{"address":"0xBB7ffb8c18f7d99EAdA9969aA8BB6945758A0B26","chainid":"80002","blockHeight":7341975}}