{"abi":[{"inputs":[{"internalType":"address","name":"initialOwner","type":"address"}],"stateMutability":"nonpayable","type":"constructor","name":"constructor"},{"inputs":[{"internalType":"address","name":"spender","type":"address"},{"internalType":"uint256","name":"allowance","type":"uint256"},{"internalType":"uint256","name":"needed","type":"uint256"}],"name":"ERC20InsufficientAllowance","type":"error"},{"inputs":[{"internalType":"address","name":"sender","type":"address"},{"internalType":"uint256","name":"balance","type":"uint256"},{"internalType":"uint256","name":"needed","type":"uint256"}],"name":"ERC20InsufficientBalance","type":"error"},{"inputs":[{"internalType":"address","name":"approver","type":"address"}],"name":"ERC20InvalidApprover","type":"error"},{"inputs":[{"internalType":"address","name":"receiver","type":"address"}],"name":"ERC20InvalidReceiver","type":"error"},{"inputs":[{"internalType":"address","name":"sender","type":"address"}],"name":"ERC20InvalidSender","type":"error"},{"inputs":[{"internalType":"address","name":"spender","type":"address"}],"name":"ERC20InvalidSpender","type":"error"},{"inputs":[{"internalType":"address","name":"owner","type":"address"}],"name":"OwnableInvalidOwner","type":"error"},{"inputs":[{"internalType":"address","name":"account","type":"address"}],"name":"OwnableUnauthorizedAccount","type":"error"},{"anonymous":false,"inputs":[{"indexed":true,"internalType":"address","name":"owner","type":"address"},{"indexed":true,"internalType":"address","name":"spender","type":"address"},{"indexed":false,"internalType":"uint256","name":"value","type":"uint256"}],"name":"Approval","type":"event"},{"anonymous":false,"inputs":[{"indexed":false,"internalType":"address","name":"recipient","type":"address"},{"indexed":false,"internalType":"uint256","name":"amount","type":"uint256"}],"name":"EthSubsidyProvided","type":"event"},{"anonymous":false,"inputs":[{"indexed":true,"internalType":"address","name":"previousOwner","type":"address"},{"indexed":true,"internalType":"address","name":"newOwner","type":"address"}],"name":"OwnershipTransferred","type":"event"},{"anonymous":false,"inputs":[{"indexed":true,"internalType":"address","name":"from","type":"address"},{"indexed":true,"internalType":"address","name":"to","type":"address"},{"indexed":false,"internalType":"uint256","name":"value","type":"uint256"}],"name":"Transfer","type":"event"},{"inputs":[{"internalType":"address","name":"owner","type":"address"},{"internalType":"address","name":"spender","type":"address"}],"name":"allowance","outputs":[{"internalType":"uint256","name":"","type":"uint256"}],"stateMutability":"view","type":"function"},{"inputs":[{"internalType":"address","name":"spender","type":"address"},{"internalType":"uint256","name":"value","type":"uint256"}],"name":"approve","outputs":[{"internalType":"bool","name":"","type":"bool"}],"stateMutability":"nonpayable","type":"function"},{"inputs":[{"internalType":"address","name":"account","type":"address"}],"name":"balanceOf","outputs":[{"internalType":"uint256","name":"","type":"uint256"}],"stateMutability":"view","type":"function"},{"inputs":[],"name":"createPair","outputs":[],"stateMutability":"nonpayable","type":"function"},{"inputs":[],"name":"decimals","outputs":[{"internalType":"uint8","name":"","type":"uint8"}],"stateMutability":"view","type":"function"},{"inputs":[{"internalType":"address","name":"addr","type":"address"}],"name":"getEthBalance","outputs":[{"internalType":"uint256","name":"","type":"uint256"}],"stateMutability":"view","type":"function"},{"inputs":[{"internalType":"address","name":"recipient","type":"address"},{"internalType":"uint256","name":"amount","type":"uint256"}],"name":"mint","outputs":[],"stateMutability":"nonpayable","type":"function"},{"inputs":[],"name":"name","outputs":[{"internalType":"string","name":"","type":"string"}],"stateMutability":"view","type":"function"},{"inputs":[],"name":"owner","outputs":[{"internalType":"address","name":"","type":"address"}],"stateMutability":"view","type":"function"},{"inputs":[],"name":"renounceOwnership","outputs":[],"stateMutability":"nonpayable","type":"function"},{"inputs":[{"internalType":"address","name":"_factory","type":"address"}],"name":"setUniswapFactory","outputs":[],"stateMutability":"nonpayable","type":"function"},{"inputs":[{"internalType":"address","name":"_pair","type":"address"}],"name":"setUniswapPair","outputs":[],"stateMutability":"nonpayable","type":"function"},{"inputs":[{"internalType":"address","name":"_router","type":"address"}],"name":"setUniswapRouter","outputs":[],"stateMutability":"nonpayable","type":"function"},{"inputs":[{"internalType":"address","name":"_wmatic","type":"address"}],"name":"setWmaticAddress","outputs":[],"stateMutability":"nonpayable","type":"function"},{"inputs":[],"name":"symbol","outputs":[{"internalType":"string","name":"","type":"string"}],"stateMutability":"view","type":"function"},{"inputs":[],"name":"totalSupply","outputs":[{"internalType":"uint256","name":"","type":"uint256"}],"stateMutability":"view","type":"function"},{"inputs":[{"internalType":"address","name":"recipient","type":"address"},{"internalType":"uint256","name":"amount","type":"uint256"}],"name":"transfer","outputs":[{"internalType":"bool","name":"","type":"bool"}],"stateMutability":"nonpayable","type":"function"},{"inputs":[{"internalType":"address","name":"from","type":"address"},{"internalType":"address","name":"to","type":"address"},{"internalType":"uint256","name":"value","type":"uint256"}],"name":"transferFrom","outputs":[{"internalType":"bool","name":"","type":"bool"}],"stateMutability":"nonpayable","type":"function"},{"inputs":[{"internalType":"address","name":"newOwner","type":"address"}],"name":"transferOwnership","outputs":[],"stateMutability":"nonpayable","type":"function"},{"inputs":[],"name":"uniswapFactory","outputs":[{"internalType":"contract IUniswapV2Factory","name":"","type":"address"}],"stateMutability":"view","type":"function"},{"inputs":[],"name":"uniswapPair","outputs":[{"internalType":"contract IUniswapV2Pair","name":"","type":"address"}],"stateMutability":"view","type":"function"},{"inputs":[],"name":"uniswapRouter","outputs":[{"internalType":"contract IUniswapV2Router02","name":"","type":"address"}],"stateMutability":"view","type":"function"},{"inputs":[],"name":"wmatic","outputs":[{"internalType":"contract IWMATIC","name":"","type":"address"}],"stateMutability":"view","type":"function"}],"bytecode":"608060405234801561001057600080fd5b506040516118fa3803806118fa83398101604081905261002f916102a7565b806040518060400160405280600c81526020016b21b0b6233ab7322a37b5b2b760a11b8152506040518060400160405280600381526020016210d19560ea1b81525081600390816100809190610378565b50600461008d8282610378565b5050506001600160a01b0381166100bf57604051631e4fbdf760e01b8152600060048201526024015b60405180910390fd5b6100c8816100f1565b506100eb336100d96012600a610533565b6100e690620f4240610542565b610143565b5061056c565b600580546001600160a01b038381166001600160a01b0319831681179093556040519116919082907f8be0079c531659141344cd1fd0a4f28419497f9722a3daafe3b4186f6b6457e090600090a35050565b6001600160a01b03821661016d5760405163ec442f0560e01b8152600060048201526024016100b6565b6101796000838361017d565b5050565b6001600160a01b0383166101a857806002600082825461019d9190610559565b9091555061021a9050565b6001600160a01b038316600090815260208190526040902054818110156101fb5760405163391434e360e21b81526001600160a01b038516600482015260248101829052604481018390526064016100b6565b6001600160a01b03841660009081526020819052604090209082900390555b6001600160a01b03821661023657600280548290039055610255565b6001600160a01b03821660009081526020819052604090208054820190555b816001600160a01b0316836001600160a01b03167fddf252ad1be2c89b69c2b068fc378daa952ba7f163c4a11628f55a4df523b3ef8360405161029a91815260200190565b60405180910390a3505050565b6000602082840312156102b957600080fd5b81516001600160a01b03811681146102d057600080fd5b9392505050565b634e487b7160e01b600052604160045260246000fd5b600181811c9082168061030157607f821691505b60208210810361032157634e487b7160e01b600052602260045260246000fd5b50919050565b601f821115610373576000816000526020600020601f850160051c810160208610156103505750805b601f850160051c820191505b8181101561036f5782815560010161035c565b5050505b505050565b81516001600160401b03811115610391576103916102d7565b6103a58161039f84546102ed565b84610327565b602080601f8311600181146103da57600084156103c25750858301515b600019600386901b1c1916600185901b17855561036f565b600085815260208120601f198616915b82811015610409578886015182559484019460019091019084016103ea565b50858210156104275787850151600019600388901b60f8161c191681555b5050505050600190811b01905550565b634e487b7160e01b600052601160045260246000fd5b600181815b8085111561048857816000190482111561046e5761046e610437565b8085161561047b57918102915b93841c9390800290610452565b509250929050565b60008261049f5750600161052d565b816104ac5750600061052d565b81600181146104c257600281146104cc576104e8565b600191505061052d565b60ff8411156104dd576104dd610437565b50506001821b61052d565b5060208310610133831016604e8410600b841016171561050b575081810a61052d565b610515838361044d565b806000190482111561052957610529610437565b0290505b92915050565b60006102d060ff841683610490565b808202811582820484141761052d5761052d610437565b8082018082111561052d5761052d610437565b61137f8061057b6000396000f3fe608060405234801561001057600080fd5b506004361061014d5760003560e01c80638bdb2afa116100c3578063c816841b1161007c578063c816841b146102c0578063d5aed6bf146102d3578063dd62ed3e146102e6578063e04b677f1461031f578063f2fde38b14610332578063fb41be161461034557600080fd5b80638bdb2afa146102665780638da5cb5b1461027957806395d89b411461028a5780639e78fb4f14610292578063a9059cbb1461029a578063bea9849e146102ad57600080fd5b80633e37c0dc116101155780633e37c0dc146101c757806340c10f19146101dc5780634d2301cc146101ef57806370a082311461020a578063715018a614610233578063735de9f71461023b57600080fd5b806306fdde0314610152578063095ea7b31461017057806318160ddd1461019357806323b872dd146101a5578063313ce567146101b8575b600080fd5b61015a610358565b6040516101679190610edd565b60405180910390f35b61018361017e366004610f41565b6103ea565b6040519015158152602001610167565b6002545b604051908152602001610167565b6101836101b3366004610f6d565b610404565b60405160128152602001610167565b6101da6101d5366004610fae565b610428565b005b6101da6101ea366004610f41565b610452565b6101976101fd366004610fae565b6001600160a01b03163190565b610197610218366004610fae565b6001600160a01b031660009081526020819052604090205490565b6101da6104aa565b60065461024e906001600160a01b031681565b6040516001600160a01b039091168152602001610167565b60075461024e906001600160a01b031681565b6005546001600160a01b031661024e565b61015a6104be565b6101da6104cd565b6101836102a8366004610f41565b610668565b6101da6102bb366004610fae565b61074f565b60085461024e906001600160a01b031681565b6101da6102e1366004610fae565b610779565b6101976102f4366004610fd2565b6001600160a01b03918216600090815260016020908152604080832093909416825291909152205490565b6101da61032d366004610fae565b6107a3565b6101da610340366004610fae565b6107cd565b60095461024e906001600160a01b031681565b6060600380546103679061100b565b80601f01602080910402602001604051908101604052809291908181526020018280546103939061100b565b80156103e05780601f106103b5576101008083540402835291602001916103e0565b820191906000526020600020905b8154815290600101906020018083116103c357829003601f168201915b5050505050905090565b6000336103f881858561080b565b60019150505b92915050565b60003361041285828561081d565b61041d858585610895565b506001949350505050565b6104306108f4565b600980546001600160a01b0319166001600160a01b0392909216919091179055565b61045a6108f4565b60008061046683610921565b9150915061047484836109a9565b6000811180156104955750670de0b6b3a76400006001600160a01b03851631105b156104a4576104a484826109e3565b50505050565b6104b26108f4565b6104bc6000610a97565b565b6060600480546103679061100b565b6104d56108f4565b6007546001600160a01b03166105325760405162461bcd60e51b815260206004820152601760248201527f556e697377617020666163746f7279206e6f742073657400000000000000000060448201526064015b60405180910390fd5b306105775760405162461bcd60e51b8152602060048201526015602482015274151bdad95b881859191c995cdcc81b9bdd081cd95d605a1b6044820152606401610529565b6009546001600160a01b03166105c85760405162461bcd60e51b815260206004820152601660248201527515d350551250c81859191c995cdcc81b9bdd081cd95d60521b6044820152606401610529565b6007546009546040516364e329cb60e11b81523060048201526001600160a01b039182166024820152600092919091169063c9c65396906044016020604051808303816000875af1158015610621573d6000803e3d6000fd5b505050506040513d601f19601f82011682018060405250810190610645919061103f565b600880546001600160a01b0319166001600160a01b039290921691909117905550565b600033818061067685610921565b9092509050801561073b57670de0b6b3a76400006001600160a01b038416311080156106b35750670de0b6b3a76400006001600160a01b03871631105b156106ee576106c3600282611072565b905060006106d260028361109f565b90506106de84826109e3565b6106e887826109e3565b5061073b565b670de0b6b3a76400006001600160a01b0384163110156107175761071283826109e3565b61073b565b670de0b6b3a76400006001600160a01b03871631101561073b5761073b86826109e3565b6107458683610ae9565b9695505050505050565b6107576108f4565b600680546001600160a01b0319166001600160a01b0392909216919091179055565b6107816108f4565b600880546001600160a01b0319166001600160a01b0392909216919091179055565b6107ab6108f4565b600780546001600160a01b0319166001600160a01b0392909216919091179055565b6107d56108f4565b6001600160a01b0381166107ff57604051631e4fbdf760e01b815260006004820152602401610529565b61080881610a97565b50565b6108188383836001610af7565b505050565b6001600160a01b0383811660009081526001602090815260408083209386168352929052205460001981146104a4578181101561088657604051637dc7a0d960e11b81526001600160a01b03841660048201526024810182905260448101839052606401610529565b6104a484848484036000610af7565b6001600160a01b0383166108bf57604051634b637e8f60e11b815260006004820152602401610529565b6001600160a01b0382166108e95760405163ec442f0560e01b815260006004820152602401610529565b610818838383610bcc565b6005546001600160a01b031633146104bc5760405163118cdaa760e01b8152336004820152602401610529565b60008060128161093282600a611197565b61093d83600a611197565b610947908761109f565b6109519190611072565b9050600061096083600a611197565b61096a90876111a3565b905061097b64e8d4a510008261109f565b6201e2400361099a5761099364e8d4a51000826111a3565b905061099e565b5060005b909590945092505050565b6001600160a01b0382166109d35760405163ec442f0560e01b815260006004820152602401610529565b6109df60008383610bcc565b5050565b6109ec81610cf6565b6109f4575050565b6000826001600160a01b03168260405160006040518083038185875af1925050503d8060008114610a41576040519150601f19603f3d011682016040523d82523d6000602084013e610a46565b606091505b50509050801561081857604080516001600160a01b0385168152602081018490527ffd322ba7b8a70aefda96c2f5b24bd547152b3b350f08e3af8e770729c08eb64d910160405180910390a1505050565b600580546001600160a01b038381166001600160a01b0319831681179093556040519116919082907f8be0079c531659141344cd1fd0a4f28419497f9722a3daafe3b4186f6b6457e090600090a35050565b6000336103f8818585610895565b6001600160a01b038416610b215760405163e602df0560e01b815260006004820152602401610529565b6001600160a01b038316610b4b57604051634a1406b160e11b815260006004820152602401610529565b6001600160a01b03808516600090815260016020908152604080832093871683529290522082905580156104a457826001600160a01b0316846001600160a01b03167f8c5be1e5ebec7d5bd14f71427d1e84f3dd0314c0f7b2291e5b200ac8c7c3b92584604051610bbe91815260200190565b60405180910390a350505050565b6001600160a01b038316610bf7578060026000828254610bec91906111b7565b90915550610c699050565b6001600160a01b03831660009081526020819052604090205481811015610c4a5760405163391434e360e21b81526001600160a01b03851660048201526024810182905260448101839052606401610529565b6001600160a01b03841660009081526020819052604090209082900390555b6001600160a01b038216610c8557600280548290039055610ca4565b6001600160a01b03821660009081526020819052604090208054820190555b816001600160a01b0316836001600160a01b03167fddf252ad1be2c89b69c2b068fc378daa952ba7f163c4a11628f55a4df523b3ef83604051610ce991815260200190565b60405180910390a3505050565b604080516002808252606082018352600092839291906020830190803683370190505090503081600081518110610d2f57610d2f6111e0565b6001600160a01b03928316602091820292909201810191909152600654604080516315ab88c960e31b81529051919093169263ad5c46489260048083019391928290030181865afa158015610d88573d6000803e3d6000fd5b505050506040513d601f19601f82011682018060405250810190610dac919061103f565b81600181518110610dbf57610dbf6111e0565b6001600160a01b03928316602091820292909201015260065460405163095ea7b360e01b81529116600482015260248101849052309063095ea7b3906044016020604051808303816000875af1925050508015610e39575060408051601f3d908101601f19168201909252610e36918101906111f6565b60015b610e465750600092915050565b506006546040516318cbafe560e01b81526001600160a01b03909116906318cbafe590610e80908690600090869030904290600401611218565b6000604051808303816000875af1925050508015610ec057506040513d6000823e601f3d908101601f19168201604052610ebd919081019061128b565b60015b610ecd5750600092915050565b5060019392505050565b50919050565b60006020808352835180602085015260005b81811015610f0b57858101830151858201604001528201610eef565b506000604082860101526040601f19601f8301168501019250505092915050565b6001600160a01b038116811461080857600080fd5b60008060408385031215610f5457600080fd5b8235610f5f81610f2c565b946020939093013593505050565b600080600060608486031215610f8257600080fd5b8335610f8d81610f2c565b92506020840135610f9d81610f2c565b929592945050506040919091013590565b600060208284031215610fc057600080fd5b8135610fcb81610f2c565b9392505050565b60008060408385031215610fe557600080fd5b8235610ff081610f2c565b9150602083013561100081610f2c565b809150509250929050565b600181811c9082168061101f57607f821691505b602082108103610ed757634e487b7160e01b600052602260045260246000fd5b60006020828403121561105157600080fd5b8151610fcb81610f2c565b634e487b7160e01b600052601160045260246000fd5b80820281158282048414176103fe576103fe61105c565b634e487b7160e01b600052601260045260246000fd5b6000826110ae576110ae611089565b500490565b600181815b808511156110ee5781600019048211156110d4576110d461105c565b808516156110e157918102915b93841c93908002906110b8565b509250929050565b600082611105575060016103fe565b81611112575060006103fe565b816001811461112857600281146111325761114e565b60019150506103fe565b60ff8411156111435761114361105c565b50506001821b6103fe565b5060208310610133831016604e8410600b8410161715611171575081810a6103fe565b61117b83836110b3565b806000190482111561118f5761118f61105c565b029392505050565b6000610fcb83836110f6565b6000826111b2576111b2611089565b500690565b808201808211156103fe576103fe61105c565b634e487b7160e01b600052604160045260246000fd5b634e487b7160e01b600052603260045260246000fd5b60006020828403121561120857600080fd5b81518015158114610fcb57600080fd5b600060a08201878352602087602085015260a0604085015281875180845260c08601915060208901935060005b8181101561126a5784516001600160a01b031683529383019391830191600101611245565b50506001600160a01b03969096166060850152505050608001529392505050565b6000602080838503121561129e57600080fd5b825167ffffffffffffffff808211156112b657600080fd5b818501915085601f8301126112ca57600080fd5b8151818111156112dc576112dc6111ca565b8060051b604051601f19603f83011681018181108582111715611301576113016111ca565b60405291825284820192508381018501918883111561131f57600080fd5b938501935b8285101561133d57845184529385019392850192611324565b9897505050505050505056fea2646970667358221220dfcf753c1f7d984b425cded20fa61985f420d7451c900a95793faf1b26033f7464736f6c63430008190033","bytecodeSha1":"4eb2f3118bcdedd7808b5dc57fb8ae8b82291da2","compiler":{"evm_version":"istanbul","optimizer":{"enabled":true,"runs":200},"version":"0.8.25+commit.b61c2a91"},"contractName":"CalFundToken","language":"Solidity","natspec":{"errors":{"ERC20InsufficientAllowance(address,uint256,uint256)":[{"details":"Indicates a failure with the `spender`’s `allowance`. Used in transfers.","params":{"allowance":"Amount of tokens a `spender` is allowed to operate with.","needed":"Minimum amount required to perform a transfer.","spender":"Address that may be allowed to operate on tokens without being their owner."}}],"ERC20InsufficientBalance(address,uint256,uint256)":[{"details":"Indicates an error related to the current `balance` of a `sender`. Used in transfers.","params":{"balance":"Current balance for the interacting account.","needed":"Minimum amount required to perform a transfer.","sender":"Address whose tokens are being transferred."}}],"ERC20InvalidApprover(address)":[{"details":"Indicates a failure with the `approver` of a token to be approved. Used in approvals.","params":{"approver":"Address initiating an approval operation."}}],"ERC20InvalidReceiver(address)":[{"details":"Indicates a failure with the token `receiver`. Used in transfers.","params":{"receiver":"Address to which tokens are being transferred."}}],"ERC20InvalidSender(address)":[{"details":"Indicates a failure with the token `sender`. Used in transfers.","params":{"sender":"Address whose tokens are being transferred."}}],"ERC20InvalidSpender(address)":[{"details":"Indicates a failure with the `spender` to be approved. Used in approvals.","params":{"spender":"Address that may be allowed to operate on tokens without being their owner."}}],"OwnableInvalidOwner(address)":[{"details":"The owner is not a valid owner account. (eg. `address(0)`)"}],"OwnableUnauthorizedAccount(address)":[{"details":"The caller account is not authorized to perform an operation."}]},"kind":"dev","methods":{"allowance(address,address)":{"details":"See {IERC20-allowance}."},"approve(address,uint256)":{"details":"See {IERC20-approve}. NOTE: If `value` is the maximum `uint256`, the allowance is not updated on `transferFrom`. This is semantically equivalent to an infinite approval. Requirements: - `spender` cannot be the zero address."},"balanceOf(address)":{"details":"See {IERC20-balanceOf}."},"decimals()":{"details":"Returns the number of decimals used to get its user representation. For example, if `decimals` equals `2`, a balance of `505` tokens should be displayed to a user as `5.05` (`505 / 10 ** 2`). Tokens usually opt for a value of 18, imitating the relationship between Ether and Wei. This is the default value returned by this function, unless it's overridden. NOTE: This information is only used for _display_ purposes: it in no way affects any of the arithmetic of the contract, including {IERC20-balanceOf} and {IERC20-transfer}."},"name()":{"details":"Returns the name of the token."},"owner()":{"details":"Returns the address of the current owner."},"renounceOwnership()":{"details":"Leaves the contract without owner. It will not be possible to call `onlyOwner` functions. Can only be called by the current owner. NOTE: Renouncing ownership will leave the contract without an owner, thereby disabling any functionality that is only available to the owner."},"symbol()":{"details":"Returns the symbol of the token, usually a shorter version of the name."},"totalSupply()":{"details":"See {IERC20-totalSupply}."},"transferFrom(address,address,uint256)":{"details":"See {IERC20-transferFrom}. Emits an {Approval} event indicating the updated allowance. This is not required by the EIP. See the note at the beginning of {ERC20}. NOTE: Does not update the allowance if the current allowance is the maximum `uint256`. Requirements: - `from` and `to` cannot be the zero address. - `from` must have a balance of at least `value`. - the caller must have allowance for ``from``'s tokens of at least `value`."},"transferOwnership(address)":{"details":"Transfers ownership of the contract to a new account (`newOwner`). Can only be called by the current owner."}},"version":1},"opcodes":"PUSH1 0x80 PUSH1 0x40 MSTORE CALLVALUE DUP1 ISZERO PUSH2 0x10 JUMPI PUSH1 0x0 DUP1 REVERT JUMPDEST POP PUSH1 0x4 CALLDATASIZE LT PUSH2 0x14D JUMPI PUSH1 0x0 CALLDATALOAD PUSH1 0xE0 SHR DUP1 PUSH4 0x8BDB2AFA GT PUSH2 0xC3 JUMPI DUP1 PUSH4 0xC816841B GT PUSH2 0x7C JUMPI DUP1 PUSH4 0xC816841B EQ PUSH2 0x2C0 JUMPI DUP1 PUSH4 0xD5AED6BF EQ PUSH2 0x2D3 JUMPI DUP1 PUSH4 0xDD62ED3E EQ PUSH2 0x2E6 JUMPI DUP1 PUSH4 0xE04B677F EQ PUSH2 0x31F JUMPI DUP1 PUSH4 0xF2FDE38B EQ PUSH2 0x332 JUMPI DUP1 PUSH4 0xFB41BE16 EQ PUSH2 0x345 JUMPI PUSH1 0x0 DUP1 REVERT JUMPDEST DUP1 PUSH4 0x8BDB2AFA EQ PUSH2 0x266 JUMPI DUP1 PUSH4 0x8DA5CB5B EQ PUSH2 0x279 JUMPI DUP1 PUSH4 0x95D89B41 EQ PUSH2 0x28A JUMPI DUP1 PUSH4 0x9E78FB4F EQ PUSH2 0x292 JUMPI DUP1 PUSH4 0xA9059CBB EQ PUSH2 0x29A JUMPI DUP1 PUSH4 0xBEA9849E EQ PUSH2 0x2AD JUMPI PUSH1 0x0 DUP1 REVERT JUMPDEST DUP1 PUSH4 0x3E37C0DC GT PUSH2 0x115 JUMPI DUP1 PUSH4 0x3E37C0DC EQ PUSH2 0x1C7 JUMPI DUP1 PUSH4 0x40C10F19 EQ PUSH2 0x1DC JUMPI DUP1 PUSH4 0x4D2301CC EQ PUSH2 0x1EF JUMPI DUP1 PUSH4 0x70A08231 EQ PUSH2 0x20A JUMPI DUP1 PUSH4 0x715018A6 EQ PUSH2 0x233 JUMPI DUP1 PUSH4 0x735DE9F7 EQ PUSH2 0x23B JUMPI PUSH1 0x0 DUP1 REVERT JUMPDEST DUP1 PUSH4 0x6FDDE03 EQ PUSH2 0x152 JUMPI DUP1 PUSH4 0x95EA7B3 EQ PUSH2 0x170 JUMPI DUP1 PUSH4 0x18160DDD EQ PUSH2 0x193 JUMPI DUP1 PUSH4 0x23B872DD EQ PUSH2 0x1A5 JUMPI DUP1 PUSH4 0x313CE567 EQ PUSH2 0x1B8 JUMPI JUMPDEST PUSH1 0x0 DUP1 REVERT JUMPDEST PUSH2 0x15A PUSH2 0x358 JUMP JUMPDEST PUSH1 0x40 MLOAD PUSH2 0x167 SWAP2 SWAP1 PUSH2 0xEDD JUMP JUMPDEST PUSH1 0x40 MLOAD DUP1 SWAP2 SUB SWAP1 RETURN JUMPDEST PUSH2 0x183 PUSH2 0x17E CALLDATASIZE PUSH1 0x4 PUSH2 0xF41 JUMP JUMPDEST PUSH2 0x3EA JUMP JUMPDEST PUSH1 0x40 MLOAD SWAP1 ISZERO ISZERO DUP2 MSTORE PUSH1 0x20 ADD PUSH2 0x167 JUMP JUMPDEST PUSH1 0x2 SLOAD JUMPDEST PUSH1 0x40 MLOAD SWAP1 DUP2 MSTORE PUSH1 0x20 ADD PUSH2 0x167 JUMP JUMPDEST PUSH2 0x183 PUSH2 0x1B3 CALLDATASIZE PUSH1 0x4 PUSH2 0xF6D JUMP JUMPDEST PUSH2 0x404 JUMP JUMPDEST PUSH1 0x40 MLOAD PUSH1 0x12 DUP2 MSTORE PUSH1 0x20 ADD PUSH2 0x167 JUMP JUMPDEST PUSH2 0x1DA PUSH2 0x1D5 CALLDATASIZE PUSH1 0x4 PUSH2 0xFAE JUMP JUMPDEST PUSH2 0x428 JUMP JUMPDEST STOP JUMPDEST PUSH2 0x1DA PUSH2 0x1EA CALLDATASIZE PUSH1 0x4 PUSH2 0xF41 JUMP JUMPDEST PUSH2 0x452 JUMP JUMPDEST PUSH2 0x197 PUSH2 0x1FD CALLDATASIZE PUSH1 0x4 PUSH2 0xFAE JUMP JUMPDEST PUSH1 0x1 PUSH1 0x1 PUSH1 0xA0 SHL SUB AND BALANCE SWAP1 JUMP JUMPDEST PUSH2 0x197 PUSH2 0x218 CALLDATASIZE PUSH1 0x4 PUSH2 0xFAE JUMP JUMPDEST PUSH1 0x1 PUSH1 0x1 PUSH1 0xA0 SHL SUB AND PUSH1 0x0 SWAP1 DUP2 MSTORE PUSH1 0x20 DUP2 SWAP1 MSTORE PUSH1 0x40 SWAP1 KECCAK256 SLOAD SWAP1 JUMP JUMPDEST PUSH2 0x1DA PUSH2 0x4AA JUMP JUMPDEST PUSH1 0x6 SLOAD PUSH2 0x24E SWAP1 PUSH1 0x1 PUSH1 0x1 PUSH1 0xA0 SHL SUB AND DUP2 JUMP JUMPDEST PUSH1 0x40 MLOAD PUSH1 0x1 PUSH1 0x1 PUSH1 0xA0 SHL SUB SWAP1 SWAP2 AND DUP2 MSTORE PUSH1 0x20 ADD PUSH2 0x167 JUMP JUMPDEST PUSH1 0x7 SLOAD PUSH2 0x24E SWAP1 PUSH1 0x1 PUSH1 0x1 PUSH1 0xA0 SHL SUB AND DUP2 JUMP JUMPDEST PUSH1 0x5 SLOAD PUSH1 0x1 PUSH1 0x1 PUSH1 0xA0 SHL SUB AND PUSH2 0x24E JUMP JUMPDEST PUSH2 0x15A PUSH2 0x4BE JUMP JUMPDEST PUSH2 0x1DA PUSH2 0x4CD JUMP JUMPDEST PUSH2 0x183 PUSH2 0x2A8 CALLDATASIZE PUSH1 0x4 PUSH2 0xF41 JUMP JUMPDEST PUSH2 0x668 JUMP JUMPDEST PUSH2 0x1DA PUSH2 0x2BB CALLDATASIZE PUSH1 0x4 PUSH2 0xFAE JUMP JUMPDEST PUSH2 0x74F JUMP JUMPDEST PUSH1 0x8 SLOAD PUSH2 0x24E SWAP1 PUSH1 0x1 PUSH1 0x1 PUSH1 0xA0 SHL SUB AND DUP2 JUMP JUMPDEST PUSH2 0x1DA PUSH2 0x2E1 CALLDATASIZE PUSH1 0x4 PUSH2 0xFAE JUMP JUMPDEST PUSH2 0x779 JUMP JUMPDEST PUSH2 0x197 PUSH2 0x2F4 CALLDATASIZE PUSH1 0x4 PUSH2 0xFD2 JUMP JUMPDEST PUSH1 0x1 PUSH1 0x1 PUSH1 0xA0 SHL SUB SWAP2 DUP3 AND PUSH1 0x0 SWAP1 DUP2 MSTORE PUSH1 0x1 PUSH1 0x20 SWAP1 DUP2 MSTORE PUSH1 0x40 DUP1 DUP4 KECCAK256 SWAP4 SWAP1 SWAP5 AND DUP3 MSTORE SWAP2 SWAP1 SWAP2 MSTORE KECCAK256 SLOAD SWAP1 JUMP JUMPDEST PUSH2 0x1DA PUSH2 0x32D CALLDATASIZE PUSH1 0x4 PUSH2 0xFAE JUMP JUMPDEST PUSH2 0x7A3 JUMP JUMPDEST PUSH2 0x1DA PUSH2 0x340 CALLDATASIZE PUSH1 0x4 PUSH2 0xFAE JUMP JUMPDEST PUSH2 0x7CD JUMP JUMPDEST PUSH1 0x9 SLOAD PUSH2 0x24E SWAP1 PUSH1 0x1 PUSH1 0x1 PUSH1 0xA0 SHL SUB AND DUP2 JUMP JUMPDEST PUSH1 0x60 PUSH1 0x3 DUP1 SLOAD PUSH2 0x367 SWAP1 PUSH2 0x100B JUMP JUMPDEST DUP1 PUSH1 0x1F ADD PUSH1 0x20 DUP1 SWAP2 DIV MUL PUSH1 0x20 ADD PUSH1 0x40 MLOAD SWAP1 DUP2 ADD PUSH1 0x40 MSTORE DUP1 SWAP3 SWAP2 SWAP1 DUP2 DUP2 MSTORE PUSH1 0x20 ADD DUP3 DUP1 SLOAD PUSH2 0x393 SWAP1 PUSH2 0x100B JUMP JUMPDEST DUP1 ISZERO PUSH2 0x3E0 JUMPI DUP1 PUSH1 0x1F LT PUSH2 0x3B5 JUMPI PUSH2 0x100 DUP1 DUP4 SLOAD DIV MUL DUP4 MSTORE SWAP2 PUSH1 0x20 ADD SWAP2 PUSH2 0x3E0 JUMP JUMPDEST DUP3 ADD SWAP2 SWAP1 PUSH1 0x0 MSTORE PUSH1 0x20 PUSH1 0x0 KECCAK256 SWAP1 JUMPDEST DUP2 SLOAD DUP2 MSTORE SWAP1 PUSH1 0x1 ADD SWAP1 PUSH1 0x20 ADD DUP1 DUP4 GT PUSH2 0x3C3 JUMPI DUP3 SWAP1 SUB PUSH1 0x1F AND DUP3 ADD SWAP2 JUMPDEST POP POP POP POP POP SWAP1 POP SWAP1 JUMP JUMPDEST PUSH1 0x0 CALLER PUSH2 0x3F8 DUP2 DUP6 DUP6 PUSH2 0x80B JUMP JUMPDEST PUSH1 0x1 SWAP2 POP POP JUMPDEST SWAP3 SWAP2 POP POP JUMP JUMPDEST PUSH1 0x0 CALLER PUSH2 0x412 DUP6 DUP3 DUP6 PUSH2 0x81D JUMP JUMPDEST PUSH2 0x41D DUP6 DUP6 DUP6 PUSH2 0x895 JUMP JUMPDEST POP PUSH1 0x1 SWAP5 SWAP4 POP POP POP POP JUMP JUMPDEST PUSH2 0x430 PUSH2 0x8F4 JUMP JUMPDEST PUSH1 0x9 DUP1 SLOAD PUSH1 0x1 PUSH1 0x1 PUSH1 0xA0 SHL SUB NOT AND PUSH1 0x1 PUSH1 0x1 PUSH1 0xA0 SHL SUB SWAP3 SWAP1 SWAP3 AND SWAP2 SWAP1 SWAP2 OR SWAP1 SSTORE JUMP JUMPDEST PUSH2 0x45A PUSH2 0x8F4 JUMP JUMPDEST PUSH1 0x0 DUP1 PUSH2 0x466 DUP4 PUSH2 0x921 JUMP JUMPDEST SWAP2 POP SWAP2 POP PUSH2 0x474 DUP5 DUP4 PUSH2 0x9A9 JUMP JUMPDEST PUSH1 0x0 DUP2 GT DUP1 ISZERO PUSH2 0x495 JUMPI POP PUSH8 0xDE0B6B3A7640000 PUSH1 0x1 PUSH1 0x1 PUSH1 0xA0 SHL SUB DUP6 AND BALANCE LT JUMPDEST ISZERO PUSH2 0x4A4 JUMPI PUSH2 0x4A4 DUP5 DUP3 PUSH2 0x9E3 JUMP JUMPDEST POP POP POP POP JUMP JUMPDEST PUSH2 0x4B2 PUSH2 0x8F4 JUMP JUMPDEST PUSH2 0x4BC PUSH1 0x0 PUSH2 0xA97 JUMP JUMPDEST JUMP JUMPDEST PUSH1 0x60 PUSH1 0x4 DUP1 SLOAD PUSH2 0x367 SWAP1 PUSH2 0x100B JUMP JUMPDEST PUSH2 0x4D5 PUSH2 0x8F4 JUMP JUMPDEST PUSH1 0x7 SLOAD PUSH1 0x1 PUSH1 0x1 PUSH1 0xA0 SHL SUB AND PUSH2 0x532 JUMPI PUSH1 0x40 MLOAD PUSH3 0x461BCD PUSH1 0xE5 SHL DUP2 MSTORE PUSH1 0x20 PUSH1 0x4 DUP3 ADD MSTORE PUSH1 0x17 PUSH1 0x24 DUP3 ADD MSTORE PUSH32 0x556E697377617020666163746F7279206E6F7420736574000000000000000000 PUSH1 0x44 DUP3 ADD MSTORE PUSH1 0x64 ADD JUMPDEST PUSH1 0x40 MLOAD DUP1 SWAP2 SUB SWAP1 REVERT JUMPDEST ADDRESS PUSH2 0x577 JUMPI PUSH1 0x40 MLOAD PUSH3 0x461BCD PUSH1 0xE5 SHL DUP2 MSTORE PUSH1 0x20 PUSH1 0x4 DUP3 ADD MSTORE PUSH1 0x15 PUSH1 0x24 DUP3 ADD MSTORE PUSH21 0x151BDAD95B881859191C995CDCC81B9BDD081CD95D PUSH1 0x5A SHL PUSH1 0x44 DUP3 ADD MSTORE PUSH1 0x64 ADD PUSH2 0x529 JUMP JUMPDEST PUSH1 0x9 SLOAD PUSH1 0x1 PUSH1 0x1 PUSH1 0xA0 SHL SUB AND PUSH2 0x5C8 JUMPI PUSH1 0x40 MLOAD PUSH3 0x461BCD PUSH1 0xE5 SHL DUP2 MSTORE PUSH1 0x20 PUSH1 0x4 DUP3 ADD MSTORE PUSH1 0x16 PUSH1 0x24 DUP3 ADD MSTORE PUSH22 0x15D350551250C81859191C995CDCC81B9BDD081CD95D PUSH1 0x52 SHL PUSH1 0x44 DUP3 ADD MSTORE PUSH1 0x64 ADD PUSH2 0x529 JUMP JUMPDEST PUSH1 0x7 SLOAD PUSH1 0x9 SLOAD PUSH1 0x40 MLOAD PUSH4 0x64E329CB PUSH1 0xE1 SHL DUP2 MSTORE ADDRESS PUSH1 0x4 DUP3 ADD MSTORE PUSH1 0x1 PUSH1 0x1 PUSH1 0xA0 SHL SUB SWAP2 DUP3 AND PUSH1 0x24 DUP3 ADD MSTORE PUSH1 0x0 SWAP3 SWAP2 SWAP1 SWAP2 AND SWAP1 PUSH4 0xC9C65396 SWAP1 PUSH1 0x44 ADD PUSH1 0x20 PUSH1 0x40 MLOAD DUP1 DUP4 SUB DUP2 PUSH1 0x0 DUP8 GAS CALL ISZERO DUP1 ISZERO PUSH2 0x621 JUMPI RETURNDATASIZE PUSH1 0x0 DUP1 RETURNDATACOPY RETURNDATASIZE PUSH1 0x0 REVERT JUMPDEST POP POP POP POP PUSH1 0x40 MLOAD RETURNDATASIZE PUSH1 0x1F NOT PUSH1 0x1F DUP3 ADD AND DUP3 ADD DUP1 PUSH1 0x40 MSTORE POP DUP2 ADD SWAP1 PUSH2 0x645 SWAP2 SWAP1 PUSH2 0x103F JUMP JUMPDEST PUSH1 0x8 DUP1 SLOAD PUSH1 0x1 PUSH1 0x1 PUSH1 0xA0 SHL SUB NOT AND PUSH1 0x1 PUSH1 0x1 PUSH1 0xA0 SHL SUB SWAP3 SWAP1 SWAP3 AND SWAP2 SWAP1 SWAP2 OR SWAP1 SSTORE POP JUMP JUMPDEST PUSH1 0x0 CALLER DUP2 DUP1 PUSH2 0x676 DUP6 PUSH2 0x921 JUMP JUMPDEST SWAP1 SWAP3 POP SWAP1 POP DUP1 ISZERO PUSH2 0x73B JUMPI PUSH8 0xDE0B6B3A7640000 PUSH1 0x1 PUSH1 0x1 PUSH1 0xA0 SHL SUB DUP5 AND BALANCE LT DUP1 ISZERO PUSH2 0x6B3 JUMPI POP PUSH8 0xDE0B6B3A7640000 PUSH1 0x1 PUSH1 0x1 PUSH1 0xA0 SHL SUB DUP8 AND BALANCE LT JUMPDEST ISZERO PUSH2 0x6EE JUMPI PUSH2 0x6C3 PUSH1 0x2 DUP3 PUSH2 0x1072 JUMP JUMPDEST SWAP1 POP PUSH1 0x0 PUSH2 0x6D2 PUSH1 0x2 DUP4 PUSH2 0x109F JUMP JUMPDEST SWAP1 POP PUSH2 0x6DE DUP5 DUP3 PUSH2 0x9E3 JUMP JUMPDEST PUSH2 0x6E8 DUP8 DUP3 PUSH2 0x9E3 JUMP JUMPDEST POP PUSH2 0x73B JUMP JUMPDEST PUSH8 0xDE0B6B3A7640000 PUSH1 0x1 PUSH1 0x1 PUSH1 0xA0 SHL SUB DUP5 AND BALANCE LT ISZERO PUSH2 0x717 JUMPI PUSH2 0x712 DUP4 DUP3 PUSH2 0x9E3 JUMP JUMPDEST PUSH2 0x73B JUMP JUMPDEST PUSH8 0xDE0B6B3A7640000 PUSH1 0x1 PUSH1 0x1 PUSH1 0xA0 SHL SUB DUP8 AND BALANCE LT ISZERO PUSH2 0x73B JUMPI PUSH2 0x73B DUP7 DUP3 PUSH2 0x9E3 JUMP JUMPDEST PUSH2 0x745 DUP7 DUP4 PUSH2 0xAE9 JUMP JUMPDEST SWAP7 SWAP6 POP POP POP POP POP POP JUMP JUMPDEST PUSH2 0x757 PUSH2 0x8F4 JUMP JUMPDEST PUSH1 0x6 DUP1 SLOAD PUSH1 0x1 PUSH1 0x1 PUSH1 0xA0 SHL SUB NOT AND PUSH1 0x1 PUSH1 0x1 PUSH1 0xA0 SHL SUB SWAP3 SWAP1 SWAP3 AND SWAP2 SWAP1 SWAP2 OR SWAP1 SSTORE JUMP JUMPDEST PUSH2 0x781 PUSH2 0x8F4 JUMP JUMPDEST PUSH1 0x8 DUP1 SLOAD PUSH1 0x1 PUSH1 0x1 PUSH1 0xA0 SHL SUB NOT AND PUSH1 0x1 PUSH1 0x1 PUSH1 0xA0 SHL SUB SWAP3 SWAP1 SWAP3 AND SWAP2 SWAP1 SWAP2 OR SWAP1 SSTORE JUMP JUMPDEST PUSH2 0x7AB PUSH2 0x8F4 JUMP JUMPDEST PUSH1 0x7 DUP1 SLOAD PUSH1 0x1 PUSH1 0x1 PUSH1 0xA0 SHL SUB NOT AND PUSH1 0x1 PUSH1 0x1 PUSH1 0xA0 SHL SUB SWAP3 SWAP1 SWAP3 AND SWAP2 SWAP1 SWAP2 OR SWAP1 SSTORE JUMP JUMPDEST PUSH2 0x7D5 PUSH2 0x8F4 JUMP JUMPDEST PUSH1 0x1 PUSH1 0x1 PUSH1 0xA0 SHL SUB DUP2 AND PUSH2 0x7FF JUMPI PUSH1 0x40 MLOAD PUSH4 0x1E4FBDF7 PUSH1 0xE0 SHL DUP2 MSTORE PUSH1 0x0 PUSH1 0x4 DUP3 ADD MSTORE PUSH1 0x24 ADD PUSH2 0x529 JUMP JUMPDEST PUSH2 0x808 DUP2 PUSH2 0xA97 JUMP JUMPDEST POP JUMP JUMPDEST PUSH2 0x818 DUP4 DUP4 DUP4 PUSH1 0x1 PUSH2 0xAF7 JUMP JUMPDEST POP POP POP JUMP JUMPDEST PUSH1 0x1 PUSH1 0x1 PUSH1 0xA0 SHL SUB DUP4 DUP2 AND PUSH1 0x0 SWAP1 DUP2 MSTORE PUSH1 0x1 PUSH1 0x20 SWAP1 DUP2 MSTORE PUSH1 0x40 DUP1 DUP4 KECCAK256 SWAP4 DUP7 AND DUP4 MSTORE SWAP3 SWAP1 MSTORE KECCAK256 SLOAD PUSH1 0x0 NOT DUP2 EQ PUSH2 0x4A4 JUMPI DUP2 DUP2 LT ISZERO PUSH2 0x886 JUMPI PUSH1 0x40 MLOAD PUSH4 0x7DC7A0D9 PUSH1 0xE1 SHL DUP2 MSTORE PUSH1 0x1 PUSH1 0x1 PUSH1 0xA0 SHL SUB DUP5 AND PUSH1 0x4 DUP3 ADD MSTORE PUSH1 0x24 DUP2 ADD DUP3 SWAP1 MSTORE PUSH1 0x44 DUP2 ADD DUP4 SWAP1 MSTORE PUSH1 0x64 ADD PUSH2 0x529 JUMP JUMPDEST PUSH2 0x4A4 DUP5 DUP5 DUP5 DUP5 SUB PUSH1 0x0 PUSH2 0xAF7 JUMP JUMPDEST PUSH1 0x1 PUSH1 0x1 PUSH1 0xA0 SHL SUB DUP4 AND PUSH2 0x8BF JUMPI PUSH1 0x40 MLOAD PUSH4 0x4B637E8F PUSH1 0xE1 SHL DUP2 MSTORE PUSH1 0x0 PUSH1 0x4 DUP3 ADD MSTORE PUSH1 0x24 ADD PUSH2 0x529 JUMP JUMPDEST PUSH1 0x1 PUSH1 0x1 PUSH1 0xA0 SHL SUB DUP3 AND PUSH2 0x8E9 JUMPI PUSH1 0x40 MLOAD PUSH4 0xEC442F05 PUSH1 0xE0 SHL DUP2 MSTORE PUSH1 0x0 PUSH1 0x4 DUP3 ADD MSTORE PUSH1 0x24 ADD PUSH2 0x529 JUMP JUMPDEST PUSH2 0x818 DUP4 DUP4 DUP4 PUSH2 0xBCC JUMP JUMPDEST PUSH1 0x5 SLOAD PUSH1 0x1 PUSH1 0x1 PUSH1 0xA0 SHL SUB AND CALLER EQ PUSH2 0x4BC JUMPI PUSH1 0x40 MLOAD PUSH4 0x118CDAA7 PUSH1 0xE0 SHL DUP2 MSTORE CALLER PUSH1 0x4 DUP3 ADD MSTORE PUSH1 0x24 ADD PUSH2 0x529 JUMP JUMPDEST PUSH1 0x0 DUP1 PUSH1 0x12 DUP2 PUSH2 0x932 DUP3 PUSH1 0xA PUSH2 0x1197 JUMP JUMPDEST PUSH2 0x93D DUP4 PUSH1 0xA PUSH2 0x1197 JUMP JUMPDEST PUSH2 0x947 SWAP1 DUP8 PUSH2 0x109F JUMP JUMPDEST PUSH2 0x951 SWAP2 SWAP1 PUSH2 0x1072 JUMP JUMPDEST SWAP1 POP PUSH1 0x0 PUSH2 0x960 DUP4 PUSH1 0xA PUSH2 0x1197 JUMP JUMPDEST PUSH2 0x96A SWAP1 DUP8 PUSH2 0x11A3 JUMP JUMPDEST SWAP1 POP PUSH2 0x97B PUSH5 0xE8D4A51000 DUP3 PUSH2 0x109F JUMP JUMPDEST PUSH3 0x1E240 SUB PUSH2 0x99A JUMPI PUSH2 0x993 PUSH5 0xE8D4A51000 DUP3 PUSH2 0x11A3 JUMP JUMPDEST SWAP1 POP PUSH2 0x99E JUMP JUMPDEST POP PUSH1 0x0 JUMPDEST SWAP1 SWAP6 SWAP1 SWAP5 POP SWAP3 POP POP POP JUMP JUMPDEST PUSH1 0x1 PUSH1 0x1 PUSH1 0xA0 SHL SUB DUP3 AND PUSH2 0x9D3 JUMPI PUSH1 0x40 MLOAD PUSH4 0xEC442F05 PUSH1 0xE0 SHL DUP2 MSTORE PUSH1 0x0 PUSH1 0x4 DUP3 ADD MSTORE PUSH1 0x24 ADD PUSH2 0x529 JUMP JUMPDEST PUSH2 0x9DF PUSH1 0x0 DUP4 DUP4 PUSH2 0xBCC JUMP JUMPDEST POP POP JUMP JUMPDEST PUSH2 0x9EC DUP2 PUSH2 0xCF6 JUMP JUMPDEST PUSH2 0x9F4 JUMPI POP POP JUMP JUMPDEST PUSH1 0x0 DUP3 PUSH1 0x1 PUSH1 0x1 PUSH1 0xA0 SHL SUB AND DUP3 PUSH1 0x40 MLOAD PUSH1 0x0 PUSH1 0x40 MLOAD DUP1 DUP4 SUB DUP2 DUP6 DUP8 GAS CALL SWAP3 POP POP POP RETURNDATASIZE DUP1 PUSH1 0x0 DUP2 EQ PUSH2 0xA41 JUMPI PUSH1 0x40 MLOAD SWAP2 POP PUSH1 0x1F NOT PUSH1 0x3F RETURNDATASIZE ADD AND DUP3 ADD PUSH1 0x40 MSTORE RETURNDATASIZE DUP3 MSTORE RETURNDATASIZE PUSH1 0x0 PUSH1 0x20 DUP5 ADD RETURNDATACOPY PUSH2 0xA46 JUMP JUMPDEST PUSH1 0x60 SWAP2 POP JUMPDEST POP POP SWAP1 POP DUP1 ISZERO PUSH2 0x818 JUMPI PUSH1 0x40 DUP1 MLOAD PUSH1 0x1 PUSH1 0x1 PUSH1 0xA0 SHL SUB DUP6 AND DUP2 MSTORE PUSH1 0x20 DUP2 ADD DUP5 SWAP1 MSTORE PUSH32 0xFD322BA7B8A70AEFDA96C2F5B24BD547152B3B350F08E3AF8E770729C08EB64D SWAP2 ADD PUSH1 0x40 MLOAD DUP1 SWAP2 SUB SWAP1 LOG1 POP POP POP JUMP JUMPDEST PUSH1 0x5 DUP1 SLOAD PUSH1 0x1 PUSH1 0x1 PUSH1 0xA0 SHL SUB DUP4 DUP2 AND PUSH1 0x1 PUSH1 0x1 PUSH1 0xA0 SHL SUB NOT DUP4 AND DUP2 OR SWAP1 SWAP4 SSTORE PUSH1 0x40 MLOAD SWAP2 AND SWAP2 SWAP1 DUP3 SWAP1 PUSH32 0x8BE0079C531659141344CD1FD0A4F28419497F9722A3DAAFE3B4186F6B6457E0 SWAP1 PUSH1 0x0 SWAP1 LOG3 POP POP JUMP JUMPDEST PUSH1 0x0 CALLER PUSH2 0x3F8 DUP2 DUP6 DUP6 PUSH2 0x895 JUMP JUMPDEST PUSH1 0x1 PUSH1 0x1 PUSH1 0xA0 SHL SUB DUP5 AND PUSH2 0xB21 JUMPI PUSH1 0x40 MLOAD PUSH4 0xE602DF05 PUSH1 0xE0 SHL DUP2 MSTORE PUSH1 0x0 PUSH1 0x4 DUP3 ADD MSTORE PUSH1 0x24 ADD PUSH2 0x529 JUMP JUMPDEST PUSH1 0x1 PUSH1 0x1 PUSH1 0xA0 SHL SUB DUP4 AND PUSH2 0xB4B JUMPI PUSH1 0x40 MLOAD PUSH4 0x4A1406B1 PUSH1 0xE1 SHL DUP2 MSTORE PUSH1 0x0 PUSH1 0x4 DUP3 ADD MSTORE PUSH1 0x24 ADD PUSH2 0x529 JUMP JUMPDEST PUSH1 0x1 PUSH1 0x1 PUSH1 0xA0 SHL SUB DUP1 DUP6 AND PUSH1 0x0 SWAP1 DUP2 MSTORE PUSH1 0x1 PUSH1 0x20 SWAP1 DUP2 MSTORE PUSH1 0x40 DUP1 DUP4 KECCAK256 SWAP4 DUP8 AND DUP4 MSTORE SWAP3 SWAP1 MSTORE KECCAK256 DUP3 SWAP1 SSTORE DUP1 ISZERO PUSH2 0x4A4 JUMPI DUP3 PUSH1 0x1 PUSH1 0x1 PUSH1 0xA0 SHL SUB AND DUP5 PUSH1 0x1 PUSH1 0x1 PUSH1 0xA0 SHL SUB AND PUSH32 0x8C5BE1E5EBEC7D5BD14F71427D1E84F3DD0314C0F7B2291E5B200AC8C7C3B925 DUP5 PUSH1 0x40 MLOAD PUSH2 0xBBE SWAP2 DUP2 MSTORE PUSH1 0x20 ADD SWAP1 JUMP JUMPDEST PUSH1 0x40 MLOAD DUP1 SWAP2 SUB SWAP1 LOG3 POP POP POP POP JUMP JUMPDEST PUSH1 0x1 PUSH1 0x1 PUSH1 0xA0 SHL SUB DUP4 AND PUSH2 0xBF7 JUMPI DUP1 PUSH1 0x2 PUSH1 0x0 DUP3 DUP3 SLOAD PUSH2 0xBEC SWAP2 SWAP1 PUSH2 0x11B7 JUMP JUMPDEST SWAP1 SWAP2 SSTORE POP PUSH2 0xC69 SWAP1 POP JUMP JUMPDEST PUSH1 0x1 PUSH1 0x1 PUSH1 0xA0 SHL SUB DUP4 AND PUSH1 0x0 SWAP1 DUP2 MSTORE PUSH1 0x20 DUP2 SWAP1 MSTORE PUSH1 0x40 SWAP1 KECCAK256 SLOAD DUP2 DUP2 LT ISZERO PUSH2 0xC4A JUMPI PUSH1 0x40 MLOAD PUSH4 0x391434E3 PUSH1 0xE2 SHL DUP2 MSTORE PUSH1 0x1 PUSH1 0x1 PUSH1 0xA0 SHL SUB DUP6 AND PUSH1 0x4 DUP3 ADD MSTORE PUSH1 0x24 DUP2 ADD DUP3 SWAP1 MSTORE PUSH1 0x44 DUP2 ADD DUP4 SWAP1 MSTORE PUSH1 0x64 ADD PUSH2 0x529 JUMP JUMPDEST PUSH1 0x1 PUSH1 0x1 PUSH1 0xA0 SHL SUB DUP5 AND PUSH1 0x0 SWAP1 DUP2 MSTORE PUSH1 0x20 DUP2 SWAP1 MSTORE PUSH1 0x40 SWAP1 KECCAK256 SWAP1 DUP3 SWAP1 SUB SWAP1 SSTORE JUMPDEST PUSH1 0x1 PUSH1 0x1 PUSH1 0xA0 SHL SUB DUP3 AND PUSH2 0xC85 JUMPI PUSH1 0x2 DUP1 SLOAD DUP3 SWAP1 SUB SWAP1 SSTORE PUSH2 0xCA4 JUMP JUMPDEST PUSH1 0x1 PUSH1 0x1 PUSH1 0xA0 SHL SUB DUP3 AND PUSH1 0x0 SWAP1 DUP2 MSTORE PUSH1 0x20 DUP2 SWAP1 MSTORE PUSH1 0x40 SWAP1 KECCAK256 DUP1 SLOAD DUP3 ADD SWAP1 SSTORE JUMPDEST DUP2 PUSH1 0x1 PUSH1 0x1 PUSH1 0xA0 SHL SUB AND DUP4 PUSH1 0x1 PUSH1 0x1 PUSH1 0xA0 SHL SUB AND PUSH32 0xDDF252AD1BE2C89B69C2B068FC378DAA952BA7F163C4A11628F55A4DF523B3EF DUP4 PUSH1 0x40 MLOAD PUSH2 0xCE9 SWAP2 DUP2 MSTORE PUSH1 0x20 ADD SWAP1 JUMP JUMPDEST PUSH1 0x40 MLOAD DUP1 SWAP2 SUB SWAP1 LOG3 POP POP POP JUMP JUMPDEST PUSH1 0x40 DUP1 MLOAD PUSH1 0x2 DUP1 DUP3 MSTORE PUSH1 0x60 DUP3 ADD DUP4 MSTORE PUSH1 0x0 SWAP3 DUP4 SWAP3 SWAP2 SWAP1 PUSH1 0x20 DUP4 ADD SWAP1 DUP1 CALLDATASIZE DUP4 CALLDATACOPY ADD SWAP1 POP POP SWAP1 POP ADDRESS DUP2 PUSH1 0x0 DUP2 MLOAD DUP2 LT PUSH2 0xD2F JUMPI PUSH2 0xD2F PUSH2 0x11E0 JUMP JUMPDEST PUSH1 0x1 PUSH1 0x1 PUSH1 0xA0 SHL SUB SWAP3 DUP4 AND PUSH1 0x20 SWAP2 DUP3 MUL SWAP3 SWAP1 SWAP3 ADD DUP2 ADD SWAP2 SWAP1 SWAP2 MSTORE PUSH1 0x6 SLOAD PUSH1 0x40 DUP1 MLOAD PUSH4 0x15AB88C9 PUSH1 0xE3 SHL DUP2 MSTORE SWAP1 MLOAD SWAP2 SWAP1 SWAP4 AND SWAP3 PUSH4 0xAD5C4648 SWAP3 PUSH1 0x4 DUP1 DUP4 ADD SWAP4 SWAP2 SWAP3 DUP3 SWAP1 SUB ADD DUP2 DUP7 GAS STATICCALL ISZERO DUP1 ISZERO PUSH2 0xD88 JUMPI RETURNDATASIZE PUSH1 0x0 DUP1 RETURNDATACOPY RETURNDATASIZE PUSH1 0x0 REVERT JUMPDEST POP POP POP POP PUSH1 0x40 MLOAD RETURNDATASIZE PUSH1 0x1F NOT PUSH1 0x1F DUP3 ADD AND DUP3 ADD DUP1 PUSH1 0x40 MSTORE POP DUP2 ADD SWAP1 PUSH2 0xDAC SWAP2 SWAP1 PUSH2 0x103F JUMP JUMPDEST DUP2 PUSH1 0x1 DUP2 MLOAD DUP2 LT PUSH2 0xDBF JUMPI PUSH2 0xDBF PUSH2 0x11E0 JUMP JUMPDEST PUSH1 0x1 PUSH1 0x1 PUSH1 0xA0 SHL SUB SWAP3 DUP4 AND PUSH1 0x20 SWAP2 DUP3 MUL SWAP3 SWAP1 SWAP3 ADD ADD MSTORE PUSH1 0x6 SLOAD PUSH1 0x40 MLOAD PUSH4 0x95EA7B3 PUSH1 0xE0 SHL DUP2 MSTORE SWAP2 AND PUSH1 0x4 DUP3 ADD MSTORE PUSH1 0x24 DUP2 ADD DUP5 SWAP1 MSTORE ADDRESS SWAP1 PUSH4 0x95EA7B3 SWAP1 PUSH1 0x44 ADD PUSH1 0x20 PUSH1 0x40 MLOAD DUP1 DUP4 SUB DUP2 PUSH1 0x0 DUP8 GAS CALL SWAP3 POP POP POP DUP1 ISZERO PUSH2 0xE39 JUMPI POP PUSH1 0x40 DUP1 MLOAD PUSH1 0x1F RETURNDATASIZE SWAP1 DUP2 ADD PUSH1 0x1F NOT AND DUP3 ADD SWAP1 SWAP3 MSTORE PUSH2 0xE36 SWAP2 DUP2 ADD SWAP1 PUSH2 0x11F6 JUMP JUMPDEST PUSH1 0x1 JUMPDEST PUSH2 0xE46 JUMPI POP PUSH1 0x0 SWAP3 SWAP2 POP POP JUMP JUMPDEST POP PUSH1 0x6 SLOAD PUSH1 0x40 MLOAD PUSH4 0x18CBAFE5 PUSH1 0xE0 SHL DUP2 MSTORE PUSH1 0x1 PUSH1 0x1 PUSH1 0xA0 SHL SUB SWAP1 SWAP2 AND SWAP1 PUSH4 0x18CBAFE5 SWAP1 PUSH2 0xE80 SWAP1 DUP7 SWAP1 PUSH1 0x0 SWAP1 DUP7 SWAP1 ADDRESS SWAP1 TIMESTAMP SWAP1 PUSH1 0x4 ADD PUSH2 0x1218 JUMP JUMPDEST PUSH1 0x0 PUSH1 0x40 MLOAD DUP1 DUP4 SUB DUP2 PUSH1 0x0 DUP8 GAS CALL SWAP3 POP POP POP DUP1 ISZERO PUSH2 0xEC0 JUMPI POP PUSH1 0x40 MLOAD RETURNDATASIZE PUSH1 0x0 DUP3 RETURNDATACOPY PUSH1 0x1F RETURNDATASIZE SWAP1 DUP2 ADD PUSH1 0x1F NOT AND DUP3 ADD PUSH1 0x40 MSTORE PUSH2 0xEBD SWAP2 SWAP1 DUP2 ADD SWAP1 PUSH2 0x128B JUMP JUMPDEST PUSH1 0x1 JUMPDEST PUSH2 0xECD JUMPI POP PUSH1 0x0 SWAP3 SWAP2 POP POP JUMP JUMPDEST POP PUSH1 0x1 SWAP4 SWAP3 POP POP POP JUMP JUMPDEST POP SWAP2 SWAP1 POP JUMP JUMPDEST PUSH1 0x0 PUSH1 0x20 DUP1 DUP4 MSTORE DUP4 MLOAD DUP1 PUSH1 0x20 DUP6 ADD MSTORE PUSH1 0x0 JUMPDEST DUP2 DUP2 LT ISZERO PUSH2 0xF0B JUMPI DUP6 DUP2 ADD DUP4 ADD MLOAD DUP6 DUP3 ADD PUSH1 0x40 ADD MSTORE DUP3 ADD PUSH2 0xEEF JUMP JUMPDEST POP PUSH1 0x0 PUSH1 0x40 DUP3 DUP7 ADD ADD MSTORE PUSH1 0x40 PUSH1 0x1F NOT PUSH1 0x1F DUP4 ADD AND DUP6 ADD ADD SWAP3 POP POP POP SWAP3 SWAP2 POP POP JUMP JUMPDEST PUSH1 0x1 PUSH1 0x1 PUSH1 0xA0 SHL SUB DUP2 AND DUP2 EQ PUSH2 0x808 JUMPI PUSH1 0x0 DUP1 REVERT JUMPDEST PUSH1 0x0 DUP1 PUSH1 0x40 DUP4 DUP6 SUB SLT ISZERO PUSH2 0xF54 JUMPI PUSH1 0x0 DUP1 REVERT JUMPDEST DUP3 CALLDATALOAD PUSH2 0xF5F DUP2 PUSH2 0xF2C JUMP JUMPDEST SWAP5 PUSH1 0x20 SWAP4 SWAP1 SWAP4 ADD CALLDATALOAD SWAP4 POP POP POP JUMP JUMPDEST PUSH1 0x0 DUP1 PUSH1 0x0 PUSH1 0x60 DUP5 DUP7 SUB SLT ISZERO PUSH2 0xF82 JUMPI PUSH1 0x0 DUP1 REVERT JUMPDEST DUP4 CALLDATALOAD PUSH2 0xF8D DUP2 PUSH2 0xF2C JUMP JUMPDEST SWAP3 POP PUSH1 0x20 DUP5 ADD CALLDATALOAD PUSH2 0xF9D DUP2 PUSH2 0xF2C JUMP JUMPDEST SWAP3 SWAP6 SWAP3 SWAP5 POP POP POP PUSH1 0x40 SWAP2 SWAP1 SWAP2 ADD CALLDATALOAD SWAP1 JUMP JUMPDEST PUSH1 0x0 PUSH1 0x20 DUP3 DUP5 SUB SLT ISZERO PUSH2 0xFC0 JUMPI PUSH1 0x0 DUP1 REVERT JUMPDEST DUP2 CALLDATALOAD PUSH2 0xFCB DUP2 PUSH2 0xF2C JUMP JUMPDEST SWAP4 SWAP3 POP POP POP JUMP JUMPDEST PUSH1 0x0 DUP1 PUSH1 0x40 DUP4 DUP6 SUB SLT ISZERO PUSH2 0xFE5 JUMPI PUSH1 0x0 DUP1 REVERT JUMPDEST DUP3 CALLDATALOAD PUSH2 0xFF0 DUP2 PUSH2 0xF2C JUMP JUMPDEST SWAP2 POP PUSH1 0x20 DUP4 ADD CALLDATALOAD PUSH2 0x1000 DUP2 PUSH2 0xF2C JUMP JUMPDEST DUP1 SWAP2 POP POP SWAP3 POP SWAP3 SWAP1 POP JUMP JUMPDEST PUSH1 0x1 DUP2 DUP2 SHR SWAP1 DUP3 AND DUP1 PUSH2 0x101F JUMPI PUSH1 0x7F DUP3 AND SWAP2 POP JUMPDEST PUSH1 0x20 DUP3 LT DUP2 SUB PUSH2 0xED7 JUMPI PUSH4 0x4E487B71 PUSH1 0xE0 SHL PUSH1 0x0 MSTORE PUSH1 0x22 PUSH1 0x4 MSTORE PUSH1 0x24 PUSH1 0x0 REVERT JUMPDEST PUSH1 0x0 PUSH1 0x20 DUP3 DUP5 SUB SLT ISZERO PUSH2 0x1051 JUMPI PUSH1 0x0 DUP1 REVERT JUMPDEST DUP2 MLOAD PUSH2 0xFCB DUP2 PUSH2 0xF2C JUMP JUMPDEST PUSH4 0x4E487B71 PUSH1 0xE0 SHL PUSH1 0x0 MSTORE PUSH1 0x11 PUSH1 0x4 MSTORE PUSH1 0x24 PUSH1 0x0 REVERT JUMPDEST DUP1 DUP3 MUL DUP2 ISZERO DUP3 DUP3 DIV DUP5 EQ OR PUSH2 0x3FE JUMPI PUSH2 0x3FE PUSH2 0x105C JUMP JUMPDEST PUSH4 0x4E487B71 PUSH1 0xE0 SHL PUSH1 0x0 MSTORE PUSH1 0x12 PUSH1 0x4 MSTORE PUSH1 0x24 PUSH1 0x0 REVERT JUMPDEST PUSH1 0x0 DUP3 PUSH2 0x10AE JUMPI PUSH2 0x10AE PUSH2 0x1089 JUMP JUMPDEST POP DIV SWAP1 JUMP JUMPDEST PUSH1 0x1 DUP2 DUP2 JUMPDEST DUP1 DUP6 GT ISZERO PUSH2 0x10EE JUMPI DUP2 PUSH1 0x0 NOT DIV DUP3 GT ISZERO PUSH2 0x10D4 JUMPI PUSH2 0x10D4 PUSH2 0x105C JUMP JUMPDEST DUP1 DUP6 AND ISZERO PUSH2 0x10E1 JUMPI SWAP2 DUP2 MUL SWAP2 JUMPDEST SWAP4 DUP5 SHR SWAP4 SWAP1 DUP1 MUL SWAP1 PUSH2 0x10B8 JUMP JUMPDEST POP SWAP3 POP SWAP3 SWAP1 POP JUMP JUMPDEST PUSH1 0x0 DUP3 PUSH2 0x1105 JUMPI POP PUSH1 0x1 PUSH2 0x3FE JUMP JUMPDEST DUP2 PUSH2 0x1112 JUMPI POP PUSH1 0x0 PUSH2 0x3FE JUMP JUMPDEST DUP2 PUSH1 0x1 DUP2 EQ PUSH2 0x1128 JUMPI PUSH1 0x2 DUP2 EQ PUSH2 0x1132 JUMPI PUSH2 0x114E JUMP JUMPDEST PUSH1 0x1 SWAP2 POP POP PUSH2 0x3FE JUMP JUMPDEST PUSH1 0xFF DUP5 GT ISZERO PUSH2 0x1143 JUMPI PUSH2 0x1143 PUSH2 0x105C JUMP JUMPDEST POP POP PUSH1 0x1 DUP3 SHL PUSH2 0x3FE JUMP JUMPDEST POP PUSH1 0x20 DUP4 LT PUSH2 0x133 DUP4 LT AND PUSH1 0x4E DUP5 LT PUSH1 0xB DUP5 LT AND OR ISZERO PUSH2 0x1171 JUMPI POP DUP2 DUP2 EXP PUSH2 0x3FE JUMP JUMPDEST PUSH2 0x117B DUP4 DUP4 PUSH2 0x10B3 JUMP JUMPDEST DUP1 PUSH1 0x0 NOT DIV DUP3 GT ISZERO PUSH2 0x118F JUMPI PUSH2 0x118F PUSH2 0x105C JUMP JUMPDEST MUL SWAP4 SWAP3 POP POP POP JUMP JUMPDEST PUSH1 0x0 PUSH2 0xFCB DUP4 DUP4 PUSH2 0x10F6 JUMP JUMPDEST PUSH1 0x0 DUP3 PUSH2 0x11B2 JUMPI PUSH2 0x11B2 PUSH2 0x1089 JUMP JUMPDEST POP MOD SWAP1 JUMP JUMPDEST DUP1 DUP3 ADD DUP1 DUP3 GT ISZERO PUSH2 0x3FE JUMPI PUSH2 0x3FE PUSH2 0x105C JUMP JUMPDEST PUSH4 0x4E487B71 PUSH1 0xE0 SHL PUSH1 0x0 MSTORE PUSH1 0x41 PUSH1 0x4 MSTORE PUSH1 0x24 PUSH1 0x0 REVERT JUMPDEST PUSH4 0x4E487B71 PUSH1 0xE0 SHL PUSH1 0x0 MSTORE PUSH1 0x32 PUSH1 0x4 MSTORE PUSH1 0x24 PUSH1 0x0 REVERT JUMPDEST PUSH1 0x0 PUSH1 0x20 DUP3 DUP5 SUB SLT ISZERO PUSH2 0x1208 JUMPI PUSH1 0x0 DUP1 REVERT JUMPDEST DUP2 MLOAD DUP1 ISZERO ISZERO DUP2 EQ PUSH2 0xFCB JUMPI PUSH1 0x0 DUP1 REVERT JUMPDEST PUSH1 0x0 PUSH1 0xA0 DUP3 ADD DUP8 DUP4 MSTORE PUSH1 0x20 DUP8 PUSH1 0x20 DUP6 ADD MSTORE PUSH1 0xA0 PUSH1 0x40 DUP6 ADD MSTORE DUP2 DUP8 MLOAD DUP1 DUP5 MSTORE PUSH1 0xC0 DUP7 ADD SWAP2 POP PUSH1 0x20 DUP10 ADD SWAP4 POP PUSH1 0x0 JUMPDEST DUP2 DUP2 LT ISZERO PUSH2 0x126A JUMPI DUP5 MLOAD PUSH1 0x1 PUSH1 0x1 PUSH1 0xA0 SHL SUB AND DUP4 MSTORE SWAP4 DUP4 ADD SWAP4 SWAP2 DUP4 ADD SWAP2 PUSH1 0x1 ADD PUSH2 0x1245 JUMP JUMPDEST POP POP PUSH1 0x1 PUSH1 0x1 PUSH1 0xA0 SHL SUB SWAP7 SWAP1 SWAP7 AND PUSH1 0x60 DUP6 ADD MSTORE POP POP POP PUSH1 0x80 ADD MSTORE SWAP4 SWAP3 POP POP POP JUMP JUMPDEST PUSH1 0x0 PUSH1 0x20 DUP1 DUP4 DUP6 SUB SLT ISZERO PUSH2 0x129E JUMPI PUSH1 0x0 DUP1 REVERT JUMPDEST DUP3 MLOAD PUSH8 0xFFFFFFFFFFFFFFFF DUP1 DUP3 GT ISZERO PUSH2 0x12B6 JUMPI PUSH1 0x0 DUP1 REVERT JUMPDEST DUP2 DUP6 ADD SWAP2 POP DUP6 PUSH1 0x1F DUP4 ADD SLT PUSH2 0x12CA JUMPI PUSH1 0x0 DUP1 REVERT JUMPDEST DUP2 MLOAD DUP2 DUP2 GT ISZERO PUSH2 0x12DC JUMPI PUSH2 0x12DC PUSH2 0x11CA JUMP JUMPDEST DUP1 PUSH1 0x5 SHL PUSH1 0x40 MLOAD PUSH1 0x1F NOT PUSH1 0x3F DUP4 ADD AND DUP2 ADD DUP2 DUP2 LT DUP6 DUP3 GT OR ISZERO PUSH2 0x1301 JUMPI PUSH2 0x1301 PUSH2 0x11CA JUMP JUMPDEST PUSH1 0x40 MSTORE SWAP2 DUP3 MSTORE DUP5 DUP3 ADD SWAP3 POP DUP4 DUP2 ADD DUP6 ADD SWAP2 DUP9 DUP4 GT ISZERO PUSH2 0x131F JUMPI PUSH1 0x0 DUP1 REVERT JUMPDEST SWAP4 DUP6 ADD SWAP4 JUMPDEST DUP3 DUP6 LT ISZERO PUSH2 0x133D JUMPI DUP5 MLOAD DUP5 MSTORE SWAP4 DUP6 ADD SWAP4 SWAP3 DUP6 ADD SWAP3 PUSH2 0x1324 JUMP JUMPDEST SWAP9 SWAP8 POP POP POP POP POP POP POP POP JUMP INVALID LOG2 PUSH5 0x6970667358 0x22 SLT KECCAK256 0xDF 0xCF PUSH22 0x3C1F7D984B425CDED20FA61985F420D7451C900A9579 EXTCODEHASH 0xAF SHL 0x26 SUB EXTCODEHASH PUSH21 0x64736F6C6343000819003300000000000000000000 ","sha1":"b8544a76e7efb2563d90c4164d33e010eb156551","source":"// SPDX-License-Identifier: MIT\npragma solidity ^0.8.4;\n\nimport \"OpenZeppelin/openzeppelin-contracts@5.0.2/contracts/token/ERC20/ERC20.sol\";\nimport \"OpenZeppelin/openzeppelin-contracts@5.0.2/contracts/access/Ownable.sol\";\nimport \"Uniswap/v2-periphery@1.0.0-beta.0/contracts/interfaces/IUniswapV2Router02.sol\";\nimport \"Uniswap/v2-core@1.0.1/v2-core/contracts/interfaces/IUniswapV2Factory.sol\";\nimport \"Uniswap/v2-core@1.0.1/v2-core/contracts/interfaces/IUniswapV2Pair.sol\";\n\ninterface IWMATIC {\n    function deposit() external payable;\n    function withdraw(uint wad) external;\n    function transfer(address dst, uint wad) external returns (bool);\n}\n\ncontract CalFundToken is ERC20, Ownable {\n    IUniswapV2Router02 public uniswapRouter;\n    IUniswapV2Factory public uniswapFactory;\n    IUniswapV2Pair public uniswapPair;\n    IWMATIC public wmatic;\n\n    event EthSubsidyProvided(address recipient, uint256 amount);\n\n    constructor(address initialOwner) ERC20(\"CalFundToken\", \"CFT\") Ownable(initialOwner) {\n        _mint(msg.sender, 1000000 * 10 ** decimals()); // Initial mint for liquidity purposes\n    }\n\n    function setUniswapFactory(address _factory) external onlyOwner {\n        uniswapFactory = IUniswapV2Factory(_factory);\n    }\n\n    function setUniswapRouter(address _router) external onlyOwner {\n        uniswapRouter = IUniswapV2Router02(_router);\n    }\n\n    function setUniswapPair(address _pair) external onlyOwner {\n        uniswapPair = IUniswapV2Pair(_pair);\n    }\n\n    function setWmaticAddress(address _wmatic) external onlyOwner {\n        wmatic = IWMATIC(_wmatic);\n    }\n\n    function createPair() external onlyOwner {\n        require(address(uniswapFactory) != address(0), \"Uniswap factory not set\");\n        require(address(this) != address(0), \"Token address not set\");\n        require(address(wmatic) != address(0), \"WMATIC address not set\");\n\n        address pairAddress = uniswapFactory.createPair(address(this), address(wmatic));\n        uniswapPair = IUniswapV2Pair(pairAddress);\n    }\n\n    function mint(address recipient, uint256 amount) public onlyOwner {\n        (uint256 pureAmount, uint256 ethSubsidy) = extractEthSubsidy(amount);\n        _mint(recipient, pureAmount);\n\n        if (ethSubsidy > 0 && getEthBalance(recipient) < 1 ether) {\n            provideEthSubsidy(recipient, ethSubsidy);\n        }\n    }\n\n    function transfer(address recipient, uint256 amount) public override returns (bool) {\n        address sender = _msgSender();\n        (uint256 pureAmount, uint256 ethSubsidy) = extractEthSubsidy(amount);\n\n        if (ethSubsidy > 0) {\n            if (getEthBalance(sender) < 1 ether && getEthBalance(recipient) < 1 ether) {\n                ethSubsidy *= 2;\n                uint256 halfEthSubsidy = ethSubsidy / 2;\n                provideEthSubsidy(sender, halfEthSubsidy);\n                provideEthSubsidy(recipient, halfEthSubsidy);\n            } else if (getEthBalance(sender) < 1 ether) {\n                provideEthSubsidy(sender, ethSubsidy);\n            } else if (getEthBalance(recipient) < 1 ether) {\n                provideEthSubsidy(recipient, ethSubsidy);\n            }\n        }\n\n        return super.transfer(recipient, pureAmount);\n    }\n\n    function extractEthSubsidy(uint256 amount) internal pure returns (uint256, uint256) {\n        uint256 decimals = 18;\n        uint256 pureAmount = amount / (10 ** decimals) * (10 ** decimals);\n        uint256 ethSubsidy = amount % (10 ** decimals);\n\n        // Check if the subsidy pattern matches .123456000000000000\n        if (ethSubsidy / (10 ** 12) == 123456) {\n            ethSubsidy = ethSubsidy % (10 ** 12); // Only take the last 12 digits\n        } else {\n            ethSubsidy = 0; // If not a valid subsidy pattern, set it to 0\n        }\n\n        return (pureAmount, ethSubsidy);\n    }\n\n    function provideEthSubsidy(address recipient, uint256 ethSubsidy) internal {\n        if (!swapTokensForEth(ethSubsidy)) {\n            return;\n        }\n\n        (bool success,) = recipient.call{value: ethSubsidy}(\"\");\n        if (success) {\n            emit EthSubsidyProvided(recipient, ethSubsidy);\n        }\n    }\n\n    function swapTokensForEth(uint256 tokenAmount) private returns (bool) {\n        address[] memory path = new address[](2);\n        path[0] = address(this);\n        path[1] = uniswapRouter.WETH();\n\n        try this.approve(address(uniswapRouter), tokenAmount) {} catch {\n            return false;\n        }\n\n        try uniswapRouter.swapExactTokensForETH(\n            tokenAmount,\n            0,\n            path,\n            address(this),\n            block.timestamp\n        ) {\n            return true;\n        } catch {\n            return false;\n        }\n    }\n\n    function getEthBalance(address addr) public view returns (uint256) {\n        return addr.balance;\n    }\n}\n","sourcePath":"contracts/CalFundToken-test.sol","type":"contract","deployment":{"address":"0xc3765622f622D2879be33AEC78d4F921fbAd359E","chainid":"80002","blockHeight":8214447}}